:100000000C94E6010C94C9330C9405020C9405027F
:100010000C9405020C9405020C9405020C94050244
:100020000C9405020C94F7330C9405020C94050211
:100030000C9405020C94AA310C9405020C94AA317C
:100040000C9405020C94DD310C9405020C9405020D
:100050000C9405020C9405020C9405020C94050204
:100060000C9405020C9405020C9405020C940502F4
:100070000C9405020C9405020C9405020C940502E4
:100080000C94E7310C9405020C9405020C940502C3
:100090000C9405020C9405020C9405020C940502C4
:1000A0000C9405020C9405020C9405020C940502B4
:1000B0000C9405020C9405020C9405020C940502A4
:1000C0000C9405020C9405020C940502F722FD2203
:1000D00000230323062309230F230C2312231523B4
:1000E00018231E232123242327231B23F422FA224F
:1000F0004661696C656420746F206C6F6164206D6B
:100100007920414443206472697665720D0A004388
:10011000726561746520446F6E650D0A00537461E9
:100120007274696E672075702E2E2E0D0A0052545F
:100130002D4C696E6B204552524F523A20637265C6
:100140006174696E67207478207369676E616C20D2
:100150006661696C65640D0A0052542D4C696E6BC2
:10016000204552524F523A206372656174696E673E
:10017000207278207369676E616C206661696C65B6
:10018000640D0A00434332343230204552524F52FC
:100190003A202052656C65617365206F6620736537
:1001A0006D6170686F7265206661696C65640D0AC7
:1001B00000434332343230204552524F523A2020CD
:1001C00041636365737320746F2073656D6170683C
:1001D0006F7265206661696C65640D0A00554E4B4F
:1001E0004F574E004661696C656420746F206372DE
:1001F000656174652053656D6170686F7265004656
:1002000061696C656420746F206372656174652038
:100210005369676E616C004B65726E656C20667524
:100220006E6374696F6E206E6F7420696D706C659B
:100230006D656E746564004465766963652044721B
:1002400069766572204572726F72005761746368D7
:10025000646F6720526573746172740054696D65D0
:1002600072204F766572666C6F7700556E68616EAE
:10027000646C656420496E74657272757074205682
:100280006563746F72004C6F7720566F6C74616792
:1002900065004578747261205461736B20737461DA
:1002A000727465642C206973206E726B5F6366677D
:1002B0002E68206F6B3F0049646C65206F72204B85
:1002C00065726E656C20537461636B204F76657246
:1002D000666C6F7700556E65787065637465642031
:1002E00052657374617274004475706C69636174F3
:1002F0006564205461736B204944005363686564EE
:10030000756C6572204D69737365642057616B6508
:100310007570005461736B20526573657276652049
:1003200056696F6C617465640052657365727665B9
:10033000204572726F7220696E2053636865647520
:100340006C657200496E76616C69642053746163F8
:100350006B20506F696E746572005461736B20532B
:100360007461636B204F766572666C6F77005374AF
:1003700061636B20776173206E6F742064656669BA
:100380006E6564206173206C6172676520656E6FB5
:100390007567682100293A20002A4E524B204552A9
:1003A000524F5228000D0A535441434B2044554D9F
:1003B000500D0A0045464765666700202B2D2E30FC
:1003C00031323334353637383968000011241FBED6
:1003D000CFEFD1E2DEBFCDBF13E0A0E0B2E0E6E9AF
:1003E000F3E700E00BBF02C007900D92A836B107FB
:1003F000D9F71AE0A8E6B3E001C01D92AB31B1070E
:10040000E1F70E94ED030C94CA390C94153261E0B7
:1004100080EA9FE00E94C72F8F3F21F480EF90E099
:100420000E94C41F089580E792E090933A0480935D
:10043000390483EE96E0909336048093350484EE7D
:1004400094E0909338048093370482E080933C04D6
:1004500081E080933B0480933D0480933E0481E0DF
:1004600090E0A0E0B0E080933F0490934004A0931C
:100470004104B09342041092430410924404109239
:1004800045041092460410924704109248041092BA
:10049000490410924A0480E091EEA5EFB5E0809304
:1004A0004B0490934C04A0934D04B0934E041092CF
:1004B0004F04109250041092510410925204109262
:1004C000530410925404109255041092560484E37D
:1004D00094E00E94752A8FE091E00E94C41F089565
:1004E0002F923F924F925F926F927F929F92AF9224
:1004F000BF92CF92DF92EF92FF920F931F93CF9311
:10050000DF93CDB7DEB725970FB6F894DEBF0FBEE9
:10051000CDBF1D821C820E94772899279F938F93BD
:1005200080E092E09F938F930E943A3784E090E0BE
:100530009F938F938FE092E09F938F930E943A371F
:1005400082E090E00E942B1F80E00E9423058DE056
:100550000E94950841E060E080E00E94CB0B41E002
:100560006AE081E00E94CB0B0E94DF0464E78FE623
:1005700094E00E947A048DB79EB708960FB6F8945F
:100580009EBF0FBE8DBF02C00E94372A0E94260464
:100590008823D1F365E081E00E94E42F982E84EE59
:1005A00096E00E94502D8FE697E00E94502D41E08A
:1005B00061E0892D0E945730FF2400E010E064E0E4
:1005C000C62ED12CCC0EDD1E360142E0B601892D9F
:1005D0000E9479308C819D81080F191FF39495E05A
:1005E000F91691F7C80165E070E00E941B396B01B4
:1005F00000E058EFA52E56E0B52E43E0242E312C16
:100600002C0E3D1E3BE7432E32E0532E8AE00E9423
:100610004004882399F083E090E00E940E1F8AE056
:1006200090E09F938F93ECE1F2E0FF93EF930E94B1
:100630003A370F900F900F900F907CC042E0B301BB
:10064000892D0E9479308C819D819F938F9381E3C6
:1006500092E09F938F930E943A3796012C5E3F4F12
:100660000F900F900F900F908C819D812817390764
:1006700010F0013069F484E090E09F938F93E4E4FC
:10068000F2E0FF93EF93BF92AF920E9458371CC0E5
:1006900084E090E09F938F93E7E5F2E0FF93EF9380
:1006A000BF92AF920E945837C601880F991F880FDA
:1006B000991F8C0D9D1D2C813D81820F931F66E03B
:1006C00070E00E941B396B018DB79EB706960FB67E
:1006D000F8949EBF0FBE8DBFF50101900020E9F791
:1006E000E95FF640EC5FEB834AE06E2F85EF96E022
:1006F0000E949A088AE090E09F938F93EAE6F2E0E6
:10070000FF93EF930E943A3713E00F900F900F90F2
:100710000F9009C0E12FFF27EB50F94F80819927F7
:100720000E9451371F5F8B811817A0F381E090E082
:100730000E94F11E0E945B04882309F44BC0AE01A5
:100740004E5F5F4FBE016F5F7F4FC1010E94920BF2
:100750007C018B8199279F938F938A8199279F93FF
:100760008F935F924F920E943A3713E08DB79EB7F6
:1007700006960FB6F8949EBF0FBE8DBF08C0F70156
:10078000E10FF11D808199270E9451371F5F8B81F6
:100790001817A8F3F70185A18433A9F496012C5EFC
:1007A0003F4F8C819D812817390710F0013031F4BB
:1007B00083E090E00E940E1F01E00AC083E090E019
:1007C0000E942B1F05C083E090E00E940E1F00E0F6
:1007D0000E943D040E94780B19CFCFEFD1E2DEBF1B
:1007E000CDBF0E946E1B87E090E00E94A31F8DE1A9
:1007F00091E00E94C41F0E94FE2180E090E00E94D0
:100800000E1F81E090E00E940E1F82E090E00E94A7
:100810000E1F83E090E00E940E1F20E030E040E0D9
:1008200050E060E070E080E090E00E94D92B0E94F0
:1008300007020E948A040E9413020E949E2180E007
:1008400090E00C94CA398FEF9FEF08958091830355
:10085000813019F481E090E008958FEF9FEF0895C3
:10086000809115099091160908958091090499279E
:10087000089580916907992708951092F4060895C4
:10088000282F813231F480916E04992787FD90954D
:1008900008958091040490910504A0910604B091FC
:1008A000070404C0B695A795979587952A95D2F722
:1008B0008170907008958091F406992787FD909536
:1008C000089590937A0380937903089590936B072A
:1008D00080936A0708959093F3068093F206089533
:1008E00090930C0480930B04089590936E0780936B
:1008F0006D070895662359F0009749F090936404BA
:10090000809363046093620481E090E008958FEF28
:100910009FEF08950F931F938EED98E0909313042B
:10092000809312040DE014E040E850E064E873E0C6
:10093000C8010E94D33484E18093150481E0809340
:1009400014048093160480931704109218041092D4
:10095000190410921A0410921B048BE49CE1A6E87F
:10096000B0E080931C0490931D04A0931E04B093E8
:100970001F0410922004109221041092220410925D
:10098000230410922404109225041092260410923D
:100990002704109228041092290410922A0410921D
:1009A0002B0410922C0410922D0410922E041092FD
:1009B0002F04C8010E94752A1F910F9108958091FC
:1009C0006C078230B1F48091300490913104A09191
:1009D0003204B091330480FF07C080911A0999272F
:1009E0008F70907005972CF044E060E081E00E94E9
:1009F000CB0B0E94770D82E08093830308950F93C1
:100A00001F93CF93DF93062F80930A048823B1F0BE
:100A10001FE1CFE1D0E0C81BD1090BC0402F612FEF
:100A200080E00E94CB0B402F612F81E00E94CB0B16
:100A30001150812F9927C817D90784F3DF91CF91DF
:100A40001F910F9108951F93182F0E946A2480937D
:100A5000EE088F3F19F489E591E008C00E946A24EE
:100A600080934A098F3F69F48EE291E00E94C41F8F
:100A7000E091EC09F091ED0960858EE00E9463231E
:100A80007DC01092640410926304109262040E946C
:100A9000EA301092670410927D08109208091092B3
:100AA00007091092F0081092EF0881E094E090930B
:100AB0000409809303091092090410936C071092A3
:100AC0000A0410926E041092F3061092F20610922D
:100AD0000C0410920B0410926E0710926D07109286
:100AE0006B0710926A0710927A031092790384E6DA
:100AF0008093780380E49FE190937703809376035B
:100B000080EA9FE090937503809374038AE080935A
:100B1000720380E899E19093710380937003EAE196
:100B2000F9E0119289E0EA32F807D9F71092EC0661
:100B30001092ED061092EE061092EF06109230041D
:100B40001092310410923204109233041092F40681
:100B500010920404109205041092060410920704E7
:100B60000E94990C2091700330917103609172037F
:100B700040E254E28EE594E00E94301A1F910895FD
:100B80000E94661508951F93CF93DF93182F8091CD
:100B90000904882309F484C0E0910B04F0910C044B
:100BA000309711F0812F0995C12FDD27FE01EE0F3F
:100BB000FF1FEC0FFD1FE258F74F81819281909348
:100BC0007B0780937A07808180937907E0917A0789
:100BD000F0917B078091030990910409892F99274F
:100BE0008083E0917A07F0917B07809103099091CF
:100BF00004098183E0917A07F0917B0780917D0859
:100C0000828380917907833011F010E008C0E09171
:100C10007A07F0917B0782818068828311E040919E
:100C20007403509175036091F9087091FA0887E791
:100C300097E00E943C1721E030E040E050E00C2EAD
:100C400004C0220F331F441F551F0A94D2F720956A
:100C50003095409550958091040490910504A091A1
:100C60000604B091070482239323A423B523809321
:100C7000040490930504A0930604B0930704209104
:100C80000A0480E290E0821B9109C817D90714F08A
:100C900010926E04112321F480914A090E94FF25CD
:100CA000DF91CF911F9108950F931F93CF93DF93FF
:100CB000CDB7DEB722970FB6F894DEBF0FBECDBF1B
:100CC000082F609172038EE594E00E94F3190E9450
:100CD00026150E94A63199279A83898389819A8152
:100CE00004969A8389830BC00E94A63129813A8198
:100CF00099272817390718F40E940E1556C00E942C
:100D0000D211882389F30E94A63199279A83898377
:100D10000E94A63199279A83898389819A810596B1
:100D20009A83898308C00E94A63129813A81992734
:100D30002817390728F00E94B712182F882399F333
:100D40000E940E15113089F51093F4060093E30408
:100D5000E0916304F091640480819927982F88279B
:100D600021813327282B392B809103099091040985
:100D70002817390721F03093040920930309E091E3
:100D8000F206F091F306309711F0802F0995E0916B
:100D90006304F0916404828187FD05C08091EE08B0
:100DA0000E94FF2502C01092F40622960FB6F89416
:100DB000DEBF0FBECDBFDF91CF911F910F91089580
:100DC000CF93DF93EC01FA01842F8F7121E030E0A3
:100DD00040E050E004C0220F331F441F551F8A9586
:100DE000D2F78091300490913104A0913204B091F7
:100DF0003304282339234A235B2321153105410578
:100E0000510519F080E090E013C0D093E308C0933F
:100E1000E2086093E108F0936904E093680460E0FD
:100E2000CF010E94AC0C81E08093690781E090E0E3
:100E3000DF91CF9108954F925F926F927F928F9240
:100E40009F92AF92BF92CF92DF92EF92FF920F9359
:100E50001F93CF93DF93CDB7DEB722970FB6F894E9
:100E6000DEBF0FBECDBFCC24DD24EE24FEE54F2E29
:100E7000F4E05F2EEEE86E2EE2E07E2E7FE9872E14
:100E800072E0972E66EBA62E62E0B62EE091630428
:100E9000F09164048FEF8083E0916304F091640427
:100EA000818360917203C2010E94F3190E9426158A
:100EB0008F2D992787FD90959F938F937F926F92A7
:100EC0000E943A37109209048AEF0E94373110E0ED
:100ED0000F900F900F900F901EC00E94A631181710
:100EE000D1F00E94A631182F0894C11CD11C21E119
:100EF000C21627E2D20678F010927D08E39485E0CE
:100F00008E1518F0CC24DD240BC00E945A34CC245A
:100F1000DD24EE2405C00E94D211F82E8823E9F2C8
:100F20008F2D992787FD90959F938F939F928F92F6
:100F30000E943A370E94EE300E94F6309A838983ED
:100F40000E94A631082F11270C5F1F4F0F900F90A2
:100F50000F900F90FF2061F006C00E94A6319927E4
:100F60000817190728F00E94B712F82E8823A9F352
:100F70000E940E158F2D992787FD90959F938F9333
:100F8000BF92AF920E943A370F900F900F900F9040
:100F900021E0F21609F07ACF8091610418160CF066
:100FA00075CFF092F406E0916304F09164048081BF
:100FB00099279093040980930309809103099091E4
:100FC0000409982F8827909304098093030920919E
:100FD00003093091040981819927822B932B9093E7
:100FE0000409809303092281122F1F7780917D08C5
:100FF000811730F08F3608F449CF1A3008F046CF09
:1010000080910309909104098F718093E30427FD77
:1010100018C02091E3048091EC069091ED06A09118
:10102000EE06B091EF0604C0B695A7959795879503
:101030002A95D2F780FF05C08091EE080E94FF2517
:1010400002C01092F40680910309909104098F71F7
:101050008093E30480910309909104090197909390
:101060001609809315091092670410937D0881E09A
:101070008093090480910709909108090E94ED0C62
:1010800080910309909104098050944030F480913C
:10109000030990910409029718F48EEF93E005C0BC
:1010A0008091030990910409029790930809809315
:1010B000070960E080910709909108090E94AC0C33
:1010C0000E94770D0E9411310E94283187E00E9412
:1010D0001C3166E67CE680E090E00E942B320E94A4
:1010E00028310E941F310E94EE300E94F63090930A
:1010F000FA088093F90880910904992722960FB67F
:10110000F894DEBF0FBECDBFDF91CF911F910F913D
:10111000FF90EF90DF90CF90BF90AF909F908F9017
:101120007F906F905F904F900895809372030E941C
:101130001D1A08951F93CF93DF93EC01162F4132B0
:1011400061F40E94A43660910A0477270E942F3927
:101150004FE1481B81E080936E04842F9927FC01A6
:10116000EE0FFF1FE80FF91FE258F74FD283C1833C
:10117000108321E030E040E050E004C0220F331F34
:10118000441F551F8A95D2F780910404909105045D
:10119000A0910604B0910704822B932BA42BB52BAE
:1011A0008093040490930504A0930604B09307046D
:1011B00081E090E0DF91CF911F9108954F925F926F
:1011C0006F927F928F929F92AF92BF92DF92EF9237
:1011D000FF920F931F93CF93DF93109283030E948C
:1011E000372A809183038823D1F381E0809383039E
:1011F0001092800710927F0788E693E00E94502D9E
:1012000028E6622E23E0722E98EC492E92E0592EA9
:1012100081EE882E88E0982E07E5A02E04E0B02EFF
:101220000E94F6309093FA088093F908C3010E9457
:10123000502D809103099091040990938007809329
:101240007F078150944021F41092800710927F070D
:1012500080910309909104099093160980931509D0
:1012600080910309909104098050944008F11092F4
:101270000409109203098091EF089091F0080196FB
:101280009093F0088093EF08E0917903F0917A034E
:10129000309729F08091EF089091F00809950E940D
:1012A000770D80916C07823019F481E080930904F6
:1012B000E0916A07F0916B07309729F0809103095C
:1012C00090910409099580916C07882329F5209154
:1012D0000309309104094091070950910809CA0196
:1012E000019628173907C1F48091030990910409E8
:1012F0005F934F939F938F935F924F920E943A37E1
:101300008DB79EB706960FB6F8949EBF0FBE8DBFE1
:101310000E941B078823E1F380910309909104093F
:101320000E94220D813059F4E0916D07F0916E0713
:10133000309729F0809103099091040909958091D3
:101340000309909104090E94990DEC018091030911
:10135000909104090E94560D009739F0209709F4E6
:101360000AC18C179D0758F406C1209741F480915B
:10137000030990910409C0E0D4E0C81BD90B809107
:101380000309909104091FE1D12ED82280916C07A6
:10139000823099F48091030990910409892B09F016
:1013A000ECC080917D088F5F80937D0887FFE5C04A
:1013B00010927D08E2C0109267044D2D5527B1E0D0
:1013C000EB2EF12C012D112D042E04C0EE0CFF1C70
:1013D000001F111F0A94D2F780916704882309F037
:1013E00043C08091300490913104A0913204B091B7
:1013F00033048E219F21A023B1230097A105B105BD
:1014000099F18091040490910504A0910604B09193
:1014100007048E219F21A023B1230097A105B105C8
:1014200001F590925B0480925A048091E3088068F1
:101430008093E30883E08093590420910A0480E2BA
:1014400090E0821B91098417950734F480916E0413
:10145000882339F441E201C04D2D63E0C5010E94AB
:101460009A0881E080936704209103093091040970
:1014700080910709909108092817390709F448C095
:101480008091300490913104A0913204B0913304E2
:101490002091040430910504409106045091070402
:1014A00082239323A423B5238E219F21A023B1233C
:1014B0000097A105B10521F08D2D0E94C30528C01C
:1014C0008091EC069091ED06A091EE06B091EF06AA
:1014D0008E219F21A023B1230097A105B10541F0E2
:1014E0008091F406882321F48D2D0E94540610C0AB
:1014F0002091030930910409809168049091690456
:101500002817390729F481E20E94C3051092690760
:1015100020910309309104098091070990910809ED
:101520002817390791F480916C07823071F080910F
:10153000030990910409019690930409809303098B
:1015400085E090E00E94A2296BCE809103099091E2
:1015500004098C0F9D1F909304098093030980E078
:1015600090E00E940E1FCE010E94042A80E090E0CD
:101570000E942B1F55CEEC0102CFDD2009F41BCFBA
:101580001CCF6F927F928F929F92AF92BF92CF9219
:10159000DF92EF92FF920F931F93CF93DF93CDB71C
:1015A000DEB728970FB6F894DEBF0FBECDBF3E0161
:1015B0000894611C711CC3010E94502D8090680327
:1015C00090906903A0906A03B0906B03C0906C0385
:1015D000D0906D03E0906E03F0906F0309811A8143
:1015E0002B813C814D815E816F817885C3010E9492
:1015F000CB2A69817A818B819C8120E03AEC4AE98F
:101600005BE30E94FC389B01AC016D817E818F8180
:101610009885620F731F841F951F28EA3BE246E8F6
:1016200050E00E944239DA01C90120917F073091D0
:101630008007820F931F28960FB6F894DEBF0FBE67
:10164000CDBFDF91CF911F910F91FF90EF90DF9071
:10165000CF90BF90AF909F908F907F906F900895A4
:101660008091EE080E94F32480914A090E94F3249D
:1016700021E030E040E050E0CA01B90100904A09A1
:1016800004C0660F771F881F991F0A94D2F7009035
:10169000EE0804C0220F331F441F551F0A94D2F7CF
:1016A000622B732B842B952B0E94512781E090E0B5
:1016B00008951F93182F80914A090E94F3240FC0A8
:1016C00061E070E080E090E000904A0904C0660F9D
:1016D000771F881F991F0A94D2F70E945127812FE4
:1016E0000E944004882361F781E090E01F910895F3
:1016F0008091EE080E94F3248091F406882379F407
:1017000061E070E080E090E00090EE0804C0660FB9
:10171000771F881F991F0A94D2F70E94512781E0F2
:1017200090E00895CF93DF93FC01DB01EA01809103
:10173000F406882331F410821C92188280E090E035
:101740000DC0809161048083809166048C938091A8
:10175000E30488838091630490916404DF91CF91C6
:10176000089580918303813019F08FEF9FEF0895E2
:101770008091EE08992787FD9095089580918303C5
:10178000813019F08FEF9FEF089580914A099927D2
:1017900087FD909508951F93142F403108F052C093
:1017A000603208F04FC0E62FFF2721E030E040E034
:1017B00050E00E2E04C0220F331F441F551F0A9401
:1017C000D2F78823A9F48091EC069091ED06A091C0
:1017D000EE06B091EF06822B932BA42BB52B8093B2
:1017E000EC069093ED06A093EE06B093EF0614C0BE
:1017F0008091300490913104A0913204B09133046F
:10180000822B932BA42BB52B80933004909331041F
:10181000A0933204B093330466957727E0FD06C0A9
:10182000FB01E65EF64F8081807F07C0FB01E65E2C
:10183000F64F80811295107F8F70812B808381E01D
:1018400090E002C08FEF9FEF1F910895982F803294
:1018500018F08FEF9FEF08958695E82FFF2790FDF2
:1018600009C0E65EF64F8081992787FD90958F70BD
:1018700090700895E65EF64F808182958F7099276B
:1018800087FD90950895782F603208F04FC0E62FBD
:10189000FF2781E090E00E2E02C0880F991F0A9466
:1018A000E2F79C01442737FD4095542F2095309551
:1018B000409550957723A9F48091EC069091ED0620
:1018C000A091EE06B091EF0682239323A423B523C3
:1018D0008093EC069093ED06A093EE06B093EF068E
:1018E00014C08091300490913104A0913204B091E1
:1018F000330482239323A423B5238093300490934D
:101900003104A0933204B093330466957727E0FD49
:1019100006C0FB01E65EF64F8081807F05C0FB01BB
:10192000E65EF64F80818F70808308958FEF9FEF82
:10193000089581E094E09093FC088093FB089093D5
:10194000FE088093FD08909300098093FF08909310
:1019500002098093010908959C018091FB089091F0
:10196000FC089F778150944018F080E090E023C0FD
:101970008091FD089091FE089F778150944018F067
:1019800081E090E018C08091FF08909100099F7756
:101990008150944018F082E090E00DC080910109E0
:1019A000909102099F778150944018F48FEF9FEF38
:1019B000089583E090E0FC01EE0FFF1FE550F74F24
:1019C00031832083662319F481E090E00895306824
:1019D0003183208381E090E008959C018091FB0891
:1019E0009091FC089F778217930719F4E0E0F0E0EC
:1019F00020C08091FD089091FE089F778217930781
:101A000019F4E1E0F0E015C08091FF089091000921
:101A10009F778217930719F4E2E0F0E00AC0809103
:101A20000109909102099F778217930751F4E3E02F
:101A3000F0E0EE0FFF1FE550F74F81E094E0918357
:101A400080830895AC012091FB083091FC08C90106
:101A50009F7784179507F1F02091FD083091FE08DB
:101A6000C9019F7784179507A9F02091FF0830914D
:101A70000009C9019F778417950761F0209101093A
:101A800030910209C9019F778417950719F080E00A
:101A900090E008952150304818F081E090E00895DA
:101AA000CA010E94ED0C81E090E00895AC01EBEFDB
:101AB000F8E081E094E0208131813F7764E02030DC
:101AC000360748F4241B350B1216130624F4281786
:101AD00039070CF4C901329629E0E330F20759F7CF
:101AE00064E08130960711F480E090E00895EAE226
:101AF000F9E0119289E0EA34F807D9F70895582FF0
:101B0000662319F481E090E00895482F20E030E04A
:101B100077276150704003C0459F402D1124822FCC
:101B200099272F5F3F4F86179707B4F3842F992784
:101B30000895AF92BF92CF92DF92EF92FF921F93E0
:101B4000CF93DF935C016AE2C62E69E0D62E51E0A6
:101B5000E52E54E0F52EC0E0D0E08C2F0E94260C3C
:101B6000682F882301F1F6011081615082E00E9404
:101B70007F0D212F332745E0220F331F4A95E1F7D0
:101B80002C0F3D1FA216B30610F0180FF2CFF6016E
:101B90001083C9018A199B098E159F0520F42150D5
:101BA000344008F47C0121960894C11CD11CC03239
:101BB000D10599F641E0E41644E0F40610F0EE2475
:101BC000FF24C701DF91CF911F91FF90EF90DF902D
:101BD000CF90BF90AF9008952091090930910A09E4
:101BE000AC01421B530B509314094093130990937B
:101BF0000A098093090908958091130990911409A5
:101C00000895EBE0F9E08FEF819399E0E331F90774
:101C1000D1F78093E6081092060910920A091092F3
:101C200009090895982F969595758575980F892FB0
:101C30008695869583739373890F982F9F708295ED
:101C40008F70890F992708951F93CF93DF93CBE06F
:101C5000D9E010E089910E94120E180F89E0C3317B
:101C6000D807C1F7812F9927DF91CF911F91089550
:101C70008091E6080E94120E992708954091060966
:101C8000E42FE695E695E695FF27E55FF64F842F6E
:101C90009927809590958770907021E030E002C080
:101CA000220F331F8A95E2F78081822B80834F5F5A
:101CB00040930609413410F01092060908954091AE
:101CC0000609E42FE695E695E695FF27E55FF64FD2
:101CD000242F3327209530952770307081E090E0D5
:101CE00002C0880F991F2A95E2F7809520818223F0
:101CF00080834F5F40930609413410F0109206092B
:101D00000895883018F080E090E00895E82FFF27CC
:101D1000EF50F74F80819927089540911809E42FDB
:101D2000E695E695E695FF27A42FBB27EA51F74FE6
:101D3000CD01809590958770907021E030E002C0D1
:101D4000220F331F8A95E2F78081822B8083AF5068
:101D5000B74F1C924F5F40931809493010F0109212
:101D60001809089560911809E62FE695E695E6951D
:101D7000FF27A62FBB27EA51F74FAD01409550959D
:101D80004770507021E030E002C0220F331F4A95A7
:101D9000E2F72095908129232083AF50B74F8C9391
:101DA0006F5F60931809693010F010921809089558
:101DB000EAE7F0E083E08083ACE7B0E080E48C9376
:101DC00080818068808310924C098C91807E8C93F6
:101DD0009C918C91807E892B8C93089588EC90E067
:101DE0000E94E030089580917A00806480937A00A8
:101DF00080917A0084FFFCCF0E94EE0E2091780043
:101E00003327809179009927982F8827822B932B4D
:101E10000895FF920F931F93CF93DF93CDB7DEB753
:101E200022970FB6F894DEBF0FBECDBF0E944911B6
:101E30008C01009711F00E94FD26159AFF248F2D2A
:101E4000806299279A83898340988BE18EBD0DB477
:101E500007FEFDCF89819A81892F99278EBD0DB408
:101E600007FEFDCF89819A818EBD0DB407FEFDCF9F
:101E7000409A82E090E00E94E03040988BE58EBD71
:101E80000DB407FEFDCF1EBC0DB407FEFDCF8EB511
:101E90009927982F88279A8389831EBC0DB407FE43
:101EA000FDCF89819A812EB53327282B392B3A8390
:101EB0002983409A89819A8186FD05C0F3942FE198
:101EC000F21609F0BCCF0115110519F0C8010E94E6
:101ED000AB25FF20C9F40E94F30E9A838983898180
:101EE0009A818F3A910530F089819A818E5A90407B
:101EF0009A83898389819A818A54914098F48AE4EB
:101F000091E09A8389830EC02DE7F29E90011124FF
:101F100088E293E2821B930B6BE170E00E942F3901
:101F20007A83698389819A8122960FB6F894DEBFFD
:101F30000FBECDBFDF91CF911F910F91FF900895FC
:101F4000CF92DF92EF92FF920F931F93CF93DF9385
:101F5000982FEA01122F823009F481C0833030F4C7
:101F6000882371F0813009F0D2C010C0843009F4A8
:101F700081C0843008F477C0853009F0C8C02DC016
:101F800080E880BB8F9A0E94D80E6AC080914B096E
:101F9000813009F4C3C090934B09772760FF13C0C9
:101FA0008F9810924C0980917C00807E80937C00F9
:101FB00090917C0080917C00807E892B80937C00B6
:101FC00088EE93E09FC061FDA9C062FDA7C0677065
:101FD0007070672B09F4A2C097C0822F81508230A5
:101FE00008F099C090914C09892F8150863018F4DF
:101FF0000E94F30E22C0992319F40E94090F1DC0FC
:10200000973051F5F1E0CF2EF4E0DF2EEE24FF24DF
:1020100000E00E94F30E8C159D0508F46C01E81693
:10202000F90608F47C018DE790E00E94E0300F5F34
:10203000003479F7C7018C199D09123031F4888377
:10204000892F9927898381E008C0113029F496955A
:10205000879596958795888380E08F5F09C08F9AD2
:1020600010924B0951C0613009F058C080914C0961
:10207000992756C0613009F051C02730D9F4209318
:102080004C0980917C008F7780937C0080917C004C
:10209000806480937C0080917C00807E80937C00B3
:1020A00090917C0080917C009360807E982B90932F
:1020B0007C0026C0283020F081E00E949E222EC0A5
:1020C00020934C09213049F480917C008F778093D4
:1020D0007C0080917C00806403C080917C00806CD7
:1020E00080937C0080917C00807E80937C00909126
:1020F0007C0080917C00807E892B812B80937C00EA
:1021000088EC90E00E94E03081E090E009C060E05F
:102110008CE00E94632380E090E002C08FEF90E0AB
:10212000DF91CF911F910F91FF90EF90DF90CF90B3
:10213000089599279C01265A3E4B0B97880F991FAB
:10214000880F991F280F391FF894409888E18EBD99
:102150000DB407FEFDCF832F99278EBD0DB407FE6A
:10216000FDCF2EBD0DB407FEFDCF409A78940895A3
:10217000F89440981EBC0DB407FEFDCF8EB5409A72
:10218000789486FFF5CF0895809162099927089584
:10219000CF93DF93DC01409889EC8EBD0DB407FE30
:1021A000FDCF80E88EBD0DB407FEFDCF92E09150CB
:1021B000FD01E90FF11D80818EBD0DB407FEFDCF3D
:1021C0009923A9F7409A40988BEC8EBD0DB407FE79
:1021D000FDCF80E88EBD0DB407FEFDCF92E09D01DE
:1021E0002E5F3F4FE9019150F901E90FF11D808108
:1021F0008EBD0DB407FEFDCF9923A1F7409A8C91B7
:1022000080936309FD0181818093640988818093B3
:102210006509838180936609DF91CF910895409885
:1022200089E18EBD0DB407FEFDCF83E08EBD0DB4F8
:1022300007FEFDCF86E08EBD0DB407FEFDCF409AB0
:1022400040988AE18EBD0DB407FEFDCF8EE08EBDB5
:102250000DB407FEFDCF8EE08EBD0DB407FEFDCFA1
:10226000409A81E0809353090895409889E18EBD9A
:102270000DB407FEFDCF81E08EBD0DB407FEFDCF8E
:1022800084EC8EBD0DB407FEFDCF409A1092530929
:10229000089580915109909152090895209154090F
:1022A000309155093860309355092093540940986E
:1022B00081E18EBD0DB407FEFDCF832F99278EBD22
:1022C0000DB407FEFDCF2EBD0DB407FEFDCF409A25
:1022D00008952091540930915509377F309355095D
:1022E00020935409409881E18EBD0DB407FEFDCFC7
:1022F000832F99278EBD0DB407FEFDCF2EBD0DB4E3
:1023000007FEFDCF409A089581E0809361092091F6
:10231000540930915509206130935509209354098F
:10232000409881E18EBD0DB407FEFDCF832F992724
:102330008EBD0DB407FEFDCF2EBD0DB407FEFDCF43
:10234000409A0895109261092091540930915509DD
:102350002F7E3093550920935409409881E18EBD1A
:102360000DB407FEFDCF832F99278EBD0DB407FE58
:10237000FDCF2EBD0DB407FEFDCF409A089589B163
:10238000992766E0969587956A95E1F78170907038
:1023900008958CB1992787FD90958827990F881FFC
:1023A0009927089589B19927E6E096958795EA954A
:1023B000E1F781709070089580916709882319F47E
:1023C00080E090E00895809167091092670999274D
:1023D00087FD90950895409888E08EBD0DB407FE66
:1023E000FDCF409A409888E08EBD0DB407FEFDCF2A
:1023F000409A089580915109909152090E94FD26BA
:10240000409886E08EBD0DB407FEFDCF409A8091C6
:102410005109909152090E94AB250895809151096C
:10242000909152090E94FD26409884E08EBD0DB423
:1024300007FEFDCF409A80915109909152090E9468
:10244000AB25089580915109909152090E94FD2673
:10245000409886E08EBD0DB407FEFDCF409A4098AF
:1024600082E18EBD0DB407FEFDCF85E08EBD0DB4BB
:1024700007FEFDCF1EBC0DB407FEFDCF409A40986D
:102480008EE28EBD0DB407FEFDCF1EBC0DB407FE5F
:10249000FDCF1EBC0DB407FEFDCF409A0E94EB118C
:1024A00080915109909152090E94AB250895809125
:1024B0005109909152090E94FD26409886E08EBDF8
:1024C0000DB407FEFDCF409A409882E18EBD0DB459
:1024D00007FEFDCF85E08EBD0DB407FEFDCF88E081
:1024E0008EBD0DB407FEFDCF409A40988EE28EBDA2
:1024F0000DB407FEFDCF88E18EBD0DB407FEFDCF04
:102500001EBC0DB407FEFDCF409A0E94EB118091D6
:102510005109909152090E94AB2508950F931F9382
:10252000082F80915109909152090E94FD26112790
:1025300007FD1095302F22272068409883E18EBD3B
:102540000DB407FEFDCF832F99278EBD0DB407FE76
:10255000FDCF2EBD0DB407FEFDCF409A80915109ED
:10256000909152090E94AB251F910F910895CF932E
:10257000DF93CDB7DEB724970FB6F894DEBF0FBE5A
:10258000CDBF80915109909152090E94FD26679B11
:1025900034C210926209679B25C0319923C04098CC
:1025A0008FE78EBD0DB407FEFDCF1EBC0DB407FE38
:1025B000FDCF8EB5409A409888E08EBD0DB407FEE1
:1025C000FDCF409A409888E08EBD0DB407FEFDCF48
:1025D000409A80915109909152090E94AB258FEF4A
:1025E0009FEF13C240988FE78EBD0DB407FEFDCF5D
:1025F0001EBC0DB407FEFDCF4EB5409A4F7719F5BE
:1026000040988FE78EBD0DB407FEFDCF1EBC0DB404
:1026100007FEFDCF8EB5409A409888E08EBD0DB480
:1026200007FEFDCF409A409888E08EBD0DB407FEAE
:10263000FDCF409A80915109909152090E94AB259B
:102640008EEF9FEFE2C145308CF0E0915609F0919A
:102650005709242F332727FD30952B503040848194
:10266000992787FD909582179307F4F540988FE797
:102670008EBD0DB407FEFDCF60E070E0242F332740
:1026800027FD309506C01EBC0DB407FEFDCF6F5F61
:102690007F4F862F99278217930714F43199F3CF30
:1026A000409A40988FE78EBD0DB407FEFDCF1EBC4B
:1026B0000DB407FEFDCF8EB5409A409888E08EBDE0
:1026C0000DB407FEFDCF409A409888E08EBD0DB452
:1026D00007FEFDCF409A80915109909152090E94C6
:1026E000AB258DEF9FEF91C1E0915609F09157090D
:1026F0004C50438340988FE78EBD0DB407FEFDCF4D
:10270000FE0131969E012D5F3F4F1EBC0DB407FEAA
:10271000FDCF8EB58193E217F307B9F7409AE091A8
:102720005609F091570989819A81B5E09695879568
:10273000BA95E1F78170878340988FE78EBD0DB41D
:1027400007FEFDCF1EBC0DB407FEFDCFE09156097C
:10275000F09157098EB58083409A40988FE78EBDDF
:102760000DB407FEFDCF80E007C01EBC0DB407FE10
:10277000FDCF8F5F843011F03199F7CF409A4098A8
:102780008FE78EBD0DB407FEFDCF20E030E01EBC0C
:102790000DB407FEFDCFE0915609F0915709E20F05
:1027A000F31F8EB581832F5F3F4F2230310579F7BC
:1027B000409A89819A8183FF56C040988FE78EBDE9
:1027C0000DB407FEFDCFEDE4F9E01EBC0DB407FE2D
:1027D000FDCF8EB5819389E0E135F807B1F7409AD6
:1027E000409889E98EBD0DB407FEFDCF80E88EBD0F
:1027F0000DB407FEFDCF92E09150E92FFF27E35B78
:10280000F64F80818EBD0DB407FEFDCF9923A1F751
:10281000409A40988BE98EBD0DB407FEFDCF80E84D
:102820008EBD0DB407FEFDCF92E09150E92FFF273A
:10283000E15BF64F80818EBD0DB407FEFDCF99237D
:10284000A1F7409A40988CE08EBD0DB407FEFDCFF5
:10285000409A81E080936209E0915609F09157090E
:1028600083818450838340988FE78EBD0DB407FE2B
:10287000FDCF40E050E011C01EBC0DB407FEFDCFFF
:10288000E0915609F09157090580F681E02DE60F99
:10289000F11D8EB580834F5F5F4F642FE091560925
:1028A000F0915709242F33278381992787FD90952D
:1028B000281739070CF3409A40988FE78EBD0DB466
:1028C00007FC0AC0FCCF0DB407FEFDCF5EB5409AF1
:1028D00040988FE78EBD02C01EBCF5CF0DB407FE39
:1028E000FDCFFE0133969E012B5F3F4F1EBC0DB402
:1028F00007FEFDCF8EB58193E217F307B9F7409A33
:10290000E0915609F09157098B81808740E020E0E3
:1029100030E00AC0E0915609F0915709858196810F
:10292000A80FB91F8C91480F822FE0915609F091A2
:1029300057092F5F3F4FA82FBB278381992787FD1A
:102940009095A817B90734F3451719F140988FE708
:102950008EBD0DB407FEFDCF1EBC0DB407FEFDCF2E
:102960008EB5409A409888E08EBD0DB407FEFDCF2D
:10297000409A409888E08EBD0DB407FEFDCF409A86
:1029800080915109909152090E94AB258CEF9FEFE5
:102990003CC08C8187FF0EC0809167098F5F809358
:1029A000670980915109909152090E94AB2581E0FD
:1029B00090E02BC040988FE78EBD0DB407FEFDCF91
:1029C0001EBC0DB407FEFDCF8EB5409A409888E03E
:1029D0008EBD0DB407FEFDCF409A409888E08EBDB5
:1029E0000DB407FEFDCF409A809151099091520994
:1029F0000E94AB258BEF9FEF08C080915109909109
:102A000052090E94AB2580E090E024960FB6F8941E
:102A1000DEBF0FBECDBFDF91CF91089580915109E8
:102A2000909152090E94FD2610925E09409886E01E
:102A30008EBD0DB407FEFDCF409A109267098091BC
:102A40005109909152090E94AB2508958091510936
:102A5000909152090E94FD2681E080935E09409882
:102A600083E08EBD0DB407FEFDCF409A409888E00C
:102A70008EBD0DB407FEFDCF409A1092670980917C
:102A80005109909152090E94AB25089580915109F6
:102A9000909152090E94FD2681E080935E09409842
:102AA00083E08EBD0DB407FEFDCF409A409888E0CC
:102AB0008EBD0DB407FEFDCF409A1092670980913C
:102AC0005109909152090E94AB2508951F93182F28
:102AD00080915109909152090E94FD26212F3327A0
:102AE0002F713070206E306A409885E18EBD0DB434
:102AF00007FEFDCF832F99278EBD0DB407FEFDCFB6
:102B00002EBD0DB407FEFDCF409A809151099091E2
:102B100052090E94AB251F910895EF92FF920F93E7
:102B20001F93CF93DF93CDB7DEB722970FB6F894FC
:102B3000DEBF0FBECDBF8C0180915109909152092B
:102B40000E94FD2650915309552339F040988DE09D
:102B50008EBD0DB407FEFDCF409AF8014281642F6F
:102B6000772767FD7095A0E020E030E008C0F8010D
:102B700083819481E80EF91EF7018081A80F822FCE
:102B80002F5F3F4FE82EFF24E616F70684F3942FBD
:102B9000945F51119C5F6799FECF4E99FCCFF894DA
:102BA000409889E08EBD0DB407FEFDCF409A409855
:102BB00089E08EBD0DB407FEFDCF409A40988EE3AC
:102BC0008EBD0DB407FC05C0FCCF0DB407FC30C1B1
:102BD000FCCF9EBDFACF81E698E89A83898355237E
:102BE00029F089819A8188609A83898340988EE34D
:102BF0008EBD0DB407FEFDCFFE0131969E012D5F07
:102C00003F4F80818EBD0DB407FEFDCF3196E21798
:102C1000F307B9F7409A40988EE38EBD0DB407FCD8
:102C200005C0FCCF0DB407FC0EC1FCCF8091580944
:102C30008EBDF8CF0DB407FEFDCF20E030E0F901E6
:102C4000E65AF64F80818EBD0DB407FEFDCF2F5F93
:102C50003F4F2230310599F7409A40988EE38EBD60
:102C60000DB407FEFDCF20E030E0F801E20FF31FC6
:102C700080818EBD0DB407FEFDCF2F5F3F4F223008
:102C8000310599F7409A40988EE38EBD0DB407FE4A
:102C9000FDCF20E030E0F901E45AF64F80818EBD8F
:102CA0000DB407FEFDCF2F5F3F4F2230310599F75E
:102CB000409A552399F040988EE38EBD0DB407FEDF
:102CC000FDCFE3E6F9E080818EBD0DB407FEFDCFB8
:102CD000319689E0E736F807B1F7409A40988EE3DD
:102CE0008EBD0DB407FEFDCF20E030E00DC0F80131
:102CF00083819481480F591FFA0180818EBD0DB4E4
:102D000007FEFDCF2F5F3F4F422F5527461757072E
:102D100074F3409A40988EE38EBD0DB407FC05C055
:102D2000FCCF0DB407FC94C0FCCFAEBDFACF8091B0
:102D30005E09882339F4409883E08EBD0DB407FE08
:102D4000FDCF409A40981EBC0DB407FEFDCF8EB556
:102D5000409A81FFF7CF00E0409885E08EBD0DB42A
:102D600007FEFDCF409A40981EBC0DB407FEFDCF74
:102D70001EB5409A0F5F053651F478948091510941
:102D8000909152090E94AB2580E090E068C084E6F3
:102D900090E00E94D71F13FD08C0DECF409884E06A
:102DA0008EBD0DB407FEFDCF409A78944E9BFECFAA
:102DB0004E99FECF80916109882391F084EA92E0D8
:102DC0000E94D71F319B0EC040988FE78EBD0DB477
:102DD00007FEFDCF1EBC0DB407FEFDCF8EB5409A99
:102DE00011E00FC0409888E08EBD0DB407FEFDCF06
:102DF000409A409888E08EBD0DB407FEFDCF409A02
:102E000010E0F894409886E08EBD0DB407FEFDCF2B
:102E1000409A7894809158098F5F809358098091E7
:102E20005109909152090E94AB25812F992717C013
:102E3000409A81E498E89A83898380916109882384
:102E400009F0C9CECCCE409A40988EE38EBDF2CE2A
:102E5000409AF8018581882309F069CF9FCF229697
:102E60000FB6F894DEBF0FBECDBFDF91CF911F919B
:102E70000F91FF90EF900895BF92CF92DF92EF9263
:102E8000FF920F931F93CF93DF93CDB7DEB72297B7
:102E90000FB6F894DEBF0FBECDBF8C016B017A0177
:102EA00080915109909152090E94FD260E94A631FD
:102EB000409888E08EBD0DB407FEFDCF409A409843
:102EC00088E08EBD0DB407FEFDCF409A6799FECF16
:102ED0004E99FCCFF894409889E08EBD0DB407FE62
:102EE000FDCF409A409889E08EBD0DB407FEFDCF1E
:102EF000409AF8016281462F552747FD5095BB2423
:102F000020E030E007C0F80183819481A80FB91F49
:102F10008C91B80E822F2F5F3F4FA82FBB27A4178D
:102F2000B5078CF3962F945F40988EE38EBD0DB459
:102F300007FC05C0FCCF0DB407FC0DC1FCCF9EBD46
:102F4000FACF81E698E89A83898340988EE38EBD14
:102F50000DB407FEFDCFFE0131969E012D5F3F4F60
:102F600080818EBD0DB407FEFDCF3196E217F307C9
:102F7000B9F7409A40988EE38EBD0DB407FC05C0AA
:102F8000FCCF0DB407FCF0C0FCCF809158098EBD7A
:102F9000F8CF0DB407FEFDCF20E030E0F901E65A8E
:102FA000F64F80818EBD0DB407FEFDCF2F5F3F4FE2
:102FB0002230310599F7409A40988EE38EBD0DB4CA
:102FC00007FEFDCF20E030E0F801E20FF31F808123
:102FD0008EBD0DB407FEFDCF2F5F3F4F2230310570
:102FE00099F7409A40988EE38EBD0DB407FEFDCF51
:102FF00020E030E0F901E45AF64F80818EBD0DB437
:1030000007FEFDCF2F5F3F4F2230310599F7409AE1
:10301000B701C6010E942B32F8018581882379F11E
:1030200080915E09882339F4409883E08EBD0DB409
:1030300007FEFDCF409AEE24409885E08EBD0DB48A
:1030400007FEFDCF409A40981EBC0DB407FEFDCF91
:10305000FEB4409AE394F5E6EF1651F4789480912B
:103060005109909152090E94AB2580E090E083C005
:1030700084E690E00E94D71FF3FC08C0DDCF4098A3
:1030800084E08EBD0DB407FEFDCF409A40988EE3DC
:103090008EBD0DB407FEFDCFF8018281482F552764
:1030A00047FD509520E030E00CC0F8018381948109
:1030B000A80FB91F8C918EBD0DB407FEFDCF2F5FF9
:1030C0003F4FA22FBB27A417B5077CF3409A409827
:1030D0008EE38EBD0DB407FC05C0FCCF0DB407FC1C
:1030E00048C0FCCFBEBCFACF4E9BFECFF8944E99A1
:1030F000FECF409888E08EBD0DB407FEFDCF409A0C
:10310000409888E08EBD0DB407FEFDCF409A4098F0
:1031100089E08EBD0DB407FEFDCF409A409889E04E
:103120008EBD0DB407FEFDCF409A409886E08EBD5F
:103130000DB407FEFDCF409A7894809158098F5FB7
:103140008093580980915109909152090E94AB25B2
:1031500081E090E010C0409AF8018681882309F050
:10316000F0CE81E498E8EFCE409A40988EE38EBD91
:1031700010CF409AB9CF22960FB6F894DEBF0FBE9B
:10318000CDBFDF91CF911F910F91FF90EF90DF9016
:10319000CF90BF900895CF93DF93CDB7DEB722973E
:1031A0000FB6F894DEBF0FBECDBF9A83898390938C
:1031B0005D0980935C0984EF91E00E94E0304098C3
:1031C0008AEE8EBD0DB407FEFDCF80E88EBD0DB436
:1031D00007FEFDCFFE0131969E012D5F3F4F80819E
:1031E0008EBD0DB407FEFDCF3196E217F307B9F798
:1031F000409A84EF91E00E94E03022960FB6F89456
:10320000DEBF0FBECDBFDF91CF9108956F927F9249
:103210008F929F92AF92BF92CF92DF92EF92FF92E6
:103220000F931F93CF93DF93CDB7DEB722970FB6DF
:10323000F894DEBF0FBECDBF8C0184E690E00E9403
:10324000E0307801C12CB1E0DB2E3E010894611C16
:10325000711CA3E08A2E912C8C0E9D1EF70180819B
:10326000218133279927982F8827282B392B3A83B8
:10327000298384E690E00E94E03040988C2D80689D
:103280008EBD0DB407FEFDCFC60195958795807C58
:103290008EBD0DB407FEFDCF83015301F501808182
:1032A0008EBD0DB407FEFDCF0894A11CB11CA8145F
:1032B000B904A1F7409A0894E11CF11C82E090E067
:1032C000C80ED91E90E1C91691E0D90639F684E6F8
:1032D00090E00E94E03020E131E040E451E01A82C9
:1032E00019824098842F80688EBD0DB407FEFDCFF3
:1032F000CA0195958795807C8EBD0DB407FEFDCFE4
:10330000F80180818EBD0DB407FEFDCF3196EA1520
:10331000FB05B9F7409A4098822F80688EBD0DB4A6
:1033200007FEFDCFC90195958795807C8EBD0DB4B4
:1033300007FEFDCFF80180818EBD0DB407FEFDCFE5
:103340003196EA15FB05B9F7409A2E5F3F4F4E5F65
:103350005F4FE1E02E313E0711F681E090E09A8365
:10336000898340988EEC8EBD0DB407FEFDCF80E8BA
:103370008EBD0DB407FEFDCFF80180818EBD0DB46A
:1033800007FEFDCF3196EA15FB05B9F7409A409844
:103390008EE98EBD0DB407FEFDCF80E88EBD0DB465
:1033A00007FEFDCFF80180818EBD0DB407FEFDCF75
:1033B0000F5F1F4F0A151B05A9F7409A22960FB6FB
:1033C000F894DEBF0FBECDBFDF91CF911F910F915B
:1033D000FF90EF90DF90CF90BF90AF909F908F9035
:1033E0007F906F9008951F93CF93DF93EC01162F7A
:1033F00080915109909152090E94FD26409888E0E1
:103400008EBD0DB407FEFDCF409A409888E08EBD7A
:103410000DB407FEFDCF409A812F0E949910D093E2
:103420005709C093560980915109909152090E9401
:10343000AB25DF91CF911F9108951F93182F809195
:103440005109909152090E94FD26812F0E949910E6
:1034500080915109909152090E94AB251F910895C6
:10346000DF92EF92FF920F931F93CF93DF93CDB72D
:10347000DEB722970FB6F894DEBF0FBECDBF8C012A
:10348000D62E5A834983790164E181E00E942C257C
:103490009093520980935109892B31F40E94772827
:1034A000682F8FE00E946323809151099091520907
:1034B0000E94FD268F3F21F481EB91E00E94C41F02
:1034C000159A88EE93E00E94D71F169881E090E04D
:1034D0000E94D71F169A84E690E00E94D71FF894A6
:1034E000409881E08EBD0DB407FEFDCF409A82EE7C
:1034F00092E09093550980935409409881E18EBDE4
:103500000DB407FEFDCF82E08EBD0DB407FEFDCFEA
:1035100082EE8EBD0DB407FEFDCF409A409882E149
:103520008EBD0DB407FEFDCF85E08EBD0DB407FE48
:10353000FDCF1EBC0DB407FEFDCF409A40988CE134
:103540008EBD0DB407FEFDCF1EBC0DB407FEFDCF32
:103550008FE78EBD0DB407FEFDCF409A409889E1FC
:103560008EBD0DB407FEFDCF81E08EBD0DB407FE0C
:10357000FDCF84EC8EBD0DB407FEFDCF409A409880
:1035800087E18EBD0DB407FEFDCF8AE18EBD0DB47F
:1035900007FEFDCF86E58EBD0DB407FEFDCF409A38
:1035A00084EF91E00E94E030409888EE8EBD0DB42B
:1035B00007FEFDCF80E88EBD0DB407FEFDCFFE01F6
:1035C00031969E012D5F3F4F80818EBD0DB407FE69
:1035D000FDCF3196E217F307B9F7409A84EF91E0F7
:1035E0000E94E03078948D2D0E9499107894109369
:1035F00057090093560989819A8190935B098093BA
:103600005A09F0925D09E0925C09109258091092F3
:103610005E090E94B81080915109909152090E9450
:10362000AB258F3F39F484E891E00E94C41F82E00B
:103630000E949E2210926109109253091092620911
:1036400022960FB6F894DEBF0FBECDBFDF91CF91AB
:103650001F910F91FF90EF90DF9008958FEF9FEFF4
:103660000895813051F48091C800992787FD909585
:103670008827990F881F99270895882319F080E0DB
:1036800090E008958091C000992787FD9095882744
:10369000990F881F992708958091C80087FFFCCF54
:1036A0008091C8008F778093C8008091CE009927C1
:1036B000089585B7806185BF86E084B987E085B9C4
:1036C00081E087B988B98CE38DB98BE08AB98EE344
:1036D0008EB988E781B980E482B908950E94591BA8
:1036E00080E58CBD81E08DBD08958F3F09F47FC0DA
:1036F000482F55279A012770307022303105A9F1E3
:103700002330310544F42115310589F0213031058C
:1037100009F06DC01CC02430310509F446C02430C6
:1037200031059CF12530310509F061C04EC022B150
:10373000B3E056954795BA95E1F781E090E002C075
:10374000880F991F4A95E2F7282B22B94DC085B101
:10375000A3E056954795AA95E1F702C0220F331FC3
:103760004A95E2F7822B85B93FC028B1F3E0569520
:103770004795FA95E1F781E090E002C0880F991F24
:103780004A95E2F7282B28B92FC02BB1E3E05695D4
:103790004795EA95E1F781E090E002C0880F991F14
:1037A0004A95E2F7282B2BB91FC02EB173E056952E
:1037B00047957A95E1F781E090E002C0880F991F64
:1037C0004A95E2F7282B2EB90FC021B363E0569536
:1037D00047956A95E1F781E090E002C0880F991F54
:1037E0004A95E2F7282B21BB81E090E008958FEF06
:1037F0009FEF08958F3F09F486C0482F55279A01FF
:103800002770307022303105C1F12330310544F486
:103810002115310589F02130310509F074C01DC032
:103820002430310509F44BC024303105BCF125307A
:10383000310509F068C054C022B1E3E056954795C0
:10384000EA95E1F781E090E002C0880F991F4A9560
:10385000E2F78095822382B953C095B173E0569503
:1038600047957A95E1F702C0220F331F4A95E2F798
:10387000822F8095892385B943C028B163E056958E
:1038800047956A95E1F781E090E002C0880F991FA3
:103890004A95E2F78095822388B932C02BB133E094
:1038A000569547953A95E1F781E090E002C0880F80
:1038B000991F4A95E2F7809582238BB921C02EB1DA
:1038C00093E0569547959A95E1F781E090E002C024
:1038D000880F991F4A95E2F7809582238EB910C010
:1038E00021B383E0569547958A95E1F781E090E012
:1038F00002C0880F991F4A95E2F78095822381BB09
:1039000081E090E008958FEF9FEF08958F3FA9F138
:10391000282F3327C9018770907082309105A9F054
:10392000833091052CF4009761F0019731F50BC0BD
:103930008430910571F0843091054CF00597E9F4DD
:103940000AC080B109C083B107C086B105C089B182
:1039500003C08CB101C08FB19927F3E0369527954C
:10396000FA95E1F702C0959587952A95E2F7992790
:1039700087FD90958170907008958FEF9FEF089567
:103980008F3F09F403C1282F3327A90147705070D6
:103990004230510509F45CC04330510544F44115EF
:1039A000510591F04130510509F0F0C034C0443068
:1039B000510509F49BC0443051050CF470C04530EA
:1039C000510509F0E3C0B9C080B1A90173E0569573
:1039D00047957A95E1F79927042E02C0959587952A
:1039E0000A94E2F780FD0BC022B181E090E002C0B2
:1039F000880F991F4A95E2F7282B22B9C4C022B13B
:103A000081E090E002C0880F991F4A95E2F7809507
:103A1000822382B9B8C083B163E0369527956A9551
:103A2000E1F79927022E02C0959587950A94E2F74F
:103A300002C0440F551F2A95E2F780FD03C085B1EF
:103A4000842B04C095B1842F8095892385B99BC0B0
:103A500086B1A90123E0569547952A95E1F7992764
:103A6000042E02C0959587950A94E2F780FD0BC05D
:103A700028B181E090E002C0880F991F4A95E2F7D3
:103A8000282B28B980C028B181E090E002C0880FBF
:103A9000991F4A95E2F78095822388B974C089B14D
:103AA000A90193E0569547959A95E1F79927042E39
:103AB00002C0959587950A94E2F780FD0BC02BB163
:103AC00081E090E002C0880F991F4A95E2F7282B09
:103AD0002BB959C02BB181E090E002C0880F991F2B
:103AE0004A95E2F7809582238BB94DC08CB1A9012C
:103AF000B3E056954795BA95E1F79927042E02C091
:103B0000959587950A94E2F780FD0BC02EB181E070
:103B100090E002C0880F991F4A95E2F7282B2EB932
:103B200032C02EB181E090E002C0880F991F4A9503
:103B3000E2F7809582238EB926C08FB1A901A3E058
:103B400056954795AA95E1F79927042E02C09595B9
:103B500087950A94E2F780FD0BC021B381E090E0E5
:103B600002C0880F991F4A95E2F7282B21BB0BC092
:103B700021B381E090E002C0880F991F4A95E2F7D7
:103B80008095822381BB81E090E008958FEF9FEFC5
:103B900008958F3F09F412C1482F5527662309F075
:103BA00090C0CA01877090708230910509F43EC0C0
:103BB000833091053CF4009789F08130910509F03C
:103BC000FDC021C08430910509F454C084309105B2
:103BD0000CF43EC0059709F0F1C05EC031B1B3E00E
:103BE00056954795BA95E1F781E090E002C0880FBD
:103BF000991F4A95E2F7282F2095232321B922B156
:103C0000822B82B9D8C024B1A3E056954795AA95D6
:103C1000E1F702C0880F991F4A95E2F7982F809527
:103C2000822384B985B1982B95B9C5C037B1F3E02B
:103C300056954795FA95E1F781E090E002C0880F2C
:103C4000991F4A95E2F7282F2095232327B935C0DD
:103C50003AB1E3E056954795EA95E1F781E090E0C7
:103C600002C0880F991F4A95E2F7282F2095232339
:103C70002AB923C03DB173E0569547957A95E1F78F
:103C800081E090E002C0880F991F4A95E2F7282F43
:103C9000209523232DB911C030B363E05695479585
:103CA0006A95E1F781E090E002C0880F991F4A957C
:103CB000E2F7282F2095232320BB25B1822B85B93D
:103CC0007AC09A012770307022303105A9F1233073
:103CD000310544F42115310589F02130310509F011
:103CE0006DC01CC02430310509F446C024303105B4
:103CF0009CF12530310509F061C04EC021B133E09F
:103D0000569547953A95E1F781E090E002C0880F1B
:103D1000991F4A95E2F7282B21B94DC084B193E051
:103D2000569547959A95E1F702C0220F331F4A95A1
:103D3000E2F7822B84B93FC027B1B3E0569547958F
:103D4000BA95E1F781E090E002C0880F991F4A958B
:103D5000E2F7282B27B92FC02AB1A3E05695479543
:103D6000AA95E1F781E090E002C0880F991F4A957B
:103D7000E2F7282B2AB91FC02DB1F3E056954795DD
:103D8000FA95E1F781E090E002C0880F991F4A950B
:103D9000E2F7282B2DB90FC020B3E3E056954795E5
:103DA000EA95E1F781E090E002C0880F991F4A95FB
:103DB000E2F7282B20BB81E090E008958FEF9FEF82
:103DC0000895882319F08FEF9FEF089580B1992708
:103DD00087FD9095809590958827990F881F992742
:103DE0000895009711F484E109C08130910511F420
:103DF0008CE104C08230910531F484E20E94C01C41
:103E000081E090E00895039719F08FEF9FEF0895F8
:103E10008CE20E94C01C81E090E00895009711F4AC
:103E200084E109C08130910511F48CE104C0823035
:103E3000910531F484E20E94751B81E090E00895C1
:103E4000039719F08FEF9FEF08958CE20E94751B86
:103E500081E090E00895009711F484E109C0813079
:103E6000910511F48CE104C08230910531F484E2B3
:103E70000E94FA1B81E090E00895039719F08FEFFC
:103E80009FEF08958CE20E94FA1B81E090E0089574
:103E9000882319F085B78F7E02C085B7806185BF02
:103EA00081E090E00895982F8091C00085FFFCCFBD
:103EB0008091C0008F7D8093C0009093C6000895CC
:103EC000982F8091C80085FFFCCF9093CE00089575
:103ED000292F33272093C5008093C40086E0809368
:103EE000C200E1ECF0E080818B7F8083A0ECB0E049
:103EF0008C9182608C938081886180830895292FC2
:103F000033272093CD008093CC0086E08093CA00B5
:103F1000E9ECF0E080818B7F8083A8ECB0E08C91AD
:103F200082608C9380818861808308958091C00035
:103F300087FFFCCF8091C0008F778093C000809175
:103F4000C60099270895EF92FF920F931F930E9446
:103F50007F1F0CE41BE150E6E52E5FE1F52EB80172
:103F6000C7010E94BF369093140A8093130AB801C8
:103F7000C7010E94BF369093120A8093110A1F91C5
:103F80000F91FF90EF900895CF93DF93EC0107C05E
:103F90006091130A7091140A99270E940D37FE014F
:103FA000219684918823A1F7DF91CF910895000095
:103FB0000000000000000197D1F70895FC01A7E080
:103FC000B0E00E949B39802D808381E090E00895CD
:103FD000FC018081A7E0B0E0082E0E94A33981E0B7
:103FE00090E00895DC010E949B39802D9927089567
:103FF000FC01A0E0B0E00E949B39402D4383A1E08A
:10400000B0E00E949B39802D8283A2E0B0E00E9444
:104010009B39302D3183A3E0B0E00E949B39902D75
:104020009083A4E0B0E00E949B39202D830F840F81
:10403000890F281719F481E090E008958FEF9FEF22
:104040000895FC01A5E0B0E00E949B39802D80839B
:1040500081E090E00895FC01A6E0B0E00E949B3969
:10406000802D808381E090E00895AC0120E030E075
:10407000D90118960E949B39802DFA01E20FF31F97
:1040800080832F5F3F4F2031310591F781E090E031
:104090000895DC01062E0E94A3390895FC01808159
:1040A000A6E0B0E0082E0E94A33981E090E00895D8
:1040B000AC0120E030E0D9011896FA01E20FF31FBD
:1040C0008081082E0E94A3392F5F3F4F2031310598
:1040D00091F781E090E00895F89408957894089518
:1040E00085E690E008950E94CF2D0895EF92FF920B
:1040F0000F931F93CF93DF93EC018B017A01898596
:10410000823021F08091DB09888301C01882809180
:10411000DB09833020F060E087E00E94632389851B
:10412000823029F08091DB098F5F8093DB098091D9
:10413000DB09882319F481E08093DB0988819927C2
:1041400087FD9095FC0145E0EE0FFF1F4A95E1F7D2
:10415000E80FF91FE659F64F1183008388819927EC
:1041600087FD9095FC0135E0EE0FFF1F3A95E1F7D2
:10417000E80FF91FE659F64F8885828788819927CD
:1041800087FD9095FC0125E0EE0FFF1F2A95E1F7D2
:10419000E80FF91FE659F64F83E081872881822FC7
:1041A000992787FD9095FC0105E0EE0FFF1F0A950A
:1041B000E1F7E80FF91FE659F64F20878881992724
:1041C00087FD9095FC0115E0EE0FFF1F1A95E1F7B2
:1041D000E80FF91FE659F64F15820881112707FDF0
:1041E00010952B853C854D855E856F8578898989FD
:1041F0009A890E94EA2BF801B5E0EE0FFF1FBA95ED
:10420000E1F7E00FF11FE659F64F948F838F088195
:10421000112707FD10952B8D3C8D4D8D5E8D6F8D7B
:1042200078A189A19AA10E94EA2BF801A5E0EE0FDE
:10423000FF1FAA95E1F7E00FF11FE659F64F968BA5
:10424000858B8881992787FD9095FC0175E0EE0F9D
:10425000FF1F7A95E1F7E80FF91FE659F64F8589B8
:104260009689238D348D820F931F908F878B0881C1
:10427000112707FD10952B893C894D895E896F892F
:10428000788D898D9A8D0E94EA2BF80165E0EE0FFA
:10429000FF1F6A95E1F7E00FF11FE659F64F968F81
:1042A000858F8881992787FD9095FC0155E0EE0F59
:1042B000FF1F5A95E1F7E80FF91FE659F64F858D74
:1042C000968D928F818F8881992787FD9095FC012B
:1042D00045E0EE0FFF1F4A95E1F7E80FF91FE65999
:1042E000F64F81E090E090A3878F8881992787FD22
:1042F0009095FC0135E0EE0FFF1F3A95E1F7E80FCE
:10430000F91FE659F64FF382E2828881992787FDEB
:104310009095FC0125E0EE0FFF1F2A95E1F7E80FCD
:10432000F91FE659F64F81E0848781E090E0DF9144
:10433000CF911F910F91FF90EF9008958F929F92D0
:10434000AF92BF92CF92DF92EF92FF920F931F93A3
:10435000CF93DF9362E7A62E69E0B62ECC24DD244E
:104360004501EC2CF501F080FFEFFF1691F0E40120
:1043700000E010E0E01639F08881F81621F46F2D86
:1043800085E00E9463230F5F1F4FA1960330110544
:1043900089F70894C11CD11C81E290E0A80EB91ED7
:1043A00093E0C916D104E9F60E948C27282F332701
:1043B00027FD3095F90155E0EE0FFF1F5A95E1F703
:1043C000E20FF31FE659F64F32853093EE0921E2F2
:1043D0008202C00111248659964F9093ED09809373
:1043E000EC099093DE098093DD093093DF090E9488
:1043F000CE340E94B4340E94F234FFCF0F931F9347
:10440000CF93DF93CDB7DEB7A3970FB6F894DEBF97
:104410000FBECDBF0E946A248093DC098F3F21F438
:1044200060E08EE00E9463230E942534882321F4FB
:1044300060E086E00E9463231092DF091092ED098C
:104440001092EC091092DE091092DD091092EE092B
:104450001092EB098FEF8093CF098093D10980935D
:10446000D0098093D2098093D4098093D309809393
:10447000D5098093D7098093D6098093D809809372
:10448000DA098093D90993E69093740980937209AD
:1044900090939509809393099093B6098093B409FA
:1044A000EFEEF9E0CF01059694838383F783E683EB
:1044B000FC0129E08E3F9207A9F71092F1091092B2
:1044C000F0091092020A1092010A1092E209109269
:1044D000E1090F9790936909809368096BEA7DE27F
:1044E0008E010F5F1F4FC8010E94723440E850E0F8
:1044F0006DEF77E0C8010E94D33485E58093FD0716
:1045000019861C8E1D8E1E8E1F8E18A219A21AA22D
:104510001BA291E0988782E08A879B87C8010E944E
:10452000752AA3960FB6F894DEBF0FBECDBFDF91FC
:10453000CF911F910F910895F894FFCFE091EC096E
:10454000F091ED0984870895E091EC09F091ED096F
:10455000848599270895DC01FB0180917E078823DB
:1045600019F480E090E008958083809108048C9392
:1045700081E090E008951F9380917E07882309F4DD
:104580009EC00E946C200E946C2089E993E00E94EA
:10459000C41F8091080499279F938F938DE093E027
:1045A0009F938F930E943A3785E993E00E94C41F3E
:1045B0000F900F900F900F9080917E07843110F034
:1045C00010927E0780917E079927AA27BB27FC01BE
:1045D0003197E231F105F0F5EA59FF4FEE0FFF1F79
:1045E0000590F491E02D09948EE693E035C08AE5BC
:1045F00093E032C084E493E02FC089E293E02CC0C2
:1046000083E193E029C08BEF92E026C088EE92E030
:1046100023C085ED92E020C087EB92E01DC082E9C7
:1046200092E01AC086E892E017C08BE692E014C0D0
:104630008CE592E011C08BE492E00EC087E392E03B
:104640000BC087E192E008C08FEF91E005C084EED7
:1046500091E002C08DED91E00E94C41F6091130AA9
:104660007091140A8DE090E00E940D376091130A5A
:104670007091140A8AE090E00E940D3782E090E089
:104680000E942B1F83E090E00E940E1F10E088EE36
:1046900093E00E94E0301F5F1436C9F783E090E09A
:1046A0000E942B1F82E090E00E940E1F10E088EE17
:1046B00093E00E94E0301F5F1436C9F7DFCF80E03F
:1046C00090E01F91089580937E07609308040E94F4
:1046D000BB22089580937E07E091EC09F091ED09EB
:1046E0008085809308040E94BB220895992787FD46
:1046F0009095FC0125E0EE0FFF1F2A95E1F7E80FEA
:10470000F91FE659F64FA281B3818C91853529F0C6
:1047100085E58C938FEF9FEF089580819181805084
:10472000924218F481E090E0089582E10E946A23A9
:104730008FEF9FEF08956F927F928F929F92AF922B
:10474000BF92CF92DF92EF92FF920F931F93CF937E
:10475000DF9385EA93E00E94C41FE091EC09F09199
:10476000ED098085992787FD90959F938F9380E130
:1047700093E09F938F930E943A37E091EC09F09178
:10478000ED09028113811F930F9389E193E09F93B9
:104790008F930E943A37F801808199279F938F93D6
:1047A00056E2C52E53E0D52EDF92CF920E943A37C3
:1047B000E091EC09F091ED09808191819F938F93B5
:1047C00043E3E42E43E0F42EFF92EF920E943A3747
:1047D0008091EC099091ED099F938F930DE313E085
:1047E0001F930F930E943A37CAE6D9E0AA24BB244C
:1047F0008DB79EB744960FB6F8949EBF0FBE8DBF7F
:104800003DE4632E33E0732E4601670178010A818F
:104810001B811F930F93BF92AF927F926F920E9462
:104820003A37F801808199279F938F939F928F92B7
:104830000E943A37888199819F938F93DF92CF921C
:104840000E943A37DF93CF93FF92EF920E943A375C
:104850000894A11CB11CA1968DB79EB742960FB6C5
:10486000F8949EBF0FBE8DBF93E0A916B10479F6F0
:10487000DF91CF911F910F91FF90EF90DF90CF903C
:10488000BF90AF909F908F907F906F900895CF933F
:10489000DF93E091EC09F091ED09C281D381888129
:1048A000853539F00E949B2381E00E946A2385E5CB
:1048B0008883E091EC09F091ED098081918180502D
:1048C000924228F00E949B2382E10E946A23DF919A
:1048D000CF91089540916A0450916B0460916C04EB
:1048E00070916D0420E030E0DB01CA01022E04C0AB
:1048F000B695A795979587950A94D2F78170907091
:10490000892BE9F481E090E0A0E0B0E0022E04C041
:10491000880F991FAA1FBB1F0A94D2F7842B952BCF
:10492000A62BB72B80936A0490936B04A0936C041E
:10493000B0936D04822F992787FD909508952F5F7E
:104940003F4F2032310581F68FEF9FEF0895E091C0
:10495000EC09F091ED096585768587859089089544
:10496000EF92FF920F931F9321E030E040E050E080
:1049700004C0220F331F441F551F8A95D2F7E091C0
:10498000EC09F091ED09E584F68407851089DA01D8
:10499000C9018E219F21A023B1230097A105B10554
:1049A00019F48FEF9FEF1AC02095309540955095E0
:1049B000E222F32204231523E586F6860787108B6F
:1049C00081899289A389B48982239323A423B5235F
:1049D000818B928BA38BB48B81E090E01F910F9120
:1049E000FF90EF900895682F772767FD709580916D
:1049F0006A0490916B04A0916C04B0916D04062E32
:104A000004C0B695A795979587950A94D2F78170BB
:104A10009070892B19F48FEF9FEF0895E091EC09C6
:104A2000F091ED0921E030E040E050E004C0220FB9
:104A3000331F441F551F6A95D2F785859685A78534
:104A4000B089822B932BA42BB52B85879687A787BC
:104A5000B08B81E090E00895482F2091EB0923303E
:104A600018F080E090E00895EFECF9E030E080810C
:104A70008F3F21F03F5F33963430C9F7832F99275A
:104A8000FC01EE0FFF1FE80FF91FE153F64F4283C1
:104A9000408361832F5F2093EB0983E0389FC0013F
:104AA00011248153964F08954FEC59E020E030E0F7
:104AB0004817590729F4822F992787FD9095089563
:104AC0002F5F3F4F4D5F5F4F2430310589F78FEFE8
:104AD0009FEF08950E9454258F3F11F481E003C099
:104AE000843031F482E00E949E228FEF9FEF089580
:104AF000992787FD9095FC01EE0FFF1FE80FF91F26
:104B0000E153F64F8FEF8083828381838091EB099D
:104B100081508093EB0981E090E008950E94542534
:104B20008F3F11F481E003C0843031F482E00E94B1
:104B30009E228FEF9FEF0895992787FD9095FC01A6
:104B4000EE0FFF1FE80FF91FE153F64F82819927FF
:104B500087FD909508951F93CF93DF930E9454256E
:104B6000182F8F3F11F481E003C0843031F482E0CC
:104B70000E949E228FEF9FEF3EC0992787FD909560
:104B8000EC01CC0FDD1FC80FD91FC153D64F9A813E
:104B90008881981774F50E946C208A818F5F8A83C0
:104BA000E091EC09F091ED091482E1E7F9E0212FA1
:104BB000332727FD3095432F532F8081823091F486
:104BC00082859385A485B58582179307A407B507C9
:104BD00049F483E082831786168610821286138634
:104BE00014861586B19689E0E43DF80731F70E94F6
:104BF0006E2081E090E0DF91CF911F910895DF92C8
:104C0000EF92FF920F931F93F1E0EF2EF12C012D05
:104C1000112D04C0EE0CFF1C001F111F8A95D2F746
:104C200080916A0490916B04A0916C04B0916D0422
:104C30008E219F21A023B1230097A105B10511F476
:104C400081E043C00E946C20E1E7F9E0DD2480812F
:104C50008130B9F482859385A485B5858E219F2105
:104C6000A023B1230097A105B10559F083E0828309
:104C7000178616861082E286F38604871587DD2460
:104C8000D39480818230A1F482859385A485B585F3
:104C90008E159F05A007B10759F483E0828317861C
:104CA000168610821286138614861586DD24D39408
:104CB000B19689E0E43DF80751F60E946E20DD20B0
:104CC00019F081E090E005C082E00E949E228FEF03
:104CD0009FEF1F910F91FF90EF90DF900895EF925B
:104CE000FF920F931F93CF93DF93C82FDD27C7FD4C
:104CF000D095A1E0EA2EF12C012D112D0C2E04C02F
:104D0000EE0CFF1C001F111F0A94D2F780916A0459
:104D100090916B04A0916C04B0916D048E219F2141
:104D2000A023B1230097A105B10519F48FEF9FEFE0
:104D30005DC00E946C20EAE6F9E0A8019701209589
:104D400030954095509580858F3F41F185859685BA
:104D5000A785B0898E159F05A007B10739F4118A80
:104D6000128A138A148A178283E081878585968543
:104D7000A785B08982239323A423B52385879687AB
:104D8000A787B08B81899289A389B48982239323D1
:104D9000A423B523818B928BA38BB48BB19689E02E
:104DA000ED3CF80781F62EEF3FEF4FEF5FEF04C0C9
:104DB000220F331F441F551FCA95D2F780916A04F2
:104DC00090916B04A0916C04B0916D0482239323A5
:104DD000A423B52380936A0490936B04A0936C047E
:104DE000B0936D040E946E2081E090E0DF91CF913E
:104DF0001F910F91FF90EF9008951F93CF93DF9332
:104E00000E945425182F8F3F11F481E003C0843095
:104E100031F482E00E949E228FEF9FEF3EC00E94FD
:104E20006C20812F992787FD9095EC01CC0FDD1F19
:104E3000C80FD91FC153D64F8A818823D9F4E09176
:104E4000EC09F091ED09878182608783E091EC099C
:104E5000F091ED09812F992787FD9095A92FB92F02
:104E6000818B928BA38BB48B0E946E2080E090E0AC
:104E70000E94A2298A8181508A83E091EC09F091F5
:104E8000ED0989818387E091EC09F091ED0981E0DA
:104E900084830E946E2081E090E0DF91CF911F918A
:104EA00008959B01AC01E091EC09F091ED09858535
:104EB0009685A785B08982239323A423B5230097E1
:104EC000A105B10529F460E070E080E090E008956C
:104ED000218B328B438B548B81E087830090DC09DC
:104EE00004C056954795379527950A94D2F7C9017E
:104EF00081709070892B19F00E943D2904C080E0D8
:104F000090E00E94A229E091EC09F091ED096189FD
:104F10007289838994890895E091E109F091E20909
:104F2000808199270895E091E109F091E20903C099
:104F30000380F481E02D3097D9F70895CF93DF9364
:104F4000482FC0916809D0916909209709F47AC067
:104F5000A091E109B091E2091097B9F1992787FD75
:104F600090959C0165E0220F331F6A95E1F7280FA9
:104F7000391F2659364F8C919927BC0155E0660F91
:104F8000771F5A95E1F7680F791F6659764FFB0135
:104F90008481882329F09385F90182859817A8F0E8
:104FA000F9018481882331F0FB019285F901838521
:104FB000981758F0FB019285F9018285981728F01F
:104FC000FD01A381B4811097B1F64883E09168098F
:104FD000F09169092381348130936909209368092C
:104FE0008091E1099091E209A817B907A1F41097FF
:104FF00031F0BC83AB831A821982FD0105C01C828B
:105000001B821A821982F901D283C183D093E209EB
:10501000C093E10917C0FD0181819281A217B307F6
:1050200051F09A838983BC83AB8381819281FC0197
:10503000D483C38304C01C821B829A838983FD01AD
:10504000D283C183DF91CF910895CF93DF93A09155
:10505000E109B091E209109709F446C0482F55279D
:1050600047FD50958C9199278417950769F4ED01B8
:10507000EB81FC81F093E209E093E1091282118255
:1050800016C0D901232B81F18C919927FD01238131
:10509000348184179507A9F7C181D2813C832B8382
:1050A00083819481009719F0FC01D283C183E09140
:1050B0006809F0916909309741F4B0936909A093A8
:1050C0006809ED011C821B8209C0ED01FC83EB83A2
:1050D000B283A183B0936909A0936809E09168093C
:1050E000F091690912821182DF91CF910895E091C8
:1050F000EC09F091ED098085992708950E946734A5
:10510000E091EC09F091ED0985818823B9F70895C4
:10511000FF920F931F93CF93DF93CDB7DEB72897FE
:105120000FB6F894DEBF0FBECDBF29833A834B8301
:105130005C836D837E838F8398870E9447240E94BF
:105140006C20E091EC09F091ED0981E0858381E02C
:1051500090E090A3878F0E94A631F82E29813A8192
:105160004B815C816D817E818F8198850E94EA2BC5
:10517000E091EC09F091ED090F2D1127800F911F9F
:10518000968B858B87EF8F1570F00E9432310E5F02
:105190001F4F99278017910734F08F2D8E5F8093D2
:1051A00019090E9437310E946E200E947E2881E0FA
:1051B00090E028960FB6F894DEBF0FBECDBFDF910A
:1051C000CF911F910F91FF9008958F929F92AF9270
:1051D000BF92CF92DF92EF92FF920F931F93CF93E4
:1051E000DF93CDB7DEB760970FB6F894DEBF0FBE82
:1051F000CDBF29873A874B875C876D877E878F87EE
:10520000988BCE0101960E94502D89809A80AB80A8
:10521000BC80CD80DE80EF80F88409851A852B85DF
:105220003C854D855E856F857889CE0109960E9403
:10523000CB2A882319F48FEF9FEF0CC029853A857C
:105240004B855C856D857E858F8598890E94882831
:1052500081E090E060960FB6F894DEBF0FBECDBF40
:10526000DF91CF911F910F91FF90EF90DF90CF9042
:10527000BF90AF909F908F9008951F930E946C20D5
:10528000E091EC09F091ED0981E0858386830E942D
:10529000A631182F883F80F40E943231212F332706
:1052A0002E5F3F4F99278217930734F0812F8E5F2F
:1052B000809319090E9437310E946E200E947E2837
:1052C00081E090E01F9108951F93CF93DF93CDB7B6
:1052D000DEB728970FB6F894DEBF0FBECDBF298387
:1052E0003A834B835C836D837E838F8398870E9490
:1052F0006C200E94A631182F29813A814B815C8154
:105300006D817E818F8198850E94EA2B8330910583
:1053100018F48FEF9FEF0CC0E091EC09F091ED09CC
:10532000810F911D968B858B0E946E2081E090E00D
:1053300028960FB6F894DEBF0FBECDBFDF91CF9198
:105340001F9108950F931F938C010E946C20E09190
:10535000EC09F091ED0981E08583168B058B0E94A5
:10536000A631082F883F80F40E943231202F332746
:105370002E5F3F4F99278217930734F0802F8E5F5F
:10538000809319090E9437310E946E200E947E2866
:1053900081E090E01F910F910895FF920F931F936A
:1053A000CF93DF938C010E946C20E091EC09F09187
:1053B000ED0981E085830E94A631F82EE091EC0989
:1053C000F091ED09C82FDD270C0F1D1F168B058BE3
:1053D00087EF8F1568F00E943231229699278C173B
:1053E0009D0734F08F2D8E5F809319090E9437310D
:1053F0000E946E200E947E2881E090E0DF91CF9194
:105400001F910F91FF9008951F93CF93DF93EC01AD
:105410000E944724209711F4C1E0D0E00E946C2044
:10542000E091EC09F091ED0981E08583D0A3C78F6D
:105430000E94A631182F883F80F40E943231212F1C
:1054400033272E5F3F4F99278217930734F0812F20
:105450008E5F809319090E9437310E946E200E944E
:105460007E2881E090E0DF91CF911F9108951F93F6
:105470000E9447240E946C20E091EC09F091ED0914
:1054800081E090E090A3878F81E085830E94A63120
:10549000182F883F80F40E943231212F33272E5F4E
:1054A0003F4F99278217930734F0812F8E5F8093A7
:1054B00019090E9437310E946E200E947E2881E0E7
:1054C00090E01F910895E091EC09F091ED0980853D
:1054D0000E942528E091EC09F091ED0984E0818794
:1054E0000E94372A81E090E00895EF92FF920F9397
:1054F0001F93CF93DF93EC014B815C8169817A81AB
:105500008D819E810E947634BC018F81882369F051
:105510004B815C81EE24FF2400E010E020E030E0CD
:10552000CE010E9476201F8216C08881992787FDB0
:105530009095FC01A5E0EE0FFF1FAA95E1F7E80F9B
:10554000F91FE659F64F8185833019F08FEF9FEFF1
:105550001BC0718360838881992787FD9095FC012A
:1055600075E0EE0FFF1F7A95E1F7E80FF91FE65996
:10557000F64F85899689892B29F482E08187888175
:105580000E949E2781E090E0DF91CF911F910F91C3
:10559000FF90EF9008958F929F92AF92BF92CF921B
:1055A000DF92EF92FF920F931F93CF93DF93CDB7CC
:1055B000DEB760970FB6F894DEBF0FBECDBFFC011B
:1055C00009831A832B833C834D835E836F837887A3
:1055D00089869A86AB86BC86CD86DE86EF86F88A7B
:1055E0002D813E814F81588589819A81AB81BC8113
:1055F000AD84BE84CF84D888E984FA840B851C8569
:105600008E159F05A007B10708F43FC0E816F906FC
:105610000A071B0791F42A153B054C055D05A8F107
:105620002A193B094C095D09248335834683578336
:1056300010821182128213821CC02A153B054C0570
:105640005D05D0F40197A109B1098E199F09A00B3E
:10565000B10B80839183A283B383205036434546A8
:10566000544C2A193B094C095D0924833583468330
:10567000578381E090E00BC08E199F09A00BB10BFE
:1056800080839183A283B383ECCF80E090E0609627
:105690000FB6F894DEBF0FBECDBFDF91CF911F9143
:1056A0000F91FF90EF90DF90CF90BF90AF909F90C1
:1056B0008F900895FC0113C080509A4CAA49BB43B7
:1056C00084839583A683B78380819181A281B381EE
:1056D0000196A11DB11D80839183A283B383848130
:1056E0009581A681B78180302AEC92072AE9A2072A
:1056F0002BE3B20708F708958F929F92AF92BF9263
:10570000CF92DF92EF92FF920F931F93CF93DF938D
:10571000CDB7DEB760970FB6F894DEBF0FBECDBF32
:10572000FC0109831A832B833C834D835E836F8343
:10573000788789869A86AB86BC86CD86DE86EF869C
:10574000F88AAD80BE80CF80D884ED84FE840F853A
:10575000188989859A85AB85BC8529813A814B81D9
:105760005C81820F931FA41FB51F80839183A28346
:10577000B383EA0CFB1C0C1D1D1DE482F58206831D
:105780001783CF010E945A2B81E090E060960FB6FC
:10579000F894DEBF0FBECDBFDF91CF911F910F9167
:1057A000FF90EF90DF90CF90BF90AF909F908F9041
:1057B00008956093E3097093E4098093E509909359
:1057C000E6092093E7093093E8094093E9095093EB
:1057D000EA0908958F929F92AF92BF92CF92DF9283
:1057E000EF92FF920F931F93CF93DF93CDB7DEB766
:1057F00028970FB6F894DEBF0FBECDBF29833A833A
:105800004B835C836D837E838F8398878D809E809E
:10581000AF80B884E980FA800B811C81E114F10427
:105820000105110501F180E09AECAAE9BBE3880EBD
:10583000991EAA1EBB1EC501B40123EB36EE4EE035
:1058400050E00E94423969010894E108F108010919
:1058500011098AE0EE0CFF1C001F111F8A95D1F779
:10586000CE0CDF1C09C0C501B40123EB36EE4EE0BF
:1058700050E00E9442396901B60102C06050744094
:1058800094E061307907D0F78827992723EB36EE2B
:105890004EE050E00E94FC38675A7C48884F9F4F8A
:1058A000681579058A059B0518F40894C11CD11C5C
:1058B000C60128960FB6F894DEBF0FBECDBFDF91AC
:1058C000CF911F910F91FF90EF90DF90CF90BF90FD
:1058D000AF909F908F9008952F923F924F925F923A
:1058E0006F927F928F929F92AF92BF92CF92DF92F0
:1058F000EF92FF920F931F93CF93DF93CDB7DEB755
:1059000028970FB6F894DEBF0FBECDBF7B018C0188
:1059100073708070907023EB36EE4EE050E00E9482
:10592000FC386D837E838F8398879AE01695079560
:10593000F794E7949A95D1F7E982FA820B831C8356
:10594000988529803A804B805C806D807E808F8036
:10595000222D332D442D552D662D772D882D2896FB
:105960000FB6F894DEBF0FBECDBFDF91CF911F9170
:105970000F91FF90EF90DF90CF90BF90AF909F90EE
:105980008F907F906F905F904F903F902F900895F1
:10599000AF92BF92CF92DF92EF92FF920F931F933D
:1059A000CF93DF93CDB7DEB728970FB6F894DEBF5D
:1059B0000FBECDBF29833A834B835C836D837E8387
:1059C0008F839887AD80BE80CF80D884E980FA80AD
:1059D0000B811C81E114F1040105110509F180E03E
:1059E0009AECAAE9BBE3A80EB91ECA1EDB1EC601CB
:1059F000B50123EB36EE4EE050E00E9442390894A8
:105A0000E108F108010911096AE0EE0CFF1C001F12
:105A1000111F6A95D1F7E20EF31E041F151F0AC06D
:105A2000C601B50123EB36EE4EE050E00E9442394C
:105A300079018A01C801B70104C0605074408040F8
:105A400090406130A4E07A07A0E08A07A0E09A07BE
:105A5000A0F723EB36EE4EE050E00E94FC38675A88
:105A60007C48884F9F4F6A157B058C059D0528F45F
:105A70000894E11CF11C011D111DC801B7012896F5
:105A80000FB6F894DEBF0FBECDBFDF91CF911F914F
:105A90000F91FF90EF90DF90CF90BF90AF9008955F
:105AA000EF92FF920F931F93CF93DF93EC018091BE
:105AB000E3099091E409A091E509B091E609888392
:105AC0009983AA83BB83E090E709F090E8090091ED
:105AD000E9091091EA09EC82FD820E831F830E947E
