:100000000C9437020C94D6360C9456020C9456027B
:100010000C9456020C9456020C9456020C94560200
:100020000C9456020C9404370C9456020C9456020D
:100030000C9456020C94B7340C9456020C94B734BA
:100040000C9456020C94EA340C9456020C9456020A
:100050000C9456020C9456020C9456020C945602C0
:100060000C9456020C9456020C9456020C945602B0
:100070000C9456020C9456020C9456020C945602A0
:100080000C94F4340C9456020C9456020C945602C0
:100090000C94B0220C9456020C9456020C94560206
:1000A0000C9456020C9456020C9456020C94560270
:1000B0000C9456020C9456020C9456020C94560260
:1000C0000C9456020C9456020C9456020E261426DA
:1000D00017261A261D2620262626232629262C26E4
:1000E0002F26352638263B263E2632260B2611267D
:1000F00043726561746520446F6E650D0A00455258
:10010000524F523A206372656174696E6720706164
:10011000636B6574207265636F7264207369676EC8
:10012000616C206661696C65640D0A0053746172CC
:1001300074696E672075702E2E2E0D0A00534C497F
:1001400050205258206572726F723A206E726B5F47
:100150007369676E616C5F72656769737465720D50
:100160000A00534C4950205258206572726F723AFF
:1001700020476574205369676E616C0D0A00534C0B
:100180004950205458204552524F523A202052652F
:100190006C65617365206F662073656D6170686F53
:1001A0007265206661696C65640D0A00534C4950A4
:1001B000205458204552524F523A202041636365E3
:1001C000737320746F2073656D6170686F72652042
:1001D0006661696C65640D0A0049534120455252BD
:1001E0004F523A206372656174696E67207478209B
:1001F0007369676E616C206661696C65640D0A00E5
:10020000495341204552524F523A206372656174FE
:10021000696E67207278207369676E616C20666111
:10022000696C65640D0A0043433234323020455214
:10023000524F523A202052656C65617365206F669B
:100240002073656D6170686F7265206661696C65A9
:10025000640D0A00434332343230204552524F522B
:100260003A202041636365737320746F2073656D5A
:100270006170686F7265206661696C65640D0A0063
:10028000554E4B4F574E004661696C656420746F44
:10029000206372656174652053656D6170686F726B
:1002A00065004661696C656420746F2063726561E6
:1002B0007465205369676E616C004B65726E656C86
:1002C0002066756E6374696F6E206E6F7420696D41
:1002D000706C656D656E7465640044657669636510
:1002E00020447269766572204572726F72005761A0
:1002F000746368646F67205265737461727400542C
:10030000696D6572204F766572666C6F7700556E09
:1003100068616E646C656420496E74657272757094
:100320007420566563746F72004C6F7720566F6C43
:1003300074616765004578747261205461736B2045
:10034000737461727465642C206973206E726B5FC4
:100350006366672E68206F6B3F0049646C65206F91
:1003600072204B65726E656C20537461636B204F15
:10037000766572666C6F7700556E6578706563742C
:1003800065642052657374617274004475706C69A1
:100390006361746564205461736B20494400536346
:1003A000686564756C6572204D6973736564205768
:1003B000616B657570005461736B20526573657273
:1003C00076652056696F6C6174656400526573656B
:1003D000727665204572726F7220696E2053636871
:1003E0006564756C657200496E76616C6964205352
:1003F0007461636B20506F696E7465720054617331
:100400006B20537461636B204F766572666C6F77F7
:1004100000537461636B20776173206E6F74206486
:100420006566696E6564206173206C617267652022
:10043000656E6F7567682100293A20002A4E524B7D
:10044000204552524F5228000D0A535441434B202D
:1004500044554D500D0A0045464765666700202B00
:100460002D2E303132333435363738396800112487
:100470001FBECFEFD1E2DEBFCDBF14E0A0E0B2E0FF
:10048000E0EAFAE700E00BBF02C007900D92A2334A
:10049000B107D9F712E1A2E3B4E001C01D92A93E71
:1004A000B107E1F70E94D5040C944F3D0C9422351E
:1004B00080913406992787FD909508951F93CF93D7
:1004C000DF93EC018B818E3609F07CC0E885E05328
:1004D000E0930508FF279A85DF01A35ABB4F9C9341
:1004E000E15DF64F8081192F181B143148F180E02F
:1004F00092E00E94C53A0E94A70AE0910508FF27F2
:100500009F938F93FF93EF93812F99279F938F93BF
:10051000E15DF64F808199279F938F938A85992774
:100520009F938F938BE092E09F938F930E94AE3ABC
:100530008DB79EB70C960FB6F8949EBF0FBE8DBFB9
:1005400090910508492F55278A85FA01E15DF64FFC
:100550008083DA01AF5CBA4F2C91210F2C93382F96
:100560003770283050F0FA01E558F94F2695269556
:1005700026958081280F20833C93FA01E558F94F96
:1005800080818031A8F4FA0194E0EE0FFF1F9A9564
:10059000E1F7E80FF11DEB5CF94F81E090E002C05C
:1005A000880F991F3A95E2F72081282B20830AC0F3
:1005B000108281E0809334069093420480912D054F
:1005C0000E941629DF91CF911F910895EF92FF921B
:1005D0001F9382EA93E09093900480938F0484E0C9
:1005E00098E090938C0480938B0485E097E090933F
:1005F0008E0480938D0482E08093920411E0109326
:10060000910410939304109394048AE090E0A0E086
:10061000B0E08093950490939604A0939704B093D0
:1006200098041092990410929A0410929B041092CC
:100630009C0410929D0410929E0410929F041092AC
:10064000A00480E095E6ADECBDE18093A104909319
:10065000A204A093A304B093A4041092A504109242
:10066000A6041092A7041092A80480E097E8A3E9DA
:10067000B3E08093A9049093AA04A093AB04B09331
:10068000AC048AE894E00E948C2D83E295E090937C
:100690001209809311092CE0E22E29E0F22E40E0AD
:1006A00051E064E375E0C7010E94E03783E0809386
:1006B000140910931309109315091093160984E176
:1006C00090E0A0E0B0E08093170990931809A09300
:1006D0001909B0931A0910921B0910921C09109263
:1006E0001D0910921E0910921F09109220091092E4
:1006F00021091092220910922309109224091092C4
:1007000025091092260910922709109228091092A3
:10071000290910922A0980E091EEA5EFB5E08093B7
:100720002B0990932C09A0932D09B0932E09C70192
:100730000E948C2D80EF90E00E949D221F91FF90DF
:10074000EF9008952F923F924F925F926F927F9217
:100750008F929F92AF92BF92CF92DF92EF92FF92D1
:100760000F931F93CF93DF93CDB7DEB722970FB6CA
:10077000F894DEBF0FBECDBF0E948E2B99279F93AA
:100780008F938CE192E09F938F930E94AE3A8BE21D
:1007900092E09F938F930E94AE3A83E090E00E9494
:1007A000EF2181E090E00E94EF2181E090E00E9443
:1007B000AB0A40E060E082E00E94971083E10E9473
:1007C000B20F0E94F90620E041E061E070E081E0B4
:1007D0000E94FD0921E041E062E070E082E00E94B9
:1007E000FD090E94050B64E780E996E00E94F50A86
:1007F0008DB79EB706960FB6F8949EBF0FBE8DBFFD
:1008000002C00E944E2D0E94EB0A8823D1F383E39D
:1008100092E09F938F930E94AE3A0E94812780932B
:100820002D050F900F908F3F09F45EC0C090C60356
:10083000DD2472E0272E312C2C0E3D1E2E01089453
:10084000411C511C0CE018E060E4662E62E0762E3C
:1008500057EB852E54E0952E4DEFE42E4FEFF42EFE
:10086000E00EF11E39E9A32E34E0B32E8C2D0E9448
:10087000391E0E94550B882341F0B101C2010E942C
:1008800043110E945E020E945B0BDD2051F51F9216
:100890001F921F921F927F926F921F930F930E943D
:1008A000F83AF80101900020E9F7ED50F840EC5FCC
:1008B000E9839401A7016E2F81E090E00E94DC099A
:1008C0009501A701698182E090E00E94DC09DD24A6
:1008D000D3948DB79EB708960FB6F8949EBF0FBEFF
:1008E0008DBF0E94890FC2CF8EEF90E00E949D22A3
:1008F000E091B012F091B11260858EE00E947A26EC
:1009000022960FB6F894DEBF0FBECDBFDF91CF9118
:100910001F910F91FF90EF90DF90CF90BF90AF901D
:100920009F908F907F906F905F904F903F902F900F
:1009300008950F931F930E946A080CE018E06BE47F
:1009400072E0C8010E94E939F80101900020E9F73E
:10095000E01BED5F29E934E003501040A8016E2F41
:1009600082E090E00E94DC091F910F9108950F939F
:100970001F930E946A080CE018E06BE472E0C80163
:100980000E94E939F80101900020E9F7E01BED5FD2
:1009900027EB34E003501040A8016E2F81E090E077
:1009A0000E94DC091F910F910895CFEFD1E2DEBFC5
:1009B000CDBF0E94321E87E090E00E9467228CE249
:1009C00091E00E949D220E94252580E090E00E94F7
:1009D000D22181E090E00E94D22182E090E00E944A
:1009E000D22183E090E00E94D22120E030E040E07C
:1009F00050E060E070E080E090E00E94F02E0E9405
:100A00006E0B0E94E6020E94C52480E090E00C94E8
:100A10004F3D80912D050E940A288091340688233D
:100A200079F461E070E080E090E000902D0504C072
:100A3000660F771F881F991F0A94D2F70E94682AB1
:100A400081E090E00895AF92BF92CF92DF92FF9243
:100A50000F931F93CF93DF936091E1127091E21295
:100A600020E040E08091DF129091E0120E94AC06FD
:100A70000E940905F090BB0306E616E0E801219705
:100A80005E0180E5C82E82E0D82E8F2D0E94391E8F
:100A9000809142048F5F809365068150E82FFF2785
:100AA000B4E0EE0FFF1FBA95E1F7EB5CF94FD80108
:100AB00081919AEA89278D9386E0A637B807C1F716
:100AC000F50101900020E9F73197E556F6406E2FC9
:100AD000CE010E9459061092340680914204282FBC
:100AE0003327F901A4E0EE0FFF1FAA95E1F7EB5CB5
:100AF000F94F80E011928F5F8031E1F780912E05F0
:100B000090912F059F938F933F932F93DF92CF92D6
:100B10000E94AE3A8F2D0E94BE1E0E9409058DB71D
:100B20009EB706960FB6F8949EBF0FBE8DBFADCF91
:100B300080915B02992787FD9095089580913809EF
:100B4000909139090E943E3A992708958F929F9279
:100B5000AF92BF92CF92DF92EF92FF920F931F93CB
:100B6000CF93DF93EC01862E0E949022D82E8FEF38
:100B7000D81621F482E691E00E949D228D2D0E94DC
:100B80000A288F3F71F48DE391E00E949D2209C0F5
:100B90008091DF129091E0120E943E3A813C91F0E8
:100BA0000CC081E0E82EF12C012D112D04C0EE0CBB
:100BB000FF1C001F111FDA94D2F781E00E94001E73
:100BC000882331F757016801C801B7010E94682ADC
:100BD0008091DF129091E0120E943E3A982E81ECB3
:100BE000981659F70E949E05F82E10E000E02BC0E1
:100BF0008091DF129091E0120E943E3A803C19F001
:100C00008B3D59F015C0112341F10F77901629F54E
:100C1000812F992787FD909522C081E00E94001EB8
:100C2000882321F4C601B5010E94682A0E949E050E
:100C3000982E181540F41F1530F4FE01E10FF11D38
:100C400080831F5F080F81E00E94001E882381F6C9
:100C5000C601B5010E94682AF6CF8FEF9FEFDF91A2
:100C6000CF911F910F91FF90EF90DF90CF90BF90A9
:100C7000AF909F908F9008951F93182F2091320965
:100C8000222369F0332788EE93E0AC01249FC00152
:100C9000259F900D349F900D11240E94ED3360919B
:100CA000330970913409812F99270E94813A1F914D
:100CB0000895FF920F931F93CF93DF93EC01162FAC
:100CC000613810F083E03EC080913509909136097B
:100CD0000E94142A8F3F31F48CEA91E00E949D22F9
:100CE00081E030C081EC0E943C06812F0E943C06CE
:100CF000FF2400E00EC08881803C11F08B3D19F488
:100D00008BED0E943C0688810E943C068991080F69
:100D1000F394F11681F7802F8F770E943C0680ECC8
:100D20000E943C0680913509909136090E94C228A4
:100D30008F3F19F081E090E009C08EE791E00E94BA
:100D40009D2282E00E94B5258FEF9FEFDF91CF912A
:100D50001F910F91FF90089590933909809338095E
:100D60007093340960933309409337092093320913
:100D70006FEF81E00E9443289093360980933509F4
:100D80008F5F9F4F31F40E948E2B682F8FE00E945F
:100D90007A2681E080935B0281E090E00895809361
:100DA0003204089580913204992708958091320485
:100DB000823069F0833018F4813091F405C08330BB
:100DC00049F0843069F409C08CE592E00BC08FE7EC
:100DD00092E008C085EA92E005C081ED92E002C091
:100DE00081EF92E09F938F930E94AE3A0F900F9005
:100DF0000895ECE3F9E01082729689E0E03FF8078D
:100E0000D1F7E9EFF9E0108271968BE0E23AF8074A
:100E1000D1F71092DA1008952F923F924F925F927D
:100E20006F927F928F929F92AF92BF92CF92DF92FA
:100E3000EF92FF920F931F93CF93DF93CDB7DEB75F
:100E40002E970FB6F894DEBF0FBECDBF69E170E0FC
:100E50000E94BB3C8983282F33273C872B8789013D
:100E60000F5F1F4F21E030E040E050E060E070E0B5
:100E700080E090E00E945A39222E332E442E552EC7
:100E8000662E772E882E992E39813F5F3A83809186
:100E9000F0098B839091F1099C83E091F209ED8335
:100EA000F091F309FE832091F4092F833091F50925
:100EB00038878091F60989879091F7099A8737C01A
:100EC0002B8122213C8133214D8144215E8155219A
:100ED0006F81662178857721898588219A85992176
:100EE000E22FE32BE42BE52BE62BE72BE82BE92B7A
:100EF00041F0EA818E2F99272B853C85821B930B2D
:100F000064C001E0222D332D442D552D662D772D03
:100F1000882D992D0E945A39222E332E442E552E7B
:100F2000662E772E882E992E3A813F5F3A838A81EA
:100F3000893130F222242394332444245524662416
:100F40007724882499241E861D86AD852B81222135
:100F50003C8133214D8144215E8155216F81662181
:100F600078857721898588219A859921E22FE32B3D
:100F7000E42BE52BE62BE72BE82BE92B49F089E165
:100F800090E0EB85FC858E1B9F0B8A0F911D1DC089
:100F90002D853E852F5F3F4F3E872D873981321744
:100FA000A0F001E0222D332D442D552D662D772DF7
:100FB000882D992D0E945A39222E332E442E552EDB
:100FC000662E772E882E992EC0CF2E960FB6F894C7
:100FD000DEBF0FBECDBFDF91CF911F910F91FF906C
:100FE000EF90DF90CF90BF90AF909F908F907F90C9
:100FF0006F905F904F903F902F900895AF92BF9267
:10100000CF92DF92EF92FF920F931F93CF93DF93D4
:101010005C01E7E1FCE082EAC82E8BE0D82E70E0AC
:1010200060E081818823D9F180818823C1F18581A5
:1010300096818A159B0599F5662351F47481E60122
:10104000E384F484058516852781308541855285A2
:1010500064817617C8F0761709F587819085A18598
:10106000B28582179307A407B50770F028173907D0
:101070004A075B0799F483859485A585B6858E1507
:101080009F05A007B10750F4E601E384F4840585C9
:1010900016852781308541855285762F61E084E869
:1010A00090E0C80ED91EEC57FF4F91E1EF33F907DE
:1010B00009F0B7CF662311F4C0E0D0E0CE01DF9194
:1010C000CF911F910F91FF90EF90DF90CF90BF9045
:1010D000AF900895FC01EA58FF4F10828091DA101A
:1010E00081508093DA100895282FECE3F9E090E026
:1010F0008081882351F09F5F72969A30C9F781E012
:101100000E94CF068FEF9FEF0895892F9927880FB0
:10111000991FFC0133E0EE0FFF1F3A95E1F7E80F4E
:10112000F91FE45CF64F81E0808371876087448318
:10113000208B80E090E008950F931F93CF93DF936F
:10114000EC01D8018091DA108B3010F083E003C0FD
:10115000443730F084E00E94CF068FEF9FEF4CC001
:10116000E8E1FCE000E010E08081882369F584E894
:1011700090E0F801E89F8001E99F100DF89F100DA5
:101180001124F801EE55F44F4083E758FF4F608378
:10119000349781E0819380833496D183C0833397E1
:1011A000B183A0835527B901C8018D55944F0E9482
:1011B000E039C801825E934F0E9467308091DA1057
:1011C0008F5F8093DA100BC0802F8F5F0F5F1F4FF0
:1011D000EC57FF4F0A30110539F68A3019F081E0DB
:1011E00090E00AC083E093E09F938F930E94AE3A11
:1011F0008FEF9FEF0F900F90DF91CF911F910F9185
:1012000008958F929F92AF920F931F93CF93DF9386
:10121000CDB7DEB7CB01642F4A2D94010A851B851B
:101220000E949C08992787FD9095DF91CF911F918F
:101230000F91AF909F908F9008956F927F928F92B1
:10124000AF92CF92EF920F931F93CF93DF93CDB7CF
:10125000DEB728970FB6F894DEBF0FBECDBF3C01B6
:1012600009831A832B833C834D835E836F83788746
:10127000E9EFF9E010E040E020E030E08181928188
:101280006816790699F47F926F9285E193E09F93B7
:101290008F930E94AE3A81E1189FC00111248750BC
:1012A000964F0F900F900F900F904CC08081882325
:1012B00011F4122F41E02F5F3F4F71962931310514
:1012C000E9F6442331F482E00E94CF0680E090E00A
:1012D00039C0812F9927DC0164E0AA0FBB1F6A95F2
:1012E000E1F7A80FB91FA750B64FFD0172826182C6
:1012F00081E08C939D012D5F3F4F898183838A819B
:10130000F90181838B8182838C8183838D818483A6
:101310008E8185838F81868388858783FD01E3861F
:10132000C486AA2019F0858580688587FD01868698
:101330008D8987878E89808B81E1189FC001112458
:101340008750964F28960FB6F894DEBF0FBECDBFDC
:10135000DF91CF911F910F91EF90CF90AF908F9031
:101360007F906F900895482FECE3F9E020E030E0A3
:101370008081882351F08089841739F482E1289F85
:10138000C0011124845C964F08952F5F3F4F7296E1
:101390002A30310569F7842F99279F938F9385E32E
:1013A00093E09F938F930E94AE3A80E090E00F907D
:1013B0000F900F900F9008958F929F92AF92CF92BF
:1013C000EF920F933F932F934A01A62ECC24EE2445
:1013D00000E020E040E0BC0180E090E00E940109D4
:1013E0000F900F908F3F11F40E94D6060F91EF904F
:1013F000CF90AF909F908F9008956F927F928F9231
:101400009F92AF92BF92CF92DF92EF92FF920F9393
:101410001F93982ECB01742EA22E2EE3291548F48B
:101420008BE593E09F938F930E94AE3A0F900F90BD
:1014300061C01F921F928824CC24EE2400E010E0AB
:1014400020E030E040E050E060E070E00E941D09E4
:10145000BC010F900F90892B31F0472D892D0E94F0
:1014600074088F3F19F40E94D60644C0092D112735
:1014700021E030E040E050E060E070E080E090E0AB
:101480000E945A39A22EB32EC42ED52EE62EF72E48
:10149000082F192FE091F009F091F109A091F209BC
:1014A000B091F3099090F4098090F5097090F609D5
:1014B0006090F7092E2F2A293F2F3B294A2F4C29CC
:1014C0005B2F5D29692D6E29782D7F29872D802B33
:1014D000962D912B2093F0093093F1094093F20956
:1014E0005093F3096093F4097093F5098093F6091A
:1014F0009093F7091F910F91FF90EF90DF90CF909D
:10150000BF90AF909F908F907F906F90089521E053
:1015100030E040E050E004C0220F331F441F551F4D
:101520008A95D2F780913D0490913E04A0913F04AA
:10153000B0914004822B932BA42BB52B80933D04B8
:1015400090933E04A0933F04B0934004089580918B
:10155000560499270895813019F08330D9F531C0A8
:1015600083E1809334118CE08093351184E1809382
:10157000361188E18093371180E18093381187E13B
:101580008093391182E180933A1189E180933B1174
:101590008EE080933C1185E180933D118BE0809338
:1015A0003E118FE080933F1186E18093401181E1ED
:1015B000809341118DE0809342118AE18093431121
:1015C00008958FE08093301184E18093311189E197
:1015D00080933211089580910808813019F481E0D8
:1015E00090E008958FEF9FEF0895662359F00097DC
:1015F00049F090934904809348046093470481E044
:1016000090E008958FEF9FEF089582E0809308089F
:101610000895CF93DF93EC01E885F985858587FFF1
:1016200002C085EE01C081EE992787FD9095DF917C
:10163000CF910895882311F083E801C083E09927B2
:1016400087FD909508958F92AF92CF92EF920F936E
:10165000CF93DF93CDB7DEB7109213119AE090933A
:101660001A1110921B1180931C1160931D1140934D
:101670001E1110921F112093261100932711E09242
:101680002811C0922911A0922A1180922B118A85CB
:1016900080932C118B8580932D11DF91CF910F9129
:1016A000EF90CF90AF908F90089580918608992702
:1016B00087FD9095089510928608109287081092E1
:1016C000880810928908089580917606813019F46F
:1016D00081E090E008958FEF9FEF08950F931F939F
:1016E00087EB9FE090936D0480936C0407E614E011
:1016F00040E850E06DEA74E0C8010E94E03784E100
:1017000080936F0481E080936E04809370048093D3
:101710007104109272041092730410927404109267
:10172000750480E896E9A8E9B0E080937604909388
:101730007704A0937804B093790410927A041092FD
:101740007B0410927C0410927D0410927E0410920F
:101750007F041092800410928104109282041092EF
:1017600083041092840410928504109286041092CF
:1017700087041092880410928904C8010E948C2D5D
:101780001F910F910895CF92DF92EF92FF920F93E6
:101790001F93CF93DF93EE24FF2483E4C82E84E0CD
:1017A000D82EE0914804F091490481E08083609153
:1017B0005604C6010E94A21C0E94C5171092101167
:1017C0008AEF0E94443480E00E94293400E012C075
:1017D0000E94B334081771F00E94B334082F0894A4
:1017E000E11CF11C81E1E81687E2F80618F0EE240E
:1017F000FF2405C00E945314182F882349F30E9428
:10180000FB330E94B334C82FDD272496112371F0D7
:1018100006C00E94B3349927C817D90738F060E88A
:1018200080E00E943815182F882399F30E94AD1785
:10183000113009F0B6CFE0914804F091490492814B
:1018400080913005981709F0ACCF81E090E0A0E0DE
:10185000B0E08093860890938708A0938808B0939F
:10186000890880910411909105112181820F911DA9
:10187000909305118093041182E090E00E94B521BD
:101880006091E1127091E21289E690E00E94813A43
:1018900010931011109286081092870810928808F1
:1018A000109289080E941E348AE00E94443487E026
:1018B0000E94293460E571E980E090E00E943835AB
:1018C0000E942C34E091B012F091B1128AE090E0C5
:1018D000968B858B809110119927DF91CF911F9165
:1018E0000F91FF90EF90DF90CF9008950F931F938B
:1018F000CF93DF93CDB7DEB721970FB6F894DEBF55
:101900000FBECDBF6091560483E494E00E94A21CF8
:101910000E94C5170091C503802F0E94391E0E94A6
:10192000B334898389818C5F898317C00E94B33463
:101930009981981790F4802F0E94BE1E0E94AD17C7
:10194000802F0E94391E802F0E94BE1E6091E112DE
:101950007091E21286E790E03DC00E945314882304
:1019600029F30E94033490931211809311110E9465
:10197000B334898389818B5F898317C00E94B33414
:101980009981981790F484E793E09F938F930E9436
:10199000AE3A80913B0490913C04019690933C04B4
:1019A00080933B040F900F9089C060E880E00E9414
:1019B0003815182F882311F3802F0E94BE1E0E9415
:1019C000AD17113009F462C06091E1127091E2121A
:1019D00082E690E00E94813A80913B0490913C0421
:1019E000019690933C0480933B0468C08091370437
:1019F000909138040196909338048093370412FF35
:101A000002C083E801C083E08093441180937D0885
:101A10008DE798E0909364048093630412FF1EC0E6
:101A20006091E1127091E2128BE490E00E94813AA1
:101A3000809111119091121120910011309101119A
:101A4000821B930B9093FD108093FC10292F33275A
:101A500020937E0880937F0884E001C082E0809319
:101A60006204802F0E94391E4091580450915904FD
:101A700060910011709101112CE031E180E694E059
:101A80000E94DB19802F0E94BE1E18C0809139046D
:101A900090913A04019690933A048093390481E03E
:101AA00090E00E94B521E0914804F0914904108132
:101AB0008091F6100E94162917FD98CF21960FB637
:101AC000F894DEBF0FBECDBFDF91CF911F910F9174
:101AD00008958F929F92AF92BF92CF92DF92EF9232
:101AE000FF920F931F93CF93DF93CDB7DEB721976C
:101AF0000FB6F894DEBF0FBECDBF8C015B0181E055
:101B000080935104F801A085B185FD018181928106
:101B10000E94FE076C01892B39F485E993E09F93BD
:101B20008F930E94AE3A06C18A2CA092FF100894AF
:101B3000C11CD11CD0925004C0924F04D6018E918A
:101B40006D0180934E04C8010E94090B982EE0910C
:101B50004F04F09150048083E0914F04F0915004C1
:101B600080910411909105118183E0914F04F091CF
:101B700050048091410482830E94FB3360E875E247
:101B800080E090E00E943835E090BB038E2D0E94EB
:101B9000391E409158045091590460910011709180
:101BA00001112CE031E18CE494E00E94DB198823E0
:101BB00041F1E5E7F0E0CE0EDF1ED6011C92EBE826
:101BC000FFEFCE0EDF1E809137049091380401960E
:101BD00090933804809337048E2D0E94BE1E83E0BC
:101BE00090E00E94B52180910C1190910D112091EF
:101BF000001130910111821B930B9093FB10809385
:101C0000FA10809102110E94162997FE5EC10E946F
:101C1000C5178E2D0E94391E0E94FB3360E070E1D3
:101C200080E090E00E9438350E94B3348983898136
:101C30008E5F898346C00E94B3349981981708F05B
:101C400040C02091FF10822F9927A816B90651F4A1
:101C50008091451190914611499690934611809339
:101C6000451114C0882D821B2091451130914611D9
:101C7000482F552747FD5095181614F0275E3F4F03
:101C8000240F351F30934611209345110E94AD1744
:101C90008E2D0E94BE1E6091E1127091E21283E7C8
:101CA00090E00E94813A80913B0490913C0401961F
:101CB00090933C0480933B0487E790E0C80ED91EC4
:101CC00008C10E945314882309F4B5CF0E94B3348D
:101CD000898389818E5F8983F801A085B185FD01A3
:101CE000858587FF2AC014E029C00E94B3349981FA
:101CF000981720F584E793E09F938F930E94AE3A64
:101D000080913B0490913C04019690933C04809315
:101D10003B040E94B3348093F71087E790E0C80E2D
:101D2000D91ED601ED91FC9189E89FEFC80ED91E0E
:101D3000C60109950F900F90D9C012E0612F81E084
:101D40000E943815082F882381F2813009F4CBC016
:101D50006091E1127091E21286E690E00E94813A71
:101D600080913B0490913C04019690933C048093B5
:101D70003B0480913504909136049F938F938BEAB6
:101D800093E09F938F930E94AE3A0F900F900F9025
:101D90000F908E2D0E94BE1E013009F096C08091DA
:101DA000390490913A04019690933A04809339044F
:101DB0001092461110924511E0914804F0914904A7
:101DC00080818093441187FF80C081819927982F5B
:101DD000882722813327822B932B9093FD108093A9
:101DE000FC1080E090E00E94B5216091E1127091BA
:101DF000E21281E690E00E94813AA090FC10B0903F
:101E0000FD108091FA109091FB10A81AB90A82E394
:101E100089830E94B334982E8090C503882D0E9438
:101E2000391EB7FC30C09092F7100E941E3434E681
:101E3000E32E39E1F32EC50164E679E10E94CF3C3F
:101E40008B010F5F00930611C50164E679E10E94E2
:101E5000CF3CE81AF90AF0920B11E0920A110E94A5
:101E6000FB3382E390E00E94ED33B70180E090E025
:101E70000E943835892D800F0E94293484E690E035
:101E80000E94ED3317C06091E1127091E21281E27D
:101E900090E00E94813A0E941E340E94FB33662724
:101EA00077276A197B0980E090E00E943835892DF8
:101EB0000E9429340E942C340E94FB3382E390E07C
:101EC0000E94ED33882D0E94BE1EA7E7B0E0CA0E27
:101ED000DB1ED601ED91FC9189E89FEFC80ED91E5B
:101EE000C601099503C00E94AD1753CF21960FB6C6
:101EF000F894DEBF0FBECDBFDF91CF911F910F9140
:101F0000FF90EF90DF90CF90BF90AF909F908F9019
:101F100008958091F6100E940A28809102110E9473
:101F20000A2821E030E040E050E0CA01B901009009
:101F3000021104C0660F771F881F991F0A94D2F7F9
:101F40000090F61004C0220F331F441F551F0A943F
:101F5000D2F7622B732B842B952B0E94682A81E089
:101F600090E00895809356040E94CC1C0895EF924F
:101F7000FF920F931F93CF93DF93109208080E9454
:101F80004E2D809108088823D1F381E080930808C2
:101F9000E090BB0300E010E08E2D0E94391E8E2DD4
:101FA0000E94BE1E0E94FB330E94033490930111D5
:101FB00080930011809104119091051190930F115D
:101FC00080930E1180910411909105118536910531
:101FD00098F080910411909105118456904090934F
:101FE0000511809304118091F8109091F9100196D9
:101FF0009093F9108093F8102091041130910511FD
:1020000080911011813051F5C90169E170E00E94A1
:10201000BB3CEC01E0910311E00FE0930311FF27BB
:10202000EF70F070EC5CFE4E8081809333110E9463
:10203000B20F8C2F0E94B309FC01892BE9F0848137
:10204000883021F48C2F0E94760C16C08130A1F4C8
:102050006C2F7727CF010E94690D0EC080918F06EB
:10206000823039F010923604109235040E94C30B6E
:1020700001C081E0809310112091451130914611EB
:102080008091B8039091B9032817390778F18091AE
:102090008F06823059F11092101110924611109251
:1020A0004511109205111092041180912E05909106
:1020B0002F05019690932F0580932E058091410462
:1020C000882349F0E0913005E0930311FF27EC5C91
:1020D000FE4E808104C010920311809134118093D0
:1020E0003311809133110E94B20F54CF80910411AB
:1020F000909105110E940C078C0180910411909120
:102100000511800F911F909305118093041180E0B9
:1021100090E00E94D2211092FB101092FA10C80198
:102120000E941B2D80E090E00E94EF2135CFFF92AE
:102130000F931F93082FF62E142F0E948127809350
:10214000F6108F3F19F480E092E008C00E948127CA
:10215000809302118F3F79F489ED91E00E949D22D6
:10216000E091B012F091B11260858EE00E947A2663
:102170008FEF90E06AC010924904109248041092C8
:1021800047040E94F7331092F9101092F81084E679
:1021900090E0909305118093041110921011109209
:1021A0007606109246111092451100938F06F09218
:1021B00041041093300510928608109287081092FF
:1021C00088081092890884E680935C0480E49FE18B
:1021D00090935B0480935A0480EA9FE090935904A3
:1021E000809358048FE08093560481E899E190939E
:1021F00055048093540421E839E141E254E26FE050
:1022000083E494E00E94DF1C81E08093FE10109232
:102210000911FF2041F010930311E12FFF27EC5C1F
:10222000FE4E808104C0109203118091341180937E
:102230003311809133110E94B20F10922F0510922A
:102240002E050E94F90681E090E01F910F91FF900A
:1022500008958091F6100E940A28809186088823AC
:1022600079F461E070E080E090E00090F61004C046
:10227000660F771F881F991F0A94D2F70E94682A59
:1022800081E090E00895FC01DB01809186088823BD
:1022900029F410821C9280E090E008958091460419
:1022A000808380914B048C938091480490914904E1
:1022B0000895EAE7F0E083E08083ACE7B0E080E4F3
:1022C0008C93808180688083109248118C91807EED
:1022D0008C939C918C91807E892B8C93089588ECB3
:1022E00090E00E94ED33089580917A00806480939D
:1022F0007A0080917A0084FFFCCF0E946F112091B8
:1023000078003327809179009927982F8827822B8E
:10231000932B0895FF920F931F93CF93DF93CDB725
:10232000DEB722970FB6F894DEBF0FBECDBF0E9476
:10233000CA138C01009711F00E94142A159AFF24E9
:102340008F2D806299279A83898340988BE18EBD77
:102350000DB407FEFDCF89819A81892F99278EBD03
:102360000DB407FEFDCF89819A818EBD0DB407FEA5
:10237000FDCF409A82E090E00E94ED3340988BE5DB
:102380008EBD0DB407FEFDCF1EBC0DB407FEFDCF04
:102390008EB59927982F88279A8389831EBC0DB400
:1023A00007FEFDCF89819A812EB53327282B392B43
:1023B0003A832983409A89819A8186FD05C0F394E6
:1023C0002FE1F21609F0BCCF0115110519F0C80173
:1023D0000E94C228FF20C9F40E9474119A83898345
:1023E00089819A818F3A910530F089819A818E5A3C
:1023F00090409A83898389819A818A54914098F484
:102400008AE491E09A8389830EC02DE7F29E9001C1
:10241000112488E293E2821B930B6BE170E00E942F
:10242000CF3C7A83698389819A8122960FB6F8948A
:10243000DEBF0FBECDBFDF91CF911F910F91FF90F7
:102440000895CF92DF92EF92FF920F931F93CF9355
:10245000DF93982FEA01122F823009F481C0833074
:1024600030F4882371F0813009F0D2C010C084307C
:1024700009F481C0843008F477C0853009F0C8C001
:102480002DC080E880BB8F9A0E9459116AC080914C
:102490004711813009F4C3C090934711772760FF3B
:1024A00013C08F981092481180917C00807E809399
:1024B0007C0090917C0080917C00807E892B8093B1
:1024C0007C0088EE93E09FC061FDA9C062FDA7C0BB
:1024D00067707070672B09F4A2C097C0822F81507B
:1024E000823008F099C090914811892F8150863030
:1024F00018F40E94741122C0992319F40E948A11C1
:102500001DC0973051F5F1E0CF2EF4E0DF2EEE2420
:10251000FF2400E00E9474118C159D0508F46C01E5
:10252000E816F90608F47C018DE790E00E94ED338F
:102530000F5F003479F7C7018C199D09123031F40F
:102540008883892F9927898381E008C0113029F475
:102550009695879596958795888380E08F5F09C0CB
:102560008F9A1092471151C0613009F058C0809184
:102570004811992756C0613009F051C02730D9F46D
:102580002093481180917C008F7780937C0080910C
:102590007C00806480937C0080917C00807E8093AE
:1025A0007C0090917C0080917C009360807E982BD1
:1025B00090937C0026C0283020F081E00E94B52551
:1025C0002EC020934811213049F480917C008F77F0
:1025D00080937C0080917C00806403C080917C00AB
:1025E000806C80937C0080917C00807E80937C0056
:1025F00090917C0080917C00807E892B812B809340
:102600007C0088EC90E00E94ED3381E090E009C00E
:1026100060E08CE00E947A2680E090E002C08FEFBC
:1026200090E0DF91CF911F910F91FF90EF90DF909D
:10263000CF90089599279C01265A3E4B0B97880FFF
:10264000991F880F991F280F391FF894409888E127
:102650008EBD0DB407FEFDCF832F99278EBD0DB41F
:1026600007FEFDCF2EBD0DB407FEFDCF409A789436
:102670000895F89440981EBC0DB407FEFDCF8EB5AA
:10268000409A789486FFF5CF089580915E1199273E
:102690000895CF93DF93DC01409889EC8EBD0DB493
:1026A00007FEFDCF80E88EBD0DB407FEFDCF92E0A2
:1026B0009150FD01E90FF11D80818EBD0DB407FE23
:1026C000FDCF9923A9F7409A40988BEC8EBD0DB4AD
:1026D00007FEFDCF80E88EBD0DB407FEFDCF92E072
:1026E0009D012E5F3F4FE9019150F901E90FF11D66
:1026F00080818EBD0DB407FEFDCF9923A1F7409ACE
:102700008C9180935F11FD0181818093601188819C
:1027100080936111838180936211DF91CF9108953D
:10272000409889E18EBD0DB407FEFDCF83E08EBDDC
:102730000DB407FEFDCF86E08EBD0DB407FEFDCFC4
:10274000409A40988AE18EBD0DB407FEFDCF8EE021
:102750008EBD0DB407FEFDCF8EE08EBD0DB407FE1D
:10276000FDCF409A81E080934F110895409889E110
:102770008EBD0DB407FEFDCF81E08EBD0DB407FE0A
:10278000FDCF84EC8EBD0DB407FEFDCF409A1092B4
:102790004F11089580914D1190914E1108952091FF
:1027A00050113091511138603093511120935011D4
:1027B000409881E18EBD0DB407FEFDCF832F992790
:1027C0008EBD0DB407FEFDCF2EBD0DB407FEFDCFAF
:1027D000409A08952091501130915111377F3093D4
:1027E000511120935011409881E18EBD0DB407FE28
:1027F000FDCF832F99278EBD0DB407FEFDCF2EBDD3
:102800000DB407FEFDCF409A089581E080935D11DD
:10281000209150113091511120613093511120932A
:102820005011409881E18EBD0DB407FEFDCF832F7E
:1028300099278EBD0DB407FEFDCF2EBD0DB407FE4A
:10284000FDCF409A089510925D1120915011309162
:1028500051112F7E3093511120935011409881E1F6
:102860008EBD0DB407FEFDCF832F99278EBD0DB40D
:1028700007FEFDCF2EBD0DB407FEFDCF409A089593
:1028800089B1992766E0969587956A95E1F78170F9
:10289000907008958CB1992787FD90958827990F9E
:1028A000881F9927089589B19927E6E0969587951D
:1028B000EA95E1F781709070089580916311882303
:1028C00019F480E090E008958091631110926311F3
:1028D000992787FD90950895409888E08EBD0DB4A6
:1028E00007FEFDCF409A409888E08EBD0DB407FEEC
:1028F000FDCF409A089580914D1190914E110E9404
:10290000142A409886E08EBD0DB407FEFDCF409A94
:1029100080914D1190914E110E94C228089580918E
:102920004D1190914E110E94142A409884E08EBD62
:102930000DB407FEFDCF409A80914D1190914E113C
:102940000E94C228089580914D1190914E110E94CD
:10295000142A409886E08EBD0DB407FEFDCF409A44
:10296000409882E18EBD0DB407FEFDCF85E08EBD9F
:102970000DB407FEFDCF1EBC0DB407FEFDCF409A7F
:1029800040988EE28EBD0DB407FEFDCF1EBC0DB487
:1029900007FEFDCF1EBC0DB407FEFDCF409A0E947E
:1029A0006C1480914D1190914E110E94C22808958F
:1029B00080914D1190914E110E94142A409886E00A
:1029C0008EBD0DB407FEFDCF409A409882E18EBDCA
:1029D0000DB407FEFDCF85E08EBD0DB407FEFDCF23
:1029E00088E08EBD0DB407FEFDCF409A40988EE280
:1029F0008EBD0DB407FEFDCF88E18EBD0DB407FE80
:102A0000FDCF1EBC0DB407FEFDCF409A0E946C1492
:102A100080914D1190914E110E94C22808950F93FC
:102A20001F93082F80914D1190914E110E94142AEE
:102A3000112707FD1095302F22272068409883E149
:102A40008EBD0DB407FEFDCF832F99278EBD0DB42B
:102A500007FEFDCF2EBD0DB407FEFDCF409A80913D
:102A60004D1190914E110E94C2281F910F9108950F
:102A70000F931F93CF93DF93CDB7DEB724970FB695
:102A8000F894DEBF0FBECDBF182F062F80914D11D9
:102A900090914E110E94142A679B4CC210925E11B5
:102AA000679B25C0319923C040988FE78EBD0DB438
:102AB00007FEFDCF1EBC0DB407FEFDCF8EB5409ABC
:102AC000409888E08EBD0DB407FEFDCF409A409837
:102AD00088E08EBD0DB407FEFDCF409A80914D1168
:102AE00090914E110E94C2288FEF9FEF2BC2409809
:102AF0008FE78EBD0DB407FEFDCF1EBC0DB407FEE3
:102B0000FDCF4EB5409A4F7719F540988FE78EBDAF
:102B10000DB407FEFDCF1EBC0DB407FEFDCF8EB574
:102B2000409A409888E08EBD0DB407FEFDCF409AD4
:102B3000409888E08EBD0DB407FEFDCF409A80918D
:102B40004D1190914E110E94C2288EEF9FEFFAC155
:102B500045308CF0E0915211F0915311242F33271E
:102B600027FD30952B5030408481992787FD909523
:102B700082179307F4F540988FE78EBD0DB407FEDA
:102B8000FDCF60E070E0242F332727FD309506C08D
:102B90001EBC0DB407FEFDCF6F5F7F4F862F9927B8
:102BA0008217930714F43199F3CF409A40988FE736
:102BB0008EBD0DB407FEFDCF1EBC0DB407FEFDCFCC
:102BC0008EB5409A409888E08EBD0DB407FEFDCFCB
:102BD000409A409888E08EBD0DB407FEFDCF409A24
:102BE00080914D1190914E110E94C2288DEF9FEF60
:102BF000A9C1E0915211F09153114C50438311231C
:102C0000B1F0E0915211F09153118381992787FD22
:102C10009095202F33278217930749F080914D110B
:102C200090914E110E94C2288AEF9FEF8BC140986D
:102C30008FE78EBD0DB407FEFDCFFE0131969E01DC
:102C40002D5F3F4F1EBC0DB407FEFDCF8EB58193A7
:102C5000E217F307B9F7409AE0915211F09153113E
:102C600089819A81B5E096958795BA95E1F781704B
:102C7000878340988FE78EBD0DB407FEFDCF1EBC45
:102C80000DB407FEFDCFE0915211F09153118EB5B6
:102C90008083409A40988FE78EBD0DB407FEFDCF2C
:102CA00080E007C01EBC0DB407FEFDCF8F5F8430EF
:102CB00011F03199F7CF409A40988FE78EBD0DB44F
:102CC00007FEFDCF20E030E01EBC0DB407FEFDCFB7
:102CD000E0915211F0915311E20FF31F8EB58183F1
:102CE0002F5F3F4F2230310579F7409A89819A81D1
:102CF00083FF56C040988FE78EBD0DB407FEFDCF11
:102D0000E9E4F1E11EBC0DB407FEFDCF8EB5819361
:102D100081E1ED34F807B1F7409A409889E98EBD1A
:102D20000DB407FEFDCF80E88EBD0DB407FEFDCFCC
:102D300092E09150E92FFF27E75BFE4E80818EBD28
:102D40000DB407FEFDCF9923A1F7409A40988BE977
:102D50008EBD0DB407FEFDCF80E88EBD0DB407FE1D
:102D6000FDCF92E09150E92FFF27E55BFE4E808179
:102D70008EBD0DB407FEFDCF9923A1F7409A409870
:102D80008CE08EBD0DB407FEFDCF409A81E08093AC
:102D90005E11E0915211F09153118381845083832D
:102DA00040988FE78EBD0DB407FEFDCF40E050E0A8
:102DB00011C01EBC0DB407FEFDCFE0915211F09181
:102DC00053110580F681E02DE60FF11D8EB580834D
:102DD0004F5F5F4F642FE0915211F0915311242FF8
:102DE00033278381992787FD9095281739070CF39E
:102DF000409A40988FE78EBD0DB407FC0AC0FCCF07
:102E00000DB407FEFDCF5EB5409A40988FE78EBDAA
:102E100002C01EBCF5CF0DB407FEFDCFFE013396F8
:102E20009E012B5F3F4F1EBC0DB407FEFDCF8EB53C
:102E30008193E217F307B9F7409AE0915211F091AC
:102E400053118B81808740E020E030E00AC0E091A0
:102E50005211F091531185819681A80FB91F8C9161
:102E6000480F822FE0915211F09153112F5F3F4F85
:102E7000A82FBB278381992787FD9095A817B907AD
:102E800034F3451719F140988FE78EBD0DB407FE56
:102E9000FDCF1EBC0DB407FEFDCF8EB5409A409805
:102EA00088E08EBD0DB407FEFDCF409A409888E0C3
:102EB0008EBD0DB407FEFDCF409A80914D119091CB
:102EC0004E110E94C2288CEF9FEF3CC08C8187FF7F
:102ED0000EC0809163118F5F8093631180914D11BB
:102EE00090914E110E94C22881E090E02BC0409842
:102EF0008FE78EBD0DB407FEFDCF1EBC0DB407FEDF
:102F0000FDCF8EB5409A409888E08EBD0DB407FE87
:102F1000FDCF409A409888E08EBD0DB407FEFDCFEE
:102F2000409A80914D1190914E110E94C2288BEFD2
:102F30009FEF08C080914D1190914E110E94C228C0
:102F400080E090E024960FB6F894DEBF0FBECDBFB0
:102F5000DF91CF911F910F91089580914D11909124
:102F60004E110E94142A10925A11409886E08EBD8C
:102F70000DB407FEFDCF409A1092631180914D1160
:102F800090914E110E94C228089580914D11909108
:102F90004E110E94142A81E080935A11409883E0D8
:102FA0008EBD0DB407FEFDCF409A409888E08EBDDF
:102FB0000DB407FEFDCF409A1092631180914D1120
:102FC00090914E110E94C228089580914D119091C8
:102FD0004E110E94142A81E080935A11409883E098
:102FE0008EBD0DB407FEFDCF409A409888E08EBD9F
:102FF0000DB407FEFDCF409A1092631180914D11E0
:1030000090914E110E94C22808951F93182F80910D
:103010004D1190914E110E94142A212F33272F71A8
:103020003070206E306A409885E18EBD0DB407FE89
:10303000FDCF832F99278EBD0DB407FEFDCF2EBD8A
:103040000DB407FEFDCF409A80914D1190914E1125
:103050000E94C2281F910895EF92FF920F931F9331
:10306000CF93DF93CDB7DEB722970FB6F894DEBFCC
:103070000FBECDBF8C0180914D1190914E110E94D9
:10308000142A50914F11552339F040988DE08EBD90
:103090000DB407FEFDCF409AF8014281642F7727D7
:1030A00067FD7095A0E020E030E008C0F801838162
:1030B0009481E80EF91EF7018081A80F822F2F5FFF
:1030C0003F4FE82EFF24E616F70684F3942F945F13
:1030D00051119C5F6799FECF4E99FCCFF8944098B0
:1030E00089E08EBD0DB407FEFDCF409A409889E07F
:1030F0008EBD0DB407FEFDCF409A40988EE38EBD85
:103100000DB407FC05C0FCCF0DB407FC30C1FCCFEB
:103110009EBDFACF81E698E89A838983552329F0EA
:1031200089819A8188609A83898340988EE38EBDD5
:103130000DB407FEFDCFFE0131969E012D5F3F4F7E
:1031400080818EBD0DB407FEFDCF3196E217F307E7
:10315000B9F7409A40988EE38EBD0DB407FC05C0C8
:10316000FCCF0DB407FC0EC1FCCF809154118EBD75
:10317000F8CF0DB407FEFDCF20E030E0F901EA5AA8
:10318000FE4E80818EBD0DB407FEFDCF2F5F3F4FF9
:103190002230310599F7409A40988EE38EBD0DB4E8
:1031A00007FEFDCF20E030E0F801E20FF31F808141
:1031B0008EBD0DB407FEFDCF2F5F3F4F223031058E
:1031C00099F7409A40988EE38EBD0DB407FEFDCF6F
:1031D00020E030E0F901E85AFE4E80818EBD0DB44A
:1031E00007FEFDCF2F5F3F4F2230310599F7409A00
:1031F000552399F040988EE38EBD0DB407FEFDCFA8
:10320000EFE5F1E180818EBD0DB407FEFDCF319673
:1032100081E1E336F807B1F7409A40988EE38EBD1E
:103220000DB407FEFDCF20E030E00DC0F801838132
:103230009481480F591FFA0180818EBD0DB407FE9D
:10324000FDCF2F5F3F4F422F55274617570774F387
:10325000409A40988EE38EBD0DB407FC05C0FCCFAC
:103260000DB407FC94C0FCCFAEBDFACF80915A11CB
:10327000882339F4409883E08EBD0DB407FEFDCF5E
:10328000409A40981EBC0DB407FEFDCF8EB5409A03
:1032900081FFF7CF00E0409885E08EBD0DB407FEBA
:1032A000FDCF409A40981EBC0DB407FEFDCF1EB561
:1032B000409A0F5F053651F4789480914D119091AA
:1032C0004E110E94C22880E090E068C084E690E041
:1032D0000E94FE2213FD08C0DECF409884E08EBD20
:1032E0000DB407FEFDCF409A78944E9BFECF4E99C9
:1032F000FECF80915D11882391F084EA92E00E94D4
:10330000FE22319B0EC040988FE78EBD0DB407FEA4
:10331000FDCF1EBC0DB407FEFDCF8EB5409A11E067
:103320000FC0409888E08EBD0DB407FEFDCF409AD7
:10333000409888E08EBD0DB407FEFDCF409A10E0A6
:10334000F894409886E08EBD0DB407FEFDCF409AFC
:103350007894809154118F5F8093541180914D1116
:1033600090914E110E94C228812F992717C0409A30
:1033700081E498E89A83898380915D11882309F01C
:10338000C9CECCCE409A40988EE38EBDF2CE409A04
:10339000F8018581882309F069CF9FCF22960FB667
:1033A000F894DEBF0FBECDBFDF91CF911F910F917B
:1033B000FF90EF9008958F929F92BF92CF92DF92ED
:1033C000EF92FF920F931F93CF93DF93CDB7DEB7AA
:1033D00022970FB6F894DEBF0FBECDBF8C016B01F4
:1033E0007A01490180914D1190914E110E94142A49
:1033F0000E94B334409888E08EBD0DB407FEFDCF27
:10340000409A409888E08EBD0DB407FEFDCF409AEB
:103410006799FECF4E99FCCFF894409889E08EBD15
:103420000DB407FEFDCF409A409889E08EBD0DB4E3
:1034300007FEFDCF409AF8016281462F552747FDD0
:103440005095BB2420E030E007C0F80183819481CF
:10345000A80FB91F8C91B80E822F2F5F3F4FA82F56
:10346000BB27A417B5078CF3962F945F40988EE383
:103470008EBD0DB407FC05C0FCCF0DB407FC18C110
:10348000FCCF9EBDFACF81E698E89A838983409865
:103490008EE38EBD0DB407FEFDCFFE0131969E0179
:1034A0002D5F3F4F80818EBD0DB407FEFDCF31965D
:1034B000E217F307B9F7409A40988EE38EBD0DB43A
:1034C00007FC05C0FCCF0DB407FCFBC0FCCF80910E
:1034D00054118EBDF8CF0DB407FEFDCF20E030E0D3
:1034E000F901EA5AFE4E80818EBD0DB407FEFDCF74
:1034F0002F5F3F4F2230310599F7409A40988EE375
:103500008EBD0DB407FEFDCF20E030E0F801E20FE4
:10351000F31F80818EBD0DB407FEFDCF2F5F3F4F9F
:103520002230310599F7409A40988EE38EBD0DB454
:1035300007FEFDCF20E030E0F901E85AFE4E808121
:103540008EBD0DB407FEFDCF2F5F3F4F22303105FA
:1035500099F7409AB701C6010E943835F801858174
:10356000882379F180915A11882339F4409883E0B7
:103570008EBD0DB407FEFDCF409AEE24409885E045
:103580008EBD0DB407FEFDCF409A40981EBC0DB411
:1035900007FEFDCFFEB4409AE394F5E6EF1651F432
:1035A000789480914D1190914E110E94C22880E034
:1035B00090E08EC084E690E00E94FE22F3FC08C0FA
:1035C000DDCF409884E08EBD0DB407FEFDCF409A5C
:1035D0008091BA030E94391E8091840090918500E9
:1035E000F4019183808340988EE38EBD0DB407FE75
:1035F000FDCFF8018281482F552747FD509520E0E7
:1036000030E00CC0F80183819481A80FB91F8C9120
:103610008EBD0DB407FEFDCF2F5F3F4FA22FBB27FE
:10362000A417B5077CF3409A40988EE38EBD0DB485
:1036300007FC05C0FCCF0DB407FC48C0FCCFBEBCE6
:10364000FACF4E9BFECFF8944E99FECF409888E07B
:103650008EBD0DB407FEFDCF409A409888E08EBD28
:103660000DB407FEFDCF409A409889E08EBD0DB4A1
:1036700007FEFDCF409A409889E08EBD0DB407FE4D
:10368000FDCF409A409886E08EBD0DB407FEFDCF79
:10369000409A7894809154118F5F80935411809157
:1036A0004D1190914E110E94C22881E090E010C00F
:1036B000409AF8018681882309F0E5CE81E498E8F4
:1036C000E4CE409A40988EE38EBD05CF409AB9CFA4
:1036D00022960FB6F894DEBF0FBECDBFDF91CF911B
:1036E0001F910F91FF90EF90DF90CF90BF909F9030
:1036F0008F900895CF93DF93CDB7DEB722970FB6A3
:10370000F894DEBF0FBECDBF9A8389839093591181
:103710008093581184EF91E00E94ED3340988AEE37
:103720008EBD0DB407FEFDCF80E88EBD0DB407FE43
:10373000FDCFFE0131969E012D5F3F4F80818EBDF2
:103740000DB407FEFDCF3196E217F307B9F7409AA3
:1037500084EF91E00E94ED3322960FB6F894DEBF1D
:103760000FBECDBFDF91CF9108956F927F928F9260
:103770009F92AF92BF92CF92DF92EF92FF920F9300
:103780001F93CF93DF93CDB7DEB722970FB6F89490
:10379000DEBF0FBECDBF8C0184E690E00E94ED330A
:1037A0007801C12CB1E0DB2E3E010894611C711C34
:1037B000A3E08A2E912C8C0E9D1EF7018081218121
:1037C00033279927982F8827282B392B3A83298349
:1037D00084E690E00E94ED3340988C2D80688EBD89
:1037E0000DB407FEFDCFC60195958795807C8EBDF3
:1037F0000DB407FEFDCF83015301F50180818EBD1D
:103800000DB407FEFDCF0894A11CB11CA814B90487
:10381000A1F7409A0894E11CF11C82E090E0C80EE8
:10382000D91E90E1C91691E0D90639F684E690E0F8
:103830000E94ED3320E131E040E451E01A82198228
:103840004098842F80688EBD0DB407FEFDCFCA015D
:1038500095958795807C8EBD0DB407FEFDCFF80150
:1038600080818EBD0DB407FEFDCF3196EA15FB05B4
:10387000B9F7409A4098822F80688EBD0DB407FE3C
:10388000FDCFC90195958795807C8EBD0DB407FE4F
:10389000FDCFF80180818EBD0DB407FEFDCF3196BE
:1038A000EA15FB05B9F7409A2E5F3F4F4E5F5F4F19
:1038B000E1E02E313E0711F681E090E09A838983A2
:1038C00040988EEC8EBD0DB407FEFDCF80E88EBD16
:1038D0000DB407FEFDCFF80180818EBD0DB407FE4B
:1038E000FDCF3196EA15FB05B9F7409A40988EE96D
:1038F0008EBD0DB407FEFDCF80E88EBD0DB407FE72
:10390000FDCFF80180818EBD0DB407FEFDCF0F5FA6
:103910001F4F0A151B05A9F7409A22960FB6F89477
:10392000DEBF0FBECDBFDF91CF911F910F91FF90F2
:10393000EF90DF90CF90BF90AF909F908F907F904F
:103940006F9008951F93CF93DF93EC01162F809112
:103950004D1190914E110E94142A409888E08EBD1E
:103960000DB407FEFDCF409A409888E08EBD0DB49F
:1039700007FEFDCF409A812F0E941A13D093531156
:10398000C093521180914D1190914E110E94C22806
:10399000DF91CF911F9108951F93182F80914D11A2
:1039A00090914E110E94142A812F0E941A13809127
:1039B0004D1190914E110E94C2281F910895DF92DF
:1039C000EF92FF920F931F93CF93DF93CDB7DEB7A4
:1039D00022970FB6F894DEBF0FBECDBF8C01D62E56
:1039E0005A834983790164E181E00E9443289093DE
:1039F0004E1180934D11892B31F40E948E2B682F2C
:103A00008FE00E947A2680914D1190914E110E9474
:103A1000142A8F3F21F484E592E00E949D22159A9A
:103A200088EE93E00E94FE22169881E090E00E94CA
:103A3000FE22169A84E690E00E94FE22F8944098B6
:103A400081E08EBD0DB407FEFDCF409A82EE92E07C
:103A50009093511180935011409881E18EBD0DB427
:103A600007FEFDCF82E08EBD0DB407FEFDCF82EED6
:103A70008EBD0DB407FEFDCF409A409882E18EBD09
:103A80000DB407FEFDCF85E08EBD0DB407FEFDCF62
:103A90001EBC0DB407FEFDCF409A40988CE18EBD50
:103AA0000DB407FEFDCF1EBC0DB407FEFDCF8FE7A2
:103AB0008EBD0DB407FEFDCF409A409889E18EBDC2
:103AC0000DB407FEFDCF81E08EBD0DB407FEFDCF26
:103AD00084EC8EBD0DB407FEFDCF409A409887E17F
:103AE0008EBD0DB407FEFDCF8AE18EBD0DB407FE7D
:103AF000FDCF86E58EBD0DB407FEFDCF409A84EF65
:103B000091E00E94ED33409888EE8EBD0DB407FE23
:103B1000FDCF80E88EBD0DB407FEFDCFFE013196CE
:103B20009E012D5F3F4F80818EBD0DB407FEFDCFFE
:103B30003196E217F307B9F7409A84EF91E00E94BB
:103B4000ED3378948D2D0E941A13789410935311AD
:103B50000093521189819A81909357118093561145
:103B6000F0925911E09258111092541110925A117A
:103B70000E94391380914D1190914E110E94C228DC
:103B80008F3F39F487E292E00E949D2282E00E94FA
:103B9000B52510925D1110924F1110925E11229670
:103BA0000FB6F894DEBF0FBECDBFDF91CF911F914E
:103BB0000F91FF90EF90DF9008952091E611809192
:103BC0006411281781F0E22FFF27EB59FE4EE081A8
:103BD000822F8F5F8093E611803811F41092E611E6
:103BE0008E2F992708958091C80087FFFCCF809180
:103BF000C8008F778093C8008091CE0099270895E0
:103C0000882351F48091C000992787FD90958827DB
:103C1000990F881F99270895813019F080E090E06E
:103C2000089520E030E09091E6118091641198179A
:103C300011F021E030E0C901089585B7806185BFAA
:103C400086E084B987E085B981E087B988B98CE3DB
:103C50008DB98BE08AB98EE38EB988E781B980E4AB
:103C600082B908950E941D1E80E58CBD81E08DBD46
:103C700008958F3F09F47FC0482F55279A01277078
:103C8000307022303105A9F12330310544F421157B
:103C9000310589F02130310509F06DC01CC0243098
:103CA000310509F446C0243031059CF12530310539
:103CB00009F061C04EC022B1A3E056954795AA9580
:103CC000E1F781E090E002C0880F991F4A95E2F782
:103CD000282B22B94DC085B1F3E056954795FA954A
:103CE000E1F702C0220F331F4A95E2F7822B85B914
:103CF0003FC028B1E3E056954795EA95E1F781E0AA
:103D000090E002C0880F991F4A95E2F7282B28B946
:103D10002FC02BB173E0569547957A95E1F781E076
:103D200090E002C0880F991F4A95E2F7282B2BB923
:103D30001FC02EB163E0569547956A95E1F781E083
:103D400090E002C0880F991F4A95E2F7282B2EB900
:103D50000FC021B333E0569547953A95E1F781E0DE
:103D600090E002C0880F991F4A95E2F7282B21BBEB
:103D700081E090E008958FEF9FEF08958F3F09F461
:103D800086C0482F55279A012770307022303105A0
:103D9000C1F12330310544F42115310589F021307A
:103DA000310509F074C01DC02430310509F44BC041
:103DB00024303105BCF12530310509F068C054C00C
:103DC00022B173E0569547957A95E1F781E090E04E
:103DD00002C0880F991F4A95E2F78095822382B925
:103DE00053C095B163E0569547956A95E1F702C0D7
:103DF000220F331F4A95E2F7822F8095892385B9D8
:103E000043C028B133E0569547953A95E1F781E0F4
:103E100090E002C0880F991F4A95E2F780958223AF
:103E200088B932C02BB193E0569547959A95E1F742
:103E300081E090E002C0880F991F4A95E2F78095D3
:103E400082238BB921C02EB183E0569547958A9580
:103E5000E1F781E090E002C0880F991F4A95E2F7F0
:103E6000809582238EB910C021B3B3E05695479553
:103E7000BA95E1F781E090E002C0880F991F4A955A
:103E8000E2F78095822381BB81E090E008958FEF77
:103E90009FEF08958F3FA9F1282F3327C90187701D
:103EA000907082309105A9F0833091052CF4009731
:103EB00061F0019731F50BC08430910571F08430C9
:103EC00091054CF00597E9F40AC080B109C083B1AF
:103ED00007C086B105C089B103C08CB101C08FB1E4
:103EE0009927E3E036952795EA95E1F702C0959585
:103EF00087952A95E2F7992787FD909581709070B4
:103F000008958FEF9FEF08958F3F09F403C1282F85
:103F10003327A901477050704230510509F45CC045
:103F20004330510544F44115510591F0413051059C
:103F300009F0F0C034C04430510509F49BC044304E
:103F400051050CF470C04530510509F0E3C0B9C00B
:103F500080B1A90173E0569547957A95E1F79927C5
:103F6000042E02C0959587950A94E2F780FD0BC058
:103F700022B181E090E002C0880F991F4A95E2F7D4
:103F8000282B22B9C4C022B181E090E002C0880F82
:103F9000991F4A95E2F78095822382B9B8C083B110
:103FA00063E0369527956A95E1F79927022E02C0BE
:103FB000959587950A94E2F702C0440F551F2A95FC
:103FC000E2F780FD03C085B1842B04C095B1842F36
:103FD0008095892385B99BC086B1A90193E0569548
:103FE00047959A95E1F79927042E02C095958795F4
:103FF0000A94E2F780FD0BC028B181E090E002C096
:10400000880F991F4A95E2F7282B28B980C028B15C
:1040100081E090E002C0880F991F4A95E2F78095F1
:10402000822388B974C089B1A901B3E05695479538
:10403000BA95E1F79927042E02C0959587950A94C1
:10404000E2F780FD0BC02BB181E090E002C0880F49
:10405000991F4A95E2F7282B2BB959C02BB181E063
:1040600090E002C0880F991F4A95E2F7809582235D
:104070008BB94DC08CB1A901A3E056954795AA957F
:10408000E1F79927042E02C0959587950A94E2F7E7
:1040900080FD0BC02EB181E090E002C0880F991F17
:1040A0004A95E2F7282B2EB932C02EB181E090E07C
:1040B00002C0880F991F4A95E2F7809582238EB936
:1040C00026C08FB1A901F3E056954795FA95E1F71F
:1040D0009927042E02C0959587950A94E2F780FDF2
:1040E0000BC021B381E090E002C0880F991F4A9570
:1040F000E2F7282B21BB0BC021B381E090E002C086
:10410000880F991F4A95E2F78095822381BB81E051
:1041100090E008958FEF9FEF08958F3F09F412C14B
:10412000482F5527662309F090C0CA018770907008
:104130008230910509F43EC0833091053CF400972C
:1041400089F08130910509F0FDC021C084309105CE
:1041500009F454C0843091050CF43EC0059709F071
:10416000F1C05EC031B1B3E056954795BA95E1F71D
:1041700081E090E002C0880F991F4A95E2F7282F4E
:104180002095232321B922B1822B82B9D8C024B132
:10419000A3E056954795AA95E1F702C0880F991FAD
:1041A0004A95E2F7982F8095822384B985B1982BA0
:1041B00095B9C5C037B1F3E056954795FA95E1F743
:1041C00081E090E002C0880F991F4A95E2F7282FFE
:1041D0002095232327B935C03AB1E3E0569547959A
:1041E000EA95E1F781E090E002C0880F991F4A95B7
:1041F000E2F7282F209523232AB923C03DB173E08D
:10420000569547957A95E1F781E090E002C0880FD6
:10421000991F4A95E2F7282F209523232DB911C025
:1042200030B363E0569547956A95E1F781E090E0F9
:1042300002C0880F991F4A95E2F7282F2095232363
:1042400020BB25B1822B85B97AC09A0127703070C6
:1042500022303105A9F12330310544F4211531050F
:1042600089F02130310509F06DC01CC024303105C2
:1042700009F446C0243031059CF12530310509F0A0
:1042800061C04EC021B133E0569547953A95E1F7AC
:1042900081E090E002C0880F991F4A95E2F7282B31
:1042A00021B94DC084B193E0569547959A95E1F7B1
:1042B00002C0220F331F4A95E2F7822B84B93FC018
:1042C00027B1B3E056954795BA95E1F781E090E0C4
:1042D00002C0880F991F4A95E2F7282B27B92FC0F3
:1042E0002AB1A3E056954795AA95E1F781E090E0C1
:1042F00002C0880F991F4A95E2F7282B2AB91FC0E0
:104300002DB1F3E056954795FA95E1F781E090E0FD
:1043100002C0880F991F4A95E2F7282B2DB90FC0CC
:1043200020B3E3E056954795EA95E1F781E090E008
:1043300002C0880F991F4A95E2F7282B20BB81E025
:1043400090E008958FEF9FEF0895882319F08FEF85
:104350009FEF089580B1992787FD9095809590955E
:104360008827990F881F99270895009711F484E1F1
:1043700009C08130910511F48CE104C082309105AF
:1043800031F484E20E94841F81E090E00895039755
:1043900019F08FEF9FEF08958CE20E94841F81E057
:1043A00090E00895009711F484E109C081309105EF
:1043B00011F48CE104C08230910531F484E20E9452
:1043C000391E81E090E00895039719F08FEF9FEF79
:1043D00008958CE20E94391E81E090E008950097D4
:1043E00011F484E109C08130910511F48CE104C01D
:1043F0008230910531F484E20E94BE1E81E090E09B
:104400000895039719F08FEF9FEF08958CE20E94B3
:10441000BE1E81E090E00895882319F085B78F7E55
:1044200002C085B7806185BF81E090E00895982F34
:104430008091C00085FFFCCF8091C0008F7D80936C
:10444000C0009093C6000895982F8091C80085FF02
:10445000FCCF9093CE000895292F33272093C500D9
:104460008093C40086E08093C200E1ECF0E080819C
:104470008B7F8083A0ECB0E08C9182608C938081F4
:10448000886180830895292F33272093CD0080935E
:10449000CC0086E08093CA00E9ECF0E080818B7F5D
:1044A0008083A8ECB0E08C9182608C9380818861DD
:1044B000808308958091C00087FFFCCF8091C00069
:1044C0008F778093C0008091C600992708950E943D
:1044D00043226DED7DE184E292E20E94F0399093F7
:1044E000E2128093E1126DED7DE184E292E20E949E
:1044F000F0399093E0128093DF120E94812780931D
:10450000E5118F3F19F48EE00E9481261092E6118A
:10451000109264118091C90080688093C900089549
:104520008091E5118F3F19F48EE00E9481268091E1
:10453000E511992787FD90950895CF93DF93EC01BE
:1045400007C06091E1127091E21299270E94813AAE
:10455000FE01219684918823A1F7DF91CF910895E0
:104560001F920F920FB60F9211242F933F934F93E8
:104570005F936F937F938F939F93AF93BF93EF93CB
:10458000FF938091C9008F778093C9008091C80004
:1045900087FFFCCF8091C8008F778093C8009091EF
:1045A000CE0080916411E82FFF27EB59FE4E9083D7
:1045B0008F5F80936411803811F4109264118091A0
:1045C000E5110E9416298091C8008F778093C8005A
:1045D0008091C90080688093C900FF91EF91BF91DD
:1045E000AF919F918F917F916F915F914F913F918B
:1045F0002F910F900FBE0F901F9018950000000094
:10460000000000000197D1F70895FC01A7E0B0E099
:104610000E943B3D802D808381E090E00895FC0165
:104620008081A7E0B0E0082E0E94433D81E090E049
:104630000895DC010E943B3D802D99270895FC01DF
:10464000A0E0B0E00E943B3D402D4383A1E0B0E0FC
:104650000E943B3D802D8283A2E0B0E00E943B3D62
:10466000302D3183A3E0B0E00E943B3D902D90833C
:10467000A4E0B0E00E943B3D202D830F840F890F02
:10468000281719F481E090E008958FEF9FEF0895C7
:10469000FC01A5E0B0E00E943B3D802D808381E0DD
:1046A00090E00895FC01A6E0B0E00E943B3D802D23
:1046B000808381E090E00895AC0120E030E0D901F2
:1046C00018960E943B3D802DFA01E20FF31F808374
:1046D0002F5F3F4F2031310591F781E090E0089541
:1046E000DC01062E0E94433D0895FC018081A6E076
:1046F000B0E0082E0E94433D81E090E00895AC01B7
:1047000020E030E0D9011896FA01E20FF31F808112
:10471000082E0E94433D2F5F3F4F2031310591F716
:1047200081E090E00895F89408957894089585E6DE
:1047300090E008950E94DC300895EF92FF920F936D
:104740001F93CF93DF93EC018B017A01898582302F
:1047500021F080919F12888301C0188280919F125E
:10476000853020F060E087E00E947A2689858230DB
:1047700029F080919F128F5F80939F1280919F12EA
:10478000882319F481E080939F128881992787FDFF
:104790009095FC0145E0EE0FFF1F4A95E1F7E80F09
:1047A000F91FE751FE4E118300838881992787FD09
:1047B0009095FC0135E0EE0FFF1F3A95E1F7E80F09
:1047C000F91FE751FE4E888582878881992787FDEA
:1047D0009095FC0125E0EE0FFF1F2A95E1F7E80F09
:1047E000F91FE751FE4E83E081872881822F9927A8
:1047F00087FD9095FC0105E0EE0FFF1F0A95E1F79C
:10480000E80FF91FE751FE4E20878881992787FD21
:104810009095FC0115E0EE0FFF1F1A95E1F7E80FE8
:10482000F91FE751FE4E15820881112707FD1095EB
:104830002B853C854D855E856F85788989899A8928
:104840000E94012FF801B5E0EE0FFF1FBA95E1F7C6
:10485000E00FF11FE751FE4E948F838F08811127DF
:1048600007FD10952B8D3C8D4D8D5E8D6F8D78A144
:1048700089A19AA10E94012FF801A5E0EE0FFF1F68
:10488000AA95E1F7E00FF11FE751FE4E968B858B5D
:104890008881992787FD9095FC0175E0EE0FFF1F39
:1048A0007A95E1F7E80FF91FE751FE4E8589968961
:1048B000238D348D820F931F908F878B0881112752
:1048C00007FD10952B893C894D895E896F89788D0C
:1048D000898D9A8D0E94012FF80165E0EE0FFF1F70
:1048E0006A95E1F7E00FF11FE751FE4E968F858F35
:1048F0008881992787FD9095FC0155E0EE0FFF1FF9
:104900005A95E1F7E80FF91FE751FE4E858D968D18
:10491000928F818F8881992787FD9095FC0145E0D2
:10492000EE0FFF1F4A95E1F7E80FF91FE751FE4E22
:1049300081E090E090A3878F8881992787FD9095EB
:10494000FC0135E0EE0FFF1F3A95E1F7E80FF91F84
:10495000E751FE4EF382E2828881992787FD909588
:10496000FC0125E0EE0FFF1F2A95E1F7E80FF91F84
:10497000E751FE4E81E0848781E090E0DF91CF91A6
:104980001F910F91FF90EF9008958F929F92AF9299
:10499000BF92CF92DF92EF92FF920F931F93CF932C
:1049A000DF9361EFA62E61E1B62ECC24DD24450114
:1049B000EC2CF501F080FFEFFF1691F0E40100E030
:1049C00010E0E01639F08881F81621F46F2D85E0AB
:1049D0000E947A260F5F1F4FA1960530110589F7B7
:1049E0000894C11CD11C81E290E0A80EB91E95E08C
:1049F000C916D104E9F60E94A32A282F332727FDE0
:104A00003095F90155E0EE0FFF1F5A95E1F7E20FDF
:104A1000F31FE751FE4E32853093B21221E282023B
:104A2000C001112487519E4E9093B1128093B01211
:104A30009093A2128093A1123093A3120E94DB37AD
:104A40000E94C1370E94FF37FFCF0F931F93CF9370
:104A5000DF93CDB7DEB7A3970FB6F894DEBF0FBED6
:104A6000CDBF0E9481278093A0128F3F21F460E088
:104A70008EE00E947A260E943237882321F460E07B
:104A800086E00E947A261092A3121092B112109220
:104A9000B0121092A2121092A1121092B2121092A1
:104AA000AF12E0E9F2E18FEF808382838183339656
:104AB00022E1EF39F207B9F7E9EEF1E183E6828707
:104AC0008FEF8087B19682E1EE38F807B9F7E3EB14
:104AD000F2E1CF01059694838383F783E683FC019B
:104AE00022E18C3C9207A9F71092B5121092B412F1
:104AF0001092D0121092CF121092A6121092A512FC
:104B000049979093E8118093E71162EC70E38E016E
:104B10000F5F1F4FC8010E947F3740E850E06CE8EC
:104B200078E0C8010E94E03785E580938C081986FB
:104B30001C8E1D8E1E8E1F8E18A219A21AA21BA2D9
:104B400091E0988782E08A879B87C8010E948C2D1C
:104B5000A3960FB6F894DEBF0FBECDBFDF91CF9105
:104B60001F910F910895F894FFCFE091B012F0914A
:104B7000B11284870895E091B012F091B11284854A
:104B800099270895DC01FB0180918508882319F499
:104B900080E090E008958083809153048C9381E0BD
:104BA00090E008951F9380918508882309F49EC0A2
:104BB0000E9493230E9493238CE394E00E949D2201
:104BC0008091530499279F938F938BED93E09F934C
:104BD0008F930E94AE3A88E394E00E949D220F904A
:104BE0000F900F900F9080918508843110F01092F3
:104BF0008508809185089927AA27BB27FC01319752
:104C0000E231F105F0F5EA59FF4FEE0FFF1F059075
:104C1000F491E02D099481E194E035C08DEF93E0AB
:104C200032C087EE93E02FC08CEC93E02CC086EB73
:104C300093E029C08EE993E026C08BE893E023C07F
:104C400088E793E020C08AE593E01DC085E393E008
:104C50001AC089E293E017C08EE093E014C08FEF92
:104C600092E011C08EEE92E00EC08AED92E00BC091
:104C70008AEB92E008C082EA92E005C087E892E001
:104C800002C080E892E00E949D226091E112709142
:104C9000E2128DE090E00E94813A6091E112709101
:104CA000E2128AE090E00E94813A82E090E00E9465
:104CB000EF2183E090E00E94D22110E088EE93E0A3
:104CC0000E94ED331F5F1436C9F783E090E00E9425
:104CD000EF2182E090E00E94D22110E088EE93E084
:104CE0000E94ED331F5F1436C9F7DFCF80E090E0FC
:104CF0001F91089580938508609353040E94D225E4
:104D0000089580938508E091B012F091B1128085EA
:104D1000809353040E94D2250895992787FD90958A
:104D2000FC0125E0EE0FFF1F2A95E1F7E80FF91FC0
:104D3000E751FE4EA281B3818C91853529F085E53E
:104D40008C938FEF9FEF08958081918180509242E4
:104D500018F481E090E0089582E10E9481268FEFAF
:104D60009FEF08956F927F928F929F92AF92BF9222
:104D7000CF92DF92EF92FF920F931F93CF93DF9327
:104D800088E494E00E949D22E091B012F091B1126B
:104D90008085992787FD90959F938F938EED93E063
:104DA0009F938F930E94AE3AE091B012F091B112AE
:104DB000028113811F930F9387EE93E09F938F934C
:104DC0000E94AE3AF801808199279F938F9354EF08
:104DD000C52E53E0D52EDF92CF920E94AE3AE091DD
:104DE000B012F091B112808191819F938F9341E035
:104DF000E42E44E0F42EFF92EF920E94AE3A8091AE
:104E0000B0129091B1129F938F930BE014E01F9317
:104E10000F930E94AE3AC9EED1E1AA24BB248DB70C
:104E20009EB744960FB6F8949EBF0FBE8DBF3BE170
:104E3000632E34E0732E4601670178010A811B81DD
:104E40001F930F93BF92AF927F926F920E94AE3AE0
:104E5000F801808199279F938F939F928F920E9450
:104E6000AE3A888199819F938F93DF92CF920E946F
:104E7000AE3ADF93CF93FF92EF920E94AE3A08943E
:104E8000A11CB11CA1968DB79EB742960FB6F8949F
:104E90009EBF0FBE8DBF95E0A916B10479F6DF91D4
:104EA000CF911F910F91FF90EF90DF90CF90BF9027
:104EB000AF909F908F907F906F900895CF93DF93E6
:104EC000E091B012F091B112C281D3818881853511
:104ED00039F00E94B22681E00E94812685E5888310
:104EE000E091B012F091B112808191818050924294
:104EF00028F00E94B22682E10E948126DF91CF91A4
:104F000008954091770650917806609179067091E6
:104F10007A0620E030E0DB01CA01022E04C0B6951B
:104F2000A795979587950A94D2F781709070892BF1
:104F3000E9F481E090E0A0E0B0E0022E04C0880F28
:104F4000991FAA1FBB1F0A94D2F7842B952BA62B5F
:104F5000B72B8093770690937806A0937906B09349
:104F60007A06822F992787FD909508952F5F3F4FEE
:104F70002032310581F68FEF9FEF0895E091B01256
:104F8000F091B11265857685878590890895EF92B5
:104F9000FF920F931F9321E030E040E050E004C007
:104FA000220F331F441F551F8A95D2F7E091B0128C
:104FB000F091B112E584F68407851089DA01C90100
:104FC0008E219F21A023B1230097A105B10519F4DB
:104FD0008FEF9FEF1AC02095309540955095E222B3
:104FE000F32204231523E586F6860787108B818933
:104FF0009289A389B48982239323A423B523818B27
:10500000928BA38BB48B81E090E01F910F91FF9066
:10501000EF900895682F772767FD70958091770648
:1050200090917806A0917906B0917A06062E04C078
:10503000B695A795979587950A94D2F78170907049
:10504000892B19F48FEF9FEF0895E091B012F09142
:10505000B11221E030E040E050E004C0220F331FE5
:10506000441F551F6A95D2F785859685A785B08917
:10507000822B932BA42BB52B85879687A787B08B84
:1050800081E090E00895482F2091AF12243018F06D
:1050900080E090E00895E0E9F2E130E080818F3F28
:1050A00021F03F5F33963530C9F7832F9927FC01F4
:1050B000EE0FFF1FE80FF91FE057FD4E42834083BC
:1050C00061832F5F2093AF1283E0389FC0011124CA
:1050D00080579D4E089540E952E120E030E04817A6
:1050E000590729F4822F992787FD909508952F5FFE
:1050F0003F4F4D5F5F4F2530310589F78FEF9FEFB1
:1051000008950E946B288F3F11F481E003C0853021
:1051100031F482E00E94B5258FEF9FEF0895992723
:1051200087FD9095FC01EE0FFF1FE80FF91FE05778
:10513000FD4E8FEF8083828381838091AF128150F7
:105140008093AF1281E090E008950E946B288F3F1A
:1051500011F481E003C0853031F482E00E94B5256E
:105160008FEF9FEF0895992787FD9095FC01EE0F33
:10517000FF1FE80FF91FE057FD4E8281992787FD39
:10518000909508951F93CF93DF930E946B28182F5B
:105190008F3F11F481E003C0853031F482E00E943A
:1051A000B5258FEF9FEF3EC0992787FD9095EC01C5
:1051B000CC0FDD1FC80FD91FC057DD4E9A818881E3
:1051C000981774F50E9493238A818F5F8A83E091F8
:1051D000B012F091B1121482E0EFF1E1212F3327E8
:1051E00027FD3095432F532F8081823091F48285A3
:1051F0009385A485B58582179307A407B50749F45D
:1052000083E08283178616861082128613861486A0
:105210001586B19682E1E539F80731F70E949523AA
:1052200081E090E0DF91CF911F910895DF92EF929E
:10523000FF920F931F93F1E0EF2EF12C012D112D12
:1052400004C0EE0CFF1C001F111F8A95D2F780913D
:10525000770690917806A0917906B0917A068E2112
:105260009F21A023B1230097A105B10511F481E08E
:1052700043C00E949323E0EFF1E1DD24808181307F
:10528000B9F482859385A485B5858E219F21A023BD
:10529000B1230097A105B10559F083E082831786F9
:1052A00016861082E286F38604871587DD24D39460
:1052B00080818230A1F482859385A485B5858E1581
:1052C0009F05A007B10759F483E0828317861686ED
:1052D00010821286138614861586DD24D394B19627
:1052E00082E1E539F80751F60E949523DD2019F097
:1052F00081E090E005C082E00E94B5258FEF9FEF2E
:105300001F910F91FF90EF90DF900895EF92FF9221
:105310000F931F93CF93DF93C82FDD27C7FDD09541
:10532000A1E0EA2EF12C012D112D0C2E04C0EE0C63
:10533000FF1C001F111F0A94D2F7809177069091ED
:105340007806A0917906B0917A068E219F21A0233C
:10535000B1230097A105B10519F48FEF9FEF5DC050
:105360000E949323E9EEF1E1A80197012095309581
:105370004095509580858F3F41F185859685A7851D
:10538000B0898E159F05A007B10739F4118A128ADA
:10539000138A148A178283E0818785859685A7857D
:1053A000B08982239323A423B52385879687A78773
:1053B000B08B81899289A389B48982239323A42302
:1053C000B523818B928BA38BB48BB19682E1EE389F
:1053D000F80781F62EEF3FEF4FEF5FEF04C0220F8B
:1053E000331F441F551FCA95D2F7809177069091BD
:1053F0007806A0917906B0917A0682239323A4239C
:10540000B5238093770690937806A0937906B0939E
:105410007A060E94952381E090E0DF91CF911F9161
:105420000F91FF90EF9008951F93CF93DF930E9409
:105430006B28182F8F3F11F481E003C0853031F4C1
:1054400082E00E94B5258FEF9FEF3EC00E9493231C
:10545000812F992787FD9095EC01CC0FDD1FC80F98
:10546000D91FC057DD4E8A818823D9F4E091B0124C
:10547000F091B112878182608783E091B012F09140
:10548000B112812F992787FD9095A92FB92F818B74
:10549000928BA38BB48B0E94952380E090E00E94B6
:1054A000B92C8A8181508A83E091B012F091B112B7
:1054B00089818387E091B012F091B11281E08483F9
:1054C0000E94952381E090E0DF91CF911F91089594
:1054D0009B01AC01E091B012F091B11285859685E7
:1054E000A785B08982239323A423B5230097A10520
:1054F000B10529F460E070E080E090E00895218B30
:10550000328B438B548B81E087830090A01204C0C0
:1055100056954795379527950A94D2F7C90181701A
:105520009070892B19F00E94542C04C080E090E008
:105530000E94B92CE091B012F091B1126189728988
:10554000838994890895E091A512F091A612808133
:1055500099270895E091A512F091A61203C0038047
:10556000F481E02D3097D9F70895CF93DF93482F3A
:10557000C091E711D091E811209709F47AC0A09169
:10558000A512B091A6121097B9F1992787FD9095B1
:105590009C0165E0220F331F6A95E1F7280F391F40
:1055A00027513E4E8C919927BC0155E0660F771F1D
:1055B0005A95E1F7680F791F67517E4EFB01848190
:1055C000882329F09385F90182859817A8F0F901BD
:1055D0008481882331F0FB019285F9018385981736
:1055E00058F0FB019285F9018285981728F0FD019A
:1055F000A381B4811097B1F64883E091E711F0914F
:10560000E811238134813093E8112093E7118091D0
:10561000A5129091A612A817B907A1F4109731F01E
:10562000BC83AB831A821982FD0105C01C821B82D8
:105630001A821982F901D283C183D093A612C09332
:10564000A51217C0FD0181819281A217B30751F005
:105650009A838983BC83AB8381819281FC01D4834B
:10566000C38304C01C821B829A838983FD01D28379
:10567000C183DF91CF910895CF93DF93A091A512BD
:10568000B091A612109709F446C0482F552747FD40
:1056900050958C9199278417950769F4ED01EB815A
:1056A000FC81F093A612E093A5121282118216C01B
:1056B000D901232B81F18C919927FD01238134811C
:1056C00084179507A9F7C181D2813C832B838381FD
:1056D0009481009719F0FC01D283C183E091E71116
:1056E000F091E811309741F4B093E811A093E711DD
:1056F000ED011C821B8209C0ED01FC83EB83B283A8
:10570000A183B093E811A093E711E091E711F09124
:10571000E81112821182DF91CF910895E091B012C9
:10572000F091B1128085992708950E947437E09115
:10573000B012F091B11285818823B9F70895FF92D4
:105740000F931F93CF93DF93CDB7DEB728970FB694
:10575000F894DEBF0FBECDBF29833A834B835C83B1
:105760006D837E838F8398870E945E270E94932398
:10577000E091B012F091B11281E0858381E090E078
:1057800090A3878F0E94B334F82E29813A814B81F0
:105790005C816D817E818F8198850E94012FE091CF
:1057A000B012F091B1120F2D1127800F911F968B1F
:1057B000858B87EF8F1570F00E943F340E5F1F4F6F
:1057C00099278017910734F08F2D8E5F8093F51005
:1057D0000E9444340E9495230E94952B81E090E022
:1057E00028960FB6F894DEBF0FBECDBFDF91CF91E4
:1057F0001F910F91FF9008958F929F92AF92BF9249
:10580000CF92DF92EF92FF920F931F93CF93DF938C
:10581000CDB7DEB760970FB6F894DEBF0FBECDBF31
:1058200029873A874B875C876D877E878F87988B20
:10583000CE0101960E94673089809A80AB80BC803F
:10584000CD80DE80EF80F88409851A852B853C8524
:105850004D855E856F857889CE0109960E94E22D7F
:10586000882319F48FEF9FEF0CC029853A854B856B
:105870005C856D857E858F8598890E949F2B81E050
:1058800090E060960FB6F894DEBF0FBECDBFDF91FB
:10589000CF911F910F91FF90EF90DF90CF90BF902D
:1058A000AF909F908F9008951F930E949323E09153
:1058B000B012F091B11281E0858386830E94B334E7
:1058C000182F883F80F40E943F34212F33272E5F0A
:1058D0003F4F99278217930734F0812F8E5F809373
:1058E000F5100E9444340E9495230E94952B81E07C
:1058F00090E01F9108951F93CF93DF93CDB7DEB74C
:1059000028970FB6F894DEBF0FBECDBF29833A8328
:105910004B835C836D837E838F8398870E94932360
:105920000E94B334182F29813A814B815C816D81AB
:105930007E818F8198850E94012F8330910518F414
:105940008FEF9FEF0CC0E091B012F091B112810F78
:10595000911D968B858B0E94952381E090E028967F
:105960000FB6F894DEBF0FBECDBFDF91CF911F9170
:1059700008950F931F938C010E949323E091B0121E
:10598000F091B11281E08583168B058B0E94B334B0
:10599000082F883F80F40E943F34202F33272E5F4A
:1059A0003F4F99278217930734F0802F8E5F8093A3
:1059B000F5100E9444340E9495230E94952B81E0AB
:1059C00090E01F910F910895FF920F931F93CF9333
:1059D000DF938C010E949323E091B012F091B112F9
:1059E00081E085830E94B334F82EE091B012F091EB
:1059F000B112C82FDD270C0F1D1F168B058B87EFEB
:105A00008F1568F00E943F34229699278C179D07C6
:105A100034F08F2D8E5F8093F5100E9444340E94E5
:105A200095230E94952B81E090E0DF91CF911F910B
:105A30000F91FF9008951F93CF93DF93EC010E9485
:105A40005E27209711F4C1E0D0E00E949323E091FB
:105A5000B012F091B11281E08583D0A3C78F0E946C
:105A6000B334182F883F80F40E943F34212F33270E
:105A70002E5F3F4F99278217930734F0812F8E5F57
:105A80008093F5100E9444340E9495230E94952B28
:105A900081E090E0DF91CF911F9108951F930E94C4
:105AA0005E270E949323E091B012F091B11281E041
:105AB00090E090A3878F81E085830E94B334182FF4
:105AC000883F80F40E943F34212F33272E5F3F4FC1
:105AD00099278217930734F0812F8E5F8093F510FA
