:100000000C9437020C944E370C9456020C94560202
:100010000C9456020C9456020C9456020C94560200
:100020000C9456020C947C370C9456020C94560295
:100030000C9456020C942F350C9456020C942F35C8
:100040000C9456020C9462350C9456020C94560291
:100050000C9456020C9456020C9456020C945602C0
:100060000C9456020C9456020C9456020C945602B0
:100070000C9456020C9456020C9456020C945602A0
:100080000C946C350C9456020C9456020C94560247
:100090000C9428230C9456020C9456020C9456028D
:1000A0000C9456020C9456020C9456020C94560270
:1000B0000C9456020C9456020C9456020C94560260
:1000C0000C9456020C9456020C94560286268C26EA
:1000D0008F269226952698269E269B26A126A42624
:1000E000A726AD26B026B326B626AA2683268926BD
:1000F00043726561746520446F6E650D0A00455258
:10010000524F523A206372656174696E6720706164
:10011000636B6574207265636F7264207369676EC8
:10012000616C206661696C65640D0A0053746172CC
:1001300074696E672075702E2E2E0D0A00534C497F
:1001400050205258206572726F723A206E726B5F47
:100150007369676E616C5F72656769737465720D50
:100160000A00534C4950205258206572726F723AFF
:1001700020476574205369676E616C0D0A00534C0B
:100180004950205458204552524F523A202052652F
:100190006C65617365206F662073656D6170686F53
:1001A0007265206661696C65640D0A00534C4950A4
:1001B000205458204552524F523A202041636365E3
:1001C000737320746F2073656D6170686F72652042
:1001D0006661696C65640D0A0049534120455252BD
:1001E0004F523A206372656174696E67207478209B
:1001F0007369676E616C206661696C65640D0A00E5
:10020000495341204552524F523A206372656174FE
:10021000696E67207278207369676E616C20666111
:10022000696C65640D0A0043433234323020455214
:10023000524F523A202052656C65617365206F669B
:100240002073656D6170686F7265206661696C65A9
:10025000640D0A00434332343230204552524F522B
:100260003A202041636365737320746F2073656D5A
:100270006170686F7265206661696C65640D0A0063
:10028000554E4B4F574E004661696C656420746F44
:10029000206372656174652053656D6170686F726B
:1002A00065004661696C656420746F2063726561E6
:1002B0007465205369676E616C004B65726E656C86
:1002C0002066756E6374696F6E206E6F7420696D41
:1002D000706C656D656E7465640044657669636510
:1002E00020447269766572204572726F72005761A0
:1002F000746368646F67205265737461727400542C
:10030000696D6572204F766572666C6F7700556E09
:1003100068616E646C656420496E74657272757094
:100320007420566563746F72004C6F7720566F6C43
:1003300074616765004578747261205461736B2045
:10034000737461727465642C206973206E726B5FC4
:100350006366672E68206F6B3F0049646C65206F91
:1003600072204B65726E656C20537461636B204F15
:10037000766572666C6F7700556E6578706563742C
:1003800065642052657374617274004475706C69A1
:100390006361746564205461736B20494400536346
:1003A000686564756C6572204D6973736564205768
:1003B000616B657570005461736B20526573657273
:1003C00076652056696F6C6174656400526573656B
:1003D000727665204572726F7220696E2053636871
:1003E0006564756C657200496E76616C6964205352
:1003F0007461636B20506F696E7465720054617331
:100400006B20537461636B204F766572666C6F77F7
:1004100000537461636B20776173206E6F74206486
:100420006566696E6564206173206C617267652022
:10043000656E6F7567682100293A20002A4E524B7D
:10044000204552524F5228000D0A535441434B202D
:1004500044554D500D0A0045464765666700202B00
:100460002D2E303132333435363738396800112487
:100470001FBECFEFD1E2DEBFCDBF14E0A0E0B2E0FF
:10048000E0E9FBE700E00BBF02C007900D92A23A43
:10049000B107D9F713E1A2EAB4E001C01D92AB3570
:1004A000B107E1F70E94A8040C94C73D0C949A355B
:1004B0008091A406992787FD909508951F93CF9367
:1004C000DF93EC018C818E3609F07CC0E985E05326
:1004D000E0937508FF279B85DF01A353BB4F9C93D7
:1004E000E156F64F8081192F181B143148F180E036
:1004F00092E00E943D3B0E94A20AE0917508FF270E
:100500009F938F93FF93EF93812F99279F938F93BF
:10051000E156F64F808199279F938F938B8599277A
:100520009F938F938BE092E09F938F930E94263B43
:100530008DB79EB70C960FB6F8949EBF0FBE8DBFB9
:1005400090917508492F55278B85FA01E156F64F92
:100550008083DA01AF55BA4F2C91210F2C93382F9D
:100560003770283050F0FA01E551F94F269526955D
:1005700026958081280F20833C93FA01E551F94F9D
:1005800080818031A8F4FA0194E0EE0FFF1F9A9564
:10059000E1F7E80FF11DEB55F94F81E090E002C063
:1005A000880F991F3A95E2F72081282B20830AC0F3
:1005B000108281E08093A4069093B20480919D05FF
:1005C0000E948E29DF91CF911F910895EF92FF92A3
:1005D0001F9382EA93E0909300058093FF0484E7E1
:1005E00098E09093FC048093FB0485E797E0909358
:1005F000FE048093FD0482E08093020511E01093D5
:10060000010510930305109304058AE090E0A0E033
:10061000B0E08093050590930605A0930705B0937D
:1006200008051092090510920A0510920B05109208
:100630000C0510920D0510920E0510920F051092E8
:10064000100580E095E6ADECBDE180931105909337
:100650001205A0931305B09314051092150510927E
:100660001605109217051092180580E097E8A3E987
:10067000B3E08093190590931A05A0931B05B093DE
:100680001C058AEF94E00E94042E86EF94E090937C
:100690008209809381092CE7E22E29E0F22E40E0C6
:1006A00051E064EA75E0C7010E94583883E0809306
:1006B000840910938309109385091093860984E1B6
:1006C00090E0A0E0B0E08093870990938809A09320
:1006D0008909B0938A0910928B0910928C091092A3
:1006E0008D0910928E0910928F0910929009109224
:1006F0009109109292091092930910929409109204
:1007000095091092960910929709109298091092E3
:10071000990910929A0980E091EEA5EFB5E08093D7
:100720009B0990939C09A0939D09B0939E09C701D2
:100730000E94042E80EF90E00E9415231F91FF90ED
:10074000EF9008954F925F926F927F928F929F9257
:10075000AF92BF92CF92DF92EF92FF920F931F93CF
:10076000CF93DF93CDB7DEB722970FB6F894DEBFF5
:100770000FBECDBF0E94062C99279F938F938CE1CB
:1007800092E09F938F930E94263B8BE292E09F938F
:100790008F930E94263B83E090E00E94672281E0D5
:1007A00090E00E94672281E090E00E94A60A41E06A
:1007B00061E082E00E94091183E10E9423100E94FF
:1007C000CC0620E048E063E070E083E00E94F50999
:1007D00020E041E064E070E082E00E94F5090E94C0
:1007E000000B64E780E097E00E94F00A8DB79EB7A7
:1007F00006960FB6F8949EBF0FBE8DBF02C00E9432
:10080000C62D0E94E60A8823D1F383E392E09F93EA
:100810008F930E94263B0E94F92780939D050F909D
:100820000F908F3F09F453C0E0903604FF2462E03C
:10083000462E512C4C0E5D1E3E010894611C711C0D
:100840000DE718E050E4852E52E0952E4AE8A42EDC
:1008500044E0B42E3CEFC32E3FEFD32EC00ED11E8A
:100860008E2D0E94B11E0E94500B882331F0B201E0
:10087000C3010E94BB110E945E02FF2029F51F9256
:100880001F9281E090E09F938F939F928F921F938E
:100890000F930E94703BF80101900020E9F7EE579A
:1008A000F840EB5FE9839501A6016E2F84E090E0AC
:1008B0000E94D409FF24F3948DB79EB708960FB613
:1008C000F8949EBF0FBE8DBF0E94FA0FC9CF8EEF66
:1008D00090E00E941523E0912213F091231360858C
:1008E0008EE00E94F22622960FB6F894DEBF0FBE6D
:1008F000CDBFDF91CF911F910F91FF90EF90DF90CF
:10090000CF90BF90AF909F908F907F906F905F90AF
:100910004F9008950F931F930E945D080DE718E014
:100920006BE472E0C8010E94613AF8010190002076
:10093000E9F7E01BEC5F2AE834E004501040A8011E
:100940006E2F84E090E00E94D4091F910F910895CA
:10095000CFEFD1E2DEBFCDBF0E94AA1E87E090E0BC
:100960000E94DF228CE291E00E9415230E949D25C7
:1009700080E090E00E944A2281E090E00E944A22BA
:1009800082E090E00E944A2283E090E00E944A22A6
:1009900020E030E040E050E060E070E080E090E097
:1009A0000E94682F0E94690B0E94E6020E943D256A
:1009B00080E090E00C94C73D80919D050E948228C4
:1009C0008091A406882379F461E070E080E090E0F3
:1009D00000909D0504C0660F771F881F991F0A9419
:1009E000D2F70E94E02A81E090E00895AF92BF9292
:1009F000CF92DF92FF920F931F93CF93DF9360917B
:100A000053137091541320E040E080915113909162
:100A100052130E947F060E94DC04F0902B0406ED26
:100A200016E0E80121975E01B0E5CB2EB2E0DB2EA7
:100A30008F2D0E94B11E8091B2048F5F8093D506E6
:100A40008150E82FFF27A4E0EE0FFF1FAA95E1F7E2
:100A5000EB55F94FD80181919AEA89278D9386E069
:100A6000A63EB807C1F7F50101900020E9F73197DC
:100A7000E55DF6406E2FCE010E942C061092A40672
:100A80008091B204282F3327F90174E0EE0FFF1F85
:100A90007A95E1F7EB55F94F80E011928F5F803145
:100AA000E1F780919E0590919F059F938F933F93CF
:100AB0002F93DF92CF920E94263B8F2D0E94361FEC
:100AC0000E94DC048DB79EB706960FB6F8949EBFC1
:100AD0000FBE8DBFADCF80915B02992787FD9095AA
:100AE00008958091A8099091A9090E94B63A992782
:100AF00008958F929F92AF92BF92CF92DF92EF9222
:100B0000FF920F931F93CF93DF93EC01862E0E94E9
:100B10000823D82E8FEFD81621F482E691E00E94A8
:100B200015238D2D0E9482288F3F71F48DE391E073
:100B30000E94152309C080915113909152130E9475
:100B4000B63A813C91F00CC081E0E82EF12C012DE9
:100B5000112D04C0EE0CFF1C001F111FDA94D2F7F8
:100B600081E00E94781E882331F757016801C8018F
:100B7000B7010E94E02A80915113909152130E9474
:100B8000B63A982E81EC981659F70E947105F82E06
:100B900010E000E02BC080915113909152130E94FD
:100BA000B63A803C19F08B3D59F015C0112341F144
:100BB0000F77901629F5812F992787FD909522C0F0
:100BC00081E00E94781E882321F4C601B5010E94AD
:100BD000E02A0E947105982E181540F41F1530F474
:100BE000FE01E10FF11D80831F5F080F81E00E946D
:100BF000781E882381F6C601B5010E94E02AF6CF4F
:100C00008FEF9FEFDF91CF911F910F91FF90EF90AA
:100C1000DF90CF90BF90AF909F908F9008951F93DB
:100C2000182F2091A209222369F0332788EE93E040
:100C3000AC01249FC001259F900D349F900D11247D
:100C40000E9465346091A3097091A409812F9927AE
:100C50000E94F93A1F910895FF920F931F93CF932B
:100C6000DF93EC01162F613810F083E03EC08091D5
:100C7000A5099091A6090E948C2A8F3F31F48CEA35
:100C800091E00E94152381E030C081EC0E940F06A4
:100C9000812F0E940F06FF2400E00EC08881803C57
:100CA00011F08B3D19F48BED0E940F0688810E9494
:100CB0000F068991080FF394F11681F7802F8F7733
:100CC0000E940F0680EC0E940F068091A50990916A
:100CD000A6090E943A298F3F19F081E090E009C0EF
:100CE0008EE791E00E94152382E00E942D268FEF6F
:100CF0009FEFDF91CF911F910F91FF9008959093F7
:100D0000A9098093A8097093A4096093A30940934B
:100D1000A7092093A2096FEF81E00E94BB2890935E
:100D2000A6098093A5098F5F9F4F31F40E94062C7E
:100D3000682F8FE00E94F22681E080935B0281E0C1
:100D400090E008958093A20408958091A2049927C9
:100D500008958091A204823069F0833018F48130C4
:100D600091F405C0833049F0843069F409C08CE502
:100D700092E00BC08FE792E008C085EA92E005C0E0
:100D800081ED92E002C081EF92E09F938F930E94E9
:100D9000263B0F900F900895ECEAF9E010827296CE
:100DA0008AE0E036F807D1F7E9E6FAE010827196BA
:100DB0008CE0E231F807D1F710924A110895CF93F1
:100DC000DF939C01ACEAB9E08C91882371F0ED01CE
:100DD0008C81813051F4E885F98581819281821777
:100DE000930719F481E090E007C05296EAE0A0363C
:100DF000BE0751F780E090E0DF91CF9108952F92E8
:100E00003F924F925F926F927F928F929F92AF929A
:100E1000BF92CF92DF92EF92FF920F931F93CF93E7
:100E2000DF93CDB7DEB72E970FB6F894DEBF0FBEB7
:100E3000CDBF69E170E00E94333D8983282F3327BD
:100E40003C872B8789010F5F1F4F21E030E040E096
:100E500050E060E070E080E090E00E94D239222E05
:100E6000332E442E552E662E772E882E992E3981BC
:100E70003F5F3A838091600A8B839091610A9C83E3
:100E8000E091620AED83F091630AFE832091640A87
:100E90002F833091650A38878091660A89879091FF
:100EA000670A9A8737C02B8122213C8133214D81EB
:100EB00044215E8155216F8166217885772189855E
:100EC00088219A859921E22FE32BE42BE52BE62B51
:100ED000E72BE82BE92B41F0EA818E2F99272B8510
:100EE0003C85821B930B64C001E0222D332D442DE1
:100EF000552D662D772D882D992D0E94D239222EC1
:100F0000332E442E552E662E772E882E992E3A811A
:100F10003F5F3A838A81893130F22224239433243B
:100F20004424552466247724882499241E861D860B
:100F3000AD852B8122213C8133214D8144215E816D
:100F400055216F81662178857721898588219A8549
:100F50009921E22FE32BE42BE52BE62BE72BE82B63
:100F6000E92B49F089E190E0EB85FC858E1B9F0B16
:100F70008A0F911D1DC02D853E852F5F3F4F3E87F7
:100F80002D8739813217A0F001E0222D332D442D19
:100F9000552D662D772D882D992D0E94D239222E20
:100FA000332E442E552E662E772E882E992EC0CFA6
:100FB0002E960FB6F894DEBF0FBECDBFDF91CF9156
:100FC0001F910F91FF90EF90DF90CF90BF90AF9067
:100FD0009F908F907F906F905F904F903F902F9059
:100FE0000895AF92BF92CF92DF92EF92FF920F934C
:100FF0001F93CF93DF935C01E7E8FCE082E1C82E0A
:101000008CE0D82E70E060E081818823D9F1808166
:101010008823C1F1858196818A159B0599F5662300
:1010200051F47481E601E384F484058516852781F3
:1010300030854185528564817617C8F0761709F5A9
:1010400087819085A185B28582179307A407B5078C
:1010500070F0281739074A075B0799F48385948550
:10106000A585B6858E159F05A007B10750F4E6014A
:10107000E384F48405851685278130854185528572
:10108000762F61E084E890E0C80ED91EEC57FF4F40
:1010900091E1EF3AF90709F0B7CF662311F4C0E008
:1010A000D0E0CE01DF91CF911F910F91FF90EF9093
:1010B000DF90CF90BF90AF900895FC01EA58FF4FAA
:1010C000108280914A11815080934A110895282FEF
:1010D000ECEAF9E090E08081882351F09F5F7296FE
:1010E0009A30C9F781E00E94A2068FEF9FEF089522
:1010F000892F9927880F991FFC0133E0EE0FFF1FFE
:101100003A95E1F7E80FF91FE455F64F81E0808347
:10111000718760874483208B80E090E008950F936F
:101120001F93CF93DF93EC01D80180914A118B304C
:1011300010F083E003C0443730F084E00E94A20640
:101140008FEF9FEF4CC0E8E8FCE000E010E080810A
:10115000882369F584E890E0F801E89F8001E99F21
:10116000100DF89F100D1124F801EE5EF34F40832F
:10117000E758FF4F6083349781E0819380833496F2
:10118000D183C0833397B183A0835527B901C801A8
:101190008D5E934F0E94583AC8018257934F0E9428
:1011A000DF3080914A118F5F80934A110BC0802FEE
:1011B0008F5F0F5F1F4FEC57FF4F0A30110539F655
:1011C0008A3019F081E090E00AC083E093E09F93B9
:1011D0008F930E94263B8FEF9FEF0F900F90DF9130
:1011E000CF911F910F9108958F929F92AF920F937D
:1011F0001F93CF93DF93CDB7DEB7CB01642F4A2D7A
:10120000F40183830A851B8594010E948F08992726
:1012100087FD9095DF91CF911F910F91AF909F9097
:101220008F9008956F927F928F92AF92CF92EF92AC
:101230000F931F93CF93DF93CDB7DEB728970FB6E9
:10124000F894DEBF0FBECDBF3C0109831A832B8308
:101250003C834D835E836F837887E9E6FAE010E094
:1012600040E020E030E0818192816816790699F4AF
:101270007F926F9285E193E09F938F930E94263B2C
:1012800081E1189FC00111248759954F0F900F904D
:101290000F900F904CC08081882311F4122F41E0F1
:1012A0002F5F3F4F719629313105E9F6442331F420
:1012B00082E00E94A20680E090E039C0812F992749
:1012C000DC0164E0AA0FBB1F6A95E1F7A80FB91F04
:1012D000A759B54FFD017282618281E08C939D0117
:1012E0002D5F3F4F898183838A81F90181838B81BF
:1012F00082838C8183838D8184838E8185838F819A
:10130000868388858783FD01E386C486AA2019F039
:10131000858580688587FD0186868D8987878E898A
:10132000808B81E1189FC00111248759954F289621
:101330000FB6F894DEBF0FBECDBFDF91CF911F91E6
:101340000F91EF90CF90AF908F907F906F90089516
:10135000482FECEAF9E020E030E08081882351F06A
:101360008089841739F482E1289FC00111248455B3
:10137000964F08952F5F3F4F72962A30310569F7D7
:10138000842F99279F938F9385E393E09F938F9367
:101390000E94263B80E090E00F900F900F900F90FE
:1013A00008950E94560B08958F929F92AF92CF920C
:1013B000EF920F933F932F934A01A62ECC24EE2455
:1013C00000E020E040E0BC0180E090E00E94F408F2
:1013D0000F900F908F3F11F40E94A9060F91EF908C
:1013E000CF90AF909F908F9008956F927F928F9241
:1013F0009F92AF92BF92CF92DF92EF92FF920F93A4
:101400001F93982ECB01742EA22E2EE3291548F49B
:101410008BE593E09F938F930E94263B0F900F9054
:1014200064C028E04217A1F01F921F928824CC24A8
:10143000EE2400E010E020E030E040E050E060E02A
:1014400070E00E941209BC010F900F90892B31F0BF
:10145000472D892D0E9467088F3F19F40E94A90625
:1014600044C0092D112721E030E040E050E060E069
:1014700070E080E090E00E94D239A22EB32EC42EFC
:10148000D52EE62EF72E082F192FE091600AF09145
:10149000610AA091620AB091630A9090640A8090F8
:1014A000650A7090660A6090670A2E2F2A293F2FDE
:1014B0003B294A2F4C295B2F5D29692D6E29782DF8
:1014C0007F29872D802B962D912B2093600A3093B6
:1014D000610A4093620A5093630A6093640A7093AE
:1014E000650A8093660A9093670A1F910F91FF9097
:1014F000EF90DF90CF90BF90AF909F908F907F90B4
:101500006F90089521E030E040E050E004C0220FE9
:10151000331F441F551F8A95D2F78091AD049091D7
:10152000AE04A091AF04B091B004822B932BA42BF6
:10153000B52B8093AD049093AE04A093AF04B09309
:10154000B00408958091C60499270895813019F058
:101550008330D9F531C083E18093A6118CE080936C
:10156000A71184E18093A81188E18093A91180E1FB
:101570008093AA1187E18093AB1182E18093AC1133
:1015800089E18093AD118EE08093AE1185E1809367
:10159000AF118BE08093B0118FE08093B11186E1A1
:1015A0008093B21181E18093B3118DE08093B411E7
:1015B0008AE18093B51108958FE08093A21184E1B0
:1015C0008093A31189E18093A411089580917808F4
:1015D000813019F481E090E008958FEF9FEF089536
:1015E000662359F0009749F09093B9048093B804AA
:1015F0006093B70481E090E008958FEF9FEF089526
:1016000082E0809378080895CF93DF93EC01E8851A
:10161000F985858587FF02C085EE01C081EE992797
:1016200087FD9095DF91CF910895882311F083E88D
:1016300001C083E0992787FD909508958F92AF921E
:10164000CF92EF920F93CF93DF93CDB7DEB7109287
:1016500085119AE090938C1110928D1180938E11C8
:1016600060938F11409390111092911120939811D3
:1016700000939911E0929A11C0929B11A0929C1133
:1016800080929D118A8580939E118B8580939F11F6
:10169000DF91CF910F91EF90CF90AF908F90089501
:1016A0008091F608992787FD909508951092F60885
:1016B0001092F7081092F8081092F9080895809196
:1016C000E606813019F481E090E008958FEF9FEFF6
:1016D00008950F931F9388E290E19093DD04809327
:1016E000DC0407ED14E040E850E06DE175E0C8016E
:1016F0000E94583884E18093DF0481E08093DE0407
:101700008093E0048093E1041092E2041092E304D9
:101710001092E4041092E50480E896E9A8E9B0E0AC
:101720008093E6049093E704A093E804B093E9045F
:101730001092EA041092EB041092EC041092ED0463
:101740001092EE041092EF041092F0041092F10443
:101750001092F2041092F3041092F4041092F50423
:101760001092F6041092F7041092F8041092F90403
:10177000C8010E94042E1F910F910895CF92DF920D
:10178000EF92FF920F931F93CF93DF93EE24FF24EA
:1017900083EBC82E84E0D82EE091B804F091B90410
:1017A00081E080836091C604C6010E941A1D0E94D8
:1017B0003D18109282118AEF0E94BC3480E00E9492
:1017C000A13400E012C00E942B35081771F00E946E
:1017D0002B35082F0894E11CF11C81E1E81687E203
:1017E000F80618F0EE24FF2405C00E94CB14182F31
:1017F000882349F30E9473340E942B35C82FDD27BC
:101800002496112371F006C00E942B359927C81722
:10181000D90738F060E880E00E94B015182F8823BF
:1018200099F30E942518113009F0B6CFE091B80461
:10183000F091B90492818091A005981709F0ACCF7E
:1018400081E090E0A0E0B0E08093F6089093F70884
:10185000A093F808B093F9088091761190917711D0
:101860002181820F911D909377118093761182E0F0
:1018700090E00E942D22609153137091541389E6D9
:1018800090E00E94F93A109382111092F60810929B
:10189000F7081092F8081092F9080E9496348AE02E
:1018A0000E94BC3487E00E94A13460E571E980E0C9
:1018B00090E00E94B0350E94A434E0912213F09190
:1018C00023138AE090E0968B858B80918211992773
:1018D000DF91CF911F910F91FF90EF90DF90CF900C
:1018E00008958F929F92AF92BF92CF92DF92EF9224
:1018F000FF920F931F93CF93DF93CDB7DEB721975E
:101900000FB6F894DEBF0FBECDBF8C015B0181E046
:101910008093C104F801A085B185FD018181928188
:101920000E94F1076C01892B69F4BF92AF9284E7A2
:1019300093E09F938F930E94263B0F900F900F9000
:101940000F90F2C18A2CA09271110894C11CD11C75
:10195000D092C004C092BF04D6018E916D018093D5
:10196000BE04C8010E94040B982EE091BF04F091C0
:10197000C0048083E091BF04F091C004809176118F
:10198000909177118183E091BF04F091C004809120
:10199000B10482830E94733460E875E280E090E0D5
:1019A0000E94B035E0902B048E2D0E94B11E409114
:1019B000C8045091C90460917211709173112EE79F
:1019C00031E18CEB94E00E94531A882341F1E5E762
:1019D000F0E0CE0EDF1ED6011C92EBE8FFEFCE0E3C
:1019E000DF1E8091A7049091A80401969093A8040B
:1019F0008093A7048E2D0E94361F83E090E00E9402
:101A00002D2280917E1190917F1120917211309141
:101A10007311821B930B90936D1180936C118091C5
:101A200074110E948E2997FE67C10E943D188E2D69
:101A30000E94B11E0E94733460E070E180E090E08B
:101A40000E94B0350E942B35898389818E5F8983FE
:101A50004DC00E942B359981981708F047C02091FE
:101A60007111822F9927A816B90651F48091B711E8
:101A70009091B81149969093B8118093B71114C002
:101A8000882D821B2091B7113091B811482F55270E
:101A900047FD5095181614F0275E3F4F240F351F51
:101AA0003093B8112093B7110E9425188E2D0E94F3
:101AB000361F609153137091541383E790E00E9496
:101AC000F93A8091AB049091AC0401969093AC04E8
:101AD0008093AB0487E790E0C80ED91ED601ED9144
:101AE000FC9189E89FEFC80ED91E39C00E94CB1423
:101AF000882309F4AECF0E942B35898389818E5FBC
:101B00008983F801A085B185FD01858587FF2CC0FB
:101B100014E02BC00E942B359981981730F581EA8B
:101B200093E09F938F930E94263B8091AB0490910A
:101B3000AC0401969093AC048093AB040E942B35C7
:101B40008093671187E790E0C80ED91ED601ED910A
:101B5000FC9189E89FEFC80ED91E0F900F90309727
:101B600009F4D7C060E0DAC012E0612F81E00E9482
:101B7000B015082F882371F2813009F4D2C060912A
:101B800053137091541386E690E00E94F93A8091C5
:101B9000AB049091AC0401969093AC048093AB0499
:101BA0008091A5049091A6049F938F9382EC93E07B
:101BB0009F938F930E94263B0F900F900F900F9052
:101BC0008E2D0E94361F013009F096C08091A90425
:101BD0009091AA0401969093AA048093A90410926C
:101BE000B8111092B711E091B804F091B904808156
:101BF0008093B61187FF80C081819927982F88270D
:101C000022813327822B932B90936F1180936E1137
:101C100080E090E00E942D22609153137091541344
:101C200081E690E00E94F93AA0906E11B0906F1199
:101C300080916C1190916D11A81AB90A82E3898381
:101C40000E942B35982E80903504882D0E94B11E5D
:101C5000B7FC30C0909267110E94963494E6E92E4A
:101C600099E1F92EC50164E679E10E94473D8B01B7
:101C70000F5F00937811C50164E679E10E94473D4A
:101C8000E81AF90AF0927D11E0927C110E947334F7
:101C900082E390E00E946534B70180E090E00E940A
:101CA000B035892D800F0E94A13484E690E00E9417
:101CB000653417C0609153137091541381E290E022
:101CC0000E94F93A0E9496340E947334662777275F
:101CD0006A197B0980E090E00E94B035892D0E944E
:101CE000A1340E94A4340E94733482E390E00E94E5
:101CF0006534882D0E94361FA7E7B0E0CA0EDB1EB0
:101D0000D601ED91FC9189E89FEFC80ED91E30975E
:101D100021F4C6010E945D0807C061E0C601099573
:101D200003C00E9425184CCF21960FB6F894DEBF51
:101D30000FBECDBFDF91CF911F910F91FF90EF901C
:101D4000DF90CF90BF90AF909F908F900895AF920B
:101D5000BF92CF92DF92EF920F931F93CF93DF93B7
:101D6000CDB7DEB721970FB6F894DEBF0FBECDBF5B
:101D70006091C60483EB94E00E941A1D0E943D18F6
:101D800000913504802F0E94B11E0E942B3589835B
:101D900089818C5F898317C00E942B3599819817A0
:101DA00090F4802F0E94361F0E942518802F0E94D9
:101DB000B11E802F0E94361F6091531370915413EF
:101DC00086E790E03DC00E94CB14882329F30E944F
:101DD0007B3490938411809383110E942B358983E7
:101DE00089818B5F898317C00E942B359981981751
:101DF00090F481EA93E09F938F930E94263B809119
:101E0000AB049091AC0401969093AC048093AB0426
:101E10000F900F90DFC060E880E00E94B015182F8F
:101E2000882311F3802F0E94361F0E94251811303D
:101E300009F4A3C0609153137091541382E690E0AB
:101E40000E94F93A8091AB049091AC040196909372
:101E5000AC048093AB04BEC08091A7049091A80409
:101E600001969093A8048093A70412FF02C083E810
:101E700001C083E08093B6118093ED088DEE98E069
:101E80009093D4048093D30412FF1EC06091531327
:101E9000709154138BE490E00E94F93A8091831181
:101EA000909184112091721130917311821B930BC8
:101EB00090936F1180936E11292F33272093EE0892
:101EC0008093EF0884E001C082E08093D204802FE9
:101ED0000E94B11E4091C8045091C90460917211D2
:101EE000709173112EE731E180ED94E00E94531A56
:101EF000802F0E94361F8091681190916911A81659
:101F0000B90679F4E091B804F091B90482816F01C7
:101F1000EE2400E020E040E0B50199270E94D109BD
:101F200059C0C5010E94DF06882391F02091B804B2
:101F30003091B90400E010E04AE050E060E070E069
:101F4000C5010E948F08BF92AF928FEC93E004C04E
:101F5000BF92AF9286EE93E09F938F930E94263BB1
:101F60001092F6081092F7081092F8081092F908EB
:101F70000F900F900F900F902DC08091A904909119
:101F8000AA0401969093AA048093A90481E090E0AA
:101F90000E942D22E091B804F091B9048381A82E0B
:101FA000BB24BF92AF928EE194E09F938F930E94E7
:101FB000263BE091B804F091B9041081809166113C
:101FC0000E948E290F900F900F900F9011230CF00C
:101FD00092CF42CF21960FB6F894DEBF0FBECDBF91
:101FE000DF91CF911F910F91EF90DF90CF90BF9035
:101FF000AF900895809166110E948228809174119B
:102000000E94822821E030E040E050E0CA01B9019E
:102010000090741104C0660F771F881F991F0A94DF
:10202000D2F70090661104C0220F331F441F551FC2
:102030000A94D2F7622B732B842B952B0E94E02AF3
:1020400081E090E008958093C6040E94441D0895A5
:10205000EF92FF920F931F93CF93DF931092780824
:102060000E94C62D809178088823D1F381E0809367
:102070007808E0902B0400E010E08E2D0E94B11E45
:102080008E2D0E94361F0E9473340E947B349093E1
:1020900073118093721180917611909177119093C2
:1020A00081118093801180917611909177118536FE
:1020B000910598F080917611909177118456904017
:1020C000909377118093761180916A1190916B11A2
:1020D000019690936B1180936A1120917611309143
:1020E000771180918211813059F5C90169E170E061
:1020F0000E94333DEC01E0917511E00FE093751102
:10210000FF27EF70F070EA55FE4E80818093A51195
:102110000E9423108C2F0E94A809FC01892BF1F04A
:102120008481883029F46C2FCF010E94A70E16C03D
:102130008130A1F46C2F7727CF010E94710C0EC063
:102140008091FF06823039F01092A6041092A50407
:102150000E94BE0B01C081E0809382112091B711D3
:102160003091B811809128049091290428173907DB
:1021700078F18091FF06823059F11092821110920D
:10218000B8111092B71110927711109276118091B8
:102190009E0590919F05019690939F0580939E05C3
:1021A0008091B104882349F0E091A005E093751176
:1021B000FF27EA55FE4E808104C010927511809170
:1021C000A6118093A5118091A5110E94231053CFD1
:1021D00080917611909177110E94FF068C01809179
:1021E000761190917711800F911F909377118093C2
:1021F000761180E090E00E944A2210926D111092B8
:102200006C11C8010E94932D80E090E00E9467222B
:1022100034CFFF920F931F93F82E162F042F0E9496
:10222000F927809366118F3F19F480E092E008C08F
:102230000E94F927809374118F3F79F489ED91E022
:102240000E941523E0912213F091231360858EE004
:102250000E94F2268FEF90E070C01092B9041092A5
:10226000B8041092B7040E946F3410926B11109250
:102270006A1184E690E09093771180937611109222
:1022800082111092E6061092B8111092B711F092D6
:10229000FF061093B104812F9927909369118093C1
:1022A00068110093A0051092F6081092F70810929A
:1022B000F8081092F90884E68093CC0480E49FE14A
:1022C0009093CB048093CA0480EA9FE09093C90462
:1022D0008093C8048FE08093C60481E899E19093CD
:1022E000C5048093C40421E839E141E254E26FE07F
:1022F00083EB94E00E94571D81E08093701110924F
:102300007B11112341F000937511E02FFF27EA554F
:10231000FE4E808104C0109275118091A6118093A9
:10232000A5118091A5110E94231010929F05109273
:102330009E050E94CC0681E090E01F910F91FF90D6
:102340000895809166110E9482288091F608882362
:1023500079F461E070E080E090E00090661104C0E4
:10236000660F771F881F991F0A94D2F70E94E02AF0
:1023700081E090E00895FC01DB018091F60888235C
:1023800029F410821C9280E090E008958091B604B8
:1023900080838091BB048C938091B8049091B904A0
:1023A0000895EAE7F0E083E08083ACE7B0E080E402
:1023B0008C938081806880831092BA118C91807E8A
:1023C0008C939C918C91807E892B8C93089588ECC2
:1023D00090E00E946534089580917A008064809333
:1023E0007A0080917A0084FFFCCF0E94E71120914F
:1023F00078003327809179009927982F8827822B9E
:10240000932B0895FF920F931F93CF93DF93CDB734
:10241000DEB722970FB6F894DEBF0FBECDBF0E9485
:1024200042148C01009711F00E948C2A159AFF2407
:102430008F2D806299279A83898340988BE18EBD86
:102440000DB407FEFDCF89819A81892F99278EBD12
:102450000DB407FEFDCF89819A818EBD0DB407FEB4
:10246000FDCF409A82E090E00E94653440988BE571
:102470008EBD0DB407FEFDCF1EBC0DB407FEFDCF13
:102480008EB59927982F88279A8389831EBC0DB40F
:1024900007FEFDCF89819A812EB53327282B392B52
:1024A0003A832983409A89819A8186FD05C0F394F5
:1024B0002FE1F21609F0BCCF0115110519F0C80182
:1024C0000E943A29FF20C9F40E94EC119A83898363
:1024D00089819A818F3A910530F089819A818E5A4B
:1024E00090409A83898389819A818A54914098F493
:1024F0008AE491E09A8389830EC02DE7F29E9001D1
:10250000112488E293E2821B930B6BE170E00E943E
:10251000473D7A83698389819A8122960FB6F89420
:10252000DEBF0FBECDBFDF91CF911F910F91FF9006
:102530000895CF92DF92EF92FF920F931F93CF9364
:10254000DF93982FEA01122F823009F481C0833083
:1025500030F4882371F0813009F0D2C010C084308B
:1025600009F481C0843008F477C0853009F0C8C010
:102570002DC080E880BB8F9A0E94D1116AC08091E3
:10258000B911813009F4C3C09093B911772760FF66
:1025900013C08F981092BA1180917C00807E809336
:1025A0007C0090917C0080917C00807E892B8093C0
:1025B0007C0088EE93E09FC061FDA9C062FDA7C0CA
:1025C00067707070672B09F4A2C097C0822F81508A
:1025D000823008F099C09091BA11892F81508630CD
:1025E00018F40E94EC1122C0992319F40E940212DF
:1025F0001DC0973051F5F1E0CF2EF4E0DF2EEE2430
:10260000FF2400E00E94EC118C159D0508F46C017C
:10261000E816F90608F47C018DE790E00E94653425
:102620000F5F003479F7C7018C199D09123031F41E
:102630008883892F9927898381E008C0113029F484
:102640009695879596958795888380E08F5F09C0DA
:102650008F9A1092B91151C0613009F058C0809121
:10266000BA11992756C0613009F051C02730D9F40A
:102670002093BA1180917C008F7780937C008091A9
:102680007C00806480937C0080917C00807E8093BD
:102690007C0090917C0080917C009360807E982BE0
:1026A00090937C0026C0283020F081E00E942D26E7
:1026B0002EC02093BA11213049F480917C008F778D
:1026C00080937C0080917C00806403C080917C00BA
:1026D000806C80937C0080917C00807E80937C0065
:1026E00090917C0080917C00807E892B812B80934F
:1026F0007C0088EC90E00E94653481E090E009C0A5
:1027000060E08CE00E94F22680E090E002C08FEF53
:1027100090E0DF91CF911F910F91FF90EF90DF90AC
:10272000CF90089599279C01265A3E4B0B97880F0E
:10273000991F880F991F280F391FF894409888E136
:102740008EBD0DB407FEFDCF832F99278EBD0DB42E
:1027500007FEFDCF2EBD0DB407FEFDCF409A789445
:102760000895F89440981EBC0DB407FEFDCF8EB5B9
:10277000409A789486FFF5CF08958091D0119927DB
:102780000895CF93DF93DC01409889EC8EBD0DB4A2
:1027900007FEFDCF80E88EBD0DB407FEFDCF92E0B1
:1027A0009150FD01E90FF11D80818EBD0DB407FE32
:1027B000FDCF9923A9F7409A40988BEC8EBD0DB4BC
:1027C00007FEFDCF80E88EBD0DB407FEFDCF92E081
:1027D0009D012E5F3F4FE9019150F901E90FF11D75
:1027E00080818EBD0DB407FEFDCF9923A1F7409ADD
:1027F0008C918093D111FD0181818093D2118881C8
:102800008093D31183818093D411DF91CF91089568
:10281000409889E18EBD0DB407FEFDCF83E08EBDEB
:102820000DB407FEFDCF86E08EBD0DB407FEFDCFD3
:10283000409A40988AE18EBD0DB407FEFDCF8EE030
:102840008EBD0DB407FEFDCF8EE08EBD0DB407FE2C
:10285000FDCF409A81E08093C1110895409889E1AD
:102860008EBD0DB407FEFDCF81E08EBD0DB407FE19
:10287000FDCF84EC8EBD0DB407FEFDCF409A1092C3
:10288000C11108958091BF119091C01108952091B8
:10289000C2113091C31138603093C3112093C2111B
:1028A000409881E18EBD0DB407FEFDCF832F99279F
:1028B0008EBD0DB407FEFDCF2EBD0DB407FEFDCFBE
:1028C000409A08952091C2113091C311377F3093FF
:1028D000C3112093C211409881E18EBD0DB407FE53
:1028E000FDCF832F99278EBD0DB407FEFDCF2EBDE2
:1028F0000DB407FEFDCF409A089581E08093CF117B
:102900002091C2113091C31120613093C3112093E3
:10291000C211409881E18EBD0DB407FEFDCF832F1B
:1029200099278EBD0DB407FEFDCF2EBD0DB407FE59
:10293000FDCF409A08951092CF112091C21130918D
:10294000C3112F7E3093C3112093C211409881E1AF
:102950008EBD0DB407FEFDCF832F99278EBD0DB41C
:1029600007FEFDCF2EBD0DB407FEFDCF409A0895A2
:1029700089B1992766E0969587956A95E1F7817008
:10298000907008958CB1992787FD90958827990FAD
:10299000881F9927089589B19927E6E0969587952C
:1029A000EA95E1F78170907008958091D5118823A0
:1029B00019F480E090E008958091D5111092D5111E
:1029C000992787FD90950895409888E08EBD0DB4B5
:1029D00007FEFDCF409A409888E08EBD0DB407FEFB
:1029E000FDCF409A08958091BF119091C0110E942F
:1029F0008C2A409886E08EBD0DB407FEFDCF409A2C
:102A00008091BF119091C0110E943A290895809140
:102A1000BF119091C0110E948C2A409884E08EBD15
:102A20000DB407FEFDCF409A8091BF119091C01167
:102A30000E943A2908958091BF119091C0110E947F
:102A40008C2A409886E08EBD0DB407FEFDCF409ADB
:102A5000409882E18EBD0DB407FEFDCF85E08EBDAE
:102A60000DB407FEFDCF1EBC0DB407FEFDCF409A8E
:102A700040988EE28EBD0DB407FEFDCF1EBC0DB496
:102A800007FEFDCF1EBC0DB407FEFDCF409A0E948D
:102A9000E4148091BF119091C0110E943A290895C9
:102AA0008091BF119091C0110E948C2A409886E0BD
:102AB0008EBD0DB407FEFDCF409A409882E18EBDD9
:102AC0000DB407FEFDCF85E08EBD0DB407FEFDCF32
:102AD00088E08EBD0DB407FEFDCF409A40988EE28F
:102AE0008EBD0DB407FEFDCF88E18EBD0DB407FE8F
:102AF000FDCF1EBC0DB407FEFDCF409A0E94E4142A
:102B00008091BF119091C0110E943A2908950F93AE
:102B10001F93082F8091BF119091C0110E948C2AA1
:102B2000112707FD1095302F22272068409883E158
:102B30008EBD0DB407FEFDCF832F99278EBD0DB43A
:102B400007FEFDCF2EBD0DB407FEFDCF409A80914C
:102B5000BF119091C0110E943A291F910F910895C1
:102B60000F931F93CF93DF93CDB7DEB724970FB6A4
:102B7000F894DEBF0FBECDBF182F062F8091BF1176
:102B80009091C0110E948C2A679B4CC21092D01168
:102B9000679B25C0319923C040988FE78EBD0DB447
:102BA00007FEFDCF1EBC0DB407FEFDCF8EB5409ACB
:102BB000409888E08EBD0DB407FEFDCF409A409846
:102BC00088E08EBD0DB407FEFDCF409A8091BF1105
:102BD0009091C0110E943A298FEF9FEF2BC240982D
:102BE0008FE78EBD0DB407FEFDCF1EBC0DB407FEF2
:102BF000FDCF4EB5409A4F7719F540988FE78EBDBF
:102C00000DB407FEFDCF1EBC0DB407FEFDCF8EB583
:102C1000409A409888E08EBD0DB407FEFDCF409AE3
:102C2000409888E08EBD0DB407FEFDCF409A80919C
:102C3000BF119091C0110E943A298EEF9FEFFAC107
:102C400045308CF0E091C411F091C511242F332749
:102C500027FD30952B5030408481992787FD909532
:102C600082179307F4F540988FE78EBD0DB407FEE9
:102C7000FDCF60E070E0242F332727FD309506C09C
:102C80001EBC0DB407FEFDCF6F5F7F4F862F9927C7
:102C90008217930714F43199F3CF409A40988FE745
:102CA0008EBD0DB407FEFDCF1EBC0DB407FEFDCFDB
:102CB0008EB5409A409888E08EBD0DB407FEFDCFDA
:102CC000409A409888E08EBD0DB407FEFDCF409A33
:102CD0008091BF119091C0110E943A298DEF9FEF12
:102CE000A9C1E091C411F091C5114C504383112347
:102CF000B1F0E091C411F091C5118381992787FD4E
:102D00009095202F33278217930749F08091BF11A8
:102D10009091C0110E943A298AEF9FEF8BC1409891
:102D20008FE78EBD0DB407FEFDCFFE0131969E01EB
:102D30002D5F3F4F1EBC0DB407FEFDCF8EB58193B6
:102D4000E217F307B9F7409AE091C411F091C51169
:102D500089819A81B5E096958795BA95E1F781705A
:102D6000878340988FE78EBD0DB407FEFDCF1EBC54
:102D70000DB407FEFDCFE091C411F091C5118EB5E1
:102D80008083409A40988FE78EBD0DB407FEFDCF3B
:102D900080E007C01EBC0DB407FEFDCF8F5F8430FE
:102DA00011F03199F7CF409A40988FE78EBD0DB45E
:102DB00007FEFDCF20E030E01EBC0DB407FEFDCFC6
:102DC000E091C411F091C511E20FF31F8EB581831C
:102DD0002F5F3F4F2230310579F7409A89819A81E0
:102DE00083FF56C040988FE78EBD0DB407FEFDCF20
:102DF000EBEBF1E11EBC0DB407FEFDCF8EB5819368
:102E000081E1EF3BF807B1F7409A409889E98EBD20
:102E10000DB407FEFDCF80E88EBD0DB407FEFDCFDB
:102E200092E09150E92FFF27E554FE4E80818EBD40
:102E30000DB407FEFDCF9923A1F7409A40988BE986
:102E40008EBD0DB407FEFDCF80E88EBD0DB407FE2C
:102E5000FDCF92E09150E92FFF27E354FE4E808191
:102E60008EBD0DB407FEFDCF9923A1F7409A40987F
:102E70008CE08EBD0DB407FEFDCF409A81E08093BB
:102E8000D011E091C411F091C511838184508383E6
:102E900040988FE78EBD0DB407FEFDCF40E050E0B7
:102EA00011C01EBC0DB407FEFDCFE091C411F0911E
:102EB000C5110580F681E02DE60FF11D8EB58083EA
:102EC0004F5F5F4F642FE091C411F091C511242F23
:102ED00033278381992787FD9095281739070CF3AD
:102EE000409A40988FE78EBD0DB407FC0AC0FCCF16
:102EF0000DB407FEFDCF5EB5409A40988FE78EBDBA
:102F000002C01EBCF5CF0DB407FEFDCFFE01339607
:102F10009E012B5F3F4F1EBC0DB407FEFDCF8EB54B
:102F20008193E217F307B9F7409AE091C411F09149
:102F3000C5118B81808740E020E030E00AC0E0913D
:102F4000C411F091C51185819681A80FB91F8C918C
:102F5000480F822FE091C411F091C5112F5F3F4FB0
:102F6000A82FBB278381992787FD9095A817B907BC
:102F700034F3451719F140988FE78EBD0DB407FE65
:102F8000FDCF1EBC0DB407FEFDCF8EB5409A409814
:102F900088E08EBD0DB407FEFDCF409A409888E0D2
:102FA0008EBD0DB407FEFDCF409A8091BF11909168
:102FB000C0110E943A298CEF9FEF3CC08C8187FFA3
:102FC0000EC08091D5118F5F8093D5118091BF1174
:102FD0009091C0110E943A2981E090E02BC0409866
:102FE0008FE78EBD0DB407FEFDCF1EBC0DB407FEEE
:102FF000FDCF8EB5409A409888E08EBD0DB407FE97
:10300000FDCF409A409888E08EBD0DB407FEFDCFFD
:10301000409A8091BF119091C0110E943A298BEF84
:103020009FEF08C08091BF119091C0110E943A2972
:1030300080E090E024960FB6F894DEBF0FBECDBFBF
:10304000DF91CF911F910F9108958091BF119091C1
:10305000C0110E948C2A1092CC11409886E08EBD3F
:103060000DB407FEFDCF409A1092D5118091BF118B
:103070009091C0110E943A2908958091BF119091BA
:10308000C0110E948C2A81E08093CC11409883E08B
:103090008EBD0DB407FEFDCF409A409888E08EBDEE
:1030A0000DB407FEFDCF409A1092D5118091BF114B
:1030B0009091C0110E943A2908958091BF1190917A
:1030C000C0110E948C2A81E08093CC11409883E04B
:1030D0008EBD0DB407FEFDCF409A409888E08EBDAE
:1030E0000DB407FEFDCF409A1092D5118091BF110B
:1030F0009091C0110E943A2908951F93182F809132
:10310000BF119091C0110E948C2A212F33272F715B
:103110003070206E306A409885E18EBD0DB407FE98
:10312000FDCF832F99278EBD0DB407FEFDCF2EBD99
:103130000DB407FEFDCF409A8091BF119091C01150
:103140000E943A291F910895EF92FF920F931F93C7
:10315000CF93DF93CDB7DEB722970FB6F894DEBFDB
:103160000FBECDBF8C018091BF119091C0110E9404
:103170008C2A5091C111552339F040988DE08EBDB5
:103180000DB407FEFDCF409AF8014281642F7727E6
:1031900067FD7095A0E020E030E008C0F801838171
:1031A0009481E80EF91EF7018081A80F822F2F5F0E
:1031B0003F4FE82EFF24E616F70684F3942F945F22
:1031C00051119C5F6799FECF4E99FCCFF8944098BF
:1031D00089E08EBD0DB407FEFDCF409A409889E08E
:1031E0008EBD0DB407FEFDCF409A40988EE38EBD94
:1031F0000DB407FC05C0FCCF0DB407FC30C1FCCFFB
:103200009EBDFACF81E698E89A838983552329F0F9
:1032100089819A8188609A83898340988EE38EBDE4
:103220000DB407FEFDCFFE0131969E012D5F3F4F8D
:1032300080818EBD0DB407FEFDCF3196E217F307F6
:10324000B9F7409A40988EE38EBD0DB407FC05C0D7
:10325000FCCF0DB407FC0EC1FCCF8091C6118EBD12
:10326000F8CF0DB407FEFDCF20E030E0F901E853C0
:10327000FE4E80818EBD0DB407FEFDCF2F5F3F4F08
:103280002230310599F7409A40988EE38EBD0DB4F7
:1032900007FEFDCF20E030E0F801E20FF31F808150
:1032A0008EBD0DB407FEFDCF2F5F3F4F223031059D
:1032B00099F7409A40988EE38EBD0DB407FEFDCF7E
:1032C00020E030E0F901E653FE4E80818EBD0DB462
:1032D00007FEFDCF2F5F3F4F2230310599F7409A0F
:1032E000552399F040988EE38EBD0DB407FEFDCFB7
:1032F000E1EDF1E180818EBD0DB407FEFDCF319689
:1033000081E1E53DF807B1F7409A40988EE38EBD24
:103310000DB407FEFDCF20E030E00DC0F801838141
:103320009481480F591FFA0180818EBD0DB407FEAC
:10333000FDCF2F5F3F4F422F55274617570774F396
:10334000409A40988EE38EBD0DB407FC05C0FCCFBB
:103350000DB407FC94C0FCCFAEBDFACF8091CC1168
:10336000882339F4409883E08EBD0DB407FEFDCF6D
:10337000409A40981EBC0DB407FEFDCF8EB5409A12
:1033800081FFF7CF00E0409885E08EBD0DB407FEC9
:10339000FDCF409A40981EBC0DB407FEFDCF1EB570
:1033A000409A0F5F053651F478948091BF11909147
:1033B000C0110E943A2980E090E068C084E690E065
:1033C0000E94762313FD08C0DECF409884E08EBDB6
:1033D0000DB407FEFDCF409A78944E9BFECF4E99D8
:1033E000FECF8091CF11882391F084EA92E00E9471
:1033F0007623319B0EC040988FE78EBD0DB407FE3B
:10340000FDCF1EBC0DB407FEFDCF8EB5409A11E076
:103410000FC0409888E08EBD0DB407FEFDCF409AE6
:10342000409888E08EBD0DB407FEFDCF409A10E0B5
:10343000F894409886E08EBD0DB407FEFDCF409A0B
:1034400078948091C6118F5F8093C6118091BF11CF
:103450009091C0110E943A29812F992717C0409A54
:1034600081E498E89A8389838091CF11882309F0B9
:10347000C9CECCCE409A40988EE38EBDF2CE409A13
:10348000F8018581882309F069CF9FCF22960FB676
:10349000F894DEBF0FBECDBFDF91CF911F910F918A
:1034A000FF90EF9008958F929F92BF92CF92DF92FC
:1034B000EF92FF920F931F93CF93DF93CDB7DEB7B9
:1034C00022970FB6F894DEBF0FBECDBF8C016B0103
:1034D0007A0149018091BF119091C0110E948C2AFC
:1034E0000E942B35409888E08EBD0DB407FEFDCFBD
:1034F000409A409888E08EBD0DB407FEFDCF409AFB
:103500006799FECF4E99FCCFF894409889E08EBD24
:103510000DB407FEFDCF409A409889E08EBD0DB4F2
:1035200007FEFDCF409AF8016281462F552747FDDF
:103530005095BB2420E030E007C0F80183819481DE
:10354000A80FB91F8C91B80E822F2F5F3F4FA82F65
:10355000BB27A417B5078CF3962F945F40988EE392
:103560008EBD0DB407FC05C0FCCF0DB407FC18C11F
:10357000FCCF9EBDFACF81E698E89A838983409874
:103580008EE38EBD0DB407FEFDCFFE0131969E0188
:103590002D5F3F4F80818EBD0DB407FEFDCF31966C
:1035A000E217F307B9F7409A40988EE38EBD0DB449
:1035B00007FC05C0FCCF0DB407FCFBC0FCCF80911D
:1035C000C6118EBDF8CF0DB407FEFDCF20E030E070
:1035D000F901E853FE4E80818EBD0DB407FEFDCF8C
:1035E0002F5F3F4F2230310599F7409A40988EE384
:1035F0008EBD0DB407FEFDCF20E030E0F801E20FF4
:10360000F31F80818EBD0DB407FEFDCF2F5F3F4FAE
:103610002230310599F7409A40988EE38EBD0DB463
:1036200007FEFDCF20E030E0F901E653FE4E808139
:103630008EBD0DB407FEFDCF2F5F3F4F2230310509
:1036400099F7409AB701C6010E94B035F80185810B
:10365000882379F18091CC11882339F4409883E054
:103660008EBD0DB407FEFDCF409AEE24409885E054
:103670008EBD0DB407FEFDCF409A40981EBC0DB420
:1036800007FEFDCFFEB4409AE394F5E6EF1651F441
:1036900078948091BF119091C0110E943A2980E0E6
:1036A00090E08EC084E690E00E947623F3FC08C090
:1036B000DDCF409884E08EBD0DB407FEFDCF409A6B
:1036C00080912A040E94B11E80918400909185000F
:1036D000F4019183808340988EE38EBD0DB407FE84
:1036E000FDCFF8018281482F552747FD509520E0F6
:1036F00030E00CC0F80183819481A80FB91F8C9130
:103700008EBD0DB407FEFDCF2F5F3F4FA22FBB270D
:10371000A417B5077CF3409A40988EE38EBD0DB494
:1037200007FC05C0FCCF0DB407FC48C0FCCFBEBCF5
:10373000FACF4E9BFECFF8944E99FECF409888E08A
:103740008EBD0DB407FEFDCF409A409888E08EBD37
:103750000DB407FEFDCF409A409889E08EBD0DB4B0
:1037600007FEFDCF409A409889E08EBD0DB407FE5C
:10377000FDCF409A409886E08EBD0DB407FEFDCF88
:10378000409A78948091C6118F5F8093C611809182
:10379000BF119091C0110E943A2981E090E010C0C1
:1037A000409AF8018681882309F0E5CE81E498E803
:1037B000E4CE409A40988EE38EBD05CF409AB9CFB3
:1037C00022960FB6F894DEBF0FBECDBFDF91CF912A
:1037D0001F910F91FF90EF90DF90CF90BF909F903F
:1037E0008F900895CF93DF93CDB7DEB722970FB6B2
:1037F000F894DEBF0FBECDBF9A8389839093CB111F
:103800008093CA1184EF91E00E94653440988AEE5B
:103810008EBD0DB407FEFDCF80E88EBD0DB407FE52
:10382000FDCFFE0131969E012D5F3F4F80818EBD01
:103830000DB407FEFDCF3196E217F307B9F7409AB2
:1038400084EF91E00E94653422960FB6F894DEBFB3
:103850000FBECDBFDF91CF9108956F927F928F926F
:103860009F92AF92BF92CF92DF92EF92FF920F930F
:103870001F93CF93DF93CDB7DEB722970FB6F8949F
:10388000DEBF0FBECDBF8C0184E690E00E946534A0
:103890007801C12CB1E0DB2E3E010894611C711C43
:1038A000A3E08A2E912C8C0E9D1EF7018081218130
:1038B00033279927982F8827282B392B3A83298358
:1038C00084E690E00E94653440988C2D80688EBD1F
:1038D0000DB407FEFDCFC60195958795807C8EBD02
:1038E0000DB407FEFDCF83015301F50180818EBD2C
:1038F0000DB407FEFDCF0894A11CB11CA814B90497
:10390000A1F7409A0894E11CF11C82E090E0C80EF7
:10391000D91E90E1C91691E0D90639F684E690E007
:103920000E94653420E131E040E451E01A821982BE
:103930004098842F80688EBD0DB407FEFDCFCA016C
:1039400095958795807C8EBD0DB407FEFDCFF8015F
:1039500080818EBD0DB407FEFDCF3196EA15FB05C3
:10396000B9F7409A4098822F80688EBD0DB407FE4B
:10397000FDCFC90195958795807C8EBD0DB407FE5E
:10398000FDCFF80180818EBD0DB407FEFDCF3196CD
:10399000EA15FB05B9F7409A2E5F3F4F4E5F5F4F28
:1039A000E1E02E313E0711F681E090E09A838983B1
:1039B00040988EEC8EBD0DB407FEFDCF80E88EBD25
:1039C0000DB407FEFDCFF80180818EBD0DB407FE5A
:1039D000FDCF3196EA15FB05B9F7409A40988EE97C
:1039E0008EBD0DB407FEFDCF80E88EBD0DB407FE81
:1039F000FDCFF80180818EBD0DB407FEFDCF0F5FB6
:103A00001F4F0A151B05A9F7409A22960FB6F89486
:103A1000DEBF0FBECDBFDF91CF911F910F91FF9001
:103A2000EF90DF90CF90BF90AF909F908F907F905E
:103A30006F9008951F93CF93DF93EC01162F809121
:103A4000BF119091C0110E948C2A409888E08EBDD1
:103A50000DB407FEFDCF409A409888E08EBD0DB4AE
:103A600007FEFDCF409A812F0E949213D093C5117B
:103A7000C093C4118091BF119091C0110E943A2946
:103A8000DF91CF911F9108951F93182F8091BF113F
:103A90009091C0110E948C2A812F0E9492138091D4
:103AA000BF119091C0110E943A291F910895DF9291
:103AB000EF92FF920F931F93CF93DF93CDB7DEB7B3
:103AC00022970FB6F894DEBF0FBECDBF8C01D62E65
:103AD0005A834983790164E181E00E94BB28909375
:103AE000C0118093BF11892B31F40E94062C682FDE
:103AF0008FE00E94F2268091BF119091C0110E9428
:103B00008C2A8F3F21F484E592E00E941523159AB8
:103B100088EE93E00E947623169881E090E00E9460
:103B20007623169A84E690E00E947623F8944098D3
:103B300081E08EBD0DB407FEFDCF409A82EE92E08B
:103B40009093C3118093C211409881E18EBD0DB452
:103B500007FEFDCF82E08EBD0DB407FEFDCF82EEE5
:103B60008EBD0DB407FEFDCF409A409882E18EBD18
:103B70000DB407FEFDCF85E08EBD0DB407FEFDCF71
:103B80001EBC0DB407FEFDCF409A40988CE18EBD5F
:103B90000DB407FEFDCF1EBC0DB407FEFDCF8FE7B1
:103BA0008EBD0DB407FEFDCF409A409889E18EBDD1
:103BB0000DB407FEFDCF81E08EBD0DB407FEFDCF35
:103BC00084EC8EBD0DB407FEFDCF409A409887E18E
:103BD0008EBD0DB407FEFDCF8AE18EBD0DB407FE8C
:103BE000FDCF86E58EBD0DB407FEFDCF409A84EF74
:103BF00091E00E946534409888EE8EBD0DB407FEBA
:103C0000FDCF80E88EBD0DB407FEFDCFFE013196DD
:103C10009E012D5F3F4F80818EBD0DB407FEFDCF0D
:103C20003196E217F307B9F7409A84EF91E00E94CA
:103C3000653478948D2D0E94921378941093C51159
:103C40000093C41189819A819093C9118093C811FE
:103C5000F092CB11E092CA111092C6111092CC11C1
:103C60000E94B1138091BF119091C0110E943A2916
:103C70008F3F39F487E292E00E94152382E00E9490
:103C80002D261092CF111092C1111092D0112296B0
:103C90000FB6F894DEBF0FBECDBFDF91CF911F915D
:103CA0000F91FF90EF90DF9008952091581280912E
:103CB000D611281781F0E22FFF27E952FE4EE0814E
:103CC000822F8F5F80935812803811F4109258120F
:103CD0008E2F992708958091C80087FFFCCF80918F
:103CE000C8008F778093C8008091CE0099270895EF
:103CF000882351F48091C000992787FD90958827EB
:103D0000990F881F99270895813019F080E090E07D
:103D1000089520E030E0909158128091D6119817C4
:103D200011F021E030E0C901089585B7806185BFB9
:103D300086E084B987E085B981E087B988B98CE3EA
:103D40008DB98BE08AB98EE38EB988E781B980E4BA
:103D500082B908950E94951E80E58CBD81E08DBDDD
:103D600008958F3F09F47FC0482F55279A01277087
:103D7000307022303105A9F12330310544F421158A
:103D8000310589F02130310509F06DC01CC02430A7
:103D9000310509F446C0243031059CF12530310548
:103DA00009F061C04EC022B1A3E056954795AA958F
:103DB000E1F781E090E002C0880F991F4A95E2F791
:103DC000282B22B94DC085B1F3E056954795FA9559
:103DD000E1F702C0220F331F4A95E2F7822B85B923
:103DE0003FC028B1E3E056954795EA95E1F781E0B9
:103DF00090E002C0880F991F4A95E2F7282B28B956
:103E00002FC02BB173E0569547957A95E1F781E085
:103E100090E002C0880F991F4A95E2F7282B2BB932
:103E20001FC02EB163E0569547956A95E1F781E092
:103E300090E002C0880F991F4A95E2F7282B2EB90F
:103E40000FC021B333E0569547953A95E1F781E0ED
:103E500090E002C0880F991F4A95E2F7282B21BBFA
:103E600081E090E008958FEF9FEF08958F3F09F470
:103E700086C0482F55279A012770307022303105AF
:103E8000C1F12330310544F42115310589F0213089
:103E9000310509F074C01DC02430310509F44BC050
:103EA00024303105BCF12530310509F068C054C01B
:103EB00022B173E0569547957A95E1F781E090E05D
:103EC00002C0880F991F4A95E2F78095822382B934
:103ED00053C095B163E0569547956A95E1F702C0E6
:103EE000220F331F4A95E2F7822F8095892385B9E7
:103EF00043C028B133E0569547953A95E1F781E004
:103F000090E002C0880F991F4A95E2F780958223BE
:103F100088B932C02BB193E0569547959A95E1F751
:103F200081E090E002C0880F991F4A95E2F78095E2
:103F300082238BB921C02EB183E0569547958A958F
:103F4000E1F781E090E002C0880F991F4A95E2F7FF
:103F5000809582238EB910C021B3B3E05695479562
:103F6000BA95E1F781E090E002C0880F991F4A9569
:103F7000E2F78095822381BB81E090E008958FEF86
:103F80009FEF08958F3FA9F1282F3327C90187702C
:103F9000907082309105A9F0833091052CF4009740
:103FA00061F0019731F50BC08430910571F08430D8
:103FB00091054CF00597E9F40AC080B109C083B1BE
:103FC00007C086B105C089B103C08CB101C08FB1F3
:103FD0009927E3E036952795EA95E1F702C0959594
:103FE00087952A95E2F7992787FD909581709070C3
:103FF00008958FEF9FEF08958F3F09F403C1282F95
:104000003327A901477050704230510509F45CC054
:104010004330510544F44115510591F041305105AB
:1040200009F0F0C034C04430510509F49BC044305D
:1040300051050CF470C04530510509F0E3C0B9C01A
:1040400080B1A90173E0569547957A95E1F79927D4
:10405000042E02C0959587950A94E2F780FD0BC067
:1040600022B181E090E002C0880F991F4A95E2F7E3
:10407000282B22B9C4C022B181E090E002C0880F91
:10408000991F4A95E2F78095822382B9B8C083B11F
:1040900063E0369527956A95E1F79927022E02C0CD
:1040A000959587950A94E2F702C0440F551F2A950B
:1040B000E2F780FD03C085B1842B04C095B1842F45
:1040C0008095892385B99BC086B1A90193E0569557
:1040D00047959A95E1F79927042E02C09595879503
:1040E0000A94E2F780FD0BC028B181E090E002C0A5
:1040F000880F991F4A95E2F7282B28B980C028B16C
:1041000081E090E002C0880F991F4A95E2F7809500
:10411000822388B974C089B1A901B3E05695479547
:10412000BA95E1F79927042E02C0959587950A94D0
:10413000E2F780FD0BC02BB181E090E002C0880F58
:10414000991F4A95E2F7282B2BB959C02BB181E072
:1041500090E002C0880F991F4A95E2F7809582236C
:104160008BB94DC08CB1A901A3E056954795AA958E
:10417000E1F79927042E02C0959587950A94E2F7F6
:1041800080FD0BC02EB181E090E002C0880F991F26
:104190004A95E2F7282B2EB932C02EB181E090E08B
:1041A00002C0880F991F4A95E2F7809582238EB945
:1041B00026C08FB1A901F3E056954795FA95E1F72E
:1041C0009927042E02C0959587950A94E2F780FD01
:1041D0000BC021B381E090E002C0880F991F4A957F
:1041E000E2F7282B21BB0BC021B381E090E002C095
:1041F000880F991F4A95E2F78095822381BB81E061
:1042000090E008958FEF9FEF08958F3F09F412C15A
:10421000482F5527662309F090C0CA018770907017
:104220008230910509F43EC0833091053CF400973B
:1042300089F08130910509F0FDC021C084309105DD
:1042400009F454C0843091050CF43EC0059709F080
:10425000F1C05EC031B1B3E056954795BA95E1F72C
:1042600081E090E002C0880F991F4A95E2F7282F5D
:104270002095232321B922B1822B82B9D8C024B141
:10428000A3E056954795AA95E1F702C0880F991FBC
:104290004A95E2F7982F8095822384B985B1982BAF
:1042A00095B9C5C037B1F3E056954795FA95E1F752
:1042B00081E090E002C0880F991F4A95E2F7282F0D
:1042C0002095232327B935C03AB1E3E056954795A9
:1042D000EA95E1F781E090E002C0880F991F4A95C6
:1042E000E2F7282F209523232AB923C03DB173E09C
:1042F000569547957A95E1F781E090E002C0880FE6
:10430000991F4A95E2F7282F209523232DB911C034
:1043100030B363E0569547956A95E1F781E090E008
:1043200002C0880F991F4A95E2F7282F2095232372
:1043300020BB25B1822B85B97AC09A0127703070D5
:1043400022303105A9F12330310544F4211531051E
:1043500089F02130310509F06DC01CC024303105D1
:1043600009F446C0243031059CF12530310509F0AF
:1043700061C04EC021B133E0569547953A95E1F7BB
:1043800081E090E002C0880F991F4A95E2F7282B40
:1043900021B94DC084B193E0569547959A95E1F7C0
:1043A00002C0220F331F4A95E2F7822B84B93FC027
:1043B00027B1B3E056954795BA95E1F781E090E0D3
:1043C00002C0880F991F4A95E2F7282B27B92FC002
:1043D0002AB1A3E056954795AA95E1F781E090E0D0
:1043E00002C0880F991F4A95E2F7282B2AB91FC0EF
:1043F0002DB1F3E056954795FA95E1F781E090E00D
:1044000002C0880F991F4A95E2F7282B2DB90FC0DB
:1044100020B3E3E056954795EA95E1F781E090E017
:1044200002C0880F991F4A95E2F7282B20BB81E034
:1044300090E008958FEF9FEF0895882319F08FEF94
:104440009FEF089580B1992787FD9095809590956D
:104450008827990F881F99270895009711F484E100
:1044600009C08130910511F48CE104C082309105BE
:1044700031F484E20E94FC1F81E090E008950397EC
:1044800019F08FEF9FEF08958CE20E94FC1F81E0EE
:1044900090E00895009711F484E109C081309105FE
:1044A00011F48CE104C08230910531F484E20E9461
:1044B000B11E81E090E00895039719F08FEF9FEF10
:1044C00008958CE20E94B11E81E090E0089500976B
:1044D00011F484E109C08130910511F48CE104C02C
:1044E0008230910531F484E20E94361F81E090E031
:1044F0000895039719F08FEF9FEF08958CE20E94C3
:10450000361F81E090E00895882319F085B78F7EEB
:1045100002C085B7806185BF81E090E00895982F43
:104520008091C00085FFFCCF8091C0008F7D80937B
:10453000C0009093C6000895982F8091C80085FF11
:10454000FCCF9093CE000895292F33272093C500E8
:104550008093C40086E08093C200E1ECF0E08081AB
:104560008B7F8083A0ECB0E08C9182608C93808103
:10457000886180830895292F33272093CD0080936D
:10458000CC0086E08093CA00E9ECF0E080818B7F6C
:104590008083A8ECB0E08C9182608C9380818861EC
:1045A000808308958091C00087FFFCCF8091C00078
:1045B0008F778093C0008091C600992708950E944C
:1045C000BB2265E57EE18CE992E20E94683A909315
:1045D00054138093531365E57EE18CE992E20E94C7
:1045E000683A90935213809351130E94F927809355
:1045F00057128F3F19F48EE00E94F926109258123C
:104600001092D6118091C90080688093C9000895E6
:10461000809157128F3F19F48EE00E94F926809105
:104620005712992787FD90950895CF93DF93EC015A
:1046300007C0609153137091541399270E94F93A5F
:10464000FE01219684918823A1F7DF91CF910895EF
:104650001F920F920FB60F9211242F933F934F93F7
:104660005F936F937F938F939F93AF93BF93EF93DA
:10467000FF938091C9008F778093C9008091C80013
:1046800087FFFCCF8091C8008F778093C8009091FE
:10469000CE008091D611E82FFF27E952FE4E90837D
:1046A0008F5F8093D611803811F41092D6118091CB
:1046B00057120E948E298091C8008F778093C8007E
:1046C0008091C90080688093C900FF91EF91BF91EC
:1046D000AF919F918F917F916F915F914F913F919A
:1046E0002F910F900FBE0F901F90189500000000A3
:1046F000000000000197D1F70895FC01A7E0B0E0A9
:104700000E94B33D802D808381E090E00895FC01FC
:104710008081A7E0B0E0082E0E94BB3D81E090E0E0
:104720000895DC010E94B33D802D99270895FC0176
:10473000A0E0B0E00E94B33D402D4383A1E0B0E093
:104740000E94B33D802D8283A2E0B0E00E94B33D81
:10475000302D3183A3E0B0E00E94B33D902D9083D3
:10476000A4E0B0E00E94B33D202D830F840F890F99
:10477000281719F481E090E008958FEF9FEF0895D6
:10478000FC01A5E0B0E00E94B33D802D808381E074
:1047900090E00895FC01A6E0B0E00E94B33D802DBA
:1047A000808381E090E00895AC0120E030E0D90101
:1047B00018960E94B33D802DFA01E20FF31F80830B
:1047C0002F5F3F4F2031310591F781E090E0089550
:1047D000DC01062E0E94BB3D0895FC018081A6E00D
:1047E000B0E0082E0E94BB3D81E090E00895AC014E
:1047F00020E030E0D9011896FA01E20FF31F808122
:10480000082E0E94BB3D2F5F3F4F2031310591F7AD
:1048100081E090E00895F89408957894089585E6ED
:1048200090E008950E9454310895EF92FF920F9303
:104830001F93CF93DF93EC018B017A01898582303E
:1048400021F080911113888301C018828091111387
:10485000853020F060E087E00E94F2268985823072
:1048600029F0809111138F5F8093111380911113A0
:10487000882319F481E0809311138881992787FD9B
:104880009095FC0145E0EE0FFF1F4A95E1F7E80F18
:10489000F91FE55AFD4E118300838881992787FD12
:1048A0009095FC0135E0EE0FFF1F3A95E1F7E80F18
:1048B000F91FE55AFD4E888582878881992787FDF3
:1048C0009095FC0125E0EE0FFF1F2A95E1F7E80F18
:1048D000F91FE55AFD4E83E081872881822F9927B1
:1048E00087FD9095FC0105E0EE0FFF1F0A95E1F7AB
:1048F000E80FF91FE55AFD4E20878881992787FD2B
:104900009095FC0115E0EE0FFF1F1A95E1F7E80FF7
:10491000F91FE55AFD4E15820881112707FD1095F4
:104920002B853C854D855E856F85788989899A8937
:104930000E94792FF801B5E0EE0FFF1FBA95E1F75D
:10494000E00FF11FE55AFD4E948F838F08811127E8
:1049500007FD10952B8D3C8D4D8D5E8D6F8D78A153
:1049600089A19AA10E94792FF801A5E0EE0FFF1FFF
:10497000AA95E1F7E00FF11FE55AFD4E968B858B66
:104980008881992787FD9095FC0175E0EE0FFF1F48
:104990007A95E1F7E80FF91FE55AFD4E858996896A
:1049A000238D348D820F931F908F878B0881112761
:1049B00007FD10952B893C894D895E896F89788D1B
:1049C000898D9A8D0E94792FF80165E0EE0FFF1F07
:1049D0006A95E1F7E00FF11FE55AFD4E968F858F3E
:1049E0008881992787FD9095FC0155E0EE0FFF1F08
:1049F0005A95E1F7E80FF91FE55AFD4E858D968D22
:104A0000928F818F8881992787FD9095FC0145E0E1
:104A1000EE0FFF1F4A95E1F7E80FF91FE55AFD4E2B
:104A200081E090E090A3878F8881992787FD9095FA
:104A3000FC0135E0EE0FFF1F3A95E1F7E80FF91F93
:104A4000E55AFD4EF382E2828881992787FD909591
:104A5000FC0125E0EE0FFF1F2A95E1F7E80FF91F93
:104A6000E55AFD4E81E0848781E090E0DF91CF91AF
:104A70001F910F91FF90EF9008958F929F92AF92A8
:104A8000BF92CF92DF92EF92FF920F931F93CF933B
:104A9000DF9363E6A62E62E1B62ECC24DD24450129
:104AA000EC2CF501F080FFEFFF1691F0E40100E03F
:104AB00010E0E01639F08881F81621F46F2D85E0BA
:104AC0000E94F2260F5F1F4FA1960530110589F74E
:104AD0000894C11CD11C81E290E0A80EB91E95E09B
:104AE000C916D104E9F60E941B2B282F332727FD76
:104AF0003095F90155E0EE0FFF1F5A95E1F7E20FEF
:104B0000F31FE55AFD4E32853093241321E28202D1
:104B1000C0011124855A9D4E909323138093221334
:104B20009093141380931313309315130E945338EA
:104B30000E9439380E947738FFCF0F931F93CF938D
:104B4000DF93CDB7DEB7A3970FB6F894DEBF0FBEE5
:104B5000CDBF0E94F927809312138F3F21F460E0AC
:104B60008EE00E94F2260E94AA37882321F460E09A
:104B700086E00E94F22610921513109223131092D1
:104B800022131092141310921313109224131092E4
:104B90002113E2E0F3E18FEF8083828381833396F8
:104BA00023E1E131F207B9F7EBE5F2E183E6828731
:104BB0008FEF8087B19683E1E030F807B9F7E5E23F
:104BC000F3E1CF01059694838383F783E683FC01A9
:104BD00023E18E339207A9F7109227131092261320
:104BE000109242131092411310921813109217133F
:104BF000499790935A12809359126AE371E38E0198
:104C00000F5F1F4FC8010E94F73740E850E06CEF7C
:104C100078E0C8010E94583885E58093FC08198621
:104C20001C8E1D8E1E8E1F8E18A219A21AA21BA2E8
:104C300091E0988782E08A879B87C8010E94042EB2
:104C4000A3960FB6F894DEBF0FBECDBFDF91CF9114
:104C50001F910F910895F894FFCFE0912213F091E6
:104C6000231384870895E0912213F0912313848500
:104C700099270895DC01FB018091F508882319F438
:104C800080E090E0089580838091C3048C9381E05C
:104C900090E008951F938091F508882309F49EC041
:104CA0000E940B240E940B248CE394E00E941523A5
:104CB0008091C30499279F938F938BE494E09F93F3
:104CC0008F930E94263B88E394E00E9415230F9067
:104CD0000F900F900F908091F508843110F0109292
:104CE000F5088091F5089927AA27BB27FC01319781
:104CF000E231F105F0F5EA59FF4FEE0FFF1F059085
:104D0000F491E02D099481E194E035C08DEF93E0BA
:104D100032C087EE93E02FC08CEC93E02CC086EB82
:104D200093E029C08EE993E026C08BE893E023C08E
:104D300088E793E020C08AE593E01DC085E393E017
:104D40001AC089E293E017C08EE093E014C08FEFA1
:104D500092E011C08EEE92E00EC08AED92E00BC0A0
:104D60008AEB92E008C082EA92E005C087E892E010
:104D700002C080E892E00E94152360915313709165
:104D800054138DE090E00E94F93A609153137091B2
:104D900054138AE090E00E94F93A82E090E00E9489
:104DA000672283E090E00E944A2210E088EE93E0C0
:104DB0000E9465341F5F1436C9F783E090E00E94BB
:104DC000672282E090E00E944A2210E088EE93E0A1
:104DD0000E9465341F5F1436C9F7DFCF80E090E092
:104DE0001F9108958093F5086093C3040E944A269A
:104DF00008958093F508E0912213F09123138085A4
:104E00008093C3040E944A260895992787FD9095B0
:104E1000FC0125E0EE0FFF1F2A95E1F7E80FF91FCF
:104E2000E55AFD4EA281B3818C91853529F085E547
:104E30008C938FEF9FEF08958081918180509242F3
:104E400018F481E090E0089582E10E94F9268FEF46
:104E50009FEF08956F927F928F929F92AF92BF9231
:104E6000CF92DF92EF92FF920F931F93CF93DF9336
:104E700088E494E00E941523E0912213F09123131B
:104E80008085992787FD90959F938F938EE494E07A
:104E90009F938F930E94263BE0912213F09123135E
:104EA000028113811F930F9387E594E09F938F9363
:104EB0000E94263BF801808199279F938F9354E6A7
:104EC000C52E54E0D52EDF92CF920E94263BE09172
:104ED0002213F0912313808191819F938F9341E757
:104EE000E42E44E0F42EFF92EF920E94263B809144
:104EF0002213909123139F938F930BE714E01F933A
:104F00000F930E94263BCBE5D2E1AA24BB248DB7A8
:104F10009EB744960FB6F8949EBF0FBE8DBF3BE878
:104F2000632E34E0732E4601670178010A811B81EC
:104F30001F930F93BF92AF927F926F920E94263B76
:104F4000F801808199279F938F939F928F920E945F
:104F5000263B888199819F938F93DF92CF920E9405
:104F6000263BDF93CF93FF92EF920E94263B08945B
:104F7000A11CB11CA1968DB79EB742960FB6F894AE
:104F80009EBF0FBE8DBF95E0A916B10479F6DF91E3
:104F9000CF911F910F91FF90EF90DF90CF90BF9036
:104FA000AF909F908F907F906F900895CF93DF93F5
:104FB000E0912213F0912313C281D381888185353A
:104FC00039F00E942A2781E00E94F92685E588832E
:104FD000E0912213F09123138081918180509242BD
:104FE00028F00E942A2782E10E94F926DF91CF91C2
:104FF00008954091E7065091E8066091E9067091A6
:10500000EA0620E030E0DB01CA01022E04C0B695BA
:10501000A795979587950A94D2F781709070892B00
:10502000E9F481E090E0A0E0B0E0022E04C0880F37
:10503000991FAA1FBB1F0A94D2F7842B952BA62B6E
:10504000B72B8093E7069093E806A093E906B09308
:10505000EA06822F992787FD909508952F5F3F4F8D
:105060002032310581F68FEF9FEF0895E0912213F2
:10507000F091231365857685878590890895EF9251
:10508000FF920F931F9321E030E040E050E004C016
:10509000220F331F441F551F8A95D2F7E091221328
:1050A000F0912313E584F68407851089DA01C9019C
:1050B0008E219F21A023B1230097A105B10519F4EA
:1050C0008FEF9FEF1AC02095309540955095E222C2
:1050D000F32204231523E586F6860787108B818942
:1050E0009289A389B48982239323A423B523818B36
:1050F000928BA38BB48B81E090E01F910F91FF9076
:10510000EF900895682F772767FD70958091E706E7
:105110009091E806A091E906B091EA06062E04C037
:10512000B695A795979587950A94D2F78170907058
:10513000892B19F48FEF9FEF0895E0912213F091DE
:10514000231321E030E040E050E004C0220F331F81
:10515000441F551F6A95D2F785859685A785B08926
:10516000822B932BA42BB52B85879687A787B08B93
:1051700081E090E00895482F20912113243018F009
:1051800080E090E00895E2E0F3E130E080818F3F3D
:1051900021F03F5F33963530C9F7832F9927FC0103
:1051A000EE0FFF1FE80FF91FEE5FFC4E42834083B6
:1051B00061832F5F2093211383E0389FC001112466
:1051C0008E5F9C4E089542E053E120E030E04817A6
:1051D000590729F4822F992787FD909508952F5F0D
:1051E0003F4F4D5F5F4F2530310589F78FEF9FEFC0
:1051F00008950E94E3288F3F11F481E003C08530B9
:1052000031F482E00E942D268FEF9FEF08959927B9
:1052100087FD9095FC01EE0FFF1FE80FF91FEE5F71
:10522000FC4E8FEF80838283818380912113815094
:105230008093211381E090E008950E94E3288F3F3E
:1052400011F481E003C0853031F482E00E942D2604
:105250008FEF9FEF0895992787FD9095FC01EE0F42
:10526000FF1FE80FF91FEE5FFC4E8281992787FD33
:10527000909508951F93CF93DF930E94E328182FF2
:105280008F3F11F481E003C0853031F482E00E9449
:105290002D268FEF9FEF3EC0992787FD9095EC015B
:1052A000CC0FDD1FC80FD91FCE5FDC4E9A818881DD
:1052B000981774F50E940B248A818F5F8A83E0918E
:1052C0002213F09123131482E2E6F2E1212F332717
:1052D00027FD3095432F532F8081823091F48285B2
:1052E0009385A485B58582179307A407B50749F46C
:1052F00083E08283178616861082128613861486B0
:105300001586B19683E1E730F80731F70E940D2446
:1053100081E090E0DF91CF911F910895DF92EF92AD
:10532000FF920F931F93F1E0EF2EF12C012D112D21
:1053300004C0EE0CFF1C001F111F8A95D2F780914C
:10534000E7069091E806A091E906B091EA068E2161
:105350009F21A023B1230097A105B10511F481E09D
:1053600043C00E940B24E2E6F2E1DD24808181301B
:10537000B9F482859385A485B5858E219F21A023CC
:10538000B1230097A105B10559F083E08283178608
:1053900016861082E286F38604871587DD24D3946F
:1053A00080818230A1F482859385A485B5858E1590
:1053B0009F05A007B10759F483E0828317861686FC
:1053C00010821286138614861586DD24D394B19636
:1053D00083E1E730F80751F60E940D24DD2019F033
:1053E00081E090E005C082E00E942D268FEF9FEFC4
:1053F0001F910F91FF90EF90DF900895EF92FF9231
:105400000F931F93CF93DF93C82FDD27C7FDD09550
:10541000A1E0EA2EF12C012D112D0C2E04C0EE0C72
:10542000FF1C001F111F0A94D2F78091E70690918C
:10543000E806A091E906B091EA068E219F21A023FB
:10544000B1230097A105B10519F48FEF9FEF5DC05F
:105450000E940B24EBE5F2E1A8019701209530951D
:105460004095509580858F3F41F185859685A7852C
:10547000B0898E159F05A007B10739F4118A128AE9
:10548000138A148A178283E0818785859685A7858C
:10549000B08982239323A423B52385879687A78782
:1054A000B08B81899289A389B48982239323A42311
:1054B000B523818B928BA38BB48BB19683E1E030C3
:1054C000F80781F62EEF3FEF4FEF5FEF04C0220F9A
:1054D000331F441F551FCA95D2F78091E70690915C
:1054E000E806A091E906B091EA0682239323A4235B
:1054F000B5238093E7069093E806A093E906B0935E
:10550000EA060E940D2481E090E0DF91CF911F9187
:105510000F91FF90EF9008951F93CF93DF930E9418
:10552000E328182F8F3F11F481E003C0853031F458
:1055300082E00E942D268FEF9FEF3EC00E940B2439
:10554000812F992787FD9095EC01CC0FDD1FC80FA7
:10555000D91FCE5FDC4E8A818823D9F4E0912213D3
:10556000F0912313878182608783E0912213F09169
:105570002313812F992787FD9095A92FB92F818B10
:10558000928BA38BB48B0E940D2480E090E00E944C
:10559000312D8A8181508A83E0912213F091231367
:1055A00089818387E0912213F091231381E0848322
:1055B0000E940D2481E090E0DF91CF911F9108952A
:1055C0009B01AC01E0912213F09123138585968510
:1055D000A785B08982239323A423B5230097A1052F
:1055E000B10529F460E070E080E090E00895218B3F
:1055F000328B438B548B81E087830090121304C05D
:1056000056954795379527950A94D2F7C901817029
:105610009070892B19F00E94CC2C04C080E090E09F
:105620000E94312DE0912213F09123136189728938
:10563000838994890895E0911713F091181380815C
:1056400099270895E0911713F091181303C0038070
:10565000F481E02D3097D9F70895CF93DF93482F49
:10566000C0915912D0915A12209709F47AC0A09192
:105670001713B09118131097B9F1992787FD9095DA
:105680009C0165E0220F331F6A95E1F7280F391F4F
:10569000255A3D4E8C919927BC0155E0660F771F26
:1056A0005A95E1F7680F791F655A7D4EFB01848199
:1056B000882329F09385F90182859817A8F0F901CC
:1056C0008481882331F0FB019285F9018385981745
:1056D00058F0FB019285F9018285981728F0FD01A9
:1056E000A381B4811097B1F64883E0915912F091EB
:1056F0005A122381348130935A1220935912809187
:10570000171390911813A817B907A1F4109731F047
:10571000BC83AB831A821982FD0105C01C821B82E7
:105720001A821982F901D283C183D0931813C093CE
:10573000171317C0FD0181819281A217B30751F0A1
:105740009A838983BC83AB8381819281FC01D4835A
:10575000C38304C01C821B829A838983FD01D28388
:10576000C183DF91CF910895CF93DF93A091171359
:10577000B0911813109709F446C0482F552747FDDC
:1057800050958C9199278417950769F4ED01EB8169
:10579000FC81F0931813E09317131282118216C044
:1057A000D901232B81F18C919927FD01238134812B
:1057B00084179507A9F7C181D2813C832B8383810C
:1057C0009481009719F0FC01D283C183E0915912B2
:1057D000F0915A12309741F4B0935A12A093591293
:1057E000ED011C821B8209C0ED01FC83EB83B283B7
:1057F000A183B0935A12A0935912E0915912F091DB
:105800005A1212821182DF91CF910895E0912213F2
:10581000F09123138085992708950E94EC37E09139
:105820002213F091231385818823B9F70895FF92FD
:105830000F931F93CF93DF93CDB7DEB728970FB6A3
:10584000F894DEBF0FBECDBF29833A834B835C83C0
:105850006D837E838F8398870E94D6270E940B24B6
:10586000E0912213F091231381E0858381E090E0A1
:1058700090A3878F0E942B35F82E29813A814B8186
:105880005C816D817E818F8198850E94792FE09166
:105890002213F09123130F2D1127800F911F968B48
:1058A000858B87EF8F1570F00E94B7340E5F1F4F06
:1058B00099278017910734F08F2D8E5F80936511A3
:1058C0000E94BC340E940D240E940D2C81E090E0C7
:1058D00028960FB6F894DEBF0FBECDBFDF91CF91F3
:1058E0001F910F91FF9008958F929F92AF92BF9258
:1058F000CF92DF92EF92FF920F931F93CF93DF939C
:10590000CDB7DEB760970FB6F894DEBF0FBECDBF40
:1059100029873A874B875C876D877E878F87988B2F
:10592000CE0101960E94DF3089809A80AB80BC80D6
:10593000CD80DE80EF80F88409851A852B853C8533
:105940004D855E856F857889CE0109960E945A2E15
:10595000882319F48FEF9FEF0CC029853A854B857A
:105960005C856D857E858F8598890E94172C81E0E6
:1059700090E060960FB6F894DEBF0FBECDBFDF910A
:10598000CF911F910F91FF90EF90DF90CF90BF903C
:10599000AF909F908F9008951F930E940B24E091E9
:1059A0002213F091231381E0858386830E942B3597
:1059B000182F883F80F40E94B734212F33272E5FA1
:1059C0003F4F99278217930734F0812F8E5F809382
:1059D00065110E94BC340E940D240E940D2C81E0B0
:1059E00090E01F9108951F93CF93DF93CDB7DEB75B
:1059F00028970FB6F894DEBF0FBECDBF29833A8338
:105A00004B835C836D837E838F8398870E940B24F6
:105A10000E942B35182F29813A814B815C816D8141
:105A20007E818F8198850E94792F8330910518F4AB
:105A30008FEF9FEF0CC0E0912213F0912313810FA1
:105A4000911D968B858B0E940D2481E090E0289615
:105A50000FB6F894DEBF0FBECDBFDF91CF911F917F
:105A600008950F931F938C010E940B24E091221341
:105A7000F091231381E08583168B058B0E942B35D3
:105A8000082F883F80F40E94B734202F33272E5FE1
:105A90003F4F99278217930734F0802F8E5F8093B2
:105AA00065110E94BC340E940D240E940D2C81E0DF
:105AB00090E01F910F910895FF920F931F93CF9342
:105AC000DF938C010E940B24E0912213F0912313A9
:105AD00081E085830E942B35F82EE0912213F0910E
