:100000000C9437020C948B350C9456020C945602C7
:100010000C9456020C9456020C9456020C94560200
:100020000C9456020C94B9350C9456020C9456025A
:100030000C9456020C946C330C9456020C946C3352
:100040000C9456020C949F330C9456020C94560256
:100050000C9456020C9456020C9456020C945602C0
:100060000C9456020C9456020C9456020C945602B0
:100070000C9456020C9456020C9456020C945602A0
:100080000C94A9330C9456020C9456020C9456020C
:100090000C9465210C9456020C9456020C94560252
:1000A0000C9456020C9456020C9456020C94560270
:1000B0000C9456020C9456020C9456020C94560260
:1000C0000C9456020C9456020C945602C324C92474
:1000D000CC24CF24D224D524DB24D824DE24E1244C
:1000E000E424EA24ED24F024F324E724C024C624E5
:1000F00043726561746520446F6E650D0A00455258
:10010000524F523A206372656174696E6720706164
:10011000636B6574207265636F7264207369676EC8
:10012000616C206661696C65640D0A0053746172CC
:1001300074696E672075702E2E2E0D0A00534C497F
:1001400050205258206572726F723A206E726B5F47
:100150007369676E616C5F72656769737465720D50
:100160000A00534C4950205258206572726F723AFF
:1001700020476574205369676E616C0D0A00534C0B
:100180004950205458204552524F523A202052652F
:100190006C65617365206F662073656D6170686F53
:1001A0007265206661696C65640D0A00534C4950A4
:1001B000205458204552524F523A202041636365E3
:1001C000737320746F2073656D6170686F72652042
:1001D0006661696C65640D0A0049534120455252BD
:1001E0004F523A206372656174696E67207478209B
:1001F0007369676E616C206661696C65640D0A00E5
:10020000495341204552524F523A206372656174FE
:10021000696E67207278207369676E616C20666111
:10022000696C65640D0A0043433234323020455214
:10023000524F523A202052656C65617365206F669B
:100240002073656D6170686F7265206661696C65A9
:10025000640D0A00434332343230204552524F522B
:100260003A202041636365737320746F2073656D5A
:100270006170686F7265206661696C65640D0A0063
:10028000554E4B4F574E004661696C656420746F44
:10029000206372656174652053656D6170686F726B
:1002A00065004661696C656420746F2063726561E6
:1002B0007465205369676E616C004B65726E656C86
:1002C0002066756E6374696F6E206E6F7420696D41
:1002D000706C656D656E7465640044657669636510
:1002E00020447269766572204572726F72005761A0
:1002F000746368646F67205265737461727400542C
:10030000696D6572204F766572666C6F7700556E09
:1003100068616E646C656420496E74657272757094
:100320007420566563746F72004C6F7720566F6C43
:1003300074616765004578747261205461736B2045
:10034000737461727465642C206973206E726B5FC4
:100350006366672E68206F6B3F0049646C65206F91
:1003600072204B65726E656C20537461636B204F15
:10037000766572666C6F7700556E6578706563742C
:1003800065642052657374617274004475706C69A1
:100390006361746564205461736B20494400536346
:1003A000686564756C6572204D6973736564205768
:1003B000616B657570005461736B20526573657273
:1003C00076652056696F6C6174656400526573656B
:1003D000727665204572726F7220696E2053636871
:1003E0006564756C657200496E76616C6964205352
:1003F0007461636B20506F696E7465720054617331
:100400006B20537461636B204F766572666C6F77F7
:1004100000537461636B20776173206E6F74206486
:100420006566696E6564206173206C617267652022
:10043000656E6F7567682100293A20002A4E524B7D
:10044000204552524F5228000D0A535441434B202D
:1004500044554D500D0A0045464765666700202B00
:100460002D2E303132333435363738396800112487
:100470001FBECFEFD1E2DEBFCDBF13E0A0E0B2E000
:10048000E4EFF6E700E00BBF02C007900D92A43244
:10049000B107D9F71AE0A4E2B3E001C01D92AC3A6B
:1004A000B107E1F70E94B1040C94793B0C94D73367
:1004B00080912905992787FD909508951F93CF93E3
:1004C000DF93EC018B818E3609F07CC0E885E05328
:1004D000E0930207FF279A85DF01AE5ABC4F9C9339
:1004E000E755F74F8081192F181B143148F180E030
:1004F00092E00E94EF380E94CB06E0910207FF27AE
:100500009F938F93FF93EF93812F99279F938F93BF
:10051000E755F74F808199279F938F938A85992775
:100520009F938F938BE092E09F938F930E94D83894
:100530008DB79EB70C960FB6F8949EBF0FBE8DBFB9
:1005400090910207492F55278A85FA01E755F74F01
:100550008083DA01AA5DBB4F2C91210F2C93382F99
:100560003770283050F0FA01EC58FA4F269526954E
:1005700026958081280F20833C93FA01EC58FA4F8E
:1005800080818031A8F4FA0194E0EE0FFF1F9A9564
:10059000E1F7E80FF11DE65DFA4F81E090E002C05F
:1005A000880F991F3A95E2F72081282B20830AC0F3
:1005B000108281E080932905909333038091220477
:1005C0000E94CB27DF91CF911F910895EF92FF9268
:1005D0001F9382EA93E090938503809384038DEFC9
:1005E00096E090938103809380038EEF95E0909343
:1005F00083038093820382E08093870311E010934A
:10060000860310938803109389038AE090E0A0E0AA
:10061000B0E080938A0390938B03A0938C03B093F4
:100620008D0310928E0310928F03109290031092FC
:1006300091031092920310929303109294031092DC
:10064000950380E095E6ADECBDE180939603909331
:100650009703A0939803B093990310929A03109272
:100660009B0310929C0310929D0380E097E8A3E9FE
:10067000B3E080939E0390939F03A093A003B09355
:10068000A1038FE793E00E94412C8FEF94E09093B9
:100690008C0880938B0826E8E22E28E0F22E40E0BA
:1006A00051E069E274E0C7010E94953683E08093CF
:1006B0008E0810938D0810938F081093900884E192
:1006C00090E0A0E0B0E08093910890939208A0930E
:1006D0009308B0939408109295081092960810927F
:1006E0009708109298081092990810929A08109200
:1006F0009B0810929C0810929D0810929E081092E0
:100700009F081092A0081092A1081092A2081092BF
:10071000A3081092A40880E091EEA5EFB5E08093C5
:10072000A5089093A608A093A708B093A808C701AE
:100730000E94412C80EF90E00E9452211F91FF9077
:10074000EF9008954F925F926F927F928F929F9257
:10075000AF92BF92CF92DF92EF92FF920F931F93CF
:10076000CF93DF93CDB7DEB722970FB6F894DEBFF5
:100770000FBECDBF0E94432A99279F938F938CE190
:1007800092E09F938F930E94D8388BE292E09F93E0
:100790008F930E94D83883E090E00E94A42081E0EB
:1007A00090E00E94A42081E090E00E94CF0640E00B
:1007B00060E082E00E946D0D60E082E00E94460FE2
:1007C00083E10E94450C0E94290764E789E895E0CF
:1007D0000E94190781E090E00E94AB0682E090E061
:1007E0000E94AB068DB79EB706960FB6F8949EBFD3
:1007F0000FBE8DBF02C00E94032C0E940F078823EA
:10080000D1F383E392E09F938F930E94D8380E94A4
:100810003626809322040F900F908F3F09F47EC0FC
:10082000E090B802FF2460E4462E62E0562E52E0CB
:10083000652E712C6C0E7D1E4E010894811C911C3E
:1008400002E217E048E6A42E42E0B42E3DEFC32EAC
:100850003FEFD32EC00ED11E2091280330912903E3
:10086000C90168EE73E00E94E53A892BD1F48091CA
:100870002C0390912D039F938F9380912A03909145
:100880002B039F938F933F932F935F924F920E94DE
:10089000D8388DB79EB708960FB6F8949EBF0FBE96
:1008A0008DBF8E2D0E94EE1C0E948B07882341F085
:1008B000B301C4010E94360E0E945E020E9491079D
:1008C00082E00E94C807882331F58F2D9927F39481
:1008D0009F938F931F921F92BF92AF921F930F937C
:1008E0000E942239F80101900020E9F7E352F74015
:1008F000EC5FE98380E00E942D0722E0482F6981A8
:10090000C6010E949A078DB79EB708960FB6F89455
:100910009EBF0FBE8DBF0E941C0C9ECF8EEF90E03D
:100920000E945221E091730AF091740A60858EE072
:100930000E942F2522960FB6F894DEBF0FBECDBFC2
:10094000DF91CF911F910F91FF90EF90DF90CF90AB
:10095000BF90AF909F908F907F906F905F904F90DF
:100960000895CFEFD1E2DEBFCDBF0E94E71C87E044
:1009700090E00E941C218CE291E00E9452210E9492
:10098000DA2380E090E00E94872081E090E00E94DE
:10099000872082E090E00E94872083E090E00E9420
:1009A000872020E030E040E050E060E070E080E050
:1009B00090E00E94A52D0E94E5070E94E6020E9499
:1009C0007A2380E090E00C94793B809122040E948D
:1009D000BF2680912905882379F461E070E080E0EA
:1009E00090E00090220404C0660F771F881F991FB3
:1009F0000A94D2F70E941D2981E090E00895AF92F9
:100A0000BF92CF92DF92FF920F931F93CF93DF930A
:100A10006091A40A7091A50A20E040E08091A20AAA
:100A20009091A30A0E9488060E94E504F090AD020E
:100A30000BE515E0E80121975E01B3E7CB2EB2E0AC
:100A4000DB2E8F2D0E94EE1C809133038F5F8093ED
:100A50005A058150E82FFF27A4E0EE0FFF1FAA954B
:100A6000E1F7E65DFA4FD80181919AEA89278D93E3
:100A700085E0AB36B807C1F7F50101900020E9F732
:100A80003197EA55F5406E2FCE010E94350610923F
:100A9000290580913303282F3327F90174E0EE0FE5
:100AA000FF1F7A95E1F7E65DFA4F80E011928F5FC4
:100AB0008031E1F780912304909124049F938F93D8
:100AC0003F932F93DF92CF920E94D8388F2D0E94B0
:100AD000731D0E94E5048DB79EB706960FB6F89475
:100AE0009EBF0FBE8DBFADCF80917E02992787FD3F
:100AF000909508958091B2089091B3080E9468384B
:100B0000992708958F929F92AF92BF92CF92DF92D2
:100B1000EF92FF920F931F93CF93DF93EC01862EFA
:100B20000E944521D82E8FEFD81621F482E691E05D
:100B30000E9452218D2D0E94BF268F3F71F48DE3BC
:100B400091E00E94522109C08091A20A9091A30ACB
:100B50000E946838813C91F00CC081E0E82EF12CB5
:100B6000012D112D04C0EE0CFF1C001F111FDA9483
:100B7000D2F781E00E94B51C882331F75701680144
:100B8000C801B7010E941D298091A20A9091A30A71
:100B90000E946838982E81EC981659F70E947A05C1
:100BA000F82E10E000E02BC08091A20A9091A30AD9
:100BB0000E946838803C19F08B3D59F015C0112314
:100BC00041F10F77901629F5812F992787FD909590
:100BD00022C081E00E94B51C882321F4C601B50122
:100BE0000E941D290E947A05982E181540F41F15A1
:100BF00030F4FE01E10FF11D80831F5F080F81E0DB
:100C00000E94B51C882381F6C601B5010E941D29EA
:100C1000F6CF8FEF9FEFDF91CF911F910F91FF9054
:100C2000EF90DF90CF90BF90AF909F908F900895FE
:100C30001F93182F2091AC08222369F0332788EEE8
:100C400093E0AC01249FC001259F900D349F900D2F
:100C500011240E94A2326091AD087091AE08812FDC
:100C600099270E94AB381F910895FF920F931F930D
:100C7000CF93DF93EC01162F613810F083E03EC074
:100C80008091AF089091B0080E94C9288F3F31F43D
:100C90008CEA91E00E94522181E030C081EC0E94F8
:100CA0001806812F0E941806FF2400E00EC08881DC
:100CB000803C11F08B3D19F48BED0E941806888161
:100CC0000E9418068991080FF394F11681F7802F7E
:100CD0008F770E94180680EC0E9418068091AF085A
:100CE0009091B0080E9477278F3F19F081E090E043
:100CF00009C08EE791E00E94522182E00E946A249E
:100D00008FEF9FEFDF91CF911F910F91FF9008958B
:100D10009093B3088093B2087093AE086093AD08C7
:100D20004093B1082093AC086FEF81E00E94F82651
:100D30009093B0088093AF088F5F9F4F31F40E946B
:100D4000432A682F8FE00E942F2581E080937E0246
:100D500081E090E0089521E030E040E050E004C000
:100D6000220F331F441F551F8A95D2F780912E03FF
:100D700090912F03A0913003B0913103822B932BDC
:100D8000A42BB52B80932E0390932F03A0933003B5
:100D9000B0933103089580914703992708958130D6
:100DA00019F08330D9F531C083E18093F6088CE0E7
:100DB0008093F70884E18093F80888E18093F9082C
:100DC00080E18093FA0887E18093FB0882E18093B9
:100DD000FC0889E18093FD088EE08093FE0885E1A0
:100DE0008093FF088BE0809300098FE080930109D6
:100DF00086E18093020981E1809303098DE080936D
:100E000004098AE18093050908958FE08093F10831
:100E100084E18093F20889E18093F308089580913A
:100E20001E07813019F481E090E008958FEF9FEF65
:100E30000895662359F0009749F090933A03809300
:100E400039036093380381E090E008958FEF9FEFBE
:100E5000089582E080931E070895282F853049F079
:100E60008091260390912703019690932703809306
:100E7000260380918805823070F48091260390913A
:100E8000270368EC70E00E94E53A892B21F42530B5
:100E900011F085EE01C081EE992787FD90950895A8
:100EA000882311F083E801C083E0992787FD90959E
:100EB00008958F92AF92CF92EF920F93CF93DF93DB
:100EC000CDB7DEB71092D4089AE09093DB08109269
:100ED000DC088093DD086093DE084093DF08109201
:100EE000E0082093E7080093E808E092E908C09240
:100EF000EA08A092EB088092EC088A858093ED08BE
:100F00008B858093EE08DF91CF910F91EF90CF907A
:100F1000AF908F90089580910008992787FD909554
:100F20000895109200081092010810920208109281
:100F3000030808953327F901EE0FFF1FEE0FFF1F7F
:100F4000E556F84F938382836083418341E050E00C
:100F500060E070E004C0440F551F661F771F2A959C
:100F6000D2F780914E0390914F03A0915003B0911E
:100F70005103842B952BA62BB72B80934E03909374
:100F80004F03A0935003B093510381E090E0089584
:100F900020914E0330914F034091500350915103E3
:100FA00004C056954795379527958A95D2F7C9017C
:100FB00081709070089580916B05813019F481E003
:100FC00090E008958FEF9FEF08950F931F938AE4A9
:100FD0009CE090936203809361030CE513E040E88A
:100FE00050E062EA73E0C8010E94953684E1809384
:100FF000640381E0809363038093650380936603B9
:1010000010926703109268031092690310926A03AA
:1010100080E896E9A8E9B0E080936B0390936C03B5
:10102000A0936D03B0936E0310926F031092700340
:101030001092710310927203109273031092740352
:101040001092750310927603109277031092780332
:101050001092790310927A0310927B0310927C0312
:1010600010927D0310927E03C8010E94412C1F91B3
:101070000F910895CF92DF92EF92FF920F931F93FB
:10108000CF93DF93EE24FF2444E3C42E43E0D42E19
:101090000091390310913A0380E00E942D07F80176
:1010A000808360914703C6010E94571B0E947A16F5
:1010B0001092D1088AEF0E94F93280E00E94DE325D
:1010C00010E012C00E946833181771F00E94683354
:1010D000182F0894E11CF11CF1E1EF16F7E2FF066E
:1010E00018F0EE24FF2405C00E940813082F88235F
:1010F00049F30E94B0320E946833C82FDD2724963E
:10110000002371F006C00E9468339927C817D907D9
:1011100038F060E880E00E94ED13082F882399F3EF
:101120000E946216013009F0B3CFE0913903F091CB
:101130003A03928180912504981709F0A9CF81E0A4
:1011400090E0A0E0B0E08093000890930108A093A5
:101150000208B09303088091C4089091C5082181CA
:10116000820F911D9093C5088093C40882E090E09F
:101170000E946A206091A40A7091A50A89E690E015
:101180000E94AB380093D108109200081092010819
:1011900010920208109203080E94D3328AE00E9443
:1011A000F93287E00E94DE3260E571E980E090E08C
:1011B0000E94ED330E94E132E091730AF091740ACB
:1011C0008AE090E0968B858B8091D1089927DF91FA
:1011D000CF911F910F91FF90EF90DF90CF900895E6
:1011E000FF920F931F93CF93DF93CDB7DEB7219775
:1011F0000FB6F894DEBF0FBECDBFF82E6091470347
:1012000084E393E00E94571B0E947A160091B70274
:10121000802F0E94EE1C0E946833898389818C5F35
:1012200089831FC00E94683399819817D0F4802F5A
:101230000E94731D0E946216802F0E94EE1C802F58
:101240000E94731D6091A40A7091A50A86E790E040
:101250000E94AB388F2D99279F938F938FE792E051
:1012600044C00E9408138823E9F20E94B832909388
:10127000D3088093D2080E946833898389818B5F69
:10128000898317C00E9468339981981790F482E887
:1012900092E09F938F930E94D83880912C03909175
:1012A0002D03019690932D0380932C030F900F90A4
:1012B000A8C060E880E00E94ED13182F882311F386
:1012C000802F0E94731D0E946216113001F16091FF
:1012D000A40A7091A50A82E690E00E94AB38812FA3
:1012E00099279F938F9383EA92E09F938F930E9415
:1012F000D83880912C0390912D03019690932D0363
:1013000080932C030F900F900F900F907AC08091D4
:101310002A0390912B03019690932B0380932A0329
:1013200081E090E00E946A2087E0F81661F081E099
:1013300090E0A0E0B0E08093000890930108A093B3
:101340000208B0930308E0913903F0913A038081D9
:101350008093FD058091B4080E94CB272091FD0564
:1013600027FF4FC080912803909129030196909305
:1013700029038093280322FF02C083E801C083E091
:10138000809307098093930783E997E0909359032B
:101390008093580322FF1EC06091A40A7091A50A91
:1013A0008BE490E00E94AB388091D2089091D308F2
:1013B0002091C0083091C108821B930B9093BD0807
:1013C0008093BC08292F3327209394078093950797
:1013D00084E001C082E080935703802F0E94EE1CBE
:1013E0004091490350914A036091C0087091C1082F
:1013F0002DEC38E085E593E00E949018802F0E9444
:10140000731D21960FB6F894DEBF0FBECDBFDF91DE
:10141000CF911F910F91FF900895AF92BF92CF92FD
:10142000DF92EF92FF920F931F93CF93DF93CDB78D
:10143000DEB721970FB6F894DEBF0FBECDBFE82E02
:1014400081E0809342030E2D1127F801EE0FFF1F5C
:10145000EE0FFF1FE556F84F828193819093410371
:1014600080934003808180933F03A0914003B0911B
:10147000410381818C93E0914003F091410380917D
:10148000C4089091C5088183E0914003F091410325
:101490008091320382830E94B03260E875E280E07E
:1014A00090E00E94ED33D090AD028D2D0E94EE1C95
:1014B0004091490350914A036091C0087091C1085E
:1014C0002DEC38E08DE393E00E9490188823F1F032
:1014D000809128039091290301969093290380938A
:1014E00028038D2D0E94731D83E090E00E946A20E6
:1014F0008091CD089091CE082091C0083091C1080C
:10150000821B930B9093BB088093BA088091C2080A
:101510000E94CB2781E090E0A0E0B0E0002E04C064
:10152000880F991FAA1FBB1F0A94D2F78095909528
:10153000A095B09520914E0330914F0340915003F8
:1015400050915103282339234A235B2320934E03D0
:1015500030934F0340935003509351038091FD0506
:1015600087FF59C10E947A168D2D0E94EE1C0E94A1
:10157000B03260E070E180E090E00E94ED330E94C4
:101580006833898389818E5F89834AC00E9468336A
:101590009981981708F044C08091BF08E81651F46B
:1015A00080910809909109094996909309098093BF
:1015B000080913C0E81A20910809309109094E2D35
:1015C000552747FD50951E1414F0275E3F4F240FFA
:1015D000351F30930909209308090E9462168D2D4A
:1015E0000E94731D6091A40A7091A50A83E790E0A0
:1015F0000E94AB381F930F938FE792E09F938F93D6
:101600000E94D83880912C0390912D0301969093DD
:101610002D0380932C030F900F900F900F90FBC021
:101620000E940813882309F4B1CF0E94683389838C
:1016300089818E5F898385E0E81661F080912603B9
:101640009091270368EC70E00E94E53A892B11F431
:1016500014E001C012E0809188058230E9F412E0C4
:101660001BC00E94683399819817B0F482E892E019
:101670009F938F930E94D83880912C0390912D03D3
:10168000019690932D0380932C030E9468338093DE
:10169000B5080F900F90BFC0612F81E00E94ED133D
:1016A000082F8823F1F2813009F4B2C06091A40AB6
:1016B0007091A50A86E690E00E94AB3880912C03D9
:1016C00090912D03019690932D0380932C038D2DE3
:1016D0000E94731D013009F09EC080912A039091F1
:1016E0002B03019690932B0380932A0310920909F0
:1016F00010920809E0913903F0913A039081909398
:1017000007098091FD0587FF86C097FF84C081810E
:101710009927982F882722813327822B932B909308
:10172000BD088093BC0880E090E00E946A20609130
:10173000A40A7091A50A81E690E00E94AB38C0909F
:10174000BC08D090BD088091BA089091BB08C81A17
:10175000D90A82E389830E946833B82EA090B70229
:101760008A2D0E94EE1CD7FC30C0B092B5080E94B2
:10177000D33264E6E62E69E1F62EC60164E679E12D
:101780000E94F93A8B010F5F0093C708C60164E617
:1017900079E10E94F93AE81AF90AF092CC08E0924D
:1017A000CB080E94B03282E390E00E94A232B701DF
:1017B00080E090E00E94ED338B2D800F0E94DE329E
:1017C00084E690E00E94A23217C06091A40A709152
:1017D000A50A81E290E00E94AB380E94D3320E94B9
:1017E000B032662777276C197D0980E090E00E946F
:1017F000ED338B2D0E94DE320E94E1320E94B03226
:1018000082E390E00E94A2328A2D0E94731D03C0E1
:101810000E9462165CCF21960FB6F894DEBF0FBE11
:10182000CDBFDF91CF911F910F91FF90EF90DF908F
:10183000CF90BF90AF9008958091B4080E94BF26CA
:101840008091C2080E94BF2621E030E040E050E0D5
:10185000CA01B9010090C20804C0660F771F881F33
:10186000991F0A94D2F70090B40804C0220F331FC6
:10187000441F551F0A94D2F7622B732B842B952B90
:101880000E941D2981E090E00895809347030E9403
:10189000811B0895BF92CF92DF92EF92FF920F9338
:1018A0001F93CF93DF9310921E070E94032C809109
:1018B0001E078823D1F381E080931E07B090AD020C
:1018C000CC24DD248B2D0E94EE1C8B2D0E94731DD9
:1018D0000E94B0320E94B8329093C1088093C00831
:1018E0008091C4089091C5089093D0088093CF0848
:1018F0008091C4089091C5088536910598F0809133
:10190000C4089091C508845690409093C508809370
:10191000C4088091B8089091B90801969093B908CD
:101920008093B8082091C4083091C5088091D108EF
:10193000813009F064C0C90169E170E00E94E53AB4
:10194000EC01B1E0EB2EF12C012D112D04C0EE0CB9
:10195000FF1C001F111F8A95D2F7E091C308EC0D00
:10196000E093C308FF27EF70F070EA50F74F8081D3
:101970008093F5080E94450C8091FE069091FF0629
:10198000A0910007B091010720914E0330914F03C1
:10199000409150035091510382239323A423B523F4
:1019A0008E219F21A023B1230097A105B10531F01D
:1019B0008C2F0E940D0AC093BF0834C0809170051F
:1019C00090917105A0917205B0917305E822F922FA
:1019D0000A231B23E114F1040105110519F180917B
:1019E000000890910108A0910208B09103080097A7
:1019F000A105B105B9F48C2F0E94F00813C080E056
:101A00000E942D078093FD0580918805823039F072
:101A100010922703109226030E943A0801C081E029
:101A20008093D10820910809309109098091AA0278
:101A30009091AB022817390778F1809188058230A0
:101A400059F11092D10810920909109208091092C8
:101A5000C5081092C4088091230490912404019633
:101A6000909324048093230480913203882349F0C7
:101A7000E0912504E093C308FF27EA50F74F8081E7
:101A800004C01092C3088091F6088093F5088091F5
:101A9000F5080E94450C14CF8091C4089091C508A8
:101AA0000E94E20F6C018091C4089091C5088C0DD2
:101AB0009D1D9093C5088093C40880E090E00E942B
:101AC00087201092BB081092BA08C6010E94D02B42
:101AD00080E090E00E94A420F5CEFF920F931F9328
:101AE000082FF62E142F0E9436268093B4088F3FBD
:101AF00019F480E092E008C00E9436268093C20864
:101B00008F3F79F489ED91E00E945221E091730AB0
:101B1000F091740A60858EE00E942F258FEF90E08F
:101B200087C010923A0310923903109238030E9432
:101B3000AC321092B9081092B80884E690E0909305
:101B4000C5088093C4081092D10810926B051092BA
:101B500009091092080900938805F0923203109346
:101B600025041092000810920108109202081092A9
:101B7000030810924E0310924F03109250031092DC
:101B8000510384E680934D0380E49FE190934C03DE
:101B900080934B0380EA9FE090934A03809349032C
:101BA0008FE08093470381E899E190934603809307
:101BB0004503E5E0F7E0119287E0EE31F807D9F749
:101BC00010927005109271051092720510927305B3
:101BD0001092FE061092FF06109200071092010765
:101BE00021E839E141E254E26FE084E393E00E94AE
:101BF000941B81E08093BE081092CA08FF2041F038
:101C00001093C308E12FFF27EA50F74F808104C0EB
:101C10001092C3088091F6088093F5088091F5082A
:101C20000E94450C109224041092230481E090E05D
:101C30001F910F91FF9008958091B4080E94BF26D4
:101C400080910008882379F461E070E080E090E002
:101C50000090B40804C0660F771F881F991F0A946C
:101C6000D2F70E941D2981E090E00895FC01DB017C
:101C700080910008882329F410821C9280E090E073
:101C8000089580913703808380913C038C938091E9
:101C9000390390913A030895CF92DF92EF92FF9229
:101CA0000F931F93CF93DF93EE24FF2414E3C12EF1
:101CB00013E0D12E60914703C6010E94571B0E947A
:101CC0007A161092D10800E012C00E9468330817FB
:101CD00071F00E946833082F0894E11CF11C81E127
:101CE000E81687E2F80618F0EE24FF2405C00E94EB
:101CF0000813182F882349F30E946833C82FDD2763
:101D00002496112371F006C00E9468339927C817E2
:101D1000D90738F060E880E00E94ED13182F88237F
:101D200099F30E946216113029F6E0913903F0917F
:101D30003A0384858A3009F0BDCF81E090E0A0E0CD
:101D4000B0E08093000890930108A0930208B0933C
:101D5000030886850E94CF06E0913903F0913A038B
:101D6000E785E093C308FF27EA50F74F808180930F
:101D7000F5080E94450C0091390310913A03E801DF
:101D800067E977E0888D882371F121E030E040E059
:101D900050E004C0220F331F441F551F8A95D2F70D
:101DA0008091FE069091FF06A0910007B091010777
:101DB000822B932BA42BB52B8093FE069093FF06CA
:101DC000A0930007B0930107E88DFF27EB5FF84F62
:101DD00081E08083888DFB018193BF012196F7E02C
:101DE0006B397F0779F6E80160E08C8D882349F133
:101DF00021E030E040E050E004C0220F331F441FD8
:101E0000551F8A95D2F78091700590917105A09128
:101E10007205B0917305822B932BA42BB52B809365
:101E2000700590937105A0937205B0937305EC8DC6
:101E3000FF27EB5FF84F81E080836F5F219664306E
:101E4000A1F681E090E0A0E0B0E00090B40804C00A
:101E5000880F991FAA1FBB1F0A94D2F70E94CB2795
:101E600081E080936B051092000810920108109297
:101E700002081092030881E090E0DF91CF911F915A
:101E80000F91FF90EF90DF90CF900895782F60939F
:101E90002504823041F58091FE069091FF06A091C5
:101EA0000007B091010784608093FE069093FF06BF
:101EB000A0930007B0930107809170059091710580
:101EC000A0917205B091730588608093700590931E
:101ED0007105A0937205B093730581E080930707A5
:101EE0008093080756C0813059F5209170053091D4
:101EF000710540917205509173058091FE06909195
:101F0000FF06A0910007B091010788628093FE064A
:101F10009093FF06A0930007B093010724682093D5
:101F2000700530937105409372055093730570935B
:101F3000070770930C0770930A077093080729C06E
:101F4000882339F58091FE069091FF06A091000745
:101F5000B091010782608093FE069093FF06A093E4
:101F60000007B09301078091700590917105A091D1
:101F70007205B0917305806180937005909371052F
:101F8000A0937205B093730581E080930607809358
:101F9000090781E090E008958A3118F08FEF9FEFF4
:101FA0000895E82FFF27EB5FF84F8081992787FD81
:101FB00090950895E5E0F7E0119287E0EE31F8079B
:101FC000D9F7089569E170E00E94E53A682F482F3B
:101FD0000CC0242F3327F901EB5FF84F8081882351
:101FE00021F0C901861B910908954F5F493188F39B
:101FF00020E030E0422F5527FA01EB5FF84F808157
:10200000882339F089E190E0861B9109840F951FA0
:1020100008952F5F3F4F621768F70895EAE7F0E0F1
:1020200083E08083ACE7B0E080E48C9380818068BB
:10203000808310920B098C91807E8C939C918C9163
:10204000807E892B8C93089588EC90E00E94A232C8
:10205000089580917A00806480937A0080917A005C
:1020600084FFFCCF0E9424102091780033278091B8
:1020700079009927982F8827822B932B0895FF9218
:102080000F931F93CF93DF93CDB7DEB722970FB691
:10209000F894DEBF0FBECDBF0E947F128C01009767
:1020A00011F00E94C928159AFF248F2D806299276C
:1020B0009A83898340988BE18EBD0DB407FEFDCFD6
:1020C00089819A81892F99278EBD0DB407FEFDCF96
:1020D00089819A818EBD0DB407FEFDCF409A82E0C2
:1020E00090E00E94A23240988BE58EBD0DB407FEB1
:1020F000FDCF1EBC0DB407FEFDCF8EB59927982FDE
:1021000088279A8389831EBC0DB407FEFDCF898181
:102110009A812EB53327282B392B3A832983409A6D
:1021200089819A8186FD05C0F3942FE1F21609F0AA
:10213000BCCF0115110519F0C8010E947727FF20B7
:10214000C9F40E9429109A83898389819A818F3AE0
:10215000910530F089819A818E5A90409A838983C3
:1021600089819A818A54914098F48AE491E09A8313
:1021700089830EC02DE7F29E9001112488E293E23C
:10218000821B930B6BE170E00E94F93A7A836983BA
:1021900089819A8122960FB6F894DEBF0FBECDBF1B
:1021A000DF91CF911F910F91FF900895CF92DF9211
:1021B000EF92FF920F931F93CF93DF93982FEA0133
:1021C000122F823009F481C0833030F4882371F0FB
:1021D000813009F0D2C010C0843009F481C084304D
:1021E00008F477C0853009F0C8C02DC080E880BBF6
:1021F0008F9A0E940E106AC080910A09813009F4FA
:10220000C3C090930A09772760FF13C08F9810927C
:102210000B0980917C00807E80937C0090917C00F3
:1022200080917C00807E892B80937C0088EE93E0F7
:102230009FC061FDA9C062FDA7C067707070672B69
:1022400009F4A2C097C0822F8150823008F099C053
:1022500090910B09892F8150863018F40E94291023
:1022600022C0992319F40E943F101DC0973051F5E8
:10227000F1E0CF2EF4E0DF2EEE24FF2400E00E94F8
:1022800029108C159D0508F46C01E816F90608F470
:102290007C018DE790E00E94A2320F5F003479F755
:1022A000C7018C199D09123031F48883892F992731
:1022B000898381E008C0113029F496958795969519
:1022C0008795888380E08F5F09C08F9A10920A09F2
:1022D00051C0613009F058C080910B09992756C050
:1022E000613009F051C02730D9F420930B09809157
:1022F0007C008F7780937C0080917C008064809349
:102300007C0080917C00807E80937C0090917C009A
:1023100080917C009360807E982B90937C0026C0F7
:10232000283020F081E00E946A242EC020930B09FF
:10233000213049F480917C008F7780937C008091DC
:102340007C00806403C080917C00806C80937C0062
:1023500080917C00807E80937C0090917C008091B5
:102360007C00807E892B812B80937C0088EC90E020
:102370000E94A23281E090E009C060E08CE00E94FF
:102380002F2580E090E002C08FEF90E0DF91CF91A9
:102390001F910F91FF90EF90DF90CF9008959927B4
:1023A0009C01265A3E4B0B97880F991F880F991F47
:1023B000280F391FF894409888E18EBD0DB407FEB0
:1023C000FDCF832F99278EBD0DB407FEFDCF2EBD07
:1023D0000DB407FEFDCF409A78940895F894409884
:1023E0001EBC0DB407FEFDCF8EB5409A789486FFD3
:1023F000F5CF08958091210999270895CF93DF9310
:10240000DC01409889EC8EBD0DB407FEFDCF80E85D
:102410008EBD0DB407FEFDCF92E09150FD01E90F96
:10242000F11D80818EBD0DB407FEFDCF9923A9F764
:10243000409A40988BEC8EBD0DB407FEFDCF80E82E
:102440008EBD0DB407FEFDCF92E09D012E5F3F4F84
:10245000E9019150F901E90FF11D80818EBD0DB4A4
:1024600007FEFDCF9923A1F7409A8C918093220912
:10247000FD018181809323098881809324098381D0
:1024800080932509DF91CF910895409889E18EBD11
:102490000DB407FEFDCF83E08EBD0DB407FEFDCF6A
:1024A00086E08EBD0DB407FEFDCF409A40988AE1CC
:1024B0008EBD0DB407FEFDCF8EE08EBD0DB407FEC0
:1024C000FDCF8EE08EBD0DB407FEFDCF409A81E0BA
:1024D000809312090895409889E18EBD0DB407FEDE
:1024E000FDCF81E08EBD0DB407FEFDCF84EC8EBD27
:1024F0000DB407FEFDCF409A109212090895809105
:10250000100990911109089520911309309114092F
:1025100038603093140920931309409881E18EBDEF
:102520000DB407FEFDCF832F99278EBD0DB407FE96
:10253000FDCF2EBD0DB407FEFDCF409A089520912A
:10254000130930911409377F30931409209313092C
:10255000409881E18EBD0DB407FEFDCF832F9927F2
:102560008EBD0DB407FEFDCF2EBD0DB407FEFDCF11
:10257000409A089581E080932009209113093091B9
:10258000140920613093140920931309409881E1C4
:102590008EBD0DB407FEFDCF832F99278EBD0DB4E0
:1025A00007FEFDCF2EBD0DB407FEFDCF409A089566
:1025B0001092200920911309309114092F7E309335
:1025C000140920931309409881E18EBD0DB407FED4
:1025D000FDCF832F99278EBD0DB407FEFDCF2EBDF5
:1025E0000DB407FEFDCF409A089589B1992766E0A2
:1025F000969587956A95E1F78170907008958CB1F2
:10260000992787FD90958827990F881F9927089506
:1026100089B19927E6E096958795EA95E1F781706B
:102620009070089580912609882319F480E090E045
:1026300008958091260910922609992787FD909583
:102640000895409888E08EBD0DB407FEFDCF409AF6
:10265000409888E08EBD0DB407FEFDCF409A0895E6
:1026600080911009909111090E94C928409886E034
:102670008EBD0DB407FEFDCF409A80911009909158
:1026800011090E94772708958091100990911109EE
:102690000E94C928409884E08EBD0DB407FEFDCF8E
:1026A000409A80911009909111090E94772708950E
:1026B00080911009909111090E94C928409886E0E4
:1026C0008EBD0DB407FEFDCF409A409882E18EBDCD
:1026D0000DB407FEFDCF85E08EBD0DB407FEFDCF26
:1026E0001EBC0DB407FEFDCF409A40988EE28EBD11
:1026F0000DB407FEFDCF1EBC0DB407FEFDCF1EBC02
:102700000DB407FEFDCF409A0E942113809110095D
:10271000909111090E947727089580911009909156
:1027200011090E94C928409886E08EBD0DB407FEAD
:10273000FDCF409A409882E18EBD0DB407FEFDCFDB
:1027400085E08EBD0DB407FEFDCF88E08EBD0DB4D3
:1027500007FEFDCF409A40988EE28EBD0DB407FE75
:10276000FDCF88E18EBD0DB407FEFDCF1EBC0DB4BC
:1027700007FEFDCF409A0E9421138091100990918D
:1027800011090E94772708950F931F93082F8091B6
:102790001009909111090E94C928112707FD109571
:1027A000302F22272068409883E18EBD0DB407FEAC
:1027B000FDCF832F99278EBD0DB407FEFDCF2EBD13
:1027C0000DB407FEFDCF409A809110099091110938
:1027D0000E9477271F910F9108950F931F93CF9316
:1027E000DF93CDB7DEB724970FB6F894DEBF0FBEE8
:1027F000CDBF182F062F80911009909111090E94CA
:10280000C928679B4CC210922109679B25C031994A
:1028100023C040988FE78EBD0DB407FEFDCF1EBCD0
:102820000DB407FEFDCF8EB5409A409888E08EBD6E
:102830000DB407FEFDCF409A409888E08EBD0DB4E0
:1028400007FEFDCF409A80911009909111090E94D6
:1028500077278FEF9FEF2BC240988FE78EBD0DB487
:1028600007FEFDCF1EBC0DB407FEFDCF4EB5409A4E
:102870004F7719F540988FE78EBD0DB407FEFDCF59
:102880001EBC0DB407FEFDCF8EB5409A409888E07F
:102890008EBD0DB407FEFDCF409A409888E08EBDF6
:1028A0000DB407FEFDCF409A809110099091110957
:1028B0000E9477278EEF9FEFFAC145308CF0E091B0
:1028C0001509F0911609242F332727FD30952B5039
:1028D00030408481992787FD909582179307F4F5FE
:1028E00040988FE78EBD0DB407FEFDCF60E070E02D
:1028F000242F332727FD309506C01EBC0DB407FEDC
:10290000FDCF6F5F7F4F862F99278217930714F4AF
:102910003199F3CF409A40988FE78EBD0DB407FEF2
:10292000FDCF1EBC0DB407FEFDCF8EB5409A40987A
:1029300088E08EBD0DB407FEFDCF409A409888E038
:102940008EBD0DB407FEFDCF409A80911009909185
:1029500011090E9477278DEF9FEFA9C1E09115091A
:10296000F09116094C5043831123B1F0E091150901
:10297000F09116098381992787FD9095202F3327A1
:102980008217930749F080911009909111090E94D4
:1029900077278AEF9FEF8BC140988FE78EBD0DB4EC
:1029A00007FEFDCFFE0131969E012D5F3F4F1EBCFD
:1029B0000DB407FEFDCF8EB58193E217F307B9F78B
:1029C000409AE0911509F091160989819A81B5E044
:1029D00096958795BA95E1F78170878340988FE740
:1029E0008EBD0DB407FEFDCF1EBC0DB407FEFDCF9E
:1029F000E0911509F09116098EB58083409A4098B0
:102A00008FE78EBD0DB407FEFDCF80E007C01EBC72
:102A10000DB407FEFDCF8F5F843011F03199F7CFF1
:102A2000409A40988FE78EBD0DB407FEFDCF20E0A1
:102A300030E01EBC0DB407FEFDCFE0911509F0910A
:102A40001609E20FF31F8EB581832F5F3F4F2230AF
:102A5000310579F7409A89819A8183FF56C0409861
:102A60008FE78EBD0DB407FEFDCFECE0F9E01EBC94
:102A70000DB407FEFDCF8EB5819389E0E031F807F4
:102A8000B1F7409A409889E98EBD0DB407FEFDCF9D
:102A900080E88EBD0DB407FEFDCF92E09150E92F86
:102AA000FF27E45FF64F80818EBD0DB407FEFDCF9A
:102AB0009923A1F7409A40988BE98EBD0DB407FE8B
:102AC000FDCF80E88EBD0DB407FEFDCF92E09150A2
:102AD000E92FFF27E25FF64F80818EBD0DB407FE20
:102AE000FDCF9923A1F7409A40988CE08EBD0DB49C
:102AF00007FEFDCF409A81E080932109E0911509FE
:102B0000F091160983818450838340988FE78EBDAE
:102B10000DB407FEFDCF40E050E011C01EBC0DB467
:102B200007FEFDCFE0911509F09116090580F681A9
:102B3000E02DE60FF11D8EB580834F5F5F4F642F50
:102B4000E0911509F0911609242F332783819927E5
:102B500087FD9095281739070CF3409A40988FE726
:102B60008EBD0DB407FC0AC0FCCF0DB407FEFDCF2F
:102B70005EB5409A40988FE78EBD02C01EBCF5CF6F
:102B80000DB407FEFDCFFE0133969E012B5F3F4F34
:102B90001EBC0DB407FEFDCF8EB58193E217F3077F
:102BA000B9F7409AE0911509F09116098B81808759
:102BB00040E020E030E00AC0E0911509F0911609EC
:102BC00085819681A80FB91F8C91480F822FE091C3
:102BD0001509F09116092F5F3F4FA82FBB2783815E
:102BE000992787FD9095A817B90734F3451719F170
:102BF00040988FE78EBD0DB407FEFDCF1EBC0DB40F
:102C000007FEFDCF8EB5409A409888E08EBD0DB48A
:102C100007FEFDCF409A409888E08EBD0DB407FEB8
:102C2000FDCF409A80911009909111090E94772759
:102C30008CEF9FEF3CC08C8187FF0EC080912609EE
:102C40008F5F8093260980911009909111090E944D
:102C5000772781E090E02BC040988FE78EBD0DB4C0
:102C600007FEFDCF1EBC0DB407FEFDCF8EB5409A0A
:102C7000409888E08EBD0DB407FEFDCF409A409885
:102C800088E08EBD0DB407FEFDCF409A80911009FB
:102C9000909111090E9477278BEF9FEF08C08091D8
:102CA0001009909111090E94772780E090E0249606
:102CB0000FB6F894DEBF0FBECDBFDF91CF911F914D
:102CC0000F91089580911009909111090E94C928CF
:102CD00010921D09409886E08EBD0DB407FEFDCF11
:102CE000409A1092260980911009909111090E9432
:102CF0007727089580911009909111090E94C928A1
:102D000081E080931D09409883E08EBD0DB407FEDD
:102D1000FDCF409A409888E08EBD0DB407FEFDCFF0
:102D2000409A1092260980911009909111090E94F1
:102D30007727089580911009909111090E94C92860
:102D400081E080931D09409883E08EBD0DB407FE9D
:102D5000FDCF409A409888E08EBD0DB407FEFDCFB0
:102D6000409A1092260980911009909111090E94B1
:102D7000772708951F93182F8091100990911109BA
:102D80000E94C928212F33272F713070206E306A9E
:102D9000409885E18EBD0DB407FEFDCF832F9927A6
:102DA0008EBD0DB407FEFDCF2EBD0DB407FEFDCFC9
:102DB000409A80911009909111090E9477271F91E4
:102DC0000895EF92FF920F931F93CF93DF93CDB7A8
:102DD000DEB722970FB6F894DEBF0FBECDBF8C01D1
:102DE00080911009909111090E94C92850911209EF
:102DF000552339F040988DE08EBD0DB407FEFDCF10
:102E0000409AF8014281642F772767FD7095A0E012
:102E100020E030E008C0F80183819481E80EF91EBB
:102E2000F7018081A80F822F2F5F3F4FE82EFF24EC
:102E3000E616F70684F3942F945F51119C5F67990F
:102E4000FECF4E99FCCFF894409889E08EBD0DB42A
:102E500007FEFDCF409A409889E08EBD0DB407FE75
:102E6000FDCF409A40988EE38EBD0DB407FC05C09F
:102E7000FCCF0DB407FC30C1FCCF9EBDFACF81E67C
:102E800098E89A838983552329F089819A818860FB
:102E90009A83898340988EE38EBD0DB407FEFDCFE3
:102EA000FE0131969E012D5F3F4F80818EBD0DB496
:102EB00007FEFDCF3196E217F307B9F7409A409825
:102EC0008EE38EBD0DB407FC05C0FCCF0DB407FC2E
:102ED0000EC1FCCF809117098EBDF8CF0DB407FE4F
:102EE000FDCF20E030E0F901E75EF64F80818EBD36
:102EF0000DB407FEFDCF2F5F3F4F2230310599F70C
:102F0000409A40988EE38EBD0DB407FEFDCF20E0C1
:102F100030E0F801E20FF31F80818EBD0DB407FE93
:102F2000FDCF2F5F3F4F2230310599F7409A4098EF
:102F30008EE38EBD0DB407FEFDCF20E030E0F90139
:102F4000E55EF64F80818EBD0DB407FEFDCF2F5F8D
:102F50003F4F2230310599F7409A552399F0409818
:102F60008EE38EBD0DB407FEFDCFE2E2F9E0808175
:102F70008EBD0DB407FEFDCF319689E0E632F8072D
:102F8000B1F7409A40988EE38EBD0DB407FEFDCF99
:102F900020E030E00DC0F80183819481480F591F73
:102FA000FA0180818EBD0DB407FEFDCF2F5F3F4F2C
:102FB000422F55274617570774F3409A40988EE3DF
:102FC0008EBD0DB407FC05C0FCCF0DB407FC94C04A
:102FD000FCCFAEBDFACF80911D09882339F440980B
:102FE00083E08EBD0DB407FEFDCF409A40981EBC15
:102FF0000DB407FEFDCF8EB5409A81FFF7CF00E0FC
:10300000409885E08EBD0DB407FEFDCF409A4098F4
:103010001EBC0DB407FEFDCF1EB5409A0F5F0536EE
:1030200051F4789480911009909111090E947727AA
:1030300080E090E068C084E690E00E94B32113FD38
:1030400008C0DECF409884E08EBD0DB407FEFDCFF2
:10305000409A78944E9BFECF4E99FECF80912009E6
:10306000882391F084EA92E00E94B321319B0EC044
:1030700040988FE78EBD0DB407FEFDCF1EBC0DB48A
:1030800007FEFDCF8EB5409A11E00FC0409888E052
:103090008EBD0DB407FEFDCF409A409888E08EBDEE
:1030A0000DB407FEFDCF409A10E0F894409886E0FA
:1030B0008EBD0DB407FEFDCF409A7894809117091C
:1030C0008F5F8093170980911009909111090E94D8
:1030D0007727812F992717C0409A81E498E89A832F
:1030E000898380912009882309F0C9CECCCE409AEB
:1030F00040988EE38EBDF2CE409AF80185818823F8
:1031000009F069CF9FCF22960FB6F894DEBF0FBEAD
:10311000CDBFDF91CF911F910F91FF90EF90089558
:103120008F929F92BF92CF92DF92EF92FF920F9376
:103130001F93CF93DF93CDB7DEB722970FB6F894E6
:10314000DEBF0FBECDBF8C016B017A0149018091BA
:103150001009909111090E94C9280E946833409873
:1031600088E08EBD0DB407FEFDCF409A409888E000
:103170008EBD0DB407FEFDCF409A6799FECF4E99E4
:10318000FCCFF894409889E08EBD0DB407FEFDCFCA
:10319000409A409889E08EBD0DB407FEFDCF409A5D
:1031A000F8016281462F552747FD5095BB2420E04A
:1031B00030E007C0F80183819481A80FB91F8C917A
:1031C000B80E822F2F5F3F4FA82FBB27A417B5073C
:1031D0008CF3962F945F40988EE38EBD0DB407FC60
:1031E00005C0FCCF0DB407FC18C1FCCF9EBDFACFC3
:1031F00081E698E89A83898340988EE38EBD0DB46A
:1032000007FEFDCFFE0131969E012D5F3F4F80816D
:103210008EBD0DB407FEFDCF3196E217F307B9F767
:10322000409A40988EE38EBD0DB407FC05C0FCCFDC
:103230000DB407FCFBC0FCCF809117098EBDF8CF01
:103240000DB407FEFDCF20E030E0F901E75EF64F58
:1032500080818EBD0DB407FEFDCF2F5F3F4F223022
:10326000310599F7409A40988EE38EBD0DB407FE64
:10327000FDCF20E030E0F801E20FF31F80818EBD2A
:103280000DB407FEFDCF2F5F3F4F2230310599F778
:10329000409A40988EE38EBD0DB407FEFDCF20E02E
:1032A00030E0F901E55EF64F80818EBD0DB407FE7A
:1032B000FDCF2F5F3F4F2230310599F7409AB7017C
:1032C000C6010E94ED33F8018581882379F1809150
:1032D0001D09882339F4409883E08EBD0DB407FEA4
:1032E000FDCF409AEE24409885E08EBD0DB407FED8
:1032F000FDCF409A40981EBC0DB407FEFDCFFEB432
:10330000409AE394F5E6EF1651F478948091100911
:10331000909111090E94772780E090E08EC084E6AA
:1033200090E00E94B321F3FC08C0DDCF409884E018
:103330008EBD0DB407FEFDCF409A8091AC020E9475
:10334000EE1C8091840090918500F401918380832C
:1033500040988EE38EBD0DB407FEFDCFF80182814B
:10336000482F552747FD509520E030E00CC0F8016C
:1033700083819481A80FB91F8C918EBD0DB407FE77
:10338000FDCF2F5F3F4FA22FBB27A417B5077CF3BC
:10339000409A40988EE38EBD0DB407FC05C0FCCF6B
:1033A0000DB407FC48C0FCCFBEBCFACF4E9BFECF8D
:1033B000F8944E99FECF409888E08EBD0DB407FE7C
:1033C000FDCF409A409888E08EBD0DB407FEFDCF3A
:1033D000409A409889E08EBD0DB407FEFDCF409A1B
:1033E000409889E08EBD0DB407FEFDCF409A40980D
:1033F00086E08EBD0DB407FEFDCF409A7894809193
:1034000017098F5F80931709809110099091110916
:103410000E94772781E090E010C0409AF8018681F1
:10342000882309F0E5CE81E498E8E4CE409A4098FC
:103430008EE38EBD05CF409AB9CF22960FB6F89491
:10344000DEBF0FBECDBFDF91CF911F910F91FF90D7
:10345000EF90DF90CF90BF909F908F900895CF9383
:10346000DF93CDB7DEB722970FB6F894DEBF0FBE5D
:10347000CDBF9A83898390931C0980931B0984EFA5
:1034800091E00E94A23240988AEE8EBD0DB407FEF4
:10349000FDCF80E88EBD0DB407FEFDCFFE01319655
:1034A0009E012D5F3F4F80818EBD0DB407FEFDCF85
:1034B0003196E217F307B9F7409A84EF91E00E9442
:1034C000A23222960FB6F894DEBF0FBECDBFDF91B9
:1034D000CF9108956F927F928F929F92AF92BF92F9
:1034E000CF92DF92EF92FF920F931F93CF93DF93D0
:1034F000CDB7DEB722970FB6F894DEBF0FBECDBFB3
:103500008C0184E690E00E94A2327801C12CB1E0E7
:10351000DB2E3E010894611C711CA3E08A2E912CC5
:103520008C0E9D1EF7018081218133279927982FCA
:103530008827282B392B3A83298384E690E00E9440
:10354000A23240988C2D80688EBD0DB407FEFDCF51
:10355000C60195958795807C8EBD0DB407FEFDCF85
:1035600083015301F50180818EBD0DB407FEFDCFAF
:103570000894A11CB11CA814B904A1F7409A08949E
:10358000E11CF11C82E090E0C80ED91E90E1C91642
:1035900091E0D90639F684E690E00E94A23220E15B
:1035A00031E040E451E01A8219824098842F80680B
:1035B0008EBD0DB407FEFDCFCA0195958795807C21
:1035C0008EBD0DB407FEFDCFF80180818EBD0DB418
:1035D00007FEFDCF3196EA15FB05B9F7409A4098F2
:1035E000822F80688EBD0DB407FEFDCFC901959571
:1035F0008795807C8EBD0DB407FEFDCFF8018081DC
:103600008EBD0DB407FEFDCF3196EA15FB05B9F767
:10361000409A2E5F3F4F4E5F5F4FE1E02E313E07F5
:1036200011F681E090E09A83898340988EEC8EBDFC
:103630000DB407FEFDCF80E88EBD0DB407FEFDCFB3
:10364000F80180818EBD0DB407FEFDCF3196EA15DD
:10365000FB05B9F7409A40988EE98EBD0DB407FE80
:10366000FDCF80E88EBD0DB407FEFDCFF80180814F
:103670008EBD0DB407FEFDCF0F5F1F4F0A151B0552
:10368000A9F7409A22960FB6F894DEBF0FBECDBFC1
:10369000DF91CF911F910F91FF90EF90DF90CF902E
:1036A000BF90AF909F908F907F906F9008951F93E1
:1036B000CF93DF93EC01162F80911009909111099F
:1036C0000E94C928409888E08EBD0DB407FEFDCF4A
:1036D000409A409888E08EBD0DB407FEFDCF409A19
:1036E000812F0E94CF11D0931609C09315098091A4
:1036F0001009909111090E947727DF91CF911F91B6
:1037000008951F93182F80911009909111090E941C
:10371000C928812F0E94CF11809110099091110921
:103720000E9477271F910895DF92EF92FF920F93E7
:103730001F93CF93DF93CDB7DEB722970FB6F894E0
:10374000DEBF0FBECDBF8C01D62E5A8349837901CF
:1037500064E181E00E94F82690931109809310099A
:10376000892B31F40E94432A682F8FE00E942F2575
:1037700080911009909111090E94C9288F3F21F46E
:1037800084E592E00E945221159A88EE93E00E940F
:10379000B321169881E090E00E94B321169A84E646
:1037A00090E00E94B321F894409881E08EBD0DB462
:1037B00007FEFDCF409A82EE92E090931409809329
:1037C0001309409881E18EBD0DB407FEFDCF82E064
:1037D0008EBD0DB407FEFDCF82EE8EBD0DB407FE8B
:1037E000FDCF409A409882E18EBD0DB407FEFDCF1B
:1037F00085E08EBD0DB407FEFDCF1EBC0DB407FEE7
:10380000FDCF409A40988CE18EBD0DB407FEFDCFF0
:103810001EBC0DB407FEFDCF8FE78EBD0DB407FEB5
:10382000FDCF409A409889E18EBD0DB407FEFDCFD3
:1038300081E08EBD0DB407FEFDCF84EC8EBD0DB4CE
:1038400007FEFDCF409A409887E18EBD0DB407FE7C
:10385000FDCF8AE18EBD0DB407FEFDCF86E58EBD9E
:103860000DB407FEFDCF409A84EF91E00E94A23292
:10387000409888EE8EBD0DB407FEFDCF80E88EBD6A
:103880000DB407FEFDCFFE0131969E012D5F3F4F27
:1038900080818EBD0DB407FEFDCF3196E217F30790
:1038A000B9F7409A84EF91E00E94A23278948D2D6E
:1038B0000E94CF11789410931609009315098981FD
:1038C0009A8190931A0980931909F0921C09E09249
:1038D0001B091092170910921D090E94EE11809188
:1038E0001009909111090E9477278F3F39F487E2E0
:1038F00092E00E94522182E00E946A2410922009E4
:10390000109212091092210922960FB6F894DEBF88
:103910000FBECDBFDF91CF911F910F91FF90EF9020
:10392000DF9008952091A90980912709281781F037
:10393000E22FFF27E85DF64FE081822F8F5F8093B3
:10394000A909803811F41092A9098E2F992708959A
:103950008091C80087FFFCCF8091C8008F7780934B
:10396000C8008091CE0099270895882351F4809152
:10397000C000992787FD90958827990F881F992760
:103980000895813019F080E090E0089520E030E063
:103990009091A90980912709981711F021E030E052
:1039A000C901089585B7806185BF86E084B987E045
:1039B00085B981E087B988B98CE38DB98BE08AB984
:1039C0008EE38EB988E781B980E482B908950E94B8
:1039D000D21C80E58CBD81E08DBD08958F3F09F438
:1039E0007FC0482F55279A0127703070223031054B
:1039F000A9F12330310544F42115310589F0213036
:103A0000310509F06DC01CC02430310509F446C0F1
:103A1000243031059CF12530310509F061C04EC0DC
:103A200022B1A3E056954795AA95E1F781E090E091
:103A300002C0880F991F4A95E2F7282B22B94DC082
:103A400085B1F3E056954795FA95E1F702C0220F4C
:103A5000331F4A95E2F7822B85B93FC028B1E3E0D6
:103A600056954795EA95E1F781E090E002C0880F0E
:103A7000991F4A95E2F7282B28B92FC02BB173E084
:103A8000569547957A95E1F781E090E002C0880F5E
:103A9000991F4A95E2F7282B2BB91FC02EB163E07E
:103AA000569547956A95E1F781E090E002C0880F4E
:103AB000991F4A95E2F7282B2EB90FC021B333E0A6
:103AC000569547953A95E1F781E090E002C0880F5E
:103AD000991F4A95E2F7282B21BB81E090E00895D9
:103AE0008FEF9FEF08958F3F09F486C0482F552729
:103AF0009A012770307022303105C1F12330310531
:103B000044F42115310589F02130310509F074C0E4
:103B10001DC02430310509F44BC024303105BCF1FF
:103B20002530310509F068C054C022B173E05695C4
:103B300047957A95E1F781E090E002C0880F991FE0
:103B40004A95E2F78095822382B953C095B163E02C
:103B5000569547956A95E1F702C0220F331F4A95A3
:103B6000E2F7822F8095892385B943C028B133E0DD
:103B7000569547953A95E1F781E090E002C0880FAD
:103B8000991F4A95E2F78095822388B932C02BB1FC
:103B900093E0569547959A95E1F781E090E002C051
:103BA000880F991F4A95E2F7809582238BB921C02F
:103BB0002EB183E0569547958A95E1F781E090E034
:103BC00002C0880F991F4A95E2F7809582238EB92B
:103BD00010C021B3B3E056954795BA95E1F781E05F
:103BE00090E002C0880F991F4A95E2F780958223E2
:103BF00081BB81E090E008958FEF9FEF08958F3FA4
:103C0000A9F1282F3327C901877090708230910560
:103C1000A9F0833091052CF4009761F0019731F5FC
:103C20000BC08430910571F0843091054CF00597FC
:103C3000E9F40AC080B109C083B107C086B105C0EC
:103C400089B103C08CB101C08FB19927E3E03695EB
:103C50002795EA95E1F702C0959587952A95E2F7B1
:103C6000992787FD90958170907008958FEF9FEF51
:103C700008958F3F09F403C1282F3327A901477006
:103C800050704230510509F45CC04330510544F492
:103C90004115510591F04130510509F0F0C034C093
:103CA0004430510509F49BC0443051050CF470C0F8
:103CB0004530510509F0E3C0B9C080B1A90173E0F6
:103CC000569547957A95E1F79927042E02C0959568
:103CD00087950A94E2F780FD0BC022B181E090E065
:103CE00002C0880F991F4A95E2F7282B22B9C4C059
:103CF00022B181E090E002C0880F991F4A95E2F757
:103D00008095822382B9B8C083B163E03695279548
:103D10006A95E1F79927022E02C0959587950A9436
:103D2000E2F702C0440F551F2A95E2F780FD03C059
:103D300085B1842B04C095B1842F8095892385B9E2
:103D40009BC086B1A90193E0569547959A95E1F7F6
:103D50009927042E02C0959587950A94E2F780FD75
:103D60000BC028B181E090E002C0880F991F4A95EE
:103D7000E2F7282B28B980C028B181E090E002C08A
:103D8000880F991F4A95E2F78095822388B974C0FD
:103D900089B1A901B3E056954795BA95E1F79927FE
:103DA000042E02C0959587950A94E2F780FD0BC01A
:103DB0002BB181E090E002C0880F991F4A95E2F78D
:103DC000282B2BB959C02BB181E090E002C0880F9D
:103DD000991F4A95E2F7809582238BB94DC08CB12B
:103DE000A901A3E056954795AA95E1F79927042ED6
:103DF00002C0959587950A94E2F780FD0BC02EB11D
:103E000081E090E002C0880F991F4A95E2F7282BC5
:103E10002EB932C02EB181E090E002C0880F991F08
:103E20004A95E2F7809582238EB926C08FB1A90109
:103E3000F3E056954795FA95E1F79927042E02C0CD
:103E4000959587950A94E2F780FD0BC021B381E038
:103E500090E002C0880F991F4A95E2F7282B21BBFA
:103E60000BC021B381E090E002C0880F991F4A95F2
:103E7000E2F78095822381BB81E090E008958FEF87
:103E80009FEF08958F3F09F412C1482F55276623ED
:103E900009F090C0CA01877090708230910509F4D2
:103EA0003EC0833091053CF4009789F08130910544
:103EB00009F0FDC021C08430910509F454C084305C
:103EC00091050CF43EC0059709F0F1C05EC031B118
:103ED000B3E056954795BA95E1F781E090E002C0CE
:103EE000880F991F4A95E2F7282F2095232321B99F
:103EF00022B1822B82B9D8C024B1A3E05695479550
:103F0000AA95E1F702C0880F991F4A95E2F7982F0A
:103F10008095822384B985B1982B95B9C5C037B1F6
:103F2000F3E056954795FA95E1F781E090E002C0FD
:103F3000880F991F4A95E2F7282F2095232327B948
:103F400035C03AB1E3E056954795EA95E1F781E04F
:103F500090E002C0880F991F4A95E2F7282F20951C
:103F600023232AB923C03DB173E0569547957A952E
:103F7000E1F781E090E002C0880F991F4A95E2F7CF
:103F8000282F209523232DB911C030B363E0569517
:103F900047956A95E1F781E090E002C0880F991F8C
:103FA0004A95E2F7282F2095232320BB25B1822BA9
:103FB00085B97AC09A012770307022303105A9F195
:103FC0002330310544F42115310589F021303105C4
:103FD00009F06DC01CC02430310509F446C02430FE
:103FE00031059CF12530310509F061C04EC021B189
:103FF00033E0569547953A95E1F781E090E002C0AD
:10400000880F991F4A95E2F7282B21B94DC084B13A
:1040100093E0569547959A95E1F702C0220F331F1A
:104020004A95E2F7822B84B93FC027B1B3E0569599
:104030004795BA95E1F781E090E002C0880F991F9B
:104040004A95E2F7282B27B92FC02AB1A3E056954D
:104050004795AA95E1F781E090E002C0880F991F8B
:104060004A95E2F7282B2AB91FC02DB1F3E05695E7
:104070004795FA95E1F781E090E002C0880F991F1B
:104080004A95E2F7282B2DB90FC020B3E3E05695EF
:104090004795EA95E1F781E090E002C0880F991F0B
:1040A0004A95E2F7282B20BB81E090E008958FEF3E
:1040B0009FEF0895882319F08FEF9FEF089580B147
:1040C000992787FD9095809590958827990F881F4F
:1040D00099270895009711F484E109C08130910572
:1040E00011F48CE104C08230910531F484E20E9425
:1040F000391E81E090E00895039719F08FEF9FEF4C
:1041000008958CE20E94391E81E090E008950097A6
:1041100011F484E109C08130910511F48CE104C0EF
:104120008230910531F484E20E94EE1C81E090E03F
:104130000895039719F08FEF9FEF08958CE20E9486
:10414000EE1C81E090E00895009711F484E109C02D
:104150008130910511F48CE104C08230910531F475
:1041600084E20E94731D81E090E00895039719F0A6
:104170008FEF9FEF08958CE20E94731D81E090E025
:104180000895882319F085B78F7E02C085B78061B6
:1041900085BF81E090E00895982F8091C00085FF51
:1041A000FCCF8091C0008F7D8093C0009093C600AB
:1041B0000895982F8091C80085FFFCCF9093CE0082
:1041C0000895292F33272093C5008093C40086E0EB
:1041D0008093C200E1ECF0E080818B7F8083A0ECD3
:1041E000B0E08C9182608C93808188618083089597
:1041F000292F33272093CD008093CC0086E0809335
:10420000CA00E9ECF0E080818B7F8083A8ECB0E00D
:104210008C9182608C9380818861808308958091E5
:10422000C00087FFFCCF8091C0008F778093C000D3
:104230008091C600992708950E94F82062E97CE1E8
:1042400089ED90E20E941A389093A50A8093A40AFF
:1042500062E97CE189ED90E20E941A389093A30A0A
:104260008093A20A0E9436268093A8098F3F19F4F2
:104270008EE00E9436251092A9091092270980919C
:10428000C90080688093C90008958091A8098F3F74
:1042900019F48EE00E9436258091A809992787FDA0
:1042A00090950895CF93DF93EC0107C06091A40A25
:1042B0007091A50A99270E94AB38FE01219684913E
:1042C0008823A1F7DF91CF9108951F920F920FB627
:1042D0000F9211242F933F934F935F936F937F938C
:1042E0008F939F93AF93BF93EF93FF938091C900F8
:1042F0008F778093C9008091C80087FFFCCF8091A1
:10430000C8008F778093C8009091CE0080912709D4
:10431000E82FFF27E85DF64F90838F5F8093270992
:10432000803811F4109227098091A8090E94CB27A8
:104330008091C8008F778093C8008091C900806801
:104340008093C900FF91EF91BF91AF919F918F91A1
:104350007F916F915F914F913F912F910F900FBE81
:104360000F901F90189500000000000000000197BA
:10437000D1F70895FC01A7E0B0E00E94653B802DD5
:10438000808381E090E00895FC018081A7E0B0E0A7
:10439000082E0E946D3B81E090E00895DC010E94B0
:1043A000653B802D99270895FC01A0E0B0E00E94B4
:1043B000653B402D4383A1E0B0E00E94653B802D2A
:1043C0008283A2E0B0E00E94653B302D3183A3E000
:1043D000B0E00E94653B902D9083A4E0B0E00E9485
:1043E000653B202D830F840F890F281719F481E076
:1043F00090E008958FEF9FEF0895FC01A5E0B0E0F5
:104400000E94653B802D808381E090E00895FC014F
:10441000A6E0B0E00E94653B802D808381E090E0C3
:104420000895AC0120E030E0D90118960E94653B68
:10443000802DFA01E20FF31F80832F5F3F4F203161
:10444000310591F781E090E00895DC01062E0E948D
:104450006D3B0895FC018081A6E0B0E0082E0E942B
:104460006D3B81E090E00895AC0120E030E0D9019F
:104470001896FA01E20FF31F8081082E0E946D3B0F
:104480002F5F3F4F2031310591F781E090E0089593
:10449000F89408957894089585E690E008950E9430
:1044A000912F0895EF92FF920F931F93CF93DF9375
:1044B000EC018B017A018985823021F08091620ABA
:1044C000888301C018828091620A853020F060E004
:1044D00087E00E942F258985823029F08091620A29
:1044E0008F5F8093620A8091620A882319F481E0C9
:1044F0008093620A8881992787FD9095FC0145E0A9
:10450000EE0FFF1F4A95E1F7E80FF91FE455F64F4C
:10451000118300838881992787FD9095FC0135E000
:10452000EE0FFF1F3A95E1F7E80FF91FE455F64F3C
:10453000888582878881992787FD9095FC0125E0F1
:10454000EE0FFF1F2A95E1F7E80FF91FE455F64F2C
:1045500083E081872881822F992787FD9095FC0130
:1045600005E0EE0FFF1F0A95E1F7E80FF91FE4558C
:10457000F64F20878881992787FD9095FC0115E0EB
:10458000EE0FFF1F1A95E1F7E80FF91FE455F64FFC
:1045900015820881112707FD10952B853C854D85D7
:1045A0005E856F85788989899A890E94B62DF80180
:1045B000B5E0EE0FFF1FBA95E1F7E00FF11FE455EC
:1045C000F64F948F838F0881112707FD10952B8D4F
:1045D0003C8D4D8D5E8D6F8D78A189A19AA10E9431
:1045E000B62DF801A5E0EE0FFF1FAA95E1F7E00F49
:1045F000F11FE455F64F968B858B8881992787FDAF
:104600009095FC0175E0EE0FFF1F7A95E1F7E80F3A
:10461000F91FE455F64F85899689238D348D820FD5
:10462000931F908F878B0881112707FD10952B8989
:104630003C894D895E896F89788D898D9A8D0E941C
:10464000B62DF80165E0EE0FFF1F6A95E1F7E00F68
:10465000F11FE455F64F968F858F8881992787FD46
:104660009095FC0155E0EE0FFF1F5A95E1F7E80F1A
:10467000F91FE455F64F858D968D928F818F888135
:10468000992787FD9095FC0145E0EE0FFF1F4A95A5
:10469000E1F7E80FF91FE455F64F81E090E090A3B1
:1046A000878F8881992787FD9095FC0135E0EE0F73
:1046B000FF1F3A95E1F7E80FF91FE455F64FF38233
:1046C000E2828881992787FD9095FC0125E0EE0F15
:1046D000FF1F2A95E1F7E80FF91FE455F64F81E037
:1046E000848781E090E0DF91CF911F910F91FF903F
:1046F000EF9008958F929F92AF92BF92CF92DF92E8
:10470000EF92FF920F931F93CF93DF9364EBA62E4C
:1047100069E0B62ECC24DD244501EC2CF501F080B7
:10472000FFEFFF1691F0E40100E010E0E01639F031
:104730008881F81621F46F2D85E00E942F250F5FE8
:104740001F4FA1960530110589F70894C11CD11C93
:1047500081E290E0A80EB91E95E0C916D104E9F6F1
:104760000E945829282F332727FD3095F90155E05D
:10477000EE0FFF1F5A95E1F7E20FF31FE455F64FD6
:1047800032853093750A21E28202C00111248455DA
:10479000964F9093740A8093730A9093650A80935E
:1047A000640A3093660A0E9490360E9476360E9410
:1047B000B436FFCF0F931F93CF93DF93CDB7DEB700
:1047C000A3970FB6F894DEBF0FBECDBF0E9436266A
:1047D0008093630A8F3F21F460E08EE00E942F25D2
:1047E0000E94E735882321F460E086E00E942F25AF
:1047F0001092660A1092740A1092730A1092650A57
:104800001092640A1092750A1092720AE3E5FAE0B7
:104810008FEF80838283818333962AE0E236F2072A
:10482000B9F7ECEAF9E083E682878FEF8087B196EB
:104830008AE0E135F807B9F7E6E7FAE0CF01059637
:1048400094838383F783E683FC012AE08F38920701
:10485000A9F71092780A1092770A1092930A109290
:10486000920A1092690A1092680A49979093AB09CC
:104870008093AA0967E77FE28E010F5F1F4FC8018F
:104880000E94343640E850E066E078E0C8010E94BB
:10489000953685E58093060819861C8E1D8E1E8E22
:1048A0001F8E18A219A21AA21BA291E0988782E07B
:1048B0008A879B87C8010E94412CA3960FB6F89463
:1048C000DEBF0FBECDBFDF91CF911F910F91089535
:1048D000F894FFCFE091730AF091740A84870895E9
:1048E000E091730AF091740A848599270895DC0198
:1048F000FB018091FF07882319F480E090E0089580
:104900008083809144038C9381E090E008951F930D
:104910008091FF07882309F49EC00E9448220E94CC
:1049200048228CE394E00E9452218091440399270D
:104930009F938F938DEC92E09F938F930E94D83832
:1049400088E394E00E9452210F900F900F900F90F7
:104950008091FF07843110F01092FF078091FF07CC
:104960009927AA27BB27FC013197E231F105F0F521
:10497000EA59FF4FEE0FFF1F0590F491E02D0994C7
:1049800081E194E035C08DEF93E032C087EE93E093
:104990002FC08CEC93E02CC086EB93E029C08EE90D
:1049A00093E026C08BE893E023C088E793E020C023
:1049B0008AE593E01DC085E393E01AC089E293E0A5
:1049C00017C08EE093E014C08FEF92E011C08EEE1E
:1049D00092E00EC08AED92E00BC08AEB92E008C034
:1049E00082EA92E005C087E892E002C080E892E0A7
:1049F0000E9452216091A40A7091A50A8DE090E076
:104A00000E94AB386091A40A7091A50A8AE090E0F8
:104A10000E94AB3882E090E00E94A42083E090E006
:104A20000E94872010E088EE93E00E94A2321F5F70
:104A30001436C9F783E090E00E94A42082E090E061
:104A40000E94872010E088EE93E00E94A2321F5F50
:104A50001436C9F7DFCF80E090E01F91089580936E
:104A6000FF07609344030E94872408958093FF0703
:104A7000E091730AF091740A8085809344030E9448
:104A800087240895992787FD9095FC0125E0EE0F76
:104A9000FF1F2A95E1F7E80FF91FE455F64FA281B1
:104AA000B3818C91853529F085E58C938FEF9FEF4D
:104AB0000895808191818050924218F481E090E0C5
:104AC000089582E10E9436258FEF9FEF08956F923F
:104AD0007F928F929F92AF92BF92CF92DF92EF928E
:104AE000FF920F931F93CF93DF9388E494E00E948B
:104AF0005221E091730AF091740A8085992787FD0D
:104B000090959F938F9380ED92E09F938F930E9457
:104B1000D838E091730AF091740A028113811F93CF
:104B20000F9389ED92E09F938F930E94D838F801FC
:104B3000808199279F938F9356EEC52E52E0D52EF4
:104B4000DF92CF920E94D838E091730AF091740AF4
:104B5000808191819F938F9343EFE42E42E0F42E66
:104B6000FF92EF920E94D8388091730A9091740A54
:104B70009F938F930DEF12E01F930F930E94D838ED
:104B8000CCEAD9E0AA24BB248DB79EB744960FB6D1
:104B9000F8949EBF0FBE8DBF3DE0632E33E0732EB1
:104BA0004601670178010A811B811F930F93BF9211
:104BB000AF927F926F920E94D838F8018081992736
:104BC0009F938F939F928F920E94D838888199816A
:104BD0009F938F93DF92CF920E94D838DF93CF9329
:104BE000FF92EF920E94D8380894A11CB11CA196A4
:104BF0008DB79EB742960FB6F8949EBF0FBE8DBF7D
:104C000095E0A916B10479F6DF91CF911F910F912C
:104C1000FF90EF90DF90CF90BF90AF909F908F90DC
:104C20007F906F900895CF93DF93E091730AF09196
:104C3000740AC281D3818881853539F00E94672545
:104C400081E00E94362585E58883E091730AF09122
:104C5000740A808191818050924228F00E946725D9
:104C600082E10E943625DF91CF91089540916C0535
:104C700050916D0560916E0570916F0520E030E0F8
:104C8000DB01CA01022E04C0B695A79597958795BA
:104C90000A94D2F781709070892BE9F481E090E05A
:104CA000A0E0B0E0022E04C0880F991FAA1FBB1F0E
:104CB0000A94D2F7842B952BA62BB72B80936C05E7
:104CC00090936D05A0936E05B0936F05822F992781
:104CD00087FD909508952F5F3F4F2032310581F673
:104CE0008FEF9FEF0895E091730AF091740A658544
:104CF0007685878590890895EF92FF920F931F9391
:104D000021E030E040E050E004C0220F331F441F98
:104D1000551F8A95D2F7E091730AF091740AE584E1
:104D2000F68407851089DA01C9018E219F21A0230D
:104D3000B1230097A105B10519F48FEF9FEF1AC0B9
:104D40002095309540955095E222F32204231523B7
:104D5000E586F6860787108B81899289A389B489B5
:104D600082239323A423B523818B928BA38BB48BB3
:104D700081E090E01F910F91FF90EF900895682FD0
:104D8000772767FD709580916C0590916D05A091D6
:104D90006E05B0916F05062E04C0B695A795979540
:104DA00087950A94D2F781709070892B19F48FEF50
:104DB0009FEF0895E091730AF091740A21E030E0CA
:104DC00040E050E004C0220F331F441F551F6A9576
:104DD000D2F785859685A785B089822B932BA42B46
:104DE000B52B85879687A787B08B81E090E00895E3
:104DF000482F2091720A243018F080E090E0089546
:104E0000E3E5FAE030E080818F3F21F03F5F3396A9
:104E10003530C9F7832F9927FC01EE0FFF1FE80FEC
:104E2000F91FED5AF54F4283408361832F5F209332
:104E3000720A83E0389FC00111248D5A954F08955E
:104E400043E55AE020E030E04817590729F4822F63
:104E5000992787FD909508952F5F3F4F4D5F5F4FD6
:104E60002530310589F78FEF9FEF08950E942027A5
:104E70008F3F11F481E003C0853031F482E00E945D
:104E80006A248FEF9FEF0895992787FD9095FC0185
:104E9000EE0FFF1FE80FF91FED5AF54F8FEF8083DC
:104EA000828381838091720A81508093720A81E0AB
:104EB00090E008950E9420278F3F11F481E003C005
:104EC000853031F482E00E946A248FEF9FEF0895CD
:104ED000992787FD9095FC01EE0FFF1FE80FF91F42
:104EE000ED5AF54F8281992787FD909508951F937C
:104EF000CF93DF930E942027182F8F3F11F481E07A
:104F000003C0853031F482E00E946A248FEF9FEF66
:104F10003EC0992787FD9095EC01CC0FDD1FC80F8F
:104F2000D91FCD5AD54F9A818881981774F50E9460
:104F300048228A818F5F8A83E091730AF091740A14
:104F40001482E3EBF9E0212F332727FD3095432F1F
:104F5000532F8081823091F482859385A485B58515
:104F600082179307A407B50749F483E08283178665
:104F7000168610821286138614861586B1968AE0EC
:104F8000E835F80731F70E944A2281E090E0DF918E
:104F9000CF911F910895DF92EF92FF920F931F938D
:104FA000F1E0EF2EF12C012D112D04C0EE0CFF1CB1
:104FB000001F111F8A95D2F780916C0590916D05A5
:104FC000A0916E05B0916F058E219F21A023B12382
:104FD0000097A105B10511F481E043C00E94482269
:104FE000E3EBF9E0DD2480818130B9F4828593859B
:104FF000A485B5858E219F21A023B1230097A1050B
:10500000B10559F083E08283178616861082E28606
:10501000F38604871587DD24D39480818230A1F440
:1050200082859385A485B5858E159F05A007B10758
:1050300059F483E0828317861686108212861386BF
:1050400014861586DD24D394B1968AE0E835F807F6
:1050500051F60E944A22DD2019F081E090E005C05F
:1050600082E00E946A248FEF9FEF1F910F91FF90C3
:10507000EF90DF900895EF92FF920F931F93CF93DD
:10508000DF93C82FDD27C7FDD095A1E0EA2EF12CD4
:10509000012D112D0C2E04C0EE0CFF1C001F111F42
:1050A0000A94D2F780916C0590916D05A0916E05E0
:1050B000B0916F058E219F21A023B1230097A105F8
:1050C000B10519F48FEF9FEF5DC00E944822ECEA12
:1050D000F9E0A8019701209530954095509580857D
:1050E0008F3F41F185859685A785B0898E159F05EF
:1050F000A007B10739F4118A128A138A148A178219
:1051000083E0818785859685A785B089822393234F
:10511000A423B52385879687A787B08B8189928939
:10512000A389B48982239323A423B523818B928BF3
:10513000A38BB48BB1968AE0E135F80781F62EEFA8
:105140003FEF4FEF5FEF04C0220F331F441F551F87
:10515000CA95D2F780916C0590916D05A0916E056E
:10516000B0916F0582239323A423B52380936C050C
:1051700090936D05A0936E05B0936F050E944A222F
:1051800081E090E0DF91CF911F910F91FF90EF9020
:1051900008951F93CF93DF930E942027182F8F3FEE
:1051A00011F481E003C0853031F482E00E946A246A
:1051B0008FEF9FEF3EC00E944822812F992787FDE5
:1051C0009095EC01CC0FDD1FC80FD91FCD5AD54FDC
:1051D0008A818823D9F4E091730AF091740A878157
:1051E00082608783E091730AF091740A812F992776
:1051F00087FD9095A92FB92F818B928BA38BB48BB0
:105200000E944A2280E090E00E946E2B8A818150A9
:105210008A83E091730AF091740A89818387E0910F
:10522000730AF091740A81E084830E944A2281E02B
:1052300090E0DF91CF911F9108959B01AC01E09127
:10524000730AF091740A85859685A785B0898223B3
:105250009323A423B5230097A105B10529F460E0A9
:1052600070E080E090E00895218B328B438B548B6B
:1052700081E087830090630A04C05695479537956F
:1052800027950A94D2F7C90181709070892B19F083
:105290000E94092B04C080E090E00E946E2BE091F8
:1052A000730AF091740A61897289838994890895D7
:1052B000E091680AF091690A808199270895E09148
:1052C000680AF091690A03C00380F481E02D3097E9
:1052D000D9F70895CF93DF93482FC091AA09D091B1
:1052E000AB09209709F47AC0A091680AB091690AC5
:1052F0001097B9F1992787FD90959C0165E0220FE1
:10530000331F6A95E1F7280F391F2455364F8C91CA
:105310009927BC0155E0660F771F5A95E1F7680F92
:10532000791F6455764FFB018481882329F093858A
:10533000F90182859817A8F0F9018481882331F05A
:10534000FB019285F9018385981758F0FB0192853E
:10535000F9018285981728F0FD01A381B481109787
:10536000B1F64883E091AA09F091AB092381348119
:105370003093AB092093AA098091680A9091690A39
:10538000A817B907A1F4109731F0BC83AB831A8238
:105390001982FD0105C01C821B821A821982F90143
:1053A000D283C183D093690AC093680A17C0FD01F4
:1053B00081819281A217B30751F09A838983BC83BC
:1053C000AB8381819281FC01D483C38304C01C829E
:1053D0001B829A838983FD01D283C183DF91CF91A0
:1053E0000895CF93DF93A091680AB091690A10974E
:1053F00009F446C0482F552747FD50958C919927B1
:105400008417950769F4ED01EB81FC81F093690A3B
:10541000E093680A1282118216C0D901232B81F110
:105420008C919927FD012381348184179507A9F771
:10543000C181D2813C832B8383819481009719F0B1
:10544000FC01D283C183E091AA09F091AB093097A6
:1054500041F4B093AB09A093AA09ED011C821B8211
:1054600009C0ED01FC83EB83B283A183B093AB0948
:10547000A093AA09E091AA09F091AB0912821182C6
:10548000DF91CF910895E091730AF091740A8085BD
:10549000992708950E942936E091730AF091740AC1
:1054A00085818823B9F70895FF920F931F93CF93B7
:1054B000DF93CDB7DEB728970FB6F894DEBF0FBEE7
:1054C000CDBF29833A834B835C836D837E838F8337
:1054D00098870E9413260E944822E091730AF09157
:1054E000740A81E0858381E090E090A3878F0E9419
:1054F0006833F82E29813A814B815C816D817E81F0
:105500008F8198850E94B62DE091730AF091740AFC
:105510000F2D1127800F911F968B858B87EF8F158D
:1055200070F00E94F4320E5F1F4F99278017910789
:1055300034F08F2D8E5F809306090E94F9320E940D
:105540004A220E944A2A81E090E028960FB6F894F9
:10555000DEBF0FBECDBFDF91CF911F910F91FF90A6
:1055600008958F929F92AF92BF92CF92DF92EF9267
:10557000FF920F931F93CF93DF93CDB7DEB7609762
:105580000FB6F894DEBF0FBECDBF29873A874B8791
:105590005C876D877E878F87988BCE0101960E94EE
:1055A0001C2F89809A80AB80BC80CD80DE80EF800C
:1055B000F88409851A852B853C854D855E856F8528
:1055C0007889CE0109960E94972C882319F48FEFD1
:1055D0009FEF0CC029853A854B855C856D857E855E
:1055E0008F8598890E94542A81E090E060960FB6DA
:1055F000F894DEBF0FBECDBFDF91CF911F910F9109
:10560000FF90EF90DF90CF90BF90AF909F908F90E2
:1056100008951F930E944822E091730AF091740A42
:1056200081E0858386830E946833182F883F80F449
:105630000E94F432212F33272E5F3F4F9927821784
:10564000930734F0812F8E5F809306090E94F93210
:105650000E944A220E944A2A81E090E01F91089508
:105660001F93CF93DF93CDB7DEB728970FB6F8948B
:10567000DEBF0FBECDBF29833A834B835C836D832E
:105680007E838F8398870E9448220E946833182F58
:1056900029813A814B815C816D817E818F819885E2
:1056A0000E94B62D8330910518F48FEF9FEF0CC048
:1056B000E091730AF091740A810F911D968B858B8E
:1056C0000E944A2281E090E028960FB6F894DEBF4F
:1056D0000FBECDBFDF91CF911F9108950F931F9300
:1056E0008C010E944822E091730AF091740A81E0D3
:1056F0008583168B058B0E946833082F883F80F4C2
:105700000E94F432202F33272E5F3F4F99278217B4
:10571000930734F0802F8E5F809306090E94F93240
:105720000E944A220E944A2A81E090E01F910F9134
:105730000895FF920F931F93CF93DF938C010E94E4
:105740004822E091730AF091740A81E085830E94F7
:105750006833F82EE091730AF091740AC82FDD27A0
:105760000C0F1D1F168B058B87EF8F1568F00E949D
:10577000F432229699278C179D0734F08F2D8E5F77
:10578000809306090E94F9320E944A220E944A2A06
:1057900081E090E0DF91CF911F910F91FF900895EC
:1057A0001F93CF93DF93EC010E941326209711F4EF
:1057B000C1E0D0E00E944822E091730AF091740A9F
:1057C00081E08583D0A3C78F0E946833182F883F5C
:1057D00080F40E94F432212F33272E5F3F4F992708
:1057E0008217930734F0812F8E5F809306090E9401
:1057F000F9320E944A220E944A2A81E090E0DF9119
:10580000CF911F9108951F930E9413260E94482252
:10581000E091730AF091740A81E090E090A3878F81
:1058200081E085830E946833182F883F80F40E94AE
:10583000F432212F33272E5F3F4F9927821793078A
:1058400034F0812F8E5F809306090E94F9320E9406
:105850004A220E944A2A81E090E01F910895E09137
:10586000730AF091740A80850E94F129E091730A0D
:10587000F091740A84E081870E94032C81E090E01B
:105880000895EF92FF920F931F93CF93DF93EC0154
:105890004B815C8169817A818D819E810E9438363D
:1058A000BC018F81882369F04B815C81EE24FF2449
:1058B00000E010E020E030E0CE010E9452221F8282
:1058C00016C08881992787FD9095FC01A5E0EE0F11
:1058D000FF1FAA95E1F7E80FF91FE455F64F818500
:1058E000833019F08FEF9FEF1BC071836083888135
:1058F000992787FD9095FC0175E0EE0FFF1F7A95C3
:10590000E1F7E80FF91FE455F64F85899689892B51
:1059100029F482E0818788810E946A2981E090E0F1
:10592000DF91CF911F910F91FF90EF9008958F928B
:105930009F92AF92BF92CF92DF92EF92FF920F931E
:105940001F93CF93DF93CDB7DEB760970FB6F89470
:10595000DEBF0FBECDBFFC0109831A832B833C83BE
:105960004D835E836F83788789869A86AB86BC86F3
:10597000CD86DE86EF86F88A2D813E814F8158855F
:1059800089819A81AB81BC81AD84BE84CF84D88863
:10599000E984FA840B851C858E159F05A007B10745
:1059A00008F43FC0E816F9060A071B0791F42A1508
:1059B0003B054C055D05A8F12A193B094C095D0919
:1059C0002483358346835783108211821282138287
:1059D0001CC02A153B054C055D05D0F40197A109B3
:1059E000B1098E199F09A00BB10B80839183A2830B
:1059F000B383205036434546544C2A193B094C0981
:105A00005D09248335834683578381E090E00BC092
:105A10008E199F09A00BB10B80839183A283B3835E
:105A2000ECCF80E090E060960FB6F894DEBF0FBE3A
:105A3000CDBFDF91CF911F910F91FF90EF90DF903D
:105A4000CF90BF90AF909F908F900895FC0113C0AE
:105A500080509A4CAA49BB4384839583A683B7831D
:105A600080819181A281B3810196A11DB11D8083A6
:105A70009183A283B38384819581A681B78180308D
:105A80002AEC92072AE9A2072BE3B20708F7089548
:105A90008F929F92AF92BF92CF92DF92EF92FF923E
:105AA0000F931F93CF93DF93CDB7DEB760970FB6F9
:105AB000F894DEBF0FBECDBFFC0109831A832B8390
:105AC0003C834D835E836F83788789869A86AB8615
:105AD000BC86CD86DE86EF86F88AAD80BE80CF801C
