:100000000C9449020C94C2430C9468020C9468024C
:100010000C9468020C9468020C9468020C946802B8
:100020000C9468020C94F4430C9468020C946802DB
:100030000C9468020C9426420C9468020C9426429C
:100040000C9468020C9459420C9468020C94680257
:100050000C9468020C9468020C9468020C94680278
:100060000C9468020C9468020C9468020C94680268
:100070000C9468020C9468020C9468020C94680258
:100080000C9463420C9468020C9468020C9468020D
:100090000C94D12F0C9468020C9468020C946802A2
:1000A0000C9468020C9468020C9468020C94680228
:1000B0000C9468020C9468020C9468020C94680218
:1000C0000C9468020C9468020C946802CE32D4320C
:1000D000D732DA32DD32E032E632E332E932EC3284
:1000E000EF32F532F832FB32FE32F232CB32D1321D
:1000F00043726561746520446F6E650D0A00525845
:10010000207369676E616C206572726F720047655B
:1001100074205369676E616C204552524F52210D15
:100120000A004552524F523A206372656174696EFB
:1001300067207061636B6574207265636F72642001
:100140007369676E616C206661696C65640D0A0095
:100150005374617274696E672075702E2E2E0D0AAD
:1001600000534C4950205258206572726F723A20E9
:100170006E726B5F7369676E616C5F7265676973DE
:100180007465720D0A00534C495020525820657214
:10019000726F723A20476574205369676E616C0D07
:1001A0000A00534C4950205458204552524F523A5D
:1001B000202052656C65617365206F662073656DE4
:1001C0006170686F7265206661696C65640D0A0014
:1001D000534C4950205458204552524F523A2020F7
:1001E00041636365737320746F2073656D6170681C
:1001F0006F7265206661696C65640D0A0049534140
:10020000204552524F523A206372656174696E679D
:10021000207478207369676E616C206661696C6513
:10022000640D0A00495341204552524F523A20630F
:1002300072656174696E67207278207369676E6198
:100240006C206661696C65640D0A00434332343288
:1002500030204552524F523A202052656C656173EE
:1002600065206F662073656D6170686F72652066CA
:1002700061696C65640D0A004343323432302045B5
:1002800052524F523A202041636365737320746F5A
:100290002073656D6170686F7265206661696C6559
:1002A000640D0A00554E4B4F574E004661696C6510
:1002B0006420746F206372656174652053656D619D
:1002C00070686F7265004661696C656420746F20A8
:1002D000637265617465205369676E616C004B657C
:1002E000726E656C2066756E6374696F6E206E6FDA
:1002F0007420696D706C656D656E7465640044652D
:100300007669636520447269766572204572726F02
:1003100072005761746368646F672052657374611B
:1003200072740054696D6572204F766572666C6FE9
:100330007700556E68616E646C656420496E746503
:10034000727275707420566563746F72004C6F77AB
:1003500020566F6C74616765004578747261205433
:1003600061736B20737461727465642C20697320EF
:100370006E726B5F6366672E68206F6B3F00496427
:100380006C65206F72204B65726E656C20537461D2
:10039000636B204F766572666C6F7700556E65787B
:1003A000706563746564205265737461727400448F
:1003B00075706C696361746564205461736B204966
:1003C00044005363686564756C6572204D6973738E
:1003D00065642057616B657570005461736B2052C2
:1003E0006573657276652056696F6C61746564002B
:1003F00052657365727665204572726F7220696E00
:10040000205363686564756C657200496E76616C33
:10041000696420537461636B20506F696E746572F8
:10042000005461736B20537461636B204F76657267
:10043000666C6F7700537461636B20776173206E15
:100440006F7420646566696E6564206173206C61F9
:1004500072676520656E6F7567682100293A200014
:100460002A4E524B204552524F5228000D0A5354E7
:1004700041434B2044554D500D0A004546476566A3
:100480006700202B2D2E3031323334353637383952
:10049000680011241FBECFEFD1E2DEBFCDBF1BE04D
:1004A000A0E0B2E0ECE1F5E900E00BBF02C007908C
:1004B0000D92A83CB107D9F710E2A8ECBBE001C04F
:1004C0001D92A035B107E1F70E9407040C948C4AF5
:1004D0000C9495428091020D08958EEC92E09093D9
:1004E0005E0C80935D0C82E59EE090935A0C8093A5
:1004F000590C83ED9DE090935C0C80935B0C82E043
:100500008093600C81E080935F0C8093610C8093FA
:10051000620C8AE090E0A0E0B0E08093630C9093DE
:10052000640CA093650CB093660C1092670C10924B
:10053000680C1092690C10926A0C10926B0C10925D
:100540006C0C10926D0C10926E0C80E095E6ADEC88
:10055000BDE180936F0C9093700CA093710CB093DD
:10056000720C1092730C1092740C1092750C109205
:10057000760C80E097E8A3E9B3E08093770C909342
:10058000780CA093790CB0937A0C88E59CE00E94DB
:10059000B63A80EF90E00E94BE2F08952F923F92CE
:1005A0004F925F926F927F928F929F92AF92BF9283
:1005B000CF92DF92EF92FF920F931F93DF93CF932F
:1005C00000D0CDB7DEB70E94C33800D000D0EDB761
:1005D000FEB7319620E032E0ADB7BEB712963C933D
:1005E0002E931197828313820E9434480F900F90AC
:1005F0000F900F908FE092E00E944D4883E090E0D2
:100600000E941D2F81E090E00E941D2F0E94140F78
:100610008EE59DE064E70E94060F02C00E947A3AD0
:100620000E94FE0E8823D1F300D088E192E0EDB75E
:10063000FEB7928381830E9434480F900F900E94EE
:100640006A348093FB0C8F3F09F582E291E00E94AF
:10065000BE2FE0911720F09118208EE060850E9457
:1006600036330F900F90CF91DF911F910F91FF9034
:10067000EF90DF90CF90BF90AF909F908F907F9042
:100680006F905F904F903F902F9008950E94B42FED
:10069000B82EFFEF8F1721F48EE091E00E94BE2F5D
:1006A0008B2D0E94F534A0905B0B4FE5C42E4EE0DD
:1006B000D42E31E0E32EF12C012D112D04C0EE0CCF
:1006C000FF1C001F111FBA94D2F7BB2422E0622E38
:1006D000712C6C0E7D1E4E010894811C911C95E2BC
:1006E000492E92E0592E81E0282E312C02C0BB24E5
:1006F000B3948A2D0E94BA2B0E94670F882321F0A1
:10070000C401B3010E946A0FBB2059F581E08093B8
:100710005E0EADB7BEB718970FB6F894BEBF0FBE4A
:10072000ADBFEDB7FEB731961296DC92CE9211971F
:100730005382428235822482178216820E94884820
:10074000EEE5FEE001900020E9F7EF55FE40E75F9F
:10075000E983EDB7FEB738960FB6F894FEBF0FBE2B
:10076000EDBF80E090E060E00E94451EC801B70147
:100770000E946E376E157F058007910709F4B7CF89
:100780008EEF90E00E94BE2FB2CF8091FB0C0E94B2
:10079000F5348091020D882379F461E070E080E007
:1007A00090E00090FB0C04C0660F771F881F991F14
:1007B0000A94D2F70E946E3781E008950F931F9339
:1007C000CF93DF93EC010EE51EE081E080935E0E97
:1007D000C801019660E372E00E947447F80101903D
:1007E0000020E9F7AF01401B485F980127503040D7
:1007F0008C8190E06F810EED13E00E94FE0BCE0124
:100800000E94DE09DF91CF911F910F9108958F9281
:10081000AF92CF92EF920F931F930E94B32B87E07A
:1008200090E00E948B2F80E591E00E94BE2F0E94F5
:10083000D83180E090E00E94022F81E090E00E9499
:10084000022F82E090E00E94022F83E090E00E945D
:10085000022F60E070E080E090E020E030E040E0D7
:1008600050E00E94333C0E94920F0E946D0281E092
:1008700090E00E94BE0E82E061E041E00E9491168D
:100880000E94640A00D0EDB7FEB71182128282E0A6
:1008900090E000E010E020E030E040E050E060E078
:1008A00070E0EE24CC24AA2488240E94BB0CEDB76F
:1008B000FEB71182128283E090E020E030E040E059
:1008C00050E060E070E00E94BB0CEDB7FEB7118213
:1008D000128284E090E020E030E040E050E060E010
:1008E00070E00E94BB0C0F900F9081E090E062E0FE
:1008F00043E050E024E030E000E010E00E940D0C06
:1009000089E160E070E040E050E024E000E00E9417
:10091000920D81E063E070E041E050E021E002E010
:100920000E94920D82E064E070E041E050E021E03E
:100930000E94920D83E062E070E040E050E021E030
:1009400000E00E94920D84E060E070E040E050E042
:1009500028E00E94920D85E060E070E040E050E009
:1009600028E00E94920D86E060E070E040E050E0F8
:1009700028E00E94920D8AE160E070E040E050E0E3
:1009800028E00E94920D0E94863180E090E01F9145
:100990000F91EF90CF90AF908F9008958091350296
:1009A00008958091630F9091640F0E94C747089546
:1009B0009F92AF92BF92CF92DF92EF92FF920F93EE
:1009C0001F93CF93DF93EC01962E0E94B42F182F24
:1009D0008F3F21F486E891E00E94BE2F812F0E9474
:1009E000F5348F3F21F481E691E00E94BE2F81E033
:1009F000C82ED12CE12CF12C04C0CC0CDD1CEE1C3B
:100A0000FF1C1A95D2F708C080914620909147208C
:100A10000E94C747813C29F081E00E94882B8823EF
:100A200099F7C701B6010E946E37809146209091D8
:100A300047200E94C747082F813C71F70E94D104CC
:100A4000A82EBB2410E02AC0809146209091472018
:100A50000E94C747982F903C19F09B3DA1F408C015
:100A6000112331F18B2D8F77081711F5812F21C0BC
:100A700081E00E94882B882321F4C701B6010E94DF
:100A80006E370E94D104191540F41A1530F4FE0196
:100A9000E10FF11D80831F5FB80E082F81E00E94D7
:100AA000882B882389F6C701B6010E946E37F6CFDE
:100AB0008FEFDF91CF911F910F91FF90EF90DF901B
:100AC000CF90BF90AF909F9008951F93182F809163
:100AD0005D0F882369F090E028EE33E0AC01429F7F
:100AE000C001439F900D529F900D11240E94F5402C
:100AF00060915E0F70915F0F812F90E00E94084817
:100B00001F910895CF92DF92FF920F931F93CF937F
:100B1000DF93182F092FF62E90E8C92EC61610F471
:100B200083E043C08091600F9091610F0E94143761
:100B30008F3F31F480ED91E00E94BE2F81E035C0FF
:100B400081EC0E9465058F2D0E946505C801292F43
:100B5000E9016E01D82EE60100E00DC08881803CDD
:100B600011F08B3D19F48BED0E94650588810E9480
:100B700065058991080F6E01C11ACF1478F3802F93
:100B80008F770E94650580EC0E9465058091600F5B
:100B90009091610F0E94B2358F3F11F081E008C043
:100BA00082EA91E00E94BE2F82E00E9470328FEFB5
:100BB000DF91CF911F910F91FF90DF90CF9008951B
:100BC0009093640F8093630F70935F0F60935E0F39
:100BD0004093620F20935D0F81E06FEF0E942C35F0
:100BE0009093610F8093600F2FEF8F3F920731F446
:100BF0000E94C338682F8FE00E94363381E08093D3
:100C0000350208958093C80B08958091C80B08950C
:100C10008091C80B8330B1F0843028F4813051F0DA
:100C2000823001F50BC08530A9F0853078F0863030
:100C3000C9F414C000D086E392E017C000D089E563
:100C400092E013C000D08FE792E00FC000D08BEA93
:100C500092E00BC000D08BEC92E007C000D082EF96
:100C600092E003C000D085E193E0EDB7FEB7928338
:100C700081830E9434480F900F90089540E050E027
:100C8000BA01FB01EE0FFF1F33E0660F771F3A95A5
:100C9000E1F7E60FF71FE75AFE4E60817181861774
:100CA000970739F48AE0489F90011124275A3E4E55
:100CB00007C04F5F5F4F4A30510511F720E030E029
:100CC000C901089540E050E0FA01B4E0EE0FFF1FC3
:100CD000BA95E1F7E40FF51FE254FE4E618172818F
:100CE0008617970739F481E1489F90011124225417
:100CF0003E4E07C04F5F5F4F4031510529F720E05E
:100D000030E0C9010895CF93DF93DC01EC01249614
:100D100020E030E0622F832FA901440F551FFA0114
:100D200093E0EE0FFF1F9A95E1F7E40FF51FE759E7
:100D3000F04F9781A901440F551FFA0173E0EE0FA0
:100D4000FF1F7A95E1F7E40FF51FE759F04F408157
:100D5000442309F463C0A901440F551FFA0173E04D
:100D6000EE0FFF1F7A95E1F7E40FF51FE759F04FFB
:100D70004481413009F052C0907392959F70A9014F
:100D8000440F551FFA0173E0EE0FFF1F7A95E1F74C
:100D9000E40FF51FE759F04F0084F185E02D13961D
:100DA0004C91139750E00180F281E02DE417F50794
:100DB00021F49923D9F19230C9F1462F582F440FCD
:100DC000551FFA0173E0EE0FFF1F7A95E1F7E40F6C
:100DD000F51FE759F04F0284F385E02D40815181E2
:100DE00041155105D9F0462F582F440F551FFA01D0
:100DF00083E0EE0FFF1F8A95E1F7E40FF51FE75937
:100E0000F04F0284F385E02D4A8150E060817181CA
:100E10006417750719F49150923040F02F5F3F4FDF
:100E20002431310509F076CF80E001C081E0DF9107
:100E3000CF9108954F925F926F927F928F929F927F
:100E4000AF92BF92CF92DF92EF92FF920F931F93D8
:100E5000CF93DF9362E370E00E94D946F82EC82F4B
:100E6000D0E08E010F5F1F4F21E030E040E050E006
:100E700060E070E080E090E00E9402451F2D1F5F5F
:100E80007090DD108090DE109090DF10A090E01048
:100E9000B090E110C090E210D090E310E090E41028
:100EA00021C0E22FE721432E4820542E5920652EE1
:100EB0006A20062F0B21B72FBC21A82FAD21F92FB7
:100EC000FE21E429E529E629E02BEB2BEA2BEF2B89
:100ED00029F0212F30E02C1B3D0B36C001E00E9491
:100EE00002451F5F1233E8F221E030E040E050E0BD
:100EF00060E070E080E090E010E0E22FE721432E18
:100F00004820542E5920652E6A20062F0B21B72F1A
:100F1000BC21A82FAD21F92FFE21E429E529E629DE
:100F2000E02BEB2BEA2BEF2B39F022E330E02C1BEC
:100F30003D0B210F311D08C01F5FF11620F001E0AD
:100F40000E940245DACF01C0C901DF91CF911F9104
:100F50000F91FF90EF90DF90CF90BF90AF909F9058
:100F60008F907F906F905F904F900895CF93DF9315
:100F7000FB01DC01AC57BF4F8C91C285D385882320
:100F800059F08A8190E08077907044E0959587953C
:100F90004A95E1F720E020C080E00084F185E02D53
:100FA0004C815D812181328142175307D9F411C0F0
:100FB0001296AA0FBB1FAC0FBD1F408551856D91C6
:100FC0007C91DA0111964D915C9112976417750727
:100FD00011F481E007C02F5FA22FB0E0A817B90776
:100FE0003CF380E0DF91CF9108952F923F924F9292
:100FF0005F926F927F928F929F92AF92BF92CF92A9
:10100000DF92EF92FF920F931F93DF93CF93CDB7B1
:10101000DEB72B970FB6F894DEBF0FBECDBF3C01F5
:10102000DC0117960C911797007302950F7009F069
:10103000C3C010E0D3011896ED91FC911997309739
:1010400009F4A0C18081882309F49CC121813281E7
:101050003A83298360E070E020E030E000E0A5E81A
:10106000B0E02A9FC0012B9F900D3A9F900D112454
:1010700082539D4EF6E76F2E712C680E791EF30198
:101080006080662009F48CC0E5E76E2E712C680E36
:10109000791EF3016080662009F482C0FAE76F2EA2
:1010A000712C680E791EF30160807180E981FA81EC
:1010B0006E167F0609F074C00023B1F4FC01E758F6
:1010C000FF4F1081AB0142535D4EFC01E058FF4FD2
:1010D00080809180A280B38084589F4FFC01C080A3
:1010E000D180E280F38001E02A9FC0012B9F900D08
:1010F0003A9F900D112482539D4EE9E76E2E712C7C
:10110000680E791EF3014080141540F160801615B9
:1011100009F046C0FCE76F2E712C680E791EF301B2
:1011200020803180428053802C143D044E045F04A3
:10113000A8F04080518062807380C414D504E60416
:10114000F70471F580589F4FFC0140805180628008
:101150007380481459046A047B0410F52A9FC00167
:101160002B9F900D3A9F900D112482539D4EAC0100
:1011700047585F4FFA011081AB0142535D4EE0E8E2
:10118000CE2ED12CC80ED91EF60180809180A2806F
:10119000B38084589F4FFC01C080D180E280F380EF
:1011A0002F5F3F4F6B577F4F2431310509F059CFE7
:1011B000002309F4E7C0E8C0802F8150823008F096
:1011C000E0C0D3011A96ED91FC911B97309721F066
:1011D00080819181009721F4023009F0D3C029CF9A
:1011E000442455241B861A861D8210E065E8262EAD
:1011F000312C2A853B85229DF001239DF00D329DE7
:10120000F00D11249F0122533D4ED901AA58BF4F22
:101210008C91882309F4A2C0D901AB58BF4F8C919F
:10122000882309F49BC0E153FD4E8681882309F48D
:1012300095C090E0D3011A96ED91FC911B976081C7
:1012400071818617970709F089C0F201E253FD4EBC
:10125000FA83E983CF01B301288739874E835F83FF
:101260000E94B607288539854E815F81882309F45D
:1012700075C0FD81FF23B1F4F901E758FF4F1081DC
:1012800049815A81F901E058FF4F80809180A28006
:10129000B38024583F4FD901CD90DD90ED90FC9064
:1012A000B1E0BD83EA85FB85E29DB001E39D700D51
:1012B000F29D700D112462537D4EFB01E758FF4FE4
:1012C0002081121750F12081121709F047C09B01AD
:1012D00024583F4FD9018D919D910D90BC91A02D27
:1012E0008C159D05AE05BF05C0F0D9018D919D916E
:1012F0000D90BC91A02DC816D906EA06FB0671F523
:10130000CB0180589F4FFC0180819181A281B381E4
:1013100088159905AA05BB0508F52A853B85229DF8
:10132000C001239D900D329D900D112482539D4E3E
:10133000FC01E758FF4F1081A20142535D4EFC01B2
:10134000E058FF4F80809180A280B38084589F4FE7
:10135000DC01CD90DD90ED90FC901397EA85FB8544
:101360003196FB87EA8725E830E0420E531EE431D0
:10137000F10509F03ECF3D81332331F4023011F401
:1013800059CE03C040E050E0CA012B960FB6F89446
:10139000DEBF0FBECDBFCF91DF911F910F91FF90A8
:1013A000EF90DF90CF90BF90AF909F908F907F9005
:1013B0006F905F904F903F902F900895FC01EA58F6
:1013C000FF4F1082FC01EB58FF4F108289589F4F4E
:1013D000FC01118210828091421D81508093421D38
:1013E00008951092761D80E090E0FC01EE0FFF1F43
:1013F000EE0FFF1FEA58F24E1282118201968431DD
:10140000910599F7089580E01DC0E82FF0E0DF0115
:10141000AA0FBB1FAA0FBB1FAA58B24E12961C924E
:101420001E921197DF01AA0FBB1FAA0FBB1FA65860
:10143000B24E1C92EE0FFF1FEE0FFF1FE858F24E48
:1014400011828F5F9091761D8917F8F21092761DA8
:10145000089585ED90E10E94883D0895EF92FF92F6
:101460000F931F93DF93CF93CDB7DEB728970FB6B7
:10147000F894DEBF0FBECDBFCE0101960E94883D1D
:1014800080E029813A814B815C81E090D510F09019
:10149000D6100091D7101091D8102E193F09400B8B
:1014A000510B2D3331054105510508F081E0289697
:1014B0000FB6F894DEBF0FBECDBFCF91DF911F9165
:1014C0000F91FF90EF90089580E090E09C01220F33
:1014D000331FF90143E0EE0FFF1F4A95E1F7E20FDA
:1014E000F31FE759F04F108201968431910571F78F
:1014F00080E090E0FC0134E0EE0FFF1F3A95E1F749
:10150000E80FF91FE254FE4E1082019680319105DA
:1015100089F71092421D1092D1108CE390E09093C5
:10152000D4108093D31085ED90E10E94883D0895FA
:101530009C0190E010C0E92FF0E0EE0FFF1FEE0FCE
:10154000FF1FEA58F24E418152814217530711F4AE
:1015500081E008959F5F8091761D981760F38091D8
:10156000761D843128F085E00E9402068FEF0895F1
:10157000E091761DF0E0EE0FFF1FEE0FFF1FEA581F
:10158000F24E328321838091761D8F5F8093761D8A
:101590008091761D00D000D000D0EDB7FEB7319617
:1015A00047E253E0ADB7BEB712965C934E931197E6
:1015B0003383228390E00197958384830E9434488B
:1015C00081E02DB73EB72A5F3F4F0FB6F8943EBF7C
:1015D0000FBE2DBF089540E050E0BA01660F771F9F
:1015E000FB0193E0EE0FFF1F9A95E1F7E60FF71F5F
:1015F000E759F04F90819923B9F0BA01660F771F30
:10160000FB01A3E0EE0FFF1FAA95E1F7E60FF71F1E
:10161000E759F04F9089981739F482E1489F90017B
:1016200011242759304F1CC04F5F5F4F4431510583
:10163000A1F600D000D0EDB7FEB731962BE433E031
:10164000ADB7BEB712963C932E9311978283138247
:101650000E94344820E030E00F900F900F900F90E0
:10166000C90108958F929F92AF92BF92CF92DF925D
:10167000EF92FF920F931F93CF93DF9368015091E6
:10168000421D553110F083E003C0443720F084E060
:101690000E94020654C0A0E0B0E075E8A72EB12C6D
:1016A0001A2FAA9D4001AB9D900CBA9D900C11245D
:1016B000F401E253FD4E56E7E52EF12CEE0EFF1E2F
:1016C000E7015881552369F54083DF01A758BF4FD3
:1016D0006C93DF01AB58BF4F51E05C935883DF013F
:1016E000A658BF4F11969C938E93DF01A958BF4F08
:1016F0001196DC92CE92EC57FF4F1082B4016153E9
:101700007D4ECB01B90150E00E946447C401865B65
:101710009C4E0E94883D8091421D8F5F8093421DA8
:1017200006C01F5F1196A431B10509F0B9CF14317D
:1017300011F081E005C081E793E00E944D488FEFF2
:10174000DF91CF911F910F91FF90EF90DF90CF909D
:10175000BF90AF909F908F9008950F931F93CF935A
:10176000DF9326E73DE11091761D110F110F412FF8
:101770004F5FCCEED0E11092EC10BE016F5F7F4F57
:10178000CB01B90150E00E9464478091FE0C809328
:10179000E8109091650F9093E710412F475F9E01ED
:1017A0002750304090E060E000E010E00E94320BF3
:1017B000DF91CF911F910F9108958F929F92AF92D9
:1017C000CF920F931F93DF93CF93CDB7DEB7CB01AB
:1017D000642F4A2D9401F4018383C6820B851C85F6
:1017E0000E94320BCF91DF911F910F91CF90AF905C
:1017F0009F908F9008950E94810F08950F931F93DB
:10180000F9018383668360E00E94320B8F3F11F4FD
:101810000E9408061F910F9108958F929F92AF9298
:10182000BF92CF92DF92EF92FF920F931F93CF93CD
:10183000DF93EC01F62E6A015901480100E010E047
:1018400020E0EE24C801F801EE0FFF1FA3E0880F8F
:10185000991FAA95E1F7E80FF91FE75AFE4E80811C
:101860009181C817D90791F400D000D084E893E0A3
:10187000ADB7BEB712969C938E9311971496DC93D6
:10188000CE9313970E943448E02E35C0C801F8016A
:10189000EE0FFF1F63E0880F991F6A95E1F7E80FCD
:1018A000F91FE75AFE4E80819181009721F422238F
:1018B00011F4E02E21E00F5F1F4F0A30110511F6E1
:1018C000222341F486E00E9402060E94080620E0DE
:1018D00030E043C000D000D0EDB7FEB7319689EAC2
:1018E00093E0ADB7BEB712969C938E931197E282A8
:1018F00013820E9434480F900F900F900F908E2DFE
:1019000090E0FC01EE0FFF1F9C0143E0220F331F0C
:101910004A95E1F7E20FF31FE75AFE4ED183C083E9
:10192000DC01AA0FBB1FAA0FBB1FA80FB91FAA0F6C
:10193000BB1FA55ABE4E8C91F29410EFF122F82AEB
:10194000FC92D582C482B782A682918680862AE0E4
:10195000E29E90011124275A3E4EC901DF91CF919A
:101960001F910F91FF90EF90DF90CF90BF90AF90BD
:101970009F908F9008952F923F924F925F926F9217
:101980007F928F929F92AF92BF92CF92DF92EF920F
:10199000FF920F931F93DF93CF930F92CDB7DEB7D4
:1019A0003C01532EB42EF52ED62E972E222433240E
:1019B000442480E0922DF10154E0EE0FFF1F5A9570
:1019C000E1F7E20DF31DE254FE4E418152816416AF
:1019D0007506B1F43081332399F000D000D083EC48
:1019E00093E0ADB7BEB712969C938E931197149661
:1019F0007C926E92139729830E943448422C34C003
:101A0000F10144E0EE0FFF1F4A95E1F7E20DF31DEF
:101A1000E254FE4E3081332321F4882311F4492E01
:101A200081E00894211C311CB0E12B16310411F621
:101A3000882341F482E00E9402060E94080620E00A
:101A400030E05BC000D000D0EDB7FEB731968CEE31
:101A500093E0ADB7BEB712969C938E9311974282D6
:101A6000138229830E9434480F900F900F900F909B
:101A70002981842D90E0FC0134E0EE0FFF1F3A95A0
:101A8000E1F7E80FF91FE254FE4E7282618231E005
:101A90003083DF011396038311961C9311971296DE
:101AA0002C93129713965C9213971496BC921497EA
:101AB0001596FC9215971696DC92169717969C929F
:101AC0001797E386C486AA2019F025852068258704
:101AD000FC0114E0EE0FFF1F1A95E1F7E80FF91F64
:101AE000E254FE4E86868E8987878F89808B21E11E
:101AF000429E9001112422543E4EC9010F90CF9175
:101B0000DF911F910F91FF90EF90DF90CF90BF90EA
:101B1000AF909F908F907F906F905F904F903F908D
:101B20002F9008959F92AF92BF92CF92DF92EF9243
:101B3000FF920F931F93CF93DF93182FEB017A013E
:101B4000D22E902E8F3328F089E094E00E944D48E9
:101B5000E6C080E090E00FEFC82E0F3F89F49C01B3
:101B6000220F331FF90163E0EE0FFF1F6A95E1F7C3
:101B7000E20FF31FE759F04F2081222309F4082FC9
:101B80009C01220F331FF90143E0EE0FFF1F4A951E
:101B9000E1F7E20FF31FE759F04F20892117B9F45D
:101BA00000D000D0EDB7FEB7319683E294E0ADB738
:101BB000BEB712969C938E931197128313820E9444
:101BC00034480C2D0F900F900F900F900FC0C394BE
:101BD00001968431910509F0BFCF0F3F39F481E0C0
:101BE0000E9402060E9408068FEF99C0B1E0DB1642
:101BF00029F0C0E0D0E0AA24BB2413C0209719F438
:101C0000AA24BB2404C0CE010E9462065C01E11438
:101C1000F10419F4C0E0D0E004C0C7010E943E0600
:101C2000EC01E02EFF24E7FCF09400D000D08AE421
:101C300094E0EDB7FEB792838183F482E3820E9441
:101C40003448EE0CFF1CF701B3E0EE0FFF1FBA950E
:101C5000E1F7EE0DFF1DE759F04F81E08083B1867B
:101C6000A086D387C287D482108BD387C2878C2D5E
:101C700090E0880F991FDC0173E0AA0FBB1F7A95D3
:101C8000E1F7A80FB91FA759B04F17968C91179776
:101C9000929460EF9622982A97820F900F900F905F
:101CA0000F90173141F4609148207091492088E7E6
:101CB00090E00E94084821E030E040E050E060E021
:101CC00070E080E090E0012F0E940245E091DD107D
:101CD000E22BE093DD102091DE10232B2093DE1009
:101CE0002091DF10242B2093DF102091E010252B72
:101CF0002093E0102091E110262B2093E1102091F9
:101D0000E210272B2093E2102091E310282B209340
:101D1000E3108091E410892B8093E41081E0DF913F
:101D2000CF911F910F91FF90EF90DF90CF90BF90D8
:101D3000AF909F90089521E030E040E050E004C073
:101D4000220F331F441F551F8A95D2F780910B0C29
:101D500090910C0CA0910D0CB0910E0C822B932B3A
:101D6000A42BB52B80930B0C90930C0CA0930D0C13
:101D7000B0930E0C08958091240C0895813019F0D1
:101D80008330D9F531C083E18093251E8CE08093A8
:101D9000261E84E18093271E88E18093281E80E11F
:101DA0008093291E87E180932A1E82E180932B1E57
:101DB00089E180932C1E8EE080932D1E85E1809317
:101DC0002E1E8BE080932F1E8FE08093301E86E1C5
:101DD0008093311E81E18093321E8DE08093331E0B
:101DE0008AE18093341E08958FE08093211E84E160
:101DF0008093221E89E18093231E08958091560EC0
:101E0000813011F08FEF089581E00895662351F03D
:101E1000009741F09093170C8093160C6093150C6B
:101E200081E008958FEF089582E08093560E089523
:101E3000FC012481213011F491E801C091E0892F47
:101E40008066243011F4892F80670084F185E02DAD
:101E5000958597FD84600895882311F083E801C07B
:101E600083E06295607F862B08958F92AF92CF9228
:101E7000EF920F93DF93CF93CDB7DEB71092041E8E
:101E80009AE090930B1E10920C1E80930D1E60938F
:101E90000E1E40930F1E1092101E2093171E0093CB
:101EA000181EE092191EC0921A1EA0921B1E80924C
:101EB0001C1E8A8580931D1E8B8580931E1ECF91CC
:101EC000DF910F91EF90CF90AF908F900895809118
:101ED000D40E0895FC01DB018091D40E882329F4EF
:101EE00010821C9220E030E00AC08091140C8083A4
:101EF0008091190C8C932091160C3091170CC9010C
:101F000008951092D40E1092D50E1092D60E109203
:101F1000D70E08958091440D813011F08FEF089510
:101F200081E00895CF93DF9387EA95E190933B0C8E
:101F300080933A0CC5E3DCE0CE016BE77CE040E83F
:101F400050E00E94B84484E1888781E08F838987CC
:101F50008A871B861C861D861E8680E896E9A8E96E
:101F6000B0E08F87988BA98BBA8B1B8A1C8A1D8A3D
:101F70001E8A1F8A188E198E1A8E1B8E1C8E1D8E1D
:101F80001E8E1F8E18A219A21AA2CE010E94B63A66
:101F9000DF91CF910895EF92FF920F931F93CF930C
:101FA000DF93C0E0D0E001E0E091160CF091170C57
:101FB000008381E19CE06091240C0E94312A0E9400
:101FC00096251092011E8AEF0E94BC4180E00E947B
:101FD000A241EE240FC00E942342E81659F00E944D
:101FE0002342E82E219687E2C131D80718F0C0E0DD
:101FF000D0E005C00E944722182F882361F30E9479
:1020000038410E942342E82EFF2484E090E0E80E4D
:10201000F91E112339F40DC00E94234290E0E81606
:10202000F90638F080E060E80E942223182F882308
:1020300099F30E947E25113009F0B6CFE091160C7D
:10204000F091170C808122819091FE0C291709F0E4
:10205000ABCF84FFA9CF81E090E0A0E0B0E0809317
:10206000D40E9093D50EA093D60EB093D70E818147
:1020700090E09093D61D8093D51D82E090E00E9461
:10208000E72E609148207091492089E690E00E94F7
:1020900008481093011E1092D40E1092D50E109283
:1020A000D60E1092D70E0E9497410E94AE418AE050
:1020B0000E94BC4187E00E94A24180E090E061E183
:1020C00070E80E9440410E94A541E0911720F091E4
:1020D00018208AE090E0968B858B8091011EDF911D
:1020E000CF911F910F91FF90EF9008958F929F9243
:1020F000AF92BF92CF92DF92EF92FF920F931F9316
:10210000DF93CF93CDB7DEB727970FB6F894DEBF36
:102110000FBECDBF5C016B0181E080931F0CD50128
:1021200014968C911497813089F5C5010E94F507AA
:102130004C018C01009709F4FEC1C092D11D01969B
:1021400090931E0C80931D0CF401808180931C0CD5
:10215000C5010E94180FE82EE0911D0CF0911E0C95
:102160008083E0911D0CF0911E0C8781882339F04B
:10217000E0911D0CF0911E0C80910F0C8283F401F4
:10218000EC57FF4F80818F5F80832BC0843049F5EF
:1021900085E39EE190931E0C80931D0C8BE1809350
:1021A0001C0CC5010E94180FE82EE0911D0CF09147
:1021B0001E0C8083E0911D0CF0911E0C80910F0C81
:1021C0008283E0911D0CF0911E0C8091D51D9091A1
:1021D000D61D8183E0911D0CF0911E0CE581F0E08D
:1021E00010820E94384180E090E060E875E20E9431
:1021F0004041F090500B8F2D0E94BA2B6091D21D60
:102200007091D31D4091260C5091270C8AE19CE0DF
:102210002DEF3DE10E9495278823F1F08091CE0BB0
:102220009091CF0B01969093CF0B8093CE0B8F2D77
:102230000E94302C83E090E00E94E72E8091FD1DEB
:102240009091FE1D2091D21D3091D31D821B930BC6
:102250009093CD1D8093CC1D8091D41D0E94143687
:10226000E7FE69C10E9496258F2D0E94BA2B0E941D
:10227000384180E090E060E070E10E9440410E94BF
:102280002342898389818E5F898341C00E942342D2
:1022900099819817E0F58091D11D282F30E0C21662
:1022A000D30631F48091AA1E9091AB1E49960EC0C0
:1022B000C81A8091AA1E9091AB1E2C2D332727FDA2
:1022C00030951C140CF04996820F931F9093AB1E0F
:1022D0008093AA1E0E947E258F2D0E94302C609133
:1022E00048207091492083E790E00E94084880913F
:1022F000D20B9091D30B01969093D30B8093D20B7A
:10230000F801EC57FF4F80818330B8F514C10E946B
:102310004722882309F4BACF0E9423428983898106
:102320008E5F8983E2FC37C092E0C92E36C00E94DE
:1023300023429981981788F500D083E694E0ADB7E1
:10234000BEB712969C938E9311970E943448809149
:10235000D20B9091D30B01969093D30B8093D20B19
:102360000F900F900E9423428093C91DF801EC57F3
:10237000FF4F8081833009F0DEC0F801E958FF4F3C
:1023800080819181009709F4CCC00190F081E02D0B
:10239000C80160E0CFC084E0C82E81E06C2D0E94AF
:1023A0002223E82E882319F2B1E08B1741F16091C6
:1023B00048207091492086E690E00E94084800D0AD
:1023C00000D0EDB7FEB7319684E894E0ADB7BEB764
:1023D00012969C938E9311978091241E8283138270
:1023E0000E9434488091D20B9091D30B0196909328
:1023F000D30B8093D20B0F900F900F900F900E94F1
:102400007E258F2D0E94302CB1E0EB1609F093C091
:102410008091D00B9091D10B01969093D10B80932A
:10242000D00BE091160CF091170C80818093A91EBF
:102430001092AB1E1092AA1E87FF62C0318120E06D
:10244000828190E0822B932B9093CF1D8093CE1DA1
:1024500080E090E00E94E72E8091CE1D9091CF1DEC
:10246000885795402091CC1D3091CD1D821B930B38
:102470009F838E8382E389838E819F8197FD2DC008
:102480000E9423428B838E819F812DE93CE16DE97F
:102490007CE10E94ED466F5F6A838E819F816DE9CA
:1024A0007CE10E94ED46281B390B3D832C830E9462
:1024B00097410E9438416C817D8180E090E00E94CC
:1024C00040418B819A81890F0E94A2410E94A541BF
:1024D00082E390E00E94F54013C08E819F8197FFB8
:1024E0000FC00E9497410E9438416E817F81709594
:1024F00061957F4F80E090E00E9440410E94A5419D
:10250000F801EC57FF4F8081833021F08091A91EA4
:10251000807389F4F801E958FF4F80819181009719
:1025200021F4C8010E94DE0906C00190F081E02D6F
:10253000C80161E0099527960FB6F894DEBF0FBE7B
:10254000CDBFCF91DF911F910F91FF90EF90DF9062
:10255000CF90BF90AF909F908F9008958F92AF9241
:10256000BF92CF92DF92EF92FF920F931F93DF9370
:10257000CF930F92CDB7DEB781E19CE06091240C40
:102580000E94312A0E949625C0905A0B8C2D0E94E1
:10259000BA2B0E942342898389818C5F89830BC077
:1025A0000E9423429981981730F48C2D0E94302C80
:1025B0000E947E2579C20E944722882389F30E94C7
:1025C00084419093031E8093021E0E9423428983BC
:1025D00089818B5F898311C00E942342998198175A
:1025E00060F400D083E694E0ADB7BEB712969C933A
:1025F0008E9311970E94344817C180E060E80E94D2
:102600002223082F882341F38C2D0E94302C0E9416
:102610007E250130E1F0609148207091492082E6EA
:1026200090E00E94084800D000D0EDB7FEB7319688
:1026300083E994E0ADB7BEB712969C938E93119741
:102640008091241E828313820E94344824C2809188
:10265000D00B9091D10B01969093D10B8093D00B1E
:1026600081E090E00E94E72E0091160C1091170C6B
:10267000F801E380B0808091C81D0E941436AB2C15
:10268000B4FE0EC0E091160CF091170C828190E020
:102690000E94980A8F3F09F0E1C10E940806DEC13E
:1026A000FF24B7FC02C0DD245CC08091CE0B90916A
:1026B000CF0B01969093CF0B8093CE0B8091160C8D
:1026C0009091170C0E948306D82E882349F480919C
:1026D000650F9091660F8E159F0511F083E001C084
:1026E00080E09B2D947011F493E001C093E88295F3
:1026F000807F892B8093A91E8093CB0E8BEC9EE06C
:102700009093320C8093310CA2FE14C08091021E73
:102710009091031E2091D21D3091D31D821B930BEB
:102720009093CF1D8093CE1D9093CC0E8093CD0EB1
:1027300084E001C082E08093300C8C2D0E94BA2B83
:102740006091D21D7091D31D4091260C5091270CA1
:102750008EE29CE02DEF3DE10E9495278C2D0E949A
:10276000302CF8013796D80117968C911797813045
:1027700091F58091650F9091660FE816F90679F44E
:10278000C090160CD090170CF601828190E0B70132
:1027900040E020E000E0EE240E94FB0B85C1DD203C
:1027A000A9F04091140C552747FD50952091160C27
:1027B0003091170CC70160E070E000E010E00E946B
:1027C000320B00D000D080EA94E060C000D000D08E
:1027D00089EB94E050C1823091F58091650F909122
:1027E000660FE816F90619F500D081819281ADB720
:1027F000BEB711961C92119712961C9200E010E041
:1028000020E030E040E050E060E070E0EE24CC24D6
:10281000AA2488240E94BB0C1092D40E1092D50ECC
:102820001092D60E1092D70E0F900F903DC1DD2062
:1028300009F004C100D000D083EF94E01CC18330C4
:1028400081F58091650F9091660FE816F906B9F44D
:10285000D801189612964D915C91139714962D916C
:102860003C9115971696ED90FC901797F80180858E
:1028700090E011966C9187010E940D0CEFC0DD2055
:1028800009F0DCC000D000D08FE295E0ADB7BEB754
:1028900012969C938E9311971496FC92EE92139736
:1028A000F0C08430E9F48091650F9091660FE816CE
:1028B000F90671F4F8013896618172814381D8017B
:1028C00018968C9150E0248105810E94920DC6C01B
:1028D000DD2009F0B3C000D000D081E695E0CBC088
:1028E000882309F07BC080915D0D823009F069C0BA
:1028F00000D000D0EDB7FEB7319687E995E0ADB7CF
:10290000BEB712969C938E931197A091160CB0911E
:10291000170C12968C91828313820E94344848E0EF
:10292000E42EF12CE00EF11ED8011996E091160C60
:10293000F091170CBF016E5F7F4FE281F0E0EE0F68
:10294000FF1FE652F24E1182108280E00F900F902E
:102950000F900F9041E050E017C0FB019081E92FEC
:10296000F0E0EE0FFF1FE652F24E8A010C9002C01B
:10297000000F111F0A94E2F720813181202B312BA7
:102980003183208314968F5FF7019081891728F394
:1029900060914820709149208AE090E00E940848A8
:1029A00060914820709149208DE090E00E94084895
:1029B00060914820709149208EE690E00E9408487E
:1029C0004DC04091140C552747FD50952091160C91
:1029D0003091170C8091FE0C90E03AC0853009F0E0
:1029E0005FC000D000D0EDB7FEB7319689EB95E01F
:1029F000ADB7BEB712969C938E931197A091160C0B
:102A0000B091170C12968C91828313820E943448E5
:102A10000F900F900F900F908091650F9091660F1F
:102A2000E816F90619F40E94030A18C08091160CE2
:102A30009091170C0E9483068823C9F04091140CD2
:102A4000552747FD50952091160C3091170CC70162
:102A500060E070E000E010E00E94320B1092D40EB3
:102A60001092D50E1092D60E1092D70E1DC000D027
:102A700000D08DED95E0EDB7FEB792838183F482AF
:102A8000E3820E9434481092D40E1092D50E109218
:102A9000D60E1092D70E0F900F900F900F9004C08B
:102AA00083E196E00E944D480F90CF91DF911F91F6
:102AB0000F91FF90EF90DF90CF90BF90AF908F90ED
:102AC00008958091C81D0E94F5348091D41D0E9404
:102AD000F53421E030E040E050E0CA01B901009057
:102AE000D41D04C0660F771F881F991F0A94D2F760
:102AF0000090C81D04C0220F331F441F551F0A94A5
:102B0000D2F7622B732B842B952B0E946E3781E0BA
:102B100008958091C81D0E94F5348091D40E8823B9
:102B200079F461E070E080E090E00090C81D04C09E
:102B3000660F771F881F991F0A94D2F70E946E377D
:102B400081E008958093240C0E94622A0895EF92F8
:102B5000FF920F931F93DF93CF930F92CDB7DEB702
:102B60001092560E0E947A3A8091560E8823D1F325
:102B700081E08093560E1091500BEE24FF2401E06B
:102B80000E9438410E9484419093D31D8093D21DAE
:102B9000812F0E94BA2B812F0E94302C8091D51D4D
:102BA0009091D61D9093001E8093FF1D8091D51D9E
:102BB0009091D61D87399105A8F08091D51D9091EF
:102BC000D61D62E370E00E94D9469093D61D809393
:102BD000D51D8091CA1D9091CB1D01969093CB1D60
:102BE0008093CA1D8091D51D9091D61D2091011E04
:102BF000213059F562E370E00E94D946682FE091D8
:102C0000C90BEE0DE093C90BF0E0EF70F070EB5DD7
:102C1000F14E80818093241E69830E94A2156981F0
:102C2000862F0E94EB0A69810097F1F0FC01248154
:102C3000283019F40E94AE1217C0213011F0243050
:102C400099F470E00E9476100FC080915D0D823083
:102C500049F01092CD0B1092CC0B0E94CB0F8093B9
:102C6000011E02C00093011E2091AA1E3091AB1ECE
:102C70008091290690912A062817390788F18091BA
:102C80005D0D823069F11092011E1092AB1E109200
:102C9000AA1E1092D61D1092D51D8091FC0C909109
:102CA000FD0C01969093FD0C8093FC0C80910F0C11
:102CB000813049F0E091FE0CE093C90BF0E0EB5D50
:102CC000F14E808104C01092C90B8091251E809323
:102CD000241E8091241E0E94A215EE24FF2450CFB2
:102CE0008091D51D9091D61D0E941A077C0180917C
:102CF000D51D9091D61D8E0D9F1D9093D61D80934E
:102D0000D51D80E090E00E94022F1092CD1D109200
:102D1000CC1DC7010E94483A80E090E00E941D2F20
:102D20002FCFFF920F931F93F82E062F142F0E9480
:102D30006A348093C81D8F3F19F484E292E008C082
:102D40000E946A348093D41D8F3F71F48DEF91E01F
:102D50000E94BE2FE0911720F09118208EE0608530
:102D60000E9436338FEF6DC01092170C1092160C24
:102D70001092150C0E9434411092CB1D1092CA1D66
:102D800084E690E09093D61D8093D51D1092011E8D
:102D90001092440D1092AB1E1092AA1EF0925D0D7F
:102DA00000930F0C0093650F1092660F1093FE0CAA
:102DB0001092D40E1092D50E1092D60E1092D70EFD
:102DC00084E680932A0C80E49FE19093290C809301
:102DD000280C80EA9FE09093270C8093260C8FE0CC
:102DE0008093240C81E899E19093230C8093220C2A
:102DF00081E19CE06FE041E254E221E839E10E9488
:102E0000752A81E08093D01D1092FA1D013041F0A7
:102E10001093C90BE12FF0E0EB5DF14E808104C00F
:102E20001092C90B8091251E8093241E8091241E30
:102E30000E94A2151092FD0C1092FC0C0E94640AD4
:102E400081E01F910F91FF900895AAE7B0E083E021
:102E50008C93ECE7F0E080E480838C9180688C9325
:102E60001092AD1E8081807E808390818081807EE3
:102E7000892B8083089588EC90E00E94F5400895A6
:102E800080917A00806480937A0080917A0084FF38
:102E9000FCCF0E943B172091780030E040917900F0
:102EA000942F80E0282B392BC9010895BF92CF922F
:102EB000DF92EF92FF920F931F93DF93CF9300D097
:102EC000CDB7DEB70E94CB217C01009711F00E94A4
:102ED0001437159A10E08BE1B82E0BE5812F806234
:102EE00090E09A8389834098BEBC0DB407FEFDCF65
:102EF00089819A819EBD0DB407FEFDCF89819A819B
:102F00008EBD0DB407FEFDCF409A82E090E00E9496
:102F1000F54040980EBD0DB407FEFDCF1EBC0DB4AC
:102F200007FEFDCF8EB5D82ECC24DA82C9821EBC16
:102F30000DB407FEFDCF29813A818EB590E0822B3A
:102F4000932B9A838983409A89819A8186FD03C055
:102F50001F5F1F3119F6E114F10419F0C7010E9437
:102F6000B2351123C1F40E9440179A838983898165
:102F70009A818F3A910530F089819A818E5A9040DA
:102F80009A83898389819A8121E08A349207C0F4E7
:102F90008AE491E013C0212F30E083E89FEFAC0179
:102FA000249FC001259F900D349F900D1124885DB2
:102FB0009C4D6BE170E00E94ED46CB019A838983C2
:102FC00029813A81C9010F900F90CF91DF911F9114
:102FD0000F91FF90EF90DF90CF90BF900895CF9228
:102FE000DF92EF92FF920F931F93CF93DF93EA014B
:102FF000122F823009F489C0833030F4882371F0B5
:10300000813009F0D6C010C0843009F488C0843003
:1030100008F47FC0853009F0CCC030C080E880BBA8
:103020008F9A0E94251772C09091AC1E913009F4BE
:10303000C6C08093AC1E70E060FF13C08F981092E2
:10304000AD1E80917C00807E80937C0090917C00FE
:1030500080917C00807E892B80937C0088EE93E0B9
:103060007FC0CB0186709070009709F0A8C0677090
:1030700070706115710509F4A2C074C0822F81506F
:10308000823008F09AC08091AD1E982F91509630F2
:1030900018F40E94401704C0882369F40E94561750
:1030A000123019F48883998326C096958795969552
:1030B0008795888327C0873029F500E0CC24DD245C
:1030C00021E0E22E24E0F22E0E9440178E159F058B
:1030D00008F47C01C816D90608F46C018DE790E06D
:1030E0000E94F5400F5F003479F7CE18DF081230E8
:1030F00021F4C882D98281E006C0D694C794D694C0
:10310000C794C88280E08F5F5BC08F9A1092AC1E1C
:1031100029C0613009F053C08091AD1E51C06130AB
:1031200009F04DC0273001F52093AD1E80917C0041
:103130008F7780937C0080917C00806480937C00FA
:1031400080917C00807E80937C0080917C009091B7
:103150007C008360907E892B80937C0088EC90E0DB
:103160000E94F54081E02CC0283020F081E00E94D0
:10317000703225C02093AD1E213049F480917C002F
:103180008F7780937C0080917C00806403C0809165
:103190007C00806C80937C0080917C00807E80939A
:1031A0007C0090917C0080917C00807E892B812B1B
:1031B000D3CF8CE060E00E94363380E001C08FEF17
:1031C000DF91CF911F910F91FF90EF90DF90CF9003
:1031D000089581E080934E0B089510924E0B089550
:1031E0001092D90B1092070C1092FA0B1092060C49
:1031F0001092080C8FEF8093090C10920A0C109219
:10320000AF1E1092AE1E08958091060C90910A0C8C
:10321000891B0895DF92EF92FF920F931F93CF9334
:10322000DF93E62E90910A0C980FE92FF0E0E75219
:10323000F44F81A1F2A0F81AC82FD0E0C652D44FA3
:1032400010E00AE020E030E040E050E03DC088813E
:10325000EE2021F0112311F48D32A1F1883711F005
:10326000883549F4211531054105510521F4912F87
:103270009150923030F1813610F097E509C08134D9
:1032800010F097E305C08A3310F090E001C090E39E
:10329000D82ED91AD01668F4602F70E080E090E044
:1032A0000E94BA469B01AC012D0D311D411D511DDF
:1032B00009C085E08093080C20E030E040E050E059
:1032C00005C000E11F5F21961F1508F2B901CA0170
:1032D000DF91CF911F910F91FF90EF90DF900895B4
:1032E00060E00E940A19089580E00E9470199B0115
:1032F000AC018091D50B211531054105510511F423
:103300008E7F01C081608093D50B08951F9310E0DC
:10331000E0910A0CE80FF0E0E752F44FE1A1F0E091
:10332000E752F44F91819D3209F411E0612F0E9420
:103330000A19112319F0709561957F4FCB011F91E8
:10334000089520910A0C280F8095881F8827881FD0
:103350006115710551F0E22FF0E0E752F44F92A1B0
:1033600031A1931B981BFB019083E22FFF27E7FD00
:10337000F095E752F44F21A130E02652344F280F48
:10338000311DC90108950F931F93CF93DF93EC0173
:103390000C811D8100D000D08BE296E0EDB7FEB726
:1033A0009283818388819981948383830E943448A6
:1033B0000F900F900F900F908A819B81009789F555
:1033C00034C0853719F48EE296E020C0863719F4B0
:1033D00089E396E01BC0873719F485E496E016C0B0
:1033E000833719F481E596E011C0823619F48BE534
:1033F00096E00CC08E3619F485E696E007C08A3256
:1034000019F08AE696E002C08DE696E000D0EDB7AE
:10341000FEB7928381830E9434480F5F1F4F0F9045
:103420000F90F8018081882361F68E819F8100973B
:1034300081F000D000D020E736E0EDB7FEB7328350
:103440002183948383830E9434480F900F900F90C0
:103450000F9086E796E00E944D48DF91CF911F9133
:103460000F9108950F931F93CF93DF93EC010E9468
:10347000C3198A819B810C80DD81C02D009799F052
:1034800028812E36B1F4EC010EC000D0EDB7FEB7A6
:10349000128301830E9434480F900F90CE010E9446
:1034A000C319289602C008E716E088819981009721
:1034B00061F7DF91CF911F910F9108958BE796E00F
:1034C0000E944D480895CF93DF930E945E1ACFEA81
:1034D000DAE004C0CE010E94C31928968881998140
:1034E0000097C1F7DF91CF910895CF92DF92EF92CD
:1034F000FF920F931F93CF93DF9300D000D02AEB5E
:1035000036E0EDB7FEB732832183E82FF0E0EE0F0F
:10351000FF1FE25CF44F80819181EDB7FEB7948389
:1035200083830E9434480F900F900F900F908091EA
:10353000AE1E9091AF1E009741F480914E0B8823F0
:1035400009F447C00E94631A44C00E945E1A10E04A
:103550002DC0E12FFF27E7FDF095E752F44F81A141
:10356000C82FD0E0C652D44F00E02752344F92E229
:10357000C92ED12CC20ED31E81E2E82EF12CE20E10
:10358000F31E08C0FE01E00FF11D808190E00E9453
:1035900046480F5FF6018081F7019081891B08176B
:1035A00088F380E290E00E9446481F5F212F30E0C0
:1035B00080910A0C90E001972817390754F2809106
:1035C0004E0B882331F08091AE1E9091AF1E0E9469
:1035D000321ADF91CF911F910F91FF90EF90DF9002
:1035E000CF900895EF92FF920F931F93CF93DF93A5
:1035F00080914E0B882309F452C08FEB96E00E9415
:103600004D48C9E6DFE000E010E04BEFE42E46E075
:10361000F42E88818823E1F18DB79EB70E970FB6FF
:10362000F8949EBF0FBE8DBFEDB7FEB73196ADB714
:10363000BEB71296FC92EE9211970283138388898B
:1036400084831582A885B98511968D919C911297D6
:1036500097838683AA85BB858D919C91918780876E
:103660008C81828713868F8190E08073907034E024
:10367000959587953A95E1F7958784870E94344818
:103680008DB79EB70E960FB6F8949EBF0FBE8DBF36
:103690000F5F1F4F62960431110509F0BACFDF9119
:1036A000CF911F910F91FF90EF9008950F931F936B
:1036B000CF93DF9380914E0B882309F447C086E1B6
:1036C00097E00E944D48C9E5D1E10BE317E08881FE
:1036D00099810097B1F12DB73EB72C5030400FB60D
:1036E000F8943EBF0FBE2DBFEDB7FEB73196ADB714
:1036F000BEB712961C930E931197938382838A818F
:1037000090E08077907054E0959587955A95E1F711
:10371000958384838C819D81978386838E819F810D
:103720009187808788859985938782870E9434480E
:103730002DB73EB7245F3F4F0FB6F8943EBF0FBE84
:103740002DBF2A9631E1CD3BD30709F6DF91CF910A
:103750001F910F9108950F931F93CF93DF93809143
:103760004E0B882399F180E597E00E944D48CEEBFF
:10377000D1E10AE617E08881882319F100D000D052
:1037800000D0EDB7FEB73196ADB7BEB712961C9319
:103790000E93119789819A819383828380E090E0D0
:1037A0002D8527FF02C081E090E0958384830E94ED
:1037B00034488DB79EB706960FB6F8949EBF0FBEDD
:1037C0008DBF619692E1CE3CD907A9F6DF91CF91EA
:1037D0001F910F91089580914E0B882339F100D0ED
:1037E00085E797E0EDB7FEB7928381830E94344866
:1037F00088EB97E0EDB7FEB7928381830E9434484F
:1038000082EF97E0EDB7FEB7928381830E94344840
:103810008EE098E0EDB7FEB7928381830E94344832
:103820000F900F9084E498E00E944D4808951F93F4
:10383000DF93CF930F92CDB7DEB780E00E9470196F
:10384000162F81E00E94701980914E0B882311F190
:1038500080E798E069830E944D4800D000D000D0F6
:10386000EDB7FEB7319686E898E0ADB7BEB71296D1
:103870009C938E93119712831382698164831582BE
:103880000E943448EDB7FEB736960FB6F894FEBFE7
:103890000FBEEDBF0F90CF91DF911F910895CF9292
:1038A000DF92EF92FF920F931F93DF93CF9300D09D
:1038B000CDB7DEB78B01E42EBE016F5F7F4F2A8349
:1038C0000E94A1196C0189812A81E81608F4E98215
:1038D000222311F4EE2402C08981E81AFF24C801D2
:1038E00060E070E04E2D50E00E946D470E0D1F1DF0
:1038F0004981C801B60150E00E94644789810F9058
:103900000F90CF91DF911F910F91FF90EF90DF907B
:10391000CF9008951F93CF93DF93EC01162F09C02A
:103920006091482070914920899190E00E94084858
:1039300011501123A9F780E0DF91CF911F910895D5
:103940005F926F927F928F929F92AF92BF92CF922F
:10395000DF92EF92FF920F931F93CF93DF938091AB
:10396000060C882309F42AC18091D50B80FF27C05B
:1039700080914E0B882319F110E019C0E12FF0E07F
:10398000A12FBB27A7FDB095A752B44F91968C915C
:1039900090E0E752F44F62A121A1621B8652944F3E
:1039A0000E948A1C80E290E00E9446481F5F80913E
:1039B000060C181718F386E796E00E944D48C09051
:1039C000060CFAEF6F2EFBE07F2ECFEADAE010E074
:1039D000F3019081692F70E06652744F8181891BD9
:1039E00000E040E050E0A82EBB2430C020E030E0F2
:1039F0008C9190E0882309F491E02A153B0519F495
:103A0000992319F02AC0992329F041155105E1F4B1
:103A1000AE011BC04B01820E931EF4019081EFEBAF
:103A20008E2E890EF9E1F81508F0905EFFEB8F2ECF
:103A3000880EE9E1EE2EE81408F0805E2F5F3F4F1C
:103A4000981719F41196D4CF01E02896A881B9816E
:103A5000109761F6002319F4EA01209731F482E00F
:103A60008093080CC0E0D0E09BC0D093AF1EC09301
:103A7000AE1E1F5F80910A0C8F5F80930A0C2A8113
:103A80003B812115310541F49C818D81292FE9016C
:103A90007E01F82EE70107C0AC81BD818C918E3686
:103AA00009F09EC0E9010894611C711C1C1508F402
:103AB0008FCF83E08093080C73C0E80DF91D8081DF
:103AC000E0910A0CE00FF0E0E752F44FE1A1F0E0E2
:103AD000E752F44F9181833759F0843728F48823D3
:103AE000B9F18236C1F52DC0982F9557933098F5CE
:103AF000853731F48FEFC82ED12CE12CF12C15C075
:103B0000863739F4BFEFCB2EBFEFDB2EE12CF12C43
:103B10000CC0833729F0CC24CA94DC2C760105C074
:103B2000AFE7CA2ED12CE12CF12C802F61E00E944E
:103B30000A19C616D706E806F90678F46092080C4A
:103B40000CC0923251F09B3741F05092080C05C0E6
:103B5000A092080C02C07092080CEC81FD81E80D67
:103B6000F91D81818A3209F0B3948091080C882371
:103B7000B9F41F5F0F5F8091060CEC81FD818B2CE7
:103B80009924181708F499CFE80DF91D808188232E
:103B900039F081818A3221F083E0E6E0FCE0828323
:103BA0008091080C882321F4EA81FB81099506C0E5
:103BB00090914E0B992311F00E94751A0E94F018F3
:103BC000DF91CF911F910F91FF90EF90DF90CF90F9
:103BD000BF90AF909F908F907F906F905F9008956F
:103BE0008F33F1F200E0BB24F4E06F2EE7E07E2E8D
:103BF00073E0A72E65E0562EBECF0F931F93CF9391
:103C0000DF93CAEDDDE109E918E000D000D0EDB79F
:103C1000FEB71283018389919991948383830E94D3
:103C200034480F900F900F900F90FDE1CA3FDF07CF
:103C300061F760914820709149208DE090E00E94EA
:103C4000084860914820709149208AE090E00E94E5
:103C50000848DF91CF911F910F910895CF93DF9383
:103C6000EC0181E00E94882B882359F08091462046
:103C7000909147200E94C74787FD03C0888380E05A
:103C800001C086E2DF91CF9108954F925F927F92BB
:103C90008F929F92AF92BF92CF92DF92EF92FF925C
:103CA0000F931F93DF93CF930F92CDB7DEB78C01A5
:103CB000D62EFF242E010894411C511CBB24B39422
:103CC00026E0722E93E0C92E85E0E82E88248A949F
:103CD000B2E09B2EA4E0AA2E0115110559F4C201F1
:103CE0000E942E1E882371F0863209F4CBC0B09258
:103CF000080C85C0DD2009F4C5C0F80181918F0151
:103D00008983DA948091D60B8D3031F489818A30A1
:103D100019F48093D60BE0CF89818093D60B8D3038
:103D200021F020E030E08A3011F421E030E0F22E82
:103D300020E0803209F421E030E0823209F431E001
:103D40009091D90B923039F1933028F4992349F0AE
:103D5000913011F619C0933029F1943009F0BCCF9D
:103D600050C0FF2009F06EC0222309F0B5CF3323E5
:103D700019F09092D90B69C08B3719F4C092D90B06
:103D800064C0B092D90B61C0FF2009F046C0222365
:103D900009F043C05AC0332309F03FC0FF2009F4A3
:103DA00054C02BC04091090C30E04F3F09F031E086
:103DB0008D3719F4332389F120C0813610F097E54F
:103DC00009C0813410F097E305C08A3310F090E009
:103DD00001C090E3891B803168F4332341F0942FB4
:103DE0009295907F980F99838092090C2EC08093B2
:103DF000090C72CF222309F06FCFE092080CA09239
:103E0000D90BFF2009F468CF8091080C882311F0AA
:103E10000E94751A0E94F0185FCFE091060CEB30FB
:103E200019F4C092080CEBCFEF5FE093060CF0E0C2
:103E3000E752F44F8091070C81A31092D90BFF2019
:103E400009F44ACF0E94A01C47CFE091070CE03252
:103E500019F47092080CD3CF8091D90B813039F4CA
:103E60008981982F91549A3108F4805E8983F0E01B
:103E7000E752F44F898181838091070C8F5F809393
:103E8000070C2ACF8F2D0F90CF91DF911F910F91AB
:103E9000FF90EF90DF90CF90BF90AF909F908F906A
:103EA0007F905F904F9008959F92AF92BF92CF9274
:103EB000DF92EF92FF920F931F93DF93CF930F92B6
:103EC000CDB7DEB780E00E9470192091650F309168
:103ED000660F26173707F9F482E00E947019962EB4
:103EE00083E00E9470195B016C0184E00E947019EC
:103EF0007B018C0185E00E947019262F86E02983C2
:103F00000E947019962F892DB501A7012981092FCB
:103F10000E94920D32C084E080935E0E3FE5A32E96
:103F20003EE0B32E82E00E94701960935F0E83E042
:103F30000E947019F5017283618384E00E947019F8
:103F4000F501638385E00E947019F501648386E0C2
:103F50000E947019F501658380E00E9470197B0151
:103F60008C0181E00E947019C7014EE09501285034
:103F7000304000E010E00E94FE0B0F90CF91DF91E7
:103F80001F910F91FF90EF90DF90CF90BF90AF9077
:103F90009F900895EF92FF920F931F9380E00E94ED
:103FA00070197B018C018091650F9091660F8E15C1
:103FB0009F0571F085E080935E0E81E00E9470198C
:103FC000C70149E027E53EE000E010E00E94FE0B5B
:103FD0001F910F91FF90EF9008954F925F926F9213
:103FE0007F928F929F92AF92BF92DF92EF92FF9259
:103FF0000F931F93DF93CF9300D000D0CDB7DEB7E0
:1040000080E00E9470192091650F3091660F26178D
:10401000370719F582E00E9470194B015C0183E0BB
:104020000E947019D62E84E00E9470197B018C01C9
:1040300085E00E94701969837A838B839C8386E074
:104040000E9470192B013C01C4016D2DA70129812B
:104050003A8182010E940D0C34C083E080935E0E91
:104060004FE5842E4EE0942E82E00E9470196093FA
:104070005F0E83E00E947019F401618384E00E9466
:104080007019F4017383628385E00E947019F40152
:104090007583648386E00E947019F40177836683D8
:1040A00080E00E9470197B018C0181E00E947019F0
:1040B000C70140E194012850304000E010E00E9428
:1040C000FE0B0F900F900F900F90CF91DF911F91EB
:1040D0000F91FF90EF90DF90BF90AF909F908F90E7
:1040E0007F906F905F904F9008958F92AF92CF9294
:1040F000EF92FF920F931F9380E00E9470197B0153
:104100008C018091650F9091660F8E159F05D9F4F3
:1041100082E00E947019DC01CB0100D0EDB7FEB740
:104120001182128200E010E020E030E040E050E038
:1041300060E070E0EE24CC24AA2488240E94BB0C0A
:104140000F900F9014C082E080935E0E0E94701951
:104150007093600E60935F0E81E00E947019C7013A
:104160004AE027E53EE000E010E00E94FE0B1F91D0
:104170000F91FF90EF90CF90AF908F900895CF92D6
:10418000DF92EF92FF920F931F93CF93DF930EE591
:104190001EE081E080935E0E8091D70B9091D80B4A
:1041A0009C012F5F3F4F3093D80B2093D70B2DB737
:1041B0003EB7285030400FB6F8943EBF0FBE2DBF1B
:1041C000EDB7FEB7319698012F5F3F4FADB7BEB741
:1041D00012963C932E9311972DE938E03383228376
:1041E00021E030E035832483978386830E948848CA
:1041F000E80109900020E9F72197C01BD10B2DB7EA
:104200003EB7285F3F4F0FB6F8943EBF0FBE2DBF9D
:1042100080E00E9470196B017C0181E00E9470199E
:10422000CE01875F482F980127503040C60100E03B
:1042300010E00E94FE0BDF91CF911F910F91FF9034
:10424000EF90DF90CF90089590E09C012B5030408C
:10425000220F331F220F331F865A9E4B820F931F4C
:10426000F894409828E12EBD0DB407FEFDCF9EBD09
:104270000DB407FEFDCF8EBD0DB407FEFDCF409AF5
:1042800078940895F89440981EBC0DB407FEFDCFB5
:104290008EB5409A789486FFF5CF08958091C51E1B
:1042A0000895FC01409889EC8EBD0DB407FEFDCF4A
:1042B00080E88EBD0DB407FEFDCF82E08150DF01A6
:1042C000A80FB11D9C919EBD0DB407FEFDCF8823A4
:1042D000A9F7409A40988BEC8EBD0DB407FEFDCF38
:1042E00080E88EBD0DB407FEFDCF82E08150DF0176
:1042F000A80FB11D12969C9112979EBD0DB407FE9A
:10430000FDCF882399F7409A80818093C61E8181D2
:104310008093C71E82818093C81E83818093C91EAB
:104320000895409889E18EBD0DB407FEFDCF83E06E
:104330008EBD0DB407FEFDCF86E08EBD0DB407FE29
:10434000FDCF409A40988AE18EBD0DB407FEFDCFA7
:104350008EE08EBD0DB407FEFDCF8EE08EBD0DB498
:1043600007FEFDCF409A81E08093B61E08954098E5
:1043700089E18EBD0DB407FEFDCF81E08EBD0DB489
:1043800007FEFDCF84EC8EBD0DB407FEFDCF409A35
:104390001092B61E08958091B41E9091B51E089596
:1043A0008091B71E9091B81E98609093B81E80932C
:1043B000B71E409821E12EBD0DB407FEFDCF9EBD76
:1043C0000DB407FEFDCF8EBD0DB407FEFDCF409AA4
:1043D00008958091B71E9091B81E977F9093B81E54
:1043E0008093B71E409821E12EBD0DB407FEFDCF8E
:1043F0009EBD0DB407FEFDCF8EBD0DB407FEFDCFF3
:10440000409A089581E08093C41E8091B71E9091D8
:10441000B81E80619093B81E8093B71E409821E12A
:104420002EBD0DB407FEFDCF9EBD0DB407FEFDCF22
:104430008EBD0DB407FEFDCF409A08951092C41EA4
:104440008091B71E9091B81E8F7E9093B81E809376
:10445000B71E409821E12EBD0DB407FEFDCF9EBDD5
:104460000DB407FEFDCF8EBD0DB407FEFDCF409A03
:10447000089589B190E026E0969587952A95E1F711
:10448000817008958CB1881F8827881F089589B18D
:1044900090E036E0969587953A95E1F7817008951A
:1044A0008091CA1E882321F08091CA1E1092CA1ED4
:1044B0000895409888E08EBD0DB407FEFDCF409A68
:1044C000409888E08EBD0DB407FEFDCF409A089558
:1044D0008091B41E9091B51E0E941437409886E0DA
:1044E0008EBD0DB407FEFDCF409A8091B41E909111
:1044F000B51E0E94B23508958091B41E9091B51EEC
:104500000E941437409884E08EBD0DB407FEFDCFA5
:10451000409A8091B41E9091B51E0E94B2350895C4
:104520008091B41E9091B51E0E941437409886E089
:104530008EBD0DB407FEFDCF409A409882E18EBD3E
:104540000DB407FEFDCF85E08EBD0DB407FEFDCF97
:104550001EBC0DB407FEFDCF409A40988EE28EBD82
:104560000DB407FEFDCF1EBC0DB407FEFDCF1EBC73
:104570000DB407FEFDCF409A0E9459228091B41ECF
:104580009091B51E0E94B23508958091B41E90910D
:10459000B51E0E941437409886E08EBD0DB407FE0C
:1045A000FDCF409A409882E18EBD0DB407FEFDCF4D
:1045B00085E08EBD0DB407FEFDCF88E08EBD0DB445
:1045C00007FEFDCF409A40988EE28EBD0DB407FEE7
:1045D000FDCF88E18EBD0DB407FEFDCF1EBC0DB42E
:1045E00007FEFDCF409A0E9459228091B41E9091FF
:1045F000B51E0E94B23508951F93182F8091B41EE6
:104600009091B51E0E941437812F992787FD9095B0
:10461000982F88278068409823E12EBD0DB407FEAF
:10462000FDCF9EBD0DB407FEFDCF8EBD0DB407FEC0
:10463000FDCF409A8091B41E9091B51E0E94B23574
:104640001F9108951F93DF93CF9300D000D000D027
:10465000CDB7DEB7182F8091B41E9091B51E6E8332
:104660000E9414376E81679B38C21092C51E679BEB
:1046700024C0319922C040988FE78EBD0DB407FE4B
:10468000FDCF1EBC0DB407FEFDCF8EB5409A4098FD
:1046900088E08EBD0DB407FEFDCF409A409888E0BB
:1046A0008EBD0DB407FEFDCF409A8091B41E90914F
:1046B000B51E0E94B2358FEF17C240988FE78EBDAE
:1046C0000DB407FEFDCF1EBC0DB407FEFDCF8EB5A9
:1046D000409A8F7711F540988FE78EBD0DB407FE95
:1046E000FDCF1EBC0DB407FEFDCF8EB5409A40989D
:1046F00088E08EBD0DB407FEFDCF409A409888E05B
:104700008EBD0DB407FEFDCF409A8091B41E9091EE
:10471000B51E0E94B2358EEFE7C185308CF0E09176
:10472000B91EF091BA1E282F332727FD30952B5044
:1047300030404481552747FD509542175307DCF51B
:1047400040989FE79EBD0DB407FEFDCF90E0282F57
:10475000332727FD309505C01EBC0DB407FEFDCFE5
:104760009F5F492F50E04217530714F43199F4CF5B
:10477000409A40988FE78EBD0DB407FEFDCF1EBC5A
:104780000DB407FEFDCF8EB5409A409888E08EBDEF
:104790000DB407FEFDCF409A409888E08EBD0DB461
:1047A00007FEFDCF409A8091B41E9091B51E0E94E5
:1047B000B2358DEF99C1E091B91EF091BA1E8C50BF
:1047C00083831123A1F0E091B91EF091BA1E838179
:1047D000992787FD909570E08617970741F08091A3
:1047E000B41E9091B51E0E94B2358AEF7DC14098EB
:1047F0008FE78EBD0DB407FEFDCFFE013296CF01CF
:1048000002961EBC0DB407FEFDCF2EB52193E8170E
:10481000F907B9F7409AE091B91EF091BA1E8A8162
:104820009B8155E0969587955A95E1F7817087832E
:1048300040988FE78EBD0DB407FEFDCF1EBC0DB4B2
:1048400007FEFDCFE091B91EF091BA1E8EB58083B0
:10485000409A40988FE78EBD0DB407FEFDCF80E0F3
:1048600007C01EBC0DB407FEFDCF8F5F843011F072
:104870003199F7CF409A40988FE78EBD0DB407FE6F
:10488000FDCF80E090E01EBC0DB407FEFDCFE091AF
:10489000B91EF091BA1E2EB5E80FF91F21830196BB
:1048A0008230910581F7409A8A8183FF56C04098F3
:1048B0008FE78EBD0DB407FEFDCFE0EBFEE11EBC21
:1048C0000DB407FEFDCF8EB581938EE1E43BF80772
:1048D000B1F7409A409889E98EBD0DB407FEFDCF2F
:1048E00080E88EBD0DB407FEFDCF82E08150E82F39
:1048F000F0E0E055F14E90819EBD0DB407FEFDCF76
:104900008823A1F7409A40988BE98EBD0DB407FE2D
:10491000FDCF80E88EBD0DB407FEFDCF82E0815053
:10492000E82FF0E0EE54F14E90819EBD0DB407FEED
:10493000FDCF8823A1F7409A40988CE08EBD0DB43E
:1049400007FEFDCF409A81E08093C51EE091B91E1D
:10495000F091BA1E83818450838340988FE78EBD87
:104960000DB407FEFDCF80E010C01EBC0DB407FEE5
:10497000FDCFE091B91EF091BA1E9EB50580F6817B
:10498000E02DE80FF11D90838F5FE091B91EF0914B
:10499000BA1E482F50E02381332727FD3095421758
:1049A00053071CF3409A40988FE78EBD0DB407FE65
:1049B000FDCF1EBC0DB407FEFDCF8EB5409A4098CA
:1049C0009FE79EBD0DB407FEFDCF8983FE0134969F
:1049D000CE0106961EBC0DB407FEFDCF2EB5219369
:1049E000E817F907B9F7409AE091B91EF091BA1E9D
:1049F0008C81808790E080E00CC0E091B91EF0913E
:104A0000BA1E0580F681E02DE20FF31F2081820F90
:104A10009F5FE091B91EF091BA1E292F30E04381CB
:104A2000552747FD5095241735073CF39981891781
:104A300011F140988FE78EBD0DB407FEFDCF1EBC6F
:104A40000DB407FEFDCF8EB5409A409888E08EBD2C
:104A50000DB407FEFDCF409A409888E08EBD0DB49E
:104A600007FEFDCF409A8091B41E9091B51E0E9422
:104A7000B2358CEF39C08D8187FF0DC08091CA1E81
:104A80008F5F8093CA1E8091B41E9091B51E0E94C4
:104A9000B23581E029C040988FE78EBD0DB407FE86
:104AA000FDCF1EBC0DB407FEFDCF8EB5409A4098D9
:104AB00088E08EBD0DB407FEFDCF409A409888E097
:104AC0008EBD0DB407FEFDCF409A8091B41E90912B
:104AD000B51E0E94B2358BEF07C08091B41E909135
:104AE000B51E0E94B23580E026960FB6F894DEBF60
:104AF0000FBECDBFCF91DF911F9108958091B41E5D
:104B00009091B51E0E9414371092C11E409886E005
:104B10008EBD0DB407FEFDCF409A1092CA1E809143
:104B2000B41E9091B51E0E94B23508958091B41EB6
:104B30009091B51E0E94143781E08093C11E409869
:104B400083E08EBD0DB407FEFDCF409A409888E00B
:104B50008EBD0DB407FEFDCF409A1092CA1E809103
:104B6000B41E9091B51E0E94B23508958091B41E76
:104B70009091B51E0E94143781E08093C11E409829
:104B800083E08EBD0DB407FEFDCF409A409888E0CB
:104B90008EBD0DB407FEFDCF409A1092CA1E8091C3
:104BA000B41E9091B51E0E94B23508951F93182F20
:104BB0008091B41E9091B51E0E941437812F90E011
:104BC0008F719070806E906A409825E12EBD0DB473
:104BD00007FEFDCF9EBD0DB407FEFDCF8EBD0DB40B
:104BE00007FEFDCF409A8091B41E9091B51E0E94A1
:104BF000B2351F910895FF920F931F93DF93CF93C8
:104C000000D000D0CDB7DEB78C018091B41E90915A
:104C1000B51E0E9414378091B61E882339F0409843
:104C20009DE09EBD0DB407FEFDCF409A1A82D801CB
:104C300012969C911297492F552747FD509520E0D9
:104C40000CC0D8011396ED91FC911497E60FF71F55
:104C50003A816081360F3A832F5F622F70E06417CC
:104C600075077CF3292F245F2983882311F0905F37
:104C700099836799FECF4E99FCCFF894409899E0BC
:104C80009EBD0DB407FEFDCF409A409899E09EBDB1
:104C90000DB407FEFDCF409A40989EE39EBD0DB433
:104CA00007FEFDCF99819EBD0DB407FEFDCF409A52
:104CB00021E438E83C832B839091C41E992321F092
:104CC00021E638E83C832B83882329F02B813C8123
:104CD00028603C832B8340989EE39EBD0DB407FE65
:104CE000FDCFFE0133969E012B5F3F4F90819EBD0D
:104CF0000DB407FEFDCF3196E217F307B9F7409ADE
:104D000040989EE39EBD0DB407FEFDCF9091BB1E63
:104D10009EBD0DB407FEFDCF409A40989EE39EBD18
:104D20000DB407FEFDCF20E030E0F901E754F14E6D
:104D300094819EBD0DB407FEFDCF2F5F3F4F223003
:104D4000310599F7409A40989EE39EBD0DB407FE49
:104D5000FDCFF80198012E5F3F4F90819EBD0DB4AD
:104D600007FEFDCF3196E217F307B9F7409A409856
:104D70009EE39EBD0DB407FEFDCF20E030E0F901BB
:104D8000E754F14E96819EBD0DB407FEFDCF2F5F17
:104D90003F4F2230310599F7409A882399F0409887
:104DA0008EE38EBD0DB407FEFDCFE6ECFEE1808103
:104DB0008EBD0DB407FEFDCF3196BEE1EA3CFB0788
:104DC000B1F7409A40988EE38EBD0DB407FEFDCF3B
:104DD00080E00DC0D8011396ED91FC911497E20F7D
:104DE000F31F90819EBD0DB407FEFDCF8F5F282F6E
:104DF00030E02417350774F3409A40988EE38EBD57
:104E00000DB407FEFDCF8A818EBD0DB407FEFDCF28
:104E1000409AF80185818823B1F18091C11E8823D1
:104E200039F4409883E08EBD0DB407FEFDCF409A63
:104E300040981EBC0DB407FEFDCF8EB5409A81FF91
:104E4000F7CF00E015E040981EBD0DB407FEFDCF82
:104E5000409A40981EBC0DB407FEFDCFFEB4409AA8
:104E60000F5F053649F478948091B41E9091B51E79
:104E70000E94B23500E04EC084E690E00E942330EC
:104E8000F3FEE1CF07C0409884E08EBD0DB407FE6D
:104E9000FDCF409A78944E9BFECF4E99FECF8091E5
:104EA000C41E882391F084EA92E00E942330319B53
:104EB0000EC040988FE78EBD0DB407FEFDCF1EBC1F
:104EC0000DB407FEFDCF8EB5409A01E00FC04098AB
:104ED00088E08EBD0DB407FEFDCF409A409888E073
:104EE0008EBD0DB407FEFDCF409A00E0F8944098C7
:104EF00086E08EBD0DB407FEFDCF409A7894809178
:104F0000BB1E8F5F8093BB1E8091B41E9091B51E17
:104F10000E94B235802F0F900F900F900F90CF917D
:104F2000DF911F910F91FF900895AF92BF92CF92A2
:104F3000DF92EF92FF920F931F93DF93CF9300D0F6
:104F400000D00F92CDB7DEB78C017B015A01690109
:104F50008091B41E9091B51E0E9414370E94234286
:104F6000409888E08EBD0DB407FEFDCF409A409872
:104F700088E08EBD0DB407FEFDCF409A6799FECF45
:104F80004E99FCCFF894409889E08EBD0DB407FE91
:104F9000FDCF409A409889E08EBD0DB407FEFDCF4D
:104FA000409A1A82D80112962C911297622F772775
:104FB00067FD709580E00CC0D8011396ED91FC91CF
:104FC0001497E40FF51F9A813081930F9A838F5FB6
:104FD000482F50E0461757077CF3822F845F898360
:104FE00040989EE39EBD0DB407FEFDCF8EBD0DB46F
:104FF00007FEFDCF409AF8018681882319F481E4E9
:1050000098E802C081E698E89C838B8340988EE301
:105010008EBD0DB407FEFDCFFE013396CE01059681
:1050200020812EBD0DB407FEFDCF3196E817F9079C
:10503000B9F7409A40988EE38EBD0DB407FEFDCFC0
:105040008091BB1E8EBD0DB407FEFDCF409A4098E7
:105050008EE38EBD0DB407FEFDCF80E090E0FC0135
:10506000E754F14E24812EBD0DB407FEFDCF01960D
:1050700082309105A1F7409A40988EE38EBD0DB421
:1050800007FEFDCFF801C801029620812EBD0DB4A8
:1050900007FEFDCF3196E817F907B9F7409A409817
:1050A0008EE38EBD0DB407FEFDCF80E090E0FC01E5
:1050B000E754F14E26812EBD0DB407FEFDCF0196BB
:1050C00082309105A1F7409AC701B5010E94404185
:1050D000D80115968C911597882381F18091C11E76
:1050E000882339F4409883E08EBD0DB407FEFDCFD0
:1050F000409A20E065E0E62E4098EEBC0DB407FE35
:10510000FDCF409A40981EBC0DB407FEFDCFAEB453
:10511000409A2F5F253649F478948091B41E90917F
:10512000B51E0E94B23580E078C084E690E02D8301
:105130000E9423302D81A3FEDFCF07C0409884E07A
:105140008EBD0DB407FEFDCF409A40988EE38EBD14
:105150000DB407FEFDCFF8014281552747FD50955C
:1051600080E00DC0D8011396ED91FC911497E20FE9
:10517000F31F90819EBD0DB407FEFDCF8F5F282FDA
:1051800030E02417350774F3409A40988EE38EBDC3
:105190000DB407FEFDCF8A818EBD0DB407FEFDCF95
:1051A000409A4E9BFECF8091840090918500F6013D
:1051B00091838083F8944E99FECF409888E08EBD0D
:1051C0000DB407FEFDCF409A409888E08EBD0DB427
:1051D00007FEFDCF409A409889E08EBD0DB407FED2
:1051E000FDCF409A409889E08EBD0DB407FEFDCFFB
:1051F000409A409886E08EBD0DB407FEFDCF409AE0
:1052000078948091BB1E8F5F8093BB1E8091B41EEB
:105210009091B51E0E94B23581E00F900F900F90D3
:105220000F900F90CF91DF911F910F91FF90EF9012
:10523000DF90CF90BF90AF900895DF93CF9300D0D1
:10524000CDB7DEB79A8389839093C01E8093BF1E2B
:1052500084EF91E00E94F54040988AEE8EBD0DB437
:1052600007FEFDCF80E88EBD0DB407FEFDCFFE0129
:105270003196CE01039620812EBD0DB407FEFDCFE1
:105280003196E817F907B9F7409A84EF91E00E9448
:10529000F5400F900F90CF91DF9108958F929F92DC
:1052A000AF92BF92CF92DF92EF92FF920F931F9334
:1052B000DF93CF9300D000D0CDB7DEB7E82E092F13
:1052C00084E690E00E94F540CE2CD02E20E031E024
:1052D0008E010F5F1F4FA3E0AA2EB12CAC0EBD1E96
:1052E000F60190808824818190E0882999299A8309
:1052F000898384E690E02B833C830E94F5404098AC
:105300002B813C81822F80688EBD0DB407FEFDCFBE
:10531000C90195958795807C8EBD0DB407FEFDCFA4
:105320007801F80180818EBD0DB407FEFDCF319666
:10533000EA15FB05B9F7409A0894C11CD11C2E5FF1
:105340003F4FF1E020313F0759F684E690E00E949C
:10535000F54020E431E080E191E01A821982409822
:10536000422F40684EBD0DB407FEFDCFA9015595F3
:105370004795407C4EBD0DB407FEFDCFF80140813E
:105380004EBD0DB407FEFDCF3196EA15FB05B9F70A
:10539000409A4098482F40684EBD0DB407FEFDCF9F
:1053A000AC0155954795407C4EBD0DB407FEFDCF31
:1053B000F80140814EBD0DB407FEFDCF3196EA15D0
:1053C000FB05B9F7409A02962E5F3F4F41E08E31C0
:1053D000940719F681E090E09A83898340988EECD7
:1053E0008EBD0DB407FEFDCF80E88EBD0DB407FE67
:1053F000FDCFC8010296F80120812EBD0DB407FE35
:10540000FDCF3196E817F907B9F7409A40988EE931
:105410008EBD0DB407FEFDCF80E88EBD0DB407FE36
:10542000FDCF0E5F1F4FF70180818EBD0DB407FECB
:10543000FDCF0894E11CF11CE016F106A1F7409A9B
:105440000F900F900F900F90CF91DF911F910F91C0
:10545000FF90EF90DF90CF90BF90AF909F908F9094
:1054600008950F931F93DF93CF930F92CDB7DEB7BD
:105470008C018091B41E9091B51E69830E941437EF
:10548000409888E08EBD69810DB407FEFDCF409A3B
:10549000409888E08EBD0DB407FEFDCF409A862F60
:1054A0000E9424211093BA1E0093B91E8091B41E4D
:1054B0009091B51E0E94B2350F90CF91DF911F9150
:1054C0000F9108951F93182F8091B41E9091B51ECF
:1054D0000E941437812F0E9424218091B41E909144
:1054E000B51E0E94B2351F910895CF92DF92FF92B0
:1054F0000F931F93DF93CF9300D0CDB7DEB78C010E
:10550000F62E5A834983690181E064E10E942C35BB
:105510009093B51E8093B41E009731F40E94C33857
:10552000682F8FE00E9436338091B41E9091B51E93
:105530000E9414378F3F21F488E792E00E94BE2F2B
:10554000159A88EE93E00E942330169881E090E04F
:105550000E942330169A84E690E00E942330F8944B
:10556000409881E08EBD0DB407FEFDCF409A82EEDB
:1055700092E09093B81E8093B71E409881E18EBD53
:105580000DB407FEFDCF82E08EBD0DB407FEFDCF4A
:1055900082EE8EBD0DB407FEFDCF409A409882E1A9
:1055A0008EBD0DB407FEFDCF85E08EBD0DB407FEA8
:1055B000FDCF1EBC0DB407FEFDCF409A40988CE194
:1055C0008EBD0DB407FEFDCF1EBC0DB407FEFDCF92
:1055D0008FE78EBD0DB407FEFDCF409A409889E15C
:1055E0008EBD0DB407FEFDCF81E08EBD0DB407FE6C
:1055F000FDCF84EC8EBD0DB407FEFDCF409A4098E0
:1056000087E18EBD0DB407FEFDCF8AE18EBD0DB4DE
:1056100007FEFDCF86E58EBD0DB407FEFDCF409A97
:1056200084EF91E00E94F540409888EE8EBD0DB465
:1056300007FEFDCF80E88EBD0DB407FEFDCFFE0155
:105640003196CE01039620812EBD0DB407FEFDCF0D
:105650003196E817F907B9F7409A84EF91E00E9474
:10566000F54078948F2D0E94242178941093BA1ECF
:105670000093B91E89819A819093BE1E8093BD1EAE
:10568000D092C01EC092BF1E1092BB1E1092C11EAF
:105690000E9442218091B41E9091B51E0E94B235A5
:1056A0008F3F39F48BE492E00E94BE2F82E00E948B
:1056B00070321092C41E1092B61E1092C51E0F902A
:1056C0000F90CF91DF911F910F91FF90DF90CF90BE
:1056D000089590914D1F8091CB1E981769F0E92F86
:1056E000F0E0E453F14E80819F5F90934D1F90381E
:1056F00071F410924D1F08958091C80087FFFCCF70
:105700008091C8008F778093C8008091CE00089563
:10571000882331F48091C000881F8827881F08954E
:10572000813011F080E0089580E020914D1F90912C
:10573000CB1E291381E0089585B7806185BF86E07F
:1057400084B987E085B981E087B988B98CE38DB9E0
:105750008BE08AB98EE38EB988E781B980E482B99B
:105760008FEF80BB08950E949C2B80E58CBD81E06B
:105770008DBD08958F3F09F471C0282F30E0277048
:1057800030702230310589F12330310544F4211580
:10579000310589F02130310509F060C01AC024308C
:1057A000310509F43EC0243031056CF12530310556
:1057B00009F054C044C092B186958695869541E023
:1057C00050E002C0440F551F8A95E2F7942B92B91E
:1057D00043C095B186958695869502C0220F331FEA
:1057E0008A95E2F7922B95B937C098B18695869540
:1057F000869541E050E002C0440F551F8A95E2F7BC
:10580000942B98B929C09BB186958695869541E0E1
:1058100050E002C0440F551F8A95E2F7942B9BB9C4
:105820001BC09EB186958695869541E050E002C0EA
:10583000440F551F8A95E2F7942B9EB90DC091B382
:1058400086958695869541E050E002C0440F551F2D
:105850008A95E2F7942B91BB81E008958FEF08952C
:105860008F3F09F47CC0282F30E027703070223041
:105870003105A1F12330310544F42115310589F0BA
:105880002130310509F06BC01CC02430310509F40A
:1058900045C02430310594F12530310509F05FC051
:1058A0004DC032B1282F26952695269581E090E0AF
:1058B00002C0880F991F2A95E2F78095832382B949
:1058C0004CC095B186958695869502C0220F331FF0
:1058D0008A95E2F72095292325B93FC038B1282FB2
:1058E00026952695269581E090E002C0880F991FA5
:1058F0002A95E2F78095832388B92FC03BB1282FE2
:1059000026952695269581E090E002C0880F991F84
:105910002A95E2F7809583238BB91FC03EB1282FCB
:1059200026952695269581E090E002C0880F991F64
:105930002A95E2F7809583238EB90FC031B3282FC3
:1059400026952695269581E090E002C0880F991F44
:105950002A95E2F78095832381BB81E008958FEF3C
:1059600008958F3F91F1282F30E02770307022305A
:105970003105C1F0233031053CF42115310571F0BA
:105980002130310511F50CC02430310579F0243077
:10599000310554F025303105C1F40AC020B109C0E9
:1059A00023B107C026B105C029B103C02CB101C085
:1059B0002FB130E086958695869502C0359527955E
:1059C0008A95E2F7822F817008958FEF08958F3FB7
:1059D00009F4F5C0282F30E02770307022303105EF
:1059E00009F458C02330310544F42115310591F0F4
:1059F0002130310509F0E3C032C02430310509F40B
:105A000093C0243031050CF46AC02530310509F00B
:105A1000D6C0AFC090B1869586958695282F892FE0
:105A200090E0022E02C0959587950A94E2F780FDDA
:105A30000AC082B141E050E002C0440F551F2A95D0
:105A4000E2F7842B0AC032B181E090E002C0880FF7
:105A5000991F2A95E2F78095832382B9AEC043B19E
:105A600086958695869550E0082E02C055954795F7
:105A70000A94E2F702C0220F331F8A95E2F740FD35
:105A800004C095B1922B95B998C085B12095282373
:105A900025B993C096B1869586958695282F892F2E
:105AA00090E0022E02C0959587950A94E2F780FD5A
:105AB0000AC088B141E050E002C0440F551F2A954A
:105AC000E2F7842B0AC038B181E090E002C0880F71
:105AD000991F2A95E2F78095832388B96EC099B102
