:100000000C9437020C9426350C9456020C9456022C
:100010000C9456020C9456020C9456020C94560200
:100020000C9456020C9454350C9456020C945602BF
:100030000C9456020C9407330C9456020C9407331C
:100040000C9456020C943A330C9456020C945602BB
:100050000C9456020C9456020C9456020C945602C0
:100060000C9456020C9456020C9456020C945602B0
:100070000C9456020C9456020C9456020C945602A0
:100080000C9444330C9456020C9456020C94560271
:100090000C9400210C9456020C9456020C945602B7
:1000A0000C9456020C9456020C9456020C94560270
:1000B0000C9456020C9456020C9456020C94560260
:1000C0000C9456020C9456020C9456025E2464243E
:1000D00067246A246D2470247624732479247C2474
:1000E0007F24852488248B248E2482245B2461240D
:1000F00043726561746520446F6E650D0A00455258
:10010000524F523A206372656174696E6720706164
:10011000636B6574207265636F7264207369676EC8
:10012000616C206661696C65640D0A0053746172CC
:1001300074696E672075702E2E2E0D0A00534C497F
:1001400050205258206572726F723A206E726B5F47
:100150007369676E616C5F72656769737465720D50
:100160000A00534C4950205258206572726F723AFF
:1001700020476574205369676E616C0D0A00534C0B
:100180004950205458204552524F523A202052652F
:100190006C65617365206F662073656D6170686F53
:1001A0007265206661696C65640D0A00534C4950A4
:1001B000205458204552524F523A202041636365E3
:1001C000737320746F2073656D6170686F72652042
:1001D0006661696C65640D0A0049534120455252BD
:1001E0004F523A206372656174696E67207478209B
:1001F0007369676E616C206661696C65640D0A00E5
:10020000495341204552524F523A206372656174FE
:10021000696E67207278207369676E616C20666111
:10022000696C65640D0A0043433234323020455214
:10023000524F523A202052656C65617365206F669B
:100240002073656D6170686F7265206661696C65A9
:10025000640D0A00434332343230204552524F522B
:100260003A202041636365737320746F2073656D5A
:100270006170686F7265206661696C65640D0A0063
:10028000554E4B4F574E004661696C656420746F44
:10029000206372656174652053656D6170686F726B
:1002A00065004661696C656420746F2063726561E6
:1002B0007465205369676E616C004B65726E656C86
:1002C0002066756E6374696F6E206E6F7420696D41
:1002D000706C656D656E7465640044657669636510
:1002E00020447269766572204572726F72005761A0
:1002F000746368646F67205265737461727400542C
:10030000696D6572204F766572666C6F7700556E09
:1003100068616E646C656420496E74657272757094
:100320007420566563746F72004C6F7720566F6C43
:1003300074616765004578747261205461736B2045
:10034000737461727465642C206973206E726B5FC4
:100350006366672E68206F6B3F0049646C65206F91
:1003600072204B65726E656C20537461636B204F15
:10037000766572666C6F7700556E6578706563742C
:1003800065642052657374617274004475706C69A1
:100390006361746564205461736B20494400536346
:1003A000686564756C6572204D6973736564205768
:1003B000616B657570005461736B20526573657273
:1003C00076652056696F6C6174656400526573656B
:1003D000727665204572726F7220696E2053636871
:1003E0006564756C657200496E76616C6964205352
:1003F0007461636B20506F696E7465720054617331
:100400006B20537461636B204F766572666C6F77F7
:1004100000537461636B20776173206E6F74206486
:100420006566696E6564206173206C617267652022
:10043000656E6F7567682100293A20002A4E524B7D
:10044000204552524F5228000D0A535441434B202D
:1004500044554D500D0A0045464765666700202B00
:100460002D2E303132333435363738396800112487
:100470001FBECFEFD1E2DEBFCDBF12E0A0E0B2E001
:10048000E2E4F6E700E00BBF02C007900D92AC3F3C
:10049000B107D9F71AE0ACEFB2E001C01D92AE3758
:1004A000B107E1F70E947C040C94203B0C9472335A
:1004B0008091FB04992787FD909508951F93CF9312
:1004C000DF93EC018B818E3609F07CC0E885E05328
:1004D000E093D406FF279A85DF01AC5DBC4F9C9367
:1004E000E558F74F8081192F181B143148F180E02F
:1004F00092E00E948A380E949606E091D406FF2777
:100500009F938F93FF93EF93812F99279F938F93BF
:10051000E558F74F808199279F938F938A85992774
:100520009F938F938BE092E09F938F930E947338F9
:100530008DB79EB70C960FB6F8949EBF0FBE8DBFB9
:100540009091D406492F55278A85FA01E558F74F2F
:100550008083DA01A850BC4F2C91210F2C93382FA7
:100560003770283050F0FA01EA5BFA4F269526954D
:1005700026958081280F20833C93FA01EA5BFA4F8D
:1005800080818031A8F4FA0194E0EE0FFF1F9A9564
:10059000E1F7E80FF11DE450FB4F81E090E002C06D
:1005A000880F991F3A95E2F72081282B20830AC0F3
:1005B000108281E08093FB04909305038091F40303
:1005C0000E946627DF91CF911F910895EF92FF92CD
:1005D0001F9382EA93E090935703809356038FEC26
:1005E00096E0909353038093520380ED95E09093AF
:1005F00055038093540382E08093590311E01093D4
:10060000580310935A0310935B038AE090E0A0E034
:10061000B0E080935C0390935D03A0935E03B0937E
:100620005F031092600310926103109262031092B4
:100630006303109264031092650310926603109294
:10064000670380E095E6ADECBDE18093680390938D
:100650006903A0936A03B0936B0310926C0310922A
:100660006D0310926E0310926F0380E097E8A3E988
:10067000B3E08093700390937103A0937203B093DF
:10068000730381E593E00E94DC2B8AEC94E0909365
:100690005E0880935D0828E5E22E28E0F22E40E017
:1006A00051E06BEF73E0C7010E94303683E0809326
:1006B000600810935F08109361081093620884E14A
:1006C00090E0A0E0B0E08093630890936408A0936A
:1006D0006508B09366081092670810926808109237
:1006E000690810926A0810926B0810926C081092B8
:1006F0006D0810926E0810926F0810927008109298
:100700007108109272081092730810927408109277
:1007100075081092760880E091EEA5EFB5E0809321
:10072000770890937808A0937908B0937A08C70166
:100730000E94DC2B80EF90E00E94ED201F91FF9043
:10074000EF9008956F927F928F929F92AF92BF9297
:10075000CF92DF92EF92FF920F931F93CF93DF938D
:10076000CDB7DEB722970FB6F894DEBF0FBECDBF70
:100770000E94DE2999279F938F938CE192E09F93AB
:100780008F930E94733883E090E00E943F2081E0C5
:1007900090E00E943F2081E090E00E949A0640E0B5
:1007A00060E082E00E940C0D60E082E00E94E50EB5
:1007B00083E10E94B50B0E94F40664E78BE595E0A7
:1007C0000E94E40681E090E00E94760682E090E0DC
:1007D0000E9476060F900F900F900F9002C00E941B
:1007E0009E2B0E94DA068823D1F38BE292E09F933E
:1007F0008F930E9473380E94D1258093F4030F9049
:100800000F908F3F09F457C0E0908F02FF2452E011
:10081000652E712C6C0E7D1E4E010894811C911C5E
:1008200004EF16E048E3A42E42E0B42E3DEFC32EC1
:100830003FEFD32EC00ED11E8E2D0E94891C0E9428
:100840005B07882341F0B301C4010E94D50D0E94CB
:100850005E020E94610782E00E949807882329F5C2
:100860008F2D9927F3949F938F931F921F92BF927E
:10087000AF921F930F930E94BD38F80101900020A2
:10088000E9F7E55FF640EC5FE9830E94F80622E0B5
:10089000482F6981C6010E946A078DB79EB70896E6
:1008A0000FB6F8949EBF0FBE8DBF8E2D0E940E1DF9
:1008B0000E948C0BC1CF8EEF90E00E94ED20E09162
:1008C000450AF091460A60858EE00E94CA2422966D
:1008D0000FB6F894DEBF0FBECDBFDF91CF911F9151
:1008E0000F91FF90EF90DF90CF90BF90AF909F90CF
:1008F0008F907F906F900895CFEFD1E2DEBFCDBF94
:100900000E94821C87E090E00E94B7208CE291E078
:100910000E94ED200E94752380E090E00E9422203A
:1009200081E090E00E94222082E090E00E9422205C
:1009300083E090E00E94222020E030E040E050E0A0
:1009400060E070E080E090E00E94402D0E94B507DA
:100950000E94E6020E94152380E090E00C94203B68
:100960008091F4030E945A268091FB04882379F435
:1009700061E070E080E090E00090F40304C0660F56
:10098000771F881F991F0A94D2F70E94B82881E028
:1009900090E00895AF92BF92CF92DF92FF920F93B3
:1009A0001F93CF93DF936091760A7091770A20E0CE
:1009B00040E08091740A9091750A0E9453060E944B
:1009C000B004F09084020DE215E0E80121975E0189
:1009D000E3E4CE2EE2E0DE2E8F2D0E94891C809172
:1009E00005038F5F80932C058150E82FFF2774E06B
:1009F000EE0FFF1F7A95E1F7E450FB4FD80181918C
:100A00009AEA89278D9385E0AD33B807C1F7F501E0
:100A100001900020E9F73197EC52F5406E2FCE019E
:100A20000E9400061092FB0480910503282F3327B3
:100A3000F90164E0EE0FFF1F6A95E1F7E450FB4F08
:100A400080E011928F5F8031E1F78091F503909102
:100A5000F6039F938F933F932F93DF92CF920E9441
:100A600073388F2D0E940E1D0E94B0048DB79EB763
:100A700006960FB6F8949EBF0FBE8DBFADCF809186
:100A80004E02992787FD9095089580918408909152
:100A900085080E940338992708958F929F92AF92FC
:100AA000BF92CF92DF92EF92FF920F931F93CF935B
:100AB000DF93EC01862E0E94E020D82E8FEFD8160F
:100AC00021F482E691E00E94ED208D2D0E945A26AD
:100AD0008F3F71F48DE391E00E94ED2009C0809179
:100AE000740A9091750A0E940338813C91F00CC001
:100AF00081E0E82EF12C012D112D04C0EE0CFF1C1D
:100B0000001F111FDA94D2F781E00E94501C882345
:100B100031F757016801C801B7010E94B8288091D8
:100B2000740A9091750A0E940338982E81EC9816E9
:100B300059F70E944505F82E10E000E02BC0809187
:100B4000740A9091750A0E940338803C19F08B3D1D
:100B500059F015C0112341F10F77901629F5812F17
:100B6000992787FD909522C081E00E94501C882320
:100B700021F4C601B5010E94B8280E944505982EAF
:100B8000181540F41F1530F4FE01E10FF11D8083AC
:100B90001F5F080F81E00E94501C882381F6C60168
:100BA000B5010E94B828F6CF8FEF9FEFDF91CF916C
:100BB0001F910F91FF90EF90DF90CF90BF90AF907B
:100BC0009F908F9008951F93182F20917E082223C5
:100BD00069F0332788EE93E0AC01249FC001259F84
:100BE000900D349F900D11240E943D3260917F083A
:100BF00070918008812F99270E9446381F9108958F
:100C0000FF920F931F93CF93DF93EC01162F613860
:100C100010F083E03EC080918108909182080E948C
:100C200064288F3F31F48CEA91E00E94ED2081E04E
:100C300030C081EC0E94E305812F0E94E305FF2470
:100C400000E00EC08881803C11F08B3D19F48BEDE3
:100C50000E94E30588810E94E3058991080FF394BF
:100C6000F11681F7802F8F770E94E30580EC0E94B8
:100C7000E30580918108909182080E9412278F3F9E
:100C800019F081E090E009C08EE791E00E94ED202C
:100C900082E00E9405248FEF9FEFDF91CF911F919B
:100CA0000F91FF9008959093850880938408709326
:100CB000800860937F084093830820937E086FEF3D
:100CC00081E00E94932690938208809381088F5F31
:100CD0009F4F31F40E94DE29682F8FE00E94CA24C2
:100CE00081E080934E0281E090E0089521E030E0C1
:100CF00040E050E004C0220F331F441F551F8A9567
:100D0000D2F78091000390910103A0910203B0916A
:100D10000303822B932BA42BB52B8093000390937A
:100D20000103A0930203B093030308958091190374
:100D300099270895813019F08330D9F531C083E1C6
:100D40008093C8088CE08093C90884E18093CA0826
:100D500088E18093CB0880E18093CC0887E1809381
:100D6000CD0882E18093CE0889E18093CF088EE0A0
:100D70008093D00885E18093D1088BE08093D208DE
:100D80008FE08093D30886E18093D40881E180933B
:100D9000D5088DE08093D6088AE18093D70808951E
:100DA0008FE08093C30884E18093C40889E1809335
:100DB000C50808958091F006813019F481E090E033
:100DC00008958FEF9FEF0895662359F0009749F03B
:100DD00090930C0380930B0360930A0381E090E0EF
:100DE00008958FEF9FEF089582E08093F0060895B5
:100DF00080915A05823070F42091FE023091FF02FA
:100E0000C90164E670E00E948C3A892B29F02431F4
:100E1000310510F021EE01C025EE8091FE02909187
:100E2000FF0201969093FF028093FE02822F992782
:100E300087FD90950895982F80915A05823021F46E
:100E4000992311F083E801C083E0992787FD9095ED
:100E500008958F92AF92CF92EF920F93CF93DF933B
:100E6000CDB7DEB71092A6089AE09093AD08109225
:100E7000AE088093AF086093B0084093B108109219
:100E8000B2082093B9080093BA08E092BB08C09258
:100E9000BC08A092BD088092BE088A858093BF08D6
:100EA0008B858093C008DF91CF910F91EF90CF9009
:100EB000AF908F9008958091D207992787FD9095E4
:100EC00008951092D2071092D3071092D40710926F
:100ED000D50708953327F901EE0FFF1FEE0FFF1F0F
:100EE000E359F84F938382836083418341E050E06C
:100EF00060E070E004C0440F551F661F771F2A95FD
:100F0000D2F78091200390912103A0912203B09108
:100F10002303842B952BA62BB72B80932003909330
:100F20002103A0932203B093230381E090E008956E
:100F300020912003309121034091220350912303FB
:100F400004C056954795379527958A95D2F7C901DC
:100F500081709070089580913D05813019F481E091
:100F600090E008958FEF9FEF08950F931F938AEB02
:100F70009BE090933403809333030EE213E040E848
:100F800050E064E773E0C8010E94303684E180934A
:100F9000360381E0809335038093370380933803D1
:100FA0001092390310923A0310923B0310923C03C3
:100FB00080E896E9A8E9B0E080933D0390933E0372
:100FC000A0933F03B0934003109241031092420359
:100FD000109243031092440310924503109246036B
:100FE00010924703109248031092490310924A034B
:100FF00010924B0310924C0310924D0310924E032B
:1010000010924F0310925003C8010E94DC2B1F91D5
:101010000F910895AF92BF92DF92EF92FF920F93DC
:101020001F93CF93DF93EE24FF2456E0A52E53E0C9
:10103000B52E00910B0310910C030E94F806F801E5
:10104000808360911903C5010E94F21A0E9415164F
:101050001092A3088AEF0E94943280E00E947932B5
:1010600000E012C00E940333081771F00E9403339E
:10107000082F0894E11CF11CF1E1EF16F7E2FF06DE
:1010800018F0EE24FF2405C00E94A312D82E882356
:1010900049F30E944B320E940333C82FDD27249668
:1010A000DD2071F006C00E9403339927C817D907C5
:1010B00038F060E880E00E948813D82E882399F3E6
:1010C0000E94FD1581E0D81609F0B3CFE0910B0323
:1010D000F0910C0392818091F703981709F0A9CF42
:1010E00041E0E42EF12C012D112DE092D207F09277
:1010F000D3070093D4071093D50780919608909159
:1011000097082181820F911D9093970880939608EC
:1011100082E090E00E9405206091760A7091770A43
:1011200089E690E00E9446380090860804C0EE0CE4
:10113000FF1C001F111F0A94D2F78E2D0E946627F4
:10114000D092A3081092D2071092D3071092D4071E
:101150001092D5070E946E328AE00E94943287E096
:101160000E9479326CE977EC80E090E00E9488334D
:101170000E947C32E091450AF091460A8AE090E0B4
:10118000968B858B8091A3089927DF91CF911F9132
:101190000F91FF90EF90DF90BF90AF9008950F9365
:1011A0001F93CF93DF93CDB7DEB721970FB6F89497
:1011B000DEBF0FBECDBF6091190386E093E00E94B1
:1011C000F21A0E94151600918E02802F0E94891C2F
:1011D0000E940333898389818C5F89830BC00E94BD
:1011E00003339981981730F4802F0E940E1D0E94BE
:1011F000FD15A0C00E94A312882389F30E945332D8
:101200009093A5088093A4080E9403338983898161
:101210008B5F89830EC00E9403339981981748F42D
:101220008FE492E09F938F930E9473380F900F90FA
:1012300081C060E880E00E948813182F882359F34A
:10124000802F0E940E1D0E94FD15113009F072C002
:1012500081E090E00E9405206091760A7091770A03
:1012600082E790E00E94463881E090E0A0E0B0E0A4
:101270008093D2079093D307A093D407B093D50758
:10128000E0910B03F0910C0380818093CF05809156
:1012900086080E9466271091CF0517FF4BC0812F4B
:1012A00084700E941B078093D9088093650785E6A8
:1012B00097E090932B0380932A036091760A7091B4
:1012C000770A12FF1CC08BE490E00E9446388091A0
:1012D000A4089091A5082091920830919308821B50
:1012E000930B90938F0880938E08292F3327209398
:1012F00066078093670784E08093290307C082E034
:101300008093290383E490E00E944638802F0E9456
:10131000891C40911B0350911C03609192087091AD
:1013200093082FE938E087E293E00E942B18802F82
:101330000E940E1D21960FB6F894DEBF0FBECDBFE2
:10134000DF91CF911F910F910895CF92DF92EF928D
:10135000FF920F931F93CF93DF93CDB7DEB7219703
:101360000FB6F894DEBF0FBECDBFE82E81E08093AC
:1013700014030E2D1127F801EE0FFF1FEE0FFF1FB4
:10138000E359F84F82819381909313038093120362
:10139000808180931103A0911203B0911303818186
:1013A0008C93E0911203F091130380919608909131
:1013B00097088183E0911203F09113038091040355
:1013C00082830E944B3260E875E280E090E00E94E8
:1013D0008833F09084028F2D0E94891C40911B035A
:1013E00050911C0360919208709193082FE938E0A6
:1013F0008FE093E00E942B188823E9F08F2D0E9444
:101400000E1D83E090E00E9405206091760A7091A5
:10141000770A84E790E00E94463880919F08909177
:10142000A0082091920830919308821B930B90930F
:101430008D0880938C08809194080E94662781E033
:1014400090E0A0E0B0E004C0880F991FAA1FBB1F66
:101450000A95D2F780959095A095B095209120039C
:1014600030912103409122035091230328233923F3
:101470004A235B23209320033093210340932203CC
:10148000509323038091CF0587FF37C16091760A7F
:101490007091770A82E690E00E9446380E94151605
:1014A0008F2D0E94891C0E944B3260E070E180E029
:1014B00090E00E9488330E940333898389818E5F84
:1014C000898332C00E9403339981981768F580910F
:1014D0009108E81651F48091DA089091DB0849965A
:1014E0009093DB088093DA0813C0E81A2091DA0899
:1014F0003091DB084E2D552747FD50951E1414F0F2
:10150000275E3F4F240F351F3093DB082093DA0806
:101510000E94FD158F2D0E940E1D80E792E09F9383
:101520008F930E94733828C00E94A312882351F21F
:101530000E940333898389818E5F89832091FE0213
:101540003091FF02C90164E670E00E948C3A892B59
:10155000C1F024313105A8F012C00E9403339981F3
:10156000981780F48FE492E09F938F930E947338D2
:101570000E940333809387080F900F90BEC002E053
:1015800001C004E0602F81E00E948813182F882397
:1015900021F3813041F46091760A7091770A84E3F7
:1015A00090E00E9446380E94FD158F2D0E940E1D6E
:1015B000113009F0A2C01092DB081092DA08E09115
:1015C0000B03F0910C0390819093D9088091CF0583
:1015D00087FF93C097FF91C081819927982F882713
:1015E00022813327822B932B90938F0880938E0830
:1015F00080E090E00E9405206091760A7091770A61
:1016000081E690E00E94463800918E0810918F0884
:1016100080918C0890918D08081B190B82E38983B7
:101620000E940333D82E17FD33C086E08D1580F15C
:10163000D09287080E946E3274E6E72E79E1F72E89
:10164000C80164E679E10E94A03AC62EC394C09214
:101650009908C80164E679E10E94A03AE81AF90AFB
:10166000F0929E08E0929D080E944B3282E390E047
:101670000E943D320E9453328E159F05D8F38D2D66
:101680008C0D0E94793284E690E00E943D322DC09C
:10169000109501951F4F8FE1013418070CF427C0F6
:1016A00086E08D1520F10E946E320E944B320000C0
:1016B00000000000000089818150898389818F3F6B
:1016C000B1F7B80180E090E00E9488338D2D0E9430
:1016D000793284E6898300000000000000008981DF
:1016E0008150898389818F3FB1F70E947C320E94AB
:1016F0004B3282E390E00E943D3221960FB6F8947F
:10170000DEBF0FBECDBFDF91CF911F910F91FF9034
:10171000EF90DF90CF900895809186080E945A261E
:10172000809194080E945A2621E030E040E050E089
:10173000CA01B9010090940804C0660F771F881F82
:10174000991F0A94D2F70090860804C0220F331F15
:10175000441F551F0A94D2F7622B732B842B952BB1
:101760000E94B82881E090E00895809319030E94B8
:101770001C1B0895CF92DF92EF92FF920F931F935D
:101780001092F0060E949E2B8091F0068823D1F3E0
:1017900081E08093F006C090840200E010E08C2D80
:1017A0000E94891C8C2D0E940E1D0E944B320E94AB
:1017B0005332909393088093920880919608909169
:1017C00097089093D7078093D6078536910530F018
:1017D000855690409093D7078093D60780919608BE
:1017E000909197089093A2088093A1088091960801
:1017F000909197088536910598F080919608909180
:10180000970884569040909397088093960880910B
:101810008A0890918B08019690938B0880938A0890
:1018200020919608309197088091A308813009F0A3
:1018300084C0C90169E170E00E948C3AD82EE09121
:101840009508E00FE0939508FF27EF70F070E853DC
:10185000F74F80818093C7080E94B50B85E18D15F5
:10186000E0F480915A058230C1F480919C0863E0D5
:101870000E94803AE92F90939C08FF27ED53F74F81
:1018800080818093C7080E94B50B87E18D1528F4ED
:1018900080919C088F5F80939C0811E0E12EF12CD1
:1018A000012D112D0D2C04C0EE0CFF1C001F111F6B
:1018B0000A94D2F78091D0069091D106A091D206D9
:1018C000B091D3062091200330912103409122034F
:1018D0005091230382239323A423B5238E219F2198
:1018E000A023B1230097A105B10531F08D2D0E94F1
:1018F000A509D092910833C080914205909143058B
:10190000A0914405B0914505E822F9220A231B2342
:10191000E114F1040105110511F18091D2079091B4
:10192000D307A091D407B091D5070097A105B105C1
:10193000B1F48D2D0E94CF0812C00E94F80680934A
:10194000CF0580915A05823039F01092FF02109233
:10195000FE020E940A0801C081E08093A308209142
:10196000DA083091DB088091810290918202281779
:10197000390788F180915A05823069F11092A308E5
:101980001092DB081092DA0884E690E090939708B2
:10199000809396088091F5039091F60301969093B9
:1019A000F6038093F50380910403882349F0E091C6
:1019B000F703E0939508FF27E853F74F808104C0B1
:1019C000109295088091C8088093C7088091C70835
:1019D0000E94B50BE2CE80919608909197080E94E4
:1019E0007D0F8C018091960890919708800F911F30
:1019F000909397088093960880E090E00E942220C0
:101A000010928D0810928C08C8010E946B2B80E008
:101A100090E00E943F20C3CEFF920F931F93082FA8
:101A2000F62E142F0E94D125809386088F3F19F43B
:101A300080E092E008C00E94D125809394088F3FF7
:101A400079F489ED91E00E94ED20E091450AF09152
:101A5000460A60858EE00E94CA248FEF90E087C01E
:101A600010920C0310920B0310920A030E9447324B
:101A700010928B0810928A0884E690E09093970861
:101A8000809396081092A30810923D051092DB08EF
:101A90001092DA0800935A05F09204031093F703AA
:101AA0001092D2071092D3071092D4071092D50744
:101AB000109220031092210310922203109223030C
:101AC00084E680931F0380E49FE190931E0380933C
:101AD0001D0380EA9FE090931C0380931B038FE01B
:101AE0008093190381E899E1909318038093170379
:101AF000E7EDF6E0119286E0E03FF807D9F71092A3
:101B0000420510924305109244051092450510922B
:101B1000D0061092D1061092D2061092D30621E878
:101B200039E141E254E26FE086E093E00E942F1B2E
:101B300081E08093900810929C08FF2041F0109360
:101B40009508E12FFF27E853F74F808104C01092DA
:101B500095088091C8088093C7088091C7080E94A3
:101B6000B50B1092F6031092F50381E090E01F91FF
:101B70000F91FF900895809186080E945A268091C7
:101B8000D207882379F461E070E080E090E0009073
:101B9000860804C0660F771F881F991F0A94D2F722
:101BA0000E94B82881E090E00895FC01DB0180915B
:101BB000D207882329F410821C9280E090E00895D7
:101BC00080910903808380910E038C9380910B0395
:101BD00090910C030895CF92DF92EF92FF920F93B2
:101BE0001F93CF93DF93EE24FF2406E0C02E03E083
:101BF000D02E60911903C6010E94F21A0E94151698
:101C00001092A30800E012C00E940333081771F07D
:101C10000E940333082F0894E11CF11C81E1E816AF
:101C200087E2F80618F0EE24FF2405C00E94A312F4
:101C3000182F882349F30E940333C82FDD272496E9
:101C4000112371F006C00E9403339927C817D907E2
:101C500038F060E880E00E948813182F882399F3F9
:101C60000E94FD15113029F6E0910B03F0910C0351
:101C700084858A3009F0BDCF81E090E0A0E0B0E03B
:101C80008093D2079093D307A093D407B093D5073E
:101C900086850E949A06E0910B03F0910C03E7857C
:101CA000E0939508FF27E853F74F80818093C7089A
:101CB0000E94B50B00910B0310910C03E80169E63B
:101CC00077E0888D882371F121E030E040E050E03A
:101CD00004C0220F331F441F551F8A95D2F78091ED
:101CE000D0069091D106A091D206B091D306822B56
:101CF000932BA42BB52B8093D0069093D106A09361
:101D0000D206B093D306E88DFF27E952F94F81E060
:101D10008083888DFB018193BF012196F7E06D36AA
:101D20007F0779F6E80160E08C8D882349F121E096
:101D300030E040E050E004C0220F331F441F551F25
:101D40008A95D2F78091420590914305A091440570
:101D5000B0914505822B932BA42BB52B8093420584
:101D600090934305A0934405B0934505EC8DFF2760
:101D7000E952F94F81E080836F5F21966430A1F6CC
:101D800081E090E0A0E0B0E00090860804C0880FF9
:101D9000991FAA1FBB1F0A94D2F70E94662781E0F1
:101DA00080933D051092D2071092D3071092D4076A
:101DB0001092D50781E090E0DF91CF911F910F91B4
:101DC000FF90EF90DF90CF900895282F6093F70356
:101DD000823041F58091D0069091D106A091D20633
:101DE000B091D30684608093D0069093D106A093DF
:101DF000D206B093D3068091420590914305A091FD
:101E00004405B09145058860809342059093430551
:101E1000A0934405B093450581E08093D906809353
:101E2000DA0652C0813039F5809142059091430520
:101E3000A0914405B091450584608093420590933C
:101E40004305A0934405B09345058091D006909139
:101E5000D106A091D206B091D30688608093D006B7
:101E60009093D106A093D206B093D3062093D906BF
:101E70002093DA0629C0882339F58091D006909105
:101E8000D106A091D206B091D30682608093D0068D
:101E90009093D106A093D206B093D30680914205C9
:101EA00090914305A0914405B091450580618093D0
:101EB000420590934305A0934405B093450581E006
:101EC0008093D8068093DB0681E090E008958A3104
:101ED00018F08FEF9FEF0895E82FFF27E952F94F91
:101EE0008081992787FD90950895E7EDF6E011929E
:101EF00086E0E03FF807D9F7089569E170E00E94B5
:101F00008C3A682F482F0CC0242F3327F901E9524F
:101F1000F94F8081882321F0C901861B910908951A
:101F20004F5F493188F320E030E0422F5527FA0116
:101F3000E952F94F8081882339F089E190E0861BCE
:101F40009109840F951F08952F5F3F4F621768F71F
:101F50000895EAE7F0E083E08083ACE7B0E080E456
:101F60008C938081806880831092DD088C91807EC4
:101F70008C939C918C91807E892B8C93089588EC16
:101F800090E00E943D32089580917A0080648093B1
:101F90007A0080917A0084FFFCCF0E94BF0F2091CD
:101FA00078003327809179009927982F8827822BF2
:101FB000932B0895FF920F931F93CF93DF93CDB789
:101FC000DEB722970FB6F894DEBF0FBECDBF0E94DA
:101FD0001A128C01009711F00E946428159AFF24B0
:101FE0008F2D806299279A83898340988BE18EBDDB
:101FF0000DB407FEFDCF89819A81892F99278EBD67
:102000000DB407FEFDCF89819A818EBD0DB407FE08
:10201000FDCF409A82E090E00E943D3240988BE5EF
:102020008EBD0DB407FEFDCF1EBC0DB407FEFDCF67
:102030008EB59927982F88279A8389831EBC0DB463
:1020400007FEFDCF89819A812EB53327282B392BA6
:102050003A832983409A89819A8186FD05C0F39449
:102060002FE1F21609F0BCCF0115110519F0C801D6
:102070000E941227FF20C9F40E94C40F9A8389830B
:1020800089819A818F3A910530F089819A818E5A9F
:1020900090409A83898389819A818A54914098F4E7
:1020A0008AE491E09A8389830EC02DE7F29E900125
:1020B000112488E293E2821B930B6BE170E00E9493
:1020C000A03A7A83698389819A8122960FB6F8941F
:1020D000DEBF0FBECDBFDF91CF911F910F91FF905B
:1020E0000895CF92DF92EF92FF920F931F93CF93B9
:1020F000DF93982FEA01122F823009F481C08330D8
:1021000030F4882371F0813009F0D2C010C08430DF
:1021100009F481C0843008F477C0853009F0C8C064
:102120002DC080E880BB8F9A0E94A90F6AC0809161
:10213000DC08813009F4C3C09093DC08772760FF86
:1021400013C08F981092DD0880917C00807E809370
:102150007C0090917C0080917C00807E892B809314
:102160007C0088EE93E09FC061FDA9C062FDA7C01E
:1021700067707070672B09F4A2C097C0822F8150DE
:10218000823008F099C09091DD08892F8150863007
:1021900018F40E94C40F22C0992319F40E94DA0F88
:1021A0001DC0973051F5F1E0CF2EF4E0DF2EEE2484
:1021B000FF2400E00E94C40F8C159D0508F46C01FB
:1021C000E816F90608F47C018DE790E00E943D32A4
:1021D0000F5F003479F7C7018C199D09123031F473
:1021E0008883892F9927898381E008C0113029F4D9
:1021F0009695879596958795888380E08F5F09C02F
:102200008F9A1092DC0851C0613009F058C080915B
:10221000DD08992756C0613009F051C02730D9F444
:102220002093DD0880917C008F7780937C008091E3
:102230007C00806480937C0080917C00807E809311
:102240007C0090917C0080917C009360807E982B34
:1022500090937C0026C0283020F081E00E94052465
:102260002EC02093DD08213049F480917C008F77C7
:1022700080937C0080917C00806403C080917C000E
:10228000806C80937C0080917C00807E80937C00B9
:1022900090917C0080917C00807E892B812B8093A3
:1022A0007C0088EC90E00E943D3281E090E009C023
:1022B00060E08CE00E94CA2480E090E002C08FEFD2
:1022C00090E0DF91CF911F910F91FF90EF90DF9001
:1022D000CF90089599279C01265A3E4B0B97880F63
:1022E000991F880F991F280F391FF894409888E18B
:1022F0008EBD0DB407FEFDCF832F99278EBD0DB483
:1023000007FEFDCF2EBD0DB407FEFDCF409A789499
:102310000895F89440981EBC0DB407FEFDCF8EB50D
:10232000409A789486FFF5CF08958091F308992715
:102330000895CF93DF93DC01409889EC8EBD0DB4F6
:1023400007FEFDCF80E88EBD0DB407FEFDCF92E005
:102350009150FD01E90FF11D80818EBD0DB407FE86
:10236000FDCF9923A9F7409A40988BEC8EBD0DB410
:1023700007FEFDCF80E88EBD0DB407FEFDCF92E0D5
:102380009D012E5F3F4FE9019150F901E90FF11DC9
:1023900080818EBD0DB407FEFDCF9923A1F7409A31
:1023A0008C918093F408FD0181818093F5088881E8
:1023B0008093F60883818093F708DF91CF91089589
:1023C000409889E18EBD0DB407FEFDCF83E08EBD40
:1023D0000DB407FEFDCF86E08EBD0DB407FEFDCF28
:1023E000409A40988AE18EBD0DB407FEFDCF8EE085
:1023F0008EBD0DB407FEFDCF8EE08EBD0DB407FE81
:10240000FDCF409A81E08093E4080895409889E1E7
:102410008EBD0DB407FEFDCF81E08EBD0DB407FE6D
:10242000FDCF84EC8EBD0DB407FEFDCF409A109217
:10243000E40808958091E2089091E30808952091BE
:10244000E5083091E60838603093E6082093E50807
:10245000409881E18EBD0DB407FEFDCF832F9927F3
:102460008EBD0DB407FEFDCF2EBD0DB407FEFDCF12
:10247000409A08952091E5083091E608377F30931F
:10248000E6082093E508409881E18EBD0DB407FE73
:10249000FDCF832F99278EBD0DB407FEFDCF2EBD36
:1024A0000DB407FEFDCF409A089581E08093F208B5
:1024B0002091E5083091E60820613093E6082093EA
:1024C000E508409881E18EBD0DB407FEFDCF832F56
:1024D00099278EBD0DB407FEFDCF2EBD0DB407FEAE
:1024E000FDCF409A08951092F2082091E5083091AE
:1024F000E6082F7E3093E6082093E508409881E1B6
:102500008EBD0DB407FEFDCF832F99278EBD0DB470
:1025100007FEFDCF2EBD0DB407FEFDCF409A0895F6
:1025200089B1992766E0969587956A95E1F781705C
:10253000907008958CB1992787FD90958827990F01
:10254000881F9927089589B19927E6E09695879580
:10255000EA95E1F78170907008958091F8088823DA
:1025600019F480E090E008958091F8081092F8083E
:10257000992787FD90950895409888E08EBD0DB409
:1025800007FEFDCF409A409888E08EBD0DB407FE4F
:10259000FDCF409A08958091E2089091E3080E944F
:1025A0006428409886E08EBD0DB407FEFDCF409AAA
:1025B0008091E2089091E3080E941227089580918B
:1025C000E2089091E3080E946428409884E08EBD60
:1025D0000DB407FEFDCF409A8091E2089091E30888
:1025E0000E94122708958091E2089091E3080E94CA
:1025F0006428409886E08EBD0DB407FEFDCF409A5A
:10260000409882E18EBD0DB407FEFDCF85E08EBD02
:102610000DB407FEFDCF1EBC0DB407FEFDCF409AE2
:1026200040988EE28EBD0DB407FEFDCF1EBC0DB4EA
:1026300007FEFDCF1EBC0DB407FEFDCF409A0E94E1
:10264000BC128091E2089091E3080E94122708953D
:102650008091E2089091E3080E946428409886E007
:102660008EBD0DB407FEFDCF409A409882E18EBD2D
:102670000DB407FEFDCF85E08EBD0DB407FEFDCF86
:1026800088E08EBD0DB407FEFDCF409A40988EE2E3
:102690008EBD0DB407FEFDCF88E18EBD0DB407FEE3
:1026A000FDCF1EBC0DB407FEFDCF409A0E94BC12A8
:1026B0008091E2089091E3080E94122708950F93F9
:1026C0001F93082F8091E2089091E3080E946428EC
:1026D000112707FD1095302F22272068409883E1AD
:1026E0008EBD0DB407FEFDCF832F99278EBD0DB48F
:1026F00007FEFDCF2EBD0DB407FEFDCF409A8091A1
:10270000E2089091E3080E9412271F910F9108950B
:102710000F931F93CF93DF93CDB7DEB724970FB6F8
:10272000F894DEBF0FBECDBF182F062F8091E208B0
:102730009091E3080E946428679B4CC21092F308B2
:10274000679B25C0319923C040988FE78EBD0DB49B
:1027500007FEFDCF1EBC0DB407FEFDCF8EB5409A1F
:10276000409888E08EBD0DB407FEFDCF409A40989A
:1027700088E08EBD0DB407FEFDCF409A8091E2083F
:102780009091E3080E9412278FEF9FEF2BC2409891
:102790008FE78EBD0DB407FEFDCF1EBC0DB407FE46
:1027A000FDCF4EB5409A4F7719F540988FE78EBD13
:1027B0000DB407FEFDCF1EBC0DB407FEFDCF8EB5D8
:1027C000409A409888E08EBD0DB407FEFDCF409A38
:1027D000409888E08EBD0DB407FEFDCF409A8091F1
:1027E000E2089091E3080E9412278EEF9FEFFAC152
:1027F00045308CF0E091E708F091E808242F33276A
:1028000027FD30952B5030408481992787FD909586
:1028100082179307F4F540988FE78EBD0DB407FE3D
:10282000FDCF60E070E0242F332727FD309506C0F0
:102830001EBC0DB407FEFDCF6F5F7F4F862F99271B
:102840008217930714F43199F3CF409A40988FE799
:102850008EBD0DB407FEFDCF1EBC0DB407FEFDCF2F
:102860008EB5409A409888E08EBD0DB407FEFDCF2E
:10287000409A409888E08EBD0DB407FEFDCF409A87
:102880008091E2089091E3080E9412278DEF9FEF5C
:10289000A9C1E091E708F091E8084C504383112367
:1028A000B1F0E091E708F091E8088381992787FD6E
:1028B0009095202F33278217930749F08091E208E3
:1028C0009091E3080E9412278AEF9FEF8BC14098F6
:1028D0008FE78EBD0DB407FEFDCFFE0131969E0140
:1028E0002D5F3F4F1EBC0DB407FEFDCF8EB581930B
:1028F000E217F307B9F7409AE091E708F091E8088A
:1029000089819A81B5E096958795BA95E1F78170AE
:10291000878340988FE78EBD0DB407FEFDCF1EBCA8
:102920000DB407FEFDCFE091E708F091E8088EB501
:102930008083409A40988FE78EBD0DB407FEFDCF8F
:1029400080E007C01EBC0DB407FEFDCF8F5F843052
:1029500011F03199F7CF409A40988FE78EBD0DB4B2
:1029600007FEFDCF20E030E01EBC0DB407FEFDCF1A
:10297000E091E708F091E808E20FF31F8EB581833C
:102980002F5F3F4F2230310579F7409A89819A8134
:1029900083FF56C040988FE78EBD0DB407FEFDCF74
:1029A000EEEDF8E01EBC0DB407FEFDCF8EB58193B1
:1029B00088E0E23EF807B1F7409A409889E98EBD79
:1029C0000DB407FEFDCF80E88EBD0DB407FEFDCF30
:1029D00092E09150E92FFF27E252F74F80818EBDA0
:1029E0000DB407FEFDCF9923A1F7409A40988BE9DB
:1029F0008EBD0DB407FEFDCF80E88EBD0DB407FE81
:102A0000FDCF92E09150E92FFF27E052F74F8081F0
:102A10008EBD0DB407FEFDCF9923A1F7409A4098D3
:102A20008CE08EBD0DB407FEFDCF409A81E080930F
:102A3000F308E091E708F091E808838184508383EC
:102A400040988FE78EBD0DB407FEFDCF40E050E00B
:102A500011C01EBC0DB407FEFDCFE091E708F09158
:102A6000E8080580F681E02DE60FF11D8EB5808324
:102A70004F5F5F4F642FE091E708F091E808242F43
:102A800033278381992787FD9095281739070CF301
:102A9000409A40988FE78EBD0DB407FC0AC0FCCF6A
:102AA0000DB407FEFDCF5EB5409A40988FE78EBD0E
:102AB00002C01EBCF5CF0DB407FEFDCFFE0133965C
:102AC0009E012B5F3F4F1EBC0DB407FEFDCF8EB5A0
:102AD0008193E217F307B9F7409AE091E708F09184
:102AE000E8088B81808740E020E030E00AC0E09178
:102AF000E708F091E80885819681A80FB91F8C91AD
:102B0000480F822FE091E708F091E8082F5F3F4FD0
:102B1000A82FBB278381992787FD9095A817B90710
:102B200034F3451719F140988FE78EBD0DB407FEB9
:102B3000FDCF1EBC0DB407FEFDCF8EB5409A409868
:102B400088E08EBD0DB407FEFDCF409A409888E026
:102B50008EBD0DB407FEFDCF409A8091E2089091A2
:102B6000E3080E9412278CEF9FEF3CC08C8187FF07
:102B70000EC08091F8088F5F8093F8088091E2087A
:102B80009091E3080E94122781E090E02BC04098CA
:102B90008FE78EBD0DB407FEFDCF1EBC0DB407FE42
:102BA000FDCF8EB5409A409888E08EBD0DB407FEEB
:102BB000FDCF409A409888E08EBD0DB407FEFDCF52
:102BC000409A8091E2089091E3080E9412278BEFCF
:102BD0009FEF08C08091E2089091E3080E941227BD
:102BE00080E090E024960FB6F894DEBF0FBECDBF14
:102BF000DF91CF911F910F9108958091E2089091FC
:102C0000E3080E9464281092EF08409886E08EBD89
:102C10000DB407FEFDCF409A1092F8088091E208AB
:102C20009091E3080E94122708958091E208909104
:102C3000E3080E94642881E08093EF08409883E0D5
:102C40008EBD0DB407FEFDCF409A409888E08EBD42
:102C50000DB407FEFDCF409A1092F8088091E2086B
:102C60009091E3080E94122708958091E2089091C4
:102C7000E3080E94642881E08093EF08409883E095
:102C80008EBD0DB407FEFDCF409A409888E08EBD02
:102C90000DB407FEFDCF409A1092F8088091E2082B
:102CA0009091E3080E94122708951F93182F809196
:102CB000E2089091E3080E946428212F33272F71A6
:102CC0003070206E306A409885E18EBD0DB407FEED
:102CD000FDCF832F99278EBD0DB407FEFDCF2EBDEE
:102CE0000DB407FEFDCF409A8091E2089091E30871
:102CF0000E9412271F910895EF92FF920F931F9346
:102D0000CF93DF93CDB7DEB722970FB6F894DEBF2F
:102D10000FBECDBF8C018091E2089091E3080E9424
:102D200064285091E408552339F040988DE08EBD19
:102D30000DB407FEFDCF409AF8014281642F77273A
:102D400067FD7095A0E020E030E008C0F8018381C5
:102D50009481E80EF91EF7018081A80F822F2F5F62
:102D60003F4FE82EFF24E616F70684F3942F945F76
:102D700051119C5F6799FECF4E99FCCFF894409813
:102D800089E08EBD0DB407FEFDCF409A409889E0E2
:102D90008EBD0DB407FEFDCF409A40988EE38EBDE8
:102DA0000DB407FC05C0FCCF0DB407FC30C1FCCF4F
:102DB0009EBDFACF81E698E89A838983552329F04E
:102DC00089819A8188609A83898340988EE38EBD39
:102DD0000DB407FEFDCFFE0131969E012D5F3F4FE2
:102DE00080818EBD0DB407FEFDCF3196E217F3074B
:102DF000B9F7409A40988EE38EBD0DB407FC05C02C
:102E0000FCCF0DB407FC0EC1FCCF8091E9088EBD4C
:102E1000F8CF0DB407FEFDCF20E030E0F901E55119
:102E2000F74F80818EBD0DB407FEFDCF2F5F3F4F62
:102E30002230310599F7409A40988EE38EBD0DB44B
:102E400007FEFDCF20E030E0F801E20FF31F8081A4
:102E50008EBD0DB407FEFDCF2F5F3F4F22303105F1
:102E600099F7409A40988EE38EBD0DB407FEFDCFD2
:102E700020E030E0F901E351F74F80818EBD0DB4C1
:102E800007FEFDCF2F5F3F4F2230310599F7409A63
:102E9000552399F040988EE38EBD0DB407FEFDCF0B
:102EA000E4EFF8E080818EBD0DB407FEFDCF3196D2
:102EB00088E0E83FF807B1F7409A40988EE38EBD6E
:102EC0000DB407FEFDCF20E030E00DC0F801838196
:102ED0009481480F591FFA0180818EBD0DB407FE01
:102EE000FDCF2F5F3F4F422F55274617570774F3EB
:102EF000409A40988EE38EBD0DB407FC05C0FCCF10
:102F00000DB407FC94C0FCCFAEBDFACF8091EF08A2
:102F1000882339F4409883E08EBD0DB407FEFDCFC1
:102F2000409A40981EBC0DB407FEFDCF8EB5409A66
:102F300081FFF7CF00E0409885E08EBD0DB407FE1D
:102F4000FDCF409A40981EBC0DB407FEFDCF1EB5C4
:102F5000409A0F5F053651F478948091E208909181
:102F6000E3080E94122780E090E068C084E690E0C9
:102F70000E944E2113FD08C0DECF409884E08EBD34
:102F80000DB407FEFDCF409A78944E9BFECF4E992C
:102F9000FECF8091F208882391F084EA92E00E94AB
:102FA0004E21319B0EC040988FE78EBD0DB407FEB9
:102FB000FDCF1EBC0DB407FEFDCF8EB5409A11E0CB
:102FC0000FC0409888E08EBD0DB407FEFDCF409A3B
:102FD000409888E08EBD0DB407FEFDCF409A10E00A
:102FE000F894409886E08EBD0DB407FEFDCF409A60
:102FF00078948091E9088F5F8093E9088091E208D6
:103000009091E3080E941227812F992717C0409AB8
:1030100081E498E89A8389838091F208882309F0F3
:10302000C9CECCCE409A40988EE38EBDF2CE409A67
:10303000F8018581882309F069CF9FCF22960FB6CA
:10304000F894DEBF0FBECDBFDF91CF911F910F91DE
:10305000FF90EF9008958F929F92BF92CF92DF9250
:10306000EF92FF920F931F93CF93DF93CDB7DEB70D
:1030700022970FB6F894DEBF0FBECDBF8C016B0157
:103080007A0149018091E2089091E3080E94642846
:103090000E940333409888E08EBD0DB407FEFDCF3B
:1030A000409A409888E08EBD0DB407FEFDCF409A4F
:1030B0006799FECF4E99FCCFF894409889E08EBD79
:1030C0000DB407FEFDCF409A409889E08EBD0DB447
:1030D00007FEFDCF409AF8016281462F552747FD34
:1030E0005095BB2420E030E007C0F8018381948133
:1030F000A80FB91F8C91B80E822F2F5F3F4FA82FBA
:10310000BB27A417B5078CF3962F945F40988EE3E6
:103110008EBD0DB407FC05C0FCCF0DB407FC18C173
:10312000FCCF9EBDFACF81E698E89A8389834098C8
:103130008EE38EBD0DB407FEFDCFFE0131969E01DC
:103140002D5F3F4F80818EBD0DB407FEFDCF3196C0
:10315000E217F307B9F7409A40988EE38EBD0DB49D
:1031600007FC05C0FCCF0DB407FCFBC0FCCF809171
:10317000E9088EBDF8CF0DB407FEFDCF20E030E0AA
:10318000F901E551F74F80818EBD0DB407FEFDCFEB
:103190002F5F3F4F2230310599F7409A40988EE3D8
:1031A0008EBD0DB407FEFDCF20E030E0F801E20F48
:1031B000F31F80818EBD0DB407FEFDCF2F5F3F4F03
:1031C0002230310599F7409A40988EE38EBD0DB4B8
:1031D00007FEFDCF20E030E0F901E351F74F808199
:1031E0008EBD0DB407FEFDCF2F5F3F4F223031055E
:1031F00099F7409AB701C6010E948833F80185818A
:10320000882379F18091EF08882339F4409883E08E
:103210008EBD0DB407FEFDCF409AEE24409885E0A8
:103220008EBD0DB407FEFDCF409A40981EBC0DB474
:1032300007FEFDCFFEB4409AE394F5E6EF1651F495
:1032400078948091E2089091E3080E94122780E030
:1032500090E08EC084E690E00E944E21F3FC08C00E
:10326000DDCF409884E08EBD0DB407FEFDCF409ABF
:10327000809183020E94891C809184009091850036
:10328000F4019183808340988EE38EBD0DB407FED8
:10329000FDCFF8018281482F552747FD509520E04A
:1032A00030E00CC0F80183819481A80FB91F8C9184
:1032B0008EBD0DB407FEFDCF2F5F3F4FA22FBB2762
:1032C000A417B5077CF3409A40988EE38EBD0DB4E9
:1032D00007FC05C0FCCF0DB407FC48C0FCCFBEBC4A
:1032E000FACF4E9BFECFF8944E99FECF409888E0DF
:1032F0008EBD0DB407FEFDCF409A409888E08EBD8C
:103300000DB407FEFDCF409A409889E08EBD0DB404
:1033100007FEFDCF409A409889E08EBD0DB407FEB0
:10332000FDCF409A409886E08EBD0DB407FEFDCFDC
:10333000409A78948091E9088F5F8093E9088091A2
:10334000E2089091E3080E94122781E090E010C00B
:10335000409AF8018681882309F0E5CE81E498E857
:10336000E4CE409A40988EE38EBD05CF409AB9CF07
:1033700022960FB6F894DEBF0FBECDBFDF91CF917E
:103380001F910F91FF90EF90DF90CF90BF909F9093
:103390008F900895CF93DF93CDB7DEB722970FB606
:1033A000F894DEBF0FBECDBF9A8389839093EE0859
:1033B0008093ED0884EF91E00E943D3240988AEEC0
:1033C0008EBD0DB407FEFDCF80E88EBD0DB407FEA7
:1033D000FDCFFE0131969E012D5F3F4F80818EBD56
:1033E0000DB407FEFDCF3196E217F307B9F7409A07
:1033F00084EF91E00E943D3222960FB6F894DEBF32
:103400000FBECDBFDF91CF9108956F927F928F92C3
:103410009F92AF92BF92CF92DF92EF92FF920F9363
:103420001F93CF93DF93CDB7DEB722970FB6F894F3
:10343000DEBF0FBECDBF8C0184E690E00E943D321E
:103440007801C12CB1E0DB2E3E010894611C711C97
:10345000A3E08A2E912C8C0E9D1EF7018081218184
:1034600033279927982F8827282B392B3A832983AC
:1034700084E690E00E943D3240988C2D80688EBD9D
:103480000DB407FEFDCFC60195958795807C8EBD56
:103490000DB407FEFDCF83015301F50180818EBD80
:1034A0000DB407FEFDCF0894A11CB11CA814B904EB
:1034B000A1F7409A0894E11CF11C82E090E0C80E4C
:1034C000D91E90E1C91691E0D90639F684E690E05C
:1034D0000E943D3220E131E040E451E01A8219823D
:1034E0004098842F80688EBD0DB407FEFDCFCA01C1
:1034F00095958795807C8EBD0DB407FEFDCFF801B4
:1035000080818EBD0DB407FEFDCF3196EA15FB0517
:10351000B9F7409A4098822F80688EBD0DB407FE9F
:10352000FDCFC90195958795807C8EBD0DB407FEB2
:10353000FDCFF80180818EBD0DB407FEFDCF319621
:10354000EA15FB05B9F7409A2E5F3F4F4E5F5F4F7C
:10355000E1E02E313E0711F681E090E09A83898305
:1035600040988EEC8EBD0DB407FEFDCF80E88EBD79
:103570000DB407FEFDCFF80180818EBD0DB407FEAE
:10358000FDCF3196EA15FB05B9F7409A40988EE9D0
:103590008EBD0DB407FEFDCF80E88EBD0DB407FED5
:1035A000FDCFF80180818EBD0DB407FEFDCF0F5F0A
:1035B0001F4F0A151B05A9F7409A22960FB6F894DB
:1035C000DEBF0FBECDBFDF91CF911F910F91FF9056
:1035D000EF90DF90CF90BF90AF909F908F907F90B3
:1035E0006F9008951F93CF93DF93EC01162F809176
:1035F000E2089091E3080E946428409888E08EBD1C
:103600000DB407FEFDCF409A409888E08EBD0DB402
:1036100007FEFDCF409A812F0E946A11D093E808DF
:10362000C093E7088091E2089091E3080E94122776
:10363000DF91CF911F9108951F93182F8091E20879
:103640009091E3080E946428812F0E946A11809162
:10365000E2089091E3080E9412271F910895DF92DB
:10366000EF92FF920F931F93CF93DF93CDB7DEB707
:1036700022970FB6F894DEBF0FBECDBF8C01D62EB9
:103680005A834983790164E181E00E9493269093F3
:10369000E3088093E208892B31F40E94DE29682F29
:1036A0008FE00E94CA248091E2089091E3080E9472
:1036B00064288F3F21F484E592E00E94ED20159A62
:1036C00088EE93E00E944E21169881E090E00E94DF
:1036D0004E21169A84E690E00E944E21F89440987C
:1036E00081E08EBD0DB407FEFDCF409A82EE92E0E0
:1036F0009093E6088093E508409881E18EBD0DB473
:1037000007FEFDCF82E08EBD0DB407FEFDCF82EE39
:103710008EBD0DB407FEFDCF409A409882E18EBD6C
:103720000DB407FEFDCF85E08EBD0DB407FEFDCFC5
:103730001EBC0DB407FEFDCF409A40988CE18EBDB3
:103740000DB407FEFDCF1EBC0DB407FEFDCF8FE705
:103750008EBD0DB407FEFDCF409A409889E18EBD25
:103760000DB407FEFDCF81E08EBD0DB407FEFDCF89
:1037700084EC8EBD0DB407FEFDCF409A409887E1E2
:103780008EBD0DB407FEFDCF8AE18EBD0DB407FEE0
:10379000FDCF86E58EBD0DB407FEFDCF409A84EFC8
:1037A00091E00E943D32409888EE8EBD0DB407FE38
:1037B000FDCF80E88EBD0DB407FEFDCFFE01319632
:1037C0009E012D5F3F4F80818EBD0DB407FEFDCF62
:1037D0003196E217F307B9F7409A84EF91E00E941F
:1037E0003D3278948D2D0E946A1178941093E808E8
:1037F0000093E70889819A819093EC088093EB0805
:10380000F092EE08E092ED081092E9081092EF08AD
:103810000E9489118091E2089091E3080E9412278A
:103820008F3F39F487E292E00E94ED2082E00E940F
:1038300005241092F2081092E4081092F3082296E0
:103840000FB6F894DEBF0FBECDBFDF91CF911F91B1
:103850000F91FF90EF90DF90089520917B09809168
:10386000F908281781F0E22FFF27E650F74FE08193
:10387000822F8F5F80937B09803811F410927B092F
:103880008E2F992708958091C80087FFFCCF8091E3
:10389000C8008F778093C8008091CE009927089543
:1038A000882351F48091C000992787FD909588273F
:1038B000990F881F99270895813019F080E090E0D2
:1038C000089520E030E090917B098091F9089817E5
:1038D00011F021E030E0C901089585B7806185BF0E
:1038E00086E084B987E085B981E087B988B98CE33F
:1038F0008DB98BE08AB98EE38EB988E781B980E40F
:1039000082B908950E946D1C80E58CBD81E08DBD5B
:1039100008958F3F09F47FC0482F55279A012770DB
:10392000307022303105A9F12330310544F42115DE
:10393000310589F02130310509F06DC01CC02430FB
:10394000310509F446C0243031059CF1253031059C
:1039500009F061C04EC022B1A3E056954795AA95E3
:10396000E1F781E090E002C0880F991F4A95E2F7E5
:10397000282B22B94DC085B1F3E056954795FA95AD
:10398000E1F702C0220F331F4A95E2F7822B85B977
:103990003FC028B1E3E056954795EA95E1F781E00D
:1039A00090E002C0880F991F4A95E2F7282B28B9AA
:1039B0002FC02BB173E0569547957A95E1F781E0DA
:1039C00090E002C0880F991F4A95E2F7282B2BB987
:1039D0001FC02EB163E0569547956A95E1F781E0E7
:1039E00090E002C0880F991F4A95E2F7282B2EB964
:1039F0000FC021B333E0569547953A95E1F781E042
:103A000090E002C0880F991F4A95E2F7282B21BB4E
:103A100081E090E008958FEF9FEF08958F3F09F4C4
:103A200086C0482F55279A01277030702230310503
:103A3000C1F12330310544F42115310589F02130DD
:103A4000310509F074C01DC02430310509F44BC0A4
:103A500024303105BCF12530310509F068C054C06F
:103A600022B173E0569547957A95E1F781E090E0B1
:103A700002C0880F991F4A95E2F78095822382B988
:103A800053C095B163E0569547956A95E1F702C03A
:103A9000220F331F4A95E2F7822F8095892385B93B
:103AA00043C028B133E0569547953A95E1F781E058
:103AB00090E002C0880F991F4A95E2F78095822313
:103AC00088B932C02BB193E0569547959A95E1F7A6
:103AD00081E090E002C0880F991F4A95E2F7809537
:103AE00082238BB921C02EB183E0569547958A95E4
:103AF000E1F781E090E002C0880F991F4A95E2F754
:103B0000809582238EB910C021B3B3E056954795B6
:103B1000BA95E1F781E090E002C0880F991F4A95BD
:103B2000E2F78095822381BB81E090E008958FEFDA
:103B30009FEF08958F3FA9F1282F3327C901877080
:103B4000907082309105A9F0833091052CF4009794
:103B500061F0019731F50BC08430910571F084302C
:103B600091054CF00597E9F40AC080B109C083B112
:103B700007C086B105C089B103C08CB101C08FB147
:103B80009927E3E036952795EA95E1F702C09595E8
:103B900087952A95E2F7992787FD90958170907017
:103BA00008958FEF9FEF08958F3F09F403C1282FE9
:103BB0003327A901477050704230510509F45CC0A9
:103BC0004330510544F44115510591F04130510500
:103BD00009F0F0C034C04430510509F49BC04430B2
:103BE00051050CF470C04530510509F0E3C0B9C06F
:103BF00080B1A90173E0569547957A95E1F7992729
:103C0000042E02C0959587950A94E2F780FD0BC0BB
:103C100022B181E090E002C0880F991F4A95E2F737
:103C2000282B22B9C4C022B181E090E002C0880FE5
:103C3000991F4A95E2F78095822382B9B8C083B173
:103C400063E0369527956A95E1F79927022E02C021
:103C5000959587950A94E2F702C0440F551F2A955F
:103C6000E2F780FD03C085B1842B04C095B1842F99
:103C70008095892385B99BC086B1A90193E05695AB
:103C800047959A95E1F79927042E02C09595879557
:103C90000A94E2F780FD0BC028B181E090E002C0F9
:103CA000880F991F4A95E2F7282B28B980C028B1C0
:103CB00081E090E002C0880F991F4A95E2F7809555
:103CC000822388B974C089B1A901B3E0569547959C
:103CD000BA95E1F79927042E02C0959587950A9425
:103CE000E2F780FD0BC02BB181E090E002C0880FAD
:103CF000991F4A95E2F7282B2BB959C02BB181E0C7
:103D000090E002C0880F991F4A95E2F780958223C0
:103D10008BB94DC08CB1A901A3E056954795AA95E2
:103D2000E1F79927042E02C0959587950A94E2F74A
:103D300080FD0BC02EB181E090E002C0880F991F7A
:103D40004A95E2F7282B2EB932C02EB181E090E0DF
:103D500002C0880F991F4A95E2F7809582238EB999
:103D600026C08FB1A901F3E056954795FA95E1F782
:103D70009927042E02C0959587950A94E2F780FD55
:103D80000BC021B381E090E002C0880F991F4A95D3
:103D9000E2F7282B21BB0BC021B381E090E002C0E9
:103DA000880F991F4A95E2F78095822381BB81E0B5
:103DB00090E008958FEF9FEF08958F3F09F412C1AF
:103DC000482F5527662309F090C0CA01877090706C
:103DD0008230910509F43EC0833091053CF4009790
:103DE00089F08130910509F0FDC021C08430910532
:103DF00009F454C0843091050CF43EC0059709F0D5
:103E0000F1C05EC031B1B3E056954795BA95E1F780
:103E100081E090E002C0880F991F4A95E2F7282FB1
:103E20002095232321B922B1822B82B9D8C024B195
:103E3000A3E056954795AA95E1F702C0880F991F10
:103E40004A95E2F7982F8095822384B985B1982B03
:103E500095B9C5C037B1F3E056954795FA95E1F7A6
:103E600081E090E002C0880F991F4A95E2F7282F61
:103E70002095232327B935C03AB1E3E056954795FD
:103E8000EA95E1F781E090E002C0880F991F4A951A
:103E9000E2F7282F209523232AB923C03DB173E0F0
:103EA000569547957A95E1F781E090E002C0880F3A
:103EB000991F4A95E2F7282F209523232DB911C089
:103EC00030B363E0569547956A95E1F781E090E05D
:103ED00002C0880F991F4A95E2F7282F20952323C7
:103EE00020BB25B1822B85B97AC09A01277030702A
:103EF00022303105A9F12330310544F42115310573
:103F000089F02130310509F06DC01CC02430310525
:103F100009F446C0243031059CF12530310509F003
:103F200061C04EC021B133E0569547953A95E1F70F
:103F300081E090E002C0880F991F4A95E2F7282B94
:103F400021B94DC084B193E0569547959A95E1F714
:103F500002C0220F331F4A95E2F7822B84B93FC07B
:103F600027B1B3E056954795BA95E1F781E090E027
:103F700002C0880F991F4A95E2F7282B27B92FC056
:103F80002AB1A3E056954795AA95E1F781E090E024
:103F900002C0880F991F4A95E2F7282B2AB91FC043
:103FA0002DB1F3E056954795FA95E1F781E090E061
:103FB00002C0880F991F4A95E2F7282B2DB90FC030
:103FC00020B3E3E056954795EA95E1F781E090E06C
:103FD00002C0880F991F4A95E2F7282B20BB81E089
:103FE00090E008958FEF9FEF0895882319F08FEFE9
:103FF0009FEF089580B1992787FD909580959095C2
:104000008827990F881F99270895009711F484E154
:1040100009C08130910511F48CE104C08230910512
:1040200031F484E20E94D41D81E090E0089503976A
:1040300019F08FEF9FEF08958CE20E94D41D81E06C
:1040400090E00895009711F484E109C08130910552
:1040500011F48CE104C08230910531F484E20E94B5
:10406000891C81E090E00895039719F08FEF9FEF8E
:1040700008958CE20E94891C81E090E008950097E9
:1040800011F484E109C08130910511F48CE104C080
:104090008230910531F484E20E940E1D81E090E0AF
:1040A0000895039719F08FEF9FEF08958CE20E9417
:1040B0000E1D81E090E00895882319F085B78F7E6A
:1040C00002C085B7806185BF81E090E00895982F98
:1040D0008091C00085FFFCCF8091C0008F7D8093D0
:1040E000C0009093C6000895982F8091C80085FF66
:1040F000FCCF9093CE000895292F33272093C5003D
:104100008093C40086E08093C200E1ECF0E08081FF
:104110008B7F8083A0ECB0E08C9182608C93808157
:10412000886180830895292F33272093CD008093C1
:10413000CC0086E08093CA00E9ECF0E080818B7FC0
:104140008083A8ECB0E08C9182608C938081886140
:10415000808308958091C00087FFFCCF8091C000CC
:104160008F778093C0008091C600992708950E94A0
:1041700093206DE27CE184E790E20E94B537909352
:10418000770A8093760A6DE27CE184E790E20E94F0
:10419000B5379093750A8093740A0E94D125809355
:1041A0007A098F3F19F48EE00E94D12410927B0986
:1041B0001092F9088091C90080688093C900089521
:1041C00080917A098F3F19F48EE00E94D12480916A
:1041D0007A09992787FD90950895CF93DF93EC0195
:1041E00007C06091760A7091770A99270E94463835
:1041F000FE01219684918823A1F7DF91CF91089544
:104200001F920F920FB60F9211242F933F934F934B
:104210005F936F937F938F939F93AF93BF93EF932E
:10422000FF938091C9008F778093C9008091C80067
:1042300087FFFCCF8091C8008F778093C800909152
:10424000CE008091F908E82FFF27E650F74F9083C2
:104250008F5F8093F908803811F41092F9088091EB
:104260007A090E9466278091C8008F778093C800E2
:104270008091C90080688093C900FF91EF91BF9140
:10428000AF919F918F917F916F915F914F913F91EE
:104290002F910F900FBE0F901F90189500000000F7
:1042A000000000000197D1F70895FC01A7E0B0E0FD
:1042B0000E940C3B802D808381E090E00895FC01FA
:1042C0008081A7E0B0E0082E0E94143B81E090E0DE
:1042D0000895DC010E940C3B802D99270895FC0174
:1042E000A0E0B0E00E940C3B402D4383A1E0B0E091
:1042F0000E940C3B802D8283A2E0B0E00E940C3B28
:10430000302D3183A3E0B0E00E940C3B902D9083D0
:10431000A4E0B0E00E940C3B202D830F840F890F96
:10432000281719F481E090E008958FEF9FEF08952A
:10433000FC01A5E0B0E00E940C3B802D808381E071
:1043400090E00895FC01A6E0B0E00E940C3B802DB7
:10435000808381E090E00895AC0120E030E0D90155
:1043600018960E940C3B802DFA01E20FF31F808308
:104370002F5F3F4F2031310591F781E090E00895A4
:10438000DC01062E0E94143B0895FC018081A6E00A
:10439000B0E0082E0E94143B81E090E00895AC014B
:1043A00020E030E0D9011896FA01E20FF31F808176
:1043B000082E0E94143B2F5F3F4F2031310591F7AB
:1043C00081E090E00895F89408957894089585E642
:1043D00090E008950E942C2F0895EF92FF920F9382
:1043E0001F93CF93DF93EC018B017A018985823093
:1043F00021F08091340A888301C018828091340AA8
:10440000853020F060E087E00E94CA2489858230F0
:1044100029F08091340A8F5F8093340A8091340AA6
:10442000882319F481E08093340A8881992787FDD5
:104430009095FC0145E0EE0FFF1F4A95E1F7E80F6C
:10444000F91FE258F64F118300838881992787FD71
:104450009095FC0135E0EE0FFF1F3A95E1F7E80F6C
:10446000F91FE258F64F888582878881992787FD52
:104470009095FC0125E0EE0FFF1F2A95E1F7E80F6C
:10448000F91FE258F64F83E081872881822F992710
:1044900087FD9095FC0105E0EE0FFF1F0A95E1F7FF
:1044A000E80FF91FE258F64F20878881992787FD8A
:1044B0009095FC0115E0EE0FFF1F1A95E1F7E80F4C
:1044C000F91FE258F64F15820881112707FD109554
:1044D0002B853C854D855E856F85788989899A898C
:1044E0000E94512DF801B5E0EE0FFF1FBA95E1F7DC
:1044F000E00FF11FE258F64F948F838F0881112748
:1045000007FD10952B8D3C8D4D8D5E8D6F8D78A1A7
:1045100089A19AA10E94512DF801A5E0EE0FFF1F7D
:10452000AA95E1F7E00FF11FE258F64F968B858BC5
:104530008881992787FD9095FC0175E0EE0FFF1F9C
:104540007A95E1F7E80FF91FE258F64F85899689C9
:10455000238D348D820F931F908F878B08811127B5
:1045600007FD10952B893C894D895E896F89788D6F
:10457000898D9A8D0E94512DF80165E0EE0FFF1F85
:104580006A95E1F7E00FF11FE258F64F968F858F9D
:104590008881992787FD9095FC0155E0EE0FFF1F5C
:1045A0005A95E1F7E80FF91FE258F64F858D968D81
:1045B000928F818F8881992787FD9095FC0145E036
:1045C000EE0FFF1F4A95E1F7E80FF91FE258F64F8B
:1045D00081E090E090A3878F8881992787FD90954F
:1045E000FC0135E0EE0FFF1F3A95E1F7E80FF91FE8
:1045F000E258F64FF382E2828881992787FD9095F1
:10460000FC0125E0EE0FFF1F2A95E1F7E80FF91FE7
:10461000E258F64F81E0848781E090E0DF91CF910E
:104620001F910F91FF90EF9008958F929F92AF92FC
:10463000BF92CF92DF92EF92FF920F931F93CF938F
:10464000DF9366E8A62E69E0B62ECC24DD24450172
:10465000EC2CF501F080FFEFFF1691F0E40100E093
:1046600010E0E01639F08881F81621F46F2D85E00E
:104670000E94CA240F5F1F4FA1960530110589F7CC
:104680000894C11CD11C81E290E0A80EB91E95E0EF
:10469000C916D104E9F60E94F328282F332727FDF5
:1046A0003095F90155E0EE0FFF1F5A95E1F7E20F43
:1046B000F31FE258F64F32853093470A21E2820217
:1046C000C00111248258964F9093460A8093450A60
:1046D0009093370A8093360A3093380A0E942B361B
:1046E0000E9411360E944F36FFCF0F931F93CF9336
:1046F000DF93CDB7DEB7A3970FB6F894DEBF0FBE3A
:10470000CDBF0E94D1258093350A8F3F21F460E010
:104710008EE00E94CA240E948235882321F460E042
:1047200086E00E94CA241092380A1092460A10921B
:10473000450A1092370A1092360A1092470A1092D0
:10474000440AE5E2FAE08FEF808382838183339627
:104750002AE0E433F207B9F7EEE7F9E083E682876F
:104760008FEF8087B1968AE0E332F807B9F7E8E483
:10477000FAE0CF01059694838383F783E683FC01F7
:104780002AE081369207A9F710924A0A1092490A44
:104790001092650A1092640A10923B0A10923A0A2B
:1047A000499790937D0980937C0962E17FE28E01B5
:1047B0000F5F1F4FC8010E94CF3540E850E068ED01
:1047C00077E0C8010E94303685E58093D8071986C6
:1047D0001C8E1D8E1E8E1F8E18A219A21AA21BA23D
:1047E00091E0988782E08A879B87C8010E94DC2B32
:1047F000A3960FB6F894DEBF0FBECDBFDF91CF9169
:104800001F910F910895F894FFCFE091450AF09120
:10481000460A84870895E091450AF091460A848506
:1048200099270895DC01FB018091D107882319F4B1
:1048300080E090E008958083809116038C9381E05E
:1048400090E008951F938091D107882309F49EC0BA
:104850000E94E3210E94E3218CE394E00E94ED207A
:104860008091160399279F938F9384EA92E09F93F8
:104870008F930E94733888E394E00E94ED200F909C
:104880000F900F900F908091D107843110F010920B
:10489000D1078091D1079927AA27BB27FC0131971F
:1048A000E231F105F0F5EA59FF4FEE0FFF1F0590D9
:1048B000F491E02D099481E194E035C08DEF93E00F
:1048C00032C087EE93E02FC08CEC93E02CC086EBD7
:1048D00093E029C08EE993E026C08BE893E023C0E3
:1048E00088E793E020C08AE593E01DC085E393E06C
:1048F0001AC089E293E017C08EE093E014C08FEFF6
:1049000092E011C08EEE92E00EC08AED92E00BC0F4
:104910008AEB92E008C082EA92E005C087E892E064
:1049200002C080E892E00E94ED206091760A7091CA
:10493000770A8DE090E00E9446386091760A709187
:10494000770A8AE090E00E94463882E090E00E9478
:104950003F2083E090E00E94222010E088EE93E068
:104960000E943D321F5F1436C9F783E090E00E9439
:104970003F2082E090E00E94222010E088EE93E049
:104980000E943D321F5F1436C9F7DFCF80E090E010
:104990001F9108958093D107609316030E942224EB
:1049A00008958093D107E091450AF091460A8085E9
:1049B000809316030E9422240895992787FD9095DD
:1049C000FC0125E0EE0FFF1F2A95E1F7E80FF91F24
:1049D000E258F64FA281B3818C91853529F085E5A7
:1049E0008C938FEF9FEF0895808191818050924248
:1049F00018F481E090E0089582E10E94D1248FEFC5
:104A00009FEF08956F927F928F929F92AF92BF9285
:104A1000CF92DF92EF92FF920F931F93CF93DF938A
:104A200088E494E00E94ED20E091450AF091460A66
:104A30008085992787FD90959F938F9387EA92E0D1
:104A40009F938F930E947338E091450AF091460A34
:104A5000028113811F930F9380EB92E09F938F93BA
:104A60000E947338F801808199279F938F935DEBA3
:104A7000C52E52E0D52EDF92CF920E947338E0917E
:104A8000450AF091460A808191819F938F934AEC69
:104A9000E42E42E0F42EFF92EF920E947338809150
:104AA000450A9091460A9F938F9304ED12E01F935D
:104AB0000F930E947338CEE7D9E0AA24BB248DB7A8
:104AC0009EB744960FB6F8949EBF0FBE8DBF34EECE
:104AD000632E32E0732E4601670178010A811B8143
:104AE0001F930F93BF92AF927F926F920E94733881
:104AF000F801808199279F938F939F928F920E94B4
:104B00007338888199819F938F93DF92CF920E940F
:104B10007338DF93CF93FF92EF920E94733808941B
:104B2000A11CB11CA1968DB79EB742960FB6F89402
:104B30009EBF0FBE8DBF95E0A916B10479F6DF9137
:104B4000CF911F910F91FF90EF90DF90CF90BF908A
:104B5000AF909F908F907F906F900895CF93DF9349
:104B6000E091450AF091460AC281D381888185355A
:104B700039F00E94022581E00E94D12485E58883D6
:104B8000E091450AF091460A8081918180509242DD
:104B900028F00E94022582E10E94D124DF91CF916A
:104BA000089540913E0550913F05609140057091F8
:104BB000410520E030E0DB01CA01022E04C0B695B9
:104BC000A795979587950A94D2F781709070892B55
:104BD000E9F481E090E0A0E0B0E0022E04C0880F8C
:104BE000991FAA1FBB1F0A94D2F7842B952BA62BC3
:104BF000B72B80933E0590933F05A0934005B0935B
:104C00004105822F992787FD909508952F5F3F4F8B
:104C10002032310581F68FEF9FEF0895E091450A2C
:104C2000F091460A65857685878590890895EF928B
:104C3000FF920F931F9321E030E040E050E004C06A
:104C4000220F331F441F551F8A95D2F7E091450A62
:104C5000F091460AE584F68407851089DA01C901D6
:104C60008E219F21A023B1230097A105B10519F43E
:104C70008FEF9FEF1AC02095309540955095E22216
:104C8000F32204231523E586F6860787108B818996
:104C90009289A389B48982239323A423B523818B8A
:104CA000928BA38BB48B81E090E01F910F91FF90CA
:104CB000EF900895682F772767FD709580913E05E6
:104CC00090913F05A0914005B0914105062E04C08A
:104CD000B695A795979587950A94D2F781709070AD
:104CE000892B19F48FEF9FEF0895E091450AF09119
:104CF000460A21E030E040E050E004C0220F331FBC
:104D0000441F551F6A95D2F785859685A785B0897A
:104D1000822B932BA42BB52B85879687A787B08BE7
:104D200081E090E00895482F2091440A243018F043
:104D300080E090E00895E5E2FAE030E080818F3F86
:104D400021F03F5F33963530C9F7832F9927FC0157
:104D5000EE0FFF1FE80FF91FEB5DF54F4283408315
:104D600061832F5F2093440A83E0389FC0011124A0
:104D70008B5D954F089545E25AE020E030E04817FA
:104D8000590729F4822F992787FD909508952F5F61
:104D90003F4F4D5F5F4F2530310589F78FEF9FEF14
:104DA00008950E94BB268F3F11F481E003C0853037
:104DB00031F482E00E9405248FEF9FEF0895992738
:104DC00087FD9095FC01EE0FFF1FE80FF91FEB5DCB
:104DD000F54F8FEF8083828381838091440A8150D5
:104DE0008093440A81E090E008950E94BB268F3FA3
:104DF00011F481E003C0853031F482E00E94052483
:104E00008FEF9FEF0895992787FD9095FC01EE0F96
:104E1000FF1FE80FF91FEB5DF54F8281992787FD92
:104E2000909508951F93CF93DF930E94BB26182F70
:104E30008F3F11F481E003C0853031F482E00E949D
:104E400005248FEF9FEF3EC0992787FD9095EC01D9
:104E5000CC0FDD1FC80FD91FCB5DD54F9A8188813C
:104E6000981774F50E94E3218A818F5F8A83E0910D
:104E7000450AF091460A1482E5E8F9E0212F33272C
:104E800027FD3095432F532F8081823091F4828506
:104E90009385A485B58582179307A407B50749F4C0
:104EA00083E0828317861686108212861386148604
:104EB0001586B1968AE0EA32F80731F70E94E521BB
:104EC00081E090E0DF91CF911F910895DF92EF9202
:104ED000FF920F931F93F1E0EF2EF12C012D112D76
:104EE00004C0EE0CFF1C001F111F8A95D2F78091A1
:104EF0003E0590913F05A0914005B09141058E215E
:104F00009F21A023B1230097A105B10511F481E0F1
:104F100043C00E94E321E5E8F9E0DD24808181308F
:104F2000B9F482859385A485B5858E219F21A02320
:104F3000B1230097A105B10559F083E0828317865C
:104F400016861082E286F38604871587DD24D394C3
:104F500080818230A1F482859385A485B5858E15E4
:104F60009F05A007B10759F483E082831786168650
:104F700010821286138614861586DD24D394B1968A
:104F80008AE0EA32F80751F60E94E521DD2019F0A7
:104F900081E090E005C082E00E9405248FEF9FEF42
:104FA0001F910F91FF90EF90DF900895EF92FF9285
:104FB0000F931F93CF93DF93C82FDD27C7FDD095A5
:104FC000A1E0EA2EF12C012D112D0C2E04C0EE0CC7
:104FD000FF1C001F111F0A94D2F780913E0590918B
:104FE0003F05A0914005B09141058E219F21A0234E
:104FF000B1230097A105B10519F48FEF9FEF5DC0B4
:105000000E94E321EEE7F9E0A80197012095309591
:105010004095509580858F3F41F185859685A78580
:10502000B0898E159F05A007B10739F4118A128A3D
:10503000138A148A178283E0818785859685A785E0
:10504000B08982239323A423B52385879687A787D6
:10505000B08B81899289A389B48982239323A42365
:10506000B523818B928BA38BB48BB1968AE0E3320C
:10507000F80781F62EEF3FEF4FEF5FEF04C0220FEE
:10508000331F441F551FCA95D2F780913E0590915A
:105090003F05A0914005B091410582239323A423AD
:1050A000B52380933E0590933F05A0934005B093B0
:1050B00041050E94E52181E090E0DF91CF911F91B1
:1050C0000F91FF90EF9008951F93CF93DF930E946D
:1050D000BB26182F8F3F11F481E003C0853031F4D7
:1050E00082E00E9405248FEF9FEF3EC00E94E321E3
:1050F000812F992787FD9095EC01CC0FDD1FC80FFC
:10510000D91FCB5DD54F8A818823D9F4E091450A18
:10511000F091460A878182608783E091450AF09189
:10512000460A812F992787FD9095A92FB92F818B4A
:10513000928BA38BB48B0E94E52180E090E00E94CB
:10514000092B8A8181508A83E091450AF091460AB1
:1051500089818387E091450AF091460A81E0848342
:105160000E94E52181E090E0DF91CF911F910895A9
:105170009B01AC01E091450AF091460A8585968530
:10518000A785B08982239323A423B5230097A10583
:10519000B10529F460E070E080E090E00895218B93
:1051A000328B438B548B81E087830090350A04C097
:1051B00056954795379527950A94D2F7C90181707E
:1051C0009070892B19F00E94A42A04C080E090E01E
:1051D0000E94092BE091450AF091460A6189728983
:1051E000838994890895E0913A0AF0913B0A80817D
:1051F00099270895E0913A0AF0913B0A03C0038091
:10520000F481E02D3097D9F70895CF93DF93482F9D
:10521000C0917C09D0917D09209709F47AC0A091B2
:105220003A0AB0913B0A1097B9F1992787FD9095FA
:105230009C0165E0220F331F6A95E1F7280F391FA3
:105240002258364F8C919927BC0155E0660F771F85
:105250005A95E1F7680F791F6258764FFB018481F8
:10526000882329F09385F90182859817A8F0F90120
:105270008481882331F0FB019285F9018385981799
:1052800058F0FB019285F9018285981728F0FD01FD
:10529000A381B4811097B1F64883E0917C09F09125
:1052A0007D092381348130937D0920937C0980918D
:1052B0003A0A90913B0AA817B907A1F4109731F068
:1052C000BC83AB831A821982FD0105C01C821B823C
:1052D0001A821982F901D283C183D0933B0AC09309
:1052E0003A0A17C0FD0181819281A217B30751F0DC
:1052F0009A838983BC83AB8381819281FC01D483AF
:10530000C38304C01C821B829A838983FD01D283DC
:10531000C183DF91CF910895CF93DF93A0913A0A93
:10532000B0913B0A109709F446C0482F552747FD16
:1053300050958C9199278417950769F4ED01EB81BD
:10534000FC81F0933B0AE0933A0A1282118216C064
:10535000D901232B81F18C919927FD01238134817F
:1053600084179507A9F7C181D2813C832B83838160
:105370009481009719F0FC01D283C183E0917C09EC
:10538000F0917D09309741F4B0937D09A0937C0999
:10539000ED011C821B8209C0ED01FC83EB83B2830B
:1053A000A183B0937D09A0937C09E0917C09F091E1
:1053B0007D0912821182DF91CF910895E091450A13
:1053C000F091460A8085992708950E94C435E0919E
:1053D000450AF091460A85818823B9F70895FF921E
:1053E0000F931F93CF93DF93CDB7DEB728970FB6F8
:1053F000F894DEBF0FBECDBF29833A834B835C8315
:105400006D837E838F8398870E94AE250E94E3215F
:10541000E091450AF091460A81E0858381E090E0C1
:1054200090A3878F0E940333F82E29813A814B8104
:105430005C816D817E818F8198850E94512DE091E4
:10544000450AF091460A0F2D1127800F911F968B68
:10545000858B87EF8F1570F00E948F320E5F1F4F84
:1054600099278017910734F08F2D8E5F8093D8088D
:105470000E9494320E94E5210E94E52981E090E09B
:1054800028960FB6F894DEBF0FBECDBFDF91CF9147
:105490001F910F91FF9008958F929F92AF92BF92AC
:1054A000CF92DF92EF92FF920F931F93CF93DF93F0
:1054B000CDB7DEB760970FB6F894DEBF0FBECDBF95
:1054C00029873A874B875C876D877E878F87988B84
:1054D000CE0101960E94B72E89809A80AB80BC8055
:1054E000CD80DE80EF80F88409851A852B853C8588
:1054F0004D855E856F857889CE0109960E94322C94
:10550000882319F48FEF9FEF0CC029853A854B85CE
:105510005C856D857E858F8598890E94EF2981E065
:1055200090E060960FB6F894DEBF0FBECDBFDF915E
:10553000CF911F910F91FF90EF90DF90CF90BF9090
:10554000AF909F908F9008951F930E94E321E09168
:10555000450AF091460A81E0858386830E940333E1
:10556000182F883F80F40E948F32212F33272E5F1F
:105570003F4F99278217930734F0812F8E5F8093D6
:10558000D8080E9494320E94E5210E94E52981E01A
:1055900090E01F9108951F93CF93DF93CDB7DEB7AF
:1055A00028970FB6F894DEBF0FBECDBF29833A838C
:1055B0004B835C836D837E838F8398870E94E32176
:1055C0000E940333182F29813A814B815C816D81C0
:1055D0007E818F8198850E94512D8330910518F42A
:1055E0008FEF9FEF0CC0E091450AF091460A810FC2
:1055F000911D968B858B0E94E52181E090E0289695
:105600000FB6F894DEBF0FBECDBFDF91CF911F91D3
:1056100008950F931F938C010E94E321E091450AA6
:10562000F091460A81E08583168B058B0E94033337
:10563000082F883F80F40E948F32202F33272E5F5F
:105640003F4F99278217930734F0802F8E5F809306
:10565000D8080E9494320E94E5210E94E52981E049
:1056600090E01F910F910895FF920F931F93CF9396
:10567000DF938C010E94E321E091450AF091460AF4
:1056800081E085830E940333F82EE091450AF09172
:10569000460AC82FDD270C0F1D1F168B058B87EFC1
:1056A0008F1568F00E948F32229699278C179D07DC
:1056B00034F08F2D8E5F8093D8080E9494320E9420
:1056C000E5210E94E52981E090E0DF91CF911F91D3
:1056D0000F91FF9008951F93CF93DF93EC010E94E9
:1056E000AE25209711F4C1E0D0E00E94E321E091C3
:1056F000450AF091460A81E08583D0A3C78F0E94B6
:105700000333182F883F80F40E948F32212F3327D4
:105710002E5F3F4F99278217930734F0812F8E5FBA
:105720008093D8080E9494320E94E5210E94E529C6
:1057300081E090E0DF91CF911F9108951F930E9427
:10574000AE250E94E321E091450AF091460A81E0EE
:1057500090E090A3878F81E085830E940333182F08
:10576000883F80F40E948F32212F33272E5F3F4FD6
:1057700099278217930734F0812F8E5F8093D80882
:105780000E9494320E94E5210E94E52981E090E088
:105790001F910895E091450AF091460A80850E9484
:1057A0008C29E091450AF091460A84E081870E94A5
:1057B0009E2B81E090E00895EF92FF920F931F934C
:1057C000CF93DF93EC014B815C8169817A818D817C
:1057D0009E810E94D335BC018F81882369F04B8163
:1057E0005C81EE24FF2400E010E020E030E0CE01F8
:1057F0000E94ED211F8216C08881992787FD909510
:10580000FC01A5E0EE0FFF1FAA95E1F7E80FF91FD5
:10581000E258F64F8185833019F08FEF9FEF1BC060
:10582000718360838881992787FD9095FC0175E0DD
:10583000EE0FFF1F7A95E1F7E80FF91FE258F64FD8
:1058400085899689892B29F482E0818788810E9445
:10585000052981E090E0DF91CF911F910F91FF909A
:10586000EF9008958F929F92AF92BF92CF92DF9266
:10587000EF92FF920F931F93CF93DF93CDB7DEB7D5
:1058800060970FB6F894DEBF0FBECDBFFC01098351
:105890001A832B833C834D835E836F83788789864D
:1058A0009A86AB86BC86CD86DE86EF86F88A2D8109
:1058B0003E814F81588589819A81AB81BC81AD84BD
:1058C000BE84CF84D888E984FA840B851C858E1524
:1058D0009F05A007B10708F43FC0E816F9060A07BC
:1058E0001B0791F42A153B054C055D05A8F12A1903
:1058F0003B094C095D092483358346835783108215
:105900001182128213821CC02A153B054C055D05CD
:10591000D0F40197A109B1098E199F09A00BB10B11
:1059200080839183A283B383205036434546544CF1
:105930002A193B094C095D09248335834683578323
:1059400081E090E00BC08E199F09A00BB10B808302
:105950009183A283B383ECCF80E090E060960FB692
:10596000F894DEBF0FBECDBFDF91CF911F910F9195
:10597000FF90EF90DF90CF90BF90AF909F908F906F
:105980000895FC0113C080509A4CAA49BB438483FC
:105990009583A683B78380819181A281B38101968B
:1059A000A11DB11D80839183A283B38384819581DE
:1059B000A681B78180302AEC92072AE9A2072BE35F
:1059C000B20708F708958F929F92AF92BF92CF923D
:1059D000DF92EF92FF920F931F93CF93DF93CDB798
:1059E000DEB760970FB6F894DEBF0FBECDBFFC01E7
:1059F00009831A832B833C834D835E836F8378876F
:105A000089869A86AB86BC86CD86DE86EF86F88A46
:105A1000AD80BE80CF80D884ED84FE840F85188948
:105A200089859A85AB85BC8529813A814B815C81CA
:105A3000820F931FA41FB51F80839183A283B3831A
:105A4000EA0CFB1C0C1D1D1DE482F58206831783E6
:105A5000CF010E94C12C81E090E060960FB6F894CF
:105A6000DEBF0FBECDBFDF91CF911F910F91FF9091
:105A7000EF90DF90CF90BF90AF909F908F90089560
:105A800060933C0A70933D0A80933E0A90933F0ACC
:105A90002093400A3093410A4093420A5093430AAC
:105AA00008958F929F92AF92BF92CF92DF92EF9222
:105AB000FF920F931F93CF93DF93CDB7DEB7289755
:105AC0000FB6F894DEBF0FBECDBF29833A834B8358
:105AD0005C836D837E838F8398878D809E80AF806B
