:100000000C9437020C94ED360C9456020C94560264
:100010000C9456020C9456020C9456020C94560200
:100020000C9456020C941B370C9456020C945602F6
:100030000C9456020C94CE340C9456020C94CE348C
:100040000C9456020C9401350C9456020C945602F2
:100050000C9456020C9456020C9456020C945602C0
:100060000C9456020C9456020C9456020C945602B0
:100070000C9456020C9456020C9456020C945602A0
:100080000C940B350C9456020C9456020C945602A8
:100090000C94C7220C9456020C9456020C945602EF
:1000A0000C9456020C9456020C9456020C94560270
:1000B0000C9456020C9456020C9456020C94560260
:1000C0000C9456020C9456020C94560225262B26AC
:1000D0002E263126342637263D263A26402643262C
:1000E00046264C264F2652265526492622262826C5
:1000F00043726561746520446F6E650D0A00455258
:10010000524F523A206372656174696E6720706164
:10011000636B6574207265636F7264207369676EC8
:10012000616C206661696C65640D0A0053746172CC
:1001300074696E672075702E2E2E0D0A00534C497F
:1001400050205258206572726F723A206E726B5F47
:100150007369676E616C5F72656769737465720D50
:100160000A00534C4950205258206572726F723AFF
:1001700020476574205369676E616C0D0A00534C0B
:100180004950205458204552524F523A202052652F
:100190006C65617365206F662073656D6170686F53
:1001A0007265206661696C65640D0A00534C4950A4
:1001B000205458204552524F523A202041636365E3
:1001C000737320746F2073656D6170686F72652042
:1001D0006661696C65640D0A0049534120455252BD
:1001E0004F523A206372656174696E67207478209B
:1001F0007369676E616C206661696C65640D0A00E5
:10020000495341204552524F523A206372656174FE
:10021000696E67207278207369676E616C20666111
:10022000696C65640D0A0043433234323020455214
:10023000524F523A202052656C65617365206F669B
:100240002073656D6170686F7265206661696C65A9
:10025000640D0A00434332343230204552524F522B
:100260003A202041636365737320746F2073656D5A
:100270006170686F7265206661696C65640D0A0063
:10028000554E4B4F574E004661696C656420746F44
:10029000206372656174652053656D6170686F726B
:1002A00065004661696C656420746F2063726561E6
:1002B0007465205369676E616C004B65726E656C86
:1002C0002066756E6374696F6E206E6F7420696D41
:1002D000706C656D656E7465640044657669636510
:1002E00020447269766572204572726F72005761A0
:1002F000746368646F67205265737461727400542C
:10030000696D6572204F766572666C6F7700556E09
:1003100068616E646C656420496E74657272757094
:100320007420566563746F72004C6F7720566F6C43
:1003300074616765004578747261205461736B2045
:10034000737461727465642C206973206E726B5FC4
:100350006366672E68206F6B3F0049646C65206F91
:1003600072204B65726E656C20537461636B204F15
:10037000766572666C6F7700556E6578706563742C
:1003800065642052657374617274004475706C69A1
:100390006361746564205461736B20494400536346
:1003A000686564756C6572204D6973736564205768
:1003B000616B657570005461736B20526573657273
:1003C00076652056696F6C6174656400526573656B
:1003D000727665204572726F7220696E2053636871
:1003E0006564756C657200496E76616C6964205352
:1003F0007461636B20506F696E7465720054617331
:100400006B20537461636B204F766572666C6F77F7
:1004100000537461636B20776173206E6F74206486
:100420006566696E6564206173206C617267652022
:10043000656E6F7567682100293A20002A4E524B7D
:10044000204552524F5228000D0A535441434B202D
:1004500044554D500D0A0045464765666700202B00
:100460002D2E303132333435363738396800112487
:100470001FBECFEFD1E2DEBFCDBF14E0A0E0B2E0FF
:10048000EEECFAE700E00BBF02C007900D92A0353A
:10049000B107D9F713E1A0E5B4E001C01D92AA307D
:1004A000B107E1F70E94A8040C94663D0C9439351D
:1004B00080915306992787FD909508951F93CF93B8
:1004C000DF93EC018C818E3609F07CC0E985E05326
:1004D000E0932408FF279B85DF01A458BB4F9C9322
:1004E000E25BF64F8081192F181B143148F180E030
:1004F00092E00E94DC3A0E94A20AE0912408FF27C1
:100500009F938F93FF93EF93812F99279F938F93BF
:10051000E25BF64F808199279F938F938B85992774
:100520009F938F938BE092E09F938F930E94C53AA5
:100530008DB79EB70C960FB6F8949EBF0FBE8DBFB9
:1005400090912408492F55278B85FA01E25BF64FDD
:100550008083DA01A05BBA4F2C91210F2C93382FA6
:100560003770283050F0FA01E656F94F2695269557
:1005700026958081280F20833C93FA01E656F94F97
:1005800080818031A8F4FA0194E0EE0FFF1F9A9564
:10059000E1F7E80FF11DEC5AF94F81E090E002C05D
:1005A000880F991F3A95E2F72081282B20830AC0F3
:1005B000108281E0809353069093610480914C05F2
:1005C0000E942D29DF91CF911F910895EF92FF9204
:1005D0001F9382EA93E09093AF048093AE0483E28A
:1005E00098E09093AB048093AA0484E297E0909300
:1005F000AD048093AC0482E08093B10411E01093C9
:10060000B0041093B2041093B3048AE090E0A0E029
:10061000B0E08093B4049093B504A093B604B09373
:10062000B7041092B8041092B9041092BA04109250
:10063000BB041092BC041092BD041092BE04109230
:10064000BF0480E095E6ADECBDE18093C0049093DB
:10065000C104A093C204B093C3041092C4041092C6
:10066000C5041092C6041092C70480E097E8A3E97D
:10067000B3E08093C8049093C904A093CA04B093D4
:10068000CB0489EA94E00E94A32D86EF94E0909336
:100690003109809330092BE2E22E29E0F22E40E06E
:1006A00051E063E575E0C7010E94F73783E080936E
:1006B000330910923209109334091093350984E1FB
:1006C00090E0A0E0B0E08093360990933709A093C2
:1006D0003809B093390910923A0910923B091092E7
:1006E0003C0910923D0910923E0910923F09109268
:1006F0004009109241091092420910924309109248
:100700004409109245091092460910924709109227
:1007100048091092490980E091EEA5EFB5E0809379
:100720004A0990934B09A0934C09B0934D09C70116
:100730000E94A32D80EF90E00E94B4221F91FF90B1
:10074000EF9008954F925F926F927F928F929F9257
:10075000AF92BF92CF92DF92EF92FF920F931F93CF
:10076000CF93DF93CDB7DEB722970FB6F894DEBFF5
:100770000FBECDBF0E94A52B99279F938F938CE12D
:1007800092E09F938F930E94C53A8BE292E09F93F1
:100790008F930E94C53A83E090E00E94062281E098
:1007A00090E00E94062281E090E00E94A60A41E0CB
:1007B00061E082E00E94A01083E10E94BA0F0E94D3
:1007C000CC0620E048E063E070E083E00E94F50999
:1007D00020E041E064E070E082E00E94F5090E94C0
:1007E000000B64E78FEA96E00E94F00A8DB79EB78F
:1007F00006960FB6F8949EBF0FBE8DBF02C00E9432
:10080000652D0E94E60A8823D1F383E392E09F934B
:100810008F930E94C53A0E94982780934C050F90B1
:100820000F908F3F09F453C0E090E403FF2462E08F
:10083000462E512C4C0E5D1E3E010894611C711C0D
:100840000CE218E050E4852E52E0952E4AE8A42EE2
:1008500044E0B42E3CEFC32E3FEFD32EC00ED11E8A
:100860008E2D0E94501E0E94500B882331F0B20141
:10087000C3010E9452110E945E02FF2029F51F92BF
:100880001F9281E090E09F938F939F928F921F938E
:100890000F930E940F3BF80101900020E9F7ED5201
:1008A000F840EB5FE9839501A6016E2F84E090E0AC
:1008B0000E94D409FF24F3948DB79EB708960FB613
:1008C000F8949EBF0FBE8DBF0E94912DC9CF8EEFB1
:1008D00090E00E94B422E091D112F091D212608592
:1008E0008EE00E94912622960FB6F894DEBF0FBECE
:1008F000CDBFDF91CF911F910F91FF90EF90DF90CF
:10090000CF90BF90AF909F908F907F906F905F90AF
:100910004F9008950F931F930E945D080CE218E01A
:100920006BE472E0C8010E94003AF80101900020D7
:10093000E9F7E01BEC5F2AE834E004501040A8011E
:100940006E2F84E090E00E94D4091F910F910895CA
:10095000CFEFD1E2DEBFCDBF0E94491E87E090E01D
:100960000E947E228CE291E00E94B4220E943C25EB
:1009700080E090E00E94E92181E090E00E94E9217E
:1009800082E090E00E94E92183E090E00E94E9216A
:1009900020E030E040E050E060E070E080E090E097
:1009A0000E94072F0E94690B0E94E6020E94DC242D
:1009B00080E090E00C94663D80914C050E942128D7
:1009C00080915306882379F461E070E080E090E044
:1009D00000904C0504C0660F771F881F991F0A946A
:1009E000D2F70E947F2A81E090E00895AF92BF92F3
:1009F000CF92DF92FF920F931F93CF93DF9360917B
:100A000002137091031320E040E080910013909155
:100A100001130E947F060E94DC04F090D90305E8D0
:100A200016E0E80121975E01B0E5CB2EB2E0DB2EA7
:100A30008F2D0E94501E809161048F5F80938406E9
:100A40008150E82FFF27A4E0EE0FFF1FAA95E1F7E2
:100A5000EC5AF94FD80181919AEA89278D9386E063
:100A6000A539B807C1F7F50101900020E9F73197E2
:100A7000E458F6406E2FCE010E942C0610925306C9
:100A800080916104282F3327F90174E0EE0FFF1FD6
:100A90007A95E1F7EC5AF94F80E011928F5F80313F
:100AA000E1F780914D0590914E059F938F933F9371
:100AB0002F93DF92CF920E94C53A8F2D0E94D51EB0
:100AC0000E94DC048DB79EB706960FB6F8949EBFC1
:100AD0000FBE8DBFADCF80915B02992787FD9095AA
:100AE000089580915709909158090E94553A992785
:100AF00008958F929F92AF92BF92CF92DF92EF9222
:100B0000FF920F931F93CF93DF93EC01862E0E94E9
:100B1000A722D82E8FEFD81621F482E691E00E940A
:100B2000B4228D2D0E9421288F3F71F48DE391E036
:100B30000E94B42209C080910013909101130E9479
:100B4000553A813C91F00CC081E0E82EF12C012D4A
:100B5000112D04C0EE0CFF1C001F111FDA94D2F7F8
:100B600081E00E94171E882331F757016801C801F0
:100B7000B7010E947F2A80910013909101130E9477
:100B8000553A982E81EC981659F70E947105F82E67
:100B900010E000E02BC080910013909101130E949F
:100BA000553A803C19F08B3D59F015C0112341F1A5
:100BB0000F77901629F5812F992787FD909522C0F0
:100BC00081E00E94171E882321F4C601B5010E940E
:100BD0007F2A0E947105982E181540F41F1530F4D5
:100BE000FE01E10FF11D80831F5F080F81E00E946D
:100BF000171E882381F6C601B5010E947F2AF6CF11
:100C00008FEF9FEFDF91CF911F910F91FF90EF90AA
:100C1000DF90CF90BF90AF909F908F9008951F93DB
:100C2000182F20915109222369F0332788EE93E091
:100C3000AC01249FC001259F900D349F900D11247D
:100C40000E9404346091520970915309812F9927B1
:100C50000E94983A1F910895FF920F931F93CF938C
:100C6000DF93EC01162F613810F083E03EC08091D5
:100C70005409909155090E942B2A8F3F31F48CEA38
:100C800091E00E94B42281E030C081EC0E940F0606
:100C9000812F0E940F06FF2400E00EC08881803C57
:100CA00011F08B3D19F48BED0E940F0688810E9494
:100CB0000F068991080FF394F11681F7802F8F7733
:100CC0000E940F0680EC0E940F06809154099091BB
:100CD00055090E94D9288F3F19F081E090E009C0A2
:100CE0008EE791E00E94B42282E00E94CC258FEF33
:100CF0009FEFDF91CF911F910F91FF9008959093F7
:100D0000580980935709709353096093520940938F
:100D10005609209351096FEF81E00E945A28909361
:100D20005509809354098F5F9F4F31F40E94A52B82
:100D3000682F8FE00E94912681E080935B0281E022
:100D400090E008958093500408958091500499276D
:100D5000089580915004823069F0833018F4813016
:100D600091F405C0833049F0843069F409C08CE502
:100D700092E00BC08FE792E008C085EA92E005C0E0
:100D800081ED92E002C081EF92E09F938F930E94E9
:100D9000C53A0F900F900895EBE5F9E01082729636
:100DA0008AE0EF30F807D1F7E8E1FAE010827196B7
:100DB0008BE0E13CF807D1F71092F9100895CF933A
:100DC000DF939C01ABE5B9E08C91882371F0ED01D4
:100DD0008C81813051F4E885F98581819281821777
:100DE000930719F481E090E007C05296EAE0AF3033
:100DF000BE0751F780E090E0DF91CF9108952F92E8
:100E00003F924F925F926F927F928F929F92AF929A
:100E1000BF92CF92DF92EF92FF920F931F93CF93E7
:100E2000DF93CDB7DEB72E970FB6F894DEBF0FBEB7
:100E3000CDBF69E170E00E94D23C8983282F33271F
:100E40003C872B8789010F5F1F4F21E030E040E096
:100E500050E060E070E080E090E00E947139222E66
:100E6000332E442E552E662E772E882E992E3981BC
:100E70003F5F3A8380910F0A8B839091100A9C8385
:100E8000E091110AED83F091120AFE832091130A7A
:100E90002F833091140A38878091150A89879091A1
:100EA000160A9A8737C02B8122213C8133214D813C
:100EB00044215E8155216F8166217885772189855E
:100EC00088219A859921E22FE32BE42BE52BE62B51
:100ED000E72BE82BE92B41F0EA818E2F99272B8510
:100EE0003C85821B930B64C001E0222D332D442DE1
:100EF000552D662D772D882D992D0E947139222E22
:100F0000332E442E552E662E772E882E992E3A811A
:100F10003F5F3A838A81893130F22224239433243B
:100F20004424552466247724882499241E861D860B
:100F3000AD852B8122213C8133214D8144215E816D
:100F400055216F81662178857721898588219A8549
:100F50009921E22FE32BE42BE52BE62BE72BE82B63
:100F6000E92B49F089E190E0EB85FC858E1B9F0B16
:100F70008A0F911D1DC02D853E852F5F3F4F3E87F7
:100F80002D8739813217A0F001E0222D332D442D19
:100F9000552D662D772D882D992D0E947139222E81
:100FA000332E442E552E662E772E882E992EC0CFA6
:100FB0002E960FB6F894DEBF0FBECDBFDF91CF9156
:100FC0001F910F91FF90EF90DF90CF90BF90AF9067
:100FD0009F908F907F906F905F904F903F902F9059
:100FE0000895AF92BF92CF92DF92EF92FF920F934C
:100FF0001F93CF93DF935C01E6E3FCE081ECC82E06
:101000008BE0D82E70E060E081818823D9F1808167
:101010008823C1F1858196818A159B0599F5662300
:1010200051F47481E601E384F484058516852781F3
:1010300030854185528564817617C8F0761709F5A9
:1010400087819085A185B28582179307A407B5078C
:1010500070F0281739074A075B0799F48385948550
:10106000A585B6858E159F05A007B10750F4E6014A
:10107000E384F48405851685278130854185528572
:10108000762F61E084E890E0C80ED91EEC57FF4F40
:1010900091E1EE35F90709F0B7CF662311F4C0E00E
:1010A000D0E0CE01DF91CF911F910F91FF90EF9093
:1010B000DF90CF90BF90AF900895FC01EA58FF4FAA
:1010C00010828091F91081508093F9100895282F93
:1010D000EBE5F9E090E08081882351F09F5F729604
:1010E0009A30C9F781E00E94A2068FEF9FEF089522
:1010F000892F9927880F991FFC0133E0EE0FFF1FFE
:101100003A95E1F7E80FF91FE55AF64F81E0808341
:10111000718760874483208B80E090E008950F936F
:101120001F93CF93DF93EC01D8018091F9108B309E
:1011300010F083E003C0443730F084E00E94A20640
:101140008FEF9FEF4CC0E7E3FCE000E010E0808110
:10115000882369F584E890E0F801E89F8001E99F21
:10116000100DF89F100D1124F801EF53F44F408338
:10117000E758FF4F6083349781E0819380833496F2
:10118000D183C0833397B183A0835527B901C801A8
:101190008E53944F0E94F739C801835C934F0E948D
:1011A0007E308091F9108F5F8093F9100BC0802FF3
:1011B0008F5F0F5F1F4FEC57FF4F0A30110539F655
:1011C0008A3019F081E090E00AC083E093E09F93B9
:1011D0008F930E94C53A8FEF9FEF0F900F90DF9192
:1011E000CF911F910F9108958F929F92AF920F937D
:1011F0001F93CF93DF93CDB7DEB7CB01642F4A2D7A
:10120000F40183830A851B8594010E948F08992726
:1012100087FD9095DF91CF911F910F91AF909F9097
:101220008F9008956F927F928F92AF92CF92EF92AC
:101230000F931F93CF93DF93CDB7DEB728970FB6E9
:10124000F894DEBF0FBECDBF3C0109831A832B8308
:101250003C834D835E836F837887E8E1FAE010E09A
:1012600040E020E030E0818192816816790699F4AF
:101270007F926F9285E193E09F938F930E94C53A8E
:1012800081E1189FC0011124885E954F0F900F9047
:101290000F900F904CC08081882311F4122F41E0F1
:1012A0002F5F3F4F719629313105E9F6442331F420
:1012B00082E00E94A20680E090E039C0812F992749
:1012C000DC0164E0AA0FBB1F6A95E1F7A80FB91F04
:1012D000A85EB54FFD017282618281E08C939D0111
:1012E0002D5F3F4F898183838A81F90181838B81BF
:1012F00082838C8183838D8184838E8185838F819A
:10130000868388858783FD01E386C486AA2019F039
:10131000858580688587FD0186868D8987878E898A
:10132000808B81E1189FC0011124885E954F28961B
:101330000FB6F894DEBF0FBECDBFDF91CF911F91E6
:101340000F91EF90CF90AF908F907F906F90089516
:10135000482FEBE5F9E020E030E08081882351F070
:101360008089841739F482E1289FC0011124855AAD
:10137000964F08952F5F3F4F72962A30310569F7D7
:10138000842F99279F938F9385E393E09F938F9367
:101390000E94C53A80E090E00F900F900F900F9060
:1013A00008950E94560B08958F929F92AF92CF920C
:1013B000EF920F933F932F934A01A62ECC24EE2455
:1013C00000E020E040E0BC0180E090E00E94F408F2
:1013D0000F900F908F3F11F40E94A9060F91EF908C
:1013E000CF90AF909F908F9008956F927F928F9241
:1013F0009F92AF92BF92CF92DF92EF92FF920F93A4
:101400001F93982ECB01742EA22E2EE3291548F49B
:101410008BE593E09F938F930E94C53A0F900F90B6
:1014200064C028E04217A1F01F921F928824CC24A8
:10143000EE2400E010E020E030E040E050E060E02A
:1014400070E00E941209BC010F900F90892B31F0BF
:10145000472D892D0E9467088F3F19F40E94A90625
:1014600044C0092D112721E030E040E050E060E069
:1014700070E080E090E00E947139A22EB32EC42E5D
:10148000D52EE62EF72E082F192FE0910F0AF09196
:10149000100AA091110AB091120A9090130A80903C
:1014A000140A7090150A6090160A2E2F2A293F2FD1
:1014B0003B294A2F4C295B2F5D29692D6E29782DF8
:1014C0007F29872D802B962D912B20930F0A309307
:1014D000100A4093110A5093120A6093130A7093F2
:1014E000140A8093150A9093160A1F910F91FF908A
:1014F000EF90DF90CF90BF90AF909F908F907F90B4
:101500006F90089521E030E040E050E004C0220FE9
:10151000331F441F551F8A95D2F780915C04909128
:101520005D04A0915E04B0915F04822B932BA42BE9
:10153000B52B80935C0490935D04A0935E04B093FC
:101540005F0408958091750499270895813019F0FA
:101550008330D9F531C083E1809355118CE08093BD
:10156000561184E18093571188E18093581180E1EE
:101570008093591187E180935A1182E180935B1126
:1015800089E180935C118EE080935D1185E1809309
:101590005E118BE080935F118FE08093601186E194
:1015A0008093611181E1809362118DE080936311DA
:1015B0008AE18093641108958FE08093511184E152
:1015C0008093521189E180935311089580912708E7
:1015D000813019F481E090E008958FEF9FEF089536
:1015E000662359F0009749F090936804809367044C
:1015F0006093660481E090E008958FEF9FEF089577
:1016000082E0809327080895CF93DF93EC01E8856B
:10161000F985858587FF02C085EE01C081EE992797
:1016200087FD9095DF91CF910895882311F083E88D
:1016300001C083E0992787FD909508958F92AF921E
:10164000CF92EF920F93CF93DF93CDB7DEB7109287
:1016500034119AE090933B1110923C1180933D110C
:1016600060933E1140933F11109240112093471117
:1016700000934811E0924911C0924A11A0924B1177
:1016800080924C118A8580934D118B8580934E11E9
:10169000DF91CF910F91EF90CF90AF908F90089501
:1016A0008091A508992787FD909508951092A50827
:1016B0001092A6081092A7081092A8080895809189
:1016C0009506813019F481E090E008958FEF9FEF47
:1016D00008950F931F938FEB9FE090938C0480935A
:1016E0008B0406E814E040E850E06CEC74E0C801BC
:1016F0000E94F73784E180938E0481E080938D040B
:1017000080938F048093900410929104109292041D
:10171000109293041092940480E896E9A8E9B0E04E
:101720008093950490939604A0939704B0939804A3
:101730001092990410929A0410929B0410929C04A7
:1017400010929D0410929E0410929F041092A00487
:101750001092A1041092A2041092A3041092A40467
:101760001092A5041092A6041092A7041092A80447
:10177000C8010E94A32D1F910F910895EF92FF922F
:101780001F93CF93DF9382E6E82E84E0F82EE0915A
:101790006704F091680481E0808360917504C7015B
:1017A0000E94B91C0E94D417109231118AEF0E9436
:1017B0005B3480E00E9440340E9462148823E1F38D
:1017C0000E9412340E94CA34C82FDD27249606C016
:1017D0000E94CA349927C817D90738F060E880E01A
:1017E0000E944715182F882399F30E94BC171130C7
:1017F00071F6E0916704F0916804928180914F0541
:10180000981729F681E090E0A0E0B0E08093A50869
:101810009093A608A093A708B093A80880912511DB
:10182000909126112181820F911D90932611809312
:10183000251182E090E00E94CC216091021370910A
:10184000031389E690E00E94983A109331111092A8
:10185000A5081092A6081092A7081092A8080E9446
:1018600035340E944C348AE00E945B3487E00E9449
:10187000403461E170E880E090E00E944F350E94C2
:101880004334E091D112F091D2128AE090E0968B2D
:10189000858B809131119927DF91CF911F91FF9016
:1018A000EF9008958F929F92BF92CF92DF92EF9226
:1018B000FF920F931F93CF93DF93CDB7DEB721979E
:1018C0000FB6F894DEBF0FBECDBF7C016B0181E087
:1018D00080937004F701A085B185FD01818192811B
:1018E0000E94F1078C01892B09F4CEC19C2CC09277
:1018F00020110F5F1F4F10936F0400936E04D801E7
:101900008E918D0180936D04C7010E94040BF82E07
:10191000E0916E04F0916F048083E0916E04F09189
:101920006F0480912511909126118183E0916E04BE
:10193000F0916F048091600482830E94123460E809
:1019400075E280E090E00E944F35B090D9038B2D76
:101950000E94501E409177045091780460912111AB
:10196000709122112DE231E18BE694E00E94EA1998
:10197000882321F10B581F4FF801108205571040A2
:10198000809155049091560401969093560480934B
:1019900055048B2D0E94D51E83E090E00E94CC213F
:1019A00080912D1190912E112091211130912211B1
:1019B000821B930B90931C1180931B118091231118
:1019C0000E942D29F7FE50C10E94D4178B2D0E9432
:1019D000501E0E94123460E070E180E090E00E94AE
:1019E0004F350E94CA34898389818E5F898340C0C4
:1019F0000E94CA3499819817D8F520912011822F1E
:101A00009927C816D90651F48091661190916711F3
:101A10004996909367118093661114C0892D821B9B
:101A20002091661130916711482F552747FD509539
:101A3000181614F0275E3F4F240F351F309367119F
:101A4000209366110E94BC178B2D0E94D51E809199
:101A5000590490915A04019690935A048093590422
:101A600009581F4FD801ED91FC910757104031C024
:101A70000E946214882309F4BBCF0E94CA34898370
:101A800089818E5F8983F2FE29C044E0E42E28C05C
:101A90000E94CA349981981718F584E793E09F93C0
:101AA0008F930E94C53A8091590490915A040196EF
:101AB00090935A04809359040E94CA34809316115B
:101AC00009581F4FD801ED91FC91075710400F9016
:101AD0000F90309709F4D1C060E0D4C032E0E32E1B
:101AE0006E2D81E00E944715F82E882389F2B1E01F
:101AF0008B1789F0609102137091031386E690E0D2
:101B00000E94983A8091590490915A0401969093BA
:101B10005A04809359040E94BC17E1E0FE1609F0B4
:101B2000A3C08B2D0E94D51E80915704909158041C
:101B30000196909358048093570410926711109265
:101B40006611E0916704F0916804808180936511CB
:101B500087FF64C081819927982F882722813327A6
:101B6000822B932B90931E1180931D1180E090E0A7
:101B70000E94CC21E0901D11F0901E1180911B114C
:101B800090911C11E81AF90A88E89AEFE80EF91EFC
:101B900082E389830E94CA34D82EF7FC31C09CE5C9
:101BA000892E9CE1992EC7016CE57CE10E94E63C00
:101BB000C62EC394C7016CE57CE10E94E63C881AFE
:101BC000990A0E9435348D2D8C0D0E9440348B2D46
:101BD0000E94501E0E941234B40180E090E00E94E6
:101BE0004F358B2D0E94D51E0E94433482E390E036
:101BF0000E94043480915B048F5F80935B040EC06D
:101C00000E9435340E941234662777276E197F09A7
:101C100080E090E00E944F350E9443348C2D99273C
:101C20009F928F929F938F93FF92EF9285E993E01B
:101C30009F938F930E94C53A609102137091031392
:101C40008AE090E00E94983A609102137091031329
:101C50008DE090E00E94983AADB7BEB718960FB6E7
:101C6000F894BEBF0FBEADBF09581F4FD801ED910C
:101C7000FC9107571040309721F4C8010E945D087D
:101C800003C061E0C801099521960FB6F894DEBF44
:101C90000FBECDBFDF91CF911F910F91FF90EF90BD
:101CA000DF90CF90BF909F908F900895AF92BF929A
:101CB000CF92DF92EF920F931F93CF93DF93CDB725
:101CC000DEB721970FB6F894DEBF0FBECDBF60918F
:101CD000750482E694E00E94B91C0E94D41700911A
:101CE000E303802F0E94501E0E94CA348983898199
:101CF0008C5F89830BC00E94CA349981981730F495
:101D0000802F0E94D51E0E94BC1747C00E946214FB
:101D1000882389F30E941A349093331180933211EF
:101D20001091D903812F0E94501E812F0E94D51E31
:101D30000E94CA34898389818B5F898317C00E947E
:101D4000CA349981981790F484E793E09F938F9316
:101D50000E94C53A8091590490915A04019690933B
:101D60005A04809359040F900F90CBC060E880E034
:101D70000E944715182F882311F3802F0E94D51E2B
:101D80000E94BC17113009F49FC06091021370913A
:101D9000031382E690E00E94983A80915904909152
:101DA0005A04019690935A0480935904AAC08091D2
:101DB00055049091560401969093560480935504CF
:101DC00012FF02C083E801C083E080936511809315
:101DD0009C088CE998E0909383048093820412FF1E
:101DE00016C08091321190913311209121113091C0
:101DF0002211821B930B90931E1180931D11292F8A
:101E0000332720939D0880939E0884E001C082E0E0
:101E100080938104802F0E94501E4091770450913E
:101E2000780460912111709122112DE231E18FE748
:101E300094E00E94EA19802F0E94D51E809117110C
:101E400090911811A816B90679F4E0916704F09101
:101E5000680482816F01EE2400E020E040E0B501DB
:101E600099270E94D1094DC0C5010E94DF06882331
:101E7000B1F0209167043091680400E010E04AE07E
:101E800050E060E070E0C5010E948F081092A50844
:101E90001092A6081092A7081092A80832C0BF920C
:101EA000AF928EE993E09F938F930E94C53A109270
:101EB000A5081092A6081092A7081092A8080F90E3
:101EC0000F900F900F901DC080915704909158046F
:101ED0000196909358048093570481E090E00E940B
:101EE000CC21E0916704F09168048381A82EBB2483
:101EF0001081809115110E942D2911230CF09ECF85
:101F000056CF21960FB6F894DEBF0FBECDBFDF913E
:101F1000CF911F910F91EF90DF90CF90BF90AF9036
:101F20000895809115110E942128809123110E940B
:101F3000212821E030E040E050E0CA01B9010090E2
:101F4000231104C0660F771F881F991F0A94D2F7C8
:101F50000090151104C0220F331F441F551F0A940F
:101F6000D2F7622B732B842B952B0E947F2A81E062
:101F700090E00895809375040E94E31C0895EF9209
:101F8000FF920F931F93CF93DF93109227080E9425
:101F9000652D809127088823D1F381E0809327085D
:101FA000E090D90300E010E00E9412340E941A343D
:101FB00090932211809321118E2D0E94501E8E2D00
:101FC0000E94D51E80912511909126119093301179
:101FD00080932F11809125119091261185369105BE
:101FE00098F08091251190912611845690409093FD
:101FF0002611809325118091191190911A11019643
:1020000090931A1180931911209125113091261166
:1020100080913111813059F5C90169E170E00E9468
:10202000D23CEC01E0912411E00FE0932411FF2752
:10203000EF70F070EB5AFE4E8081809354110E9435
:10204000BA0F8C2F0E94A809FC01892BF1F0848122
:10205000883029F46C2FCF010E94560E16C08130B3
:10206000A1F46C2F7727CF010E94520C0EC08091F3
:10207000AE06823039F010925404109253040E943C
:10208000BE0B01C081E08093311120916611309127
:1020900067118091D6039091D7032817390778F1FB
:1020A0008091AE06823059F1109231111092671171
:1020B00010926611109226111092251180914D05F3
:1020C00090914E05019690934E0580934D05809119
:1020D0006004882349F0E0914F05E0932411FF2725
:1020E000EB5AFE4E808104C010922411809155114C
:1020F00080935411809154110E94BA0F53CF809154
:102100002511909126110E94FF068C0180912511C6
:1021100090912611800F911F909326118093251185
:1021200080E090E00E94E92110921C1110921B1196
:10213000C8010E94322D80E090E00E94062234CF38
:10214000FF920F931F93F82E162F042F0E949827AB
:10215000809315118F3F19F480E092E008C00E942F
:102160009827809323118F3F79F489ED91E00E94A5
:10217000B422E091D112F091D21260858EE00E94DB
:1021800091268FEF90E070C010926804109267045F
:10219000109266040E940E3410921A1110921911B6
:1021A00084E690E0909326118093251110923111CE
:1021B000109295061092671110926611F092AE0679
:1021C00010936004812F9927909318118093171111
:1021D00000934F051092A5081092A6081092A70828
:1021E0001092A80884E680937B0480E49FE190939A
:1021F0007A048093790480EA9FE090937804809336
:1022000077048FE08093750481E899E190937404DA
:102210008093730421E839E141E254E26FE082E601
:1022200094E00E94F61C81E080931F1110922A1105
:10223000112341F000932411E02FFF27EB5AFE4EAB
:10224000808104C010922411809155118093541103
:10225000809154110E94BA0F10924E0510924D05B4
:102260000E94CC0681E090E01F910F91FF900895AD
:10227000809115110E9421288091A508882379F466
:1022800061E070E080E090E00090151104C0660FFE
:10229000771F881F991F0A94D2F70E947F2A81E036
:1022A00090E00895FC01DB018091A508882329F4C2
:1022B00010821C9280E090E00895809165048083F4
:1022C00080916A048C9380916704909168040895CA
:1022D000EAE7F0E083E08083ACE7B0E080E48C9351
:1022E000808180688083109269118C91807E8C93AC
:1022F0009C918C91807E892B8C93089588EC90E042
:102300000E940434089580917A00806480937A005A
:1023100080917A0084FFFCCF0E947E11209178008A
:102320003327809179009927982F8827822B932B28
:102330000895FF920F931F93CF93DF93CDB7DEB72E
:1023400022970FB6F894DEBF0FBECDBF0E94D913FF
:102350008C01009711F00E942B2A159AFF248F2DD3
:10236000806299279A83898340988BE18EBD0DB452
:1023700007FEFDCF89819A81892F99278EBD0DB4E3
:1023800007FEFDCF89819A818EBD0DB407FEFDCF7A
:10239000409A82E090E00E94043440988BE58EBD24
:1023A0000DB407FEFDCF1EBC0DB407FEFDCF8EB5EC
:1023B0009927982F88279A8389831EBC0DB407FE1E
:1023C000FDCF89819A812EB53327282B392B3A836B
:1023D0002983409A89819A8186FD05C0F3942FE173
:1023E000F21609F0BCCF0115110519F0C8010E94C1
:1023F000D928FF20C9F40E9483119A838983898197
:102400009A818F3A910530F089819A818E5A904055
:102410009A83898389819A818A54914098F48AE4C5
:1024200091E09A8389830EC02DE7F29E90011124DA
:1024300088E293E2821B930B6BE170E00E94E63C22
:102440007A83698389819A8122960FB6F894DEBFD8
:102450000FBECDBFDF91CF911F910F91FF900895D7
:10246000CF92DF92EF92FF920F931F93CF93DF9360
:10247000982FEA01122F823009F481C0833030F4A2
:10248000882371F0813009F0D2C010C0843009F483
:1024900081C0843008F477C0853009F0C8C02DC0F1
:1024A00080E880BB8F9A0E9468116AC08091681191
:1024B000813009F4C3C090936811772760FF13C07F
:1024C0008F981092691180917C00807E80937C00AF
:1024D00090917C0080917C00807E892B80937C0091
:1024E00088EE93E09FC061FDA9C062FDA7C0677040
:1024F0007070672B09F4A2C097C0822F8150823080
:1025000008F099C090916911892F8150863018F494
:102510000E94831122C0992319F40E9499111DC0B1
:10252000973051F5F1E0CF2EF4E0DF2EEE24FF24BA
:1025300000E00E9483118C159D0508F46C01E816DB
:10254000F90608F47C018DE790E00E9404340F5FE7
:10255000003479F7C7018C199D09123031F4888352
:10256000892F9927898381E008C0113029F4969535
:10257000879596958795888380E08F5F09C08F9AAD
:102580001092681151C0613009F058C080916911F2
:10259000992756C0613009F051C02730D9F42093F3
:1025A000691180917C008F7780937C0080917C0002
:1025B000806480937C0080917C00807E80937C008E
:1025C00090917C0080917C009360807E982B90930A
:1025D0007C0026C0283020F081E00E94CC252EC04F
:1025E00020936911213049F480917C008F7780938A
:1025F0007C0080917C00806403C080917C00806CB2
:1026000080937C0080917C00807E80937C00909100
:102610007C0080917C00807E892B812B80937C00C4
:1026200088EC90E00E94043481E090E009C060E012
:102630008CE00E94912680E090E002C08FEF90E055
:10264000DF91CF911F910F91FF90EF90DF90CF908E
:10265000089599279C01265A3E4B0B97880F991F86
:10266000880F991F280F391FF894409888E18EBD74
:102670000DB407FEFDCF832F99278EBD0DB407FE45
:10268000FDCF2EBD0DB407FEFDCF409A789408957E
:10269000F89440981EBC0DB407FEFDCF8EB5409A4D
:1026A000789486FFF5CF089580917F11992708953A
:1026B000CF93DF93DC01409889EC8EBD0DB407FE0B
:1026C000FDCF80E88EBD0DB407FEFDCF92E09150A6
:1026D000FD01E90FF11D80818EBD0DB407FEFDCF18
:1026E0009923A9F7409A40988BEC8EBD0DB407FE54
:1026F000FDCF80E88EBD0DB407FEFDCF92E09D01B9
:102700002E5F3F4FE9019150F901E90FF11D8081E2
:102710008EBD0DB407FEFDCF9923A1F7409A8C9191
:1027200080938011FD018181809381118881809344
:102730008211838180938311DF91CF910895409816
:1027400089E18EBD0DB407FEFDCF83E08EBD0DB4D3
:1027500007FEFDCF86E08EBD0DB407FEFDCF409A8B
:1027600040988AE18EBD0DB407FEFDCF8EE08EBD90
:102770000DB407FEFDCF8EE08EBD0DB407FEFDCF7C
:10278000409A81E0809370110895409889E18EBD50
:102790000DB407FEFDCF81E08EBD0DB407FEFDCF69
:1027A00084EC8EBD0DB407FEFDCF409A10927011DF
:1027B000089580916E1190916F110895209171117B
:1027C00030917211386030937211209371114098DA
:1027D00081E18EBD0DB407FEFDCF832F99278EBDFD
:1027E0000DB407FEFDCF2EBD0DB407FEFDCF409A00
:1027F00008952091711130917211377F30937211C9
:1028000020937111409881E18EBD0DB407FEFDCF7C
:10281000832F99278EBD0DB407FEFDCF2EBD0DB4BD
:1028200007FEFDCF409A089581E080937E112091AC
:1028300071113091721120613093721120937111D6
:10284000409881E18EBD0DB407FEFDCF832F9927FF
:102850008EBD0DB407FEFDCF2EBD0DB407FEFDCF1E
:10286000409A089510927E11209171113091721149
:102870002F7E3093721120937111409881E18EBDAB
:102880000DB407FEFDCF832F99278EBD0DB407FE33
:10289000FDCF2EBD0DB407FEFDCF409A089589B13E
:1028A000992766E0969587956A95E1F78170907013
:1028B00008958CB1992787FD90958827990F881FD7
:1028C0009927089589B19927E6E096958795EA9525
:1028D000E1F781709070089580918411882319F434
:1028E00080E090E0089580918411109284119927DE
:1028F00087FD90950895409888E08EBD0DB407FE41
:10290000FDCF409A409888E08EBD0DB407FEFDCF04
:10291000409A089580916E1190916F110E942B2A18
:10292000409886E08EBD0DB407FEFDCF409A8091A1
:102930006E1190916F110E94D928089580916E11A7
:1029400090916F110E942B2A409884E08EBD0DB4A7
:1029500007FEFDCF409A80916E1190916F110E94F9
:10296000D928089580916E1190916F110E942B2AA1
:10297000409886E08EBD0DB407FEFDCF409A40988A
:1029800082E18EBD0DB407FEFDCF85E08EBD0DB496
:1029900007FEFDCF1EBC0DB407FEFDCF409A409848
:1029A0008EE28EBD0DB407FEFDCF1EBC0DB407FE3A
:1029B000FDCF1EBC0DB407FEFDCF409A0E947B14D4
:1029C00080916E1190916F110E94D9280895809185
:1029D0006E1190916F110E942B2A409886E08EBD57
:1029E0000DB407FEFDCF409A409882E18EBD0DB434
:1029F00007FEFDCF85E08EBD0DB407FEFDCF88E05C
:102A00008EBD0DB407FEFDCF409A40988EE28EBD7C
:102A10000DB407FEFDCF88E18EBD0DB407FEFDCFDE
:102A20001EBC0DB407FEFDCF409A0E947B1480911E
:102A30006E1190916F110E94D92808950F931F93E2
:102A4000082F80916E1190916F110E942B2A1127EF
:102A500007FD1095302F22272068409883E18EBD16
:102A60000DB407FEFDCF832F99278EBD0DB407FE51
:102A7000FDCF2EBD0DB407FEFDCF409A80916E11A3
:102A800090916F110E94D9281F910F9108950F9373
:102A90001F93CF93DF93CDB7DEB724970FB6F8948B
:102AA000DEBF0FBECDBF182F062F80916E11909103
:102AB0006F110E942B2A679B4CC210927F11679B5B
:102AC00025C0319923C040988FE78EBD0DB407FE15
:102AD000FDCF1EBC0DB407FEFDCF8EB5409A4098C9
:102AE00088E08EBD0DB407FEFDCF409A409888E087
:102AF0008EBD0DB407FEFDCF409A80916E1190916E
:102B00006F110E94D9288FEF9FEF2BC240988FE75B
:102B10008EBD0DB407FEFDCF1EBC0DB407FEFDCF6C
:102B20004EB5409A4F7719F540988FE78EBD0DB49A
:102B300007FEFDCF1EBC0DB407FEFDCF8EB5409A3B
:102B4000409888E08EBD0DB407FEFDCF409A4098B6
:102B500088E08EBD0DB407FEFDCF409A80916E11C6
:102B600090916F110E94D9288EEF9FEFFAC14530E6
:102B70008CF0E0917311F0917411242F332727FD0D
:102B800030952B5030408481992787FD909582178E
:102B90009307F4F540988FE78EBD0DB407FEFDCF87
:102BA00060E070E0242F332727FD309506C01EBC5F
:102BB0000DB407FEFDCF6F5F7F4F862F99278217D9
:102BC000930714F43199F3CF409A40988FE78EBD64
:102BD0000DB407FEFDCF1EBC0DB407FEFDCF8EB5B4
:102BE000409A409888E08EBD0DB407FEFDCF409A14
:102BF000409888E08EBD0DB407FEFDCF409A8091CD
:102C00006E1190916F110E94D9288DEF9FEFA9C18D
:102C1000E0917311F09174114C5043831123B1F082
:102C2000E0917311F09174118381992787FD90953C
:102C3000202F33278217930749F080916E119091CE
:102C40006F110E94D9288AEF9FEF8BC140988FE7C0
:102C50008EBD0DB407FEFDCFFE0131969E012D5FA6
:102C60003F4F1EBC0DB407FEFDCF8EB58193E2171A
:102C7000F307B9F7409AE0917311F09174118981CB
:102C80009A81B5E096958795BA95E1F7817087832B
:102C900040988FE78EBD0DB407FEFDCF1EBC0DB46E
:102CA00007FEFDCFE0917311F09174118EB5808312
:102CB000409A40988FE78EBD0DB407FEFDCF80E0AF
:102CC00007C01EBC0DB407FEFDCF8F5F843011F02E
:102CD0003199F7CF409A40988FE78EBD0DB407FE2B
:102CE000FDCF20E030E01EBC0DB407FEFDCFE0912B
:102CF0007311F0917411E20FF31F8EB581832F5F72
:102D00003F4F2230310579F7409A89819A8183FFBC
:102D100056C040988FE78EBD0DB407FEFDCFEAE6A2
:102D2000F1E11EBC0DB407FEFDCF8EB5819381E1AC
:102D3000EE36F807B1F7409A409889E98EBD0DB498
:102D400007FEFDCF80E88EBD0DB407FEFDCF92E0FB
:102D50009150E92FFF27E659FE4E80818EBD0DB4BC
:102D600007FEFDCF9923A1F7409A40988BE98EBDCD
:102D70000DB407FEFDCF80E88EBD0DB407FEFDCF7C
:102D800092E09150E92FFF27E459FE4E80818EBDDD
:102D90000DB407FEFDCF9923A1F7409A40988CE02F
:102DA0008EBD0DB407FEFDCF409A81E080937F1168
:102DB000E0917311F0917411838184508383409862
:102DC0008FE78EBD0DB407FEFDCF40E050E011C08F
:102DD0001EBC0DB407FEFDCFE0917311F09174118C
:102DE0000580F681E02DE60FF11D8EB580834F5FE3
:102DF0005F4F642FE0917311F0917411242F3327EA
:102E00008381992787FD9095281739070CF3409AFD
:102E100040988FE78EBD0DB407FC0AC0FCCF0DB4FF
:102E200007FEFDCF5EB5409A40988FE78EBD02C089
:102E30001EBCF5CF0DB407FEFDCFFE0133969E01FB
:102E40002B5F3F4F1EBC0DB407FEFDCF8EB58193A7
:102E5000E217F307B9F7409AE0917311F0917411FA
:102E60008B81808740E020E030E00AC0E091731160
:102E7000F091741185819681A80FB91F8C91480F2C
:102E8000822FE0917311F09174112F5F3F4FA82FA3
:102E9000BB278381992787FD9095A817B90734F33D
:102EA000451719F140988FE78EBD0DB407FEFDCF91
:102EB0001EBC0DB407FEFDCF8EB5409A409888E049
:102EC0008EBD0DB407FEFDCF409A409888E08EBDC0
:102ED0000DB407FEFDCF409A80916E1190916F1155
:102EE0000E94D9288CEF9FEF3CC08C8187FF0EC0D9
:102EF000809184118F5F8093841180916E119091E5
:102F00006F110E94D92881E090E02BC040988FE794
:102F10008EBD0DB407FEFDCF1EBC0DB407FEFDCF68
:102F20008EB5409A409888E08EBD0DB407FEFDCF67
:102F3000409A409888E08EBD0DB407FEFDCF409AC0
:102F400080916E1190916F110E94D9288BEF9FEFA5
:102F500008C080916E1190916F110E94D92880E075
:102F600090E024960FB6F894DEBF0FBECDBFDF9180
:102F7000CF911F910F91089580916E1190916F11D3
:102F80000E942B2A10927B11409886E08EBD0DB4D2
:102F900007FEFDCF409A1092841180916E1190919E
:102FA0006F110E94D928089580916E1190916F1130
:102FB0000E942B2A81E080937B11409883E08EBD94
:102FC0000DB407FEFDCF409A409888E08EBD0DB449
:102FD00007FEFDCF409A1092841180916E1190915E
:102FE0006F110E94D928089580916E1190916F11F0
:102FF0000E942B2A81E080937B11409883E08EBD54
:103000000DB407FEFDCF409A409888E08EBD0DB408
:1030100007FEFDCF409A1092841180916E1190911D
:103020006F110E94D92808951F93182F80916E1157
:1030300090916F110E942B2A212F33272F7130700E
:10304000206E306A409885E18EBD0DB407FEFDCF3D
:10305000832F99278EBD0DB407FEFDCF2EBD0DB475
:1030600007FEFDCF409A80916E1190916F110E94E2
:10307000D9281F910895EF92FF920F931F93CF933A
:10308000DF93CDB7DEB722970FB6F894DEBF0FBE41
:10309000CDBF8C0180916E1190916F110E942B2AEF
:1030A00050917011552339F040988DE08EBD0DB4CC
:1030B00007FEFDCF409AF8014281642F772767FD14
:1030C0007095A0E020E030E008C0F8018381948191
:1030D000E80EF91EF7018081A80F822F2F5F3F4F66
:1030E000E82EFF24E616F70684F3942F945F51111F
:1030F0009C5F6799FECF4E99FCCFF894409889E089
:103100008EBD0DB407FEFDCF409A409889E08EBD7C
:103110000DB407FEFDCF409A40988EE38EBD0DB4EE
:1031200007FC05C0FCCF0DB407FC30C1FCCF9EBD31
:10313000FACF81E698E89A838983552329F089811B
:103140009A8188609A83898340988EE38EBD0DB4FE
:1031500007FEFDCFFE0131969E012D5F3F4F80811E
:103160008EBD0DB407FEFDCF3196E217F307B9F718
:10317000409A40988EE38EBD0DB407FC05C0FCCF8D
:103180000DB407FC0EC1FCCF809175118EBDF8CF38
:103190000DB407FEFDCF20E030E0F901E958FE4E06
:1031A00080818EBD0DB407FEFDCF2F5F3F4F2230D3
:1031B000310599F7409A40988EE38EBD0DB407FE15
:1031C000FDCF20E030E0F801E20FF31F80818EBDDB
:1031D0000DB407FEFDCF2F5F3F4F2230310599F729
:1031E000409A40988EE38EBD0DB407FEFDCF20E0DF
:1031F00030E0F901E758FE4E80818EBD0DB407FE28
:10320000FDCF2F5F3F4F2230310599F7409A55236C
:1032100099F040988EE38EBD0DB407FEFDCFE0E837
:10322000F1E180818EBD0DB407FEFDCF319681E1C5
:10323000E438F807B1F7409A40988EE38EBD0DB49C
:1032400007FEFDCF20E030E00DC0F80183819481BE
:10325000480F591FFA0180818EBD0DB407FEFDCFC6
:103260002F5F3F4F422F55274617570774F3409A59
:1032700040988EE38EBD0DB407FC05C0FCCF0DB4A5
:1032800007FC94C0FCCFAEBDFACF80917B118823A0
:1032900039F4409883E08EBD0DB407FEFDCF409A0F
:1032A00040981EBC0DB407FEFDCF8EB5409A81FF3D
:1032B000F7CF00E0409885E08EBD0DB407FEFDCF4E
:1032C000409A40981EBC0DB407FEFDCF1EB5409A33
:1032D0000F5F053651F4789480916E1190916F11C3
:1032E0000E94D92880E090E068C084E690E00E94C7
:1032F000152313FD08C0DECF409884E08EBD0DB4C9
:1033000007FEFDCF409A78944E9BFECF4E99FECF9C
:1033100080917E11882391F084EA92E00E94152327
:10332000319B0EC040988FE78EBD0DB407FEFDCFD8
:103330001EBC0DB407FEFDCF8EB5409A11E00FC044
:10334000409888E08EBD0DB407FEFDCF409A4098AE
:1033500088E08EBD0DB407FEFDCF409A10E0F894D2
:10336000409886E08EBD0DB407FEFDCF409A78945C
:10337000809175118F5F8093751180916E1190917E
:103380006F110E94D928812F992717C0409A81E494
:1033900098E89A83898380917E11882309F0C9CEA9
:1033A000CCCE409A40988EE38EBDF2CE409AF80182
:1033B0008581882309F069CF9FCF22960FB6F894B4
:1033C000DEBF0FBECDBFDF91CF911F910F91FF9058
:1033D000EF9008958F929F92BF92CF92DF92EF92DB
:1033E000FF920F931F93CF93DF93CDB7DEB7229752
:1033F0000FB6F894DEBF0FBECDBF8C016B017A0112
:10340000490180916E1190916F110E942B2A0E94A8
:10341000CA34409888E08EBD0DB407FEFDCF409AB7
:10342000409888E08EBD0DB407FEFDCF409A6799A5
:10343000FECF4E99FCCFF894409889E08EBD0DB434
:1034400007FEFDCF409A409889E08EBD0DB407FE7F
:10345000FDCF409AF8016281462F552747FD5095D0
:10346000BB2420E030E007C0F80183819481A80FDD
:10347000B91F8C91B80E822F2F5F3F4FA82FBB270B
:10348000A417B5078CF3962F945F40988EE38EBDFA
:103490000DB407FC05C0FCCF0DB407FC20C1FCCF68
:1034A0009EBDFACF81E698E89A83898340988EE39F
:1034B0008EBD0DB407FEFDCFFE0131969E012D5F3E
:1034C0003F4F80818EBD0DB407FEFDCF3196E217D0
:1034D000F307B9F7409A40988EE38EBD0DB407FC10
:1034E00005C0FCCF0DB407FC03C1FCCF8091751162
:1034F0008EBDF8CF0DB407FEFDCF20E030E0F9011E
:10350000E958FE4E80818EBD0DB407FEFDCF2F5FC2
:103510003F4F2230310599F7409A40988EE38EBD97
:103520000DB407FEFDCF20E030E0F801E20FF31FFD
:1035300080818EBD0DB407FEFDCF2F5F3F4F22303F
:10354000310599F7409A40988EE38EBD0DB407FE81
:10355000FDCF20E030E0F901E758FE4E80818EBDBE
:103560000DB407FEFDCF2F5F3F4F2230310599F795
:10357000409AB701C6010E944F35F8018581882322
:1035800079F180917B11882339F4409883E08EBDD6
:103590000DB407FEFDCF409AEE24409885E08EBD25
:1035A0000DB407FEFDCF409A40981EBC0DB407FE37
:1035B000FDCFFEB4409AE394F5E6EF1651F478940B
:1035C00080916E1190916F110E94D92880E090E057
:1035D00096C084E690E00E941523F3FC08C0DDCF7E
:1035E000409884E08EBD0DB407FEFDCF409A8091D7
:1035F000D8030E94501E40988EE38EBD0DB407FE86
:10360000FDCFF8018281482F552747FD509520E0D6
:1036100030E00CC0F80183819481A80FB91F8C9110
:103620008EBD0DB407FEFDCF2F5F3F4FA22FBB27EE
:10363000A417B5077CF3409A40988EE38EBD0DB475
:1036400007FC05C0FCCF0DB407FC57C0FCCFBEBCC7
:10365000FACF4E9BFECF8091840090918500F401BB
:10366000918380831091E303812F0E94501E812F4C
:103670000E94D51EF8944E99FECF409888E08EBDEA
:103680000DB407FEFDCF409A409888E08EBD0DB482
:1036900007FEFDCF409A409889E08EBD0DB407FE2D
:1036A000FDCF409A409889E08EBD0DB407FEFDCF56
:1036B000409A409886E08EBD0DB407FEFDCF409A3B
:1036C0007894809175118F5F8093751180916E1140
:1036D00090916F110E94D92881E090E010C0409A2B
:1036E000F8018681882309F0DDCE81E498E8DCCEFC
:1036F000409A40988EE38EBDFDCE409AAACF229686
:103700000FB6F894DEBF0FBECDBFDF91CF911F91F2
:103710000F91FF90EF90DF90CF90BF909F908F9090
:103720000895CF93DF93CDB7DEB722970FB6F89405
:10373000DEBF0FBECDBF9A83898390937A118093A9
:10374000791184EF91E00E94043440988AEE8EBD96
:103750000DB407FEFDCF80E88EBD0DB407FEFDCF92
:10376000FE0131969E012D5F3F4F80818EBD0DB4CD
:1037700007FEFDCF3196E217F307B9F7409A84EFC1
:1037800091E00E94043422960FB6F894DEBF0FBE7B
:10379000CDBFDF91CF9108956F927F928F929F92CC
:1037A000AF92BF92CF92DF92EF92FF920F931F934F
:1037B000CF93DF93CDB7DEB722970FB6F894DEBF75
:1037C0000FBECDBF8C0184E690E00E9404347801E6
:1037D000C12CB1E0DB2E3E010894611C711CA3E0FA
:1037E0008A2E912C8C0E9D1EF7018081218133271A
:1037F0009927982F8827282B392B3A83298384E609
:1038000090E00E94043440988C2D80688EBD0DB4E9
:1038100007FEFDCFC60195958795807C8EBD0DB4C2
:1038200007FEFDCF83015301F50180818EBD0DB4EC
:1038300007FEFDCF0894A11CB11CA814B904A1F780
:10384000409A0894E11CF11C82E090E0C80ED91E59
:1038500090E1C91691E0D90639F684E690E00E941D
:10386000043420E131E040E451E01A8219824098AA
:10387000842F80688EBD0DB407FEFDCFCA019595DB
:103880008795807C8EBD0DB407FEFDCFF801808149
:103890008EBD0DB407FEFDCF3196EA15FB05B9F7D5
:1038A000409A4098822F80688EBD0DB407FEFDCFF0
:1038B000C90195958795807C8EBD0DB407FEFDCF1F
:1038C000F80180818EBD0DB407FEFDCF3196EA155B
:1038D000FB05B9F7409A2E5F3F4F4E5F5F4FE1E027
:1038E0002E313E0711F681E090E09A83898340985B
:1038F0008EEC8EBD0DB407FEFDCF80E88EBD0DB4FD
:1039000007FEFDCFF80180818EBD0DB407FEFDCF0F
:103910003196EA15FB05B9F7409A40988EE98EBDBD
:103920000DB407FEFDCF80E88EBD0DB407FEFDCFC0
:10393000F80180818EBD0DB407FEFDCF0F5F1F4FD4
:103940000A151B05A9F7409A22960FB6F894DEBF18
:103950000FBECDBFDF91CF911F910F91FF90EF90E0
:10396000DF90CF90BF90AF909F908F907F906F909F
:1039700008951F93CF93DF93EC01162F80916E1162
:1039800090916F110E942B2A409888E08EBD0DB453
:1039900007FEFDCF409A409888E08EBD0DB407FE2B
:1039A000FDCF409A812F0E942913D0937411C093A8
:1039B000731180916E1190916F110E94D928DF913F
:1039C000CF911F9108951F93182F80916E119091A0
:1039D0006F110E942B2A812F0E94291380916E1152
:1039E00090916F110E94D9281F910895DF92EF9254
:1039F000FF920F931F93CF93DF93CDB7DEB722973C
:103A00000FB6F894DEBF0FBECDBF8C01D62E5A8301
:103A10004983790164E181E00E945A2890936F11F3
:103A200080936E11892B31F40E94A52B682F8FE0B3
:103A30000E94912680916E1190916F110E942B2A05
:103A40008F3F21F484E592E00E94B422159A88EE1B
:103A500093E00E941523169881E090E00E941523C0
:103A6000169A84E690E00E941523F894409881E02D
:103A70008EBD0DB407FEFDCF409A82EE92E090938A
:103A8000721180937111409881E18EBD0DB407FED3
:103A9000FDCF82E08EBD0DB407FEFDCF82EE8EBD60
:103AA0000DB407FEFDCF409A409882E18EBD0DB463
:103AB00007FEFDCF85E08EBD0DB407FEFDCF1EBC19
:103AC0000DB407FEFDCF409A40988CE18EBD0DB439
:103AD00007FEFDCF1EBC0DB407FEFDCF8FE78EBDE8
:103AE0000DB407FEFDCF409A409889E18EBD0DB41C
:103AF00007FEFDCF81E08EBD0DB407FEFDCF84EC47
:103B00008EBD0DB407FEFDCF409A409887E18EBD73
:103B10000DB407FEFDCF8AE18EBD0DB407FEFDCFCB
:103B200086E58EBD0DB407FEFDCF409A84EF91E08F
:103B30000E940434409888EE8EBD0DB407FEFDCF80
:103B400080E88EBD0DB407FEFDCFFE0131969E01CB
:103B50002D5F3F4F80818EBD0DB407FEFDCF3196A6
:103B6000E217F307B9F7409A84EF91E00E9404341A
:103B700078948D2D0E9429137894109374110093DA
:103B8000731189819A819093781180937711F092C3
:103B90007A11E09279111092751110927B110E94A6
:103BA000481380916E1190916F110E94D9288F3F18
:103BB00039F487E292E00E94B42282E00E94CC2590
:103BC00010927E111092701110927F1122960FB6F2
:103BD000F894DEBF0FBECDBFDF91CF911F910F9143
:103BE000FF90EF90DF90089520910712809185114A
:103BF000281781F0E22FFF27EA57FE4EE081822F3F
:103C00008F5F80930712803811F4109207128E2F65
:103C1000992708958091C80087FFFCCF8091C80044
:103C20008F778093C8008091CE00992708958823CC
:103C300051F48091C000992787FD90958827990FAE
:103C4000881F99270895813019F080E090E0089549
:103C500020E030E09091071280918511981711F0C3
:103C600021E030E0C901089585B7806185BF86E015
:103C700084B987E085B981E087B988B98CE38DB9CB
:103C80008BE08AB98EE38EB988E781B980E482B986
:103C900008950E94341E80E58CBD81E08DBD08959D
:103CA0008F3F09F47FC0482F55279A012770307045
:103CB00022303105A9F12330310544F421153105B5
:103CC00089F02130310509F06DC01CC02430310568
:103CD00009F446C0243031059CF12530310509F046
:103CE00061C04EC022B1A3E056954795AA95E1F771
:103CF00081E090E002C0880F991F4A95E2F7282BD7
:103D000022B94DC085B1F3E056954795FA95E1F794
:103D100002C0220F331F4A95E2F7822B85B93FC0BC
:103D200028B1E3E056954795EA95E1F781E090E008
:103D300002C0880F991F4A95E2F7282B28B92FC097
:103D40002BB173E0569547957A95E1F781E090E0C5
:103D500002C0880F991F4A95E2F7282B2BB91FC084
:103D60002EB163E0569547956A95E1F781E090E0C2
:103D700002C0880F991F4A95E2F7282B2EB90FC071
:103D800021B333E0569547953A95E1F781E090E00D
:103D900002C0880F991F4A95E2F7282B21BB81E0CA
:103DA00090E008958FEF9FEF08958F3F09F486C04C
:103DB000482F55279A012770307022303105C1F104
:103DC0002330310544F42115310589F021303105C6
:103DD00009F074C01DC02430310509F44BC02430F3
:103DE0003105BCF12530310509F068C054C022B15D
:103DF00073E0569547957A95E1F781E090E002C02F
:103E0000880F991F4A95E2F78095822382B953C0A3
:103E100095B163E0569547956A95E1F702C0220F88
:103E2000331F4A95E2F7822F8095892385B943C0D5
:103E300028B133E0569547953A95E1F781E090E057
:103E400002C0880F991F4A95E2F78095822388B9AE
:103E500032C02BB193E0569547959A95E1F781E0F2
:103E600090E002C0880F991F4A95E2F7809582235F
:103E70008BB921C02EB183E0569547958A95E1F71D
:103E800081E090E002C0880F991F4A95E2F7809583
:103E900082238EB910C021B3B3E056954795BA95E9
:103EA000E1F781E090E002C0880F991F4A95E2F7A0
:103EB0008095822381BB81E090E008958FEF9FEF92
:103EC00008958F3FA9F1282F3327C901877090707B
:103ED00082309105A9F0833091052CF4009761F0B0
:103EE000019731F50BC08430910571F08430910554
:103EF0004CF00597E9F40AC080B109C083B107C04E
:103F000086B105C089B103C08CB101C08FB19927BA
:103F1000E3E036952795EA95E1F702C095958795F8
:103F20002A95E2F7992787FD909581709070089502
:103F30008FEF9FEF08958F3F09F403C1282F332798
:103F4000A901477050704230510509F45CC04330FC
:103F5000510544F44115510591F04130510509F0E6
:103F6000F0C034C04430510509F49BC044305105C1
:103F70000CF470C04530510509F0E3C0B9C080B100
:103F8000A90173E0569547957A95E1F79927042E94
:103F900002C0959587950A94E2F780FD0BC022B187
:103FA00081E090E002C0880F991F4A95E2F7282B24
:103FB00022B9C4C022B181E090E002C0880F991FED
:103FC0004A95E2F78095822382B9B8C083B163E055
:103FD000369527956A95E1F79927022E02C09595A7
:103FE00087950A94E2F702C0440F551F2A95E2F71D
:103FF00080FD03C085B1842B04C095B1842F8095CA
:10400000892385B99BC086B1A90193E05695479550
:104010009A95E1F79927042E02C0959587950A9401
:10402000E2F780FD0BC028B181E090E002C0880F6C
:10403000991F4A95E2F7282B28B980C028B181E062
:1040400090E002C0880F991F4A95E2F7809582237D
:1040500088B974C089B1A901B3E056954795BA955E
:10406000E1F79927042E02C0959587950A94E2F707
:1040700080FD0BC02BB181E090E002C0880F991F3A
:104080004A95E2F7282B2BB959C02BB181E090E07B
:1040900002C0880F991F4A95E2F7809582238BB959
:1040A0004DC08CB1A901A3E056954795AA95E1F7BB
:1040B0009927042E02C0959587950A94E2F780FD12
:1040C0000BC02EB181E090E002C0880F991F4A9585
:1040D000E2F7282B2EB932C02EB181E090E002C069
:1040E000880F991F4A95E2F7809582238EB926C0E2
:1040F0008FB1A901F3E056954795FA95E1F7992715
:10410000042E02C0959587950A94E2F780FD0BC0B6
:1041100021B381E090E002C0880F991F4A95E2F731
:10412000282B21BB0BC021B381E090E002C0880F97
:10413000991F4A95E2F78095822381BB81E090E048
:1041400008958FEF9FEF08958F3F09F412C1482F14
:104150005527662309F090C0CA018770907082309D
:10416000910509F43EC0833091053CF4009789F035
:104170008130910509F0FDC021C08430910509F41A
:1041800054C0843091050CF43EC0059709F0F1C08D
:104190005EC031B1B3E056954795BA95E1F781E03D
:1041A00090E002C0880F991F4A95E2F7282F2095CA
:1041B000232321B922B1822B82B9D8C024B1A3E034
:1041C00056954795AA95E1F702C0880F991F4A9521
:1041D000E2F7982F8095822384B985B1982B95B901
:1041E000C5C037B1F3E056954795FA95E1F781E000
:1041F00090E002C0880F991F4A95E2F7282F20957A
:10420000232327B935C03AB1E3E056954795EA959F
:10421000E1F781E090E002C0880F991F4A95E2F72C
:10422000282F209523232AB923C03DB173E056954A
:1042300047957A95E1F781E090E002C0880F991FD9
:104240004A95E2F7282F209523232DB911C030B3CA
:1042500063E0569547956A95E1F781E090E002C0EA
:10426000880F991F4A95E2F7282F2095232320BB1A
:1042700025B1822B85B97AC09A012770307022301F
:104280003105A9F12330310544F42115310589F0B8
:104290002130310509F06DC01CC02430310509F40E
:1042A00046C0243031059CF12530310509F061C04C
:1042B0004EC021B133E0569547953A95E1F781E03C
:1042C00090E002C0880F991F4A95E2F7282B21B988
:1042D0004DC084B193E0569547959A95E1F702C099
:1042E000220F331F4A95E2F7822B84B93FC027B1D2
:1042F000B3E056954795BA95E1F781E090E002C0AA
:10430000880F991F4A95E2F7282B27B92FC02AB1A9
:10431000A3E056954795AA95E1F781E090E002C0A9
:10432000880F991F4A95E2F7282B2AB91FC02DB193
:10433000F3E056954795FA95E1F781E090E002C0E9
:10434000880F991F4A95E2F7282B2DB90FC020B38B
:10435000E3E056954795EA95E1F781E090E002C0E9
:10436000880F991F4A95E2F7282B20BB81E090E047
:1043700008958FEF9FEF0895882319F08FEF9FEF37
:10438000089580B1992787FD90958095909588270D
:10439000990F881F99270895009711F484E109C0A7
:1043A0008130910511F48CE104C08230910531F423
:1043B00084E20E949B1F81E090E00895039719F02A
:1043C0008FEF9FEF08958CE20E949B1F81E090E0A9
:1043D0000895009711F484E109C08130910511F42A
:1043E0008CE104C08230910531F484E20E94501EB9
:1043F00081E090E00895039719F08FEF9FEF089503
:104400008CE20E94501E81E090E00895009711F424
:1044100084E109C08130910511F48CE104C082303F
:10442000910531F484E20E94D51E81E090E0089568
:10443000039719F08FEF9FEF08958CE20E94D51E2D
:1044400081E090E00895882319F085B78F7E02C03F
:1044500085B7806185BF81E090E00895982F8091B5
:10446000C00085FFFCCF8091C0008F7D8093C0008D
:104470009093C6000895982F8091C80085FFFCCFC7
:104480009093CE000895292F33272093C500809361
:10449000C40086E08093C200E1ECF0E080818B7F75
:1044A0008083A0ECB0E08C9182608C9380818861E5
:1044B00080830895292F33272093CD008093CC004B
:1044C00086E08093CA00E9ECF0E080818B7F8083F6
:1044D000A8ECB0E08C9182608C93808188618083AD
:1044E00008958091C00087FFFCCF8091C0008F7736
:1044F0008093C0008091C600992708950E945A2297
:1045000064EF7DE18BE392E20E94073A90930313FC
:104510008093021364EF7DE18BE392E20E94073AFD
:1045200090930113809300130E94982780930612A2
:104530008F3F19F48EE00E94982610920712109275
:1045400085118091C90080688093C9000895809189
:1045500006128F3F19F48EE00E9498268091061271
:10456000992787FD90950895CF93DF93EC0107C0BD
:10457000609102137091031399270E94983AFE01EB
:10458000219684918823A1F7DF91CF9108951F92FE
:104590000F920FB60F9211242F933F934F935F9377
:1045A0006F937F938F939F93AF93BF93EF93FF93FB
:1045B0008091C9008F778093C9008091C80087FFE0
:1045C000FCCF8091C8008F778093C8009091CE0077
:1045D00080918511E82FFF27EA57FE4E90838F5F69
:1045E00080938511803811F4109285118091061204
:1045F0000E942D298091C8008F778093C8008091F8
:10460000C90080688093C900FF91EF91BF91AF917D
:104610009F918F917F916F915F914F913F912F91DA
:104620000F900FBE0F901F90189500000000000023
:1046300000000197D1F70895FC01A7E0B0E00E94C7
:10464000523D802D808381E090E00895FC018081BF
:10465000A7E0B0E0082E0E945A3D81E090E0089566
:10466000DC010E94523D802D99270895FC01A0E0B5
:10467000B0E00E94523D402D4383A1E0B0E00E9493
:10468000523D802D8283A2E0B0E00E94523D302D49
:104690003183A3E0B0E00E94523D902D9083A4E0CE
:1046A000B0E00E94523D202D830F840F890F281700
:1046B00019F481E090E008958FEF9FEF0895FC01D9
:1046C000A5E0B0E00E94523D802D808381E090E023
:1046D0000895FC01A6E0B0E00E94523D802D808349
:1046E00081E090E00895AC0120E030E0D901189617
:1046F0000E94523D802DFA01E20FF31F80832F5F4D
:104700003F4F2031310591F781E090E00895DC01C1
:10471000062E0E945A3D0895FC018081A6E0B0E07B
:10472000082E0E945A3D81E090E00895AC0120E0FF
:1047300030E0D9011896FA01E20FF31F8081082EAC
:104740000E945A3D2F5F3F4F2031310591F781E0A4
:1047500090E00895F89408957894089585E690E09F
:1047600008950E94F3300895EF92FF920F931F93E4
:10477000CF93DF93EC018B017A018985823021F0A0
:104780008091C012888301C018828091C012853048
:1047900020F060E087E00E9491268985823029F030
:1047A0008091C0128F5F8093C0128091C0128823C5
:1047B00019F481E08093C0128881992787FD909534
:1047C000FC0145E0EE0FFF1F4A95E1F7E80FF91FE6
:1047D000E65FFD4E118300838881992787FD9095C0
:1047E000FC0135E0EE0FFF1F3A95E1F7E80FF91FE6
:1047F000E65FFD4E888582878881992787FD9095A1
:10480000FC0125E0EE0FFF1F2A95E1F7E80FF91FE5
:10481000E65FFD4E83E081872881822F992787FDFF
:104820009095FC0105E0EE0FFF1F0A95E1F7E80FF8
:10483000F91FE65FFD4E20878881992787FD9095B7
:10484000FC0115E0EE0FFF1F1A95E1F7E80FF91FC5
:10485000E65FFD4E15820881112707FD10952B8517
:104860003C854D855E856F85788989899A890E9406
:10487000182FF801B5E0EE0FFF1FBA95E1F7E00F32
:10488000F11FE65FFD4E948F838F0881112707FD8E
:1048900010952B8D3C8D4D8D5E8D6F8D78A189A1EE
:1048A0009AA10E94182FF801A5E0EE0FFF1FAA950C
:1048B000E1F7E00FF11FE65FFD4E968B858B888157
:1048C000992787FD9095FC0175E0EE0FFF1F7A9503
:1048D000E1F7E80FF91FE65FFD4E85899689238D84
:1048E000348D820F931F908F878B0881112707FDCE
:1048F00010952B893C894D895E896F89788D898DCA
:104900009A8D0E94182FF80165E0EE0FFF1F6A953F
:10491000E1F7E00FF11FE65FFD4E968F858F8881EE
:10492000992787FD9095FC0155E0EE0FFF1F5A95E2
:10493000E1F7E80FF91FE65FFD4E858D968D928FAA
:10494000818F8881992787FD9095FC0145E0EE0FC6
:10495000FF1F4A95E1F7E80FF91FE65FFD4E81E082
:1049600090E090A3878F8881992787FD9095FC011F
:1049700035E0EE0FFF1F3A95E1F7E80FF91FE65F0C
:10498000FD4EF382E2828881992787FD9095FC0194
:1049900025E0EE0FFF1F2A95E1F7E80FF91FE65F0C
:1049A000FD4E81E0848781E090E0DF91CF911F91FF
:1049B0000F91FF90EF9008958F929F92AF92BF92C8
:1049C000CF92DF92EF92FF920F931F93CF93DF93DB
:1049D00062E1A62E62E1B62ECC24DD244501EC2C4A
:1049E000F501F080FFEFFF1691F0E40100E010E028
:1049F000E01639F08881F81621F46F2D85E00E94C9
:104A000091260F5F1F4FA1960530110589F7089475
:104A1000C11CD11C81E290E0A80EB91E95E0C91618
:104A2000D104E9F60E94BA2A282F332727FD3095B2
:104A3000F90155E0EE0FFF1F5A95E1F7E20FF31F62
:104A4000E65FFD4E32853093D31221E28202C0012F
:104A50001124865F9D4E9093D2128093D112909331
:104A6000C3128093C2123093C4120E94F2370E9484
:104A7000D8370E941638FFCF0F931F93CF93DF9341
:104A8000CDB7DEB7A3970FB6F894DEBF0FBECDBF8C
:104A90000E9498278093C1128F3F21F460E08EE03E
:104AA0000E9491260E944937882321F460E086E025
:104AB0000E9491261092C4121092D2121092D1121A
:104AC0001092C3121092C2121092D3121092D012EE
:104AD000E1EBF2E18FEF808382838183339622E1E1
:104AE000E03CF207B9F7EAE0F2E183E682878FEF74
:104AF0008087B19682E1EF3AF807B9F7E4EDF2E189
:104B0000CF01059694838383F783E683FC0122E13A
:104B10008D3E9207A9F71092D6121092D5121092DC
:104B2000F1121092F0121092C7121092C612499709
:104B3000909309128093081269ED70E38E010F5F64
:104B40001F4FC8010E94963740E850E06BEA78E0BA
:104B5000C8010E94F73785E58093AB0819861C8E43
:104B60001D8E1E8E1F8E18A219A21AA21BA291E0E2
:104B7000988782E08A879B87C8010E94A32DA3960D
:104B80000FB6F894DEBF0FBECDBFDF91CF911F915E
:104B90000F910895F894FFCFE091D112F091D212C5
:104BA00084870895E091D112F091D21284859927DB
:104BB0000895DC01FB018091A408882319F480E0AA
:104BC00090E008958083809172048C9381E090E05E
:104BD00008951F938091A408882309F49EC00E9421
:104BE000AA230E94AA238CE394E00E94B42280911D
:104BF000720499279F938F9389EF93E09F938F93EC
:104C00000E94C53A88E394E00E94B4220F900F906E
:104C10000F900F908091A408843110F01092A40896
:104C20008091A4089927AA27BB27FC013197E2317C
:104C3000F105F0F5EA59FF4FEE0FFF1F0590F491D3
:104C4000E02D099481E194E035C08DEF93E032C00E
:104C500087EE93E02FC08CEC93E02CC086EB93E0C2
:104C600029C08EE993E026C08BE893E023C088E753
:104C700093E020C08AE593E01DC085E393E01AC06D
:104C800089E293E017C08EE093E014C08FEF92E0CA
:104C900011C08EEE92E00EC08AED92E00BC08AEB5E
:104CA00092E008C082EA92E005C087E892E002C084
:104CB00080E892E00E94B422609102137091031385
:104CC0008DE090E00E94983A609102137091031376
:104CD0008AE090E00E94983A82E090E00E940622EA
:104CE00083E090E00E94E92110E088EE93E00E94CA
:104CF00004341F5F1436C9F783E090E00E94062257
:104D000082E090E00E94E92110E088EE93E00E94AA
:104D100004341F5F1436C9F7DFCF80E090E01F91A5
:104D200008958093A408609372040E94E925089571
:104D30008093A408E091D112F091D21280858093E3
:104D400072040E94E9250895992787FD9095FC013A
:104D500025E0EE0FFF1F2A95E1F7E80FF91FE65F48
:104D6000FD4EA281B3818C91853529F085E58C9328
:104D70008FEF9FEF0895808191818050924218F4C7
:104D800081E090E0089582E10E9498268FEF9FEFE6
:104D900008956F927F928F929F92AF92BF92CF921F
:104DA000DF92EF92FF920F931F93CF93DF9388E4EC
:104DB00094E00E94B422E091D112F091D212808549
:104DC000992787FD90959F938F938CEF93E09F9306
:104DD0008F930E94C53AE091D112F091D2120281D4
:104DE00013811F930F9385E094E09F938F930E940C
:104DF000C53AF801808199279F938F9352E1C52E80
:104E000054E0D52EDF92CF920E94C53AE091D112A4
:104E1000F091D212808191819F938F934FE1E42E84
:104E200044E0F42EFF92EF920E94C53A8091D11295
:104E30009091D2129F938F9309E214E01F930F93E6
:104E40000E94C53ACAE0D2E1AA24BB248DB79EB71E
:104E500044960FB6F8949EBF0FBE8DBF39E3632E04
:104E600034E0732E4601670178010A811B811F938C
:104E70000F93BF92AF927F926F920E94C53AF80152
:104E8000808199279F938F939F928F920E94C53A1A
:104E9000888199819F938F93DF92CF920E94C53A28
:104EA000DF93CF93FF92EF920E94C53A0894A11C22
:104EB000B11CA1968DB79EB742960FB6F8949EBFCF
:104EC0000FBE8DBF95E0A916B10479F6DF91CF91A1
:104ED0001F910F91FF90EF90DF90CF90BF90AF9018
:104EE0009F908F907F906F900895CF93DF93E09184
:104EF000D112F091D212C281D3818881853539F0E7
:104F00000E94C92681E00E94982685E58883E09169
:104F1000D112F091D212808191818050924228F07A
:104F20000E94C92682E10E949826DF91CF910895C0
:104F30004091960650919706609198067091990657
:104F400020E030E0DB01CA01022E04C0B695A7952F
:104F5000979587950A94D2F781709070892BE9F420
:104F600081E090E0A0E0B0E0022E04C0880F991F1D
:104F7000AA1FBB1F0A94D2F7842B952BA62BB72B05
:104F80008093960690939706A0939806B0939906FF
:104F9000822F992787FD909508952F5F3F4F2032EC
:104FA000310581F68FEF9FEF0895E091D112F091D6
:104FB000D21265857685878590890895EF92FF9254
:104FC0000F931F9321E030E040E050E004C0220F37
:104FD000331F441F551F8A95D2F7E091D112F091EB
:104FE000D212E584F68407851089DA01C9018E2181
:104FF0009F21A023B1230097A105B10519F48FEFDC
:105000009FEF1AC02095309540955095E222F322EB
:1050100004231523E586F6860787108B81899289FC
:10502000A389B48982239323A423B523818B928BF4
:10503000A38BB48B81E090E01F910F91FF90EF90D4
:105040000895682F772767FD709580919606909157
:105050009706A0919806B0919906062E04C0B695C1
:10506000A795979587950A94D2F781709070892BB0
:1050700019F48FEF9FEF0895E091D112F091D212C1
:1050800021E030E040E050E004C0220F331F441F15
:10509000551F6A95D2F785859685A785B089822B9D
:1050A000932BA42BB52B85879687A787B08B81E0A0
:1050B00090E00895482F2091D012243018F080E01D
:1050C00090E00895E1EBF2E130E080818F3F21F044
:1050D0003F5F33963530C9F7832F9927FC01EE0FD8
:1050E000FF1FE80FF91FEF54FD4E42834083618399
:1050F0002F5F2093D01283E0389FC00111248F547A
:105100009D4E089541EB52E120E030E048175907E9
:1051100029F4822F992787FD909508952F5F3F4F9F
:105120004D5F5F4F2530310589F78FEF9FEF089571
:105130000E9482288F3F11F481E003C0853031F452
:1051400082E00E94CC258FEF9FEF0895992787FD7D
:105150009095FC01EE0FFF1FE80FF91FEF54FD4E75
:105160008FEF8083828381838091D01281508093DE
:10517000D01281E090E008950E9482288F3F11F4C0
:1051800081E003C0853031F482E00E94CC258FEFAE
:105190009FEF0895992787FD9095FC01EE0FFF1F63
:1051A000E80FF91FEF54FD4E8281992787FD9095F6
:1051B00008951F93CF93DF930E948228182F8F3F6B
:1051C00011F481E003C0853031F482E00E94CC25E7
:1051D0008FEF9FEF3EC0992787FD9095EC01CC0F94
:1051E000DD1FC80FD91FCF54DD4E9A8188819817D3
:1051F00074F50E94AA238A818F5F8A83E091D1127D
:10520000F091D2121482E1E1F2E1212F332727FD40
:105210003095432F532F8081823091F4828593857E
:10522000A485B58582179307A407B50749F483E0E1
:105230008283178616861082128613861486158638
:10524000B19682E1E63BF80731F70E94AC2381E09A
:1052500090E0DF91CF911F910895DF92EF92FF923E
:105260000F931F93F1E0EF2EF12C012D112D04C0AF
:10527000EE0CFF1C001F111F8A95D2F78091960635
:1052800090919706A0919806B09199068E219F2142
:10529000A023B1230097A105B10511F481E043C01B
:1052A0000E94AA23E1E1F2E1DD2480818130B9F49A
:1052B00082859385A485B5858E219F21A023B12366
:1052C0000097A105B10559F083E082831786168601
:1052D0001082E286F38604871587DD24D3948081CB
:1052E0008230A1F482859385A485B5858E159F05AE
:1052F000A007B10759F483E08283178616861082CF
:105300001286138614861586DD24D394B19682E125
:10531000E63BF80751F60E94AC23DD2019F081E04E
:1053200090E005C082E00E94CC258FEF9FEF1F9197
:105330000F91FF90EF90DF900895EF92FF920F93FF
:105340001F93CF93DF93C82FDD27C7FDD095A1E032
:10535000EA2EF12C012D112D0C2E04C0EE0CFF1C99
:10536000001F111F0A94D2F780919606909197061C
:10537000A0919806B09199068E219F21A023B12378
:105380000097A105B10519F48FEF9FEF5DC00E9452
:10539000AA23EAE0F2E1A801970120953095409513
:1053A000509580858F3F41F185859685A785B08989
:1053B0008E159F05A007B10739F4118A128A138A46
:1053C000148A178283E0818785859685A785B089B1
:1053D00082239323A423B52385879687A787B08B41
:1053E00081899289A389B48982239323A423B52335
:1053F000818B928BA38BB48BB19682E1EF3AF80745
:1054000081F62EEF3FEF4FEF5FEF04C0220F331F07
:10541000441F551FCA95D2F7809196069091970622
:10542000A0919806B091990682239323A423B523D3
:105430008093960690939706A0939806B09399064A
:105440000E94AC2381E090E0DF91CF911F910F91FA
:10545000FF90EF9008951F93CF93DF930E948228CF
:10546000182F8F3F11F481E003C0853031F482E0C2
:105470000E94CC258FEF9FEF3EC00E94AA23812F70
:10548000992787FD9095EC01CC0FDD1FC80FD91F20
:10549000CF54DD4E8A818823D9F4E091D112F09166
:1054A000D212878182608783E091D112F091D2126B
:1054B000812F992787FD9095A92FB92F818B928BEA
:1054C000A38BB48B0E94AC2380E090E00E94D02C90
:1054D0008A8181508A83E091D112F091D212898120
:1054E0008387E091D112F091D21281E084830E94EF
:1054F000AC2381E090E0DF91CF911F9108959B0153
:10550000AC01E091D112F091D21285859685A785E4
:10551000B08982239323A423B5230097A105B10565
:1055200029F460E070E080E090E00895218B328BF8
:10553000438B548B81E087830090C11204C0569541
:105540004795379527950A94D2F7C90181709070D5
:10555000892B19F00E946B2C04C080E090E00E941F
:10556000D02CE091D112F091D21261897289838995
:1055700094890895E091C612F091C712808199270D
:105580000895E091C612F091C71203C00380F48120
:10559000E02D3097D9F70895CF93DF93482FC0912E
:1055A0000812D0910912209709F47AC0A091C6126E
:1055B000B091C7121097B9F1992787FD90959C017A
:1055C00065E0220F331F6A95E1F7280F391F265F28
:1055D0003D4E8C919927BC0155E0660F771F5A9577
:1055E000E1F7680F791F665F7D4EFB018481882398
:1055F00029F09385F90182859817A8F0F901848133
:10560000882331F0FB019285F9018385981758F0C2
:10561000FB019285F9018285981728F0FD01A3818D
:10562000B4811097B1F64883E0910812F091091205
:105630002381348130930912209308128091C6127D
:105640009091C712A817B907A1F4109731F0BC8345
:10565000AB831A821982FD0105C01C821B821A824B
:105660001982F901D283C183D093C712C093C612A5
:1056700017C0FD0181819281A217B30751F09A836F
:105680008983BC83AB8381819281FC01D483C383F2
:1056900004C01C821B829A838983FD01D283C1834B
:1056A000DF91CF910895CF93DF93A091C612B0916F
:1056B000C712109709F446C0482F552747FD50954B
:1056C0008C9199278417950769F4ED01EB81FC8192
:1056D000F093C712E093C6121282118216C0D9014C
:1056E000232B81F18C919927FD012381348184172B
:1056F0009507A9F7C181D2813C832B838381948153
:10570000009719F0FC01D283C183E0910812F09157
:105710000912309741F4B0930912A0930812ED01D9
:105720001C821B8209C0ED01FC83EB83B283A18341
:10573000B0930912A0930812E0910812F091091297
:1057400012821182DF91CF910895E091D112F091F0
:10575000D2128085992708950E948B37E091D1124B
:10576000F091D21285818823B9F70895FF920F93A3
:105770001F93CF93DF93CDB7DEB728970FB6F8947A
:10578000DEBF0FBECDBF29833A834B835C836D831D
:105790007E838F8398870E9475270E94AA23E091B9
:1057A000D112F091D21281E0858381E090E090A344
:1057B000878F0E94CA34F82E29813A814B815C81FF
:1057C0006D817E818F8198850E94182FE091D11282
:1057D000F091D2120F2D1127800F911F968B858B80
:1057E00087EF8F1570F00E9456340E5F1F4F992778
:1057F0008017910734F08F2D8E5F809314110E94D3
:105800005B340E94AC230E94AC2B81E090E0289690
:105810000FB6F894DEBF0FBECDBFDF91CF911F91C1
:105820000F91FF9008958F929F92AF92BF92CF9267
:10583000DF92EF92FF920F931F93CF93DF93CDB739
:10584000DEB760970FB6F894DEBF0FBECDBF2987D5
:105850003A874B875C876D877E878F87988BCE01D1
:1058600001960E947E3089809A80AB80BC80CD807A
:10587000DE80EF80F88409851A852B853C854D856F
:105880005E856F857889CE0109960E94F92D88235F
:1058900019F48FEF9FEF0CC029853A854B855C8505
:1058A0006D857E858F8598890E94B62B81E090E07A
:1058B00060960FB6F894DEBF0FBECDBFDF91CF91DB
:1058C0001F910F91FF90EF90DF90CF90BF90AF901E
:1058D0009F908F9008951F930E94AA23E091D11268
:1058E000F091D21281E0858386830E94CA34182FFA
:1058F000883F80F40E945634212F33272E5F3F4F7C
:1059000099278217930734F0812F8E5F80931411AB
:105910000E945B340E94AC230E94AC2B81E090E09B
:105920001F9108951F93CF93DF93CDB7DEB72897CC
:105930000FB6F894DEBF0FBECDBF29833A834B83E9
:105940005C836D837E838F8398870E94AA230E9445
:10595000CA34182F29813A814B815C816D817E8107
:105960008F8198850E94182F8330910518F48FEF4E
:105970009FEF0CC0E091D112F091D212810F911DD6
:10598000968B858B0E94AC2381E090E028960FB621
:10599000F894DEBF0FBECDBFDF91CF911F91089568
:1059A0000F931F938C010E94AA23E091D112F091D2
:1059B000D21281E08583168B058B0E94CA34082F92
:1059C000883F80F40E945634202F33272E5F3F4FAC
:1059D00099278217930734F0802F8E5F80931411DC
:1059E0000E945B340E94AC230E94AC2B81E090E0CB
:1059F0001F910F910895FF920F931F93CF93DF9301
:105A00008C010E94AA23E091D112F091D21281E080
:105A100085830E94CA34F82EE091D112F091D212FF
:105A2000C82FDD270C0F1D1F168B058B87EF8F15D9
:105A300068F00E945634229699278C179D0734F0FF
:105A40008F2D8E5F809314110E945B340E94AC23D3
:105A50000E94AC2B81E090E0DF91CF911F910F91DC
:105A6000FF9008951F93CF93DF93EC010E94752759
:105A7000209711F4C1E0D0E00E94AA23E091D11256
:105A8000F091D21281E08583D0A3C78F0E94CA34DF
:105A9000182F883F80F40E945634212F33272E5F21
:105AA0003F4F99278217930734F0812F8E5F8093A1
:105AB00014110E945B340E94AC230E94AC2B81E045
:105AC00090E0DF91CF911F9108951F930E94752759
:105AD0000E94AA23E091D112F091D21281E090E0CD
