:100000000C9437020C94CA340C9456020C94560289
:100010000C9456020C9456020C9456020C94560200
:100020000C9456020C94F8340C9456020C9456021C
:100030000C9456020C94AB320C9456020C94AB32D6
:100040000C9456020C94DE320C9456020C94560218
:100050000C9456020C9456020C9456020C945602C0
:100060000C9456020C9456020C9456020C945602B0
:100070000C9456020C9456020C9456020C945602A0
:100080000C94E8320C9456020C9456020C945602CE
:100090000C94A4200C9456020C9456020C94560214
:1000A0000C9456020C9456020C9456020C94560270
:1000B0000C9456020C9456020C9456020C94560260
:1000C0000C9456020C9456020C94560202240824F6
:1000D0000B240E24112414241A2417241D24202454
:1000E000232429242C242F2432242624FF230524EE
:1000F00043726561746520446F6E650D0A00455258
:10010000524F523A206372656174696E6720706164
:10011000636B6574207265636F7264207369676EC8
:10012000616C206661696C65640D0A0053746172CC
:1001300074696E672075702E2E2E0D0A004953418A
:10014000204552524F523A206372656174696E675E
:10015000207478207369676E616C206661696C65D4
:10016000640D0A00495341204552524F523A2063D0
:1001700072656174696E67207278207369676E6159
:100180006C206661696C65640D0A00534C4950200F
:100190005258206572726F723A206E726B5F73698B
:1001A000676E616C5F72656769737465720D0A00D2
:1001B000534C4950205258206572726F723A204752
:1001C0006574205369676E616C0D0A00534C495089
:1001D000205458204552524F523A202052656C65A7
:1001E000617365206F662073656D6170686F7265FD
:1001F000206661696C65640D0A00534C49502054B7
:1002000058204552524F523A202041636365737320
:1002100020746F2073656D6170686F726520666110
:10022000696C65640D0A0043433234323020455214
:10023000524F523A202052656C65617365206F669B
:100240002073656D6170686F7265206661696C65A9
:10025000640D0A00434332343230204552524F522B
:100260003A202041636365737320746F2073656D5A
:100270006170686F7265206661696C65640D0A0063
:10028000554E4B4F574E004661696C656420746F44
:10029000206372656174652053656D6170686F726B
:1002A00065004661696C656420746F2063726561E6
:1002B0007465205369676E616C004B65726E656C86
:1002C0002066756E6374696F6E206E6F7420696D41
:1002D000706C656D656E7465640044657669636510
:1002E00020447269766572204572726F72005761A0
:1002F000746368646F67205265737461727400542C
:10030000696D6572204F766572666C6F7700556E09
:1003100068616E646C656420496E74657272757094
:100320007420566563746F72004C6F7720566F6C43
:1003300074616765004578747261205461736B2045
:10034000737461727465642C206973206E726B5FC4
:100350006366672E68206F6B3F0049646C65206F91
:1003600072204B65726E656C20537461636B204F15
:10037000766572666C6F7700556E6578706563742C
:1003800065642052657374617274004475706C69A1
:100390006361746564205461736B20494400536346
:1003A000686564756C6572204D6973736564205768
:1003B000616B657570005461736B20526573657273
:1003C00076652056696F6C6174656400526573656B
:1003D000727665204572726F7220696E2053636871
:1003E0006564756C657200496E76616C6964205352
:1003F0007461636B20506F696E7465720054617331
:100400006B20537461636B204F766572666C6F77F7
:1004100000537461636B20776173206E6F74206486
:100420006566696E6564206173206C617267652022
:10043000656E6F7567682100293A20002A4E524B7D
:10044000204552524F5228000D0A535441434B202D
:1004500044554D500D0A0045464765666700202B00
:100460002D2E303132333435363738396800112487
:100470001FBECFEFD1E2DEBFCDBF12E0A0E0B2E001
:10048000EAE8F5E700E00BBF02C007900D92A23D3D
:10049000B107D9F71AE0A2EDB2E001C01D92A23770
:1004A000B107E1F70E945C040C94C43A0C94163333
:1004B0008091D704992787FD909508951F93CF9336
:1004C000DF93EC018B818E3609F07CC0E885E05328
:1004D000E093B806FF279A85DF01A050BD4F9C939B
:1004E000E159F74F8081192F181B143148F180E032
:1004F00092E00E942E380E942705E091B806FF275F
:100500009F938F93FF93EF93812F99279F938F93BF
:10051000E159F74F808199279F938F938A85992777
:100520009F938F938BE092E09F938F930E94173855
:100530008DB79EB70C960FB6F8949EBF0FBE8DBFB9
:100540009091B806492F55278A85FA01E159F74F4E
:100550008083DA01AC52BC4F2C91210F2C93382FA1
:100560003770283050F0FA01EE5DFA4F2695269547
:1005700026958081280F20833C93FA01EE5DFA4F87
:1005800080818031A8F4FA0194E0EE0FFF1F9A9564
:10059000E1F7E80FF11DE852FB4F81E090E002C067
:1005A000880F991F3A95E2F72081282B20830AC0F3
:1005B000108281E08093D7049093D9028091D00378
:1005C0000E940A27DF91CF911F910895EF92FF9229
:1005D0001F938AE993E090933303809332038BEA6D
:1005E00096E090932F0380932E038CEA95E09093EE
:1005F00031038093300382E08093350311E0109340
:10060000340310933603109337031092380310927B
:10061000390310923A0310923B0380E095E6ADEC6B
:10062000BDE180933C0390933D03A0933E03B093C0
:100630003F03109240031092410310924203109224
:1006400043038093440390934503A0934603B093E0
:100650004703109248031092490310924A031092E4
:100660004B0310924C0310924D0310924E031092C4
:100670004F038DE293E00E94802B8AEA94E09093EE
:100680005208809351082CE4E22E28E0F22E40E03C
:1006900051E067ED73E0C7010E94D43583E0809399
:1006A000540810935308109355081093560884E18A
:1006B00090E0A0E0B0E08093570890935808A09392
:1006C0005908B0935A0810925B0810925C08109277
:1006D0005D0810925E0810925F08109260081092F8
:1006E00061081092620810926308109264081092D8
:1006F00065081092660810926708109268081092B8
:10070000690810926A0880E091EEA5EFB5E0809349
:100710006B0890936C08A0936D08B0936E08C701A6
:100720000E94802B80EF90E00E9491201F91FF900B
:10073000EF9008956F927F928F929F92AF92BF92A7
:10074000CF92DF92EF92FF920F931F93CF93DF939D
:10075000CDB7DEB722970FB6F894DEBF0FBECDBF80
:100760000E94822999279F938F938CE192E09F9317
:100770008F930E94173882E090E00E94E31F81E08F
:1007800090E00E942B0540E061E080E00E94790B40
:1007900060E080E00E94520D0E94850564E787E3D7
:1007A00095E00E9475050F900F900F900F9002C07A
:1007B0000E94422B0E946B058823D1F30E9475256D
:1007C0008093D0038F3F09F456C0F090660252E048
:1007D000652E712C6C0E7D1E4E010894811C911C9F
:1007E00008ED16E04BE2A42E42E0B42E3DEFC32EFE
:1007F0003FEFD32EC00ED11E8F2D0E942D1C0E94C4
:10080000D105882331F0B301C4010E94420C0E943B
:10081000D70581E00E940E06882339F58E2D992791
:10082000E3949F938F9381E090E09F938F93BF9287
:10083000AF921F930F930E946138F801019000203E
:10084000E9F7E95DF640EC5FE9830E94890521E064
:10085000482F6981C6010E94E0058DB79EB70896B2
:100860000FB6F8949EBF0FBE8DBF8F2D0E94B21C95
:100870000E94FA09C1CF8EEF90E00E949120E09192
:10088000390AF0913A0A60858EE00E946E24229621
:100890000FB6F894DEBF0FBECDBFDF91CF911F9191
:1008A0000F91FF90EF90DF90CF90BF90AF909F900F
:1008B0008F907F906F900895CFEFD1E2DEBFCDBFD4
:1008C0000E94261C87E090E00E945B208CE291E071
:1008D0000E9491200E94192380E090E00E94C61F90
:1008E00081E090E00E94C61F82E090E00E94C61F57
:1008F00083E090E00E94C61F20E030E040E050E03E
:1009000060E070E080E090E00E94E42C0E942B0602
:100910000E94E6020E94B92280E090E00C94C43A62
:100920008091D0030E94FE258091D704882379F41A
:1009300061E070E080E090E00090D00304C0660FBA
:10094000771F881F991F0A94D2F70E945C2881E0C4
:1009500090E00895CF92DF92FF920F931F93CF9371
:10096000DF9360916A0A70916B0A20E030E040E00A
:1009700050E08091680A9091690A0E94EB100E94F1
:100980009004F0905B0209E015E0E80121976E0108
:100990008F2D0E942D1C8091D9028F5F80930805B6
:1009A0008150E82FFF2774E0EE0FFF1F7A95E1F7E3
:1009B000E852FB4FD80181919AEA89278D9385E00F
:1009C000A931B807C1F7F60101900020E9F7319786
:1009D000E850F540FF27BF01CE010E949810109209
:1009E000D7048091D902E82FFF2764E0EE0FFF1FA4
:1009F0006A95E1F7E852FB4F80E011928F5F8031FA
:100A0000E1F78F2D0E94B21C0E949004C1CF21E01B
:100A100030E040E050E004C0220F331F441F551F58
:100A20008A95D2F78091D4029091D502A091D602F6
:100A3000B091D702822B932BA42BB52B8093D40299
:100A40009093D502A093D602B093D70208958091D7
:100A5000F50299270895813019F08330D9F531C016
:100A600083E18093B4088CE08093B50884E180939F
:100A7000B60888E18093B70880E18093B80887E1E1
:100A80008093B90882E18093BA0889E18093BB081A
:100A90008EE08093BC0885E18093BD088BE0809355
:100AA000BE088FE08093BF0886E18093C00881E193
:100AB0008093C1088DE08093C2088AE18093C308C7
:100AC00008958FE08093AF0884E18093B00889E1B6
:100AD0008093B10808958091D406813019F481E0A3
:100AE00090E008958FEF9FEF0895662359F00097E7
:100AF00049F09093E8028093E7026093E60281E078
:100B000090E008958FEF9FEF089582E08093D406E0
:100B1000089580913605882311F485EE01C081EE99
:100B2000992787FD9095089580913605882311F0C7
:100B300083E801C083E0992787FD909508958F92FF
:100B4000AF92CF92EF920F93CF93DF93CDB7DEB7F3
:100B5000109292089AE09093990810929A088093C4
:100B60009B0860939C0840939D0810929E082093D8
:100B7000A5080093A608E092A708C092A808A09232
:100B8000A9088092AA088A858093AB088B858093F8
:100B9000AC08DF91CF910F91EF90CF90AF908F90F5
:100BA00008958091BE07992787FD9095089510922A
:100BB000BE071092BF071092C0071092C107089598
:100BC0003327F901EE0FFF1FEE0FFF1FEF5AF84F0B
:100BD000938382836083418341E050E060E070E072
:100BE00004C0440F551F661F771F2A95D2F78091C6
:100BF000FC029091FD02A091FE02B091FF02842BB5
:100C0000952BA62BB72B8093FC029093FD02A0930B
:100C1000FE02B093FF0281E090E008952091FC0273
:100C20003091FD024091FE025091FF0204C05695A2
:100C30004795379527958A95D2F7C90181709070AD
:100C4000089580911905813019F481E090E00895AC
:100C50008FEF9FEF08950F931F9388E29AE0909390
:100C6000100380930F030AE013E040E850E060E5D2
:100C700073E0C8010E94D43584E18093120381E0BF
:100C80008093110380931303809314031092150330
:100C900010921603109217031092180380E896E939
:100CA000A8E9B0E08093190390931A03A0931B0363
:100CB000B0931C0310921D0310921E0310921F0389
:100CC000109220031092210310922203109223030A
:100CD00010922403109225031092260310922703EA
:100CE000109228031092290310922A0310922B03CA
:100CF00010922C03C8010E94802B1F910F91089520
:100D0000AF92BF92CF92DF92EF92FF920F931F9319
:100D1000CF93DF93CDB7DEB724970FB6F894DEBF3D
:100D20000FBECDBFEE24FF2442EEC42E42E0D42EEF
:100D30000E948905E091E702F091E80280836091CA
:100D4000F502C6010E94961A0E94B91510928F08EA
:100D50008AEF0E94383280E00E941D3210E012C0FB
:100D60000E94A732181771F00E94A732182F08941A
:100D7000E11CF11C81E1E81687E2F80618F0EE2488
:100D8000FF2405C00E944712082F882349F30E94C0
:100D9000EF310E94A732A82EBB24A4E0B0E0AA0E37
:100DA000BB1E002371F006C00E94A7329927A81627
:100DB000B90638F060E880E00E942C13082F8823E1
:100DC00099F30E94A115013009F0B2CF2091E702FA
:100DD0003091E802F90192818091D303981709F0CC
:100DE000A7CF81E090E0A0E0B0E089839A83AB8355
:100DF000BC838093BE079093BF07A093C007B093B6
:100E0000C10780918208909183082181820F911DF2
:100E1000909383088093820882E090E00E94A91F4B
:100E200060916A0A70916B0A89E690E00E94EA3745
:100E300089819A81AB81BC810090720804C0880FBF
:100E4000991FAA1FBB1F0A94D2F789839A83AB8389
:100E5000BC8389810E940A2700938F081092BE07E5
:100E60001092BF071092C0071092C1070E94123261
:100E70008AE00E94383287E00E941D326CE977ECEC
:100E800080E090E00E942C330E942032E091390AE9
:100E9000F0913A0A8AE090E0968B858B80918F08DA
:100EA000992724960FB6F894DEBF0FBECDBFDF9111
:100EB000CF911F910F91FF90EF90DF90CF90BF9057
:100EC000AF900895EF92FF920F931F93CF93DF930C
:100ED000CDB7DEB721970FB6F894DEBF0FBECDBFFA
:100EE0006091F50282EE92E00E94961A0E94B91576
:100EF0000E94A732898389818C5F898308C00E9400
:100F0000A7329981981718F40E94A115A3C00E94D6
:100F100047128823A1F30E94F731909391088093A0
:100F200090080E94A732898389818B5F89830EC0D4
:100F30000E94A7329981981748F486E392E09F9324
:100F40008F930E9417380F900F9084C060E880E064
:100F50000E942C13182F882359F30E94A1151130D9
:100F600009F078C081E090E00E94A91F60916A0AB0
:100F700070916B0A82E790E00E94EA3761E0E62E0A
:100F8000F12C012D112DE092BE07F092BF070093C6
:100F9000C0071093C107809172080E940A27E09150
:100FA000E702F091E802028004C0EE0CFF1C001F73
:100FB000111F0A94D2F78091D4029091D502A0918A
:100FC000D602B091D702E822F9220A231B23E114AA
:100FD000F10401051105F1F12091AB0527FF3AC09D
:100FE00080913605882311F083E801C083E0809367
:100FF000C5088093490789E497E09093070380939D
:10100000060322FF02C082E015C0809190089091F3
:10101000910820917E0830917F08821B930B90935A
:101020007B0880937A08292F332720934A078093DF
:101030004B0784E0809305034091F7025091F8023A
:1010400060917E0870917F082BE838E083E093E0A0
:101050000E94CF1721960FB6F894DEBF0FBECDBF0A
:10106000DF91CF911F910F91FF90EF900895CF9254
:10107000DF92EF92FF920F931F93CF93DF93CDB741
:10108000DEB721970FB6F894DEBF0FBECDBFF82EA6
:1010900081E08093F0020F2D1127F801EE0FFF1F62
:1010A000EE0FFF1FEF5AF84F828193819093EF026A
:1010B0008093EE0280818093ED02A091EE02B091C8
:1010C000EF0281818C93E091EE02F091EF0280912A
:1010D0008208909183088183E091EE02F091EF0203
:1010E0008091D80282830E94EF3160E875E280E04F
:1010F00090E00E942C334091F7025091F8026091E9
:101100007E0870917F082BE838E08BEE92E00E9419
:10111000CF178823D1F083E090E00E94A91F60914F
:101120006A0A70916B0A84E790E00E94EA37809126
:101130008B0890918C0820917E0830917F08821B4B
:10114000930B9093790880937808809180080E948F
:101150000A2781E090E0A0E0B0E004C0880F991F6A
:10116000AA1FBB1F0A95D2F780959095A095B095C0
:101170002091FC023091FD024091FE025091FF024D
:10118000282339234A235B232093FC023093FD025A
:101190004093FE025093FF028091AB0587FF1BC175
:1011A00080913605823009F416C10E94B9150E945B
:1011B000EF3160E070E180E090E00E942C330E940B
:1011C000A732898389818E5F898329C00E94A732D3
:1011D0009981981720F580917D08F81651F4809137
:1011E000C6089091C70849969093C7088093C6088F
:1011F00013C0F81A2091C6083091C7084F2D552703
:1012000047FD50951F1414F0275E3F4F240F351FE4
:101210003093C7082093C6080E94A115DCC00E9425
:101220004712882399F280915B020E94B21C0E94AF
:10123000A732898389818E5F898312C00E94A73279
:101240009981981768F486E392E09F938F930E94A8
:1012500017380E94A732809373080F900F90BBC07D
:1012600064E081E00E942C13182F882339F30E9438
:10127000A115113009F0AFC01092C7081092C6082E
:10128000E091E702F091E80290819093C508809187
:10129000AB0587FFA0C080913605823009F49BC062
:1012A00097FF99C081819927982F8827228133271A
:1012B000822B932B90937B0880937A0880E090E0B8
:1012C0000E94A91F60916A0A70916B0A81E690E002
:1012D0000E94EA3700917A0810917B088091780883
:1012E00090917908081B190B82E389830E94A73229
:1012F000D82E17FD3BC086E08D15C0F1D092730843
:101300000E94123274E6E72E79E1F72EC80164E6F6
:1013100079E10E94443AC62EC394C0928508C80160
:1013200064E679E10E94443AE81AF90AF0928A08E0
:10133000E09289080E94EF3182E390E00E94E1315F
:1013400010916502812F0E942D1C0E94F7318E158D
:101350009F05D8F3812F0E94B21C8D2D8C0D0E9409
:101360001D3284E690E00E94E1312DC01095019578
:101370001F4F8FE1013418070CF427C086E08D154C
:1013800020F10E9412320E94EF31000000000000A4
:10139000000089818150898389818F3FB1F7B8012D
:1013A00080E090E00E942C338D2D0E941D3284E657
:1013B000898300000000000000008981815089833A
:1013C00089818F3FB1F70E9420320E94EF3182E382
:1013D00090E00E94E13121960FB6F894DEBF0FBE77
:1013E000CDBFDF91CF911F910F91FF90EF90DF90D4
:1013F000CF900895809172080E94FE258091800808
:101400000E94FE2521E030E040E050E0CA01B90131
:101410000090800804C0660F771F881F991F0A94E8
:10142000D2F70090720804C0220F331F441F551FCB
:101430000A94D2F7622B732B842B952B0E945C2885
:1014400081E090E008958093F5020E94C01A08950B
:10145000CF92DF92EF92FF920F931F931092D406D8
:101460000E94422B8091D4068823D1F381E080939F
:10147000D406C0905A028C2D0E94B21C00E010E0ED
:101480000E94EF310E94F73190937F0880937E088D
:1014900080918208909183089093C3078093C2073C
:1014A0008536910530F0855690409093C307809320
:1014B000C207809182089091830890938E08809350
:1014C0008D0880918208909183088536910598F067
:1014D000809182089091830884569040909383086D
:1014E0008093820880917608909177080196909376
:1014F0007708809376082091820830918308809144
:101500008F08813009F08AC0C90169E170E00E944A
:10151000303AD82EE0918108E00FE0938108FF2750
:10152000EF70F070EC54F74F80818093B3080E9405
:10153000230A85E18D15E0F4809136058230C1F4EF
:101540008091880863E00E94243AE92F90938808EC
:10155000FF27E155F74F80818093B3080E94230A4B
:1015600087E18D1528F4809188088F5F8093880823
:1015700011E0E12EF12C012D112D0D2C04C0EE0CEB
:10158000FF1C001F111F0A94D2F78C2D0E942D1CE6
:101590008091B4069091B506A091B606B091B706B9
:1015A0002091FC023091FD024091FE025091FF0219
:1015B00082239323A423B5238E219F21A023B1232B
:1015C0000097A105B10531F08D2D0E943708D0920A
:1015D0007D0820C080911E0590911F05A0912005D7
:1015E000B0912105E822F9220A231B23E114F1041A
:1015F0000105110579F08091BE079091BF07A09178
:10160000C007B091C1070097A105B10519F48D2D50
:101610000E9462078C2D0E94B21C0EC00E94890598
:101620008093AB0580913605823019F00E948006C8
:1016300001C081E080938F082091C6083091C708CF
:1016400080915702909158022817390788F18091AC
:101650003605823069F110928F081092C7081092F7
:10166000C60884E690E09093830880938208809176
:10167000D1039091D20301969093D2038093D1032A
:101680008091D802882349F0E091D303E093810848
:10169000FF27EC54F74F808104C01092810880919D
:1016A000B4088093B3088091B3080E94230AE6CE61
:1016B00080918208909183080E94EA0D8C018091AC
:1016C000820890918308800F911F909383088093E4
:1016D000820880E090E00E94C61F10927908109264
:1016E0007808C8010E940F2B80E090E00E94E31F61
:1016F000C7CEFF920F931F93082FF62E142F0E9430
:101700007525809372088F3F19F484E691E008C034
:101710000E947525809380088F3F79F48DE391E0D6
:101720000E949120E091390AF0913A0A60858EE09A
:101730000E946E248FEF90E087C01092E802109212
:10174000E7021092E6020E94EB31109277081092A5
:10175000760884E690E09093830880938208109244
:101760008F08109219051092C7081092C6080093AE
:101770003605F092D8021093D3031092BE07109250
:10178000BF071092C0071092C1071092FC0210927E
:10179000FD021092FE021092FF0284E68093FB028B
:1017A00080E49FE19093FA028093F90280EA9FE03F
:1017B0009093F8028093F7028FE08093F50281E81E
:1017C00099E19093F4028093F302EBEBF6E011922F
:1017D00086E0E43DF807D9F710921E0510921F0528
:1017E00010922005109221051092B4061092B506B1
:1017F0001092B6061092B70621E839E141E254E2B0
:101800006FE082EE92E00E94D31A81E080937C0820
:1018100010928808FF2041F010938108E12FFF27E4
:10182000EC54F74F808104C0109281088091B40875
:101830008093B3088091B3080E94230A1092D203C8
:101840001092D10381E090E01F910F91FF900895D5
:10185000809172080E94FE258091BE07882379F44A
:1018600061E070E080E090E00090720804C0660FD4
:10187000771F881F991F0A94D2F70E945C2881E085
:1018800090E00895FC01DB018091BE07882329F4D4
:1018900010821C9280E090E008958091E5028083A0
:1018A0008091EA028C938091E7029091E80208957A
:1018B000CF92DF92EF92FF920F931F93CF93DF931C
:1018C000EE24FF2402EEC02E02E0D02E6091F5023D
:1018D000C6010E94961A0E94B91510928F0800E066
:1018E00012C00E94A732081771F00E94A732082F79
:1018F0000894E11CF11C81E1E81687E2F80618F073
:10190000EE24FF2405C00E944712182F882349F3B4
:101910000E94A732C82FDD272496112371F006C03C
:101920000E94A7329927C817D90738F060E880E0ED
:101930000E942C13182F882399F30E94A1151130AF
:1019400029F6E091E702F091E80284858A3009F0F7
:10195000BDCF81E090E0A0E0B0E08093BE0790931F
:10196000BF07A093C007B093C10786850E942B05CF
:10197000E091E702F091E802E785E0938108FF2714
:10198000EC54F74F80818093B3080E94230A0091A2
:10199000E7021091E802E8016DE477E0888D882382
:1019A00071F121E030E040E050E004C0220F331F2D
:1019B000441F551F8A95D2F78091B4069091B506C1
:1019C000A091B606B091B706822B932BA42BB52B12
:1019D0008093B4069093B506A093B606B093B7066D
:1019E000E88DFF27E554F94F81E08083888DFB0166
:1019F0008193BF012196F7E061357F0779F6E80111
:101A000060E08C8D882349F121E030E040E050E037
:101A100004C0220F331F441F551F8A95D2F78091AF
:101A20001E0590911F05A0912005B0912105822BE4
:101A3000932BA42BB52B80931E0590931F05A09389
:101A40002005B0932105EC8DFF27E554F94F81E087
:101A500080836F5F21966430A1F681E090E0A0E082
:101A6000B0E00090720804C0880F991FAA1FBB1F26
:101A70000A94D2F70E940A2781E0809319051092F8
:101A8000BE071092BF071092C0071092C10781E0F5
:101A900090E0DF91CF911F910F91FF90EF90DF9039
:101AA000CF900895282F6093D303823041F5809121
:101AB000B4069091B506A091B606B091B7068460C1
:101AC0008093B4069093B506A093B606B093B7067C
:101AD00080911E0590911F05A0912005B0912105D0
:101AE000886080931E0590931F05A0932005B093F6
:101AF000210581E08093BD068093BE0652C08130EF
:101B000039F580911E0590911F05A0912005B09197
:101B10002105846080931E0590931F05A0932005E6
:101B2000B09321058091B4069091B506A091B606B8
:101B3000B091B70688608093B4069093B506A093E1
:101B4000B606B093B7062093BD062093BE0629C003
:101B5000882339F58091B4069091B506A091B60618
:101B6000B091B70682608093B4069093B506A093B7
:101B7000B606B093B70680911E0590911F05A091FF
:101B80002005B0912105806180931E0590931F056B
:101B9000A0932005B093210581E08093BC0680933B
:101BA000BF0681E090E008958A3118F08FEF9FEF33
:101BB0000895E82FFF27E554F94F8081992787FD85
:101BC00090950895EBEBF6E0119286E0E43DF8077E
:101BD000D9F7089569E170E00E94303A682F482FE4
:101BE0000CC0242F3327F901E554F94F8081882355
:101BF00021F0C901861B910908954F5F493188F38F
:101C000020E030E0422F5527FA01E554F94F80815A
:101C1000882339F089E190E0861B9109840F951F94
:101C200008952F5F3F4F621768F70895EAE7F0E0E5
:101C300083E08083ACE7B0E080E48C9380818068AF
:101C400080831092C9088C91807E8C939C918C919A
:101C5000807E892B8C93089588EC90E00E94E1317E
:101C6000089580917A00806480937A0080917A0050
:101C700084FFFCCF0E942C0E2091780033278091A6
:101C800079009927982F8827822B932B0895FF920C
:101C90000F931F93CF93DF93CDB7DEB722970FB685
:101CA000F894DEBF0FBECDBF0E94BE118C0100971D
:101CB00011F00E940828159AFF248F2D8062992721
:101CC0009A83898340988BE18EBD0DB407FEFDCFCA
:101CD00089819A81892F99278EBD0DB407FEFDCF8A
:101CE00089819A818EBD0DB407FEFDCF409A82E0B6
:101CF00090E00E94E13140988BE58EBD0DB407FE67
:101D0000FDCF1EBC0DB407FEFDCF8EB59927982FD1
:101D100088279A8389831EBC0DB407FEFDCF898175
:101D20009A812EB53327282B392B3A832983409A61
:101D300089819A8186FD05C0F3942FE1F21609F09E
:101D4000BCCF0115110519F0C8010E94B626FF206D
:101D5000C9F40E94310E9A83898389819A818F3ACE
:101D6000910530F089819A818E5A90409A838983B7
:101D700089819A818A54914098F48AE491E09A8307
:101D800089830EC02DE7F29E9001112488E293E230
:101D9000821B930B6BE170E00E94443A7A83698363
:101DA00089819A8122960FB6F894DEBF0FBECDBF0F
:101DB000DF91CF911F910F91FF900895CF92DF9205
:101DC000EF92FF920F931F93CF93DF93982FEA0127
:101DD000122F823009F481C0833030F4882371F0EF
:101DE000813009F0D2C010C0843009F481C0843041
:101DF00008F477C0853009F0C8C02DC080E880BBEA
:101E00008F9A0E94160E6AC08091C808813009F42A
:101E1000C3C09093C808772760FF13C08F981092B3
:101E2000C90880917C00807E80937C0090917C002A
:101E300080917C00807E892B80937C0088EE93E0EB
:101E40009FC061FDA9C062FDA7C067707070672B5D
:101E500009F4A2C097C0822F8150823008F099C047
:101E60009091C908892F8150863018F40E94310E54
:101E700022C0992319F40E94470E1DC0973051F5D6
:101E8000F1E0CF2EF4E0DF2EEE24FF2400E00E94EC
:101E9000310E8C159D0508F46C01E816F90608F45E
:101EA0007C018DE790E00E94E1310F5F003479F70B
:101EB000C7018C199D09123031F48883892F992725
:101EC000898381E008C0113029F49695879596950D
:101ED0008795888380E08F5F09C08F9A1092C80829
:101EE00051C0613009F058C08091C908992756C087
:101EF000613009F051C02730D9F42093C90880918E
:101F00007C008F7780937C0080917C00806480933C
:101F10007C0080917C00807E80937C0090917C008E
:101F200080917C009360807E982B90937C0026C0EB
:101F3000283020F081E00E94A9232EC02093C908F8
:101F4000213049F480917C008F7780937C008091D0
:101F50007C00806403C080917C00806C80937C0056
:101F600080917C00807E80937C0090917C008091A9
:101F70007C00807E892B812B80937C0088EC90E014
:101F80000E94E13181E090E009C060E08CE00E94B5
:101F90006E2480E090E002C08FEF90E0DF91CF915F
:101FA0001F910F91FF90EF90DF90CF900895809157
:101FB0005902992787FD909508958091D0089091B6
:101FC000D1080E94A737992708958F929F92AF92C8
:101FD000BF92CF92DF92EF92FF920F931F93CF9316
:101FE000DF93EC01862E0E948420D82E8FEFD81626
:101FF00021F480EB91E00E9491208D2D0E94FE251E
:102000008F3F71F48BE891E00E94912009C080918C
:10201000680A9091690A0E94A737813C91F00CC030
:1020200081E0E82EF12C012D112D04C0EE0CFF1CD7
:10203000001F111FDA94D2F781E00E94F41B88235D
:1020400031F757016801C801B7010E945C288091EF
:10205000680A9091690A0E94A737982E81EC981619
:1020600059F70E94DD0FF82E10E000E02BC08091A0
:10207000680A9091690A0E94A737803C19F08B3D4D
:1020800059F015C0112341F10F77901629F5812FD2
:10209000992787FD909522C081E00E94F41B882338
:1020A00021F4C601B5010E945C280E94DD0F982E24
:1020B000181540F41F1530F4FE01E10FF11D808367
:1020C0001F5F080F81E00E94F41B882381F6C60180
:1020D000B5010E945C28F6CF8FEF9FEFDF91CF9183
:1020E0001F910F91FF90EF90DF90CF90BF90AF9036
:1020F0009F908F9008951F93182F2091CA08222334
:1021000069F0332788EE93E0AC01249FC001259F3E
:10211000900D349F900D11240E94E1316091CB0805
:102120007091CC08812F99270E94EA371F9108955A
:10213000FF920F931F93CF93DF93EC01162F61381B
:1021400010F083E03EC08091CD089091CE080E94AF
:1021500008288F3F31F48AEF91E00E94912081E0BE
:1021600030C081EC0E947B10812F0E947B10FF24E5
:1021700000E00EC08881803C11F08B3D19F48BED9E
:102180000E947B1088810E947B108991080FF39434
:10219000F11681F7802F8F770E947B1080EC0E94D0
:1021A0007B108091CD089091CE080E94B6268F3F7B
:1021B00019F081E090E009C08CEC91E00E94912040
:1021C00082E00E94A9238FEF9FEFDF91CF911F91B3
:1021D0000F91FF9008959093D1088093D008709349
:1021E000CC086093CB084093CF082093CA086FEFC8
:1021F00081E00E9437269093CE088093CD088F5FB0
:102200009F4F31F40E948229682F8FE00E946E2434
:1022100081E08093590281E090E0089599279C0124
:10222000265A3E4B0B97880F991F880F991F280F2E
:10223000391FF894409888E18EBD0DB407FEFDCF9C
:10224000832F99278EBD0DB407FEFDCF2EBD0DB493
:1022500007FEFDCF409A78940895F89440981EBCEC
:102260000DB407FEFDCF8EB5409A789486FFF5CF6A
:1022700008958091E70899270895CF93DF93DC01B3
:10228000409889EC8EBD0DB407FEFDCF80E88EBD71
:102290000DB407FEFDCF92E09150FD01E90FF11D55
:1022A00080818EBD0DB407FEFDCF9923A9F7409A1A
:1022B00040988BEC8EBD0DB407FEFDCF80E88EBD3F
:1022C0000DB407FEFDCF92E09D012E5F3F4FE90167
:1022D0009150F901E90FF11D80818EBD0DB407FE0B
:1022E000FDCF9923A1F7409A8C918093E808FD01D6
:1022F00081818093E90888818093EA0883818093B3
:10230000EB08DF91CF910895409889E18EBD0DB41F
:1023100007FEFDCF83E08EBD0DB407FEFDCF86E046
:102320008EBD0DB407FEFDCF409A40988AE18EBD68
:102330000DB407FEFDCF8EE08EBD0DB407FEFDCFC0
:102340008EE08EBD0DB407FEFDCF409A81E08093F4
:10235000D8080895409889E18EBD0DB407FEFDCFE1
:1023600081E08EBD0DB407FEFDCF84EC8EBD0DB4B3
:1023700007FEFDCF409A1092D80808958091D608A4
:102380009091D70808952091D9083091DA083860E3
:102390003093DA082093D908409881E18EBD0DB4BE
:1023A00007FEFDCF832F99278EBD0DB407FEFDCF0D
:1023B0002EBD0DB407FEFDCF409A08952091D90897
:1023C0003091DA08377F3093DA082093D9084098A3
:1023D00081E18EBD0DB407FEFDCF832F99278EBD01
:1023E0000DB407FEFDCF2EBD0DB407FEFDCF409A04
:1023F000089581E08093E6082091D9083091DA08A9
:1024000020613093DA082093D908409881E18EBD8D
:102410000DB407FEFDCF832F99278EBD0DB407FEA7
:10242000FDCF2EBD0DB407FEFDCF409A089510924A
:10243000E6082091D9083091DA082F7E3093DA0827
:102440002093D908409881E18EBD0DB407FEFDCFE1
:10245000832F99278EBD0DB407FEFDCF2EBD0DB481
:1024600007FEFDCF409A089589B1992766E09695B9
:1024700087956A95E1F78170907008958CB19927DE
:1024800087FD90958827990F881F9927089589B10E
:102490009927E6E096958795EA95E1F78170907027
:1024A00008958091EC08882319F480E090E0089565
:1024B0008091EC081092EC08992787FD909508957B
:1024C000409888E08EBD0DB407FEFDCF409A40983D
:1024D00088E08EBD0DB407FEFDCF409A089580912F
:1024E000D6089091D7080E940828409886E08EBDB3
:1024F0000DB407FEFDCF409A8091D6089091D70881
:102500000E94B62608958091D6089091D7080E941F
:102510000828409884E08EBD0DB407FEFDCF409A98
:102520008091D6089091D7080E94B6260895809190
:10253000D6089091D7080E940828409886E08EBD62
:102540000DB407FEFDCF409A409882E18EBD0DB4D8
:1025500007FEFDCF85E08EBD0DB407FEFDCF1EBC8E
:102560000DB407FEFDCF409A40988EE28EBD0DB4AB
:1025700007FEFDCF1EBC0DB407FEFDCF1EBC0DB483
:1025800007FEFDCF409A0E9460128091D60890917C
:10259000D7080E94B62608958091D6089091D70852
:1025A0000E940828409886E08EBD0DB407FEFDCF3E
:1025B000409A409882E18EBD0DB407FEFDCF85E0C4
:1025C0008EBD0DB407FEFDCF88E08EBD0DB407FEB5
:1025D000FDCF409A40988EE28EBD0DB407FEFDCF30
:1025E00088E18EBD0DB407FEFDCF1EBC0DB407FE05
:1025F000FDCF409A0E9460128091D6089091D70832
:102600000E94B62608950F931F93082F8091D60835
:102610009091D7080E940828112707FD1095302FA8
:1026200022272068409883E18EBD0DB407FEFDCFC0
:10263000832F99278EBD0DB407FEFDCF2EBD0DB49F
:1026400007FEFDCF409A8091D6089091D7080E944E
:10265000B6261F910F9108950F931F93CF93DF9389
:10266000CDB7DEB724970FB6F894DEBF0FBECDBF4F
:10267000182F062F8091D6089091D7080E9408281D
:10268000679B4CC21092E708679B25C0319923C015
:1026900040988FE78EBD0DB407FEFDCF1EBC0DB474
:1026A00007FEFDCF8EB5409A409888E08EBD0DB4F0
:1026B00007FEFDCF409A409888E08EBD0DB407FE1E
:1026C000FDCF409A8091D6089091D7080E94B626F7
:1026D0008FEF9FEF2BC240988FE78EBD0DB407FEA2
:1026E000FDCF1EBC0DB407FEFDCF4EB5409A4F770F
:1026F00019F540988FE78EBD0DB407FEFDCF1EBCC7
:102700000DB407FEFDCF8EB5409A409888E08EBD8F
:102710000DB407FEFDCF409A409888E08EBD0DB401
:1027200007FEFDCF409A8091D6089091D7080E946D
:10273000B6268EEF9FEFFAC145308CF0E091DB08B2
:10274000F091DC08242F332727FD30952B503040A3
:102750008481992787FD909582179307F4F5409817
:102760008FE78EBD0DB407FEFDCF60E070E0242F33
:10277000332727FD309506C01EBC0DB407FEFDCFE4
:102780006F5F7F4F862F99278217930714F4319933
:10279000F3CF409A40988FE78EBD0DB407FEFDCF72
:1027A0001EBC0DB407FEFDCF8EB5409A409888E060
:1027B0008EBD0DB407FEFDCF409A409888E08EBDD7
:1027C0000DB407FEFDCF409A8091D6089091D708AE
:1027D0000E94B6268DEF9FEFA9C1E091DB08F09132
:1027E000DC084C5043831123B1F0E091DB08F091F9
:1027F000DC088381992787FD9095202F3327821746
:10280000930749F08091D6089091D7080E94B62688
:102810008AEF9FEF8BC140988FE78EBD0DB407FE06
:10282000FDCFFE0131969E012D5F3F4F1EBC0DB4C2
:1028300007FEFDCF8EB58193E217F307B9F7409AF3
:10284000E091DB08F091DC0889819A81B5E09695EA
:102850008795BA95E1F78170878340988FE78EBDA1
:102860000DB407FEFDCF1EBC0DB407FEFDCFE091F9
:10287000DB08F091DC088EB58083409A40988FE7A2
:102880008EBD0DB407FEFDCF80E007C01EBC0DB4A9
:1028900007FEFDCF8F5F843011F03199F7CF409A5A
:1028A00040988FE78EBD0DB407FEFDCF20E030E0ED
:1028B0001EBC0DB407FEFDCFE091DB08F091DC08F3
:1028C000E20FF31F8EB581832F5F3F4F223031051A
:1028D00079F7409A89819A8183FF56C040988FE7A3
:1028E0008EBD0DB407FEFDCFE2EDF8E01EBC0DB4C9
:1028F00007FEFDCF8EB5819388E0E63DF807B1F77E
:10290000409A409889E98EBD0DB407FEFDCF80E85E
:102910008EBD0DB407FEFDCF92E09150E92FFF2749
:10292000EE52F74F80818EBD0DB407FEFDCF992387
:10293000A1F7409A40988BE98EBD0DB407FEFDCFFC
:1029400080E88EBD0DB407FEFDCF92E09150E92FD7
:10295000FF27EC52F74F80818EBD0DB407FEFDCFEF
:102960009923A1F7409A40988CE08EBD0DB407FEE4
:10297000FDCF409A81E08093E708E091DB08F09179
:10298000DC0883818450838340988FE78EBD0DB42B
:1029900007FEFDCF40E050E011C01EBC0DB407FEA5
:1029A000FDCFE091DB08F091DC080580F681E02D99
:1029B000E60FF11D8EB580834F5F5F4F642FE0916E
:1029C000DB08F091DC08242F33278381992787FDCA
:1029D0009095281739070CF3409A40988FE78EBDE1
:1029E0000DB407FC0AC0FCCF0DB407FEFDCF5EB5E9
:1029F000409A40988FE78EBD02C01EBCF5CF0DB443
:102A000007FEFDCFFE0133969E012B5F3F4F1EBC9C
:102A10000DB407FEFDCF8EB58193E217F307B9F72A
:102A2000409AE091DB08F091DC088B81808740E0E0
:102A300020E030E00AC0E091DB08F091DC088581FD
:102A40009681A80FB91F8C91480F822FE091DB0867
:102A5000F091DC082F5F3F4FA82FBB278381992778
:102A600087FD9095A817B90734F3451719F14098D9
:102A70008FE78EBD0DB407FEFDCF1EBC0DB407FE63
:102A8000FDCF8EB5409A409888E08EBD0DB407FE0C
:102A9000FDCF409A409888E08EBD0DB407FEFDCF73
:102AA000409A8091D6089091D7080E94B6268CEF64
:102AB0009FEF3CC08C8187FF0EC08091EC088F5F38
:102AC0008093EC088091D6089091D7080E94B62692
:102AD00081E090E02BC040988FE78EBD0DB407FEDB
:102AE000FDCF1EBC0DB407FEFDCF8EB5409A4098B9
:102AF00088E08EBD0DB407FEFDCF409A409888E077
:102B00008EBD0DB407FEFDCF409A8091D6089091FE
:102B1000D7080E94B6268BEF9FEF08C08091D60899
:102B20009091D7080E94B62680E090E024960FB6D8
:102B3000F894DEBF0FBECDBFDF91CF911F910F91F3
:102B400008958091D6089091D7080E940828109285
:102B5000E308409886E08EBD0DB407FEFDCF409A95
:102B60001092EC088091D6089091D7080E94B62662
:102B700008958091D6089091D7080E94082881E096
:102B80008093E308409883E08EBD0DB407FEFDCF2F
:102B9000409A409888E08EBD0DB407FEFDCF409A64
:102BA0001092EC088091D6089091D7080E94B62622
:102BB00008958091D6089091D7080E94082881E056
:102BC0008093E308409883E08EBD0DB407FEFDCFEF
:102BD000409A409888E08EBD0DB407FEFDCF409A24
:102BE0001092EC088091D6089091D7080E94B626E2
:102BF00008951F93182F8091D6089091D7080E94AE
:102C00000828212F33272F713070206E306A4098AA
:102C100085E18EBD0DB407FEFDCF832F99278EBDB4
:102C20000DB407FEFDCF2EBD0DB407FEFDCF409ABB
:102C30008091D6089091D7080E94B6261F910895DA
:102C4000EF92FF920F931F93CF93DF93CDB7DEB731
:102C500022970FB6F894DEBF0FBECDBF8C018091D6
:102C6000D6089091D7080E9408285091D80855237B
:102C700039F040988DE08EBD0DB407FEFDCF409A2F
:102C8000F8014281642F772767FD7095A0E020E06E
:102C900030E008C0F80183819481E80EF91EF70145
:102CA0008081A80F822F2F5F3F4FE82EFF24E6166A
:102CB000F70684F3942F945F51119C5F6799FECFC0
:102CC0004E99FCCFF894409889E08EBD0DB407FE74
:102CD000FDCF409A409889E08EBD0DB407FEFDCF30
:102CE000409A40988EE38EBD0DB407FC05C0FCCF22
:102CF0000DB407FC30C1FCCF9EBDFACF81E698E849
:102D00009A838983552329F089819A8188609A83DF
:102D1000898340988EE38EBD0DB407FEFDCFFE0182
:102D200031969E012D5F3F4F80818EBD0DB407FE11
:102D3000FDCF3196E217F307B9F7409A40988EE33A
:102D40008EBD0DB407FC05C0FCCF0DB407FC0EC151
:102D5000FCCF8091DD088EBDF8CF0DB407FEFDCF0E
:102D600020E030E0F901E152F74F80818EBD0DB4D3
:102D700007FEFDCF2F5F3F4F2230310599F7409A74
:102D800040988EE38EBD0DB407FEFDCF20E030E00D
:102D9000F801E20FF31F80818EBD0DB407FEFDCF59
:102DA0002F5F3F4F2230310599F7409A40988EE3CC
:102DB0008EBD0DB407FEFDCF20E030E0F901EF51EC
:102DC000F74F80818EBD0DB407FEFDCF2F5F3F4FC3
:102DD0002230310599F7409A552399F040988EE3B7
:102DE0008EBD0DB407FEFDCFE8EEF8E080818EBD0C
:102DF0000DB407FEFDCF319688E0EC3EF807B1F741
:102E0000409A40988EE38EBD0DB407FEFDCF20E0C2
:102E100030E00DC0F80183819481480F591FFA01F9
:102E200080818EBD0DB407FEFDCF2F5F3F4F422F37
:102E300055274617570774F3409A40988EE38EBD86
:102E40000DB407FC05C0FCCF0DB407FC94C0FCCF4B
:102E5000AEBDFACF8091E308882339F4409883E02F
:102E60008EBD0DB407FEFDCF409A40981EBC0DB438
:102E700007FEFDCF8EB5409A81FFF7CF00E0409866
:102E800085E08EBD0DB407FEFDCF409A40981EBC74
:102E90000DB407FEFDCF1EB5409A0F5F053651F405
:102EA00078948091D6089091D7080E94B62680E049
:102EB00090E068C084E690E00E94F22013FD08C014
:102EC000DECF409884E08EBD0DB407FEFDCF409A62
:102ED00078944E9BFECF4E99FECF8091E6088823D2
:102EE00091F084EA92E00E94F220319B0EC040985B
:102EF0008FE78EBD0DB407FEFDCF1EBC0DB407FEDF
:102F0000FDCF8EB5409A11E00FC0409888E08EBD8D
:102F10000DB407FEFDCF409A409888E08EBD0DB4F9
:102F200007FEFDCF409A10E0F894409886E08EBDF1
:102F30000DB407FEFDCF409A78948091DD088F5F35
:102F40008093DD088091D6089091D7080E94B6261C
:102F5000812F992717C0409A81E498E89A83898342
:102F60008091E608882309F0C9CECCCE409A4098DB
:102F70008EE38EBDF2CE409AF8018581882309F058
:102F800069CF9FCF22960FB6F894DEBF0FBECDBF9C
:102F9000DF91CF911F910F91FF90EF9008958F9245
:102FA0009F92BF92CF92DF92EF92FF920F931F9367
:102FB000CF93DF93CDB7DEB722970FB6F894DEBF7D
:102FC0000FBECDBF8C016B017A0149018091D608FB
:102FD0009091D7080E9408280E94A732409888E064
:102FE0008EBD0DB407FEFDCF409A409888E08EBD9F
:102FF0000DB407FEFDCF409A6799FECF4E99FCCFE6
:10300000F894409889E08EBD0DB407FEFDCF409A3C
:10301000409889E08EBD0DB407FEFDCF409AF801BF
:103020006281462F552747FD5095BB2420E030E0B4
:1030300007C0F80183819481A80FB91F8C91B80E45
:10304000822F2F5F3F4FA82FBB27A417B5078CF304
:10305000962F945F40988EE38EBD0DB407FC05C09B
:10306000FCCF0DB407FC18C1FCCF9EBDFACF81E6A2
:1030700098E89A83898340988EE38EBD0DB407FE4D
:10308000FDCFFE0131969E012D5F3F4F80818EBDA9
:103090000DB407FEFDCF3196E217F307B9F7409A5A
:1030A00040988EE38EBD0DB407FC05C0FCCF0DB477
:1030B00007FCFBC0FCCF8091DD088EBDF8CF0DB4BE
:1030C00007FEFDCF20E030E0F901E152F74F8081AB
:1030D0008EBD0DB407FEFDCF2F5F3F4F223031056F
:1030E00099F7409A40988EE38EBD0DB407FEFDCF50
:1030F00020E030E0F801E20FF31F80818EBD0DB4B7
:1031000007FEFDCF2F5F3F4F2230310599F7409AE0
:1031100040988EE38EBD0DB407FEFDCF20E030E079
:10312000F901EF51F74F80818EBD0DB407FEFDCF41
:103130002F5F3F4F2230310599F7409AB701C60102
:103140000E942C33F8018581882379F18091E3086E
:10315000882339F4409883E08EBD0DB407FEFDCF7F
:10316000409AEE24409885E08EBD0DB407FEFDCF59
:10317000409A40981EBC0DB407FEFDCFFEB4409AA5
:10318000E394F5E6EF1651F478948091D608909187
:10319000D7080E94B62680E090E08EC084E690E0DA
:1031A0000E94F220F3FC08C0DDCF409884E08EBD81
:1031B0000DB407FEFDCF409A80915A020E942D1C4B
:1031C0008091840090918500F401918380834098E0
:1031D0008EE38EBD0DB407FEFDCFF8018281482F2E
:1031E000552747FD509520E030E00CC0F801838161
:1031F0009481A80FB91F8C918EBD0DB407FEFDCF31
:103200002F5F3F4FA22FBB27A417B5077CF3409A2F
:1032100040988EE38EBD0DB407FC05C0FCCF0DB405
:1032200007FC48C0FCCFBEBCFACF4E9BFECFF89443
:103230004E99FECF409888E08EBD0DB407FEFDCFBD
:10324000409A409888E08EBD0DB407FEFDCF409AAD
:10325000409889E08EBD0DB407FEFDCF409A40989E
:1032600089E08EBD0DB407FEFDCF409A409886E000
:103270008EBD0DB407FEFDCF409A78948091DD0895
:103280008F5F8093DD088091D6089091D7080E94C7
:10329000B62681E090E010C0409AF801868188232C
:1032A00009F0E5CE81E498E8E4CE409A40988EE3B8
:1032B0008EBD05CF409AB9CF22960FB6F894DEBFE7
:1032C0000FBECDBFDF91CF911F910F91FF90EF9077
:1032D000DF90CF90BF909F908F900895CF93DF9312
:1032E000CDB7DEB722970FB6F894DEBF0FBECDBFC5
:1032F0009A8389839093E2088093E10884EF91E0B8
:103300000E94E13140988AEE8EBD0DB407FEFDCFDC
:1033100080E88EBD0DB407FEFDCFFE0131969E0103
:103320002D5F3F4F80818EBD0DB407FEFDCF3196DE
:10333000E217F307B9F7409A84EF91E00E94E13178
:1033400022960FB6F894DEBF0FBECDBFDF91CF91AE
:1033500008956F927F928F929F92AF92BF92CF9279
:10336000DF92EF92FF920F931F93CF93DF93CDB72E
:10337000DEB722970FB6F894DEBF0FBECDBF8C012B
:1033800084E690E00E94E1317801C12CB1E0DB2EAF
:103390003E010894611C711CA3E08A2E912C8C0EB6
:1033A0009D1EF7018081218133279927982F882737
:1033B000282B392B3A83298384E690E00E94E1315F
:1033C00040988C2D80688EBD0DB407FEFDCFC601E0
:1033D00095958795807C8EBD0DB407FEFDCF83014A
:1033E0005301F50180818EBD0DB407FEFDCF089419
:1033F000A11CB11CA814B904A1F7409A0894E11CBF
:10340000F11C82E090E0C80ED91E90E1C91691E04F
:10341000D90639F684E690E00E94E13120E131E0FE
:1034200040E451E01A8219824098842F80688EBD52
:103430000DB407FEFDCFCA0195958795807C8EBDA2
:103440000DB407FEFDCFF80180818EBD0DB407FEDF
:10345000FDCF3196EA15FB05B9F7409A4098822FC7
:1034600080688EBD0DB407FEFDCFC9019595879587
:10347000807C8EBD0DB407FEFDCFF80180818EBD2E
:103480000DB407FEFDCF3196EA15FB05B9F7409A5A
:103490002E5F3F4F4E5F5F4FE1E02E313E0711F64A
:1034A00081E090E09A83898340988EEC8EBD0DB4C4
:1034B00007FEFDCF80E88EBD0DB407FEFDCFF801FD
:1034C00080818EBD0DB407FEFDCF3196EA15FB0558
:1034D000B9F7409A40988EE98EBD0DB407FEFDCF36
:1034E00080E88EBD0DB407FEFDCFF80180818EBD52
:1034F0000DB407FEFDCF0F5F1F4F0A151B05A9F77F
:10350000409A22960FB6F894DEBF0FBECDBFDF9172
:10351000CF911F910F91FF90EF90DF90CF90BF90D0
:10352000AF909F908F907F906F9008951F93CF934F
:10353000DF93EC01162F8091D6089091D7080E9456
:103540000828409888E08EBD0DB407FEFDCF409A54
:10355000409888E08EBD0DB407FEFDCF409A812FC4
:103560000E940E11D093DC08C093DB088091D6082E
:103570009091D7080E94B626DF91CF911F910895B0
:103580001F93182F8091D6089091D7080E94082881
:10359000812F0E940E118091D6089091D7080E9429
:1035A000B6261F910895DF92EF92FF920F931F931B
:1035B000CF93DF93CDB7DEB722970FB6F894DEBF77
:1035C0000FBECDBF8C01D62E5A834983790164E1A9
:1035D00081E00E9437269093D7088093D608892BE4
:1035E00031F40E948229682F8FE00E946E2480911E
:1035F000D6089091D7080E9408288F3F21F484E5CF
:1036000092E00E949120159A88EE93E00E94F220A9
:10361000169881E090E00E94F220169A84E690E0ED
:103620000E94F220F894409881E08EBD0DB407FE10
:10363000FDCF409A82EE92E09093DA088093D90809
:10364000409881E18EBD0DB407FEFDCF82E08EBDB6
:103650000DB407FEFDCF82EE8EBD0DB407FEFDCF8B
:10366000409A409882E18EBD0DB407FEFDCF85E003
:103670008EBD0DB407FEFDCF1EBC0DB407FEFDCF01
:10368000409A40988CE18EBD0DB407FEFDCF1EBC64
:103690000DB407FEFDCF8FE78EBD0DB407FEFDCF45
:1036A000409A409889E18EBD0DB407FEFDCF81E0C0
:1036B0008EBD0DB407FEFDCF84EC8EBD0DB407FEAC
:1036C000FDCF409A409887E18EBD0DB407FEFDCF37
:1036D0008AE18EBD0DB407FEFDCF86E58EBD0DB42B
:1036E00007FEFDCF409A84EF91E00E94E1314098BF
:1036F00088EE8EBD0DB407FEFDCF80E88EBD0DB403
:1037000007FEFDCFFE0131969E012D5F3F4F808168
:103710008EBD0DB407FEFDCF3196E217F307B9F762
:10372000409A84EF91E00E94E13178948D2D0E94BF
:103730000E1178941093DC080093DB0889819A813C
:103740009093E0088093DF08F092E208E092E108AD
:103750001092DD081092E3080E942D118091D60886
:103760009091D7080E94B6268F3F39F487E292E005
:103770000E94912082E00E94A9231092E6081092F4
:10378000D8081092E70822960FB6F894DEBF0FBE55
:10379000CDBFDF91CF911F910F91FF90EF90DF9000
:1037A000089520916F098091ED08281781F0E22F8C
:1037B000FF27E251F74FE081822F8F5F80936F09DF
:1037C000803811F410926F098E2F992708958091F7
:1037D000C80087FFFCCF8091C8008F778093C80016
:1037E0008091CE0099270895882351F48091C000DC
:1037F000992787FD90958827990F881F9927089505
:10380000813019F080E090E0089520E030E0909160
:103810006F098091ED08981711F021E030E0C9019F
:10382000089585B7806185BF86E084B987E085B952
:1038300081E087B988B98CE38DB98BE08AB98EE3D2
:103840008EB988E781B980E482B908950E94111C7D
:1038500080E58CBD81E08DBD08958F3F09F47FC068
:10386000482F55279A012770307022303105A9F171
:103870002330310544F42115310589F0213031051B
:1038800009F06DC01CC02430310509F446C0243055
:1038900031059CF12530310509F061C04EC022B1DF
:1038A000A3E056954795AA95E1F781E090E002C024
:1038B000880F991F4A95E2F7282B22B94DC085B190
:1038C000F3E056954795FA95E1F702C0220F331FB2
:1038D0004A95E2F7822B85B93FC028B1E3E05695BF
:1038E0004795EA95E1F781E090E002C0880F991FC3
:1038F0004A95E2F7282B28B92FC02BB173E05695D3
:1039000047957A95E1F781E090E002C0880F991F12
:103910004A95E2F7282B2BB91FC02EB163E05695CC
:1039200047956A95E1F781E090E002C0880F991F02
:103930004A95E2F7282B2EB90FC021B333E05695F4
:1039400047953A95E1F781E090E002C0880F991F12
:103950004A95E2F7282B21BB81E090E008958FEF94
:103960009FEF08958F3F09F486C0482F55279A018D
:103970002770307022303105C1F12330310544F415
:103980002115310589F02130310509F074C01DC0C1
:103990002430310509F44BC024303105BCF1253009
:1039A000310509F068C054C022B173E056954795BF
:1039B0007A95E1F781E090E002C0880F991F4A955F
:1039C000E2F78095822382B953C095B163E05695A2
:1039D00047956A95E1F702C0220F331F4A95E2F737
:1039E000822F8095892385B943C028B133E056954D
:1039F00047953A95E1F781E090E002C0880F991F62
:103A00004A95E2F78095822388B932C02BB193E0C2
:103A1000569547959A95E1F781E090E002C0880FAE
:103A2000991F4A95E2F7809582238BB921C02EB168
:103A300083E0569547958A95E1F781E090E002C0D2
:103A4000880F991F4A95E2F7809582238EB910C09E
:103A500021B3B3E056954795BA95E1F781E090E040
:103A600002C0880F991F4A95E2F78095822381BB97
:103A700081E090E008958FEF9FEF08958F3FA9F1C7
:103A8000282F3327C9018770907082309105A9F0E3
:103A9000833091052CF4009761F0019731F50BC04C
:103AA0008430910571F0843091054CF00597E9F46C
:103AB0000AC080B109C083B107C086B105C089B111
:103AC00003C08CB101C08FB19927E3E036952795EB
:103AD000EA95E1F702C0959587952A95E2F799272F
:103AE00087FD90958170907008958FEF9FEF0895F6
:103AF0008F3F09F403C1282F3327A9014770507065
:103B00004230510509F45CC04330510544F441157D
:103B1000510591F04130510509F0F0C034C04430F6
:103B2000510509F49BC0443051050CF470C0453078
:103B3000510509F0E3C0B9C080B1A90173E0569501
:103B400047957A95E1F79927042E02C095958795B8
:103B50000A94E2F780FD0BC022B181E090E002C040
:103B6000880F991F4A95E2F7282B22B9C4C022B1C9
:103B700081E090E002C0880F991F4A95E2F7809596
:103B8000822382B9B8C083B163E0369527956A95E0
:103B9000E1F79927022E02C0959587950A94E2F7DE
:103BA00002C0440F551F2A95E2F780FD03C085B17E
:103BB000842B04C095B1842F8095892385B99BC03F
:103BC00086B1A90193E0569547959A95E1F7992713
:103BD000042E02C0959587950A94E2F780FD0BC0EC
:103BE00028B181E090E002C0880F991F4A95E2F762
:103BF000282B28B980C028B181E090E002C0880F4E
:103C0000991F4A95E2F78095822388B974C089B1DB
:103C1000A901B3E056954795BA95E1F79927042E87
:103C200002C0959587950A94E2F780FD0BC02BB1F1
:103C300081E090E002C0880F991F4A95E2F7282B97
:103C40002BB959C02BB181E090E002C0880F991FB9
:103C50004A95E2F7809582238BB94DC08CB1A901BA
:103C6000A3E056954795AA95E1F79927042E02C03F
:103C7000959587950A94E2F780FD0BC02EB181E0FF
:103C800090E002C0880F991F4A95E2F7282B2EB9C1
:103C900032C02EB181E090E002C0880F991F4A9592
:103CA000E2F7809582238EB926C08FB1A901F3E097
:103CB00056954795FA95E1F79927042E02C09595F8
:103CC00087950A94E2F780FD0BC021B381E090E074
:103CD00002C0880F991F4A95E2F7282B21BB0BC021
:103CE00021B381E090E002C0880F991F4A95E2F766
:103CF0008095822381BB81E090E008958FEF9FEF54
:103D000008958F3F09F412C1482F5527662309F003
:103D100090C0CA01877090708230910509F43EC04E
:103D2000833091053CF4009789F08130910509F0CA
:103D3000FDC021C08430910509F454C08430910540
:103D40000CF43EC0059709F0F1C05EC031B1B3E09C
:103D500056954795BA95E1F781E090E002C0880F4B
:103D6000991F4A95E2F7282F2095232321B922B1E4
:103D7000822B82B9D8C024B1A3E056954795AA9565
:103D8000E1F702C0880F991F4A95E2F7982F8095B6
:103D9000822384B985B1982B95B9C5C037B1F3E0BA
:103DA00056954795FA95E1F781E090E002C0880FBB
:103DB000991F4A95E2F7282F2095232327B935C06C
:103DC0003AB1E3E056954795EA95E1F781E090E056
:103DD00002C0880F991F4A95E2F7282F20952323C8
:103DE0002AB923C03DB173E0569547957A95E1F71E
:103DF00081E090E002C0880F991F4A95E2F7282FD2
:103E0000209523232DB911C030B363E05695479513
:103E10006A95E1F781E090E002C0880F991F4A950A
:103E2000E2F7282F2095232320BB25B1822B85B9CB
:103E30007AC09A012770307022303105A9F1233001
:103E4000310544F42115310589F02130310509F09F
:103E50006DC01CC02430310509F446C02430310542
:103E60009CF12530310509F061C04EC021B133E02D
:103E7000569547953A95E1F781E090E002C0880FAA
:103E8000991F4A95E2F7282B21B94DC084B193E0E0
:103E9000569547959A95E1F702C0220F331F4A9530
:103EA000E2F7822B84B93FC027B1B3E0569547951E
:103EB000BA95E1F781E090E002C0880F991F4A951A
:103EC000E2F7282B27B92FC02AB1A3E056954795D2
:103ED000AA95E1F781E090E002C0880F991F4A950A
:103EE000E2F7282B2AB91FC02DB1F3E0569547956C
:103EF000FA95E1F781E090E002C0880F991F4A959A
:103F0000E2F7282B2DB90FC020B3E3E05695479573
:103F1000EA95E1F781E090E002C0880F991F4A9589
:103F2000E2F7282B20BB81E090E008958FEF9FEF10
:103F30000895882319F08FEF9FEF089580B1992796
:103F400087FD9095809590958827990F881F9927D0
:103F50000895009711F484E109C08130910511F4AE
:103F60008CE104C08230910531F484E20E94781D16
:103F700081E090E00895039719F08FEF9FEF089587
:103F80008CE20E94781D81E090E00895009711F482
:103F900084E109C08130910511F48CE104C08230C4
:103FA000910531F484E20E942D1C81E090E0089597
:103FB000039719F08FEF9FEF08958CE20E942D1C5C
:103FC00081E090E00895009711F484E109C0813008
:103FD000910511F48CE104C08230910531F484E242
:103FE0000E94B21C81E090E00895039719F08FEFD2
:103FF0009FEF08958CE20E94B21C81E090E008954A
:10400000882319F085B78F7E02C085B7806185BF90
:1040100081E090E00895982F8091C00085FFFCCF4B
:104020008091C0008F7D8093C0009093C60008955A
:10403000982F8091C80085FFFCCF9093CE00089503
:10404000292F33272093C5008093C40086E08093F6
:10405000C200E1ECF0E080818B7F8083A0ECB0E0D7
:104060008C9182608C938081886180830895292F50
:1040700033272093CD008093CC0086E08093CA0044
:10408000E9ECF0E080818B7F8083A8ECB0E08C913C
:1040900082608C9380818861808308958091C000C4
:1040A00087FFFCCF8091C0008F778093C000809104
:1040B000C600992708950E94372061ED7BE188E1D1
:1040C00090E20E94593790936B0A80936A0A61EDDF
:1040D0007BE188E190E20E9459379093690A8093CE
:1040E000680A0E94752580936E098F3F19F48EE04F
:1040F0000E94752410926F091092ED088091C900FA
:1041000080688093C900089580916E098F3F19F4EB
:104110008EE00E94752480916E09992787FD909505
:104120000895CF93DF93EC0107C060916A0A709104
:104130006B0A99270E94EA37FE0121968491882311
:10414000A1F7DF91CF9108951F920F920FB60F92B2
:1041500011242F933F934F935F936F937F938F938C
:104160009F93AF93BF93EF93FF938091C9008F7795
:104170008093C9008091C80087FFFCCF8091C80060
:104180008F778093C8009091CE008091ED08E82F42
:10419000FF27E251F74F90838F5F8093ED088038BF
:1041A00011F41092ED0880916E090E940A27809107
:1041B000C8008F778093C8008091C9008068809381
:1041C000C900FF91EF91BF91AF919F918F917F9126
:1041D0006F915F914F913F912F910F900FBE0F9074
:1041E0001F90189500000000000000000197D1F713
:1041F0000895FC01A7E0B0E00E94B03A802D8083D2
:1042000081E090E00895FC018081A7E0B0E0082EF5
:104210000E94B83A81E090E00895DC010E94B03A33
:10422000802D99270895FC01A0E0B0E00E94B03AEB
:10423000402D4383A1E0B0E00E94B03A802D8283FC
:10424000A2E0B0E00E94B03A302D3183A3E0B0E0AC
:104250000E94B03A902D9083A4E0B0E00E94B03A62
:10426000202D830F840F890F281719F481E090E027
:1042700008958FEF9FEF0895FC01A5E0B0E00E9444
:10428000B03A802D808381E090E00895FC01A6E0A3
:10429000B0E00E94B03A802D808381E090E00895E4
:1042A000AC0120E030E0D90118960E94B03A802D90
:1042B000FA01E20FF31F80832F5F3F4F203131055A
:1042C00091F781E090E00895DC01062E0E94B83A53
:1042D0000895FC018081A6E0B0E0082E0E94B83A63
:1042E00081E090E00895AC0120E030E0D90118961B
:1042F000FA01E20FF31F8081082E0E94B83A2F5F67
:104300003F4F2031310591F781E090E00895F89416
:1043100008957894089585E690E008950E94D02E3F
:104320000895EF92FF920F931F93CF93DF93EC01C9
:104330008B017A018985823021F08091280A888357
:1043400001C018828091280A853020F060E087E063
:104350000E946E248985823029F08091280A8F5F1F
:104360008093280A8091280A882319F481E0809399
:10437000280A8881992787FD9095FC0145E0EE0F7A
:10438000FF1F4A95E1F7E80FF91FEE58F64F11832A
:1043900000838881992787FD9095FC0135E0EE0F19
:1043A000FF1F3A95E1F7E80FF91FEE58F64F8885A1
:1043B00082878881992787FD9095FC0125E0EE0F83
:1043C000FF1F2A95E1F7E80FF91FEE58F64F83E03B
:1043D00081872881822F992787FD9095FC0105E030
:1043E000EE0FFF1F0A95E1F7E80FF91FEE58F64FA1
:1043F00020878881992787FD9095FC0115E0EE0FB5
:10440000FF1F1A95E1F7E80FF91FEE58F64F1582D6
:104410000881112707FD10952B853C854D855E850C
:104420006F85788989899A890E94F52CF801B5E011
:10443000EE0FFF1FBA95E1F7E00FF11FEE58F64FB0
:10444000948F838F0881112707FD10952B8D3C8D4C
:104450004D8D5E8D6F8D78A189A19AA10E94F52C5A
:10446000F801A5E0EE0FFF1FAA95E1F7E00FF11F9D
:10447000EE58F64F968B858B8881992787FD90950E
:10448000FC0175E0EE0FFF1F7A95E1F7E80FF91FC9
:10449000EE58F64F85899689238D348D820F931FB0
:1044A000908F878B0881112707FD10952B893C89F8
:1044B0004D895E896F89788D898D9A8D0E94F52C42
:1044C000F80165E0EE0FFF1F6A95E1F7E00FF11FBD
:1044D000EE58F64F968F858F8881992787FD9095A6
:1044E000FC0155E0EE0FFF1F5A95E1F7E80FF91FA9
:1044F000EE58F64F858D968D928F818F8881992702
:1045000087FD9095FC0145E0EE0FFF1F4A95E1F70E
:10451000E80FF91FEE58F64F81E090E090A3878FE7
:104520008881992787FD9095FC0135E0EE0FFF1FEC
:104530003A95E1F7E80FF91FEE58F64FF382E28261
:104540008881992787FD9095FC0125E0EE0FFF1FDC
:104550002A95E1F7E80FF91FEE58F64F81E08487BE
:1045600081E090E0DF91CF911F910F91FF90EF904C
:1045700008958F929F92AF92BF92CF92DF92EF9267
:10458000FF920F931F93CF93DF936AE7A62E69E004
:10459000B62ECC24DD244501EC2CF501F080FFEF94
:1045A000FF1691F0E40100E010E0E01639F0888198
:1045B000F81621F46F2D85E00E946E240F5F1F4FC7
:1045C000A1960530110589F70894C11CD11C81E220
:1045D00090E0A80EB91E95E0C916D104E9F60E9434
:1045E0009728282F332727FD3095F90155E0EE0F46
:1045F000FF1F5A95E1F7E20FF31FEE58F64F328591
:1046000030933B0A21E28202C00111248E58964F5A
:1046100090933A0A8093390A90932B0A80932A0A3E
:1046200030932C0A0E94CF350E94B5350E94F33595
:10463000FFCF0F931F93CF93DF93CDB7DEB7A39731
:104640000FB6F894DEBF0FBECDBF0E9475258093D4
:10465000290A8F3F21F460E08EE00E946E240E94C0
:104660002635882321F460E086E00E946E241092B3
:104670002C0A10923A0A1092390A10922B0A1092C0
:104680002A0A10923B0A1092380AE9E1FAE08FEF09
:1046900080838283818333962AE0E832F207B9F778
:1046A000E2E7F9E083E682878FEF8087B1968AE0C0
:1046B000E731F807B9F7ECE3FAE0CF010596948308
:1046C0008383F783E683FC012AE085359207A9F707
:1046D00010923E0A10923D0A1092590A1092580AFE
:1046E00010922F0A10922E0A499790937109809385
:1046F000700966EB7EE28E010F5F1F4FC8010E94BA
:10470000733540E850E06CEC77E0C8010E94D43586
:1047100085E58093CC0719861C8E1D8E1E8E1F8EFC
:1047200018A219A21AA21BA291E0988782E08A8798
:104730009B87C8010E94802BA3960FB6F894DEBF1A
:104740000FBECDBFDF91CF911F910F910895F894C7
:10475000FFCFE091390AF0913A0A84870895E091F9
:10476000390AF0913A0A848599270895DC01FB0102
:104770008091BD07882319F480E090E0089580833C
:104780008091F2028C9381E090E008951F938091D4
:10479000BD07882309F49EC00E9487210E948721BB
:1047A0008CE394E00E9491208091F20299279F93DC
:1047B0008F938BE792E09F938F930E94173888E343
:1047C00094E00E9491200F900F900F900F90809195
:1047D000BD07843110F01092BD078091BD07992765
:1047E000AA27BB27FC013197E231F105F0F5EA5920
:1047F000FF4FEE0FFF1F0590F491E02D099481E12A
:1048000094E035C08DEF93E032C087EE93E02FC087
:104810008CEC93E02CC086EB93E029C08EE993E00A
:1048200026C08BE893E023C088E793E020C08AE5A8
:1048300093E01DC085E393E01AC089E293E017C0BE
:104840008EE093E014C08FEF92E011C08EEE92E004
:104850000EC08AED92E00BC08AEB92E008C082EABB
:1048600092E005C087E892E002C080E892E00E94F2
:10487000912060916A0A70916B0A8DE090E00E942D
:10488000EA3760916A0A70916B0A8AE090E00E94B0
:10489000EA3782E090E00E94E31F83E090E00E940C
:1048A000C61F10E088EE93E00E94E1311F5F1436CE
:1048B000C9F783E090E00E94E31F82E090E00E944D
:1048C000C61F10E088EE93E00E94E1311F5F1436AE
:1048D000C9F7DFCF80E090E01F9108958093BD0776
:1048E0006093F2020E94C62308958093BD07E09171
:1048F000390AF0913A0A80858093F2020E94C62319
:104900000895992787FD9095FC0125E0EE0FFF1F84
:104910002A95E1F7E80FF91FEE58F64FA281B3810F
:104920008C91853529F085E58C938FEF9FEF089565
:10493000808191818050924218F481E090E0089546
:1049400082E10E9475248FEF9FEF08956F927F920E
:104950008F929F92AF92BF92CF92DF92EF92FF928F
:104960000F931F93CF93DF9388E494E00E949120EC
:10497000E091390AF0913A0A8085992787FD909550
:104980009F938F938EE792E09F938F930E941738A7
:10499000E091390AF0913A0A028113811F930F9333
:1049A00087E892E09F938F930E941738F8018081E7
:1049B00099279F938F9354E9C52E52E0D52EDF920D
:1049C000CF920E941738E091390AF0913A0A80811B
:1049D00091819F938F9341EAE42E42E0F42EFF925F
:1049E000EF920E9417388091390A90913A0A9F936A
:1049F0008F930BEA12E01F930F930E941738C2E7C0
:104A0000D9E0AA24BB248DB79EB744960FB6F8947C
:104A10009EBF0FBE8DBF3BEB632E32E0732E46016F
:104A2000670178010A811B811F930F93BF92AF9298
:104A30007F926F920E941738F801808199279F9387
:104A40008F939F928F920E941738888199819F93AC
:104A50008F93DF92CF920E941738DF93CF93FF920C
:104A6000EF920E9417380894A11CB11CA1968DB733
:104A70009EB742960FB6F8949EBF0FBE8DBF95E0CD
:104A8000A916B10479F6DF91CF911F910F91FF9094
:104A9000EF90DF90CF90BF90AF909F908F907F90DE
:104AA0006F900895CF93DF93E091390AF0913A0A1D
:104AB000C281D3818881853539F00E94A62481E0A6
:104AC0000E94752485E58883E091390AF0913A0ABD
:104AD000808191818050924228F00E94A62482E138
:104AE0000E947524DF91CF91089540911A0550914D
:104AF0001B0560911C0570911D0520E030E0DB0175
:104B0000CA01022E04C0B695A795979587950A9479
:104B1000D2F781709070892BE9F481E090E0A0E0F9
:104B2000B0E0022E04C0880F991FAA1FBB1F0A9471
:104B3000D2F7842B952BA62BB72B80931A05909335
:104B40001B05A0931C05B0931D05822F992787FD97
:104B5000909508952F5F3F4F2032310581F68FEFFA
:104B60009FEF0895E091390AF0913A0A65857685BC
:104B7000878590890895EF92FF920F931F9321E00C
:104B800030E040E050E004C0220F331F441F551FA7
:104B90008A95D2F7E091390AF0913A0AE584F684D1
:104BA00007851089DA01C9018E219F21A023B12335
:104BB0000097A105B10519F48FEF9FEF1AC020955A
:104BC000309540955095E222F32204231523E58683
:104BD000F6860787108B81899289A389B4898223FD
:104BE0009323A423B523818B928BA38BB48B81E079
:104BF00090E01F910F91FF90EF900895682F772715
:104C000067FD709580911A0590911B05A0911C0578
:104C1000B0911D05062E04C0B695A795979587956A
:104C20000A94D2F781709070892B19F48FEF9FEF5F
:104C30000895E091390AF0913A0A21E030E040E02D
:104C400050E004C0220F331F441F551F6A95D2F74E
:104C500085859685A785B089822B932BA42BB52BB0
:104C600085879687A787B08B81E090E00895482FCD
:104C70002091380A243018F080E090E00895E9E1AE
:104C8000FAE030E080818F3F21F03F5F339635308E
:104C9000C9F7832F9927FC01EE0FFF1FE80FF91FBB
:104CA000E75EF54F4283408361832F5F2093380A8C
:104CB00083E0389FC0011124875E954F089549E134
:104CC0005AE020E030E04817590729F4822F99274D
:104CD00087FD909508952F5F3F4F4D5F5F4F2530C3
:104CE000310589F78FEF9FEF08950E945F268F3F70
:104CF00011F481E003C0853031F482E00E94A923E1
:104D00008FEF9FEF0895992787FD9095FC01EE0F97
:104D1000FF1FE80FF91FE75EF54F8FEF8083828357
:104D200081838091380A81508093380A81E090E035
:104D300008950E945F268F3F11F481E003C0853003
:104D400031F482E00E94A9238FEF9FEF0895992705
:104D500087FD9095FC01EE0FFF1FE80FF91FE75E3E
:104D6000F54F8281992787FD909508951F93CF93E2
:104D7000DF930E945F26182F8F3F11F481E003C05C
:104D8000853031F482E00E94A9238FEF9FEF3EC06F
:104D9000992787FD9095EC01CC0FDD1FC80FD91F17
:104DA000C75ED54F9A818881981774F50E94872134
:104DB0008A818F5F8A83E091390AF0913A0A1482DE
:104DC000E9E7F9E0212F332727FD3095432F532FB3
:104DD0008081823091F482859385A485B585821780
:104DE0009307A407B50749F483E0828317861686E4
:104DF00010821286138614861586B1968AE0EE31EB
:104E0000F80731F70E94892181E090E0DF91CF918E
:104E10001F910895DF92EF92FF920F931F93F1E09D
:104E2000EF2EF12C012D112D04C0EE0CFF1C001FE4
:104E3000111F8A95D2F780911A0590911B05A091B8
:104E40001C05B0911D058E219F21A023B123009741
:104E5000A105B10511F481E043C00E948721E9E773
:104E6000F9E0DD2480818130B9F482859385A485C1
:104E7000B5858E219F21A023B1230097A105B105FF
:104E800059F083E08283178616861082E286F386C5
:104E900004871587DD24D39480818230A1F4828534
:104EA0009385A485B5858E159F05A007B10759F494
:104EB00083E08283178616861082128613861486F4
:104EC0001586DD24D394B1968AE0EE31F80751F6C9
:104ED0000E948921DD2019F081E090E005C082E088
:104EE0000E94A9238FEF9FEF1F910F91FF90EF90EA
:104EF000DF900895EF92FF920F931F93CF93DF936C
:104F0000C82FDD27C7FDD095A1E0EA2EF12C012D99
:104F1000112D0C2E04C0EE0CFF1C001F111F0A9453
:104F2000D2F780911A0590911B05A0911C05B091B4
:104F30001D058E219F21A023B1230097A105B10556
:104F400019F48FEF9FEF5DC00E948721E2E7F9E03F
:104F5000A8019701209530954095509580858F3F09
:104F600041F185859685A785B0898E159F05A00797
:104F7000B10739F4118A128A138A148A178283E0DE
:104F8000818785859685A785B08982239323A4236D
:104F9000B52385879687A787B08B81899289A38956
:104FA000B48982239323A423B523818B928BA38B73
:104FB000B48BB1968AE0E731F80781F62EEF3FEF28
:104FC0004FEF5FEF04C0220F331F441F551FCA95D8
:104FD000D2F780911A0590911B05A0911C05B09104
:104FE0001D0582239323A423B52380931A05909350
:104FF0001B05A0931C05B0931D050E94892181E02B
:1050000090E0DF91CF911F910F91FF90EF90089565
:105010001F93CF93DF930E945F26182F8F3F11F4C9
:1050200081E003C0853031F482E00E94A9238FEF34
:105030009FEF3EC00E948721812F992787FD909581
:10504000EC01CC0FDD1FC80FD91FC75ED54F8A8179
:105050008823D9F4E091390AF0913A0A8781826075
:105060008783E091390AF0913A0A812F992787FDC9
:105070009095A92FB92F818B928BA38BB48B0E9413
:10508000892180E090E00E94AD2A8A8181508A8344
:10509000E091390AF0913A0A89818387E091390ACF
:1050A000F0913A0A81E084830E94892181E090E0B6
:1050B000DF91CF911F9108959B01AC01E091390AD6
:1050C000F0913A0A85859685A785B0898223932336
:1050D000A423B5230097A105B10529F460E070E091
:1050E00080E090E00895218B328B438B548B81E0DC
:1050F00087830090290A04C05695479537952795D0
:105100000A94D2F7C90181709070892B19F00E941E
:10511000482A04C080E090E00E94AD2AE091390A5C
:10512000F0913A0A61897289838994890895E0919E
:105130002E0AF0912F0A808199270895E0912E0A76
:10514000F0912F0A03C00380F481E02D3097D9F746
:105150000895CF93DF93482FC0917009D0917109C2
:10516000209709F47AC0A0912E0AB0912F0A1097C7
:10517000B9F1992787FD90959C0165E0220F331FB7
:105180006A95E1F7280F391F2E58364F8C919927D1
:10519000BC0155E0660F771F5A95E1F7680F791F3C
:1051A0006E58764FFB018481882329F09385F9019D
:1051B00082859817A8F0F9018481882331F0FB01DA
:1051C0009285F9018385981758F0FB019285F901C2
:1051D0008285981728F0FD01A381B4811097B1F65C
:1051E0004883E0917009F0917109238134813093F3
:1051F00071092093700980912E0A90912F0AA817A7
:10520000B907A1F4109731F0BC83AB831A821982DD
:10521000FD0105C01C821B821A821982F901D2830A
:10522000C183D0932F0AC0932E0A17C0FD0181813C
:105230009281A217B30751F09A838983BC83AB8311
:1052400081819281FC01D483C38304C01C821B82B0
:105250009A838983FD01D283C183DF91CF91089521
:10526000CF93DF93A0912E0AB0912F0A109709F4E3
:1052700046C0482F552747FD50958C919927841794
:10528000950769F4ED01EB81FC81F0932F0AE0931F
:105290002E0A1282118216C0D901232B81F18C9122
:1052A0009927FD012381348184179507A9F7C181CE
:1052B000D2813C832B8383819481009719F0FC0178
:1052C000D283C183E0917009F0917109309741F464
:1052D000B0937109A0937009ED011C821B8209C073
:1052E000ED01FC83EB83B283A183B0937109A0939A
:1052F0007009E0917009F091710912821182DF91B9
:10530000CF910895E091390AF0913A0A8085992762
:1053100008950E946835E091390AF0913A0A858132
:105320008823B9F70895FF920F931F93CF93DF93CC
:10533000CDB7DEB728970FB6F894DEBF0FBECDBF4E
:1053400029833A834B835C836D837E838F83988725
:105350000E9452250E948721E091390AF0913A0A71
:1053600081E0858381E090E090A3878F0E94A7323F
:10537000F82E29813A814B815C816D817E818F81FC
:1053800098850E94F52CE091390AF0913A0A0F2D88
:105390001127800F911F968B858B87EF8F1570F0EB
:1053A0000E9433320E5F1F4F99278017910734F008
:1053B0008F2D8E5F8093C4080E9438320E9489210D
:1053C0000E94892981E090E028960FB6F894DEBF0C
:1053D0000FBECDBFDF91CF911F910F91FF90089528
:1053E0008F929F92AF92BF92CF92DF92EF92FF92F5
:1053F0000F931F93CF93DF93CDB7DEB760970FB6B0
:10540000F894DEBF0FBECDBF29873A874B875C87F4
:105410006D877E878F87988BCE0101960E945B2EC9
:1054200089809A80AB80BC80CD80DE80EF80F8845C
:1054300009851A852B853C854D855E856F85788924
:10544000CE0109960E94D62B882319F48FEF9FEF87
:105450000CC029853A854B855C856D857E858F8559
:1054600098890E94932981E090E060960FB6F894A5
:10547000DEBF0FBECDBFDF91CF911F910F91FF9087
:10548000EF90DF90CF90BF90AF909F908F90089556
:105490001F930E948721E091390AF0913A0A81E036
:1054A000858386830E94A732182F883F80F40E944C
:1054B0003332212F33272E5F3F4F992782179307CF
:1054C00034F0812F8E5F8093C4080E9438320E948E
:1054D00089210E94892981E090E01F9108951F93FE
:1054E000CF93DF93CDB7DEB728970FB6F894DEBF22
:1054F0000FBECDBF29833A834B835C836D837E834C
:105500008F8398870E9487210E94A732182F2981B4
:105510003A814B815C816D817E818F8198850E946B
:10552000F52C8330910518F48FEF9FEF0CC0E091BC
:10553000390AF0913A0A810F911D968B858B0E9452
:10554000892181E090E028960FB6F894DEBF0FBE67
:10555000CDBFDF91CF911F9108950F931F938C01C1
:105560000E948721E091390AF0913A0A81E085830F
:10557000168B058B0E94A732082F883F80F40E946B
:105580003332202F33272E5F3F4F992782179307FF
:1055900034F0802F8E5F8093C4080E9438320E94BE
:1055A00089210E94892981E090E01F910F9108953F
:1055B000FF920F931F93CF93DF938C010E9487215B
:1055C000E091390AF0913A0A81E085830E94A7327E
:1055D000F82EE091390AF0913A0AC82FDD270C0F16
:1055E0001D1F168B058B87EF8F1568F00E943332D5
:1055F000229699278C179D0734F08F2D8E5F80930C
:10560000C4080E9438320E9489210E94892981E0C1
:1056100090E0DF91CF911F910F91FF9008951F931C
:10562000CF93DF93EC010E945225209711F4C1E043
:10563000D0E00E948721E091390AF0913A0A81E096
:105640008583D0A3C78F0E94A732182F883F80F48C
:105650000E943332212F33272E5F3F4F9927821725
:10566000930734F0812F8E5F8093C4080E943832F4
:105670000E9489210E94892981E090E0DF91CF91E9
:105680001F9108951F930E9452250E948721E09147
:10569000390AF0913A0A81E090E090A3878F81E087
:1056A00085830E94A732182F883F80F40E943332EE
:1056B000212F33272E5F3F4F99278217930734F00E
:1056C000812F8E5F8093C4080E9438320E94892106
:1056D0000E94892981E090E01F910895E091390AA4
:1056E000F0913A0A80850E943029E091390AF091C0
:1056F0003A0A84E081870E94422B81E090E008957D
:10570000EF92FF920F931F93CF93DF93EC014B81A6
:105710005C8169817A818D819E810E947735BC018F
:105720008F81882369F04B815C81EE24FF2400E0A7
:1057300010E020E030E0CE010E9491211F8216C0CF
:105740008881992787FD9095FC01A5E0EE0FFF1F4A
:10575000AA95E1F7E80FF91FEE58F64F81858330DF
:1057600019F08FEF9FEF1BC07183608388819927A9
:1057700087FD9095FC0175E0EE0FFF1F7A95E1F72C
:10578000E80FF91FEE58F64F85899689892B29F481
:1057900082E0818788810E94A92881E090E0DF91E2
:1057A000CF911F910F91FF90EF9008958F929F924C
:1057B000AF92BF92CF92DF92EF92FF920F931F931F
:1057C000CF93DF93CDB7DEB760970FB6F894DEBF07
:1057D0000FBECDBFFC0109831A832B833C834D830D
:1057E0005E836F83788789869A86AB86BC86CD86F2
:1057F000DE86EF86F88A2D813E814F81588589812A
:105800009A81AB81BC81AD84BE84CF84D888E98481
:10581000FA840B851C858E159F05A007B10708F437
:105820003FC0E816F9060A071B0791F42A153B0545
:105830004C055D05A8F12A193B094C095D09248333
:1058400035834683578310821182128213821CC0D3
:105850002A153B054C055D05D0F40197A109B10956
:105860008E199F09A00BB10B80839183A283B38310
:10587000205036434546544C2A193B094C095D09D2
:10588000248335834683578381E090E00BC08E19D3
:105890009F09A00BB10B80839183A283B383ECCFCC
:1058A00080E090E060960FB6F894DEBF0FBECDBFEB
:1058B000DF91CF911F910F91FF90EF90DF90CF90EC
:1058C000BF90AF909F908F900895FC0113C08050BF
:1058D0009A4CAA49BB4384839583A683B78380816E
:1058E0009181A281B3810196A11DB11D8083918315
:1058F000A283B38384819581A681B78180302AEC0D
:1059000092072AE9A2072BE3B20708F708958F92BE
:105910009F92AF92BF92CF92DF92EF92FF920F933E
:105920001F93CF93DF93CDB7DEB760970FB6F89490
:10593000DEBF0FBECDBFFC0109831A832B833C83DE
:105940004D835E836F83788789869A86AB86BC8613
:10595000CD86DE86EF86F88AAD80BE80CF80D88483
:10596000ED84FE840F85188989859A85AB85BC8571
:1059700029813A814B815C81820F931FA41FB51F3F
:1059800080839183A283B383EA0CFB1C0C1D1D1D35
:10599000E482F58206831783CF010E94652C81E0A3
:1059A00090E060960FB6F894DEBF0FBECDBFDF91DA
:1059B000CF911F910F91FF90EF90DF90CF90BF900C
:1059C000AF909F908F9008956093300A7093310A42
:1059D0008093320A9093330A2093340A3093350A25
:1059E0004093360A5093370A08958F929F92AF9250
:1059F000BF92CF92DF92EF92FF920F931F93CF93BC
:105A0000DF93CDB7DEB728970FB6F894DEBF0FBE91
:105A1000CDBF29833A834B835C836D837E838F83E1
:105A200098878D809E80AF80B884E980FA800B8152
:105A30001C81E114F1040105110501F180E09AECEB
:105A4000AAE9BBE3880E991EAA1EBB1EC501B401BC
:105A500023EB36EE4EE050E00E94573A690108947D
:105A6000E108F108010911098AE0EE0CFF1C001F92
:105A7000111F8A95D1F7CE0CDF1C09C0C501B401F6
:105A800023EB36EE4EE050E00E94573A6901B60132
:105A900002C06050744094E061307907D0F78827E5
:105AA000992723EB36EE4EE050E00E94053A675A04
:105AB0007C48884F9F4F681579058A059B0518F427
:105AC0000894C11CD11CC60128960FB6F894DEBFFD
:105AD0000FBECDBFDF91CF911F910F91FF90EF903F
