:100000000C946F010C946F260C948E010C948E014D
:100010000C948E010C948E010C948E010C948E0124
:100020000C948E010C94A1260C948E010C948E01DC
:100030000C948E010C94D3240C948E010C94D32434
:100040000C948E010C9406250C948E010C948E0158
:100050000C948E010C948E010C948E010C948E01E4
:100060000C948E010C948E010C948E010C948E01D4
:100070000C948E010C948E010C948E010C948E01C4
:100080000C9410250C948E010C948E010C948E010E
:100090000C948E010C948E010C948E010C948E01A4
:1000A0000C948E010C948E010C948E010C948E0194
:1000B0000C948E010C948E010C948E010C948E0184
:1000C0000C948E010C948E010C948E01C216C816ED
:1000D000CB16CE16D116D416DA16D716DD16E016C4
:1000E000E316E916EC16EF16F216E616BF16C5165D
:1000F000554E4B4F574E004661696C656420746FD6
:10010000206372656174652053656D6170686F72FC
:1001100065004661696C656420746F206372656177
:100120007465205369676E616C004B65726E656C17
:100130002066756E6374696F6E206E6F7420696DD2
:10014000706C656D656E74656400446576696365A1
:1001500020447269766572204572726F7200576131
:10016000746368646F6720526573746172740054BD
:10017000696D6572204F766572666C6F7700556E9B
:1001800068616E646C656420496E74657272757026
:100190007420566563746F72004C6F7720566F6CD5
:1001A00074616765004578747261205461736B20D7
:1001B000737461727465642C206973206E726B5F56
:1001C0006366672E68206F6B3F0049646C65206F23
:1001D00072204B65726E656C20537461636B204FA7
:1001E000766572666C6F7700556E657870656374BE
:1001F00065642052657374617274004475706C6933
:100200006361746564205461736B204944005363D7
:10021000686564756C6572204D69737365642057F9
:10022000616B657570005461736B20526573657204
:1002300076652056696F6C617465640052657365FC
:10024000727665204572726F7220696E2053636802
:100250006564756C657200496E76616C69642053E3
:100260007461636B20506F696E74657200546173C2
:100270006B20537461636B204F766572666C6F7789
:1002800000537461636B20776173206E6F74206418
:100290006566696E6564206173206C6172676520B4
:1002A000656E6F7567682100293A20002A4E524B0F
:1002B000204552524F5228000D0A535441434B20BF
:1002C00044554D500D0A0045464765666700202B92
:1002D0002D2E303132333435363738396800112419
:1002E0001FBECFEFD1E2DEBFCDBF13E0A0E0B2E092
:1002F000E6E0F8E500E00BBF02C007900D92A436DF
:10030000B107D9F71BE0A4E6B3E001C01D92A43BFE
:10031000B107E1F70E9432050C94012C0C944225A0
:10032000AF92BF92CF92DF92FF920F931F93DF9312
:10033000CF93CDB7DEB72A970FB6F894DEBF0FBEC6
:10034000CDBFF82E8E010F5F1F4FF80180E0819323
:100350008F5F8A30E1F79BE0A92EB12CAC0EBD1E59
:1003600080E0C82E82E0D82E00D000D0EDB7FEB7D6
:100370003196ADB7BEB71296DC92CE921197D801E6
:100380008D918D01828313820E94D9290F900F9045
:100390000F900F900A151B0539F700D000D0EDB76C
:1003A000FEB7319684E092E0ADB7BEB712969C934B
:1003B0008E931197F28213820E94D9290F900F9089
:1003C0000F900F90B1E0BF1520F48F2D81500E9447
:1003D000900180E02A960FB6F894DEBF0FBECDBF25
:1003E000CF91DF911F910F91FF90DF90CF90BF9041
:1003F000AF900895CF92DF92EF92FF921F93CF9329
:10040000DF93CBE8D4E0CE0168E274E00E941B27C2
:10041000CE0165ED77E040E051E00E94652784E081
:100420008093930411E0109392041093940410931A
:1004300095048AE090E0A0E0B0E080939604909369
:100440009704A0939804B093990410929A04109280
:100450009B0410929C0410929D0480939E049093A0
:100460009F04A093A004B093A1041092A204109240
:10047000A3041092A4041092A5041092A604109252
:10048000A7041092A8041092A9041092AA04109232
:10049000AB041092AC041092AD04CE010E946A1E0F
:1004A000C6E8DAE0CE016AEE73E00E941B27CE01B7
:1004B0006EEA76E040E051E00E94652783E0809399
:1004C0008E0A10938D0A10938F0A1093900A10923F
:1004D000910A1092920A1092930A1092940A80E064
:1004E00095E6ADECBDE18093950A9093960AA093B2
:1004F000970AB093980A1092990A10929A0A109249
:100500009B0A10929C0AC12C21EED22E25EFE22EDE
:1005100025E0F22EC0929D0AD0929E0AE0929F0A98
:10052000F092A00A1092A10A1092A20A1092A30AB5
:100530001092A40A1092A50A1092A60A1092A70A75
:100540001092A80ACE010E946A1EC2EBD7E0CE012B
:1005500069E973E00E941B27CE0169E873E040E07F
:1005600051E00E94652782E08093BA071093B90793
:100570001093BB071093BC071092BD071092BE07E3
:100580001092BF071092C00780E897E1A4EBBCE28D
:100590008093C1079093C207A093C307B093C40789
:1005A0001092C5071092C6071092C7071092C8078D
:1005B000C092C907D092CA07E092CB07F092CC074D
:1005C0001092CD071092CE071092CF071092D0074D
:1005D0001092D1071092D2071092D3071092D4072D
:1005E000CE010E946A1EC4E6D3E0CE0168E473E047
:1005F0000E941B27CE0166E879E040E051E00E94AE
:10060000652710936C0310936B0310936D03109385
:100610006E0381E090E0A0E0B0E080936F039093E0
:100620007003A0937103B09372031092730310923E
:100630007403109275031092760310927703109250
:1006400078031092790310927A03C0927B03D092C0
:100650007C03E0927D03F0927E0310927F03109260
:1006600080031092810310928203109283031092F0
:1006700084031092850310928603CE010E946A1EA5
:10068000DF91CF911F91FF90EF90DF90CF90089571
:10069000CF92DF92EF92FF920F931F93DF93CF934E
:1006A000CDB7DEB728970FB6F894DEBF0FBECDBF2B
:1006B0000E94771C00D000D0EDB7FEB7319623E141
:1006C00032E0ADB7BEB712963C932E93119782835A
:1006D00013820E94D92900E010E00F900F900F9034
:1006E0000F906E010894C11CD11C32E2E32E32E05F
:1006F000F32E83E090E00E947B13C6010E943C2110
:1007000000D000D0EDB7FEB7F282E18214830383FC
:100710000E94D9290F900F900F900F900E942E1ECB
:1007200083E090E00E9460130F5F1F4F0E942E1E17
:10073000E0CFCF92DF92EF92FF920F931F93DF9360
:10074000CF93CDB7DEB728970FB6F894DEBF0FBEB4
:10075000CDBF0E94771C00D000D0EDB7FEB7319618
:1007600021E332E0ADB7BEB712963C932E931197BA
:10077000828313820E94D92900E010E00F900F902D
:100780000F900F906E010894C11CD11C40E4E42E20
:1007900042E0F42E82E090E00E947B13C6010E94AA
:1007A0003C2100D000D0EDB7FEB7F282E182148385
:1007B00003830E94D9290F900F900F900F900E94F1
:1007C0002E1E82E090E00E9460130F5F1F4F0E9478
:1007D0002E1EE0CF1F93CF93DF930E94771C00D093
:1007E00000D0EDB7FEB731962FE432E0ADB7BEB71B
:1007F00012963C932E931197828313820E94D929DB
:1008000010E00F900F900F900F90CEE5D2E081E0B6
:1008100090E00E947B1300D000D0EDB7FEB7319678
:10082000ADB7BEB71296DC93CE93119712831382A5
:100830000E94D9291F5F0F900F900F900F900E9478
:100840002E1E81E090E00E9460130E942E1EDFCFDA
:10085000EF92FF920F931F93CF93DF930E94771C29
:1008600000D000D0EDB7FEB731962DE632E0ADB73F
:10087000BEB712963C932E931197828313820E94E7
:10088000D9290F900F900F900F900E945106082FBA
:1008900000D000D08CE792E0EDB7FEB79283818361
:1008A000802F992787FD9095948383830E94D9296F
:1008B0000F900F900F900F90002329F082E992E0A3
:1008C0000E94EB29FFCF6091AC0B7091AD0B83E7D9
:1008D00090E00E94AD2900D000D000D084EA92E0E0
:1008E000ADB7BEB712969C938E931197EDB7FEB736
:1008F00013821482158216820E94D9298DB79EB761
:1009000006960FB6F8949EBF0FBE8DBF60E070E0F4
:1009100080E090E04EEA54E00E94BF0500D000D095
:1009200022EB32E0ADB7BEB712963C932E931197EF
:10093000992787FD909514969C938E9313970E9408
:10094000D929CEEAD4E08E010F900F900F900F902E
:1009500050E0E52E52E0F52E00D000D0EDB7FEB706
:100960003196ADB7BEB71296FC92EE921197D801B0
:100970008D918D01828313820E94D9290F900F904F
:100980000F900F90B4E00E3C1B0731F700D08AECBB
:1009900092E0EDB7FEB7928381830E94D9298091BE
:1009A000AE048F5FF801B0970F900F90819396E09F
:1009B000EE3AF907D9F760E070E080E090E04EEAA7
:1009C00054E00E9406068DEC92E00E94EB2960E064
:1009D00070E080E090E04EEA54E00E94BF05082FEE
:1009E00000D000D082EB92E0ADB7BEB712969C93D8
:1009F0008E931197802F992787FD909514969C933D
:100A00008E9313970E94D9290F900F900F900F90FB
:100A1000002329F500E012E000D000D0EDB7FEB7CA
:100A20003196ADB7BEB712961C930E93119789916C
:100A3000828313820E94D9290F900F900F900F90FC
:100A4000B4E0CE3CDB0741F700D08AEC92E0EDB792
:100A5000FEB7928381830E94D9290F900F900E9444
:100A60002E1EFDCF0E94111087E090E00E94E91336
:100A70008BED92E00E94EB290E94D01580E090E07F
:100A80000E94601381E090E00E94601382E090E099
:100A90000E94601383E090E00E94601360E070E0C9
:100AA00080E090E020E030E040E050E00E94E71F6E
:100AB0000E94FA010E947E1580E090E008958EBDAC
:100AC0000DB407FEFDCF8EB5089576989FEF9EBDBD
:100AD0000DB407FEFDCF9EB580648EBD0DB407FE3C
:100AE000FDCF8EB57EBD0DB407FEFDCF8EB56EBDBC
:100AF0000DB407FEFDCF8EB55EBD0DB407FEFDCF74
:100B00008EB54EBD0DB407FEFDCF8EB585E98EBD09
:100B10000DB407FEFDCF8EB58FEF8EBD0DB407FE71
:100B2000FDCF8EB508952FEF3FEF9FEF07C09EBD1D
:100B30000DB407FEFDCF8EB58F3F21F4215030401C
:100B4000B1F78FEF08952FEF3FEF8FEF9FEF07C0C3
:100B50009EBD0DB407FEFDCF8EB58E3F19F021501E
:100B60003040B1F7089580E09FEF9EBD0DB407FEC1
:100B7000FDCF2EB58F5F8A30C1F7769A08950F9317
:100B80001F93CF93DF93DC01CB01EA018C019D0120
:100B900047E036952795179507954A95D1F7AC010B
:100BA000542F4427550F81E1B8010E9465050E942A
:100BB000A3058E3F29F00E94B3052FEF3FEF20C021
:100BC00080E090E02FEF2EBD0DB407FEFDCF3EB5C7
:100BD0003883019632E08030930711F02196F3CFED
:100BE0008FEF8EBD0DB407FEFDCF8EB58FEF8EBD9E
:100BF0000DB407FEFDCF8EB50E94B30520E030E0B6
:100C0000C901DF91CF911F910F9108950F931F9309
:100C1000CF93DF93DC01CB01EA018C019D0177E0EA
:100C200036952795179507957A95D1F7AC01542FEE
:100C30004427550F88E1B8010E9465050E9493057D
:100C40008EEF8EBD0DB407FEFDCF8EB580E090E037
:100C5000FE01E80FF91F20812EBD0DB407FEFDCF68
:100C60002EB5019622E08030920791F78FEF8EBD6E
:100C70000DB407FEFDCF8EB58FEF8EBD0DB407FE10
:100C8000FDCF8EB50E94B30580E090E0DF91CF915B
:100C90001F910F91089583B182958F708095817017
:100CA00008951F9385B1897F85B92B9A84B1866099
:100CB00084B92C9A2498769A6E9A80E58CBD81E04E
:100CC0008DBD80E090E02FEF2EBD0DB407FEFDCF6F
:100CD0003EB501968A309105B9F780E060E070E09A
:100CE00040E050E00E9465050E949305813021F0AC
:100CF0000E94B30581E01BC01FEF1EBD0DB407FEAF
:100D0000FDCF8EB5882341F081E060E070E040E0E7
:100D100050E00E946505F1CF6091AC0B7091AD0B76
:100D200086E790E00E94AD290E94B30580E01F9104
:100D300008951F93182F8B3028F06AE00E94142921
:100D40000E949906812F6AE00E941429892F90E061
:100D50006091AC0B7091AD0BC0960E94AD291F91B4
:100D6000089590E09C012B503040220F331F220F3A
:100D7000331F865A9E4B820F931FF894409828E1A8
:100D80002EBD0DB407FEFDCF9EBD0DB407FEFDCFF9
:100D90008EBD0DB407FEFDCF409A78940895F89467
:100DA00040981EBC0DB407FEFDCF8EB5409A7894D6
:100DB00086FFF5CF08958091BE0A0895FC01409802
:100DC00089EC8EBD0DB407FEFDCF80E88EBD0DB45D
:100DD00007FEFDCF82E08150DF01A80FB11D9C917D
:100DE0009EBD0DB407FEFDCF8823A9F7409A409819
:100DF0008BEC8EBD0DB407FEFDCF80E88EBD0DB42B
:100E000007FEFDCF82E08150DF01A80FB11D1296D1
:100E10009C9112979EBD0DB407FEFDCF882399F7D4
:100E2000409A80818093BF0A81818093C00A828129
:100E30008093C10A83818093C20A0895409889E112
:100E40008EBD0DB407FEFDCF83E08EBD0DB407FE51
:100E5000FDCF86E08EBD0DB407FEFDCF409A4098D1
:100E60008AE18EBD0DB407FEFDCF8EE08EBD0DB4C0
:100E700007FEFDCF8EE08EBD0DB407FEFDCF409A7C
:100E800081E08093AF0A0895409889E18EBD0DB44A
:100E900007FEFDCF81E08EBD0DB407FEFDCF84ECD3
:100EA0008EBD0DB407FEFDCF409A1092AF0A089593
:100EB0008091AD0A9091AE0A089590E08F71907084
:100EC000806E906A409825E12EBD0DB407FEFDCFDF
:100ED0009EBD0DB407FEFDCF8EBD0DB407FEFDCF48
:100EE000409A08958091B00A9091B10A98609093C9
:100EF000B10A8093B00A409821E12EBD0DB407FEDF
:100F0000FDCF9EBD0DB407FEFDCF8EBD0DB407FE17
:100F1000FDCF409A08958091B00A9091B10A977FD1
:100F20009093B10A8093B00A409821E12EBD0DB490
:100F300007FEFDCF9EBD0DB407FEFDCF8EBD0DB4E7
:100F400007FEFDCF409A089581E08093BD0A80910D
:100F5000B00A9091B10A80619093B10A8093B00A6F
:100F6000409821E12EBD0DB407FEFDCF9EBD0DB40E
:100F700007FEFDCF8EBD0DB407FEFDCF409A08954C
:100F80001092BD0A8091B00A9091B10A8F7E909321
:100F9000B10A8093B00A409821E12EBD0DB407FE3E
:100FA000FDCF9EBD0DB407FEFDCF8EBD0DB407FE77
:100FB000FDCF409A089581E08093BA0A409883E07B
:100FC0008EBD0DB407FEFDCF409A409888E08EBDDF
:100FD0000DB407FEFDCF409A1092C30A089581E038
:100FE0008093BA0A409883E08EBD0DB407FEFDCF12
:100FF000409A409888E08EBD0DB407FEFDCF409A20
:101000001092C30A08951092BA0A409886E08EBDE5
:101010000DB407FEFDCF409A1092C30A089589B11E
:1010200090E026E0969587952A95E1F781700895DE
:101030008CB1881F8827881F089589B190E036E019
:10104000969587953A95E1F781700895DF93CF9350
:1010500000D000D00F92CDB7DEB7679902C080E014
:101060000DC21092BE0A679B1EC031991CC04098E9
:101070008FE78EBD0DB407FEFDCF1EBC0DB407FE7D
:10108000FDCF8EB5409A409888E08EBD0DB407FE26
:10109000FDCF409A409888E08EBD0DB407FEFDCF8D
:1010A000409A8FEFEBC140989FE79EBD0DB407FEBD
:1010B000FDCF1EBC0DB407FEFDCF9EB5409A9F77B5
:1010C000E1F440988FE78EBD0DB407FEFDCF1EBC46
:1010D0000DB407FEFDCF8EB5409A409888E08EBDD6
:1010E0000DB407FEFDCF409A409888E08EBD0DB448
:1010F00007FEFDCF409A8EEFC1C195308CF0E09194
:10110000B20AF091B30A292F332727FD30952B50CF
:1011100030404481552747FD509542175307ACF5A1
:1011200040988FE78EBD0DB407FEFDCF80E0292FDC
:10113000332727FD309505C01EBC0DB407FEFDCF3B
:101140008F5F482F50E04217530714F43199F4CFC2
:10115000409A40988FE78EBD0DB407FEFDCF1EBCB0
:101160000DB407FEFDCF8EB5409A409888E08EBD45
:101170000DB407FEFDCF409A409888E08EBD0DB4B7
:1011800007FEFDCF409A8DEF79C1E091B20AF09150
:10119000B30A9C509383882371F0E091B20AF091D6
:1011A000B30A8381992787FD909570E0861797078A
:1011B00011F08AEF63C140988FE78EBD0DB407FE32
:1011C000FDCFFE013296CF0102961EBC0DB407FE84
:1011D000FDCF2EB52193E817F907B9F7409AE091B2
:1011E000B20AF091B30A8A819B8145E09695879572
:1011F0004A95E1F78170878340988FE78EBD0DB4E3
:1012000007FEFDCF1EBC0DB407FEFDCFE091B20A74
:10121000F091B30A8EB58083409A40988FE78EBDD7
:101220000DB407FEFDCF80E007C01EBC0DB407FE65
:10123000FDCF8F5F843011F03199F7CF409A4098FD
:101240008FE78EBD0DB407FEFDCF80E090E01EBCA1
:101250000DB407FEFDCFE091B20AF091B30A2EB5AE
:10126000E80FF91F218301968230910581F7409A9A
:101270008A8183FF56C040988FE78EBD0DB407FE6C
:10128000FDCFE9EAFAE01EBC0DB407FEFDCF8EB536
:1012900081938AE0ED3AF807B1F7409A409889E9DE
:1012A0008EBD0DB407FEFDCF80E88EBD0DB407FEE8
:1012B000FDCF82E08150E82FF0E0E755F54F9081B7
:1012C0009EBD0DB407FEFDCF8823A1F7409A40983C
:1012D0008BE98EBD0DB407FEFDCF80E88EBD0DB449
:1012E00007FEFDCF82E08150E82FF0E0E555F54F95
:1012F00090819EBD0DB407FEFDCF8823A1F7409AD3
:1013000040988CE08EBD0DB407FEFDCF409A81E081
:101310008093BE0AE091B20AF091B30A83818450AF
:10132000838340988FE78EBD0DB407FEFDCF80E02C
:1013300010C01EBC0DB407FEFDCFE091B20AF091C3
:10134000B30A9EB50580F681E02DE80FF11D90836C
:101350008F5FE091B20AF091B30A482F50E02381E9
:10136000332727FD3095421753071CF3409A4098C6
:101370008FE78EBD0DB407FEFDCF1EBC0DB407FE7A
:10138000FDCF8EB5409A40989FE79EBD0DB407FEF5
:10139000FDCF8983FE013496CE0106961EBC0DB4A6
:1013A00007FEFDCF2EB52193E817F907B9F7409A4C
:1013B000E091B20AF091B30A8C81808790E080E0DE
:1013C0000CC0E091B20AF091B30A0580F681E02DDD
:1013D000E20FF31F2081820F9F5FE091B20AF0912C
:1013E000B30A292F30E04381552747FD5095241734
:1013F00035073CF399818917E1F040988FE78EBD5E
:101400000DB407FEFDCF1EBC0DB407FEFDCF8EB59B
:10141000409A409888E08EBD0DB407FEFDCF409AFB
:10142000409888E08EBD0DB407FEFDCF409A8CEF4A
:1014300025C08D8187FF07C08091C30A8F5F80938D
:10144000C30A81E01BC040988FE78EBD0DB407FE34
:10145000FDCF1EBC0DB407FEFDCF8EB5409A40985F
:1014600088E08EBD0DB407FEFDCF409A409888E01D
:101470008EBD0DB407FEFDCF409A8BEF0F900F90FD
:101480000F900F900F90CF91DF9108958091C30A34
:10149000882321F08091C30A1092C30A08954098CE
:1014A00088E08EBD0DB407FEFDCF409A409888E0DD
:1014B0008EBD0DB407FEFDCF409A0895992787FD94
:1014C0009095982F88278068409823E12EBD0DB411
:1014D00007FEFDCF9EBD0DB407FEFDCF8EBD0DB442
:1014E00007FEFDCF409A0895409886E08EBD0DB46A
:1014F00007FEFDCF409A409882E18EBD0DB407FEF5
:10150000FDCF85E08EBD0DB407FEFDCF88E08EBD1A
:101510000DB407FEFDCF409A40988EE28EBD0DB40B
:1015200007FEFDCF88E18EBD0DB407FEFDCF1EBCCA
:101530000DB407FEFDCF409A0E944F0A08954098CF
:1015400086E08EBD0DB407FEFDCF409A409882E143
:101550008EBD0DB407FEFDCF85E08EBD0DB407FE38
:10156000FDCF1EBC0DB407FEFDCF409A40988EE221
:101570008EBD0DB407FEFDCF1EBC0DB407FEFDCF22
:101580001EBC0DB407FEFDCF409A0E944F0A08957D
:10159000409884E08EBD0DB407FEFDCF409A0895BB
:1015A000409886E08EBD0DB407FEFDCF409A0895A9
:1015B000FF920F931F93DF93CF9300D000D0CDB74E
:1015C000DEB7FC018091AF0A882339F040989DE096
:1015D0009EBD0DB407FEFDCF409A1A829281492F1D
:1015E000552747FD509520E009C0A381B481A60F7F
:1015F000B71F3A816C91360F3A832F5F622F70E0EC
:101600006417750794F3292F245F2983882311F029
:10161000905F99836799FECF4E99FCCFF8944098DC
:1016200099E09EBD0DB407FEFDCF409A409899E029
:101630009EBD0DB407FEFDCF409A40989EE39EBD2F
:101640000DB407FEFDCF99819EBD0DB407FEFDCF01
:10165000409A21E438E83C832B839091BD0A99237A
:1016600021F021E638E83C832B83882329F02B8165
:101670003C8128603C832B8340989EE39EBD0DB443
:1016800007FEFDCFDE0113969E012B5F3F4F9C911D
:101690009EBD0DB407FEFDCF1196A217B307B9F793
:1016A000409A40989EE39EBD0DB407FEFDCF9091F9
:1016B000B40A9EBD0DB407FEFDCF409A40989EE34C
:1016C0009EBD0DB407FEFDCF20E030E0D901AE5441
:1016D000B54F14969C9114979EBD0DB407FEFDCF97
:1016E0002F5F3F4F2230310589F7409A40989EE3A3
:1016F0009EBD0DB407FEFDCFDF019F012E5F3F4F62
:101700009C919EBD0DB407FEFDCF1196A217B307A5
:10171000B9F7409A40989EE39EBD0DB407FEFDCFF9
:1017200020E030E0D901AE54B54F16969C91169743
:101730009EBD0DB407FEFDCF2F5F3F4F2230310518
:1017400089F7409A882399F040988EE38EBD0DB4B6
:1017500007FEFDCFAFEBBAE08C918EBD0DB407FE56
:10176000FDCF11968AE0A33CB807B1F7409A4098A4
:101770008EE38EBD0DB407FEFDCF80E00AC0A381CD
:10178000B481A20FB31F9C919EBD0DB407FEFDCF87
:101790008F5F282F30E0241735078CF3409A40984C
:1017A0008EE38EBD0DB407FEFDCF8A818EBD0DB4D4
:1017B00007FEFDCF409A85818823B1F18091BA0A56
:1017C000882339F4409883E08EBD0DB407FEFDCF29
:1017D000409A40981EBC0DB407FEFDCF8EB5409ACE
:1017E00081FFF7CF10E005E040980EBD0DB407FE75
:1017F000FDCF409A40981EBC0DB407FEFDCFFEB44D
:10180000409A1F5F153649F478948091AD0A909103
:10181000AE0A0E94661980E048C084E690E00E940B
:101820001B14F3FEE1CF07C0409884E08EBD0DB4D9
:1018300007FEFDCF409A78944E9BFECF4E99FECF87
:101840008091BD0A882391F084EA92E00E941B14E3
:10185000319B0EC040988FE78EBD0DB407FEFDCFC3
:101860001EBC0DB407FEFDCF8EB5409A81E00FC0BF
:10187000409888E08EBD0DB407FEFDCF409A409899
:1018800088E08EBD0DB407FEFDCF409A80E0F8944D
:10189000409896E09EBD0DB407FEFDCF409A789427
:1018A0009091B40A9F5F9093B40A0F900F900F909D
:1018B0000F90CF91DF911F910F91FF900895AF92FC
:1018C000BF92CF92DF92EF92FF920F931F93DF931D
:1018D000CF9300D000D00F92CDB7DEB78C017B0143
:1018E0005A0169010E94D024409888E08EBD0DB451
:1018F00007FEFDCF409A409888E08EBD0DB407FEEC
:10190000FDCF409A6799FECF4E99FCCFF89440984E
:1019100089E08EBD0DB407FEFDCF409A409889E066
:101920008EBD0DB407FEFDCF409A1A82D8011296E3
:101930002C911297622F772767FD709580E00CC07D
:10194000D8011396ED91FC911497E40FF51F9A813D
:101950003081930F9A838F5F482F50E046175707C7
:101960007CF3822F845F898340989EE39EBD0DB4F3
:1019700007FEFDCF8EBD0DB407FEFDCF409AF801E6
:101980008681882319F481E498E802C081E698E80A
:101990009C838B8340988EE38EBD0DB407FEFDCFF4
:1019A000FE013396CE01059620812EBD0DB407FEB3
:1019B000FDCF3196E817F907B9F7409A40988EE3C2
:1019C0008EBD0DB407FEFDCF8091B40A8EBD0DB45F
:1019D00007FEFDCF409A40988EE38EBD0DB407FE02
:1019E000FDCF80E090E0FC01EE54F54F24812EBD48
:1019F0000DB407FEFDCF019682309105A1F7409A04
:101A000040988EE38EBD0DB407FEFDCFF801C801EE
:101A1000029620812EBD0DB407FEFDCF3196E8174A
:101A2000F907B9F7409A40988EE38EBD0DB407FED2
:101A3000FDCF80E090E0FC01EE54F54F26812EBDF5
:101A40000DB407FEFDCF019682309105A1F7409AB3
:101A5000C701B5010E94ED23D80115968C91159709
:101A6000882381F18091BA0A882339F4409883E071
:101A70008EBD0DB407FEFDCF409A20E065E0E62E56
:101A80004098EEBC0DB407FEFDCF409A40981EBCB6
:101A90000DB407FEFDCFAEB4409A2F5F253649F452
:101AA00078948091AD0A9091AE0A0E94661980E008
:101AB00078C084E690E02D830E941B142D81A3FE44
:101AC000DFCF07C0409884E08EBD0DB407FEFDCF88
:101AD000409A8091EB020E941810809184009091AE
:101AE0008500F6019183808340988EE38EBD0DB40E
:101AF00007FEFDCFD80112964C911297552747FD4E
:101B0000509580E00DC0D8011396ED91FC9114978B
:101B1000E20FF31F90819EBD0DB407FEFDCF8F5FD6
:101B2000282F30E02417350774F3409A40988EE34D
:101B30008EBD0DB407FEFDCF8A818EBD0DB407FEAC
:101B4000FDCF409A4E9BFECFF8944E99FECF409821
:101B500088E08EBD0DB407FEFDCF409A409888E026
:101B60008EBD0DB407FEFDCF409A409889E08EBD32
:101B70000DB407FEFDCF409A409889E08EBD0DB4AC
:101B800007FEFDCF409A409886E08EBD0DB407FE5B
:101B9000FDCF409A78948091B40A8F5F8093B40A05
:101BA00081E00F900F900F900F900F90CF91DF91E9
:101BB0001F910F91FF90EF90DF90CF90BF90AF906B
:101BC0000895DF93CF9300D0CDB7DEB79A83898392
:101BD0009093B90A8093B80A84EF91E00E94A223FF
:101BE00040988AEE8EBD0DB407FEFDCF80E88EBD15
:101BF0000DB407FEFDCFFE013196CE010396208184
:101C00002EBD0DB407FEFDCF3196E817F907B9F7E1
:101C1000409A84EF91E00E94A2230F900F90CF9101
:101C2000DF9108958F929F92AF92BF92CF92DF92F1
:101C3000EF92FF920F931F93DF93CF9300D000D0CA
:101C4000CDB7DEB7E82E092F84E690E00E94A223EC
:101C5000CE2CD02E20E031E08E010F5F1F4FA3E08D
:101C6000AA2EB12CAC0EBD1EF60190808824818175
:101C700090E0882999299A83898384E690E02B83D0
:101C80003C830E94A22340982B813C81822F806854
:101C90008EBD0DB407FEFDCFC90195958795807C5B
:101CA0008EBD0DB407FEFDCF7801F80180818EBD99
:101CB0000DB407FEFDCF3196EA15FB05B9F7409A42
:101CC0000894C11CD11C2E5F3F4FF1E020313F072B
:101CD00059F684E690E00E94A22320E431E080E1FE
:101CE00091E01A8219824098422F40684EBD0DB48F
:101CF00007FEFDCFA90155954795407C4EBD0DB41B
:101D000007FEFDCFF80140814EBD0DB407FEFDCFAB
:101D10003196EA15FB05B9F7409A4098482F40687C
:101D20004EBD0DB407FEFDCFAC0155954795407CE7
:101D30004EBD0DB407FEFDCFF80140814EBD0DB480
:101D400007FEFDCF3196EA15FB05B9F7409A0296DA
:101D50002E5F3F4F41E08E31940719F681E090E00D
:101D60009A83898340988EEC8EBD0DB407FEFDCF1B
:101D700080E88EBD0DB407FEFDCFC8010296F801C4
:101D800020812EBD0DB407FEFDCF3196E817F9076F
:101D9000B9F7409A40988EE98EBD0DB407FEFDCF8D
:101DA00080E88EBD0DB407FEFDCF0E5F1F4FF7011B
:101DB00080818EBD0DB407FEFDCF0894E11CF11C9F
:101DC000E016F106A1F7409A0F900F900F900F9038
:101DD000CF91DF911F910F91FF90EF90DF90CF9007
:101DE000BF90AF909F908F900895CF93DF93EC01B9
:101DF000862F409898E09EBD0DB407FEFDCF409A17
:101E0000409898E09EBD0DB407FEFDCF409A0E9419
:101E1000B106D093B30AC093B20ADF91CF9108956F
:101E20000E94B1060895CF92DF92FF920F931F9305
:101E3000DF93CF9300D0CDB7DEB78C01F62E5A8357
:101E400049836901159A88EE93E00E941B14169845
:101E500081E090E00E941B14169A84E690E00E94B4
:101E60001B14F894409881E08EBD0DB407FEFDCFA1
:101E7000409A82EE92E09093B10A8093B00A409823
:101E800081E18EBD0DB407FEFDCF82E08EBD0DB4A5
:101E900007FEFDCF82EE8EBD0DB407FEFDCF409A4A
:101EA000409882E18EBD0DB407FEFDCF85E08EBD6A
:101EB0000DB407FEFDCF1EBC0DB407FEFDCF409A4A
:101EC00040988CE18EBD0DB407FEFDCF1EBC0DB455
:101ED00007FEFDCF8FE78EBD0DB407FEFDCF409A04
:101EE000409889E18EBD0DB407FEFDCF81E08EBD27
:101EF0000DB407FEFDCF84EC8EBD0DB407FEFDCF03
:101F0000409A409887E18EBD0DB407FEFDCF8AE16F
:101F10008EBD0DB407FEFDCF86E58EBD0DB407FE68
:101F2000FDCF409A84EF91E00E94A223409888EE72
:101F30008EBD0DB407FEFDCF80E88EBD0DB407FE4B
:101F4000FDCFFE013196CE01039620812EBD0DB44A
:101F500007FEFDCF3196E817F907B9F7409A84EFED
:101F600091E00E94A22378948F2D0E94B10678946C
:101F70001093B30A0093B20A89819A819093B70AA9
:101F80008093B60AD092B90AC092B80A1092B40AE5
:101F90001092BA0A0E94CF061092BD0A1092AF0AA0
:101FA0001092BE0A0F900F90CF91DF911F910F9169
:101FB000FF90DF90CF9008958FEF0895813031F436
:101FC0008091C800881F8827881F0895882311F0F2
:101FD00080E008958091C000881F8827881F089599
:101FE0008091C80087FFFCCF8091C8008F778093D5
:101FF000C8008091CE00089585B7806185BF86E0D6
:1020000084B987E085B981E087B988B98CE38DB957
:102010008BE08AB98EE38EB988E781B980E482B912
:1020200008950E94FC0F80E58CBD81E08DBD089570
:102030008F3F09F471C0282F30E0277030702230B4
:10204000310589F12330310544F42115310589F03A
:102050002130310509F060C01AC02430310509F47F
:102060003EC0243031056CF12530310509F054C0F3
:1020700044C092B186958695869541E050E002C0B5
:10208000440F551F8A95E2F7942B92B943C095B13E
:1020900086958695869502C0220F331F8A95E2F7B2
:1020A000922B95B937C098B186958695869541E073
:1020B00050E002C0440F551F8A95E2F7942B98B95F
:1020C00029C09BB186958695869541E050E002C077
:1020D000440F551F8A95E2F7942B9BB91BC09EB104
:1020E00086958695869541E050E002C0440F551FC5
:1020F0008A95E2F7942B9EB90DC091B3869586958B
:10210000869541E050E002C0440F551F8A95E2F7E2
:10211000942B91BB81E008958FEF08958F3F09F4D0
:102120007CC0282F30E02770307022303105A1F1BB
:102130002330310544F42115310589F02130310572
:1021400009F06BC01CC02430310509F445C02430AF
:10215000310594F12530310509F05FC04DC032B131
:10216000282F26952695269581E090E002C0880FBD
:10217000991F2A95E2F78095832382B94CC095B1C7
:1021800086958695869502C0220F331F8A95E2F7C1
:102190002095292325B93FC038B1282F26952695AB
:1021A000269581E090E002C0880F991F2A95E2F7FA
:1021B0008095832388B92FC03BB1282F269526957B
:1021C000269581E090E002C0880F991F2A95E2F7DA
:1021D000809583238BB91FC03EB1282F2695269565
:1021E000269581E090E002C0880F991F2A95E2F7BA
:1021F000809583238EB90FC031B3282F269526955D
:10220000269581E090E002C0880F991F2A95E2F799
:102210008095832381BB81E008958FEF08958F3FE0
:1022200091F1282F30E02770307022303105C1F055
:10223000233031053CF42115310571F02130310591
:1022400011F50CC02430310579F02430310554F0FB
:1022500025303105C1F40AC020B109C023B107C03F
:1022600026B105C029B103C02CB101C02FB130E0A7
:1022700086958695869502C0359527958A95E2F7CD
:10228000822F817008958FEF08958F3F09F4F5C074
:10229000282F30E0277030702230310509F458C003
:1022A0002330310544F42115310591F021303105F9
:1022B00009F0E3C032C02430310509F493C0243062
:1022C00031050CF46AC02530310509F0D6C0AFC025
:1022D00090B1869586958695282F892F90E0022EBD
:1022E00002C0959587950A94E2F780FD0AC082B1F5
:1022F00041E050E002C0440F551F2A95E2F7842BBD
:102300000AC032B181E090E002C0880F991F2A957F
:10231000E2F78095832382B9AEC043B18695869556
:10232000869550E0082E02C0559547950A94E2F72D
:1023300002C0220F331F8A95E2F740FD04C095B119
:10234000922B95B998C085B12095282325B993C0C3
:1023500096B1869586958695282F892F90E0022E36
:1023600002C0959587950A94E2F780FD0AC088B16E
:1023700041E050E002C0440F551F2A95E2F7842B3C
:102380000AC038B181E090E002C0880F991F2A95F9
:10239000E2F78095832388B96EC099B186958695BA
:1023A0008695282F892F90E0022E02C0959587955B
:1023B0000A94E2F780FD0AC08BB141E050E002C010
:1023C000440F551F2A95E2F7842B0AC03BB181E0E8
:1023D00090E002C0880F991F2A95E2F78095832329
:1023E0008BB949C09CB1869586958695282F892FF3
:1023F00090E0022E02C0959587950A94E2F780FD41
:102400000AC08EB141E050E002C0440F551F2A952A
:10241000E2F7842B0AC03EB181E090E002C0880F51
:10242000991F2A95E2F7809583238EB924C09FB126
:10243000869586958695282F892F90E0022E02C0DA
:10244000959587950A94E2F780FD0AC081B341E033
:1024500050E002C0440F551F2A95E2F7842B0AC0B2
:1024600031B381E090E002C0880F991F2A95E2F70E
:102470008095832381BB81E008958FEF08958F3F7E
:1024800009F4F7C0282F30E0662309F083C02770D5
:10249000307022303105D9F12330310544F4211553
:1024A000310589F02130310509F0E3C01FC0243027
:1024B000310509F44CC024303105CCF1253031050B
:1024C00009F0D7C054C091B186958695869521E0D4
:1024D00030E002C0220F331F8A95E2F7822F8095E9
:1024E000892381B982B1822B82B9C1C044B186955A
:1024F0008695869502C0220F331F8A95E2F7922FA8
:102500009095942394B995B1922B95B9B0C097B199
:1025100086958695869521E030E002C0220F331F14
:102520008A95E2F7822F8095892387B92FC09AB1C7
:1025300086958695869521E030E002C0220F331FF4
:102540008A95E2F7822F809589238AB91FC09DB1B1
:1025500086958695869521E030E002C0220F331FD4
:102560008A95E2F7822F809589238DB90FC090B3A9
:1025700086958695869521E030E002C0220F331FB4
:102580008A95E2F7822F8095892380BB85B1822BC3
:1025900085B96DC0277030702230310589F1233044
:1025A000310544F42115310589F02130310509F058
:1025B00060C01AC02430310509F43EC02430310512
:1025C0006CF12530310509F054C044C091B18695B5
:1025D0008695869521E030E002C0220F331F8A9550
:1025E000E2F7922B91B943C094B186958695869572
:1025F00002C0220F331F8A95E2F7922B94B937C09D
:1026000097B186958695869521E030E002C0220F2D
:10261000331F8A95E2F7922B97B929C09AB1869514
:102620008695869521E030E002C0220F331F8A95FF
:10263000E2F7922B9AB91BC09DB186958695869537
:1026400021E030E002C0220F331F8A95E2F7922B7F
:102650009DB90DC090B386958695869521E030E0B2
:1026600002C0220F331F8A95E2F7922B90BB81E0C4
:1026700008958FEF0895882311F08FEF089580B1AA
:102680008095881F8827881F0895009711F484E19A
:1026900009C08130910511F48CE104C082309105AC
:1026A00029F484E20E94451181E008958330910568
:1026B00011F08FEF08958CE20E94451181E008959A
:1026C000009711F484E109C08130910511F48CE187
:1026D00004C08230910529F484E20E94181081E040
:1026E00008958330910511F08FEF08958CE20E94D8
:1026F000181081E00895009711F484E109C0813039
:10270000910511F48CE104C08230910529F484E232
:102710000E948E1081E008958330910511F08FEFB3
:1027200008958CE20E948E1081E00895882319F0AC
:1027300085B78F7E02C085B7806185BF81E008952F
:102740009091C00095FFFCCF9091C0009F7D909329
:10275000C0008093C60008959091C80095FFFCCFFB
:102760008093CE0008959093C5008093C40086E0C6
:102770008093C200E1ECF0E080818B7F8083A0EC4D
:10278000B0E08C9182608C93808188618083089511
:102790009093CD008093CC0086E08093CA00E9EC52
:1027A000F0E080818B7F8083A8ECB0E08C91826028
:1027B0008C9380818861808308958091C00087FF19
:1027C000FCCF8091C0008F778093C0008091C600BD
:1027D00008950F931F93CF93DF930E94C8130CEAC1
:1027E00013E1C0EFDFE0C801BE010E9461299093B0
:1027F000AD0B8093AC0BC801BE010E946129909380
:10280000AB0B8093AA0BDF91CF911F910F9108958D
:10281000CF93DF93EC0107C06091AC0B7091AD0BCF
:1028200090E00E94AD29FE01219684918823A1F7B2
:10283000DF91CF9108950000000000000000019793
:10284000D1F70895FC0187E090E060810E948C2A16
:1028500081E008950F931F93CF93DF93082F192FD3
:10286000C8E0D0E0CE01F80161918F010E948C2A6E
:102870002196C831D105B1F781E0DF91CF911F9149
:102880000F910895FC0186E090E060810E948C2AFF
:1028900081E008950E948C2A0895CF93DF93EC0184
:1028A00087E090E00E94842A888381E0DF91CF91C5
:1028B00008950F931F93CF93DF93082F192FC8E02C
:1028C000D0E0CE010E94842AF80181938F012196E5
:1028D000C831D105B1F781E0DF91CF911F910F9100
:1028E0000895CF93DF93EC0186E090E00E94842A64
:1028F000888381E0DF91CF910895CF93DF93EC013E
:1029000085E090E00E94842A888381E0DF91CF9166
:102910000895EF92FF920F931F93CF93DF93E82ECA
:10292000E7017E01F92EE70180E090E00E94842A11
:10293000082F8B8381E090E00E94842AE82E8A830E
:1029400082E090E00E94842AF82E898383E090E060
:102950000E94842A182F888384E090E00E94842AB1
:10296000FE0CF00EF10E8F1511F08FEF01C081E01B
:10297000DF91CF911F910F91FF90EF9008950E94EA
:10298000842A0895F894089578940895F894FFCFD0
:1029900085E690E008950E94AE210895CF92DF92DF
:1029A000EF92FF920F931F93CF93DF93EC016B0194
:1029B0007A018985823021F08091700B888301C073
:1029C00018828091700B853020F087E060E00E94D3
:1029D0002A178985823029F08091700B8F5F809350
:1029E000700B8091700B882319F481E08093700B39
:1029F0008881282F332727FD3095890155E0000F66
:102A0000111F5A95E1F7020F131F0A53154FF801D2
:102A1000D182C0829885928793E0918780871582C2
:102A20002B853C854D855E856F85788989899A8956
:102A30000E94F81FF801948F838F0881112707FDEA
:102A400010952B8D3C8D4D8D5E8D6F8D78A189A15C
:102A50009AA10E94F81FF80145E0EE0FFF1F4A956A
:102A6000E1F7E00FF11FEA53F54F968B858B8881D4
:102A7000992787FD90958C0135E0000F111F3A953D
:102A8000E1F7080F191F0A53154FF8018589968938
:102A9000238D348D820F931F908F878B2B893C89D8
:102AA0004D895E896F89788D898D9A8D0E94F81F76
:102AB000F801968F858F8881992787FD9095FC0175
:102AC00025E0EE0FFF1F2A95E1F7E80FF91FEA5303
:102AD000F54F858D968D928F818F81E090E090A348
:102AE000878FF382E28281E08487DF91CF911F910B
:102AF0000F91FF90EF90DF90CF900895DF92EF92CB
:102B0000FF920F931F93CF93DF93CEECDAE010E0A8
:102B1000D8808FEFD816B1F07EECE72E7AE0F72E52
:102B200000E0101741F0F7018081D81621F485E00C
:102B30006D2D0E942A170F5F81E290E0E80EF91ECA
:102B4000053079F71F5FA196153011F70E945E1BC3
:102B5000282F332727FD3095F90165E0EE0FFF1F81
:102B60006A95E1F7E20FF31FEA53F54F22852093B0
:102B7000830B91E28902C00111248A53954F9093EF
:102B8000820B8093810B9093730B8093720B209335
:102B9000740B0E9460270E944A270E948427FFCF5F
:102BA0000F931F93DF93CF93CDB7DEB7A3970FB6E5
:102BB000F894DEBF0FBECDBF0E945E188093710BEC
:102BC0008F3F21F48EE060E00E942A170E94D326F6
:102BD000882321F486E060E00E942A171092740B8B
:102BE0001092820B1092810B1092730B1092720B49
:102BF0001092830B1092800B8FEF80936D0B80935C
:102C00006F0B80936E0B93E69093D00A8093CE0A5D
:102C10009093F10A8093EF0A9093120B8093100B1C
:102C20009093330B8093310B9093540B8093520B02
:102C3000E4E8FBE0CF01059694838383F783E68382
:102C4000FC018BE0ED39F807A9F71092860B109282
:102C5000850B1092A10B1092A00B1092770B109283
:102C6000760B7997F093C50AE093C40A8E010F5F43
:102C70001F4FC80163E971E20E941B27C80166E08B
:102C800079E040E850E00E94652785E580930609D9
:102C900019861C8E1D8E1E8E1F8E18A219A21AA2B6
:102CA0001BA281E0888792E09A878B87C8010E94E7
:102CB0006A1EA3960FB6F894DEBF0FBECDBFCF91AC
:102CC000DF911F910F910895E091810BF091820B9C
:102CD00084870895E091810BF091820B848508959B
:102CE00020910509222311F480E00895FB0120833F
:102CF00020918904FC01208381E008951F93809135
:102D00000509882311F41F9108950E94C2140E949E
:102D1000C2148CEA92E00E94081400D000D0EDB7F3
:102D2000FEB731968CE093E0ADB7BEB712969C9398
:102D30008E93119780918904828313820E94D929EE
:102D40000F900F900F900F9088EA92E00E94081465
:102D500080910509843110F010920509E091050970
:102D60008E2F90E0FC013197E231F105F0F5EA5940
:102D7000FF4FEE0FFF1F0590F491E02D099481E8BD
:102D800092E035C08DE692E032C087E592E02FC038
:102D90008CE392E02CC086E292E029C08EE092E0C3
:102DA00026C08BEF91E023C088EE91E020C08AEC32
:102DB00091E01DC085EA91E01AC089E991E017C051
:102DC0008EE791E014C08FE691E011C08EE591E0AE
:102DD0000EC08AE491E00BC08AE291E008C082E173
:102DE00091E005C087EF90E002C080EF90E00E9484
:102DF00008146091AC0B7091AD0B8DE090E00E94D7
:102E0000AD296091AC0B7091AD0B8AE090E00E940F
:102E1000AD2982E090E00E947B1383E090E00E9465
:102E2000601310E088EE93E00E94A2231F5F143627
:102E3000C9F783E090E00E947B1382E090E00E945B
:102E4000601310E088EE93E00E94A2231F5F143607
:102E5000C9F7DFCF80930509609389040E947E162D
:102E6000089580930509E091810BF091820B808594
:102E7000809389040E947E160895992787FD909576
:102E8000FC0125E0EE0FFF1F2A95E1F7E80FF91F7F
:102E9000EA53F54FA281B3818C91853521F085E508
:102EA0008C938FEF08958081918122E28030920788
:102EB00010F481E0089582E10E9431178FEF0895A8
:102EC0006F927F928F929F92AF92BF92CF92DF923A
:102ED000EF92FF920F931F93CF93DF9388EB92E0D3
:102EE0000E94081400D000D08FE093E0ADB7BEB7C9
:102EF00012969C938E931197E091810BF091820B27
:102F00008085992787FD909514969C938E931397AF
:102F10000E94D929E091810BF091820BC281D3816B
:102F200088E193E0EDB7FEB792838183D483C383B6
:102F30000E94D929EDB7FEB7319665E2A62E63E06F
:102F4000B62EADB7BEB71296BC92AE9211978881DD
:102F5000828313820E94D92952E3C52E53E0D52ED5
:102F6000EDB7FEB7D282C182E091810BF091820B66
:102F700080819181ADB7BEB714969C938E931397C1
:102F80000E94D9294CE3E42E43E0F42EEDB7FEB7BE
:102F9000F282E1828091810B9091820B94838383F2
:102FA0000E94D929C6ECDAE000E010E00F900F9003
:102FB0000F900F903CE4832E33E0932E3501BC2C10
:102FC000AE2CCF2CEA80FB8000D000D000D0EDB733
:102FD000FEB73196ADB7BEB712969C928E921197FE
:102FE00013830283F582E4820E94D9290F900F9007
:102FF000EDB7FEB73196ADB7BEB711966C9211978B
:1030000012967C92D7018C91828313820E94D929D7
:10301000EDB7FEB7B182D282888199819483838390
:103020000E94D929ADB7BEB71196AC9211971296EE
:10303000CC9212971496DC93CE9313970E94D929C1
:103040000F5F1F4FA1960F900F900F900F900530BC
:10305000110509F0B7CFDF91CF911F910F91FF902C
:10306000EF90DF90CF90BF90AF909F908F907F9028
:103070006F900895CF93DF93E091810BF091820BD5
:10308000C281D3818881853539F00E94601781E043
:103090000E94311785E58883E091810BF091820BC6
:1030A0008081918122E28030920728F00E9460178F
:1030B00082E10E943117DF91CF910895EF92FF9244
:1030C0000F931F93E090AE07F090AF070091B00709
:1030D0001091B10780E090E0A8019701082E04C08C
:1030E00056954795379527950A94D2F721703070F9
:1030F00021153105C9F421E030E040E050E0082E10
:1031000004C0220F331F441F551F0A94D2F72E29E3
:103110003F29402B512B2093AE073093AF074093AC
:10312000B0075093B10705C0019680329105A1F612
:103130008FEF1F910F91FF90EF900895E091810B19
:10314000F091820B65857685878590890895EF9249
:10315000FF920F931F9321E030E040E050E004C065
:10316000220F331F441F551F8A95D2F7E091810B20
:10317000F091820B85859685A785B08979018A01B2
:10318000E822F9220A231B23E114F10401051105A9
:1031900011F48FEF19C020953095409550958223FA
:1031A0009323A423B52385879687A787B08B81892E
:1031B0009289A389B48982239323A423B523818B85
:1031C000928BA38BB48B81E01F910F91FF90EF90B6
:1031D0000895992787FD90952091AE073091AF070C
:1031E0004091B0075091B107082E04C056954795FD
:1031F000379527950A94D2F7217030702115310543
:1032000011F48FEF0895E091810BF091820B21E092
:1032100030E040E050E004C0220F331F441F551F30
:103220008A95D2F785859685A785B089822B932BC1
:10323000A42BB52B85879687A787B08B81E008954F
:1032400080E090E008952BE08D36920711F08FEF2B
:10325000089580E008950E9423198F3F11F481E0C2
:1032600003C0813029F482E00E9464168FEF089534
:10327000992787FD9095FC01EE0FFF1FE80FF91FBE
:10328000E359F44F8FEF8083828381838091800B99
:1032900081508093800B81E008950E9423198F3F15
:1032A00011F481E003C0813029F482E00E946416A9
:1032B0008FEF0895992787FD9095FC01EE0FFF1F72
:1032C000E80FF91FE359F44F82810895EF92FF92BE
:1032D0000F931F93DF93CF930F92CDB7DEB70E946A
:1032E00023198F3F11F481E003C0813029F482E07B
:1032F0000E9464168FEF44C0282F332727FD309596
:103300008901000F111F020F131F0359144FD80119
:1033100012962C9112979C9129178CF589830E9403
:10332000C214F80192819F5F9283E091810BF0912A
:10333000820B1482EDECFAE08981282F332727FDD8
:103340003095432F532F93E08081823089F4E284BB
:10335000F38404851585E216F3060407150741F486
:103360009283178616861082128613861486158617
:10337000B1968BE0E237F80739F70E94C41481E078
:103380000F90CF91DF911F910F91FF90EF900895D3
:10339000EF92FF920F931F93DF93CF930F92CDB7CE
:1033A000DEB751E0E52EF12C012D112D04C0EE0CFD
:1033B000FF1C001F111F8A95D2F78091AE079091D4
:1033C000AF07A091B007B091B1078E219F21A02334
:1033D000B1230097A105B10511F481E042C00E941C
:1033E000C214EDECFAE080E093E020812130B1F4EA
:1033F00022853385448555852E213F214023512345
:10340000211531054105510549F09283178616862D
:103410001082E286F3860487158781E020812230BE
:1034200091F422853385448555852E153F05400747
:10343000510749F4928317861686108212861386E6
:103440001486158681E0B1962BE0E237F20769F623
:1034500089830E94C4148981882311F081E004C00B
:1034600082E00E9464168FEF0F90CF91DF911F9141
:103470000F91FF90EF900895EF92FF920F931F939B
:10348000CF93DF93C82FDD27C7FDD09561E0E62EEF
:10349000F12C012D112D0C2E04C0EE0CFF1C001F71
:1034A000111F0A94D2F78091AE079091AF07A091B7
:1034B000B007B091B1078E219F21A023B1230097BF
:1034C000A105B10511F48FEF5CC00E94C214EDECB0
:1034D000FAE0A8019701209530954095509563E05A
:1034E00081818F3F39F186819781A085B1858E15C5
:1034F0009F05A007B10731F412861386148615863E
:103500001082628386819781A085B185822393236F
:10351000A423B52386839783A087B187828593856B
:10352000A485B58582239323A423B523828793871B
:10353000A487B587B1969BE0E237F90789F62EEFAD
:103540003FEF4FEF5FEF04C0220F331F441F551FA3
:10355000CA95D2F78091AE079091AF07A091B007BE
:10356000B091B10782239323A423B5238093AE07A0
:103570009093AF07A093B007B093B1070E94C41413
:1035800081E0DF91CF911F910F91FF90EF9008950F
:103590000F931F93DF93CF930F92CDB7DEB70E94A7
:1035A00023198F3F11F481E003C0813029F482E0B8
:1035B0000E9464168FEF40C089830E94C2148981E3
:1035C000082F112707FD1095F801EE0FFF1FE00FE0
:1035D000F11FE359F44F92819923B1F4E091810BEB
:1035E000F091820B978192609783992787FD909540
:1035F000A92FB92F818B928BA38BB48B0E94C414FB
:1036000080E090E00E949B1DF801EE0FFF1FE00F8D
:10361000F11FE359F44F828181508283A091810B85
:10362000B091820B81811B968C931B9781E014963D
:103630008C930E94C41481E00F90CF91DF911F9171
:103640000F910895E091810BF091820B25853685CD
:1036500047855089262337234823592321153105CF
:103660004105510529F420E030E040E050E023C05E
:10367000618B728B838B948B21E027830090710B7D
:1036800004C096958795779567950A94D2F76170EF
:1036900070706115710519F00E94391D04C080E039
:1036A00090E00E949B1DE091810BF091820B21899B
:1036B000328943895489B901CA010895E091760B92
:1036C000F091770B80810895E091760BF091770B64
:1036D00003C00380F481E02D3097D9F70895DF927D
:1036E000EF92FF920F931F93CF93DF93E091C40A61
:1036F000F091C50A309709F499C06091760B7091EA
:10370000770B6115710519F4A0E0B0E055C0DB013D
:10371000482F552747FD50959A0115E0220F331F7A
:103720001A95E1F7240F351F2A53354F8901065F9B
:103730001F4F44E0E42EF12CE20EF31E255F3F4FB5
:103740004C9150E0EA0195E0CC0FDD1F9A95E1F72E
:10375000C40FD51FCA53D54F9C81992329F0DB8410
:10376000E8019881D91640F1E7019881992379F011
:10377000EA0195E0CC0FDD1F9A95E1F7C40FD51F44
:10378000CA53D54FDA84E9019881D916A8F0EA0125
:1037900095E0CC0FDD1F9A95E1F7C40FD51FCA53F2
:1037A000D54F4A85E8019881491730F013960D905E
:1037B000BC91A02D109721F68083C381D481D09332
:1037C000C50AC093C40AA617B707B1F4109749F009
:1037D000B483A383128211821296FC93EE93119705
:1037E00006C01482138212821182FA83E983F09355
:1037F000770BE093760B1AC011968D919C911297DE
:10380000AC17BD0759F092838183B483A3831196CB
:10381000CD91DC911297FC83EB8304C01482138258
:10382000928381831296FC93EE931197DF91CF914F
:103830001F910F91FF90EF90DF900895CF93DF934A
:10384000E091760BF091770B309709F44DC0482F3B
:10385000552747FD5095808190E08417950779F4AE
:10386000A381B481B093770BA093760B12961C9230
:103870001E9211970EC0E22FF92F3097A9F16081A7
:1038800070E02381948164177507A9F720C0BA837B
:10389000A983A091C40AB091C50A109739F4F09396
:1038A000C50AE093C40A148213820AC0B483A383B6
:1038B0001296FC93EE931197F093C50AE093C40A15
:1038C000E091C40AF091C50A128211820DC0A18153
:1038D000B28113962C93139714969C931497C381DB
:1038E000D4812097A1F6D5CFDF91CF910895E091B3
:1038F000810BF091820B808508950E941027E09142
:10390000810BF091820B85818823B9F70895EF929E
:10391000FF921F93DF93CF93CDB7DEB728970FB6F3
:10392000F894DEBF0FBECDBF29833A834B835C83FF
:103930006D837E838F8398870E943A180E94C214F9
:10394000E091810BF091820B81E0858381E090E032
:1039500090A3878F0E94D024182F29813A814B8110
:103960005C816D817E818F8198850E94F81FE09136
:10397000810BF091820BE12EFF248E0D9F1D968B03
:10398000858B183F78F40E9465240894E11CF11C93
:1039900090E0E816F90634F4812F8E5F80930409D5
:1039A0000E9469240E94C4140E947D1C81E0289614
:1039B0000FB6F894DEBF0FBECDBFCF91DF911F9140
:1039C000FF90EF9008958F929F92AF92BF92CF9207
:1039D000DF92EF92FF920F931F93DF93CF93CDB7B8
:1039E000DEB760970FB6F894DEBF0FBECDBF298754
:1039F0003A874B875C876D877E878F87988BCE0150
:103A000001960E943C21CE01099609851A852B85D5
:103A10003C854D855E856F85788989809A80AB80ED
:103A2000BC80CD80DE80EF80F8840E94BF1E88239A
:103A300011F48FEF0BC029853A854B855C856D8528
:103A40007E858F8598890E94871C81E060960FB6DD
:103A5000F894DEBF0FBECDBFCF91DF911F910F91C4
:103A6000FF90EF90DF90CF90BF90AF909F908F909E
:103A700008951F930E94C214E091810BF091820B74
:103A800081E0858386830E94D024182F883F80F4AC
:103A90000E946524212F30E02F5F3F4F90E02817D0
:103AA000390734F4812F8E5F809304090E946924C2
:103AB0000E94C4140E947D1C81E01F9108951F93F1
:103AC000DF93CF93CDB7DEB728970FB6F894DEBF5C
:103AD0000FBECDBF29833A834B835C836D837E8386
:103AE0008F8398870E94C2140E94D024182F2981A6
:103AF0003A814B815C816D817E818F8198850E94A6
:103B0000F81F8330910510F48FEF0BC0E091810B0B
:103B1000F091820B810F911D968B858B0E94C414AE
:103B200081E028960FB6F894DEBF0FBECDBFCF91CF
:103B3000DF911F9108951F93CF93DF93EC010E94B3
:103B4000C214E091810BF091820B81E08583D68BCA
:103B5000C58B0E94D024182F883F80F40E946524D2
:103B6000212F30E02F5F3F4F90E02817390734F4C2
:103B7000812F8E5F809304090E9469240E94C414DF
:103B80000E947D1C81E0DF91CF911F910895EF92FB
:103B9000FF921F93CF93DF937C010E94C214E091A8
:103BA000810BF091820B81E085830E94D024182F35
:103BB000E091810BF091820BC82FD0E0EC0EFD1E3E
:103BC000F68AE58A883F68F40E946524219690E091
:103BD000C817D90734F4812F8E5F809304090E949F
:103BE00069240E94C4140E947D1C81E0DF91CF9162
:103BF0001F91FF90EF9008951F93CF93DF93EC01F7
:103C00000E943A18209711F4C1E0D0E00E94C2143B
:103C1000E091810BF091820B81E08583D0A3C78F67
:103C20000E94D024182F883F80F40E946524212F01
:103C300030E02F5F3F4F90E02817390734F4812F91
:103C40008E5F809304090E9469240E94C4140E941C
:103C50007D1C81E0DF91CF911F9108951F930E94F9
:103C60003A180E94C214E091810BF091820B81E01E
:103C700090E090A3878F81E085830E94D024182F45
:103C8000883F80F40E946524212F30E02F5F3F4F52
:103C900090E02817390734F4812F8E5F8093040950
:103CA0000E9469240E94C4140E947D1C81E01F911F
:103CB0000895E091810BF091820B80850E941E1C7B
:103CC000E091810BF091820B84E081870E942E1E8F
:103CD00081E00895EF92FF920F931F93CF93DF93AC
:103CE000EC0169817A814B815C818D819E810E948A
:103CF0001F27BC018F81882369F04B815C81CE0135
:103D000020E030E000E010E0EE24FF240E94CE141A
:103D10001F8215C08881992787FD9095FC0125E0B9
:103D2000EE0FFF1F2A95E1F7E80FF91FEA53F54F51
:103D30008185833011F08FEF1BC071836083888190
:103D4000282F332727FD3095F90105E0EE0FFF1FDF
:103D50000A95E1F7E20FF31FEA53F54F25893689FB
:103D60002115310521F492E091870E946F1B81E0BB
:103D7000DF91CF911F910F91FF90EF9008958F9257
:103D80009F92AF92BF92CF92DF92EF92FF920F93EA
:103D90001F93DF93CF93CDB7DEB760970FB6F8943C
:103DA000DEBF0FBECDBFFC0109831A832B833C838A
:103DB0004D835E836F83788789869A86AB86BC86BF
:103DC000CD86DE86EF86F88AA980BA80CB80DC803B
:103DD0002D813E814F815885E984FA840B851C85AD
:103DE0008D859E85AF85B889AE14BF04C006D10607
:103DF00008F440C0EA14FB040C051D0591F42817D3
:103E000039074A075B07B0F1281B390B4A0B5B0BDC
:103E10002483358346835783108211821282138252
:103E20001EC0281739074A075B07D8F40894A10871
:103E3000B108C108D108AE18BF08C00AD10AA082D3
:103E4000B182C282D382205036434546544C281B4F
:103E5000390B4A0B5B0B248335834683578381E000
:103E60000AC0AE18BF08C00AD10AA082B182C282BD
:103E7000D382EDCF80E060960FB6F894DEBF0FBE20
:103E8000CDBFCF91DF911F910F91FF90EF90DF9009
:103E9000CF90BF90AF909F908F9008958F929F92F8
:103EA000AF92BF92CF92DF92EF92FF920F931F9348
:103EB000DF93CF93CDB7DEB760970FB6F894DEBF30
:103EC0000FBECDBFFC0109831A832B833C834D8336
:103ED0005E836F83788789869A86AB86BC86CD861B
:103EE000DE86EF86F88AED80FE800F8118858D854D
:103EF0009E85AF85B88929853A854B855C85A980E3
:103F0000BA80CB80DC802A0D3B1D4C1D5D1D2083BB
:103F10003183428353838E0D9F1DA01FB11F848365
:103F20009583A683B78310C020813181428153815C
:103F30002F5F3F4F4F4F5F4F208331834283538327
:103F400080509A4CAA49BB4380302AEC92072AE958
:103F5000A2072BE3B20740F784839583A683B78338
:103F600081E060960FB6F894DEBF0FBECDBFCF9153
:103F7000DF911F910F91FF90EF90DF90CF90BF9056
:103F8000AF909F908F900895FC0184819581A681C8
:103F9000B78110C020813181428153812F5F3F4F13
:103FA0004F4F5F4F208331834283538380509A4C1D
:103FB000AA49BB4380302AEC92072AE9A2072BE3E7
:103FC000B20740F784839583A683B78308956093EF
:103FD000780B7093790B80937A0B90937B0B2093E3
:103FE0007C0B30937D0B40937E0B50937F0B089599
:103FF0008F929F92AF92BF92CF92DF92EF92FF92F9
:104000000F931F93DF93CF93CDB7DEB728970FB6EB
:10401000F894DEBF0FBECDBF29833A834B835C8308
:104020006D837E838F83988789809A80AB80BC80E4
:10403000CD80DE80EF80F88481149104A104B10466
:10404000E9F080E09AECAAE9BBE3C80ED91EEA1EAB
:10405000FB1EC701B60123EB36EE4EE050E00E9496
:104060003429089481089108A108B1088401102F0F
:104070000027110F110F020F131F09C0C701B6014E
:1040800023EB36EE4EE050E00E9434298901B8015E
:1040900002C06050744094E061307907D0F780E04E
:1040A00090E023EB36EE4EE050E00E94F528675A90
:1040B0007C48884F9F4F6C157D058E059F0510F439
:1040C0000F5F1F4FC80128960FB6F894DEBF0FBED2
:1040D000CDBFCF91DF911F910F91FF90EF90DF90B7
:1040E000CF90BF90AF909F908F900895EF92FF92E6
:1040F0000F931F93DF93CF93CDB7DEB728970FB6FB
:10410000F894DEBF0FBECDBF7B018C017370807051
:10411000907023EB36EE4EE050E00E94F5286D8360
:104120007E838F839887A8019701EAE0569547958B
:1041300037952795EA95D1F729833A834B835C839A
:104140003A814B815C8128960FB6F894DEBF0FBE92
:10415000CDBFCF91DF911F910F91FF90EF90089508
:10416000AF92BF92CF92DF92EF92FF920F931F9385
:10417000DF93CF93CDB7DEB728970FB6F894DEBFA5
:104180000FBECDBF29833A834B835C836D837E83CF
:104190008F839887E980FA800B811C81AD80BE8077
:1041A000CF80D884E114F1040105110519F180E0F4
:1041B0009AECAAE9BBE3A80EB91ECA1EDB1EC60113
:1041C000B50123EB36EE4EE050E00E943429C901E0
:1041D000DA010894E108F10801091109FAE0EE0C8E
:1041E000FF1C001F111FFA95D1F7E80EF91E0A1FD8
:1041F0001B1F0CC0C601B50123EB36EE4EE050E0AC
:104200000E943429E22EF32E042F152FC801B70186
:1042100004C060507440804090406130A4E07A0750
:10422000A0E08A07A0E09A07A0F723EB36EE4EE065
:1042300050E00E94F528675A7C48884F9F4F6A15C6
:104240007B058C059D0528F40894E11CF11C011DDB
:10425000111DB701C80128960FB6F894DEBF0FBE36
:10426000CDBFCF91DF911F910F91FF90EF90DF9025
:10427000CF90BF90AF900895EF92FF920F931F934E
:10428000CF93DF93EC018091780B9091790BA09103
:104290007A0BB0917B0B88839983AA83BB83E090D0
:1042A0007C0BF0907D0B00917E0B10917F0BEC82CC
:1042B000FD820E831F830E94D024682F70E080E06F
:1042C00090E023EB36EE4EE050E00E94F5286E0DB4
:1042D0007F1D801F911F6C837D838E839F8310C001
:1042E000288139814A815B812F5F3F4F4F4F5F4F5C
:1042F000288339834A835B8360507A4C8A499B4385
:1043000060302AEC72072AE982072BE3920740F714
:104310006C837D838E839F83DF91CF911F910F915B
:10432000FF90EF9008951F9311E00E943A180E94A9
:1043300065248B3010F41093750B0E941027809128
:104340000609853519F088E00E94311780917E2199
:10435000853559F388E00E943117E7CF4F925F927D
:104360006F927F928F929F92AF92BF92CF92DF9285
:10437000EF92FF920F931F93CF93DF930E94C2148B
:104380000E94E5230E9431243C018AEF0E946924A7
:104390006091040970E080E090E023EB36EE4EE09F
:1043A00050E00E94F5287B018C0180917C0B90915C
:1043B0007D0BA0917E0BB0917F0BE80EF91E0A1FBA
:1043C0001B1FC801B7010E943429E61AF70A080B1F
:1043D000190B8091780B9091790BA0917A0BB09189
:1043E0007B0B16C080E096E3A5E6B4ECE80EF91E60
:1043F0000A1F1B1FC801B70123EB36EE4EE050E049
:104400000E943429E61AF70A080B190BD601C501D8
:104410005C016D010894A11CB11CC11CD11C20E0E1
:10442000E2162AECF2062AE902072BE31207D0F67D
:10443000E0927C0BF0927D0B00937E0B10937F0B30
:104440008093780B9093790BA0937A0BB0937B0BAE
:10445000E091810BF091820B85818823B9F08185F1
:104460008430A1F08781823029F0882341F0868151
:10447000882311F485E001C083E0818704C083E0D4
:1044800081871782168280850E941E1CE091810B15
:10449000F091820B858D968D009791F16085662352
:1044A00079F18185843061F1218D328D809104090B
:1044B00090E02817390750F482E00E942A17E09113
:1044C000810BF091820B128E118E04C0281B390BC8
:1044D000328F218FE091810BF091820B1085818DBD
:1044E000928D009769F483E0612F0E942A17E09172
:1044F000810BF091820B83E08187812F0E941E1C2B
:10450000CBECDAE0F0E6EF2EFAEEFF2E10E0E1E081
:104510008E2E912C02E071E0A72EB12CC12CD12C53
:104520008B818F3F09F47DC01882882369F18C81CB
:10453000843051F1288939898091040990E0281745
:10454000390728F0281B390B398B288B02C0198AB0
:10455000188A6A897B896817790728F46E897F89A8
:104560008617970728F4681B790B7B8B6A8B04C02E
:104570000E9420299B8B8A8B8A899B89009721F432
:104580008E899F899B8B8A8B8C81833009F049C0EF
:10459000888999890097E9F58A81882391F0898132
:1045A000882379F0D601C5010090710B04C0880FF3
:1045B000991FAA1FBB1F0A94D2F78C879D87AE87CD
:1045C000BF871A82198218828A8D9B8D288D398D1A
:1045D0008130910559F43D8B2C8B0C838A899B8902
:1045E000998B888B812F0E946F1B13C03D8B2C8B66
:1045F00001972E893F89AC01429FC001439F900DD6
:10460000529F900D1124998B888B9B8B8A8B9B8E4C
:104610008A8E488859884114510419F04E145F0459
:1046200008F027011F5FA196153011F0720178CFB5
:104630000E945E1B182F992787FD9095FC0165E06D
:10464000EE0FFF1F6A95E1F7E80FF91FEA53F54FE8
:1046500042854093830B81E21802C00111248A53E2
:10466000954F9093730B8093720B1123A1F0258DBE
:10467000368D2115310551F0218D328D2A3F3105BE
:1046800028F42415350528F5290123C05BEF4516CC
:104690005104F8F017C0ABE04A165104D0F0920173
:1046A0002A5030402A3F310540F429012930310594
:1046B00080F459E0452E512C0CC024E0421621E034
:1046C000520621F03AEF432E512C03C020EF422E28
:1046D000512C4093740B9093820B8093810B4092EA
:1046E00004090E94D02490E08415950550F00E94A2
:1046F000D024482E552442E050E0440E551E4092EE
:104700000409112311F01092750B842D0E94692465
:10471000C3016EEE72E00E94ED230E9459270E94B1
:104720008427DF91CF911F910F91FF90EF90DF9041
:10473000CF90BF90AF909F908F907F906F905F9041
:104740004F90089500000000000000000197D1F78D
:10475000089580E28093B6008EEF8093B30083E0EB
:1047600087BB92E09093B000E1EBF0E0808393B5DB
:10477000926093BD87BB84BD93B5926093BD109248
:10478000800091E090938100109285001092840047
:1047900093B5926093BD93B5916093BD93B59260CC
:1047A00093BD1092B20010920409A0E7B0E09C9172
:1047B00093609C93808310928A04089510928100E4
:1047C000089581E080938100089583B5816083BD61
:1047D00010928500109284000895EF92FF920F933B
:1047E0001F93DF93CF9300D0CDB7DEB72FEF89377C
:1047F000920710F080E090E09C0140E050E07B01E7
:1048000000E010E02E0D3F1D401F511F213060E0E1
:10481000360761E0460760E0560778F06091840053
:10482000709185007A83698369817A8186179707F9
:10483000A8F3205030404140504080918400909136
:1048400085009A83898389819A8182179307A8F3C7
:104850000F900F90CF91DF911F910F91FF90EF90EC
:104860000895DF93CF9300D0CDB7DEB78091840059
:10487000909185009A83898329813A81C9010F909B
:104880000F90CF91DF9108951092B100E0E7F0E032
:1048900080818D7F808380818E7F80830895809347
:1048A000B2000895E0E7F0E080818360808383E0D8
:1048B0008093B100089583B5826083BD1092B200E9
:1048C00010928A041092040908958091B3008F5FBA
:1048D000089581508093B3000895882311F41092B5
:1048E00071008FEF0895882311F08FEF08951092D3
:1048F00095001092940081E00895882319F020E03B
:1049000030E004C02091940030919500C9010895D1
:10491000882311F08FEF089582E08093710081E089
:104920000895882311F08FEF0895CB01019785300A
:10493000910510F4609303091092900088E0809331
:1049400091005093990040939800309388032093EE
:10495000870380910309813021F480919100816067
:104960000BC0823021F480919100826005C08330B9
:1049700031F48091910083608093910008C084306D
:1049800021F4809191008460F7CF853011F081E0AF
:1049900008958091910085608093910081E0089551
:1049A0008091B20008950F920FB60F921F922F922E
:1049B0003F924F925F926F927F928F929F92AF92AF
:1049C000BF92CF92DF92EF92FF920F931F932F939C
:1049D0003F934F935F936F937F938F939F93AF9387
:1049E000BF93CF93DF93EF93FF93A091810BB0918F
:1049F000820B0DB60D920EB60D921F92A091010979
:104A0000B09102091E90BEBFADBF08951F920F92D4
:104A10000FB60F9211240F900FBE0F901F90189594
:104A20001F920F920FB60F920BB60F9211242F9375
:104A30003F934F935F936F937F938F939F93AF9326
:104A4000BF93EF93FF93E0918703F0918803309732
:104A500011F0099504C08AE060E00E942A17FF91D6
:104A6000EF91BF91AF919F918F917F916F915F91E6
:104A70004F913F912F910F900BBE0F900FBE0F9053
:104A80001F9018951F920F920FB60F920BB60F92B0
:104A900011242F933F934F935F936F937F938F9343
:104AA0009F93AF93BF93EF93FF938AE060E00E94E0
:104AB0002A17FFCF882311F4E89A33C0813011F40C
:104AC000E99A0895823011F4EA9A2BC0833021F4D8
:104AD00080916B00816023C0843021F480916B0051
:104AE00082601DC0853021F480916B00846017C006
:104AF000863021F480916B00886011C0873021F4EA
:104B000080916B0080610BC0883021F480916B0034
:104B1000806205C0893039F480916B008064809395
:104B20006B0081E008958A3011F08FEF0895809135
:104B30006B00806880936B0081E00895882311F4F6
:104B4000E89833C0813011F4E9980895823011F467
:104B5000E9982BC0833021F480916B008E7F23C0B5
:104B6000843021F480916B008D7F1DC0853021F44D
:104B700080916B008B7F17C0863021F480916B0091
:104B8000877F11C0873021F480916B008F7E0BC02E
:104B9000883021F480916B008F7D05C0893039F415
:104BA00080916B008F7B80936B0081E008958A3049
:104BB00011F08FEF089580916B008F7780936B00D9
:104BC00081E00895882339F55093A50B4093A40BF9
:104BD000662321F4809169008C7F44C0613049F4E0
:104BE000809169008D7F8093690080916900816068
:104BF00039C0623049F48091690082608093690015
:104C0000809169008E7F2EC0633009F066C080916C
:104C10006900836027C0813041F55093A30B409316
:104C2000A20B662321F480916900837F1BC0613051
:104C300049F480916900877F8093690080916900C1
:104C4000846010C0623049F480916900886080936C
:104C50006900809169008B7F05C06330F1F5809118
:104C600069008C608093690036C0823031F55093C2
:104C7000A30B4093A20B662321F4809169008F7CE3
:104C8000F1CF613049F4809169008F7D8093690094
:104C9000809169008061E6CF623049F480916900BB
:104CA000806280936900809169008F7EDBCF6330E2
:104CB000A1F4809169008063D5CF8350883010F0D3
:104CC0008FEF089580916800816080936800509311
:104CD000A90B4093A80B81E0089581E008951F92ED
:104CE0000F920FB60F920BB60F9211242F933F9392
:104CF0004F935F936F937F938F939F93AF93BF93E4
:104D0000EF93FF93E091A40BF091A50B309711F076
:104D1000099504C08AE060E00E942A17FF91EF9194
:104D2000BF91AF919F918F917F916F915F914F91C3
:104D30003F912F910F900BBE0F900FBE0F901F90C1
:104D400018951F920F920FB60F920BB60F92112467
:104D50002F933F934F935F936F937F938F939F9383
:104D6000AF93BF93EF93FF93E091A80BF091A90B42
:104D7000309711F0099504C08AE060E00E942A177C
:104D8000FF91EF91BF91AF919F918F917F916F9123
:104D90005F914F913F912F910F900BBE0F900FBEDF
:104DA0000F901F9018959091B00080E0992309F41E
:104DB00081E00895089504B603FE02C08FEF0895C0
:104DC00081E00895A89508950E94C21484B7877F52
:104DD00084BFA895E0E6F0E08081886180838DE063
:104DE00080830E94C41408950E94C214A89584B7B9
:104DF000877F84BFE0E6F0E0808188618083108255
:104E00000E94C4140895089583B7817F866083BF8C
:104E100083B7816083BF889583B78E7F83BF0895F2
:104E200083B7817F83BF83B7816083BF889583B752
:104E30008E7F83BF0895FC0176836583089525E501
:104E4000FA012083FB0132979083818312921292A0
:104E50001292129212921292129212921292129232
:104E60001292129212921292129212921292129222
:104E70001292129212921292129212921292129212
:104E80001292129212921292129212921292129202
:104E9000CF01089585E580937E21EEEFF1E2F09356
:104EA0000209E09301098BEC94E190838093FF2148
:104EB00008958BEC94E19093FE218093FF21089557
:104EC0000E94A9230E94C4140895EF92FF920F93A9
:104ED0001F93CF93DF93EC018B017A014032510590
:104EE00018F481E10E9431170894E108F108E00EFE
:104EF000F11EFA82E9821C830B83DF91CF911F910F
:104F00000F91FF90EF900895A091720BB091730BE9
:104F1000CD91CDBFDD91DEBFFF91EF91DF91CF91BC
:104F2000BF91AF919F918F917F916F915F914F91C1
:104F30003F912F911F910F91FF90EF90DF90CF90B5
:104F4000BF90AF909F908F907F906F905F904F90A9
:104F50003F902F901F900F900FBE0F9018956F925B
:104F60007F928F929F92AF92BF92CF92DF92EF92F9
:104F7000FF920F931F93DF93CF93CDB7DEB72D979B
:104F80000FB6F894DEBF0FBECDBF6C014B018A0196
:104F9000FC0117821682838181FD06C02FEF3FEF4F
:104FA0000EC10E5F1F4F04C05E010894A11CB11C0E
:104FB000F601F380F401F3FC8591F3FE81914F013A
:104FC000882309F4F9C0853251F4F3FC2591F3FEEE
:104FD00021914F01253211F030E01FC085E290E0B1
:104FE00032C0222309F4E8C08EEC92E0622F70E018
:104FF0002C873D870E9456292C853D85009739F4E2
:10500000233211F4306103C02C3661F43068F401AE
:10501000F3FC2591F3FE21914F0137FFE2CF2223CC
:1050200009F4CAC0F32E87EC92E0622F70E02C875F
:105030003D870E9456292C853F2D009741F00C5F3B
:105040001F4F8FE390E0B6010E94AD29B1CF233608
:1050500029F0233791F0233509F50DC032E0E32E16
:10506000F12CE00EF11EF80180819181B6010E94C1
:10507000AD2987019DCFF1E0FF2AF80160807180A2
:1050800004C090E0B6010E94AD29F301F0FC8591C7
:10509000F0FE81913F018823A1F783CF243611F0E0
:1050A000293629F537FF08C0F801608171818281B6
:1050B00093810C5F1F4F09C0F801608171818827BF
:1050C00077FD8095982F0E5F1F4F2FEEF22EF32263
:1050D00097FF09C090958095709561957F4F8F4F90
:1050E0009F4FF0E4FF2AA5012AE030E035C02037C9
:1050F000B1F0213730F42835C9F02F3609F05CC003
:1051000006C0253739F0283709F056C00AC028E014
:1051100030E010C02FEEF2222AE030E00BC080E138
:10512000F82AE4E2FE2A20E130E004C0F4E0FF2A9D
:1051300020E132E0F7FE08C0F801608171818281D0
:1051400093810C5F1F4F07C0F8016081718180E07F
:1051500090E00E5F1F4FA5010E94262AE82EEA1854
:105160006F2C7724F6FE05C08DE290E0B6010E9418
:10517000AD2964FE15C0FE01EE0DF11D8081803366
:1051800079F080E390E0B6010E94AD2962FE08C08C
:10519000C30180729070885A9F4FB6010E94AD295A
:1051A000EA94F501EE0DF11D808190E0B6010E94B8
:1051B000AD29EE20A9F7FCCEF60126813781C90181
:1051C0002D960FB6F894DEBF0FBECDBFCF91DF9105
:1051D0001F910F91FF90EF90DF90CF90BF90AF9015
:1051E0009F908F907F906F900895629FD001739FE2
:1051F000F001829FE00DF11D649FE00DF11D929F73
:10520000F00D839FF00D749FF00D659FF00D9927B1
:10521000729FB00DE11DF91F639FB00DE11DF91FD5
:10522000BD01CF0111240895991B79E004C0991F95
:10523000961708F0961B881F7A95C9F780950895F0
:10524000AA1BBB1B51E107C0AA1FBB1FA617B707AC
:1052500010F0A61BB70B881F991F5A95A9F78095C8
:105260009095BC01CD010895A1E21A2EAA1BBB1B8B
:10527000FD010DC0AA1FBB1FEE1FFF1FA217B30722
:10528000E407F50720F0A21BB30BE40BF50B661F38
:10529000771F881F991F1A9469F7609570958095FC
:1052A00090959B01AC01BD01CF010895FC010590D3
:1052B000061621F00020D9F7C00108953197CF01DB
:1052C00008950F931F93CF93DF93EC018B01009709
:1052D00031F46115710519F420E030E038C081E047
:1052E00090E06EE070E00E949A2AFC019C01009719
:1052F00071F180E883830115110571F0138702872E
:1053000081E883838091AA0B9091AB0B009721F4E5
:10531000F093AB0BE093AA0B2097C9F0D187C0871D
:105320008381826083838091AC0B9091AD0B009759
:1053300071F4F093AD0BE093AC0B8091AE0B9091B8
:10534000AF0B009721F4F093AF0BE093AE0BC901C4
:10535000DF91CF911F910F9108950F931F93CF93DA
:10536000DF938C01EB018B8181FF1BC082FF0DC09D
:105370002E813F818C819D812817390764F4E88153
:10538000F9810193F983E88306C0E885F985802FC8
:105390000995009731F48E819F8101969F838E83BA
:1053A00002C00FEF1FEFC801DF91CF911F910F9146
:1053B0000895DF93CF93CDB7DEB7FE0135966191A7
:1053C00071918091AC0B9091AD0BAF010E94AF2712
:1053D000CF91DF910895EF92FF920F931F93CF9398
:1053E000DF938C01E091AC0BF091AD0B838181FFD9
:1053F00023C0C0E0D0E00EC06091AC0B7091AD0B4B
:10540000DB011896ED91FC9119970995009711F021
:10541000CFEFDFEFF80181918F01882369F7609169
:10542000AC0B7091AD0BDB011896ED91FC911997C7
:105430008AE00995009711F0CFEFDFEFCE01DF9101
:10544000CF911F910F91FF90EF900895FA01AA2735
:10545000283051F1203181F1E8946F936E7F6E5FB7
:105460007F4F8F4F9F4FAF4FB1E03ED0B4E03CD065
:10547000670F781F891F9A1FA11D680F791F8A1F48
:10548000911DA11D6A0F711D811D911DA11D20D0AF
:1054900009F468943F912AE0269F11243019305D69
:1054A0003193DEF6CF010895462F4770405D41935A
:1054B000B3E00FD0C9F7F6CF462F4F70405D4A33A7
:1054C00018F0495D31FD4052419302D0A9F7EACF6F
:1054D000B4E0A6959795879577956795BA95C9F79E
:1054E00000976105710508959B01AC010A2E069491
:1054F0005795479537952795BA95C9F7620F731F4A
:10550000841F951FA01D0895F999FECF92BD81BDFE
:10551000F89A992780B50895262FF999FECF1FBADA
:1055200092BD81BD20BD0FB6F894FA9AF99A0FBECC
:1055300001960895EF92FF920F931F93CF93DF93FD
:10554000689F8001699F100D789F100D1124C8017C
:105550000E94C02AE82EE7017E01F92EE701E1143E
:10556000F10431F08E2D60E070E0A8010E94FA2B6A
:10557000CE01DF91CF911F910F91FF90EF90089591
:10558000EF92FF920F931F93CF93DF938230910599
:1055900010F482E090E0C091B20BD091B30B40E0E8
:1055A00050E020E030E028C06881798168177907F1
:1055B000D8F06817790779F48A819B812115310524
:1055C00021F0F9019383828304C09093B30B8093FD
:1055D000B20BDE0129C04115510519F0641775079A
:1055E00018F4AB01D901FE019E017A816B81E72E8F
:1055F000E7017E01F62EE7012097B1F6411551052E
:10560000F9F0481B590B4430510580F48281938195
:10561000109729F013969C938E93129704C0909341
:10562000B30B8093B20BDF01129645C0DF01A40FCC
:10563000B51F8D939D9342505040518340833BC092
:105640002091B00B3091B10B2115310541F420911F
:105650005F03309160033093B10B2093B00B209126
:105660006103309162032115310541F42DB73EB736
:1056700040915D0350915E03241B350BA091B00B4C
:10568000B091B10BA217B307A0F42A1B3B0B28174C
:10569000390778F0AC014E5F5F4F2417350748F0AB
:1056A0004A0F5B1F5093B10B4093B00B8D939D93AA
:1056B00002C0A0E0B0E0CD01DF91CF911F910F912A
:1056C000FF90EF900895CF93DF93009709F48FC078
:1056D000FC013297138212826091B20B7091B30B6E
:1056E0006115710581F420813181280F391F809166
:1056F000B00B9091B10B8217930761F5F093B10B4A
:10570000E093B00B74C0EB0180E090E0CE17DF07B0
:1057100040F42A813B81CE012115310501F1E901D7
:10572000F5CFD383C283DF014D915D919D01240F9D
:10573000351FC217D30761F428813981240F351F23
:105740002E5F3F4F318320832A813B813383228325
:10575000009729F4F093B30BE093B20B48C0DC013F
:105760001396FC93EE931297EC0149915991C40F53
:10577000D51FEC17FD0779F420813181240F351FE7
:105780002E5F3F4F11963C932E93228133811396C7
:105790003C932E931297E0E0F0E0DB0112968D919E
:1057A0009C911397009721F0E62FF72FBC01F5CFBE
:1057B0009B012E5F3F4FDB018D919C911197820FD2
:1057C000931F4091B00B5091B10B4817590779F4D2
:1057D000309729F41092B30B1092B20B02C01382CF
:1057E0001282225030403093B10B2093B00BDF91E6
:1057F000CF910895DC0101C06D9341505040E0F716
:065800000895F894FFCFAB
:105806002564200044696520537461636B20256418
:105816000D0A005461736B34205049443D25640DD4
:105826000A005461736B3420636E743D25640D0A5F
:10583600005461736B33205049443D25640D0A00C2
:105846005461736B3320636E743D25640D0A0054F6
:1058560061736B32205049443D25640D0A00546142
:10586600736B3220636E743D25640D0A00546173B8
:105876006B31205049443D25640D0A006D6D635F10
:10588600696E69742072657475726E732025640A78
:105896000D006361726420696E6974206661696CCB
:1058A60065640D000A736563746F7220256C640A63
:1058B6000D0072656164736563746F72207265743E
:1058C60075726E65642025640A000A0D00416674CF
:1058D60065722077726974653A0D0053746172744B
:1058E600696E672075702E2E2E0D0018203801095E
:1058F600111921293139030B131B2333040C141CF2
:10590600242C343C050D151D252D353D25640063DD
:1059160075723A2025642000626F74746F6D203DA5
:10592600202578200063616E617279203D202578FC
:10593600200073746B203D2025782000746362205C
:1059460061646472203D2025780D0A0025643A20A2
:10595600626F74746F6D203D20257820002000B49E
:045966000B00000032
:00000001FF
