:100000000C94D2010C94A3310C94F1010C94F101E5
:100010000C94F1010C94F1010C94F1010C94F10198
:100020000C94F1010C94D1310C94F1010C94F10178
:100030000C94F1010C94842F0C94F1010C94842FF6
:100040000C94F1010C94B72F0C94F1010C94F10174
:100050000C94F1010C94F1010C94F1010C94F10158
:100060000C94F1010C94F1010C94F1010C94F10148
:100070000C94F1010C94F1010C94F1010C94F10138
:100080000C94C12F0C94F1010C94F1010C94F1012A
:100090000C947D1D0C94F1010C94F1010C94F10170
:1000A0000C94F1010C94F1010C94F1010C94F10108
:1000B0000C94F1010C94F1010C94F1010C94F101F8
:1000C0000C94F1010C94F1010C94F101DF20E52076
:1000D000E820EB20EE20F120F720F420FA20FD208C
:1000E0000021062109210C210F210321DC20E2201F
:1000F00043726561746520446F6E650D0A00537428
:10010000617274696E672075702E2E2E0D0A00497B
:100110005341204552524F523A20637265617469CF
:100120006E67207478207369676E616C2066616900
:100130006C65640D0A00495341204552524F523AB2
:10014000206372656174696E6720727820736967D5
:100150006E616C206661696C65640D0A0043433210
:10016000343230204552524F523A202052656C654D
:10017000617365206F662073656D6170686F72656D
:10018000206661696C65640D0A0043433234323085
:10019000204552524F523A202041636365737320C9
:1001A000746F2073656D6170686F72652066616938
:1001B0006C65640D0A00554E4B4F574E0046616901
:1001C0006C656420746F206372656174652053658B
:1001D0006D6170686F7265004661696C656420745A
:1001E0006F20637265617465205369676E616C008E
:1001F0004B65726E656C2066756E6374696F6E20F8
:100200006E6F7420696D706C656D656E74656400E9
:10021000446576696365204472697665722045722B
:10022000726F72005761746368646F672052657300
:10023000746172740054696D6572204F76657266E0
:100240006C6F7700556E68616E646C656420496EF2
:100250007465727275707420566563746F72004CA9
:100260006F7720566F6C74616765004578747261B2
:10027000205461736B20737461727465642C2069FF
:1002800073206E726B5F6366672E68206F6B3F0032
:1002900049646C65206F72204B65726E656C2053EB
:1002A0007461636B204F766572666C6F7700556E74
:1002B00065787065637465642052657374617274E7
:1002C000004475706C696361746564205461736B7C
:1002D000204944005363686564756C6572204D69FC
:1002E000737365642057616B657570005461736B3F
:1002F00020526573657276652056696F6C6174650E
:10030000640052657365727665204572726F722063
:10031000696E205363686564756C657200496E761A
:10032000616C696420537461636B20506F696E74F3
:100330006572005461736B20537461636B204F7658
:100340006572666C6F7700537461636B20776173BD
:10035000206E6F7420646566696E65642061732029
:100360006C6172676520656E6F7567682100293A58
:1003700020002A4E524B204552524F5228000D0A5F
:10038000535441434B2044554D500D0A00454647B8
:1003900065666700202B2D2E3031323334353637E9
:1003A0003839680011241FBECFEFD1E2DEBFCDBFC8
:1003B00012E0A0E0B2E0E4E1FEE600E00BBF02C024
:1003C00007900D92AA3BB107D9F717E0AAEBB2E06C
:1003D00001C01D92A838B107E1F70E94E3020C9416
:1003E00009370C94EF2F80E592E0909317038093E8
:1003F000160385EB94E0909313038093120386E336
:1004000094E0909315038093140382E08093190382
:1004100081E08093180380931A0380931B0310924A
:100420001C0310921D0310921E0310921F0380E004
:100430009DE2A1E3B1E08093200390932103A09378
:100440002203B093230310922403109225031092E9
:100450002603109227038093280390932903A093E7
:100460002A03B0932B0310922C0310922D031092A9
:100470002E0310922F0380E890EFAAEFB2E0809352
:10048000300390933103A0933203B093330381E19F
:1004900093E00E94592880EF90E00E946A1D089521
:1004A0008F929F92AF92BF92CF92DF92EF92FF9284
:1004B0000F931F93CF93DF93CDB7DEB722970FB67D
:1004C000F894DEBF0FBECDBF0E945B2699279F9395
:1004D0008F9380E092E09F938F930E94B43483E0E7
:1004E00090E00E94BC1C81E090E00E943B0342E04F
:1004F00062E081E00E94890960E081E00E94620B75
:1005000083E10E9433080E94950364E781EC93E045
:100510000E9485030F900F900F900F9002C00E94D1
:100520001B280E947B038823D1F38FE092E09F93E6
:100530008F930E94B4340F900F9022E0822E912C62
:100540008C0E9D1E5E010894A11CB11C01EE14E0EE
:100550009CE1C92E92E0D92E8DEFE82E8FEFF82E78
:10056000E00EF11E0E94E103882331F0B401C501C1
:100570000E94520A0E94E703B601C8010E94323469
:10058000F80101900020E9F7E25EF440EC5FE983B6
:100590000E94990323E0482F6981C7010E94F0035C
:1005A0000E940A0860918007709181078AE090E0BC
:1005B0000E94873460918007709181078DE090E000
:1005C0000E948734CFCFCFEFD1E2DEBFCDBF0E94F4
:1005D000FF1887E090E00E94341D8EEF90E00E94AB
:1005E0006A1D0E94F21F80E090E00E949F1C81E043
:1005F00090E00E949F1C82E090E00E949F1C83E09C
:1006000090E00E949F1C20E030E040E050E060E07D
:1006100070E080E090E00E94BD290E943B040E94AF
:10062000F3010E94921F80E090E00C94093721E0D2
:1006300030E040E050E004C0220F331F441F551F3C
:100640008A95D2F78091BC029091BD02A091BE0222
:10065000B091BF02822B932BA42BB52B8093BC02AD
:100660009093BD02A093BE02B093BF020895809103
:10067000DC0299270895813019F08330D9F531C013
:1006800083E1809397068CE08093980684E18093C1
:10069000990688E180939A0680E180939B0687E122
:1006A00080939C0682E180939D0689E180939E065B
:1006B0008EE080939F0685E18093A0068BE0809377
:1006C000A1068FE08093A20686E18093A30681E1D4
:1006D0008093A4068DE08093A5068AE18093A60608
:1006E00008958FE08093920684E18093930689E1D8
:1006F0008093940608958091DD04813019F481E09F
:1007000090E008958FEF9FEF0895662359F00097CA
:1007100049F09093CF028093CE026093CD0281E0A6
:1007200090E008958FEF9FEF089582E08093DD04BD
:1007300008958091C003882311F485EE01C081EEF5
:10074000992787FD909508958091C003882311F023
:1007500083E801C083E0992787FD909508958F92E3
:10076000AF92CF92EF920F93CF93DF93CDB7DEB7D7
:10077000109275069AE090937C0610927D06809305
:100780007E0660937F064093800610928106209338
:10079000880600938906E0928A06C0928B06A09292
:1007A0008C0680928D068A8580938E068B85809339
:1007B0008F06DF91CF910F91EF90CF90AF908F90F8
:1007C00008958091C705992787FD90950895109207
:1007D000C7051092C8051092C9051092CA05089560
:1007E0003327F901EE0FFF1FEE0FFF1FE65AFA4FF6
:1007F000938382836083418341E050E060E070E056
:1008000004C0440F551F661F771F2A95D2F78091A9
:10081000E3029091E402A091E502B091E602842BFC
:10082000952BA62BB72B8093E3029093E402A09321
:10083000E502B093E60281E090E008952091E302A2
:100840003091E4024091E5025091E60204C05695D1
:100850004795379527958A95D2F7C9018170907091
:1008600008958091B703813019F481E090E00895F4
:100870008FEF9FEF08950F931F9388E398E0909375
:10088000F4028093F3020EEE12E040E850E064E3DD
:1008900073E0C8010E94AD3284E18093F60281E0EA
:1008A0008093F5028093F7028093F8021092F90288
:1008B0001092FA021092FB021092FC0280E896E974
:1008C000A8E9B0E08093FD029093FE02A093FF029E
:1008D000B0930003109201031092020310920303DD
:1008E000109204031092050310920603109207035E
:1008F000109208031092090310920A0310920B033E
:1009000010920C0310920D0310920E0310920F031D
:1009100010921003C8010E9459281F910F91089549
:10092000AF92BF92CF92DF92EF92FF920F931F93FD
:10093000CF93DF93CDB7DEB724970FB6F894DEBF21
:100940000FBECDBFEE24FF2449ECC42E42E0D42ECE
:100950000E949903E091CE02F091CF0280836091D2
:10096000DC02C6010E946F170E949212109272065A
:100970008AEF0E94112F80E00E94F62E10E012C034
:100980000E94802F181771F00E94802F182F089452
:10099000E11CF11C81E1E81687E2F80618F0EE246C
:1009A000FF2405C00E94200F082F882349F30E94CE
:1009B000C82E0E94802FA82EBB24A4E0B0E0AA0E6F
:1009C000BB1E002371F006C00E94802F9927A81635
:1009D000B90638F060E880E00E940510082F8823EF
:1009E00099F30E947A12013009F0B2CF2091CE0221
:1009F0003091CF02F90192818091B603981709F0E6
:100A0000A7CF81E090E0A0E0B0E089839A83AB8338
:100A1000BC838093C7059093C805A093C905B09384
:100A2000CA0580916506909166062181820F911D0D
:100A3000909366068093650682E090E00E94821C97
:100A4000609180077091810789E690E00E94873469
:100A500089819A81AB81BC810090550604C0880FC2
:100A6000991FAA1FBB1F0A94D2F789839A83AB836D
:100A7000BC8389810E94E323009372061092C7050C
:100A80001092C8051092C9051092CA050E94EB2E5B
:100A90008AE00E94112F87E00E94F62E6CE977EC25
:100AA00080E090E00E9405300E94F92EE091590705
:100AB000F0915A078AE090E0968B858B80917206C0
:100AC000992724960FB6F894DEBF0FBECDBFDF91F5
:100AD000CF911F910F91FF90EF90DF90CF90BF903B
:100AE000AF900895EF92FF920F931F93CF93DF93F0
:100AF000CDB7DEB721970FB6F894DEBF0FBECDBFDE
:100B00006091DC0289EC92E00E946F170E949212C1
:100B10000E94802F898389818C5F898308C00E940D
:100B2000802F9981981718F40E947A12A3C00E940E
:100B3000200F8823A1F30E94D02E909374068093F7
:100B400073060E94802F898389818B5F89830EC001
:100B50000E94802F9981981748F48EE192E09F932C
:100B60008F930E94B4340F900F9084C060E880E0AF
:100B70000E940510182F882359F30E947A12113011
:100B800009F078C081E090E00E94821C60918007AB
:100B90007091810782E790E00E94873461E0E62E41
:100BA000F12C012D112DE092C705F092C80500939C
:100BB000C9051093CA05809155060E94E323E09170
:100BC000CE02F091CF02028004C0EE0CFF1C001F89
:100BD000111F0A94D2F78091BC029091BD02A0919E
:100BE000BE02B091BF02E822F9220A231B23E114BE
:100BF000F10401051105F1F12091350427FF3AC0F8
:100C00008091C003882311F083E801C083E08093C2
:100C1000A8068093520582E595E09093EB028093BD
:100C2000EA0222FF02C082E015C080917306909113
:100C300074062091610630916206821B930B90939B
:100C40005E0680935D06292F3327209353058093FA
:100C5000540584E08093E9024091DE025091DF0266
:100C600060916106709162062EE636E087EE92E0B2
:100C70000E94A81421960FB6F894DEBF0FBECDBF18
:100C8000DF91CF911F910F91FF90EF900895CF9238
:100C9000DF92EF92FF920F931F93CF93DF93CDB725
:100CA000DEB721970FB6F894DEBF0FBECDBFF82E8A
:100CB00081E08093D7020F2D1127F801EE0FFF1F5F
:100CC000EE0FFF1FE65AFA4F828193819093D6026E
:100CD0008093D50280818093D402A091D502B091F7
:100CE000D60281818C93E091D502F091D602809159
:100CF0006506909166068183E091D502F091D60257
:100D00008091C00282830E94C82E60E875E280E074
:100D100090E00E9405304091DE025091DF02609128
:100D20006106709162062EE636E082ED92E00E9446
:100D3000A8148823D1F083E090E00E94821C609187
:100D400080077091810784E790E00E94873480914A
:100D50006E0690916F062091610630916206821BAB
:100D6000930B90935C0680935B06809163060E94D0
:100D7000E32381E090E0A0E0B0E004C0880F991F79
:100D8000AA1FBB1F0A95D2F780959095A095B095A4
:100D90002091E3023091E4024091E5025091E60295
:100DA000282339234A235B232093E3023093E40270
:100DB0004093E5025093E6028091350487FF1BC102
:100DC0008091C003823009F416C10E9492120E94E1
:100DD000C82E60E070E180E090E00E9405300E9443
:100DE000802F898389818E5F898329C00E94802F0B
:100DF0009981981720F580916006F81651F480913A
:100E0000A9069091AA0649969093AA068093A906EE
:100E100013C0F81A2091A9063091AA064F2D552724
:100E200047FD50951F1414F0275E3F4F240F351FC8
:100E30003093AA062093A9060E947A12DCC00E9471
:100E4000200F882399F2809142020E948B190E9400
:100E5000802F898389818E5F898312C00E94802FB1
:100E60009981981768F48EE192E09F938F930E9486
:100E7000B4340E94802F809356060F900F90BBC011
:100E800064E081E00E940510182F882339F30E9446
:100E90007A12113009F0AFC01092AA061092A9067A
:100EA000E091CE02F091CF0290819093A8068091BC
:100EB000350487FFA0C08091C003823009F49BC035
:100EC00097FF99C081819927982F882722813327FE
:100ED000822B932B90935E0680935D0680E090E0DA
:100EE0000E94821C609180077091810781E690E0EA
:100EF0000E94873400915D0610915E0680915B062A
:100F000090915C06081B190B82E389830E94802F55
:100F1000D82E17FD3BC086E08D15C0F1D092560645
:100F20000E94EB2E74E6E72E79E1F72EC80164E605
:100F300079E10E948936C62EC394C0926806C80122
:100F400064E679E10E948936E81AF90AF0926D06A2
:100F5000E0926C060E94C82E82E390E00E94BA2EB6
:100F600010914C02812F0E9406190E94D02E8E15DE
:100F70009F05D8F3812F0E948B198D2D8C0D0E9417
:100F8000F62E84E690E00E94BA2E2DC010950195B1
:100F90001F4F8FE1013418070CF427C086E08D1530
:100FA00020F10E94EB2E0E94C82E000000000000DD
:100FB000000089818150898389818F3FB1F7B80111
:100FC00080E090E00E9405308D2D0E94F62E84E690
:100FD000898300000000000000008981815089831E
:100FE00089818F3FB1F70E94F92E0E94C82E82E3BB
:100FF00090E00E94BA2E21960FB6F894DEBF0FBE85
:10100000CDBFDF91CF911F910F91FF90EF90DF90B7
:10101000CF900895809155060E94DB22809163064F
:101020000E94DB2221E030E040E050E0CA01B9013B
:101030000090630604C0660F771F881F991F0A94EB
:10104000D2F70090550604C0220F331F441F551FCE
:101050000A94D2F7622B732B842B952B0E94352593
:1010600081E090E008958093DC020E949917089532
:10107000CF92DF92EF92FF920F931F931092DD04B5
:101080000E941B288091DD048823D1F381E08093A6
:10109000DD04C09041028C2D0E948B1900E010E00D
:1010A0000E94C82E0E94D02E909362068093610603
:1010B00080916506909166069093CC058093CB0550
:1010C0008536910530F0855690409093CC058093FD
:1010D000CB0580916506909166069093710680938A
:1010E000700680916506909166068536910598F0A8
:1010F00080916506909166068456904090936606AE
:10110000809365068091590690915A0601969093B6
:101110005A068093590620916506309166068091A3
:101120007206813009F08AC0C90169E170E00E944D
:101130007536D82EE0916406E00FE0936406FF2731
:10114000EF70F070E956F94F8081809396060E9407
:10115000330885E18D15E0F48091C0038230C1F43D
:1011600080916B0663E00E946936E92F90936B06CD
:10117000FF27EE56F94F8081809396060E94330830
:1011800087E18D1528F480916B068F5F80936B0645
:1011900011E0E12EF12C012D112D0D2C04C0EE0CCF
:1011A000FF1C001F111F0A94D2F78C2D0E940619F4
:1011B0008091BE049091BF04A091C004B091C1047D
:1011C0002091E3023091E4024091E5025091E60261
:1011D00082239323A423B5238E219F21A023B1230F
:1011E0000097A105B10531F08D2D0E944706D092E0
:1011F000600620C08091BC039091BD03A091BE0306
:10120000B091BF03E822F9220A231B23E114F10461
:101210000105110579F08091C7059091C805A0914D
:10122000C905B091CA050097A105B10519F48D2D26
:101230000E9472058C2D0E948B190EC00E9499038A
:10124000809335048091C003823019F00E9490048D
:1012500001C081E0809372062091A9063091AA0610
:1012600080913F02909140022817390788F18091C0
:10127000C003823069F1109272061092AA06109291
:10128000A90684E690E090936606809365068091B7
:10129000B4039091B50301969093B5038093B40382
:1012A0008091C002882349F0E091B603E093640680
:1012B000FF27E956F94F808104C01092640680919F
:1012C000970680939606809196060E943308E6CE94
:1012D00080916506909166060E94FA0B8C018091C0
:1012E000650690916606800F911F90936606809325
:1012F000650680E090E00E949F1C10925C061092B0
:101300005B06C8010E94E82780E090E00E94BC1CB8
:10131000C7CEFF920F931F93082FF62E142F0E9413
:101320005222809355068F3F19F486E391E008C05E
:101330000E945222809363068F3F79F48FE091E000
:101340000E946A1DE0915907F0915A0760858EE06E
:101350000E944B218FEF90E087C01092CF02109235
:10136000CE021092CD020E94C42E10925A06109204
:10137000590684E690E09093660680936506109285
:1013800072061092B7031092AA061092A906009353
:10139000C003F092C0021093B6031092C7051092DA
:1013A000C8051092C9051092CA051092E302109266
:1013B000E4021092E5021092E60284E68093E202D3
:1013C00080E49FE19093E1028093E00280EA9FE055
:1013D0009093DF028093DE028FE08093DC0281E84D
:1013E00099E19093DB028093DA02E4ECF4E011924D
:1013F00084E0ED3DF807D9F71092BC031092BD03CD
:101400001092BE031092BF031092BE041092BF044C
:101410001092C0041092C10421E839E141E254E283
:101420006FE089EC92E00E94AC1781E080935F0648
:1014300010926B06FF2041F010936406E12FFF2706
:10144000E956F94F808104C0109264068091970696
:1014500080939606809196060E9433081092B503F9
:101460001092B40381E090E01F910F91FF900895D6
:10147000809155060E94DB228091C705882379F46C
:1014800061E070E080E090E00090550604C0660FD7
:10149000771F881F991F0A94D2F70E94352581E093
:1014A00090E00895FC01DB018091C705882329F4B1
:1014B00010821C9280E090E008958091CC0280839D
:1014C0008091D1028C938091CE029091CF020895A9
:1014D000CF92DF92EF92FF920F931F93CF93DF9300
:1014E000EE24FF2409ECC02E02E0D02E6091DC0235
:1014F000C6010E946F170E9492121092720600E0BD
:1015000012C00E94802F081771F00E94802F082FB0
:101510000894E11CF11C81E1E81687E2F80618F056
:10152000EE24FF2405C00E94200F182F882349F3C2
:101530000E94802FC82FDD272496112371F006C04A
:101540000E94802F9927C817D90738F060E880E0FB
:101550000E940510182F882399F30E947A121130E7
:1015600029F6E091CE02F091CF0284858A3009F00D
:10157000BDCF81E090E0A0E0B0E08093C7059093FC
:10158000C805A093C905B093CA0586850E943B0390
:10159000E091CE02F091CF02E785E0936406FF2749
:1015A000E956F94F8081809396060E943308009196
:1015B000CE021091CF02E80166E575E0888D8823A0
:1015C00071F121E030E040E050E004C0220F331F11
:1015D000441F551F8A95D2F78091BE049091BF0495
:1015E000A091C004B091C104822B932BA42BB52BE6
:1015F0008093BE049093BF04A093C004B093C10431
:10160000E88DFF27EC53FB4F81E08083888DFB0141
:101610008193BF012196F5E06A357F0779F6E801ED
:1016200060E08C8D882349F121E030E040E050E01B
:1016300004C0220F331F441F551F8A95D2F7809193
:10164000BC039091BD03A091BE03B091BF03822B58
:10165000932BA42BB52B8093BC039093BD03A09335
:10166000BE03B093BF03EC8DFF27EC53FB4F81E02B
:1016700080836F5F21966430A1F681E090E0A0E066
:10168000B0E00090550604C0880F991FAA1FBB1F29
:101690000A94D2F70E94E32381E08093B70310926B
:1016A000C7051092C8051092C9051092CA0581E0BD
:1016B00090E0DF91CF911F910F91FF90EF90DF901D
:1016C000CF900895282F6093B603823041F5809122
:1016D000BE049091BF04A091C004B091C104846085
:1016E0008093BE049093BF04A093C004B093C10440
:1016F0008091BC039091BD03A091BE03B091BF0344
:1017000088608093BC039093BD03A093BE03B09305
:10171000BF0381E08093C6048093C70452C0813028
:1017200039F58091BC039091BD03A091BE03B091A7
:10173000BF0384608093BC039093BD03A093BE035A
:10174000B093BF038091BE049091BF04A091C004E8
:10175000B091C10488608093BE049093BF04A093AD
:10176000C004B093C1042093C6042093C70429C0C9
:10177000882339F58091BE049091BF04A091C004E4
:10178000B091C10482608093BE049093BF04A09383
:10179000C004B093C1048091BC039091BD03A0919B
:1017A000BE03B091BF0380618093BC039093BD03DF
:1017B000A093BE03B093BF0381E08093C5048093E0
:1017C000C80481E090E008958A3118F08FEF9FEF10
:1017D0000895E82FFF27EC53FB4F8081992787FD61
:1017E00090950895E4ECF4E0119284E0ED3DF80763
:1017F000D9F7089569E170E00E947536682F482F87
:101800000CC0242F3327F901EC53FB4F8081882330
:1018100021F0C901861B910908954F5F493188F372
:1018200020E030E0422F5527FA01EC53FB4F808136
:10183000882339F089E190E0861B9109840F951F78
:1018400008952F5F3F4F621768F70895EAE7F0E0C9
:1018500083E08083ACE7B0E080E48C938081806893
:1018600080831092AC068C91807E8C939C918C919D
:10187000807E892B8C93089588EC90E00E94BA2E8C
:10188000089580917A00806480937A0080917A0034
:1018900084FFFCCF0E943C0C20917800332780917C
:1018A00079009927982F8827822B932B0895FF92F0
:1018B0000F931F93CF93DF93CDB7DEB722970FB669
:1018C000F894DEBF0FBECDBF0E94970E8C0100972B
:1018D00011F00E94E124159AFF248F2D8062992730
:1018E0009A83898340988BE18EBD0DB407FEFDCFAE
:1018F00089819A81892F99278EBD0DB407FEFDCF6E
:1019000089819A818EBD0DB407FEFDCF409A82E099
:1019100090E00E94BA2E40988BE58EBD0DB407FE74
:10192000FDCF1EBC0DB407FEFDCF8EB59927982FB5
:1019300088279A8389831EBC0DB407FEFDCF898159
:101940009A812EB53327282B392B3A832983409A45
:1019500089819A8186FD05C0F3942FE1F21609F082
:10196000BCCF0115110519F0C8010E948F23FF207B
:10197000C9F40E94410C9A83898389819A818F3AA4
:10198000910530F089819A818E5A90409A8389839B
:1019900089819A818A54914098F48AE491E09A83EB
:1019A00089830EC02DE7F29E9001112488E293E214
:1019B000821B930B6BE170E00E9489367A83698306
:1019C00089819A8122960FB6F894DEBF0FBECDBFF3
:1019D000DF91CF911F910F91FF900895CF92DF92E9
:1019E000EF92FF920F931F93CF93DF93982FEA010B
:1019F000122F823009F481C0833030F4882371F0D3
:101A0000813009F0D2C010C0843009F481C0843024
:101A100008F477C0853009F0C8C02DC080E880BBCD
:101A20008F9A0E94260C6AC08091AB06813009F41F
:101A3000C3C09093AB06772760FF13C08F981092B6
:101A4000AC0680917C00807E80937C0090917C002D
:101A500080917C00807E892B80937C0088EE93E0CF
:101A60009FC061FDA9C062FDA7C067707070672B41
:101A700009F4A2C097C0822F8150823008F099C02B
:101A80009091AC06892F8150863018F40E94410C49
:101A900022C0992319F40E94570C1DC0973051F5AC
:101AA000F1E0CF2EF4E0DF2EEE24FF2400E00E94D0
:101AB000410C8C159D0508F46C01E816F90608F434
:101AC0007C018DE790E00E94BA2E0F5F003479F719
:101AD000C7018C199D09123031F48883892F992709
:101AE000898381E008C0113029F4969587959695F1
:101AF0008795888380E08F5F09C08F9A1092AB062C
:101B000051C0613009F058C08091AC06992756C089
:101B1000613009F051C02730D9F42093AC06809190
:101B20007C008F7780937C0080917C008064809320
:101B30007C0080917C00807E80937C0090917C0072
:101B400080917C009360807E982B90937C0026C0CF
:101B5000283020F081E00E9486202EC02093AC0621
:101B6000213049F480917C008F7780937C008091B4
:101B70007C00806403C080917C00806C80937C003A
:101B800080917C00807E80937C0090917C0080918D
:101B90007C00807E892B812B80937C0088EC90E0F8
:101BA0000E94BA2E81E090E009C060E08CE00E94C3
:101BB0004B2180E090E002C08FEF90E0DF91CF9169
:101BC0001F910F91FF90EF90DF90CF90089599278C
:101BD0009C01265A3E4B0B97880F991F880F991F1F
:101BE000280F391FF894409888E18EBD0DB407FE88
:101BF000FDCF832F99278EBD0DB407FEFDCF2EBDDF
:101C00000DB407FEFDCF409A78940895F89440985B
:101C10001EBC0DB407FEFDCF8EB5409A789486FFAA
:101C2000F5CF08958091C20699270895CF93DF9349
:101C3000DC01409889EC8EBD0DB407FEFDCF80E835
:101C40008EBD0DB407FEFDCF92E09150FD01E90F6E
:101C5000F11D80818EBD0DB407FEFDCF9923A9F73C
:101C6000409A40988BEC8EBD0DB407FEFDCF80E806
:101C70008EBD0DB407FEFDCF92E09D012E5F3F4F5C
:101C8000E9019150F901E90FF11D80818EBD0DB47C
:101C900007FEFDCF9923A1F7409A8C918093C3064C
:101CA000FD0181818093C40688818093C50683816C
:101CB0008093C606DF91CF910895409889E18EBD4B
:101CC0000DB407FEFDCF83E08EBD0DB407FEFDCF42
:101CD00086E08EBD0DB407FEFDCF409A40988AE1A4
:101CE0008EBD0DB407FEFDCF8EE08EBD0DB407FE98
:101CF000FDCF8EE08EBD0DB407FEFDCF409A81E092
:101D00008093B3060895409889E18EBD0DB407FE17
:101D1000FDCF81E08EBD0DB407FEFDCF84EC8EBDFE
:101D20000DB407FEFDCF409A1092B306089580913E
:101D3000B1069091B20608952091B4063091B5068F
:101D400038603093B5062093B406409881E18EBD8B
:101D50000DB407FEFDCF832F99278EBD0DB407FE6E
:101D6000FDCF2EBD0DB407FEFDCF409A0895209102
:101D7000B4063091B506377F3093B5062093B4068C
:101D8000409881E18EBD0DB407FEFDCF832F9927CA
:101D90008EBD0DB407FEFDCF2EBD0DB407FEFDCFE9
:101DA000409A089581E08093C1062091B406309155
:101DB000B50620613093B5062093B406409881E1C2
:101DC0008EBD0DB407FEFDCF832F99278EBD0DB4B8
:101DD00007FEFDCF2EBD0DB407FEFDCF409A08953E
:101DE0001092C1062091B4063091B5062F7E309333
:101DF000B5062093B406409881E18EBD0DB407FE70
:101E0000FDCF832F99278EBD0DB407FEFDCF2EBDCC
:101E10000DB407FEFDCF409A089589B1992766E079
:101E2000969587956A95E1F78170907008958CB1C9
:101E3000992787FD90958827990F881F99270895DE
:101E400089B19927E6E096958795EA95E1F7817043
:101E5000907008958091C706882319F480E090E07F
:101E600008958091C7061092C706992787FD90951F
:101E70000895409888E08EBD0DB407FEFDCF409ACE
:101E8000409888E08EBD0DB407FEFDCF409A0895BE
:101E90008091B1069091B2060E94E124409886E0BC
:101EA0008EBD0DB407FEFDCF409A8091B106909192
:101EB000B2060E948F2308958091B1069091B206D8
:101EC0000E94E124409884E08EBD0DB407FEFDCF52
:101ED000409A8091B1069091B2060E948F23089596
:101EE0008091B1069091B2060E94E124409886E06C
:101EF0008EBD0DB407FEFDCF409A409882E18EBDA5
:101F00000DB407FEFDCF85E08EBD0DB407FEFDCFFD
:101F10001EBC0DB407FEFDCF409A40988EE28EBDE8
:101F20000DB407FEFDCF1EBC0DB407FEFDCF1EBCD9
:101F30000DB407FEFDCF409A0E94390F8091B10683
:101F40009091B2060E948F2308958091B1069091DE
:101F5000B2060E94E124409886E08EBD0DB407FED3
:101F6000FDCF409A409882E18EBD0DB407FEFDCFB3
:101F700085E08EBD0DB407FEFDCF88E08EBD0DB4AB
:101F800007FEFDCF409A40988EE28EBD0DB407FE4D
:101F9000FDCF88E18EBD0DB407FEFDCF1EBC0DB494
:101FA00007FEFDCF409A0E94390F8091B1069091B3
:101FB000B2060E948F2308950F931F93082F8091DC
:101FC000B1069091B2060E94E124112707FD1095F9
:101FD000302F22272068409883E18EBD0DB407FE84
:101FE000FDCF832F99278EBD0DB407FEFDCF2EBDEB
:101FF0000DB407FEFDCF409A8091B1069091B206D4
:102000000E948F231F910F9108950F931F93CF93D9
:10201000DF93CDB7DEB724970FB6F894DEBF0FBEBF
:10202000CDBF182F062F8091B1069091B2060E9465
:10203000E124679B4CC21092C206679B25C0319970
:1020400023C040988FE78EBD0DB407FEFDCF1EBCA8
:102050000DB407FEFDCF8EB5409A409888E08EBD46
:102060000DB407FEFDCF409A409888E08EBD0DB4B8
:1020700007FEFDCF409A8091B1069091B2060E9472
:102080008F238FEF9FEF2BC240988FE78EBD0DB44B
:1020900007FEFDCF1EBC0DB407FEFDCF4EB5409A26
:1020A0004F7719F540988FE78EBD0DB407FEFDCF31
:1020B0001EBC0DB407FEFDCF8EB5409A409888E057
:1020C0008EBD0DB407FEFDCF409A409888E08EBDCE
:1020D0000DB407FEFDCF409A8091B1069091B206F3
:1020E0000E948F238EEF9FEFFAC145308CF0E09174
:1020F000B606F091B706242F332727FD30952B50D5
:1021000030408481992787FD909582179307F4F5D5
:1021100040988FE78EBD0DB407FEFDCF60E070E004
:10212000242F332727FD309506C01EBC0DB407FEB3
:10213000FDCF6F5F7F4F862F99278217930714F487
:102140003199F3CF409A40988FE78EBD0DB407FECA
:10215000FDCF1EBC0DB407FEFDCF8EB5409A409852
:1021600088E08EBD0DB407FEFDCF409A409888E010
:102170008EBD0DB407FEFDCF409A8091B1069091BF
:10218000B2060E948F238DEF9FEFA9C1E091B606A2
:10219000F091B7064C5043831123B1F0E091B6069D
:1021A000F091B7068381992787FD9095202F3327DB
:1021B0008217930749F08091B1069091B2060E9470
:1021C0008F238AEF9FEF8BC140988FE78EBD0DB4B0
:1021D00007FEFDCFFE0131969E012D5F3F4F1EBCD5
:1021E0000DB407FEFDCF8EB58193E217F307B9F763
:1021F000409AE091B606F091B70689819A81B5E0E0
:1022000096958795BA95E1F78170878340988FE717
:102210008EBD0DB407FEFDCF1EBC0DB407FEFDCF75
:10222000E091B606F091B7068EB58083409A40984B
:102230008FE78EBD0DB407FEFDCF80E007C01EBC4A
:102240000DB407FEFDCF8F5F843011F03199F7CFC9
:10225000409A40988FE78EBD0DB407FEFDCF20E079
:1022600030E01EBC0DB407FEFDCFE091B606F09144
:10227000B706E20FF31F8EB581832F5F3F4F2230E9
:10228000310579F7409A89819A8183FF56C0409839
:102290008FE78EBD0DB407FEFDCFEDEAF6E01EBC64
:1022A0000DB407FEFDCF8EB5819386E0E13BF807C4
:1022B000B1F7409A409889E98EBD0DB407FEFDCF75
:1022C00080E88EBD0DB407FEFDCF92E09150E92F5E
:1022D000FF27E355F94F80818EBD0DB407FEFDCF7A
:1022E0009923A1F7409A40988BE98EBD0DB407FE63
:1022F000FDCF80E88EBD0DB407FEFDCF92E091507A
:10230000E92FFF27E155F94F80818EBD0DB407FEFF
:10231000FDCF9923A1F7409A40988CE08EBD0DB473
:1023200007FEFDCF409A81E08093C206E091B60699
:10233000F091B70683818450838340988FE78EBDE8
:102340000DB407FEFDCF40E050E011C01EBC0DB43F
:1023500007FEFDCFE091B606F091B7060580F68145
:10236000E02DE60FF11D8EB580834F5F5F4F642F28
:10237000E091B606F091B706242F33278381992781
:1023800087FD9095281739070CF3409A40988FE7FE
:102390008EBD0DB407FC0AC0FCCF0DB407FEFDCF07
:1023A0005EB5409A40988FE78EBD02C01EBCF5CF47
:1023B0000DB407FEFDCFFE0133969E012B5F3F4F0C
:1023C0001EBC0DB407FEFDCF8EB58193E217F30757
:1023D000B9F7409AE091B606F091B7068B818087F5
:1023E00040E020E030E00AC0E091B606F091B70688
:1023F00085819681A80FB91F8C91480F822FE0919B
:10240000B606F091B7062F5F3F4FA82FBB278381F9
:10241000992787FD9095A817B90734F3451719F147
:1024200040988FE78EBD0DB407FEFDCF1EBC0DB4E6
:1024300007FEFDCF8EB5409A409888E08EBD0DB462
:1024400007FEFDCF409A409888E08EBD0DB407FE90
:10245000FDCF409A8091B1069091B2060E948F23E1
:102460008CEF9FEF3CC08C8187FF0EC08091C70628
:102470008F5F8093C7068091B1069091B2060E944B
:102480008F2381E090E02BC040988FE78EBD0DB484
:1024900007FEFDCF1EBC0DB407FEFDCF8EB5409AE2
:1024A000409888E08EBD0DB407FEFDCF409A40985D
:1024B00088E08EBD0DB407FEFDCF409A8091B10635
:1024C0009091B2060E948F238BEF9FEF08C08091FE
:1024D000B1069091B2060E948F2380E090E024968E
:1024E0000FB6F894DEBF0FBECDBFDF91CF911F9125
:1024F0000F9108958091B1069091B2060E94E12457
:102500001092BE06409886E08EBD0DB407FEFDCF4A
:10251000409A1092C7068091B1069091B2060E942F
:102520008F2308958091B1069091B2060E94E12414
:1025300081E08093BE06409883E08EBD0DB407FE17
:10254000FDCF409A409888E08EBD0DB407FEFDCFC8
:10255000409A1092C7068091B1069091B2060E94EF
:102560008F2308958091B1069091B2060E94E124D4
:1025700081E08093BE06409883E08EBD0DB407FED7
:10258000FDCF409A409888E08EBD0DB407FEFDCF88
:10259000409A1092C7068091B1069091B2060E94AF
:1025A0008F2308951F93182F8091B1069091B20642
:1025B0000E94E124212F33272F713070206E306A62
:1025C000409885E18EBD0DB407FEFDCF832F99277E
:1025D0008EBD0DB407FEFDCF2EBD0DB407FEFDCFA1
:1025E000409A8091B1069091B2060E948F231F916C
:1025F0000895EF92FF920F931F93CF93DF93CDB780
:10260000DEB722970FB6F894DEBF0FBECDBF8C01A8
:102610008091B1069091B2060E94E1245091B306D8
:10262000552339F040988DE08EBD0DB407FEFDCFE7
:10263000409AF8014281642F772767FD7095A0E0EA
:1026400020E030E008C0F80183819481E80EF91E93
:10265000F7018081A80F822F2F5F3F4FE82EFF24C4
:10266000E616F70684F3942F945F51119C5F6799E7
:10267000FECF4E99FCCFF894409889E08EBD0DB402
:1026800007FEFDCF409A409889E08EBD0DB407FE4D
:10269000FDCF409A40988EE38EBD0DB407FC05C077
:1026A000FCCF0DB407FC30C1FCCF9EBDFACF81E654
:1026B00098E89A838983552329F089819A818860D3
:1026C0009A83898340988EE38EBD0DB407FEFDCFBB
:1026D000FE0131969E012D5F3F4F80818EBD0DB46E
:1026E00007FEFDCF3196E217F307B9F7409A4098FD
:1026F0008EE38EBD0DB407FC05C0FCCF0DB407FC06
:102700000EC1FCCF8091B8068EBDF8CF0DB407FE88
:10271000FDCF20E030E0F901E654F94F80818EBD15
:102720000DB407FEFDCF2F5F3F4F2230310599F7E3
:10273000409A40988EE38EBD0DB407FEFDCF20E099
:1027400030E0F801E20FF31F80818EBD0DB407FE6B
:10275000FDCF2F5F3F4F2230310599F7409A4098C7
:102760008EE38EBD0DB407FEFDCF20E030E0F90111
:10277000E454F94F80818EBD0DB407FEFDCF2F5F6D
:102780003F4F2230310599F7409A552399F04098F0
:102790008EE38EBD0DB407FEFDCFE3ECF6E0808145
:1027A0008EBD0DB407FEFDCF319686E0E73CF807FD
:1027B000B1F7409A40988EE38EBD0DB407FEFDCF71
:1027C00020E030E00DC0F80183819481480F591F4B
:1027D000FA0180818EBD0DB407FEFDCF2F5F3F4F04
:1027E000422F55274617570774F3409A40988EE3B7
:1027F0008EBD0DB407FC05C0FCCF0DB407FC94C022
:10280000FCCFAEBDFACF8091BE06882339F4409844
:1028100083E08EBD0DB407FEFDCF409A40981EBCEC
:102820000DB407FEFDCF8EB5409A81FFF7CF00E0D3
:10283000409885E08EBD0DB407FEFDCF409A4098CC
:102840001EBC0DB407FEFDCF1EB5409A0F5F0536C6
:1028500051F478948091B1069091B2060E948F2332
:1028600080E090E068C084E690E00E94CB1D13FDFC
:1028700008C0DECF409884E08EBD0DB407FEFDCFCA
:10288000409A78944E9BFECF4E99FECF8091C10620
:10289000882391F084EA92E00E94CB1D319B0EC008
:1028A00040988FE78EBD0DB407FEFDCF1EBC0DB462
:1028B00007FEFDCF8EB5409A11E00FC0409888E02A
:1028C0008EBD0DB407FEFDCF409A409888E08EBDC6
:1028D0000DB407FEFDCF409A10E0F894409886E0D2
:1028E0008EBD0DB407FEFDCF409A78948091B80656
:1028F0008F5F8093B8068091B1069091B2060E94D6
:102900008F23812F992717C0409A81E498E89A83F2
:1029100089838091C106882309F0C9CECCCE409A24
:1029200040988EE38EBDF2CE409AF80185818823CF
:1029300009F069CF9FCF22960FB6F894DEBF0FBE85
:10294000CDBFDF91CF911F910F91FF90EF90089530
:102950008F929F92BF92CF92DF92EF92FF920F934E
:102960001F93CF93DF93CDB7DEB722970FB6F894BE
:10297000DEBF0FBECDBF8C016B017A014901809192
:10298000B1069091B2060E94E1240E94802F4098E7
:1029900088E08EBD0DB407FEFDCF409A409888E0D8
:1029A0008EBD0DB407FEFDCF409A6799FECF4E99BC
:1029B000FCCFF894409889E08EBD0DB407FEFDCFA2
:1029C000409A409889E08EBD0DB407FEFDCF409A35
:1029D000F8016281462F552747FD5095BB2420E022
:1029E00030E007C0F80183819481A80FB91F8C9152
:1029F000B80E822F2F5F3F4FA82FBB27A417B50714
:102A00008CF3962F945F40988EE38EBD0DB407FC37
:102A100005C0FCCF0DB407FC18C1FCCF9EBDFACF9A
:102A200081E698E89A83898340988EE38EBD0DB441
:102A300007FEFDCFFE0131969E012D5F3F4F808145
:102A40008EBD0DB407FEFDCF3196E217F307B9F73F
:102A5000409A40988EE38EBD0DB407FC05C0FCCFB4
:102A60000DB407FCFBC0FCCF8091B8068EBDF8CF3B
:102A70000DB407FEFDCF20E030E0F901E654F94F38
:102A800080818EBD0DB407FEFDCF2F5F3F4F2230FA
:102A9000310599F7409A40988EE38EBD0DB407FE3C
:102AA000FDCF20E030E0F801E20FF31F80818EBD02
:102AB0000DB407FEFDCF2F5F3F4F2230310599F750
:102AC000409A40988EE38EBD0DB407FEFDCF20E006
:102AD00030E0F901E454F94F80818EBD0DB407FE5A
:102AE000FDCF2F5F3F4F2230310599F7409AB70154
:102AF000C6010E940530F8018581882379F1809113
:102B0000BE06882339F4409883E08EBD0DB407FEDD
:102B1000FDCF409AEE24409885E08EBD0DB407FEAF
:102B2000FDCF409A40981EBC0DB407FEFDCFFEB409
:102B3000409AE394F5E6EF1651F478948091B1064B
:102B40009091B2060E948F2380E090E08EC084E6D0
:102B500090E00E94CB1DF3FC08C0DDCF409884E0DC
:102B60008EBD0DB407FEFDCF409A809141020E94B8
:102B700006198091840090918500F40191838083EF
:102B800040988EE38EBD0DB407FEFDCFF801828123
:102B9000482F552747FD509520E030E00CC0F80144
:102BA00083819481A80FB91F8C918EBD0DB407FE4F
:102BB000FDCF2F5F3F4FA22FBB27A417B5077CF394
:102BC000409A40988EE38EBD0DB407FC05C0FCCF43
:102BD0000DB407FC48C0FCCFBEBCFACF4E9BFECF65
:102BE000F8944E99FECF409888E08EBD0DB407FE54
:102BF000FDCF409A409888E08EBD0DB407FEFDCF12
:102C0000409A409889E08EBD0DB407FEFDCF409AF2
:102C1000409889E08EBD0DB407FEFDCF409A4098E4
:102C200086E08EBD0DB407FEFDCF409A789480916A
:102C3000B8068F5F8093B8068091B1069091B20676
:102C40000E948F2381E090E010C0409AF8018681B5
:102C5000882309F0E5CE81E498E8E4CE409A4098D4
:102C60008EE38EBD05CF409AB9CF22960FB6F89469
:102C7000DEBF0FBECDBFDF91CF911F910F91FF90AF
:102C8000EF90DF90CF90BF909F908F900895CF935B
:102C9000DF93CDB7DEB722970FB6F894DEBF0FBE35
:102CA000CDBF9A8389839093BD068093BC0684EF41
:102CB00091E00E94BA2E40988AEE8EBD0DB407FEB8
:102CC000FDCF80E88EBD0DB407FEFDCFFE0131962D
:102CD0009E012D5F3F4F80818EBD0DB407FEFDCF5D
:102CE0003196E217F307B9F7409A84EF91E00E941A
:102CF000BA2E22960FB6F894DEBF0FBECDBFDF917D
:102D0000CF9108956F927F928F929F92AF92BF92D0
:102D1000CF92DF92EF92FF920F931F93CF93DF93A7
:102D2000CDB7DEB722970FB6F894DEBF0FBECDBF8A
:102D30008C0184E690E00E94BA2E7801C12CB1E0AB
:102D4000DB2E3E010894611C711CA3E08A2E912C9D
:102D50008C0E9D1EF7018081218133279927982FA2
:102D60008827282B392B3A83298384E690E00E9418
:102D7000BA2E40988C2D80688EBD0DB407FEFDCF15
:102D8000C60195958795807C8EBD0DB407FEFDCF5D
:102D900083015301F50180818EBD0DB407FEFDCF87
:102DA0000894A11CB11CA814B904A1F7409A089476
:102DB000E11CF11C82E090E0C80ED91E90E1C9161A
:102DC00091E0D90639F684E690E00E94BA2E20E11F
:102DD00031E040E451E01A8219824098842F8068E3
:102DE0008EBD0DB407FEFDCFCA0195958795807CF9
:102DF0008EBD0DB407FEFDCFF80180818EBD0DB4F0
:102E000007FEFDCF3196EA15FB05B9F7409A4098C9
:102E1000822F80688EBD0DB407FEFDCFC901959548
:102E20008795807C8EBD0DB407FEFDCFF8018081B3
:102E30008EBD0DB407FEFDCF3196EA15FB05B9F73F
:102E4000409A2E5F3F4F4E5F5F4FE1E02E313E07CD
:102E500011F681E090E09A83898340988EEC8EBDD4
:102E60000DB407FEFDCF80E88EBD0DB407FEFDCF8B
:102E7000F80180818EBD0DB407FEFDCF3196EA15B5
:102E8000FB05B9F7409A40988EE98EBD0DB407FE58
:102E9000FDCF80E88EBD0DB407FEFDCFF801808127
:102EA0008EBD0DB407FEFDCF0F5F1F4F0A151B052A
:102EB000A9F7409A22960FB6F894DEBF0FBECDBF99
:102EC000DF91CF911F910F91FF90EF90DF90CF9006
:102ED000BF90AF909F908F907F906F9008951F93B9
:102EE000CF93DF93EC01162F8091B1069091B2063B
:102EF0000E94E124409888E08EBD0DB407FEFDCF0E
:102F0000409A409888E08EBD0DB407FEFDCF409AF0
:102F1000812F0E94E70DD093B706C093B60680912B
:102F2000B1069091B2060E948F23DF91CF911F913D
:102F300008951F93182F8091B1069091B2060E94B8
:102F4000E124812F0E94E70D8091B1069091B20695
:102F50000E948F231F910895DF92EF92FF920F93AB
:102F60001F93CF93DF93CDB7DEB722970FB6F894B8
:102F7000DEBF0FBECDBF8C01D62E5A8349837901A7
:102F800064E181E00E9414239093B2068093B1061D
:102F9000892B31F40E945B26682F8FE00E944B2121
:102FA0008091B1069091B2060E94E1248F3F21F4F6
:102FB0008AE891E00E946A1D159A88EE93E00E94CB
:102FC000CB1D169881E090E00E94CB1D169A84E6F6
:102FD00090E00E94CB1DF894409881E08EBD0DB426
:102FE00007FEFDCF409A82EE92E09093B506809363
:102FF000B406409881E18EBD0DB407FEFDCF82E09E
:103000008EBD0DB407FEFDCF82EE8EBD0DB407FE62
:10301000FDCF409A409882E18EBD0DB407FEFDCFF2
:1030200085E08EBD0DB407FEFDCF1EBC0DB407FEBE
:10303000FDCF409A40988CE18EBD0DB407FEFDCFC8
:103040001EBC0DB407FEFDCF8FE78EBD0DB407FE8D
:10305000FDCF409A409889E18EBD0DB407FEFDCFAB
:1030600081E08EBD0DB407FEFDCF84EC8EBD0DB4A6
:1030700007FEFDCF409A409887E18EBD0DB407FE54
:10308000FDCF8AE18EBD0DB407FEFDCF86E58EBD76
:103090000DB407FEFDCF409A84EF91E00E94BA2E56
:1030A000409888EE8EBD0DB407FEFDCF80E88EBD42
:1030B0000DB407FEFDCFFE0131969E012D5F3F4FFF
:1030C00080818EBD0DB407FEFDCF3196E217F30768
:1030D000B9F7409A84EF91E00E94BA2E78948D2D32
:1030E0000E94E70D78941093B7060093B606898185
:1030F0009A819093BB068093BA06F092BD06E09247
:10310000BC061092B8061092BE060E94060E809170
:10311000B1069091B2060E948F238F3F39F48DE55E
:1031200091E00E946A1D82E00E9486201092C106F2
:103130001092B3061092C20622960FB6F894DEBF24
:103140000FBECDBFDF91CF911F910F91FF90EF90F8
:10315000DF9008952091DA068091C806281781F043
:10316000E22FFF27E753F94FE081822F8F5F809393
:10317000DA06803111F41092DA068E2F992708951D
:103180008091C80087FFFCCF8091C8008F77809323
:10319000C8008091CE0099270895882351F480912A
:1031A000C000992787FD90958827990F881F992738
:1031B0000895813019F080E090E0089520E030E03B
:1031C0009091DA068091C806981711F021E030E05E
:1031D000C901089585B7806185BF86E084B987E01D
:1031E00085B981E087B988B98CE38DB98BE08AB95C
:1031F0008EE38EB988E781B980E482B908950E9490
:10320000EA1880E58CBD81E08DBD08958F3F09F4FB
:103210007FC0482F55279A01277030702230310522
:10322000A9F12330310544F42115310589F021300D
:10323000310509F06DC01CC02430310509F446C0C9
:10324000243031059CF12530310509F061C04EC0B4
:1032500022B1A3E056954795AA95E1F781E090E069
:1032600002C0880F991F4A95E2F7282B22B94DC05A
:1032700085B1F3E056954795FA95E1F702C0220F24
:10328000331F4A95E2F7822B85B93FC028B1E3E0AE
:1032900056954795EA95E1F781E090E002C0880FE6
:1032A000991F4A95E2F7282B28B92FC02BB173E05C
:1032B000569547957A95E1F781E090E002C0880F36
:1032C000991F4A95E2F7282B2BB91FC02EB163E056
:1032D000569547956A95E1F781E090E002C0880F26
:1032E000991F4A95E2F7282B2EB90FC021B333E07E
:1032F000569547953A95E1F781E090E002C0880F36
:10330000991F4A95E2F7282B21BB81E090E00895B0
:103310008FEF9FEF08958F3F09F486C0482F552700
:103320009A012770307022303105C1F12330310508
:1033300044F42115310589F02130310509F074C0BC
:103340001DC02430310509F44BC024303105BCF1D7
:103350002530310509F068C054C022B173E056959C
:1033600047957A95E1F781E090E002C0880F991FB8
:103370004A95E2F78095822382B953C095B163E004
:10338000569547956A95E1F702C0220F331F4A957B
:10339000E2F7822F8095892385B943C028B133E0B5
:1033A000569547953A95E1F781E090E002C0880F85
:1033B000991F4A95E2F78095822388B932C02BB1D4
:1033C00093E0569547959A95E1F781E090E002C029
:1033D000880F991F4A95E2F7809582238BB921C007
:1033E0002EB183E0569547958A95E1F781E090E00C
:1033F00002C0880F991F4A95E2F7809582238EB903
:1034000010C021B3B3E056954795BA95E1F781E036
:1034100090E002C0880F991F4A95E2F780958223B9
:1034200081BB81E090E008958FEF9FEF08958F3F7B
:10343000A9F1282F3327C901877090708230910538
:10344000A9F0833091052CF4009761F0019731F5D4
:103450000BC08430910571F0843091054CF00597D4
:10346000E9F40AC080B109C083B107C086B105C0C4
:1034700089B103C08CB101C08FB19927E3E03695C3
:103480002795EA95E1F702C0959587952A95E2F789
:10349000992787FD90958170907008958FEF9FEF29
:1034A00008958F3F09F403C1282F3327A9014770DE
:1034B00050704230510509F45CC04330510544F46A
:1034C0004115510591F04130510509F0F0C034C06B
:1034D0004430510509F49BC0443051050CF470C0D0
:1034E0004530510509F0E3C0B9C080B1A90173E0CE
:1034F000569547957A95E1F79927042E02C0959540
:1035000087950A94E2F780FD0BC022B181E090E03C
:1035100002C0880F991F4A95E2F7282B22B9C4C030
:1035200022B181E090E002C0880F991F4A95E2F72E
:103530008095822382B9B8C083B163E03695279520
:103540006A95E1F79927022E02C0959587950A940E
:10355000E2F702C0440F551F2A95E2F780FD03C031
:1035600085B1842B04C095B1842F8095892385B9BA
:103570009BC086B1A90193E0569547959A95E1F7CE
:103580009927042E02C0959587950A94E2F780FD4D
:103590000BC028B181E090E002C0880F991F4A95C6
:1035A000E2F7282B28B980C028B181E090E002C062
:1035B000880F991F4A95E2F78095822388B974C0D5
:1035C00089B1A901B3E056954795BA95E1F79927D6
:1035D000042E02C0959587950A94E2F780FD0BC0F2
:1035E0002BB181E090E002C0880F991F4A95E2F765
:1035F000282B2BB959C02BB181E090E002C0880F75
:10360000991F4A95E2F7809582238BB94DC08CB102
:10361000A901A3E056954795AA95E1F79927042EAD
:1036200002C0959587950A94E2F780FD0BC02EB1F4
:1036300081E090E002C0880F991F4A95E2F7282B9D
:103640002EB932C02EB181E090E002C0880F991FE0
:103650004A95E2F7809582238EB926C08FB1A901E1
:10366000F3E056954795FA95E1F79927042E02C0A5
:10367000959587950A94E2F780FD0BC021B381E010
:1036800090E002C0880F991F4A95E2F7282B21BBD2
:103690000BC021B381E090E002C0880F991F4A95CA
:1036A000E2F78095822381BB81E090E008958FEF5F
:1036B0009FEF08958F3F09F412C1482F55276623C5
:1036C00009F090C0CA01877090708230910509F4AA
:1036D0003EC0833091053CF4009789F0813091051C
:1036E00009F0FDC021C08430910509F454C0843034
:1036F00091050CF43EC0059709F0F1C05EC031B1F0
:10370000B3E056954795BA95E1F781E090E002C0A5
:10371000880F991F4A95E2F7282F2095232321B976
:1037200022B1822B82B9D8C024B1A3E05695479527
:10373000AA95E1F702C0880F991F4A95E2F7982FE2
:103740008095822384B985B1982B95B9C5C037B1CE
:10375000F3E056954795FA95E1F781E090E002C0D5
:10376000880F991F4A95E2F7282F2095232327B920
:1037700035C03AB1E3E056954795EA95E1F781E027
:1037800090E002C0880F991F4A95E2F7282F2095F4
:1037900023232AB923C03DB173E0569547957A9506
:1037A000E1F781E090E002C0880F991F4A95E2F7A7
:1037B000282F209523232DB911C030B363E05695EF
:1037C00047956A95E1F781E090E002C0880F991F64
:1037D0004A95E2F7282F2095232320BB25B1822B81
:1037E00085B97AC09A012770307022303105A9F16D
:1037F0002330310544F42115310589F0213031059C
:1038000009F06DC01CC02430310509F446C02430D5
:1038100031059CF12530310509F061C04EC021B160
:1038200033E0569547953A95E1F781E090E002C084
:10383000880F991F4A95E2F7282B21B94DC084B112
:1038400093E0569547959A95E1F702C0220F331FF2
:103850004A95E2F7822B84B93FC027B1B3E0569571
:103860004795BA95E1F781E090E002C0880F991F73
:103870004A95E2F7282B27B92FC02AB1A3E0569525
:103880004795AA95E1F781E090E002C0880F991F63
:103890004A95E2F7282B2AB91FC02DB1F3E05695BF
:1038A0004795FA95E1F781E090E002C0880F991FF3
:1038B0004A95E2F7282B2DB90FC020B3E3E05695C7
:1038C0004795EA95E1F781E090E002C0880F991FE3
:1038D0004A95E2F7282B20BB81E090E008958FEF16
:1038E0009FEF0895882319F08FEF9FEF089580B11F
:1038F000992787FD9095809590958827990F881F27
:1039000099270895009711F484E109C08130910549
:1039100011F48CE104C08230910531F484E20E94FC
:10392000511A81E090E00895039719F08FEF9FEF0F
:1039300008958CE20E94511A81E090E0089500976A
:1039400011F484E109C08130910511F48CE104C0C7
:103950008230910531F484E20E94061981E090E002
:103960000895039719F08FEF9FEF08958CE20E945E
:10397000061981E090E00895009711F484E109C0F0
:103980008130910511F48CE104C08230910531F44D
:1039900084E20E948B1981E090E00895039719F06A
:1039A0008FEF9FEF08958CE20E948B1981E090E0E9
:1039B0000895882319F085B78F7E02C085B780618E
:1039C00085BF81E090E00895982F8091C00085FF29
:1039D000FCCF8091C0008F7D8093C0009093C60083
:1039E0000895982F8091C80085FFFCCF9093CE005A
:1039F0000895292F33272093C5008093C40086E0C3
:103A00008093C200E1ECF0E080818B7F8083A0ECAA
:103A1000B0E08C9182608C9380818861808308956E
:103A2000292F33272093CD008093CC0086E080930C
:103A3000CA00E9ECF0E080818B7F8083A8ECB0E0E5
:103A40008C9182608C9380818861808308958091BD
:103A5000C00087FFFCCF8091C0008F778093C000AB
:103A60008091C600992708950E94101D6AEA78E1A6
:103A700081EF9CE10E943934909381078093800705
:103A80006AEA78E181EF9CE10E94393490937F07E4
:103A900080937E070E9452228093D9068F3F19F4AB
:103AA0008EE00E9452211092DA061092C806809190
:103AB000C90080688093C90008958091D9068F3F1E
:103AC00019F48EE00E9452218091D906992787FD32
:103AD00090950895CF93DF93EC0107C06091800724
:103AE0007091810799270E948734FE012196849165
:103AF0008823A1F7DF91CF9108951F920F920FB6FF
:103B00000F9211242F933F934F935F936F937F9363
:103B10008F939F93AF93BF93EF93FF938091C900CF
:103B20008F778093C9008091C80087FFFCCF809178
:103B3000C8008F778093C8009091CE008091C8060E
:103B4000E82FFF27E753F94F90838F5F8093C806D4
:103B5000803111F41092C8068091D9060E94E323A7
:103B60008091C8008F778093C8008091C9008068D9
:103B70008093C900FF91EF91BF91AF919F918F9179
:103B80007F916F915F914F913F912F910F900FBE59
:103B90000F901F9018950000000000000000019792
:103BA000D1F70895FC01A7E0B0E00E94F536802D22
:103BB000808381E090E00895FC018081A7E0B0E07F
:103BC000082E0E94FD3681E090E00895DC010E94FD
:103BD000F536802D99270895FC01A0E0B0E00E9401
:103BE000F536402D4383A1E0B0E00E94F536802DEC
:103BF0008283A2E0B0E00E94F536302D3183A3E04D
:103C0000B0E00E94F536902D9083A4E0B0E00E94D1
:103C1000F536202D830F840F890F281719F481E0C2
:103C200090E008958FEF9FEF0895FC01A5E0B0E0CC
:103C30000E94F536802D808381E090E00895FC019C
:103C4000A6E0B0E00E94F536802D808381E090E010
:103C50000895AC0120E030E0D90118960E94F536B5
:103C6000802DFA01E20FF31F80832F5F3F4F203139
:103C7000310591F781E090E00895DC01062E0E9465
:103C8000FD360895FC018081A6E0B0E0082E0E9478
:103C9000FD3681E090E00895AC0120E030E0D901EC
:103CA0001896FA01E20FF31F8081082E0E94FD365C
:103CB0002F5F3F4F2031310591F781E090E008956B
:103CC000F89408957894089585E690E008950E9408
:103CD000A92B0895EF92FF920F931F93CF93DF9339
:103CE000EC018B017A018985823021F080914807AF
:103CF000888301C0188280914807833020F060E0FB
:103D000087E00E944B218985823029F08091480705
:103D10008F5F8093480780914807882319F481E0DA
:103D2000809348078881992787FD9095FC0145E09D
:103D3000EE0FFF1F4A95E1F7E80FF91FE352F94F25
:103D4000118300838881992787FD9095FC0135E0D8
:103D5000EE0FFF1F3A95E1F7E80FF91FE352F94F15
:103D6000888582878881992787FD9095FC0125E0C9
:103D7000EE0FFF1F2A95E1F7E80FF91FE352F94F05
:103D800083E081872881822F992787FD9095FC0108
:103D900005E0EE0FFF1F0A95E1F7E80FF91FE35268
:103DA000F94F20878881992787FD9095FC0115E0C0
:103DB000EE0FFF1F1A95E1F7E80FF91FE352F94FD5
:103DC00015820881112707FD10952B853C854D85AF
:103DD0005E856F85788989899A890E94CE29F80144
:103DE000B5E0EE0FFF1FBA95E1F7E00FF11FE352C8
:103DF000F94F948F838F0881112707FD10952B8D24
:103E00003C8D4D8D5E8D6F8D78A189A19AA10E9408
:103E1000CE29F801A5E0EE0FFF1FAA95E1F7E00F0C
:103E2000F11FE352F94F968B858B8881992787FD87
:103E30009095FC0175E0EE0FFF1F7A95E1F7E80F12
:103E4000F91FE352F94F85899689238D348D820FAE
:103E5000931F908F878B0881112707FD10952B8961
:103E60003C894D895E896F89788D898D9A8D0E94F4
:103E7000CE29F80165E0EE0FFF1F6A95E1F7E00F2C
:103E8000F11FE352F94F968F858F8881992787FD1F
:103E90009095FC0155E0EE0FFF1F5A95E1F7E80FF2
:103EA000F91FE352F94F858D968D928F818F88810E
:103EB000992787FD9095FC0145E0EE0FFF1F4A957D
:103EC000E1F7E80FF91FE352F94F81E090E090A38A
:103ED000878F8881992787FD9095FC0135E0EE0F4B
:103EE000FF1F3A95E1F7E80FF91FE352F94FF3820C
:103EF000E2828881992787FD9095FC0125E0EE0FED
:103F0000FF1F2A95E1F7E80FF91FE352F94F81E00F
:103F1000848781E090E0DF91CF911F910F91FF9016
:103F2000EF9008958F929F92AF92BF92CF92DF92BF
:103F3000EF92FF920F931F93CF93DF9365EEA62E20
:103F400066E0B62ECC24DD244501EC2CF501F08092
:103F5000FFEFFF1691F0E40100E010E0E01639F009
:103F60008881F81621F46F2D85E00E944B210F5FA8
:103F70001F4FA1960330110589F70894C11CD11C6D
:103F800081E290E0A80EB91E93E0C916D104E9F6CB
:103F90000E947025282F332727FD3095F90155E021
:103FA000EE0FFF1F5A95E1F7E20FF31FE352F94FAF
:103FB000328530935B0721E28202C00111248352D3
:103FC000994F90935A078093590790934B0780938A
:103FD0004A0730934C070E94A8320E948E320E94FA
:103FE000CC32FFCF0F931F93CF93DF93CDB7DEB7C4
:103FF000A3970FB6F894DEBF0FBECDBF0E9452222A
:10400000809349078F3F21F460E08EE00E944B21AE
:104010000E94FF31882321F460E086E00E944B215A
:1040200010924C0710925A071092590710924B07A2
:1040300010924A0710925B07109258078FEF8093F7
:1040400042078093440780934307809345078093FA
:1040500047078093460793E69093E7068093E5062B
:10406000909308078093060790932907809327076A
:10407000ECE5F7E0CF01059694838383F783E6832D
:10408000FC0127E08B369207A9F710925E07109289
:104090005D0710926F0710926E0710924F071092F3
:1040A0004E070F979093DC068093DB066FE87BE268
:1040B0008E010F5F1F4FC8010E944C3240E850E054
:1040C00065ED75E0C8010E94AD3285E58093D505A8
:1040D00019861C8E1D8E1E8E1F8E18A219A21AA262
:1040E0001BA291E0988782E08A879B87C8010E9483
:1040F0005928A3960FB6F894DEBF0FBECDBFDF914F
:10410000CF911F910F910895F894FFCFE091590737
:10411000F0915A0784870895E0915907F0915A0762
:10412000848599270895DC01FB018091C6058823C9
:1041300019F480E090E0089580838091D9028C93F7
:1041400081E090E008951F938091C605882309F4CB
:104150009EC00E94601E0E94601E82E793E00E9443
:104160006A1D8091D90299279F938F9382E692E0EE
:104170009F938F930E94B4348EE693E00E946A1D51
:104180000F900F900F900F908091C605843110F022
:104190001092C6058091C6059927AA27BB27FC0166
:1041A0003197E231F105F0F5EA59FF4FEE0FFF1FAD
:1041B0000590F491E02D099487E493E035C083E302
:1041C00093E032C08DE193E02FC082E093E02CC0F9
:1041D0008CEE92E029C084ED92E026C081EC92E062
:1041E00023C08EEA92E020C080E992E01DC08BE6F9
:1041F00092E01AC08FE592E017C084E492E014C008
:1042000085E392E011C084E292E00EC080E192E08A
:104210000BC080EF91E008C088ED91E005C08DEB08
:1042200091E002C086EB91E00E946A1D60918007D8
:10423000709181078DE090E00E9487346091800743
:10424000709181078AE090E00E94873482E090E0DC
:104250000E94BC1C83E090E00E949F1C10E088EE4E
:1042600093E00E94BA2E1F5F1436C9F783E090E0F6
:104270000E94BC1C82E090E00E949F1C10E088EE2F
:1042800093E00E94BA2E1F5F1436C9F7DFCF80E09B
:1042900090E01F9108958093C6056093D9020E9413
:1042A000A32008958093C605E0915907F0915A071D
:1042B00080858093D9020E94A3200895992787FDC5
:1042C0009095FC0125E0EE0FFF1F2A95E1F7E80F1E
:1042D000F91FE352F94FA281B3818C91853529F002
:1042E00085E58C938FEF9FEF0895808191818050B9
:1042F000924218F481E090E0089582E10E945221F8
:104300008FEF9FEF08956F927F928F929F92AF925F
:10431000BF92CF92DF92EF92FF920F931F93CF93B2
:10432000DF938EE793E00E946A1DE0915907F091B8
:104330005A078085992787FD90959F938F9385E6EF
:1043400092E09F938F930E94B434E0915907F091CB
:104350005A07028113811F930F938EE692E09F9379
:104360008F930E94B434F801808199279F938F9393
:104370005BE7C52E52E0D52EDF92CF920E94B43477
:10438000E0915907F0915A07808191819F938F9313
:1043900048E8E42E42E0F42EFF92EF920E94B434FB
:1043A0008091590790915A079F938F9302E912E0E9
:1043B0001F930F930E94B434CDEDD6E0AA24BB2402
:1043C0008DB79EB744960FB6F8949EBF0FBE8DBFB3
:1043D00032EA632E32E0732E4601670178010A81CA
:1043E0001B811F930F93BF92AF927F926F920E9497
:1043F000B434F801808199279F938F939F928F9275
:104400000E94B434888199819F938F93DF92CF92D9
:104410000E94B434DF93CF93FF92EF920E94B434A2
:104420000894A11CB11CA1968DB79EB742960FB6F9
:10443000F8949EBF0FBE8DBF93E0A916B10479F624
:10444000DF91CF911F910F91FF90EF90DF90CF9070
:10445000BF90AF909F908F907F906F900895CF9373
:10446000DF93E0915907F0915A07C281D381888187
:10447000853539F00E94832181E00E94522185E533
:104480008883E0915907F0915A078081918180508B
:10449000924228F00E94832182E10E945221DF9102
:1044A000CF9108954091B8035091B9036091BA0338
:1044B0007091BB0320E030E0DB01CA01022E04C092
:1044C000B695A795979587950A94D2F781709070C5
:1044D000892BE9F481E090E0A0E0B0E0022E04C076
:1044E000880F991FAA1FBB1F0A94D2F7842B952B04
:1044F000A62BB72B8093B8039093B903A093BA036C
:10450000B093BB03822F992787FD909508952F5F65
:104510003F4F2032310581F68FEF9FEF0895E091F4
:104520005907F0915A0765857685878590890895A2
:10453000EF92FF920F931F9321E030E040E050E0B4
:1045400004C0220F331F441F551F8A95D2F7E091F4
:104550005907F0915A07E584F68407851089DA0136
:10456000C9018E219F21A023B1230097A105B10588
:1045700019F48FEF9FEF1AC0209530954095509514
:10458000E222F32204231523E586F6860787108BA3
:1045900081899289A389B48982239323A423B52393
:1045A000818B928BA38BB48B81E090E01F910F9154
:1045B000FF90EF900895682F772767FD70958091A1
:1045C000B8039091B903A091BA03B091BB03062E32
:1045D00004C0B695A795979587950A94D2F78170F0
:1045E0009070892B19F48FEF9FEF0895E091590790
:1045F000F0915A0721E030E040E050E004C0220F83
:10460000331F441F551F6A95D2F785859685A78568
:10461000B089822B932BA42BB52B85879687A787F0
:10462000B08B81E090E00895382F8091580788235F
:1046300019F080E090E00895809142078F3F11F4D7
:1046400020E007C0809145078F3F11F022E001C0B4
:1046500021E0822F9927FC01EE0FFF1FE80FF91FC1
:10466000EE5BF84F32833083618381E0809358079B
:1046700083E0289FC00111248E5B984F089527E0A6
:104680008234920711F480E007C08554974019F0F6
:104690008FEF9FEF089581E0992787FD909508950A
:1046A0000E943F238F3F11F481E002C0823029F441
:1046B0000E9486208FEF9FEF0895992787FD9095A0
:1046C000FC01EE0FFF1FE80FF91FEE5BF84F8FEFB5
:1046D000808382838183809158078150809358071B
:1046E00081E090E008950E943F238F3F11F481E024
:1046F00002C0823029F40E9486208FEF9FEF089538
:10470000992787FD9095FC01EE0FFF1FE80FF91F19
:10471000EE5BF84F8281992787FD909508951F934E
:10472000CF93DF930E943F23182F8F3F11F481E036
:1047300003C0823031F482E00E9486208FEF9FEF29
:104740003EC0992787FD9095EC01CC0FDD1FC80F67
:10475000D91FCE5BD84F9A818881981774F50E9433
:10476000601E8A818F5F8A83E0915907F0915A0712
:104770001482E4EEF6E0212F332727FD3095432FF6
:10478000532F8081823091F482859385A485B585ED
:1047900082179307A407B50749F483E0828317863D
:1047A000168610821286138614861586B19687E0C7
:1047B000E734F80731F70E94621E81E090E0DF9154
:1047C000CF911F910895DF92EF92FF920F931F9365
:1047D000E1E0EE2EF12C012D112D04C0EE0CFF1C9A
:1047E000001F111F8A95D2F78091B8039091B903E9
:1047F000A091BA03B091BB038E219F21A023B123C6
:104800000097A105B10511F481E043C00E94601E2C
:10481000E4EEF6E0DD2480818130B9F48285938571
:10482000A485B5858E219F21A023B1230097A105E2
:10483000B10559F083E08283178616861082E286DE
:10484000F38604871587DD24D39480818230A1F418
:1048500082859385A485B5858E159F05A007B10730
:1048600059F483E082831786168610821286138697
:1048700014861586DD24D394B19687E0E734F807D3
:1048800051F60E94621EDD2019F081E090E005C023
:1048900082E00E9486208FEF9FEF1F910F91FF9083
:1048A000EF90DF900895EF92FF920F931F93CF93B5
:1048B000DF93C82FDD27C7FDD095F1E0EF2EF12C57
:1048C000012D112D0C2E04C0EE0CFF1C001F111F1A
:1048D0000A94D2F78091B8039091B903A091BA03DA
:1048E000B091BB038E219F21A023B1230097A10586
:1048F000B10519F48FEF9FEF5DC00E94601EEDEDD2
:10490000F6E0A80197012095309540955095808557
:104910008F3F41F185859685A785B0898E159F05C6
:10492000A007B10739F4118A128A138A148A1782F0
:1049300083E0818785859685A785B0898223932327
:10494000A423B52385879687A787B08B8189928911
:10495000A389B48982239323A423B523818B928BCB
:10496000A38BB48BB19687E0E034F80781F62EEF85
:104970003FEF4FEF5FEF04C0220F331F441F551F5F
:10498000CA95D2F78091B8039091B903A091BA0368
:10499000B091BB0382239323A423B5238093B80350
:1049A0009093B903A093BA03B093BB030E94621E15
:1049B00081E090E0DF91CF911F910F91FF90EF90F8
:1049C00008951F93CF93DF930E943F23182F8F3FAB
:1049D00011F481E003C0823031F482E00E9486202D
:1049E0008FEF9FEF3EC00E94601E812F992787FDA9
:1049F0009095EC01CC0FDD1FC80FD91FCE5BD84FAF
:104A00008A818823D9F4E0915907F0915A07878168
:104A100082608783E0915907F0915A07812F992787
:104A200087FD9095A92FB92F818B928BA38BB48B87
:104A30000E94621E80E090E00E9486278A81815059
:104A40008A83E0915907F0915A0789818387E09121
:104A50005907F0915A0781E084830E94621E81E029
:104A600090E0DF91CF911F9108959B01AC01E091FF
:104A70005907F0915A0785859685A785B0898223C5
:104A80009323A423B5230097A105B10529F460E081
:104A900070E080E090E00895218B328B438B548B43
:104AA00081E087830090490704C056954795379564
:104AB00027950A94D2F7C90181709070892B19F05B
:104AC0000E94212704C080E090E00E948627E091A8
:104AD0005907F0915A0761897289838994890895E9
:104AE000E0914E07F0914F07808199270895E0915A
:104AF0004E07F0914F0703C00380F481E02D3097FB
:104B0000D9F70895CF93DF93482FC091DB06D0915A
:104B1000DC06209709F47AC0A0914E07B0914F07A8
:104B20001097B9F1992787FD90959C0165E0220FB8
:104B3000331F6A95E1F7280F391F2352394F8C91A3
:104B40009927BC0155E0660F771F5A95E1F7680F6A
:104B5000791F6352794FFB018481882329F0938563
:104B6000F90182859817A8F0F9018481882331F032
:104B7000FB019285F9018385981758F0FB01928516
:104B8000F9018285981728F0FD01A381B48110975F
:104B9000B1F64883E091DB06F091DC062381348195
:104BA0003093DC062093DB0680914E0790914F07EF
:104BB000A817B907A1F4109731F0BC83AB831A8210
:104BC0001982FD0105C01C821B821A821982F9011B
:104BD000D283C183D0934F07C0934E0717C0FD0106
:104BE00081819281A217B30751F09A838983BC8394
:104BF000AB8381819281FC01D483C38304C01C8276
:104C00001B829A838983FD01D283C183DF91CF9177
:104C10000895CF93DF93A0914E07B0914F0710975F
:104C200009F446C0482F552747FD50958C91992788
:104C30008417950769F4ED01EB81FC81F0934F0730
:104C4000E0934E071282118216C0D901232B81F105
:104C50008C919927FD012381348184179507A9F749
:104C6000C181D2813C832B8383819481009719F089
:104C7000FC01D283C183E091DB06F091DC06309722
:104C800041F4B093DC06A093DB06ED011C821B828D
:104C900009C0ED01FC83EB83B283A183B093DC06F2
:104CA000A093DB06E091DB06F091DC061282118214
:104CB000DF91CF910895E0915907F0915A078085CF
:104CC000992708950E944132E0915907F0915A07BF
:104CD00085818823B9F70895FF920F931F93CF938F
:104CE000DF93CDB7DEB728970FB6F894DEBF0FBEBF
:104CF000CDBF29833A834B835C836D837E838F830F
:104D000098870E942F220E94601EE0915907F0911F
:104D10005A0781E0858381E090E090A3878F0E940D
:104D2000802FF82E29813A814B815C816D817E81B3
:104D30008F8198850E94CE29E0915907F0915A07FA
:104D40000F2D1127800F911F968B858B87EF8F1565
:104D500070F00E940C2F0E5F1F4F9927801791074C
:104D600034F08F2D8E5F8093A7060E94112F0E9432
:104D7000621E0E94622681E090E028960FB6F894A9
:104D8000DEBF0FBECDBFDF91CF911F910F91FF907E
:104D900008958F929F92AF92BF92CF92DF92EF923F
:104DA000FF920F931F93CF93DF93CDB7DEB760973A
:104DB0000FB6F894DEBF0FBECDBF29873A874B8769
:104DC0005C876D877E878F87988BCE0101960E94C6
:104DD000342B89809A80AB80BC80CD80DE80EF80D0
:104DE000F88409851A852B853C854D855E856F8500
:104DF0007889CE0109960E94AF28882319F48FEF95
:104E00009FEF0CC029853A854B855C856D857E8535
:104E10008F8598890E946C2681E090E060960FB69D
:104E2000F894DEBF0FBECDBFDF91CF911F910F91E0
:104E3000FF90EF90DF90CF90BF90AF909F908F90BA
:104E400008951F930E94601EE0915907F0915A0740
:104E500081E0858386830E94802F182F883F80F40D
:104E60000E940C2F212F33272E5F3F4F9927821747
:104E7000930734F0812F8E5F8093A7060E94112F35
:104E80000E94621E0E94622681E090E01F910895B8
:104E90001F93CF93DF93CDB7DEB728970FB6F89463
:104EA000DEBF0FBECDBF29833A834B835C836D8306
:104EB0007E838F8398870E94601E0E94802F182F08
:104EC00029813A814B815C816D817E818F819885BA
:104ED0000E94CE298330910518F48FEF9FEF0CC00C
:104EE000E0915907F0915A07810F911D968B858BA0
:104EF0000E94621E81E090E028960FB6F894DEBF13
:104F00000FBECDBFDF91CF911F9108950F931F93D7
:104F10008C010E94601EE0915907F0915A0781E0D0
:104F20008583168B058B0E94802F082F883F80F485
:104F30000E940C2F202F33272E5F3F4F9927821777
:104F4000930734F0802F8E5F8093A7060E94112F65
:104F50000E94621E0E94622681E090E01F910F91E4
:104F60000895FF920F931F93CF93DF938C010E94BC
:104F7000601EE0915907F0915A0781E085830E94F5
:104F8000802FF82EE0915907F0915A07C82FDD279E
:104F90000C0F1D1F168B058B87EF8F1568F00E9475
:104FA0000C2F229699278C179D0734F08F2D8E5F3A
:104FB0008093A7060E94112F0E94621E0E94622603
:104FC00081E090E0DF91CF911F910F91FF900895C4
:104FD0001F93CF93DF93EC010E942F22209711F4AF
:104FE000C1E0D0E00E94601EE0915907F0915A079D
:104FF00081E08583D0A3C78F0E94802F182F883F20
:1050000080F40E940C2F212F33272E5F3F4F9927CA
:105010008217930734F0812F8E5F8093A7060E943A
:10502000112F0E94621E0E94622681E090E0DF91B3
:10503000CF911F9108951F930E942F220E94601EFE
:10504000E0915907F0915A0781E090E090A3878F93
:1050500081E085830E94802F182F883F80F40E9472
:105060000C2F212F33272E5F3F4F9927821793074D
:1050700034F0812F8E5F8093A7060E94112F0E942B
:10508000621E0E94622681E090E01F910895E091E7
:105090005907F0915A0780850E940926E091590727
:1050A000F0915A0784E081870E941B2881E090E0FC
:1050B0000895EF92FF920F931F93CF93DF93EC012C
:1050C0004B815C8169817A818D819E810E94503201
:1050D000BC018F81882369F04B815C81EE24FF2421
:1050E00000E010E020E030E0CE010E946A1E1F8246
:1050F00016C08881992787FD9095FC01A5E0EE0FE9
:10510000FF1FAA95E1F7E80FF91FE352F94F8185D8
:10511000833019F08FEF9FEF1BC07183608388810C
:10512000992787FD9095FC0175E0EE0FFF1F7A959A
:10513000E1F7E80FF91FE352F94F85899689892B2A
:1051400029F482E0818788810E94822581E090E0B5
:10515000DF91CF911F910F91FF90EF9008958F9263
:105160009F92AF92BF92CF92DF92EF92FF920F93F6
:105170001F93CF93DF93CDB7DEB760970FB6F89448
:10518000DEBF0FBECDBFFC0109831A832B833C8396
:105190004D835E836F83788789869A86AB86BC86CB
:1051A000CD86DE86EF86F88A2D813E814F81588537
:1051B00089819A81AB81BC81AD84BE84CF84D8883B
:1051C000E984FA840B851C858E159F05A007B1071D
:1051D00008F43FC0E816F9060A071B0791F42A15E0
:1051E0003B054C055D05A8F12A193B094C095D09F1
:1051F000248335834683578310821182128213825F
:105200001CC02A153B054C055D05D0F40197A1098A
:10521000B1098E199F09A00BB10B80839183A283E2
:10522000B383205036434546544C2A193B094C0958
:105230005D09248335834683578381E090E00BC06A
:105240008E199F09A00BB10B80839183A283B38336
:10525000ECCF80E090E060960FB6F894DEBF0FBE12
:10526000CDBFDF91CF911F910F91FF90EF90DF9015
:10527000CF90BF90AF909F908F900895FC0113C086
:1052800080509A4CAA49BB4384839583A683B783F5
:1052900080819181A281B3810196A11DB11D80837E
:1052A0009183A283B38384819581A681B781803065
:1052B0002AEC92072AE9A2072BE3B20708F7089520
:1052C0008F929F92AF92BF92CF92DF92EF92FF9216
:1052D0000F931F93CF93DF93CDB7DEB760970FB6D1
:1052E000F894DEBF0FBECDBFFC0109831A832B8368
:1052F0003C834D835E836F83788789869A86AB86ED
:10530000BC86CD86DE86EF86F88AAD80BE80CF80F3
:10531000D884ED84FE840F85188989859A85AB85AC
:10532000BC8529813A814B815C81820F931FA41F28
:10533000B51F80839183A283B383EA0CFB1C0C1DF1
:105340001D1DE482F58206831783CF010E943E294A
:1053500081E090E060960FB6F894DEBF0FBECDBF3F
:10536000DF91CF911F910F91FF90EF90DF90CF9041
:10537000BF90AF909F908F90089560935007709367
:10538000510780935207909353072093540730930B
:105390005507409356075093570708958F929F9251
:1053A000AF92BF92CF92DF92EF92FF920F931F9333
:1053B000CF93DF93CDB7DEB728970FB6F894DEBF53
:1053C0000FBECDBF29833A834B835C836D837E837D
:1053D0008F8398878D809E80AF80B884E980FA8023
:1053E0000B811C81E114F1040105110501F180E03C
:1053F0009AECAAE9BBE3880E991EAA1EBB1EC50142
:10540000B40123EB36EE4EE050E00E949C36690179
:105410000894E108F108010911098AE0EE0CFF1C6B
:10542000001F111F8A95D1F7CE0CDF1C09C0C501E2
:10543000B40123EB36EE4EE050E00E949C36690149
:10544000B60102C06050744094E061307907D0F733
:105450008827992723EB36EE4EE050E00E944A362B
:10546000675A7C48884F9F4F681579058A059B05C8
:1054700018F40894C11CD11CC60128960FB6F894E4
:10548000DEBF0FBECDBFDF91CF911F910F91FF9077
:10549000EF90DF90CF90BF90AF909F908F90089546
:1054A0002F923F924F925F926F927F928F929F9234
:1054B000AF92BF92CF92DF92EF92FF920F931F9322
:1054C000CF93DF93CDB7DEB728970FB6F894DEBF42
:1054D0000FBECDBF7B018C0173708070907023EB89
:1054E00036EE4EE050E00E944A366D837E838F8315
:1054F00098879AE016950795F794E7949A95D1F7CF
:10550000E982FA820B831C83988529803A804B803C
:105510005C806D807E808F80222D332D442D552D13
:10552000662D772D882D28960FB6F894DEBF0FBE16
:10553000CDBFDF91CF911F910F91FF90EF90DF9042
:10554000CF90BF90AF909F908F907F906F905F9023
:105550004F903F902F900895AF92BF92CF92DF92DD
:10556000EF92FF920F931F93CF93DF93CDB7DEB7E8
:1055700028970FB6F894DEBF0FBECDBF29833A83BC
:105580004B835C836D837E838F839887AD80BE80E1
:10559000CF80D884E980FA800B811C81E114F1046A
:1055A0000105110509F180E09AECAAE9BBE3A80E18
:1055B000B91ECA1EDB1EC601B50123EB36EE4EE056
:1055C00050E00E949C360894E108F1080109110995
:1055D0006AE0EE0CFF1C001F111F6A95D1F7E20E66
:1055E000F31E041F151F0AC0C601B50123EB36EEDA
:1055F0004EE050E00E949C3679018A01C801B70153
:1056000004C060507440804090406130A4E07A074C
:10561000A0E08A07A0E09A07A0F723EB36EE4EE061
:1056200050E00E944A36675A7C48884F9F4F6A155F
:105630007B058C059D0528F40894E11CF11C011DD7
:10564000111DC801B70128960FB6F894DEBF0FBE32
:10565000CDBFDF91CF911F910F91FF90EF90DF9021
:10566000CF90BF90AF900895EF92FF920F931F934A
:10567000CF93DF93EC018091500790915107A09157
:105680005207B091530788839983AA83BB83E09024
:105690005407F09055070091560710915707EC8278
:1056A000FD820E831F830E94802F9927AA27BB2784
:1056B000BC01CD0123EB36EE4EE050E00E944A36AD
:1056C000E60EF71E081F191FEC82FD820E831F8352
:1056D00013C080509A4CAA49BB438C839D83AE83F0
:1056E000BF8388819981AA81BB810196A11DB11DCB
:1056F00088839983AA83BB838C819D81AE81BF817E
:1057000080302AEC92072AE9A2072BE3B20708F7B8
:10571000DF91CF911F910F91FF90EF9008950E941C
:105720002F220E940C2F8B3018F481E080934D07BC
:105730000E9441328091D505853519F088E00E949C
:10574000522180917E21853551F388E00E945221BB
:10575000E6CF8F929F92AF92BF92CF92DF92EF925D
:10576000FF920F931F93CF93DF930E94601E0E94BE
:10577000C82E0E94D02E4C018AEF0E94112F6091FA
:10578000A70677278827992723EB36EE4EE050E0CF
:105790000E944A367B018C018091540790915507F5
:1057A000A0915607B0915707E80EF91E0A1F1B1F5C
:1057B000C801B7010E949C36A8019701261B370B30
:1057C000480B590B8091500790915107A0915207B7
:1057D000B09153071BC0E12C66E3F62E65E6062F59
:1057E00064EC162FE20EF31E041F151FC801B7014B
:1057F00023EB36EE4EE050E00E949C36A801970164
:10580000261B370B480B590BD601C5015C016D01F6
:105810000894A11CB11CC11CD11C20306AEC3607B5
:105820006AE946076BE35607B0F6809350079093FA
:105830005107A0935207B093530720935407309316
:1058400055074093560750935707E0915907F09139
:105850005A078581882319F18185843001F1878178
:10586000823029F0882341F08681882311F485E075
:1058700001C083E081870CC083E08187E0915907F4
:10588000F0915A071782E0915907F0915A07168252
:10589000E0915907F0915A0780850E940926E0910E
:1058A0005907F0915A07858D968D892B91F1608566
:1058B000662379F18185843061F1218D328D80916B
:1058C000A70699272817390750F482E00E944B2138
:1058D000E0915907F0915A07128E118E04C0281BCF
:1058E000390B328F218FE0915907F0915A071085BB
:1058F000818D928D892B69F4612F83E00E944B2169
:10590000E0915907F0915A0783E08187812F0E9427
:105910000926CDEDD6E000E61AEECC24DD244C2D90
:1059200088858F3F09F489C01D82882391F189857C
:10593000843079F12D893E898091A706992728170F
:10594000390728F0281B390B3E8B2D8B02C01E8A8D
:105950001D8A2F89388D2817390728F0281B390B05
:10596000388F2F8B0EC06B8D7C8D8617970728F490
:10597000681B790B788F6F8B04C00E947536988FE7
:105980008F8B8F89988D892B21F48B8D9C8D988F8F
:105990008F8B8985833009F050C08D899E89892B32
:1059A00009F043C08F818823A1F08E81882389F07C
:1059B00081E090E0A0E0B0E00090490704C0880FCB
:1059C000991FAA1FBB1F0A94D2F7898B9A8BAB8BA6
:1059D000BC8B1F821E821D822F8D38A18D8D9E8DC6
:1059E0002130310561F49A8F898F82E089878F8910
:1059F000988D9E8B8D8B842F0E94822516C09A8F46
:105A0000898F215030408B8D9C8DAC01249FC0012B
:105A1000259F900D349F900D11249E8B8D8B988F18
:105A20008F8B81E090E098A38F8F8D899E8900975E
:105A300021F08017910708F48C010894C11CD11C37
:105A4000A19653E0C516D10409F069CF0E947025D4
:105A5000E82E992787FD9095FC0125E0EE0FFF1FAA
:105A60002A95E1F7E80FF91FE352F94F4285409379
:105A70005B0781E26E2D6802900111242352394F99
:105A800030934B0720934A07EE2091F0858D968D39
:105A9000892B51F0818D928D8A3F910528F48017D2
:105AA0009107E0F48C011AC00B3F1105B8F014C047
:105AB0000B30110598F0C8010A978A3F910530F420
:105AC0008C01099758F409E010E008C00550114016
:105AD00018F400EF10E002C00AEF10E040934C070A
