:100000000C9437020C9402350C9456020C94560250
:100010000C9456020C9456020C9456020C94560200
:100020000C9456020C9430350C9456020C945602E3
:100030000C9456020C94E3320C9456020C94E33266
:100040000C9456020C9416330C9456020C945602DF
:100050000C9456020C9456020C9456020C945602C0
:100060000C9456020C9456020C9456020C945602B0
:100070000C9456020C9456020C9456020C945602A0
:100080000C9420330C9456020C9456020C94560295
:100090000C94DC200C9456020C9456020C945602DC
:1000A0000C9456020C9456020C9456020C94560270
:1000B0000C9456020C9456020C9456020C94560260
:1000C0000C9456020C9456020C9456023A24402486
:1000D0004324462449244C2452244F245524582494
:1000E0005B246124642467246A245E2437243D242D
:1000F00043726561746520446F6E650D0A00455258
:10010000524F523A206372656174696E6720706164
:10011000636B6574207265636F7264207369676EC8
:10012000616C206661696C65640D0A0053746172CC
:1001300074696E672075702E2E2E0D0A00534C497F
:1001400050205258206572726F723A206E726B5F47
:100150007369676E616C5F72656769737465720D50
:100160000A00534C4950205258206572726F723AFF
:1001700020476574205369676E616C0D0A00534C0B
:100180004950205458204552524F523A202052652F
:100190006C65617365206F662073656D6170686F53
:1001A0007265206661696C65640D0A00534C4950A4
:1001B000205458204552524F523A202041636365E3
:1001C000737320746F2073656D6170686F72652042
:1001D0006661696C65640D0A0049534120455252BD
:1001E0004F523A206372656174696E67207478209B
:1001F0007369676E616C206661696C65640D0A00E5
:10020000495341204552524F523A206372656174FE
:10021000696E67207278207369676E616C20666111
:10022000696C65640D0A0043433234323020455214
:10023000524F523A202052656C65617365206F669B
:100240002073656D6170686F7265206661696C65A9
:10025000640D0A00434332343230204552524F522B
:100260003A202041636365737320746F2073656D5A
:100270006170686F7265206661696C65640D0A0063
:10028000554E4B4F574E004661696C656420746F44
:10029000206372656174652053656D6170686F726B
:1002A00065004661696C656420746F2063726561E6
:1002B0007465205369676E616C004B65726E656C86
:1002C0002066756E6374696F6E206E6F7420696D41
:1002D000706C656D656E7465640044657669636510
:1002E00020447269766572204572726F72005761A0
:1002F000746368646F67205265737461727400542C
:10030000696D6572204F766572666C6F7700556E09
:1003100068616E646C656420496E74657272757094
:100320007420566563746F72004C6F7720566F6C43
:1003300074616765004578747261205461736B2045
:10034000737461727465642C206973206E726B5FC4
:100350006366672E68206F6B3F0049646C65206F91
:1003600072204B65726E656C20537461636B204F15
:10037000766572666C6F7700556E6578706563742C
:1003800065642052657374617274004475706C69A1
:100390006361746564205461736B20494400536346
:1003A000686564756C6572204D6973736564205768
:1003B000616B657570005461736B20526573657273
:1003C00076652056696F6C6174656400526573656B
:1003D000727665204572726F7220696E2053636871
:1003E0006564756C657200496E76616C6964205352
:1003F0007461636B20506F696E7465720054617331
:100400006B20537461636B204F766572666C6F77F7
:1004100000537461636B20776173206E6F74206486
:100420006566696E6564206173206C617267652022
:10043000656E6F7567682100293A20002A4E524B7D
:10044000204552524F5228000D0A535441434B202D
:1004500044554D500D0A0045464765666700202B00
:100460002D2E303132333435363738396800112487
:100470001FBECFEFD1E2DEBFCDBF12E0A0E0B2E001
:10048000EAEFF5E700E00BBF02C007900D92AA3E2D
:10049000B107D9F71AE0AAEEB2E001C01D92AA3660
:1004A000B107E1F70E947C040C94FC3A0C944E33A3
:1004B0008091E704992787FD909508951F93CF9326
:1004C000DF93EC018B818E3609F07CC0E885E05328
:1004D000E093C006FF279A85DF01A05FBC4F9C9385
:1004E000E959F74F8081192F181B143148F180E02A
:1004F00092E00E9466380E949606E091C006FF27AF
:100500009F938F93FF93EF93812F99279F938F93BF
:10051000E959F74F808199279F938F938A8599276F
:100520009F938F938BE092E09F938F930E944F381D
:100530008DB79EB70C960FB6F8949EBF0FBE8DBFB9
:100540009091C006492F55278A85FA01E959F74F3E
:100550008083DA01AC51BC4F2C91210F2C93382FA2
:100560003770283050F0FA01EE5CFA4F2695269548
:1005700026958081280F20833C93FA01EE5CFA4F88
:1005800080818031A8F4FA0194E0EE0FFF1F9A9564
:10059000E1F7E80FF11DE851FB4F81E090E002C068
:1005A000880F991F3A95E2F72081282B20830AC0F3
:1005B000108281E08093E7049093F1028091E00340
:1005C0000E944227DF91CF911F910895EF92FF92F1
:1005D0001F9382EA93E090934303809342038BEB53
:1005E00096E090933F0380933E038CEB95E09093CD
:1005F00041038093400382E08093450311E0109310
:10060000440310934603109347038AE090E0A0E070
:10061000B0E08093480390934903A0934A03B093BA
:100620004B0310924C0310924D0310924E03109204
:100630004F031092500310925103109252031092E4
:10064000530380E095E6ADECBDE1809354039093B5
:100650005503A0935603B09357031092580310927A
:10066000590310925A0310925B0380E097E8A3E9C4
:10067000B3E080935C0390935D03A0935E03B0931B
:100680005F038DE393E00E94B82B8AEC94E0909393
:100690004A088093490824E4E22E28E0F22E40E044
:1006A00051E067EE73E0C7010E940C3683E080934F
:1006B0004C0810934B0810934D0810934E0884E19A
:1006C00090E0A0E0B0E080934F0890935008A09392
:1006D0005108B09352081092530810925408109287
:1006E0005508109256081092570810925808109208
:1006F000590810925A0810925B0810925C081092E8
:100700005D0810925E0810925F08109260081092C7
:1007100061081092620880E091EEA5EFB5E0809349
:10072000630890936408A0936508B0936608C701B6
:100730000E94B82B80EF90E00E94C9201F91FF908B
:10074000EF9008956F927F928F929F92AF92BF9297
:10075000CF92DF92EF92FF920F931F93CF93DF938D
:10076000CDB7DEB722970FB6F894DEBF0FBECDBF70
:100770000E94BA2999279F938F938CE192E09F93CF
:100780008F930E944F3883E090E00E941B2081E00D
:1007900090E00E941B2081E090E00E949A0640E0D9
:1007A00060E082E00E94E80C60E082E00E94C10EFE
:1007B00083E10E94920B0E94F40664E787E495E0CF
:1007C0000E94E40681E090E00E94760682E090E0DC
:1007D0000E9476060F900F900F900F9002C00E941B
:1007E0007A2B0E94DA068823D1F38BE292E09F9362
:1007F0008F930E944F380E94AD258093E0030F90A5
:100800000F908F3F09F457C0E0907E02FF2452E022
:10081000652E712C6C0E7D1E4E010894811C911C5E
:1008200000EE16E048E3A42E42E0B42E3DEFC32EC6
:100830003FEFD32EC00ED11E8E2D0E94651C0E944C
:100840004007882341F0B301C4010E94B10D0E940A
:100850005E020E94460782E00E947D07882329F5F8
:100860008F2D9927F3949F938F931F921F92BF927E
:10087000AF921F930F930E949938F80101900020C6
:10088000E9F7E15EF640EC5FE9830E94F80622E0BA
:10089000482F6981C6010E944F078DB79EB7089601
:1008A0000FB6F8949EBF0FBE8DBF8E2D0E94EA1C1E
:1008B0000E94690BC1CF8EEF90E00E94C920E091A9
:1008C000310AF091320A60858EE00E94A6242296B9
:1008D0000FB6F894DEBF0FBECDBFDF91CF911F9151
:1008E0000F91FF90EF90DF90CF90BF90AF909F90CF
:1008F0008F907F906F900895CFEFD1E2DEBFCDBF94
:100900000E945E1C87E090E00E9493208CE291E0C0
:100910000E94C9200E94512380E090E00E94FE1FA7
:1009200081E090E00E94FE1F82E090E00E94FE1FA6
:1009300083E090E00E94FE1F20E030E040E050E0C5
:1009400060E070E080E090E00E941C2D0E949A0719
:100950000E94E6020E94F12280E090E00C94FC3AB2
:100960008091E0030E9436268091E704882379F481
:1009700061E070E080E090E00090E00304C0660F6A
:10098000771F881F991F0A94D2F70E94942881E04C
:1009900090E00895AF92BF92CF92DF92FF920F93B3
:1009A0001F93CF93DF936091620A7091630A20E0F6
:1009B00040E08091600A9091610A0E9453060E9473
:1009C000B004F090730209E115E0E80121975E019F
:1009D000E3E4CE2EE2E0DE2E8F2D0E94651C809196
:1009E000F1028F5F809318058150E82FFF2774E094
:1009F000EE0FFF1F7A95E1F7E851FB4FD801819187
:100A00009AEA89278D9385E0A932B807C1F7F501E5
:100A100001900020E9F73197E851F5406E2FCE01A3
:100A20000E9400061092E7048091F102282F3327DC
:100A3000F90164E0EE0FFF1F6A95E1F7E851FB4F03
:100A400080E011928F5F8031E1F78091E103909116
:100A5000E2039F938F933F932F93DF92CF920E9455
:100A60004F388F2D0E94EA1C0E94B0048DB79EB7AC
:100A700006960FB6F8949EBF0FBE8DBFADCF809186
:100A80004E02992787FD9095089580917008909166
:100A900071080E94DF37992708958F929F92AF9235
:100AA000BF92CF92DF92EF92FF920F931F93CF935B
:100AB000DF93EC01862E0E94BC20D82E8FEFD81633
:100AC00021F482E691E00E94C9208D2D0E943626F5
:100AD0008F3F71F48DE391E00E94C92009C080919D
:100AE000600A9091610A0E94DF37813C91F00CC04E
:100AF00081E0E82EF12C012D112D04C0EE0CFF1C1D
:100B0000001F111FDA94D2F781E00E942C1C882369
:100B100031F757016801C801B7010E9494288091FC
:100B2000600A9091610A0E94DF37982E81EC981636
:100B300059F70E944505F82E10E000E02BC0809187
:100B4000600A9091610A0E94DF37803C19F08B3D6A
:100B500059F015C0112341F10F77901629F5812F17
:100B6000992787FD909522C081E00E942C1C882344
:100B700021F4C601B5010E9494280E944505982ED3
:100B8000181540F41F1530F4FE01E10FF11D8083AC
:100B90001F5F080F81E00E942C1C882381F6C6018C
:100BA000B5010E949428F6CF8FEF9FEFDF91CF9190
:100BB0001F910F91FF90EF90DF90CF90BF90AF907B
:100BC0009F908F9008951F93182F20916A082223D9
:100BD00069F0332788EE93E0AC01249FC001259F84
:100BE000900D349F900D11240E94193260916B0872
:100BF00070916C08812F99270E9422381F910895C7
:100C0000FF920F931F93CF93DF93EC01162F613860
:100C100010F083E03EC080916D0890916E080E94B4
:100C200040288F3F31F48CEA91E00E94C92081E096
:100C300030C081EC0E94E305812F0E94E305FF2470
:100C400000E00EC08881803C11F08B3D19F48BEDE3
:100C50000E94E30588810E94E3058991080FF394BF
:100C6000F11681F7802F8F770E94E30580EC0E94B8
:100C7000E30580916D0890916E080E94EE268F3FEB
:100C800019F081E090E009C08EE791E00E94C92050
:100C900082E00E94E1238FEF9FEFDF91CF911F91C0
:100CA0000F91FF900895909371088093700870934E
:100CB0006C0860936B0840936F0820936A086FEF8D
:100CC00081E00E946F2690936E0880936D088F5F7D
:100CD0009F4F31F40E94BA29682F8FE00E94A6240A
:100CE00081E080934E0281E090E0089521E030E0C1
:100CF00040E050E004C0220F331F441F551F8A9567
:100D0000D2F78091EC029091ED02A091EE02B091A9
:100D1000EF02822B932BA42BB52B8093EC029093A4
:100D2000ED02A093EE02B093EF02089580910503C7
:100D300099270895813019F08330D9F531C083E1C6
:100D40008093B4088CE08093B50884E18093B60862
:100D500088E18093B70880E18093B80887E18093A9
:100D6000B90882E18093BA0889E18093BB088EE0DC
:100D70008093BC0885E18093BD088BE08093BE081A
:100D80008FE08093BF0886E18093C00881E1809363
:100D9000C1088DE08093C2088AE18093C30808955A
:100DA0008FE08093AF0884E18093B00889E180935D
:100DB000B10808958091DC06813019F481E090E05B
:100DC00008958FEF9FEF0895662359F0009749F03B
:100DD0009093F8028093F7026093F60281E090E02E
:100DE00008958FEF9FEF089582E08093DC060895C9
:100DF00080914605882311F485EE01C081EE992784
:100E000087FD9095089580914605882311F083E829
:100E100001C083E0992787FD909508958F92AF9246
:100E2000CF92EF920F93CF93DF93CDB7DEB71092AF
:100E300092089AE09093990810929A0880939B08E0
:100E400060939C0840939D0810929E082093A508EB
:100E50000093A608E092A708C092A808A092A9084B
:100E60008092AA088A858093AB088B858093AC0812
:100E7000DF91CF910F91EF90CF90AF908F90089529
:100E80008091BE07992787FD909508951092BE071F
:100E90001092BF071092C0071092C1070895332720
:100EA000F901EE0FFF1FEE0FFF1FE75AF84F938374
:100EB00082836083418341E050E060E070E004C0E1
:100EC000440F551F661F771F2A95D2F780910C0398
:100ED00090910D03A0910E03B0910F03842B952BDD
:100EE000A62BB72B80930C0390930D03A0930E03B6
:100EF000B0930F0381E090E0089520910C033091AE
:100F00000D0340910E0350910F0304C05695479571
:100F1000379527958A95D2F7C90181709070089509
:100F200080912905813019F481E090E008958FEFD8
:100F30009FEF08950F931F9387E99BE09093200301
:100F400080931F030AE113E040E850E060E673E09D
:100F5000C8010E940C3684E18093220381E08093D3
:100F6000210380932303809324031092250310927E
:100F70002603109227031092280380E896E9A8E937
:100F8000B0E08093290390932A03A0932B03B0939E
:100F90002C0310922D0310922E0310922F03109207
:100FA00030031092310310923203109233031092E7
:100FB00034031092350310923603109237031092C7
:100FC00038031092390310923A0310923B031092A7
:100FD0003C03C8010E94B82B1F910F910895AF9256
:100FE000BF92CF92DF92EF92FF920F931F93CF9316
:100FF000DF93CDB7DEB724970FB6F894DEBF0FBEF0
:10100000CDBFEE24FF2442EFC42E42E0D42E0E9436
:10101000F806E091F702F091F802808360910503F1
:10102000C6010E94CE1A0E94F11510928F088AEF15
:101030000E94703280E00E94553210E012C00E947F
:10104000DF32181771F00E94DF32182F0894E11C6C
:10105000F11C81E1E81687E2F80618F0EE24FF247F
:1010600005C00E947F12082F882349F30E9427326F
:101070000E94DF32A82EBB24A4E0B0E0AA0EBB1E63
:10108000002371F006C00E94DF329927A816B90626
:1010900038F060E880E00E946413082F882399F3F9
:1010A0000E94D915013009F0B2CF2091F70230919A
:1010B000F802F90192818091E303981709F0A7CF14
:1010C00081E090E0A0E0B0E089839A83AB83BC83A9
:1010D0008093BE079093BF07A093C007B093C1074A
:1010E00080918208909183082181820F911D9093B5
:1010F00083088093820882E090E00E94E11F609163
:10110000620A7091630A89E690E00E942238898120
:101110009A81AB81BC810090720804C0880F991F2E
:10112000AA1FBB1F0A94D2F789839A83AB83BC831F
:1011300089810E94422700938F081092BE07109267
:10114000BF071092C0071092C1070E944A328AE07E
:101150000E94703287E00E9455326CE977EC80E0A3
:1011600090E00E9464330E945832E091310AF0917D
:10117000320A8AE090E0968B858B80918F089927C0
:1011800024960FB6F894DEBF0FBECDBFDF91CF918E
:101190001F910F91FF90EF90DF90CF90BF90AF9095
:1011A0000895EF92FF920F931F93CF93DF93CDB7E4
:1011B000DEB721970FB6F894DEBF0FBECDBF6091AA
:1011C000050382EF92E00E94CE1A0E94F1150E9460
:1011D000DF32898389818C5F898308C00E94DF3276
:1011E0009981981718F40E94D915A3C00E947F1204
:1011F0008823A1F30E942F32909391088093900846
:101200000E94DF32898389818B5F89830EC00E94AF
:10121000DF329981981748F48FE492E09F938F937F
:101220000E944F380F900F9084C060E880E00E94C9
:101230006413182F882359F30E94D915113009F02F
:1012400078C081E090E00E94E11F6091620A709195
:10125000630A82E790E00E94223861E0E62EF12CDA
:10126000012D112DE092BE07F092BF070093C00739
:101270001093C107809172080E944227E091F70203
:10128000F091F802028004C0EE0CFF1C001F111F39
:101290000A94D2F78091EC029091ED02A091EE02B7
:1012A000B091EF02E822F9220A231B23E114F10492
:1012B00001051105F1F12091BB0527FF3AC080918E
:1012C0004605882311F083E801C083E08093C508B8
:1012D0008093510781E597E090931703809316035D
:1012E00022FF02C082E015C0809190089091910881
:1012F00020917E0830917F08821B930B90937B088E
:1013000080937A08292F332720935207809353071D
:1013100084E0809315034091070350910803609186
:101320007E0870917F082BE838E083E193E00E940B
:10133000071821960FB6F894DEBF0FBECDBFDF9120
:10134000CF911F910F91FF90EF900895CF92DF9270
:10135000EF92FF920F931F93CF93DF93CDB7DEB73A
:1013600021970FB6F894DEBF0FBECDBFF82E81E0F7
:10137000809300030F2D1127F801EE0FFF1FEE0FD2
:10138000FF1FE75AF84F828193819093FF02809369
:10139000FE0280818093FD02A091FE02B091FF02C7
:1013A00081818C93E091FE02F091FF02809182088E
:1013B000909183088183E091FE02F091FF02809179
:1013C000F00282830E94273260E875E280E090E0BC
:1013D0000E946433409107035091080360917E0896
:1013E00070917F082BE838E08BEF92E00E9407189D
:1013F0008823D1F083E090E00E94E11F6091620AAF
:101400007091630A84E790E00E94223880918B08F3
:1014100090918C0820917E0830917F08821B930B5D
:101420009093790880937808809180080E944227E1
:1014300081E090E0A0E0B0E004C0880F991FAA1FEF
:10144000BB1F0A95D2F780959095A095B0952091F5
:101450000C0330910D0340910E0350910F0328238C
:1014600039234A235B2320930C0330930D034093CD
:101470000E0350930F038091BB0587FF1BC1809122
:101480004605823009F416C10E94F1150E942732E8
:1014900060E070E180E090E00E9464330E94DF32FF
:1014A000898389818E5F898329C00E94DF32998177
:1014B000981720F580917D08F81651F48091C608A0
:1014C0009091C70849969093C7088093C60813C0A7
:1014D000F81A2091C6083091C7084F2D552747FDAF
:1014E00050951F1414F0275E3F4F240F351F309383
:1014F000C7082093C6080E94D915DCC00E947F123D
:10150000882399F2809173020E94EA1C0E94DF32C4
:10151000898389818E5F898312C00E94DF3299811D
:10152000981768F48FE492E09F938F930E944F384E
:101530000E94DF32809373080F900F90BBC064E06D
:1015400081E00E946413182F882339F30E94D91573
:10155000113009F0AFC01092C7081092C608E09190
:10156000F702F091F80290819093C5088091BB0535
:1015700087FFA0C080914605823009F49BC097FF89
:1015800099C081819927982F882722813327822B20
:10159000932B90937B0880937A0880E090E00E94E0
:1015A000E11F6091620A7091630A81E690E00E94F7
:1015B000223800917A0810917B08809178089091E8
:1015C0007908081B190B82E389830E94DF32D82E29
:1015D00017FD3BC086E08D15C0F1D09273080E94C4
:1015E0004A3274E6E72E79E1F72EC80164E679E124
:1015F0000E947C3AC62EC394C0928508C80164E656
:1016000079E10E947C3AE81AF90AF0928A08E0929D
:1016100089080E94273282E390E00E9419321091DB
:101620007D02812F0E94651C0E942F328E159F051E
:10163000D8F3812F0E94EA1C8D2D8C0D0E9455320B
:1016400084E690E00E9419322DC0109501951F4F3D
:101650008FE1013418070CF427C086E08D1520F1C6
:101660000E944A320E942732000000000000000061
:1016700089818150898389818F3FB1F7B80180E0EA
:1016800090E00E9464338D2D0E94553284E6898358
:101690000000000000000000898181508983898159
:1016A0008F3FB1F70E9458320E94273282E390E0C8
:1016B0000E94193221960FB6F894DEBF0FBECDBF3F
:1016C000DF91CF911F910F91FF90EF90DF90CF901E
:1016D0000895809172080E943626809180080E94A9
:1016E000362621E030E040E050E0CA01B901009028
:1016F000800804C0660F771F881F991F0A94D2F7CD
:101700000090720804C0220F331F441F551F0A9413
:10171000D2F7622B732B842B952B0E94942881E0A7
:1017200090E00895809305030E94F81A0895CF92DF
:10173000DF92EF92FF920F931F931092DC060E94AC
:101740007A2B8091DC068823D1F381E08093DC063C
:10175000C09072028C2D0E94EA1C00E010E00E94F2
:1017600027320E942F3290937F0880937E088091C9
:101770008208909183089093C3078093C2078536AF
:10178000910530F0855690409093C3078093C2072F
:10179000809182089091830890938E0880938D08A1
:1017A00080918208909183088536910598F0809108
:1017B0008208909183088456904090938308809388
:1017C0008208809176089091770801969093770827
:1017D00080937608209182083091830880918F0849
:1017E000813009F08AC0C90169E170E00E94683A5D
:1017F000D82EE0918108E00FE0938108FF27EF7079
:10180000F070EC54F74F80818093B3080E94920BE4
:1018100085E18D15E0F4809146058230C1F4809118
:10182000880863E00E945C3AE92F90938808FF27BC
:10183000E155F74F80818093B3080E94920B87E1B6
:101840008D1528F4809188088F5F8093880811E0B7
:10185000E12EF12C012D112D0D2C04C0EE0CFF1CDE
:10186000001F111F0A94D2F78C2D0E94651C8091D5
:10187000BC069091BD06A091BE06B091BF06209116
:101880000C0330910D0340910E0350910F038223FE
:101890009323A423B5238E219F21A023B123009756
:1018A000A105B10531F08D2D0E94A609D0927D08C9
:1018B00020C080912E0590912F05A0913005B09108
:1018C0003105E822F9220A231B23E114F104010562
:1018D000110579F08091BE079091BF07A091C007D4
:1018E000B091C1070097A105B10519F48D2D0E9493
:1018F000D1088C2D0E94EA1C0EC00E94F80680932D
:10190000BB0580914605823019F00E94EF0701C0A7
:1019100081E080938F082091C6083091C70880919C
:101920007002909171022817390788F1809146055D
:10193000823069F110928F081092C7081092C60881
:1019400084E690E090938308809382088091E1037D
:101950009091E20301969093E2038093E1038091DA
:10196000F002882349F0E091E303E0938108FF2728
:10197000EC54F74F808104C0109281088091B40824
:101980008093B3088091B3080E94920BE6CE8091B9
:101990008208909183080E94590F8C0180918208DF
:1019A00090918308800F911F909383088093820801
:1019B00080E090E00E94FE1F109279081092780853
:1019C000C8010E94472B80E090E00E941B20C7CEF8
:1019D000FF920F931F93082FF62E142F0E94AD2510
:1019E000809372088F3F19F480E092E008C00E9453
:1019F000AD25809380088F3F79F489ED91E00E94B6
:101A0000C920E091310AF091320A60858EE00E948F
:101A1000A6248FEF90E087C01092F8021092F70290
:101A20001092F6020E9423321092770810927608E4
:101A300084E690E0909383088093820810928F0848
:101A4000109229051092C7081092C6080093460507
:101A5000F092F0021093E3031092BE071092BF07BA
:101A60001092C0071092C10710920C0310920D0340
:101A700010920E0310920F0384E680930B0380E410
:101A80009FE190930A038093090380EA9FE090937B
:101A90000803809307038FE08093050381E899E1B1
:101AA0009093040380930303E3ECF6E0119286E045
:101AB000EC3DF807D9F710922E0510922F051092E1
:101AC0003005109231051092BC061092BD0610929E
:101AD000BE061092BF0621E839E141E254E26FE010
:101AE00082EF92E00E940B1B81E080937C081092B1
:101AF0008808FF2041F010938108E12FFF27EC5464
:101B0000F74F808104C0109281088091B4088093BF
:101B1000B3088091B3080E94920B1092E2031092D6
:101B2000E10381E090E01F910F91FF900895809173
:101B300072080E9436268091BE07882379F461E0FE
:101B400070E080E090E00090720804C0660F771F9C
:101B5000881F991F0A94D2F70E94942881E090E090
:101B60000895FC01DB018091BE07882329F41082CF
:101B70001C9280E090E008958091F502808380912E
:101B8000FA028C938091F7029091F8020895CF9217
:101B9000DF92EF92FF920F931F93CF93DF93EE2488
:101BA000FF2402EFC02E02E0D02E60910503C60193
:101BB0000E94CE1A0E94F11510928F0800E012C008
:101BC0000E94DF32081771F00E94DF32082F08945C
:101BD000E11CF11C81E1E81687E2F80618F0EE241A
:101BE000FF2405C00E947F12182F882349F30E940A
:101BF000DF32C82FDD272496112371F006C00E9422
:101C0000DF329927C817D90738F060E880E00E94D2
:101C10006413182F882399F30E94D915113029F6DF
:101C2000E091F702F091F80284858A3009F0BDCF87
:101C300081E090E0A0E0B0E08093BE079093BF0702
:101C4000A093C007B093C10786850E949A06E091D1
:101C5000F702F091F802E785E0938108FF27EC5442
:101C6000F74F80818093B3080E94920B0091F70296
:101C70001091F802E80165E577E0888D882371F11D
:101C800021E030E040E050E004C0220F331F441F49
:101C9000551F8A95D2F78091BC069091BD06A09100
:101CA000BE06B091BF06822B932BA42BB52B80933D
:101CB000BC069093BD06A093BE06B093BF06E88D08
:101CC000FF27ED53F94F81E08083888DFB018193DD
:101CD000BF012196F7E069357F0779F6E80160E0FA
:101CE0008C8D882349F121E030E040E050E004C0D1
:101CF000220F331F441F551F8A95D2F780912E055E
:101D000090912F05A0913005B0913105822B932B36
:101D1000A42BB52B80932E0590932F05A09330050F
:101D2000B0933105EC8DFF27ED53F94F81E08083AF
:101D30006F5F21966430A1F681E090E0A0E0B0E012
:101D40000090720804C0880F991FAA1FBB1F0A9435
:101D5000D2F70E94422781E0809329051092BE07A6
:101D60001092BF071092C0071092C10781E090E067
:101D7000DF91CF911F910F91FF90EF90DF90CF9067
:101D80000895282F6093E303823041F58091BC06CB
:101D90009091BD06A091BE06B091BF06846080936D
:101DA000BC069093BD06A093BE06B093BF0680917B
:101DB0002E0590912F05A0913005B09131058860D6
:101DC00080932E0590932F05A0933005B093310595
:101DD00081E08093C5068093C60652C0813039F5F4
:101DE00080912E0590912F05A0913005B09131057D
:101DF000846080932E0590932F05A0933005B093B7
:101E000031058091BC069091BD06A091BE06B091AF
:101E1000BF0688608093BC069093BD06A093BE0663
:101E2000B093BF062093C5062093C60629C0882319
:101E300039F58091BC069091BD06A091BE06B09187
:101E4000BF0682608093BC069093BD06A093BE0639
:101E5000B093BF0680912E0590912F05A09130057B
:101E6000B0913105806180932E0590932F05A0934A
:101E70003005B093310581E08093C4068093C70696
:101E800081E090E008958A3118F08FEF9FEF089578
:101E9000E82FFF27ED53F94F8081992787FD909513
:101EA0000895E3ECF6E0119286E0EC3DF807D9F7EF
:101EB000089569E170E00E94683A682F482F0CC0CD
:101EC000242F3327F901ED53F94F8081882321F026
:101ED000C901861B910908954F5F493188F320E0BD
:101EE00030E0422F5527FA01ED53F94F80818823C6
:101EF00039F089E190E0861B9109840F951F0895C0
:101F00002F5F3F4F621768F70895EAE7F0E083E03C
:101F10008083ACE7B0E080E48C938081806880832C
:101F20001092C9088C91807E8C939C918C91807EBC
:101F3000892B8C93089588EC90E00E9419320895C3
:101F400080917A00806480937A0080917A0084FF87
:101F5000FCCF0E949B0F209178003327809179005D
:101F60009927982F8827822B932B0895FF920F9300
:101F70001F93CF93DF93CDB7DEB722970FB6F894B8
:101F8000DEBF0FBECDBF0E94F6118C01009711F08D
:101F90000E944028159AFF248F2D806299279A83EA
:101FA000898340988BE18EBD0DB407FEFDCF8981FA
:101FB0009A81892F99278EBD0DB407FEFDCF8981A7
:101FC0009A818EBD0DB407FEFDCF409A82E090E06D
:101FD0000E94193240988BE58EBD0DB407FEFDCFEF
:101FE0001EBC0DB407FEFDCF8EB59927982F88270C
:101FF0009A8389831EBC0DB407FEFDCF89819A8127
:102000002EB53327282B392B3A832983409A89818F
:102010009A8186FD05C0F3942FE1F21609F0BCCF3A
:102020000115110519F0C8010E94EE26FF20C9F420
:102030000E94A00F9A83898389819A818F3A9105A2
:1020400030F089819A818E5A90409A838983898160
:102050009A818A54914098F48AE491E09A83898322
:102060000EC02DE7F29E9001112488E293E2821BBC
:10207000930B6BE170E00E947C3A7A8369838981DB
:102080009A8122960FB6F894DEBF0FBECDBFDF91C6
:10209000CF911F910F91FF900895CF92DF92EF9211
:1020A000FF920F931F93CF93DF93982FEA01122F84
:1020B000823009F481C0833030F4882371F081309C
:1020C00009F0D2C010C0843009F481C0843008F413
:1020D00077C0853009F0C8C02DC080E880BB8F9ADA
:1020E0000E94850F6AC08091C808813009F4C3C07E
:1020F0009093C808772760FF13C08F981092C90883
:1021000080917C00807E80937C0090917C00809107
:102110007C00807E892B80937C0088EE93E09FC0BA
:1021200061FDA9C062FDA7C067707070672B09F4DC
:10213000A2C097C0822F8150823008F099C0909140
:10214000C908892F8150863018F40E94A00F22C040
:10215000992319F40E94B60F1DC0973051F5F1E094
:10216000CF2EF4E0DF2EEE24FF2400E00E94A00F2B
:102170008C159D0508F46C01E816F90608F47C013D
:102180008DE790E00E9419320F5F003479F7C701A4
:102190008C199D09123031F48883892F99278983FE
:1021A00081E008C0113029F496958795969587951A
:1021B000888380E08F5F09C08F9A1092C80851C051
:1021C000613009F058C08091C908992756C0613024
:1021D00009F051C02730D9F42093C90880917C00C0
:1021E0008F7780937C0080917C00806480937C005A
:1021F00080917C00807E80937C0090917C00809117
:102200007C009360807E982B90937C0026C02830C1
:1022100020F081E00E94E1232EC02093C9082130E4
:1022200049F480917C008F7780937C0080917C00C2
:10223000806403C080917C00806C80937C008091DE
:102240007C00807E80937C0090917C0080917C005B
:10225000807E892B812B80937C0088EC90E00E940B
:10226000193281E090E009C060E08CE00E94A62471
:1022700080E090E002C08FEF90E0DF91CF911F915E
:102280000F91FF90EF90DF90CF90089599279C01D8
:10229000265A3E4B0B97880F991F880F991F280FBE
:1022A000391FF894409888E18EBD0DB407FEFDCF2C
:1022B000832F99278EBD0DB407FEFDCF2EBD0DB423
:1022C00007FEFDCF409A78940895F89440981EBC7C
:1022D0000DB407FEFDCF8EB5409A789486FFF5CFFA
:1022E00008958091DF0899270895CF93DF93DC014B
:1022F000409889EC8EBD0DB407FEFDCF80E88EBD01
:102300000DB407FEFDCF92E09150FD01E90FF11DE4
:1023100080818EBD0DB407FEFDCF9923A9F7409AA9
:1023200040988BEC8EBD0DB407FEFDCF80E88EBDCE
:102330000DB407FEFDCF92E09D012E5F3F4FE901F6
:102340009150F901E90FF11D80818EBD0DB407FE9A
:10235000FDCF9923A1F7409A8C918093E008FD016D
:1023600081818093E10888818093E2088381809352
:10237000E308DF91CF910895409889E18EBD0DB4B7
:1023800007FEFDCF83E08EBD0DB407FEFDCF86E0D6
:102390008EBD0DB407FEFDCF409A40988AE18EBDF8
:1023A0000DB407FEFDCF8EE08EBD0DB407FEFDCF50
:1023B0008EE08EBD0DB407FEFDCF409A81E0809384
:1023C000D0080895409889E18EBD0DB407FEFDCF79
:1023D00081E08EBD0DB407FEFDCF84EC8EBD0DB443
:1023E00007FEFDCF409A1092D00808958091CE0844
:1023F0009091CF0808952091D1083091D20838608B
:102400003093D2082093D108409881E18EBD0DB45D
:1024100007FEFDCF832F99278EBD0DB407FEFDCF9C
:102420002EBD0DB407FEFDCF409A08952091D1082E
:102430003091D208377F3093D2082093D10840984A
:1024400081E18EBD0DB407FEFDCF832F99278EBD90
:102450000DB407FEFDCF2EBD0DB407FEFDCF409A93
:10246000089581E08093DE082091D1083091D20850
:1024700020613093D2082093D108409881E18EBD2D
:102480000DB407FEFDCF832F99278EBD0DB407FE37
:10249000FDCF2EBD0DB407FEFDCF409A08951092DA
:1024A000DE082091D1083091D2082F7E3093D208D7
:1024B0002093D108409881E18EBD0DB407FEFDCF79
:1024C000832F99278EBD0DB407FEFDCF2EBD0DB411
:1024D00007FEFDCF409A089589B1992766E0969549
:1024E00087956A95E1F78170907008958CB199276E
:1024F00087FD90958827990F881F9927089589B19E
:102500009927E6E096958795EA95E1F781709070B6
:1025100008958091E408882319F480E090E00895FC
:102520008091E4081092E408992787FD909508951A
:10253000409888E08EBD0DB407FEFDCF409A4098CC
:1025400088E08EBD0DB407FEFDCF409A08958091BE
:10255000CE089091CF080E944028409886E08EBD1A
:102560000DB407FEFDCF409A8091CE089091CF0820
:102570000E94EE2608958091CE089091CF080E9487
:102580004028409884E08EBD0DB407FEFDCF409AF0
:102590008091CE089091CF080E94EE2608958091F8
:1025A000CE089091CF080E944028409886E08EBDCA
:1025B0000DB407FEFDCF409A409882E18EBD0DB468
:1025C00007FEFDCF85E08EBD0DB407FEFDCF1EBC1E
:1025D0000DB407FEFDCF409A40988EE28EBD0DB43B
:1025E00007FEFDCF1EBC0DB407FEFDCF1EBC0DB413
:1025F00007FEFDCF409A0E9498128091CE089091DC
:10260000CF080E94EE2608958091CE089091CF08C1
:102610000E944028409886E08EBD0DB407FEFDCF95
:10262000409A409882E18EBD0DB407FEFDCF85E053
:102630008EBD0DB407FEFDCF88E08EBD0DB407FE44
:10264000FDCF409A40988EE28EBD0DB407FEFDCFBF
:1026500088E18EBD0DB407FEFDCF1EBC0DB407FE94
:10266000FDCF409A0E9498128091CE089091CF0899
:102670000E94EE2608950F931F93082F8091CE0895
:102680009091CF080E944028112707FD1095302F08
:1026900022272068409883E18EBD0DB407FEFDCF50
:1026A000832F99278EBD0DB407FEFDCF2EBD0DB42F
:1026B00007FEFDCF409A8091CE089091CF080E94EE
:1026C000EE261F910F9108950F931F93CF93DF93E1
:1026D000CDB7DEB724970FB6F894DEBF0FBECDBFDF
:1026E000182F062F8091CE089091CF080E94402885
:1026F000679B4CC21092DF08679B25C0319923C0AD
:1027000040988FE78EBD0DB407FEFDCF1EBC0DB403
:1027100007FEFDCF8EB5409A409888E08EBD0DB47F
:1027200007FEFDCF409A409888E08EBD0DB407FEAD
:10273000FDCF409A8091CE089091CF080E94EE265E
:102740008FEF9FEF2BC240988FE78EBD0DB407FE31
:10275000FDCF1EBC0DB407FEFDCF4EB5409A4F779E
:1027600019F540988FE78EBD0DB407FEFDCF1EBC56
:102770000DB407FEFDCF8EB5409A409888E08EBD1F
:102780000DB407FEFDCF409A409888E08EBD0DB491
:1027900007FEFDCF409A8091CE089091CF080E940D
:1027A000EE268EEF9FEFFAC145308CF0E091D30812
:1027B000F091D408242F332727FD30952B5030403B
:1027C0008481992787FD909582179307F4F54098A7
:1027D0008FE78EBD0DB407FEFDCF60E070E0242FC3
:1027E000332727FD309506C01EBC0DB407FEFDCF74
:1027F0006F5F7F4F862F99278217930714F43199C3
:10280000F3CF409A40988FE78EBD0DB407FEFDCF01
:102810001EBC0DB407FEFDCF8EB5409A409888E0EF
:102820008EBD0DB407FEFDCF409A409888E08EBD66
:102830000DB407FEFDCF409A8091CE089091CF084D
:102840000E94EE268DEF9FEFA9C1E091D308F09191
:10285000D4084C5043831123B1F0E091D308F09198
:10286000D4088381992787FD9095202F33278217DD
:10287000930749F08091CE089091CF080E94EE26F0
:102880008AEF9FEF8BC140988FE78EBD0DB407FE96
:10289000FDCFFE0131969E012D5F3F4F1EBC0DB452
:1028A00007FEFDCF8EB58193E217F307B9F7409A83
:1028B000E091D308F091D40889819A81B5E096958A
:1028C0008795BA95E1F78170878340988FE78EBD31
:1028D0000DB407FEFDCF1EBC0DB407FEFDCFE09189
:1028E000D308F091D4088EB58083409A40988FE742
:1028F0008EBD0DB407FEFDCF80E007C01EBC0DB439
:1029000007FEFDCF8F5F843011F03199F7CF409AE9
:1029100040988FE78EBD0DB407FEFDCF20E030E07C
:102920001EBC0DB407FEFDCFE091D308F091D40892
:10293000E20FF31F8EB581832F5F3F4F22303105A9
:1029400079F7409A89819A8183FF56C040988FE732
:102950008EBD0DB407FEFDCFEAECF8E01EBC0DB451
:1029600007FEFDCF8EB5819388E0EE3CF807B1F706
:10297000409A409889E98EBD0DB407FEFDCF80E8EE
:102980008EBD0DB407FEFDCF92E09150E92FFF27D9
:10299000E653F74F80818EBD0DB407FEFDCF99231E
:1029A000A1F7409A40988BE98EBD0DB407FEFDCF8C
:1029B00080E88EBD0DB407FEFDCF92E09150E92F67
:1029C000FF27E453F74F80818EBD0DB407FEFDCF86
:1029D0009923A1F7409A40988CE08EBD0DB407FE74
:1029E000FDCF409A81E08093DF08E091D308F09119
:1029F000D40883818450838340988FE78EBD0DB4C3
:102A000007FEFDCF40E050E011C01EBC0DB407FE34
:102A1000FDCFE091D308F091D4080580F681E02D38
:102A2000E60FF11D8EB580834F5F5F4F642FE091FD
:102A3000D308F091D408242F33278381992787FD69
:102A40009095281739070CF3409A40988FE78EBD70
:102A50000DB407FC0AC0FCCF0DB407FEFDCF5EB578
:102A6000409A40988FE78EBD02C01EBCF5CF0DB4D2
:102A700007FEFDCFFE0133969E012B5F3F4F1EBC2C
:102A80000DB407FEFDCF8EB58193E217F307B9F7BA
:102A9000409AE091D308F091D4088B81808740E080
:102AA00020E030E00AC0E091D308F091D40885819D
:102AB0009681A80FB91F8C91480F822FE091D308FF
:102AC000F091D4082F5F3F4FA82FBB278381992710
:102AD00087FD9095A817B90734F3451719F1409869
:102AE0008FE78EBD0DB407FEFDCF1EBC0DB407FEF3
:102AF000FDCF8EB5409A409888E08EBD0DB407FE9C
:102B0000FDCF409A409888E08EBD0DB407FEFDCF02
:102B1000409A8091CE089091CF080E94EE268CEFCB
:102B20009FEF3CC08C8187FF0EC08091E4088F5FCF
:102B30008093E4088091CE089091CF080E94EE2601
:102B400081E090E02BC040988FE78EBD0DB407FE6A
:102B5000FDCF1EBC0DB407FEFDCF8EB5409A409848
:102B600088E08EBD0DB407FEFDCF409A409888E006
:102B70008EBD0DB407FEFDCF409A8091CE08909196
:102B8000CF080E94EE268BEF9FEF08C08091CE0801
:102B90009091CF080E94EE2680E090E024960FB638
:102BA000F894DEBF0FBECDBFDF91CF911F910F9183
:102BB00008958091CE089091CF080E9440281092ED
:102BC000DB08409886E08EBD0DB407FEFDCF409A2D
:102BD0001092E4088091CE089091CF080E94EE26D2
:102BE00008958091CE089091CF080E94402881E0FE
:102BF0008093DB08409883E08EBD0DB407FEFDCFC7
:102C0000409A409888E08EBD0DB407FEFDCF409AF3
:102C10001092E4088091CE089091CF080E94EE2691
:102C200008958091CE089091CF080E94402881E0BD
:102C30008093DB08409883E08EBD0DB407FEFDCF86
:102C4000409A409888E08EBD0DB407FEFDCF409AB3
:102C50001092E4088091CE089091CF080E94EE2651
:102C600008951F93182F8091CE089091CF080E944D
:102C70004028212F33272F713070206E306A409802
:102C800085E18EBD0DB407FEFDCF832F99278EBD44
:102C90000DB407FEFDCF2EBD0DB407FEFDCF409A4B
:102CA0008091CE089091CF080E94EE261F91089542
:102CB000EF92FF920F931F93CF93DF93CDB7DEB7C1
:102CC00022970FB6F894DEBF0FBECDBF8C01809166
:102CD000CE089091CF080E9440285091D0085523EB
:102CE00039F040988DE08EBD0DB407FEFDCF409ABF
:102CF000F8014281642F772767FD7095A0E020E0FE
:102D000030E008C0F80183819481E80EF91EF701D4
:102D10008081A80F822F2F5F3F4FE82EFF24E616F9
:102D2000F70684F3942F945F51119C5F6799FECF4F
:102D30004E99FCCFF894409889E08EBD0DB407FE03
:102D4000FDCF409A409889E08EBD0DB407FEFDCFBF
:102D5000409A40988EE38EBD0DB407FC05C0FCCFB1
:102D60000DB407FC30C1FCCF9EBDFACF81E698E8D8
:102D70009A838983552329F089819A8188609A836F
:102D8000898340988EE38EBD0DB407FEFDCFFE0112
:102D900031969E012D5F3F4F80818EBD0DB407FEA1
:102DA000FDCF3196E217F307B9F7409A40988EE3CA
:102DB0008EBD0DB407FC05C0FCCF0DB407FC0EC1E1
:102DC000FCCF8091D5088EBDF8CF0DB407FEFDCFA6
:102DD00020E030E0F901E952F74F80818EBD0DB45B
:102DE00007FEFDCF2F5F3F4F2230310599F7409A04
:102DF00040988EE38EBD0DB407FEFDCF20E030E09D
:102E0000F801E20FF31F80818EBD0DB407FEFDCFE8
:102E10002F5F3F4F2230310599F7409A40988EE35B
:102E20008EBD0DB407FEFDCF20E030E0F901E75282
:102E3000F74F80818EBD0DB407FEFDCF2F5F3F4F52
:102E40002230310599F7409A552399F040988EE346
:102E50008EBD0DB407FEFDCFE0EEF8E080818EBDA3
:102E60000DB407FEFDCF319688E0E43EF807B1F7D8
:102E7000409A40988EE38EBD0DB407FEFDCF20E052
:102E800030E00DC0F80183819481480F591FFA0189
:102E900080818EBD0DB407FEFDCF2F5F3F4F422FC7
:102EA00055274617570774F3409A40988EE38EBD16
:102EB0000DB407FC05C0FCCF0DB407FC94C0FCCFDB
:102EC000AEBDFACF8091DB08882339F4409883E0C7
:102ED0008EBD0DB407FEFDCF409A40981EBC0DB4C8
:102EE00007FEFDCF8EB5409A81FFF7CF00E04098F6
:102EF00085E08EBD0DB407FEFDCF409A40981EBC04
:102F00000DB407FEFDCF1EB5409A0F5F053651F494
:102F100078948091CE089091CF080E94EE2680E0B0
:102F200090E068C084E690E00E942A2113FD08C06A
:102F3000DECF409884E08EBD0DB407FEFDCF409AF1
:102F400078944E9BFECF4E99FECF8091DE08882369
:102F500091F084EA92E00E942A21319B0EC04098B1
:102F60008FE78EBD0DB407FEFDCF1EBC0DB407FE6E
:102F7000FDCF8EB5409A11E00FC0409888E08EBD1D
:102F80000DB407FEFDCF409A409888E08EBD0DB489
:102F900007FEFDCF409A10E0F894409886E08EBD81
:102FA0000DB407FEFDCF409A78948091D5088F5FCD
:102FB0008093D5088091CE089091CF080E94EE268C
:102FC000812F992717C0409A81E498E89A838983D2
:102FD0008091DE08882309F0C9CECCCE409A409873
:102FE0008EE38EBDF2CE409AF8018581882309F0E8
:102FF00069CF9FCF22960FB6F894DEBF0FBECDBF2C
:10300000DF91CF911F910F91FF90EF9008958F92D4
:103010009F92BF92CF92DF92EF92FF920F931F93F6
:10302000CF93DF93CDB7DEB722970FB6F894DEBF0C
:103030000FBECDBF8C016B017A0149018091CE0892
:103040009091CF080E9440280E94DF32409888E08B
:103050008EBD0DB407FEFDCF409A409888E08EBD2E
:103060000DB407FEFDCF409A6799FECF4E99FCCF75
:10307000F894409889E08EBD0DB407FEFDCF409ACC
:10308000409889E08EBD0DB407FEFDCF409AF8014F
:103090006281462F552747FD5095BB2420E030E044
:1030A00007C0F80183819481A80FB91F8C91B80ED5
:1030B000822F2F5F3F4FA82FBB27A417B5078CF394
:1030C000962F945F40988EE38EBD0DB407FC05C02B
:1030D000FCCF0DB407FC18C1FCCF9EBDFACF81E632
:1030E00098E89A83898340988EE38EBD0DB407FEDD
:1030F000FDCFFE0131969E012D5F3F4F80818EBD39
:103100000DB407FEFDCF3196E217F307B9F7409AE9
:1031100040988EE38EBD0DB407FC05C0FCCF0DB406
:1031200007FCFBC0FCCF8091D5088EBDF8CF0DB455
:1031300007FEFDCF20E030E0F901E952F74F808132
:103140008EBD0DB407FEFDCF2F5F3F4F22303105FE
:1031500099F7409A40988EE38EBD0DB407FEFDCFDF
:1031600020E030E0F801E20FF31F80818EBD0DB446
:1031700007FEFDCF2F5F3F4F2230310599F7409A70
:1031800040988EE38EBD0DB407FEFDCF20E030E009
:10319000F901E752F74F80818EBD0DB407FEFDCFD8
:1031A0002F5F3F4F2230310599F7409AB701C60192
:1031B0000E946433F8018581882379F18091DB08CE
:1031C000882339F4409883E08EBD0DB407FEFDCF0F
:1031D000409AEE24409885E08EBD0DB407FEFDCFE9
:1031E000409A40981EBC0DB407FEFDCFFEB4409A35
:1031F000E394F5E6EF1651F478948091CE0890911F
:10320000CF080E94EE2680E090E08EC084E690E039
:103210000E942A21F3FC08C0DDCF409884E08EBDD7
:103220000DB407FEFDCF409A809172020E94651C8A
:103230008091840090918500F4019183808340986F
:103240008EE38EBD0DB407FEFDCFF8018281482FBD
:10325000552747FD509520E030E00CC0F8018381F0
:103260009481A80FB91F8C918EBD0DB407FEFDCFC0
:103270002F5F3F4FA22FBB27A417B5077CF3409ABF
:1032800040988EE38EBD0DB407FC05C0FCCF0DB495
:1032900007FC48C0FCCFBEBCFACF4E9BFECFF894D3
:1032A0004E99FECF409888E08EBD0DB407FEFDCF4D
:1032B000409A409888E08EBD0DB407FEFDCF409A3D
:1032C000409889E08EBD0DB407FEFDCF409A40982E
:1032D00089E08EBD0DB407FEFDCF409A409886E090
:1032E0008EBD0DB407FEFDCF409A78948091D5082D
:1032F0008F5F8093D5088091CE089091CF080E946F
:10330000EE2681E090E010C0409AF8018681882383
:1033100009F0E5CE81E498E8E4CE409A40988EE347
:103320008EBD05CF409AB9CF22960FB6F894DEBF76
:103330000FBECDBFDF91CF911F910F91FF90EF9006
:10334000DF90CF90BF909F908F900895CF93DF93A1
:10335000CDB7DEB722970FB6F894DEBF0FBECDBF54
:103360009A8389839093DA088093D90884EF91E057
:103370000E94193240988AEE8EBD0DB407FEFDCF33
:1033800080E88EBD0DB407FEFDCFFE0131969E0193
:103390002D5F3F4F80818EBD0DB407FEFDCF31966E
:1033A000E217F307B9F7409A84EF91E00E941932CF
:1033B00022960FB6F894DEBF0FBECDBFDF91CF913E
:1033C00008956F927F928F929F92AF92BF92CF9209
:1033D000DF92EF92FF920F931F93CF93DF93CDB7BE
:1033E000DEB722970FB6F894DEBF0FBECDBF8C01BB
:1033F00084E690E00E9419327801C12CB1E0DB2E06
:103400003E010894611C711CA3E08A2E912C8C0E45
:103410009D1EF7018081218133279927982F8827C6
:10342000282B392B3A83298384E690E00E941932B5
:1034300040988C2D80688EBD0DB407FEFDCFC6016F
:1034400095958795807C8EBD0DB407FEFDCF8301D9
:103450005301F50180818EBD0DB407FEFDCF0894A8
:10346000A11CB11CA814B904A1F7409A0894E11C4E
:10347000F11C82E090E0C80ED91E90E1C91691E0DF
:10348000D90639F684E690E00E94193220E131E055
:1034900040E451E01A8219824098842F80688EBDE2
:1034A0000DB407FEFDCFCA0195958795807C8EBD32
:1034B0000DB407FEFDCFF80180818EBD0DB407FE6F
:1034C000FDCF3196EA15FB05B9F7409A4098822F57
:1034D00080688EBD0DB407FEFDCFC9019595879517
:1034E000807C8EBD0DB407FEFDCFF80180818EBDBE
:1034F0000DB407FEFDCF3196EA15FB05B9F7409AEA
:103500002E5F3F4F4E5F5F4FE1E02E313E0711F6D9
:1035100081E090E09A83898340988EEC8EBD0DB453
:1035200007FEFDCF80E88EBD0DB407FEFDCFF8018C
:1035300080818EBD0DB407FEFDCF3196EA15FB05E7
:10354000B9F7409A40988EE98EBD0DB407FEFDCFC5
:1035500080E88EBD0DB407FEFDCFF80180818EBDE1
:103560000DB407FEFDCF0F5F1F4F0A151B05A9F70E
:10357000409A22960FB6F894DEBF0FBECDBFDF9102
:10358000CF911F910F91FF90EF90DF90CF90BF9060
:10359000AF909F908F907F906F9008951F93CF93DF
:1035A000DF93EC01162F8091CE089091CF080E94F6
:1035B0004028409888E08EBD0DB407FEFDCF409AAC
:1035C000409888E08EBD0DB407FEFDCF409A812F54
:1035D0000E944611D093D408C093D3088091CE089E
:1035E0009091CF080E94EE26DF91CF911F91089510
:1035F0001F93182F8091CE089091CF080E944028E9
:10360000812F0E9446118091CE089091CF080E9490
:10361000EE261F910895DF92EF92FF920F931F9372
:10362000CF93DF93CDB7DEB722970FB6F894DEBF06
:103630000FBECDBF8C01D62E5A834983790164E138
:1036400081E00E946F269093CF088093CE08892B4B
:1036500031F40E94BA29682F8FE00E94A62480913D
:10366000CE089091CF080E9440288F3F21F484E536
:1036700092E00E94C920159A88EE93E00E942A21C8
:10368000169881E090E00E942A21169A84E690E044
:103690000E942A21F894409881E08EBD0DB407FE67
:1036A000FDCF409A82EE92E09093D2088093D108A9
:1036B000409881E18EBD0DB407FEFDCF82E08EBD46
:1036C0000DB407FEFDCF82EE8EBD0DB407FEFDCF1B
:1036D000409A409882E18EBD0DB407FEFDCF85E093
:1036E0008EBD0DB407FEFDCF1EBC0DB407FEFDCF91
:1036F000409A40988CE18EBD0DB407FEFDCF1EBCF4
:103700000DB407FEFDCF8FE78EBD0DB407FEFDCFD4
:10371000409A409889E18EBD0DB407FEFDCF81E04F
:103720008EBD0DB407FEFDCF84EC8EBD0DB407FE3B
:10373000FDCF409A409887E18EBD0DB407FEFDCFC6
:103740008AE18EBD0DB407FEFDCF86E58EBD0DB4BA
:1037500007FEFDCF409A84EF91E00E941932409815
:1037600088EE8EBD0DB407FEFDCF80E88EBD0DB492
:1037700007FEFDCFFE0131969E012D5F3F4F8081F8
:103780008EBD0DB407FEFDCF3196E217F307B9F7F2
:10379000409A84EF91E00E94193278948D2D0E9416
:1037A000461178941093D4080093D30889819A81A4
:1037B0009093D8088093D708F092DA08E092D9085D
:1037C0001092D5081092DB080E9465118091CE08F6
:1037D0009091CF080E94EE268F3F39F487E292E065
:1037E0000E94C92082E00E94E1231092DE0810921C
:1037F000D0081092DF0822960FB6F894DEBF0FBEF5
:10380000CDBFDF91CF911F910F91FF90EF90DF908F
:103810000895209167098091E508281781F0E22F2B
:10382000FF27EA51F74FE081822F8F5F809367096E
:10383000803811F4109267098E2F9927089580918E
:10384000C80087FFFCCF8091C8008F778093C800A5
:103850008091CE0099270895882351F48091C0006B
:10386000992787FD90958827990F881F9927089594
:10387000813019F080E090E0089520E030E09091F0
:1038800067098091E508981711F021E030E0C9013F
:10389000089585B7806185BF86E084B987E085B9E2
:1038A00081E087B988B98CE38DB98BE08AB98EE362
:1038B0008EB988E781B980E482B908950E94491CD5
:1038C00080E58CBD81E08DBD08958F3F09F47FC0F8
:1038D000482F55279A012770307022303105A9F101
:1038E0002330310544F42115310589F021303105AB
:1038F00009F06DC01CC02430310509F446C02430E5
:1039000031059CF12530310509F061C04EC022B16E
:10391000A3E056954795AA95E1F781E090E002C0B3
:10392000880F991F4A95E2F7282B22B94DC085B11F
:10393000F3E056954795FA95E1F702C0220F331F41
:103940004A95E2F7822B85B93FC028B1E3E056954E
:103950004795EA95E1F781E090E002C0880F991F52
:103960004A95E2F7282B28B92FC02BB173E0569562
:1039700047957A95E1F781E090E002C0880F991FA2
:103980004A95E2F7282B2BB91FC02EB163E056955C
:1039900047956A95E1F781E090E002C0880F991F92
:1039A0004A95E2F7282B2EB90FC021B333E0569584
:1039B00047953A95E1F781E090E002C0880F991FA2
:1039C0004A95E2F7282B21BB81E090E008958FEF24
:1039D0009FEF08958F3F09F486C0482F55279A011D
:1039E0002770307022303105C1F12330310544F4A5
:1039F0002115310589F02130310509F074C01DC051
:103A00002430310509F44BC024303105BCF1253098
:103A1000310509F068C054C022B173E0569547954E
:103A20007A95E1F781E090E002C0880F991F4A95EE
:103A3000E2F78095822382B953C095B163E0569531
:103A400047956A95E1F702C0220F331F4A95E2F7C6
:103A5000822F8095892385B943C028B133E05695DC
:103A600047953A95E1F781E090E002C0880F991FF1
:103A70004A95E2F78095822388B932C02BB193E052
:103A8000569547959A95E1F781E090E002C0880F3E
:103A9000991F4A95E2F7809582238BB921C02EB1F8
:103AA00083E0569547958A95E1F781E090E002C062
:103AB000880F991F4A95E2F7809582238EB910C02E
:103AC00021B3B3E056954795BA95E1F781E090E0D0
:103AD00002C0880F991F4A95E2F78095822381BB27
:103AE00081E090E008958FEF9FEF08958F3FA9F157
:103AF000282F3327C9018770907082309105A9F073
:103B0000833091052CF4009761F0019731F50BC0DB
:103B10008430910571F0843091054CF00597E9F4FB
:103B20000AC080B109C083B107C086B105C089B1A0
:103B300003C08CB101C08FB19927E3E0369527957A
:103B4000EA95E1F702C0959587952A95E2F79927BE
:103B500087FD90958170907008958FEF9FEF089585
:103B60008F3F09F403C1282F3327A90147705070F4
:103B70004230510509F45CC04330510544F441150D
:103B8000510591F04130510509F0F0C034C0443086
:103B9000510509F49BC0443051050CF470C0453008
:103BA000510509F0E3C0B9C080B1A90173E0569591
:103BB00047957A95E1F79927042E02C09595879548
:103BC0000A94E2F780FD0BC022B181E090E002C0D0
:103BD000880F991F4A95E2F7282B22B9C4C022B159
:103BE00081E090E002C0880F991F4A95E2F7809526
:103BF000822382B9B8C083B163E0369527956A9570
:103C0000E1F79927022E02C0959587950A94E2F76D
:103C100002C0440F551F2A95E2F780FD03C085B10D
:103C2000842B04C095B1842F8095892385B99BC0CE
:103C300086B1A90193E0569547959A95E1F79927A2
:103C4000042E02C0959587950A94E2F780FD0BC07B
:103C500028B181E090E002C0880F991F4A95E2F7F1
:103C6000282B28B980C028B181E090E002C0880FDD
:103C7000991F4A95E2F78095822388B974C089B16B
:103C8000A901B3E056954795BA95E1F79927042E17
:103C900002C0959587950A94E2F780FD0BC02BB181
:103CA00081E090E002C0880F991F4A95E2F7282B27
:103CB0002BB959C02BB181E090E002C0880F991F49
:103CC0004A95E2F7809582238BB94DC08CB1A9014A
:103CD000A3E056954795AA95E1F79927042E02C0CF
:103CE000959587950A94E2F780FD0BC02EB181E08F
:103CF00090E002C0880F991F4A95E2F7282B2EB951
:103D000032C02EB181E090E002C0880F991F4A9521
:103D1000E2F7809582238EB926C08FB1A901F3E026
:103D200056954795FA95E1F79927042E02C0959587
:103D300087950A94E2F780FD0BC021B381E090E003
:103D400002C0880F991F4A95E2F7282B21BB0BC0B0
:103D500021B381E090E002C0880F991F4A95E2F7F5
:103D60008095822381BB81E090E008958FEF9FEFE3
:103D700008958F3F09F412C1482F5527662309F093
:103D800090C0CA01877090708230910509F43EC0DE
:103D9000833091053CF4009789F08130910509F05A
:103DA000FDC021C08430910509F454C084309105D0
:103DB0000CF43EC0059709F0F1C05EC031B1B3E02C
:103DC00056954795BA95E1F781E090E002C0880FDB
:103DD000991F4A95E2F7282F2095232321B922B174
:103DE000822B82B9D8C024B1A3E056954795AA95F5
:103DF000E1F702C0880F991F4A95E2F7982F809546
:103E0000822384B985B1982B95B9C5C037B1F3E049
:103E100056954795FA95E1F781E090E002C0880F4A
:103E2000991F4A95E2F7282F2095232327B935C0FB
:103E30003AB1E3E056954795EA95E1F781E090E0E5
:103E400002C0880F991F4A95E2F7282F2095232357
:103E50002AB923C03DB173E0569547957A95E1F7AD
:103E600081E090E002C0880F991F4A95E2F7282F61
:103E7000209523232DB911C030B363E056954795A3
:103E80006A95E1F781E090E002C0880F991F4A959A
:103E9000E2F7282F2095232320BB25B1822B85B95B
:103EA0007AC09A012770307022303105A9F1233091
:103EB000310544F42115310589F02130310509F02F
:103EC0006DC01CC02430310509F446C024303105D2
:103ED0009CF12530310509F061C04EC021B133E0BD
:103EE000569547953A95E1F781E090E002C0880F3A
:103EF000991F4A95E2F7282B21B94DC084B193E070
:103F0000569547959A95E1F702C0220F331F4A95BF
:103F1000E2F7822B84B93FC027B1B3E056954795AD
:103F2000BA95E1F781E090E002C0880F991F4A95A9
:103F3000E2F7282B27B92FC02AB1A3E05695479561
:103F4000AA95E1F781E090E002C0880F991F4A9599
:103F5000E2F7282B2AB91FC02DB1F3E056954795FB
:103F6000FA95E1F781E090E002C0880F991F4A9529
:103F7000E2F7282B2DB90FC020B3E3E05695479503
:103F8000EA95E1F781E090E002C0880F991F4A9519
:103F9000E2F7282B20BB81E090E008958FEF9FEFA0
:103FA0000895882319F08FEF9FEF089580B1992726
:103FB00087FD9095809590958827990F881F992760
:103FC0000895009711F484E109C08130910511F43E
:103FD0008CE104C08230910531F484E20E94B01D6E
:103FE00081E090E00895039719F08FEF9FEF089517
:103FF0008CE20E94B01D81E090E00895009711F4DA
:1040000084E109C08130910511F48CE104C0823053
:10401000910531F484E20E94651C81E090E00895EE
:10402000039719F08FEF9FEF08958CE20E94651CB3
:1040300081E090E00895009711F484E109C0813097
:10404000910511F48CE104C08230910531F484E2D1
:104050000E94EA1C81E090E00895039719F08FEF29
:104060009FEF08958CE20E94EA1C81E090E00895A1
:10407000882319F085B78F7E02C085B7806185BF20
:1040800081E090E00895982F8091C00085FFFCCFDB
:104090008091C0008F7D8093C0009093C6000895EA
:1040A000982F8091C80085FFFCCF9093CE00089593
:1040B000292F33272093C5008093C40086E0809386
:1040C000C200E1ECF0E080818B7F8083A0ECB0E067
:1040D0008C9182608C938081886180830895292FE0
:1040E00033272093CD008093CC0086E08093CA00D4
:1040F000E9ECF0E080818B7F8083A8ECB0E08C91CC
:1041000082608C9380818861808308958091C00053
:1041100087FFFCCF8091C0008F778093C000809193
:10412000C600992708950E946F2069E07CE180E530
:1041300090E20E9491379093630A8093620A69E04B
:104140007CE180E590E20E9491379093610A809330
:10415000600A0E94AD25809366098F3F19F48EE0B6
:104160000E94AD24109267091092E5088091C90061
:1041700080688093C9000895809166098F3F19F483
:104180008EE00E94AD2480916609992787FD909565
:104190000895CF93DF93EC0107C06091620A70919C
:1041A000630A99270E942238FE0121968491882370
:1041B000A1F7DF91CF9108951F920F920FB60F9242
:1041C00011242F933F934F935F936F937F938F931C
:1041D0009F93AF93BF93EF93FF938091C9008F7725
:1041E0008093C9008091C80087FFFCCF8091C800F0
:1041F0008F778093C8009091CE008091E508E82FDA
:10420000FF27EA51F74F90838F5F8093E50880384E
:1042100011F41092E508809166090E94422780916E
:10422000C8008F778093C8008091C9008068809310
:10423000C900FF91EF91BF91AF919F918F917F91B5
:104240006F915F914F913F912F910F900FBE0F9003
:104250001F90189500000000000000000197D1F7A2
:104260000895FC01A7E0B0E00E94E83A802D808329
:1042700081E090E00895FC018081A7E0B0E0082E85
:104280000E94F03A81E090E00895DC010E94E83A53
:10429000802D99270895FC01A0E0B0E00E94E83A43
:1042A000402D4383A1E0B0E00E94E83A802D828354
:1042B000A2E0B0E00E94E83A302D3183A3E0B0E004
:1042C0000E94E83A902D9083A4E0B0E00E94E83A82
:1042D000202D830F840F890F281719F481E090E0B7
:1042E00008958FEF9FEF0895FC01A5E0B0E00E94D4
:1042F000E83A802D808381E090E00895FC01A6E0FB
:10430000B0E00E94E83A802D808381E090E008953B
:10431000AC0120E030E0D90118960E94E83A802DE7
:10432000FA01E20FF31F80832F5F3F4F20313105E9
:1043300091F781E090E00895DC01062E0E94F03AAA
:104340000895FC018081A6E0B0E0082E0E94F03ABA
:1043500081E090E00895AC0120E030E0D9011896AA
:10436000FA01E20FF31F8081082E0E94F03A2F5FBE
:104370003F4F2031310591F781E090E00895F894A6
:1043800008957894089585E690E008950E94082F96
:104390000895EF92FF920F931F93CF93DF93EC0159
:1043A0008B017A018985823021F08091200A8883EF
:1043B00001C018828091200A853020F060E087E0FB
:1043C0000E94A6248985823029F08091200A8F5F7F
:1043D0008093200A8091200A882319F481E0809339
:1043E000200A8881992787FD9095FC0145E0EE0F12
:1043F000FF1F4A95E1F7E80FF91FE659F64F1183C1
:1044000000838881992787FD9095FC0135E0EE0FA8
:10441000FF1F3A95E1F7E80FF91FE659F64F888537
:1044200082878881992787FD9095FC0125E0EE0F12
:10443000FF1F2A95E1F7E80FF91FE659F64F83E0D1
:1044400081872881822F992787FD9095FC0105E0BF
:10445000EE0FFF1F0A95E1F7E80FF91FE659F64F37
:1044600020878881992787FD9095FC0115E0EE0F44
:10447000FF1F1A95E1F7E80FF91FE659F64F15826D
:104480000881112707FD10952B853C854D855E859C
:104490006F85788989899A890E942D2DF801B5E068
:1044A000EE0FFF1FBA95E1F7E00FF11FE659F64F47
:1044B000948F838F0881112707FD10952B8D3C8DDC
:1044C0004D8D5E8D6F8D78A189A19AA10E942D2DB1
:1044D000F801A5E0EE0FFF1FAA95E1F7E00FF11F2D
:1044E000E659F64F968B858B8881992787FD9095A5
:1044F000FC0175E0EE0FFF1F7A95E1F7E80FF91F59
:10450000E659F64F85899689238D348D820F931F46
:10451000908F878B0881112707FD10952B893C8987
:104520004D895E896F89788D898D9A8D0E942D2D98
:10453000F80165E0EE0FFF1F6A95E1F7E00FF11F4C
:10454000E659F64F968F858F8881992787FD90953C
:10455000FC0155E0EE0FFF1F5A95E1F7E80FF91F38
:10456000E659F64F858D968D928F818F8881992798
:1045700087FD9095FC0145E0EE0FFF1F4A95E1F79E
:10458000E80FF91FE659F64F81E090E090A3878F7E
:104590008881992787FD9095FC0135E0EE0FFF1F7C
:1045A0003A95E1F7E80FF91FE659F64FF382E282F8
:1045B0008881992787FD9095FC0125E0EE0FFF1F6C
:1045C0002A95E1F7E80FF91FE659F64F81E0848755
:1045D00081E090E0DF91CF911F910F91FF90EF90DC
:1045E00008958F929F92AF92BF92CF92DF92EF92F7
:1045F000FF920F931F93CF93DF9362E7A62E69E09C
:10460000B62ECC24DD244501EC2CF501F080FFEF23
:10461000FF1691F0E40100E010E0E01639F0888127
:10462000F81621F46F2D85E00E94A6240F5F1F4F1E
:10463000A1960530110589F70894C11CD11C81E2AF
:1046400090E0A80EB91E95E0C916D104E9F60E94C3
:10465000CF28282F332727FD3095F90155E0EE0F9D
:10466000FF1F5A95E1F7E20FF31FE659F64F328527
:104670003093330A21E28202C00111248659964FF9
:104680009093320A8093310A9093230A8093220AEE
:104690003093240A0E9407360E94ED350E942B3683
:1046A000FFCF0F931F93CF93DF93CDB7DEB7A397C1
:1046B0000FB6F894DEBF0FBECDBF0E94AD2580932C
:1046C000210A8F3F21F460E08EE00E94A6240E9420
:1046D0005E35882321F460E086E00E94A6241092D3
:1046E000240A1092320A1092310A1092230A109270
:1046F000220A1092330A1092300AE1E1FAE08FEFB9
:1047000080838283818333962AE0E032F207B9F70F
:10471000EAE6F9E083E682878FEF8087B1968AE048
:10472000EF30F807B9F7E4E3FAE0CF010596948398
:104730008383F783E683FC012AE08D349207A9F78F
:104740001092360A1092350A1092510A1092500AAD
:104750001092270A1092260A49979093690980932C
:1047600068096EEE7EE28E010F5F1F4FC8010E9446
:10477000AB3540E850E064EC77E0C8010E940C36AD
:1047800085E58093C40719861C8E1D8E1E8E1F8E94
:1047900018A219A21AA21BA291E0988782E08A8728
:1047A0009B87C8010E94B82BA3960FB6F894DEBF72
:1047B0000FBECDBFDF91CF911F910F910895F89457
:1047C000FFCFE091310AF091320A84870895E09199
:1047D000310AF091320A848599270895DC01FB01A2
:1047E0008091BD07882319F480E090E008958083CC
:1047F000809102038C9381E090E008951F93809153
:10480000BD07882309F49EC00E94BF210E94BF21DA
:104810008CE394E00E94C9208091020399279F9322
:104820008F9383E992E09F938F930E944F3888E3A0
:1048300094E00E94C9200F900F900F900F908091EC
:10484000BD07843110F01092BD078091BD079927F4
:10485000AA27BB27FC013197E231F105F0F5EA59AF
:10486000FF4FEE0FFF1F0590F491E02D099481E1B9
:1048700094E035C08DEF93E032C087EE93E02FC017
:104880008CEC93E02CC086EB93E029C08EE993E09A
:1048900026C08BE893E023C088E793E020C08AE538
:1048A00093E01DC085E393E01AC089E293E017C04E
:1048B0008EE093E014C08FEF92E011C08EEE92E094
:1048C0000EC08AED92E00BC08AEB92E008C082EA4B
:1048D00092E005C087E892E002C080E892E00E9482
:1048E000C9206091620A7091630A8DE090E00E9495
:1048F00022386091620A7091630A8AE090E00E9417
:10490000223882E090E00E941B2083E090E00E9429
:10491000FE1F10E088EE93E00E9419321F5F1436EC
:10492000C9F783E090E00E941B2082E090E00E94A3
:10493000FE1F10E088EE93E00E9419321F5F1436CC
:10494000C9F7DFCF80E090E01F9108958093BD0705
:10495000609302030E94FE2308958093BD07E091B7
:10496000310AF091320A8085809302030E94FE236F
:104970000895992787FD9095FC0125E0EE0FFF1F14
:104980002A95E1F7E80FF91FE659F64FA281B381A6
:104990008C91853529F085E58C938FEF9FEF0895F5
:1049A000808191818050924218F481E090E00895D6
:1049B00082E10E94AD248FEF9FEF08956F927F9266
:1049C0008F929F92AF92BF92CF92DF92EF92FF921F
:1049D0000F931F93CF93DF9388E494E00E94C92044
:1049E000E091310AF091320A8085992787FD9095F0
:1049F0009F938F9386E992E09F938F930E944F3805
:104A0000E091310AF091320A028113811F930F93D2
:104A10008FE992E09F938F930E944F38F801808135
:104A200099279F938F935CEAC52E52E0D52EDF9293
:104A3000CF920E944F38E091310AF091320A808182
:104A400091819F938F9349EBE42E42E0F42EFF92E5
:104A5000EF920E944F388091310A9091320A9F93D1
:104A60008F9303EC12E01F930F930E944F38CAE616
:104A7000D9E0AA24BB248DB79EB744960FB6F8940C
:104A80009EBF0FBE8DBF33ED632E32E0732E460105
:104A9000670178010A811B811F930F93BF92AF9228
:104AA0007F926F920E944F38F801808199279F93DF
:104AB0008F939F928F920E944F38888199819F9304
:104AC0008F93DF92CF920E944F38DF93CF93FF9264
:104AD000EF920E944F380894A11CB11CA1968DB78B
:104AE0009EB742960FB6F8949EBF0FBE8DBF95E05D
:104AF000A916B10479F6DF91CF911F910F91FF9024
:104B0000EF90DF90CF90BF90AF909F908F907F906D
:104B10006F900895CF93DF93E091310AF091320ABC
:104B2000C281D3818881853539F00E94DE2481E0FD
:104B30000E94AD2485E58883E091310AF091320A24
:104B4000808191818050924228F00E94DE2482E18F
:104B50000E94AD24DF91CF91089540912A05509194
:104B60002B0560912C0570912D0520E030E0DB01D4
:104B7000CA01022E04C0B695A795979587950A9409
:104B8000D2F781709070892BE9F481E090E0A0E089
:104B9000B0E0022E04C0880F991FAA1FBB1F0A9401
:104BA000D2F7842B952BA62BB72B80932A059093B5
:104BB0002B05A0932C05B0932D05822F992787FDF7
:104BC000909508952F5F3F4F2032310581F68FEF8A
:104BD0009FEF0895E091310AF091320A658576855C
:104BE000878590890895EF92FF920F931F9321E09C
:104BF00030E040E050E004C0220F331F441F551F37
:104C00008A95D2F7E091310AF091320AE584F68470
:104C100007851089DA01C9018E219F21A023B123C4
:104C20000097A105B10519F48FEF9FEF1AC02095E9
:104C3000309540955095E222F32204231523E58612
:104C4000F6860787108B81899289A389B48982238C
:104C50009323A423B523818B928BA38BB48B81E008
:104C600090E01F910F91FF90EF900895682F7727A4
:104C700067FD709580912A0590912B05A0912C05D8
:104C8000B0912D05062E04C0B695A79597958795EA
:104C90000A94D2F781709070892B19F48FEF9FEFEF
:104CA0000895E091310AF091320A21E030E040E0CD
:104CB00050E004C0220F331F441F551F6A95D2F7DE
:104CC00085859685A785B089822B932BA42BB52B40
:104CD00085879687A787B08B81E090E00895482F5D
:104CE0002091300A243018F080E090E00895E1E14E
:104CF000FAE030E080818F3F21F03F5F339635301E
:104D0000C9F7832F9927FC01EE0FFF1FE80FF91F4A
:104D1000EF5EF54F4283408361832F5F2093300A1B
:104D200083E0389FC00111248F5E954F089541E1C3
:104D30005AE020E030E04817590729F4822F9927DC
:104D400087FD909508952F5F3F4F4D5F5F4F253052
:104D5000310589F78FEF9FEF08950E9497268F3FC7
:104D600011F481E003C0853031F482E00E94E12338
:104D70008FEF9FEF0895992787FD9095FC01EE0F27
:104D8000FF1FE80FF91FEF5EF54F8FEF80838283DF
:104D900081838091300A81508093300A81E090E0D5
:104DA00008950E9497268F3F11F481E003C085305B
:104DB00031F482E00E94E1238FEF9FEF089599275D
:104DC00087FD9095FC01EE0FFF1FE80FF91FEF5EC6
:104DD000F54F8281992787FD909508951F93CF9372
:104DE000DF930E949726182F8F3F11F481E003C0B4
:104DF000853031F482E00E94E1238FEF9FEF3EC0C7
:104E0000992787FD9095EC01CC0FDD1FC80FD91FA6
:104E1000CF5ED54F9A818881981774F50E94BF2183
:104E20008A818F5F8A83E091310AF091320A14827D
:104E3000E1E7F9E0212F332727FD3095432F532F4A
:104E40008081823091F482859385A485B58582170F
:104E50009307A407B50749F483E082831786168673
:104E600010821286138614861586B1968AE0E63182
:104E7000F80731F70E94C12181E090E0DF91CF91E6
:104E80001F910895DF92EF92FF920F931F93F1E02D
:104E9000EF2EF12C012D112D04C0EE0CFF1C001F74
:104EA000111F8A95D2F780912A0590912B05A09128
:104EB0002C05B0912D058E219F21A023B1230097B1
:104EC000A105B10511F481E043C00E94BF21E1E7D3
:104ED000F9E0DD2480818130B9F482859385A48551
:104EE000B5858E219F21A023B1230097A105B1058F
:104EF00059F083E08283178616861082E286F38655
:104F000004871587DD24D39480818230A1F48285C3
:104F10009385A485B5858E159F05A007B10759F423
:104F200083E0828317861686108212861386148683
:104F30001586DD24D394B1968AE0E631F80751F660
:104F40000E94C121DD2019F081E090E005C082E0DF
:104F50000E94E1238FEF9FEF1F910F91FF90EF9041
:104F6000DF900895EF92FF920F931F93CF93DF93FB
:104F7000C82FDD27C7FDD095A1E0EA2EF12C012D29
:104F8000112D0C2E04C0EE0CFF1C001F111F0A94E3
:104F9000D2F780912A0590912B05A0912C05B09114
:104FA0002D058E219F21A023B1230097A105B105D6
:104FB00019F48FEF9FEF5DC00E94BF21EAE6F9E090
:104FC000A8019701209530954095509580858F3F99
:104FD00041F185859685A785B0898E159F05A00727
:104FE000B10739F4118A128A138A148A178283E06E
:104FF000818785859685A785B08982239323A423FD
:10500000B52385879687A787B08B81899289A389E5
:10501000B48982239323A423B523818B928BA38B02
:10502000B48BB1968AE0EF30F80781F62EEF3FEFB0
:105030004FEF5FEF04C0220F331F441F551FCA9567
:10504000D2F780912A0590912B05A0912C05B09163
:105050002D0582239323A423B52380932A059093BF
:105060002B05A0932C05B0932D050E94C12181E052
:1050700090E0DF91CF911F910F91FF90EF900895F5
:105080001F93CF93DF930E949726182F8F3F11F421
:1050900081E003C0853031F482E00E94E1238FEF8C
:1050A0009FEF3EC00E94BF21812F992787FD9095D9
:1050B000EC01CC0FDD1FC80FD91FCF5ED54F8A8101
:1050C0008823D9F4E091310AF091320A8781826015
:1050D0008783E091310AF091320A812F992787FD69
:1050E0009095A92FB92F818B928BA38BB48B0E94A3
:1050F000C12180E090E00E94E52A8A8181508A8364
:10510000E091310AF091320A89818387E091310A76
:10511000F091320A81E084830E94C12181E090E015
:10512000DF91CF911F9108959B01AC01E091310A6D
:10513000F091320A85859685A785B08982239323CD
:10514000A423B5230097A105B10529F460E070E020
:1051500080E090E00895218B328B438B548B81E06B
:1051600087830090210A04C0569547953795279567
:105170000A94D2F7C90181709070892B19F00E94AE
:10518000802A04C080E090E00E94E52AE091310A84
:10519000F091320A61897289838994890895E09136
:1051A000260AF091270A808199270895E091260A1E
:1051B000F091270A03C00380F481E02D3097D9F7DE
:1051C0000895CF93DF93482FC0916809D091690962
:1051D000209709F47AC0A091260AB091270A109767
:1051E000B9F1992787FD90959C0165E0220F331F47
:1051F0006A95E1F7280F391F2659364F8C91992768
:10520000BC0155E0660F771F5A95E1F7680F791FCB
:105210006659764FFB018481882329F09385F90133
:1052200082859817A8F0F9018481882331F0FB0169
:105230009285F9018385981758F0FB019285F90151
:105240008285981728F0FD01A381B4811097B1F6EB
:105250004883E0916809F091690923813481309392
:105260006909209368098091260A9091270AA81756
:10527000B907A1F4109731F0BC83AB831A8219826D
:10528000FD0105C01C821B821A821982F901D2839A
:10529000C183D093270AC093260A17C0FD018181DC
:1052A0009281A217B30751F09A838983BC83AB83A1
:1052B00081819281FC01D483C38304C01C821B8240
:1052C0009A838983FD01D283C183DF91CF910895B1
:1052D000CF93DF93A091260AB091270A109709F483
:1052E00046C0482F552747FD50958C919927841724
:1052F000950769F4ED01EB81FC81F093270AE093B7
:10530000260A1282118216C0D901232B81F18C91B9
:105310009927FD012381348184179507A9F7C1815D
:10532000D2813C832B8383819481009719F0FC0107
:10533000D283C183E0916809F0916909309741F403
:10534000B0936909A0936809ED011C821B8209C012
:10535000ED01FC83EB83B283A183B0936909A09331
:105360006809E0916809F091690912821182DF9160
:10537000CF910895E091310AF091320A8085992702
:1053800008950E94A035E091310AF091320A85819A
:105390008823B9F70895FF920F931F93CF93DF935C
:1053A000CDB7DEB728970FB6F894DEBF0FBECDBFDE
:1053B00029833A834B835C836D837E838F839887B5
:1053C0000E948A250E94BF21E091310AF091320AA1
:1053D00081E0858381E090E090A3878F0E94DF3297
:1053E000F82E29813A814B815C816D817E818F818C
:1053F00098850E942D2DE091310AF091320A0F2DEF
:105400001127800F911F968B858B87EF8F1570F07A
:105410000E946B320E5F1F4F99278017910734F05F
:105420008F2D8E5F8093C4080E9470320E94C1212C
:105430000E94C12981E090E028960FB6F894DEBF63
:105440000FBECDBFDF91CF911F910F91FF900895B7
:105450008F929F92AF92BF92CF92DF92EF92FF9284
:105460000F931F93CF93DF93CDB7DEB760970FB63F
:10547000F894DEBF0FBECDBF29873A874B875C8784
:105480006D877E878F87988BCE0101960E94932E21
:1054900089809A80AB80BC80CD80DE80EF80F884EC
:1054A00009851A852B853C854D855E856F857889B4
:1054B000CE0109960E940E2C882319F48FEF9FEFDE
:1054C0000CC029853A854B855C856D857E858F85E9
:1054D00098890E94CB2981E090E060960FB6F894FD
:1054E000DEBF0FBECDBFDF91CF911F910F91FF9017
:1054F000EF90DF90CF90BF90AF909F908F900895E6
:105500001F930E94BF21E091310AF091320A81E09D
:10551000858386830E94DF32182F883F80F40E94A3
:105520006B32212F33272E5F3F4F99278217930726
:1055300034F0812F8E5F8093C4080E9470320E94E5
:10554000C1210E94C12981E090E01F9108951F931D
:10555000CF93DF93CDB7DEB728970FB6F894DEBFB1
:105560000FBECDBF29833A834B835C836D837E83DB
:105570008F8398870E94BF210E94DF32182F2981D4
:105580003A814B815C816D817E818F8198850E94FB
:105590002D2D8330910518F48FEF9FEF0CC0E09113
:1055A000310AF091320A810F911D968B858B0E94F2
:1055B000C12181E090E028960FB6F894DEBF0FBEBF
:1055C000CDBFDF91CF911F9108950F931F938C0151
:1055D0000E94BF21E091310AF091320A81E0858377
:1055E000168B058B0E94DF32082F883F80F40E94C3
:1055F0006B32202F33272E5F3F4F99278217930757
:1056000034F0802F8E5F8093C4080E9470320E9415
:10561000C1210E94C12981E090E01F910F9108955E
:10562000FF920F931F93CF93DF938C010E94BF21B2
:10563000E091310AF091320A81E085830E94DF32E5
:10564000F82EE091310AF091320AC82FDD270C0FB5
:105650001D1F168B058B87EF8F1568F00E946B322C
:10566000229699278C179D0734F08F2D8E5F80939B
:10567000C4080E9470320E94C1210E94C12981E0A9
:1056800090E0DF91CF911F910F91FF9008951F93AC
:10569000CF93DF93EC010E948A25209711F4C1E09B
:1056A000D0E00E94BF21E091310AF091320A81E0FE
:1056B0008583D0A3C78F0E94DF32182F883F80F4E4
:1056C0000E946B32212F33272E5F3F4F992782177D
:1056D000930734F0812F8E5F8093C4080E9470324C
:1056E0000E94C1210E94C12981E090E0DF91CF9109
:1056F0001F9108951F930E948A250E94BF21E09167
:10570000310AF091320A81E090E090A3878F81E026
:1057100085830E94DF32182F883F80F40E946B320D
:10572000212F33272E5F3F4F99278217930734F09D
:10573000812F8E5F8093C4080E9470320E94C12125
:105740000E94C12981E090E01F910895E091310A03
:10575000F091320A80850E946829E091310AF09127
:10576000320A84E081870E947A2B81E090E00895DC
:10577000EF92FF920F931F93CF93DF93EC014B8136
:105780005C8169817A818D819E810E94AF35BC01E7
:105790008F81882369F04B815C81EE24FF2400E037
:1057A00010E020E030E0CE010E94C9211F8216C027
:1057B0008881992787FD9095FC01A5E0EE0FFF1FDA
:1057C000AA95E1F7E80FF91FE659F64F8185833076
:1057D00019F08FEF9FEF1BC0718360838881992739
:1057E00087FD9095FC0175E0EE0FFF1F7A95E1F7BC
:1057F000E80FF91FE659F64F85899689892B29F418
:1058000082E0818788810E94E12881E090E0DF9139
:10581000CF911F910F91FF90EF9008958F929F92DB
:10582000AF92BF92CF92DF92EF92FF920F931F93AE
:10583000CF93DF93CDB7DEB760970FB6F894DEBF96
:105840000FBECDBFFC0109831A832B833C834D839C
:105850005E836F83788789869A86AB86BC86CD8681
:10586000DE86EF86F88A2D813E814F8158858981B9
:105870009A81AB81BC81AD84BE84CF84D888E98411
:10588000FA840B851C858E159F05A007B10708F4C7
:105890003FC0E816F9060A071B0791F42A153B05D5
:1058A0004C055D05A8F12A193B094C095D092483C3
:1058B00035834683578310821182128213821CC063
:1058C0002A153B054C055D05D0F40197A109B109E6
:1058D0008E199F09A00BB10B80839183A283B383A0
:1058E000205036434546544C2A193B094C095D0962
:1058F000248335834683578381E090E00BC08E1963
:105900009F09A00BB10B80839183A283B383ECCF5B
:1059100080E090E060960FB6F894DEBF0FBECDBF7A
:10592000DF91CF911F910F91FF90EF90DF90CF907B
:10593000BF90AF909F908F900895FC0113C080504E
:105940009A4CAA49BB4384839583A683B7838081FD
:105950009181A281B3810196A11DB11D80839183A4
:10596000A283B38384819581A681B78180302AEC9C
:1059700092072AE9A2072BE3B20708F708958F924E
:105980009F92AF92BF92CF92DF92EF92FF920F93CE
:105990001F93CF93DF93CDB7DEB760970FB6F89420
:1059A000DEBF0FBECDBFFC0109831A832B833C836E
:1059B0004D835E836F83788789869A86AB86BC86A3
:1059C000CD86DE86EF86F88AAD80BE80CF80D88413
:1059D000ED84FE840F85188989859A85AB85BC8501
:1059E00029813A814B815C81820F931FA41FB51FCF
:1059F00080839183A283B383EA0CFB1C0C1D1D1DC5
:105A0000E482F58206831783CF010E949D2C81E0FA
:105A100090E060960FB6F894DEBF0FBECDBFDF9169
:105A2000CF911F910F91FF90EF90DF90CF90BF909B
:105A3000AF909F908F9008956093280A7093290AE1
:105A400080932A0A90932B0A20932C0A30932D0AD4
:105A500040932E0A50932F0A08958F929F92AF92EF
:105A6000BF92CF92DF92EF92FF920F931F93CF934B
:105A7000DF93CDB7DEB728970FB6F894DEBF0FBE21
:105A8000CDBF29833A834B835C836D837E838F8371
:105A900098878D809E80AF80B884E980FA800B81E2
:105AA0001C81E114F1040105110501F180E09AEC7B
:105AB000AAE9BBE3880E991EAA1EBB1EC501B4014C
:105AC00023EB36EE4EE050E00E948F3A69010894D5
:105AD000E108F108010911098AE0EE0CFF1C001F22
