:100000000C94D2010C9429320C94F1010C94F1015E
:100010000C94F1010C94F1010C94F1010C94F10198
:100020000C94F1010C9457320C94F1010C94F101F1
:100030000C94F1010C940A300C94F1010C940A30E8
:100040000C94F1010C943D300C94F1010C94F101ED
:100050000C94F1010C94F1010C94F1010C94F10158
:100060000C94F1010C94F1010C94F1010C94F10148
:100070000C94F1010C94F1010C94F1010C94F10138
:100080000C9447300C94F1010C94F1010C94F101A3
:100090000C94031E0C94F1010C94F1010C94F101E9
:1000A0000C94F1010C94F1010C94F1010C94F10108
:1000B0000C94F1010C94F1010C94F1010C94F101F8
:1000C0000C94F1010C94F1010C94F10165216B2168
:1000D0006E217121742177217D217A218021832154
:1000E00086218C218F2192219521892162216821ED
:1000F00043726561746520446F6E650D0A00537428
:10010000617274696E672075702E2E2E0D0A00497B
:100110005341204552524F523A20637265617469CF
:100120006E67207478207369676E616C2066616900
:100130006C65640D0A00495341204552524F523AB2
:10014000206372656174696E6720727820736967D5
:100150006E616C206661696C65640D0A0043433210
:10016000343230204552524F523A202052656C654D
:10017000617365206F662073656D6170686F72656D
:10018000206661696C65640D0A0043433234323085
:10019000204552524F523A202041636365737320C9
:1001A000746F2073656D6170686F72652066616938
:1001B0006C65640D0A00554E4B4F574E0046616901
:1001C0006C656420746F206372656174652053658B
:1001D0006D6170686F7265004661696C656420745A
:1001E0006F20637265617465205369676E616C008E
:1001F0004B65726E656C2066756E6374696F6E20F8
:100200006E6F7420696D706C656D656E74656400E9
:10021000446576696365204472697665722045722B
:10022000726F72005761746368646F672052657300
:10023000746172740054696D6572204F76657266E0
:100240006C6F7700556E68616E646C656420496EF2
:100250007465727275707420566563746F72004CA9
:100260006F7720566F6C74616765004578747261B2
:10027000205461736B20737461727465642C2069FF
:1002800073206E726B5F6366672E68206F6B3F0032
:1002900049646C65206F72204B65726E656C2053EB
:1002A0007461636B204F766572666C6F7700556E74
:1002B00065787065637465642052657374617274E7
:1002C000004475706C696361746564205461736B7C
:1002D000204944005363686564756C6572204D69FC
:1002E000737365642057616B657570005461736B3F
:1002F00020526573657276652056696F6C6174650E
:10030000640052657365727665204572726F722063
:10031000696E205363686564756C657200496E761A
:10032000616C696420537461636B20506F696E74F3
:100330006572005461736B20537461636B204F7658
:100340006572666C6F7700537461636B20776173BD
:10035000206E6F7420646566696E65642061732029
:100360006C6172676520656E6F7567682100293A58
:1003700020002A4E524B204552524F5228000D0A5F
:10038000535441434B2044554D500D0A00454647B8
:1003900065666700202B2D2E3031323334353637E9
:1003A0003839680011241FBECFEFD1E2DEBFCDBFC8
:1003B00012E0A0E0B2E0E8E0FFE600E00BBF02C020
:1003C00007900D92AE3EB107D9F717E0AEEEB2E05E
:1003D00001C01D92A43CB107E1F70E9423030C94D5
:1003E00083370C94753080E592E0909353038093AB
:1003F000520381EF94E090934F0380934E0382E782
:1004000094E0909351038093500382E080935503CE
:1004100081E0809354038093560380935703109296
:1004200058031092590310925A0310925B0380E014
:100430009DE2A1E3B1E080935C0390935D03A09300
:100440005E03B0935F0310926003109261031092F9
:100450006203109263038093640390936503A093F7
:100460006603B093670310926803109269031092B9
:100470006A0310926B0380E890EFAAEFB2E08093DA
:100480006C0390936D03A0936E03B0936F038DE4A0
:1004900093E00E94DF2880EF90E00E94F01D089515
:1004A0002F923F924F925F926F927F928F929F9284
:1004B000AF92BF92CF92DF92EF92FF920F931F9372
:1004C000CF93DF93CDB7DEB722970FB6F894DEBF98
:1004D0000FBECDBF0E94E12699279F938F9380E0A6
:1004E00092E09F938F930E943A3583E090E00E94C0
:1004F000421D81E090E00E947B0340E062E081E0E9
:100500000E94090A60E081E00E94E20B83E10E9400
:10051000E1080E94D50364E78DEF93E00E94C503D4
:100520000F900F900F900F9002C00E94A1280E9480
:10053000BB038823D1F38FE092E09F938F930E94B7
:100540003A350F900F905CE1252E52E0352E42E0B7
:10055000442E512C4C0E5D1E3E010894611C711CF2
:1005600030E0E32E34E0F32E2DEF822E2FEF922E8B
:100570008E0C9F1C0DE115E094E4A92E92E0B92E9B
:100580008DEFC82E8FEFD82EC00ED11E2091F20213
:100590003091F302C90168EE73E00E94EF36892BB7
:1005A000D1F48091F6029091F7029F938F938091FE
:1005B000F4029091F5029F938F933F932F933F9274
:1005C0002F920E943A358DB79EB708960FB6F894D1
:1005D0009EBF0FBE8DBF0E9437048823B9F0B201C1
:1005E000C3010E94D20AF70101900020E9F7E1500F
:1005F000F440EC5FE98388E00E94D90328E0482FAB
:100600006981C4010E9446040E943D0487E00E9463
:1006100074048823A9F4B501C8010E94B834F80114
:1006200001900020E9F7EE51F540EC5FE98387E0A7
:100630000E94D90327E0482F6981C6010E94460421
:100640000E94B808A3CFCFEFD1E2DEBFCDBF0E949A
:10065000851987E090E00E94BA1D8EEF90E00E941D
:10066000F01D0E94782080E090E00E94251D81E02E
:1006700090E00E94251D82E090E00E94251D83E00D
:1006800090E00E94251D20E030E040E050E060E076
:1006900070E080E090E00E94432A0E9491040E9452
:1006A000F3010E94182080E090E00C94833721E051
:1006B00030E040E050E004C0220F331F441F551FBC
:1006C0008A95D2F78091F8029091F902A091FA02EE
:1006D000B091FB02822B932BA42BB52B8093F802B5
:1006E0009093F902A093FA02B093FB0208958091CF
:1006F000180399270895813019F08330D9F531C056
:1007000083E18093D3068CE08093D40684E18093C8
:10071000D50688E18093D60680E18093D70687E1ED
:100720008093D80682E18093D90689E18093DA0626
:100730008EE08093DB0685E18093DC068BE080937E
:10074000DD068FE08093DE0686E18093DF0681E19F
:100750008093E0068DE08093E1068AE18093E206D3
:1007600008958FE08093CE0684E18093CF0689E1DF
:100770008093D006089580911905813019F481E0A5
:1007800090E008958FEF9FEF0895662359F000974A
:1007900049F090930B0380930A036093090381E06F
:1007A00090E008958FEF9FEF089582E08093190500
:1007B0000895282F883049F08091F0029091F1023D
:1007C00001969093F1028093F0028091FC038230B5
:1007D00070F48091F0029091F10268EC70E00E9458
:1007E000EF36892B21F4283011F085EE01C081EE1F
:1007F000992787FD90950895882311F083E801C01B
:1008000083E0992787FD909508958F92AF92CF92BC
:10081000EF920F93CF93DF93CDB7DEB71092B1066F
:100820009AE09093B8061092B9068093BA06609346
:10083000BB064093BC061092BD062093C4060093ED
:10084000C506E092C606C092C706A092C80680926E
:10085000C9068A858093CA068B858093CB06DF9173
:10086000CF910F91EF90CF90AF908F90089580919E
:100870000306992787FD909508951092030610921C
:100880000406109205061092060608953327F90112
:10089000EE0FFF1FEE0FFF1FEA56FA4F938382837E
:1008A0006083418341E050E060E070E004C0440FA9
:1008B000551F661F771F2A95D2F780911F039091CD
:1008C0002003A0912103B0912203842B952BA62B0A
:1008D000B72B80931F0390932003A0932103B09321
:1008E000220381E090E0089520911F0330912003BE
:1008F000409121035091220304C0569547953795A6
:1009000027958A95D2F7C9018170907008958091DA
:10091000F303813019F481E090E008958FEF9FEFA9
:1009200008950F931F9386EE98E090933003809381
:100930002F030AE213E040E850E060E773E0C801EB
:100940000E94333384E18093320381E0809331034A
:10095000809333038093340310923503109236034F
:10096000109237031092380380E896E9A8E9B0E0C6
:100970008093390390933A03A0933B03B0933C03D5
:1009800010923D0310923E0310923F0310924003D9
:1009900010924103109242031092430310924403B9
:1009A0001092450310924603109247031092480399
:1009B0001092490310924A0310924B0310924C0379
:1009C000C8010E94DF281F910F910895CF92DF92F6
:1009D000EF92FF920F931F93CF93DF93EE24FF24A8
:1009E00045E0C42E43E0D42E00910A0310910B037E
:1009F00080E00E94D903F801808360911803C6014A
:100A00000E94F5170E9418131092AE068AEF0E94FA
:100A1000972F80E00E947C2F10E012C00E940630C9
:100A2000181771F00E940630182F0894E11CF11C71
:100A3000F1E1EF16F7E2FF0618F0EE24FF2405C0FF
:100A40000E94A60F082F882349F30E944E2F0E9470
:100A50000630C82FDD272496002371F006C00E94BF
:100A600006309927C817D90738F060E880E00E945F
:100A70008B10082F882399F30E940013013009F08E
:100A8000B3CFE0910A03F0910B0392818091F203BE
:100A9000981709F0A9CF81E090E0A0E0B0E0809342
:100AA000030690930406A0930506B0930606809172
:100AB000A1069091A2062181820F911D9093A2061A
:100AC0008093A10682E090E00E94081D6091BC071F
:100AD0007091BD0789E690E00E940D350093AE0647
:100AE0001092030610920406109205061092060654
:100AF0000E94712F8AE00E94972F87E00E947C2F2E
:100B000060E571E980E090E00E948B300E947F2FC9
:100B1000E0919507F09196078AE090E0968B858B9F
:100B20008091AE069927DF91CF911F910F91FF9091
:100B3000EF90DF90CF900895FF920F931F93CF9384
:100B4000DF93CDB7DEB721970FB6F894DEBF0FBEA7
:100B5000CDBFF82E6091180385E093E00E94F51751
:100B60000E94181300918102802F0E948C190E940C
:100B70000630898389818C5F898317C00E94063083
:100B80009981981790F4802F0E94111A0E940013E7
:100B9000802F0E948C19802F0E94111A6091BC072F
:100BA0007091BD0786E790E03DC00E94A60F8823A4
:100BB00029F30E94562F9093B0068093AF060E94AF
:100BC0000630898389818B5F898317C00E94063034
:100BD0009981981790F486E492E09F938F930E94F6
:100BE0003A358091F6029091F70201969093F702C0
:100BF0008093F6020F900F909EC060E880E00E9404
:100C00008B10182F882311F3802F0E94111A0E9435
:100C10000013113009F47DC06091BC077091BD07CD
:100C200082E690E00E940D358091F6029091F702E5
:100C300001969093F7028093F6027DC081E090E0E8
:100C4000A0E0B0E08093030690930406A09305060D
:100C5000B0930606E0910A03F0910B038081809324
:100C60007104809191060E9469242091710427FFEC
:100C700062C08091F2029091F30201969093F30288
:100C80008093F20222FF02C083E801C083E08093D8
:100C9000E40680938E058EE895E090932703809379
:100CA000260322FF1EC06091BC077091BD078BE434
:100CB00090E00E940D358091AF069091B006209192
:100CC0009D0630919E06821B930B90939A0680930B
:100CD0009906292F332720938F058093900584E070
:100CE00001C082E080932503802F0E948C194091DF
:100CF0001A0350911B0360919D0670919E062AEA8B
:100D000036E083E293E00E942E15802F0E94111A94
:100D100012C08091F4029091F50201969093F50231
:100D20008093F40281E090E00E94081D89E0F816AB
:100D300009F084CF8FCF21960FB6F894DEBF0FBE97
:100D4000CDBFDF91CF911F910F91FF900895AF928A
:100D5000BF92CF92DF92EF92FF920F931F93CF93A8
:100D6000DF93CDB7DEB721970FB6F894DEBF0FBE85
:100D7000CDBFE82E81E0809313030E2D1127F801DB
:100D8000EE0FFF1FEE0FFF1FEA56FA4F828193818D
:100D90009093120380931103808180931003A0919C
:100DA0001103B091120381818C93E0911103F091B2
:100DB00012038091A1069091A2068183E091110314
:100DC000F09112038091FC0282830E944E2F60E812
:100DD00075E280E090E00E948B30D09077028D2DFC
:100DE0000E948C1940911A0350911B0360919D063B
:100DF00070919E062AEA36E08EE093E00E942E155E
:100E00008823F1F08091F2029091F3020196909381
:100E1000F3028093F2028D2D0E94111A83E090E07C
:100E20000E94081D8091AA069091AB0620919D0614
:100E300030919E06821B930B9093980680939706A1
:100E400080919F060E94692481E090E0A0E0B0E0DC
:100E500004C0880F991FAA1FBB1F0A95D2F780955F
:100E60009095A095B09520911F033091200340915B
:100E7000210350912203282339234A235B23209303
:100E80001F0330932003409321035093220380914A
:100E9000710487FF5CC10E9418138D2D0E948C196C
:100EA0000E944E2F60E070E180E090E00E948B3065
:100EB0000E940630898389818E5F89833DC00E94AC
:100EC000063099819817C0F580919C06E81651F478
:100ED0008091E5069091E60649969093E606809308
:100EE000E50613C0E81A2091E5063091E6064E2D7E
:100EF000552747FD50951E1414F0275E3F4F240FD1
:100F0000351F3093E6062093E5060E9400138D2DD1
:100F10000E94111A6091BC077091BD0783E790E0B1
:100F20000E940D358091F6029091F7020196909300
:100F3000F7028093F6020BC10E94A60F882309F4E2
:100F4000BECF0E940630898389818E5F898388E0C5
:100F5000E81661F08091F0029091F10268EC70E087
:100F60000E94EF36892B11F414E001C012E0809149
:100F7000FC038230E9F412E01BC00E940630998124
:100F80009817B0F486E492E09F938F930E943A35CD
:100F90008091F6029091F70201969093F702809368
:100FA000F6020E940630809392060F900F90CFC0F9
:100FB000612F81E00E948B10082F8823F1F281308D
:100FC00009F4C2C06091BC077091BD0786E690E04D
:100FD0000E940D358091F6029091F7020196909350
:100FE000F7028093F6028091F0029091F1029F93B4
:100FF0008F9387E692E09F938F930E943A350F90EC
:101000000F900F900F908D2D0E94111A013009F052
:101010009EC08091F4029091F50201969093F502A2
:101020008093F4021092E6061092E506E0910A031E
:10103000F0910B0390819093E4068091710487FFF7
:1010400086C097FF84C081819927982F88272281A5
:101050003327822B932B90939A068093990680E0F6
:1010600090E00E94081D6091BC077091BD0781E669
:1010700090E00E940D35C0909906D0909A0680911C
:10108000970690919806C81AD90A82E389830E942C
:101090000630B82EA09081028A2D0E948C19D7FCB0
:1010A00030C0B09292060E94712F64E6E62E69E18C
:1010B000F62EC60164E679E10E9403378B010F5FCB
:1010C0000093A406C60164E679E10E940337E81A9A
:1010D000F90AF092A906E092A8060E944E2F82E338
:1010E00090E00E94402FB70180E090E00E948B309A
:1010F0008B2D800F0E947C2F84E690E00E94402F71
:1011000017C06091BC077091BD0781E290E00E941A
:101110000D350E94712F0E944E2F662777276C197C
:101120007D0980E090E00E948B308B2D0E947C2F07
:101130000E947F2F0E944E2F82E390E00E94402F5A
:101140008A2D0E94111A03C00E9400135CCF2196C1
:101150000FB6F894DEBF0FBECDBFDF91CF911F91C8
:101160000F91FF90EF90DF90CF90BF90AF900895D8
:10117000809191060E94612380919F060E946123C5
:1011800021E030E040E050E0CA01B90100909F0644
:1011900004C0660F771F881F991F0A94D2F700902A
:1011A000910604C0220F331F441F551F0A94D2F723
:1011B000622B732B842B952B0E94BB2581E090E042
:1011C0000895809318030E941F180895BF92CF922C
:1011D000DF92EF92FF920F931F93CF93DF931092C2
:1011E00019050E94A128809119058823D1F381E077
:1011F00080931905B0907702CC24DD248B2D0E94BA
:101200008C198B2D0E94111A0E944E2F0E94562F6E
:1012100090939E0680939D068091A1069091A206D0
:101220009093AD068093AC068091A1069091A206A2
:101230008536910598F08091A1069091A20684567A
:1012400090409093A2068093A1068091950690917C
:101250009606019690939606809395062091A10696
:101260003091A2068091AE06813009F064C0C901B8
:1012700069E170E00E94EF36EC01B1E0EB2EF12C59
:10128000012D112D04C0EE0CFF1C001F111F8A95AB
:10129000D2F7E091A006EC0DE093A006FF27EF70D7
:1012A000F070ED52F94F80818093D2060E94E108E0
:1012B0008091FA049091FB04A091FC04B091FD048C
:1012C00020911F033091200340912103509122036C
:1012D00082239323A423B5238E219F21A023B1230E
:1012E0000097A105B10531F08C2F0E94A706C0938D
:1012F0009C0634C08091F8039091F903A091FA0301
:10130000B091FB03E822F9220A231B23E114F10424
:101310000105110519F18091030690910406A09131
:101320000506B09106060097A105B105B9F48C2F0A
:101330000E949C0513C080E00E94D9038093710431
:101340008091FC03823039F01092F1021092F00289
:101350000E94E60401C081E08093AE062091E5067C
:101360003091E60680917402909175022817390732
:1013700078F18091FC03823059F11092AE06109200
:10138000E6061092E5061092A2061092A106809140
:10139000F0039091F10301969093F1038093F00391
:1013A0008091FC02882349F0E091F203E093A006CB
:1013B000FF27ED52F94F808104C01092A006809162
:1013C000D3068093D2068091D2060E94E10814CF02
:1013D0008091A1069091A2060E94800C6C018091E0
:1013E000A1069091A2068C0D9D1D9093A20680935C
:1013F000A10680E090E00E94251D109298061092B0
:101400009706C6010E946E2880E090E00E94421D6F
:10141000F5CEFF920F931F93082FF62E142F0E94E4
:10142000D822809391068F3F19F486E391E008C09B
:101430000E94D82280939F068F3F79F48FE091E03D
:101440000E94F01DE0919507F091960760858EE06F
:101450000E94D1218FEF90E087C010920B03109271
:101460000A03109209030E944A2F109296061092C6
:10147000950684E690E09093A2068093A1061092D0
:10148000AE061092F3031092E6061092E506009362
:10149000FC03F092FC021093F203109203061092E8
:1014A0000406109205061092060610921F03109271
:1014B0002003109221031092220384E680931E03DE
:1014C00080E49FE190931D0380931C0380EA9FE0DA
:1014D00090931B0380931A038FE08093180381E895
:1014E00099E19093170380931603E0E0F5E01192E1
:1014F00085E0E931F807D9F71092F8031092F90363
:101500001092FA031092FB031092FA041092FB045B
:101510001092FC041092FD0421E839E141E254E20A
:101520006FE085E093E00E94321881E080939B0693
:101530001092A706FF2041F01093A006E12FFF278D
:10154000ED52F94F808104C01092A0068091D3061D
:101550008093D2068091D2060E94E1081092F10396
:101560001092F00381E090E01F910F91FF90089599
:10157000809191060E94612380910306882379F46B
:1015800061E070E080E090E00090910604C0660F9A
:10159000771F881F991F0A94D2F70E94BB2581E00C
:1015A00090E00895FC01DB0180910306882329F473
:1015B00010821C9280E090E008958091080380835F
:1015C00080910D038C9380910A0390910B030895F1
:1015D000CF92DF92EF92FF920F931F93CF93DF93FF
:1015E000EE24FF2415E0C12E13E0D12E60911803E4
:1015F000C6010E94F5170E9418131092AE0600E073
:1016000012C00E940630081771F00E940630082FA1
:101610000894E11CF11C81E1E81687E2F80618F055
:10162000EE24FF2405C00E94A60F182F882349F33B
:101630000E940630C82FDD272496112371F006C0C2
:101640000E9406309927C817D90738F060E880E073
:101650000E948B10182F882399F30E9400131130D9
:1016600029F6E0910A03F0910B0384858A3009F092
:10167000BDCF81E090E0A0E0B0E0809303069093BE
:101680000406A0930506B093060686850E947B0398
:10169000E0910A03F0910B03E785E093A006FF2792
:1016A000ED52F94F80818093D2060E94E1080091AB
:1016B0000A0310910B03E80162E975E0888D882325
:1016C00071F121E030E040E050E004C0220F331F10
:1016D000441F551F8A95D2F78091FA049091FB041C
:1016E000A091FC04B091FD04822B932BA42BB52B6D
:1016F0008093FA049093FB04A093FC04B093FD0440
:10170000E88DFF27E050FB4F81E08083888DFB014F
:101710008193BF012196F5E066397F0779F6E801EC
:1017200060E08C8D882349F121E030E040E050E01A
:1017300004C0220F331F441F551F8A95D2F7809192
:10174000F8039091F903A091FA03B091FB03822B67
:10175000932BA42BB52B8093F8039093F903A093BC
:10176000FA03B093FB03EC8DFF27E050FB4F81E0C1
:1017700080836F5F21966430A1F681E090E0A0E065
:10178000B0E00090910604C0880F991FAA1FBB1FEC
:101790000A94D2F70E94692481E08093F3031092A7
:1017A000030610920406109205061092060681E0C8
:1017B00090E0DF91CF911F910F91FF90EF90DF901C
:1017C000CF900895782F6093F203823041F5809195
:1017D000FA049091FB04A091FC04B091FD04846094
:1017E0008093FA049093FB04A093FC04B093FD044F
:1017F0008091F8039091F903A091FA03B091FB0353
:1018000088608093F8039093F903A093FA03B09350
:10181000FB0381E0809302058093030558C081306B
:1018200069F52091F8033091F9034091FA03509142
:10183000FB038091FA049091FB04A091FC04B09109
:10184000FD04806891608093FA049093FB04A09358
:10185000FC04B093FD04206232602093F8033093BF
:10186000F9034093FA035093FB03709307057093B9
:101870000805709305057093090529C0882339F57B
:101880008091FA049091FB04A091FC04B091FD04B6
:1018900082608093FA049093FB04A093FC04B093BD
:1018A000FD048091F8039091F903A091FA03B0919F
:1018B000FB0380618093F8039093F903A093FA03EC
:1018C000B093FB0381E0809301058093040581E0E0
:1018D00090E008958A3118F08FEF9FEF0895E82F78
:1018E000FF27E050FB4F8081992787FD9095089551
:1018F000E0E0F5E0119285E0E931F807D9F70895C5
:1019000069E170E00E94EF36682F482F0CC0242F49
:101910003327F901E050FB4F8081882321F0C90172
:10192000861B910908954F5F493188F320E030E02C
:10193000422F5527FA01E050FB4F8081882339F070
:1019400089E190E0861B9109840F951F08952F5F10
:101950003F4F621768F70895EAE7F0E083E080837D
:10196000ACE7B0E080E48C93808180688083109243
:10197000E8068C91807E8C939C918C91807E892B43
:101980008C93089588EC90E00E94402F08958091F8
:101990007A00806480937A0080917A0084FFFCCF83
:1019A0000E94C20C209178003327809179009927FA
:1019B000982F8827822B932B0895FF920F931F93C4
:1019C000CF93DF93CDB7DEB722970FB6F894DEBF83
:1019D0000FBECDBF0E941D0F8C01009711F00E9419
:1019E0006725159AFF248F2D806299279A83898312
:1019F00040988BE18EBD0DB407FEFDCF89819A81A1
:101A0000892F99278EBD0DB407FEFDCF89819A815C
:101A10008EBD0DB407FEFDCF409A82E090E00E949B
:101A2000402F40988BE58EBD0DB407FEFDCF1EBC48
:101A30000DB407FEFDCF8EB59927982F88279A837E
:101A400089831EBC0DB407FEFDCF89819A812EB516
:101A50003327282B392B3A832983409A89819A810D
:101A600086FD05C0F3942FE1F21609F0BCCF0115F5
:101A7000110519F0C8010E941524FF20C9F40E9425
:101A8000C70C9A83898389819A818F3A910530F0B6
:101A900089819A818E5A90409A83898389819A811B
:101AA0008A54914098F48AE491E09A8389830EC025
:101AB0002DE7F29E9001112488E293E2821B930BA2
:101AC0006BE170E00E9403377A83698389819A8190
:101AD00022960FB6F894DEBF0FBECDBFDF91CF9137
:101AE0001F910F91FF900895CF92DF92EF92FF9296
:101AF0000F931F93CF93DF93982FEA01122F823019
:101B000009F481C0833030F4882371F0813009F00A
:101B1000D2C010C0843009F481C0843008F477C08A
:101B2000853009F0C8C02DC080E880BB8F9A0E9424
:101B3000AC0C6AC08091E706813009F4C3C0909371
:101B4000E706772760FF13C08F981092E806809110
:101B50007C00807E80937C0090917C0080917C0052
:101B6000807E892B80937C0088EE93E09FC061FD8E
:101B7000A9C062FDA7C067707070672B09F4A2C08E
:101B800097C0822F8150823008F099C09091E8066A
:101B9000892F8150863018F40E94C70C22C09923E7
:101BA00019F40E94DD0C1DC0973051F5F1E0CF2EE5
:101BB000F4E0DF2EEE24FF2400E00E94C70C8C1519
:101BC0009D0508F46C01E816F90608F47C018DE720
:101BD00090E00E94402F0F5F003479F7C7018C1905
:101BE0009D09123031F48883892F9927898381E0F8
:101BF00008C0113029F49695879596958795888326
:101C000080E08F5F09C08F9A1092E70651C0613063
:101C100009F058C08091E806992756C0613009F054
:101C200051C02730D9F42093E80680917C008F774B
:101C300080937C0080917C00806480937C00809104
:101C40007C00807E80937C0090917C0080917C0061
:101C50009360807E982B90937C0026C0283020F0E3
:101C600081E00E940C212EC02093E806213049F427
:101C700080917C008F7780937C0080917C008064D1
:101C800003C080917C00806C80937C0080917C00FC
:101C9000807E80937C0090917C0080917C00807E8F
:101CA000892B812B80937C0088EC90E00E94402F50
:101CB00081E090E009C060E08CE00E94D12180E0EA
:101CC00090E002C08FEF90E0DF91CF911F910F91D4
:101CD000FF90EF90DF90CF90089599279C01265AAE
:101CE0003E4B0B97880F991F880F991F280F391F9C
:101CF000F894409888E18EBD0DB407FEFDCF832F88
:101D000099278EBD0DB407FEFDCF2EBD0DB407FE85
:101D1000FDCF409A78940895F89440981EBC0DB475
:101D200007FEFDCF8EB5409A789486FFF5CF0895D3
:101D30008091FE0699270895CF93DF93DC014098A8
:101D400089EC8EBD0DB407FEFDCF80E88EBD0DB4CD
:101D500007FEFDCF92E09150FD01E90FF11D80815A
:101D60008EBD0DB407FEFDCF9923A9F7409A409888
:101D70008BEC8EBD0DB407FEFDCF80E88EBD0DB49B
:101D800007FEFDCF92E09D012E5F3F4FE90191508C
:101D9000F901E90FF11D80818EBD0DB407FEFDCF65
:101DA0009923A1F7409A8C918093FF06FD018181D0
:101DB00080930007888180930107838180930207C5
:101DC000DF91CF910895409889E18EBD0DB407FE53
:101DD000FDCF83E08EBD0DB407FEFDCF86E08EBD46
:101DE0000DB407FEFDCF409A40988AE18EBD0DB438
:101DF00007FEFDCF8EE08EBD0DB407FEFDCF8EE059
:101E00008EBD0DB407FEFDCF409A81E08093EF06B2
:101E10000895409889E18EBD0DB407FEFDCF81E0A5
:101E20008EBD0DB407FEFDCF84EC8EBD0DB407FE54
:101E3000FDCF409A1092EF0608958091ED069091A3
:101E4000EE0608952091F0063091F1063860309347
:101E5000F1062093F006409881E18EBD0DB407FE97
:101E6000FDCF832F99278EBD0DB407FEFDCF2EBD6C
:101E70000DB407FEFDCF409A08952091F0063091F1
:101E8000F106377F3093F1062093F006409881E108
:101E90008EBD0DB407FEFDCF832F99278EBD0DB4E7
:101EA00007FEFDCF2EBD0DB407FEFDCF409A08956D
:101EB00081E08093FD062091F0063091F1062061CB
:101EC0003093F1062093F006409881E18EBD0DB469
:101ED00007FEFDCF832F99278EBD0DB407FEFDCFE2
:101EE0002EBD0DB407FEFDCF409A08951092FD0659
:101EF0002091F0063091F1062F7E3093F106209369
:101F0000F006409881E18EBD0DB407FEFDCF832F12
:101F100099278EBD0DB407FEFDCF2EBD0DB407FE73
:101F2000FDCF409A089589B1992766E096958795E7
:101F30006A95E1F78170907008958CB1992787FDBB
:101F400090958827990F881F9927089589B1992717
:101F5000E6E096958795EA95E1F78170907008958F
:101F600080910307882319F480E090E00895809120
:101F7000030710920307992787FD909508954098CD
:101F800088E08EBD0DB407FEFDCF409A409888E0F2
:101F90008EBD0DB407FEFDCF409A08958091ED06E9
:101FA0009091EE060E946725409886E08EBD0DB4A4
:101FB00007FEFDCF409A8091ED069091EE060E94BB
:101FC000152408958091ED069091EE060E946725F4
:101FD000409884E08EBD0DB407FEFDCF409A8091FD
:101FE000ED069091EE060E94152408958091ED066D
:101FF0009091EE060E946725409886E08EBD0DB454
:1020000007FEFDCF409A409882E18EBD0DB407FED9
:10201000FDCF85E08EBD0DB407FEFDCF1EBC0DB417
:1020200007FEFDCF409A40988EE28EBD0DB407FEAC
:10203000FDCF1EBC0DB407FEFDCF1EBC0DB407FEC8
:10204000FDCF409A0E94BF0F8091ED069091EE0661
:102050000E94152408958091ED069091EE060E944D
:102060006725409886E08EBD0DB407FEFDCF409AEF
:10207000409882E18EBD0DB407FEFDCF85E08EBD98
:102080000DB407FEFDCF88E08EBD0DB407FEFDCF79
:10209000409A40988EE28EBD0DB407FEFDCF88E1D8
:1020A0008EBD0DB407FEFDCF1EBC0DB407FEFDCFE7
:1020B000409A0E94BF0F8091ED069091EE060E941B
:1020C000152408950F931F93082F8091ED0690918A
:1020D000EE060E946725112707FD1095302F222755
:1020E0002068409883E18EBD0DB407FEFDCF832F9D
:1020F00099278EBD0DB407FEFDCF2EBD0DB407FE92
:10210000FDCF409A8091ED069091EE060E94152435
:102110001F910F9108950F931F93CF93DF93CDB726
:10212000DEB724970FB6F894DEBF0FBECDBF182FD1
:10213000062F8091ED069091EE060E946725679B21
:102140004CC21092FE06679B25C0319923C040986F
:102150008FE78EBD0DB407FEFDCF1EBC0DB407FE8C
:10216000FDCF8EB5409A409888E08EBD0DB407FE35
:10217000FDCF409A409888E08EBD0DB407FEFDCF9C
:10218000409A8091ED069091EE060E9415248FEF03
:102190009FEF2BC240988FE78EBD0DB407FEFDCF99
:1021A0001EBC0DB407FEFDCF4EB5409A4F7719F512
:1021B00040988FE78EBD0DB407FEFDCF1EBC0DB459
:1021C00007FEFDCF8EB5409A409888E08EBD0DB4D5
:1021D00007FEFDCF409A409888E08EBD0DB407FE03
:1021E000FDCF409A8091ED069091EE060E94152455
:1021F0008EEF9FEFFAC145308CF0E091F206F0913E
:10220000F306242F332727FD30952B50304084814F
:10221000992787FD909582179307F4F540988FE7EB
:102220008EBD0DB407FEFDCF60E070E0242F332794
:1022300027FD309506C01EBC0DB407FEFDCF6F5FB5
:102240007F4F862F99278217930714F43199F3CF84
:10225000409A40988FE78EBD0DB407FEFDCF1EBC9F
:102260000DB407FEFDCF8EB5409A409888E08EBD34
:102270000DB407FEFDCF409A409888E08EBD0DB4A6
:1022800007FEFDCF409A8091ED069091EE060E94E8
:1022900015248DEF9FEFA9C1E091F206F091F306AE
:1022A0004C5043831123B1F0E091F206F091F30614
:1022B0008381992787FD9095202F332782179307D5
:1022C00049F08091ED069091EE060E9415248AEF68
:1022D0009FEF8BC140988FE78EBD0DB407FEFDCFF9
:1022E000FE0131969E012D5F3F4F1EBC0DB407FECF
:1022F000FDCF8EB58193E217F307B9F7409AE091CD
:10230000F206F091F30689819A81B5E0969587955A
:10231000BA95E1F78170878340988FE78EBD0DB441
:1023200007FEFDCF1EBC0DB407FEFDCFE091F20607
:10233000F091F3068EB58083409A40988FE78EBD6A
:102340000DB407FEFDCF80E007C01EBC0DB407FE34
:10235000FDCF8F5F843011F03199F7CF409A4098CC
:102360008FE78EBD0DB407FEFDCF20E030E01EBC30
:102370000DB407FEFDCFE091F206F091F306E20FF7
:10238000F31F8EB581832F5F3F4F2230310579F7E0
:10239000409A89819A8183FF56C040988FE78EBD0D
:1023A0000DB407FEFDCFE9EEF6E01EBC0DB407FE4E
:1023B000FDCF8EB5819386E0ED3EF807B1F7409AE8
:1023C000409889E98EBD0DB407FEFDCF80E88EBD33
:1023D0000DB407FEFDCF92E09150E92FFF27E751A2
:1023E000F94F80818EBD0DB407FEFDCF9923A1F773
:1023F000409A40988BE98EBD0DB407FEFDCF80E872
:102400008EBD0DB407FEFDCF92E09150E92FFF275E
:10241000E551F94F80818EBD0DB407FEFDCF9923A4
:10242000A1F7409A40988CE08EBD0DB407FEFDCF19
:10243000409A81E08093FE06E091F206F091F30667
:1024400083818450838340988FE78EBD0DB407FE4F
:10245000FDCF40E050E011C01EBC0DB407FEFDCF23
:10246000E091F206F091F3060580F681E02DE60F8B
:10247000F11D8EB580834F5F5F4F642FE091F206B0
:10248000F091F306242F33278381992787FD9095B8
:10249000281739070CF3409A40988FE78EBD0DB48A
:1024A00007FC0AC0FCCF0DB407FEFDCF5EB5409A15
:1024B00040988FE78EBD02C01EBCF5CF0DB407FE5D
:1024C000FDCFFE0133969E012B5F3F4F1EBC0DB426
:1024D00007FEFDCF8EB58193E217F307B9F7409A57
:1024E000E091F206F091F3068B81808740E020E0D6
:1024F00030E00AC0E091F206F091F3068581968102
:10250000A80FB91F8C91480F822FE091F206F0912D
:10251000F3062F5F3F4FA82FBB278381992787FDA5
:102520009095A817B90734F3451719F140988FE72C
:102530008EBD0DB407FEFDCF1EBC0DB407FEFDCF52
:102540008EB5409A409888E08EBD0DB407FEFDCF51
:10255000409A409888E08EBD0DB407FEFDCF409AAA
:102560008091ED069091EE060E9415248CEF9FEF6E
:102570003CC08C8187FF0EC0809103078F5F8093E2
:1025800003078091ED069091EE060E94152481E0EC
:1025900090E02BC040988FE78EBD0DB407FEFDCFB5
:1025A0001EBC0DB407FEFDCF8EB5409A409888E062
:1025B0008EBD0DB407FEFDCF409A409888E08EBDD9
:1025C0000DB407FEFDCF409A8091ED069091EE0686
:1025D0000E9415248BEF9FEF08C08091ED0690912B
:1025E000EE060E94152480E090E024960FB6F89441
:1025F000DEBF0FBECDBFDF91CF911F910F91089528
:102600008091ED069091EE060E9467251092FA06E1
:10261000409886E08EBD0DB407FEFDCF409A109223
:1026200003078091ED069091EE060E94152408950F
:102630008091ED069091EE060E94672581E08093DF
:10264000FA06409883E08EBD0DB407FEFDCF409A98
:10265000409888E08EBD0DB407FEFDCF409A1092E1
:1026600003078091ED069091EE060E9415240895CF
:102670008091ED069091EE060E94672581E080939F
:10268000FA06409883E08EBD0DB407FEFDCF409A58
:10269000409888E08EBD0DB407FEFDCF409A1092A1
:1026A00003078091ED069091EE060E94152408958F
:1026B0001F93182F8091ED069091EE060E946725DA
:1026C000212F33272F713070206E306A409885E1BA
:1026D0008EBD0DB407FEFDCF832F99278EBD0DB49F
:1026E00007FEFDCF2EBD0DB407FEFDCF409A8091B1
:1026F000ED069091EE060E9415241F910895EF9229
:10270000FF920F931F93CF93DF93CDB7DEB722973E
:102710000FB6F894DEBF0FBECDBF8C018091ED06E1
:102720009091EE060E9467255091EF06552339F0EF
:1027300040988DE08EBD0DB407FEFDCF409AF801A4
:102740004281642F772767FD7095A0E020E030E09C
:1027500008C0F80183819481E80EF91EF701808199
:10276000A80F822F2F5F3F4FE82EFF24E616F706B3
:1027700084F3942F945F51119C5F6799FECF4E991B
:10278000FCCFF894409889E08EBD0DB407FEFDCFD4
:10279000409A409889E08EBD0DB407FEFDCF409A67
:1027A00040988EE38EBD0DB407FC05C0FCCF0DB480
:1027B00007FC30C1FCCF9EBDFACF81E698E89A8332
:1027C0008983552329F089819A8188609A83898336
:1027D00040988EE38EBD0DB407FEFDCFFE0131960D
:1027E0009E012D5F3F4F80818EBD0DB407FEFDCF52
:1027F0003196E217F307B9F7409A40988EE38EBD01
:102800000DB407FC05C0FCCF0DB407FC0EC1FCCF16
:102810008091F4068EBDF8CF0DB407FEFDCF20E009
:1028200030E0F901EA50F94F80818EBD0DB407FE0A
:10283000FDCF2F5F3F4F2230310599F7409A4098E6
:102840008EE38EBD0DB407FEFDCF20E030E0F80131
:10285000E20FF31F80818EBD0DB407FEFDCF2F5F09
:102860003F4F2230310599F7409A40988EE38EBD54
:102870000DB407FEFDCF20E030E0F901E850F94F3C
:1028800080818EBD0DB407FEFDCF2F5F3F4F2230FC
:10289000310599F7409A552399F040988EE38EBD03
:1028A0000DB407FEFDCFEFEFF6E080818EBD0DB4D5
:1028B00007FEFDCF319687E0E330F807B1F7409A85
:1028C00040988EE38EBD0DB407FEFDCF20E030E0D2
:1028D0000DC0F80183819481480F591FFA0180814E
:1028E0008EBD0DB407FEFDCF2F5F3F4F422F552702
:1028F0004617570774F3409A40988EE38EBD0DB487
:1029000007FC05C0FCCF0DB407FC94C0FCCFAEBDE6
:10291000FACF8091FA06882339F4409883E08EBD7F
:102920000DB407FEFDCF409A40981EBC0DB407FEC3
:10293000FDCF8EB5409A81FFF7CF00E0409885E04B
:102940008EBD0DB407FEFDCF409A40981EBC0DB45D
:1029500007FEFDCF1EB5409A0F5F053651F47894FF
:102960008091ED069091EE060E94152480E090E0A3
:1029700068C084E690E00E94511E13FD08C0DECFBF
:10298000409884E08EBD0DB407FEFDCF409A789448
:102990004E9BFECF4E99FECF8091FD06882391F08D
:1029A00084EA92E00E94511E319B0EC040988FE74E
:1029B0008EBD0DB407FEFDCF1EBC0DB407FEFDCFCE
:1029C0008EB5409A11E00FC0409888E08EBD0DB4DE
:1029D00007FEFDCF409A409888E08EBD0DB407FEFB
:1029E000FDCF409A10E0F894409886E08EBD0DB47B
:1029F00007FEFDCF409A78948091F4068F5F809314
:102A0000F4068091ED069091EE060E941524812F28
:102A1000992717C0409A81E498E89A838983809126
:102A2000FD06882309F0C9CECCCE409A40988EE3AB
:102A30008EBDF2CE409AF8018581882309F069CFD6
:102A40009FCF22960FB6F894DEBF0FBECDBFDF91A9
:102A5000CF911F910F91FF90EF9008958F929F92C9
:102A6000BF92CF92DF92EF92FF920F931F93CF937B
:102A7000DF93CDB7DEB722970FB6F894DEBF0FBE57
:102A8000CDBF8C016B017A0149018091ED069091D7
:102A9000EE060E9467250E940630409888E08EBDB1
:102AA0000DB407FEFDCF409A409888E08EBD0DB46E
:102AB00007FEFDCF409A6799FECF4E99FCCFF89460
:102AC000409889E08EBD0DB407FEFDCF409A409836
:102AD00089E08EBD0DB407FEFDCF409AF8016281FA
:102AE000462F552747FD5095BB2420E030E007C016
:102AF000F80183819481A80FB91F8C91B80E822FA1
:102B00002F5F3F4FA82FBB27A417B5078CF3962F35
:102B1000945F40988EE38EBD0DB407FC05C0FCCFDA
:102B20000DB407FC18C1FCCF9EBDFACF81E698E832
:102B30009A83898340988EE38EBD0DB407FEFDCF46
:102B4000FE0131969E012D5F3F4F80818EBD0DB4F9
:102B500007FEFDCF3196E217F307B9F7409A409888
:102B60008EE38EBD0DB407FC05C0FCCF0DB407FC91
:102B7000FBC0FCCF8091F4068EBDF8CF0DB407FEEC
:102B8000FDCF20E030E0F901EA50F94F80818EBDA1
:102B90000DB407FEFDCF2F5F3F4F2230310599F76F
:102BA000409A40988EE38EBD0DB407FEFDCF20E025
:102BB00030E0F801E20FF31F80818EBD0DB407FEF7
:102BC000FDCF2F5F3F4F2230310599F7409A409853
:102BD0008EE38EBD0DB407FEFDCF20E030E0F9019D
:102BE000E850F94F80818EBD0DB407FEFDCF2F5FF9
:102BF0003F4F2230310599F7409AB701C6010E9434
:102C00008B30F8018581882379F18091FA06882339
:102C100039F4409883E08EBD0DB407FEFDCF409A95
:102C2000EE24409885E08EBD0DB407FEFDCF409A9E
:102C300040981EBC0DB407FEFDCFFEB4409AE3944D
:102C4000F5E6EF1651F478948091ED069091EE063A
:102C50000E94152480E090E08EC084E690E00E94FF
:102C6000511EF3FC08C0DDCF409884E08EBD0DB44A
:102C700007FEFDCF409A809176020E948C198091C8
:102C8000840090918500F4019183808340988EE3C5
:102C90008EBD0DB407FEFDCFF8018281482F552768
:102CA00047FD509520E030E00CC0F801838194810D
:102CB000A80FB91F8C918EBD0DB407FEFDCF2F5FFD
:102CC0003F4FA22FBB27A417B5077CF3409A40982B
:102CD0008EE38EBD0DB407FC05C0FCCF0DB407FC20
:102CE00048C0FCCFBEBCFACF4E9BFECFF8944E99A5
:102CF000FECF409888E08EBD0DB407FEFDCF409A10
:102D0000409888E08EBD0DB407FEFDCF409A4098F4
:102D100089E08EBD0DB407FEFDCF409A409889E052
:102D20008EBD0DB407FEFDCF409A409886E08EBD63
:102D30000DB407FEFDCF409A78948091F4068F5F22
:102D40008093F4068091ED069091EE060E94152482
:102D500081E090E010C0409AF8018681882309F054
:102D6000E5CE81E498E8E4CE409A40988EE38EBDAB
:102D700005CF409AB9CF22960FB6F894DEBF0FBEAA
:102D8000CDBFDF91CF911F910F91FF90EF90DF901A
:102D9000CF90BF909F908F900895CF93DF93CDB742
:102DA000DEB722970FB6F894DEBF0FBECDBF9A8371
:102DB00089839093F9068093F80684EF91E00E944E
:102DC000402F40988AEE8EBD0DB407FEFDCF80E8FF
:102DD0008EBD0DB407FEFDCFFE0131969E012D5F25
:102DE0003F4F80818EBD0DB407FEFDCF3196E217B7
:102DF000F307B9F7409A84EF91E00E94402F2296A2
:102E00000FB6F894DEBF0FBECDBFDF91CF9108950E
:102E10006F927F928F929F92AF92BF92CF92DF92EA
:102E2000EF92FF920F931F93CF93DF93CDB7DEB74F
:102E300022970FB6F894DEBF0FBECDBF8C0184E69B
:102E400090E00E94402F7801C12CB1E0DB2E3E01C2
:102E50000894611C711CA3E08A2E912C8C0E9D1E7F
:102E6000F7018081218133279927982F8827282BE4
:102E7000392B3A83298384E690E00E94402F4098C2
:102E80008C2D80688EBD0DB407FEFDCFC6019595D3
:102E90008795807C8EBD0DB407FEFDCF8301530165
:102EA000F50180818EBD0DB407FEFDCF0894A11CF5
:102EB000B11CA814B904A1F7409A0894E11CF11CB4
:102EC00082E090E0C80ED91E90E1C91691E0D906C3
:102ED00039F684E690E00E94402F20E131E040E4A2
:102EE00051E01A8219824098842F80688EBD0DB4FB
:102EF00007FEFDCFCA0195958795807C8EBD0DB4E8
:102F000007FEFDCFF80180818EBD0DB407FEFDCF19
:102F10003196EA15FB05B9F7409A4098822F8068F0
:102F20008EBD0DB407FEFDCFC90195958795807CB8
:102F30008EBD0DB407FEFDCFF80180818EBD0DB4AE
:102F400007FEFDCF3196EA15FB05B9F7409A2E5FD3
:102F50003F4F4E5F5F4FE1E02E313E0711F681E0BB
:102F600090E09A83898340988EEC8EBD0DB407FE65
:102F7000FDCF80E88EBD0DB407FEFDCFF801808146
:102F80008EBD0DB407FEFDCF3196EA15FB05B9F7EE
:102F9000409A40988EE98EBD0DB407FEFDCF80E8C3
:102FA0008EBD0DB407FEFDCFF80180818EBD0DB43E
:102FB00007FEFDCF0F5F1F4F0A151B05A9F7409AAB
:102FC00022960FB6F894DEBF0FBECDBFDF91CF9132
:102FD0001F910F91FF90EF90DF90CF90BF90AF9037
:102FE0009F908F907F906F9008951F93CF93DF9362
:102FF000EC01162F8091ED069091EE060E94672558
:10300000409888E08EBD0DB407FEFDCF409A4098F1
:1030100088E08EBD0DB407FEFDCF409A812F0E943F
:103020006D0ED093F306C093F2068091ED06909159
:10303000EE060E941524DF91CF911F9108951F93F2
:10304000182F8091ED069091EE060E946725812F42
:103050000E946D0E8091ED069091EE060E9415245F
:103060001F910895DF92EF92FF920F931F93CF93DA
:10307000DF93CDB7DEB722970FB6F894DEBF0FBE51
:10308000CDBF8C01D62E5A834983790164E181E05A
:103090000E949A239093EE068093ED06892B31F4DB
:1030A0000E94E126682F8FE00E94D1218091ED06D9
:1030B0009091EE060E9467258F3F21F48AE891E007
:1030C0000E94F01D159A88EE93E00E94511E1698FA
:1030D00081E090E00E94511E169A84E690E00E94E2
:1030E000511EF894409881E08EBD0DB407FEFDCFCF
:1030F000409A82EE92E09093F1068093F006409819
:1031000081E18EBD0DB407FEFDCF82E08EBD0DB412
:1031100007FEFDCF82EE8EBD0DB407FEFDCF409AB7
:10312000409882E18EBD0DB407FEFDCF85E08EBDD7
:103130000DB407FEFDCF1EBC0DB407FEFDCF409AB7
:1031400040988CE18EBD0DB407FEFDCF1EBC0DB4C2
:1031500007FEFDCF8FE78EBD0DB407FEFDCF409A71
:10316000409889E18EBD0DB407FEFDCF81E08EBD94
:103170000DB407FEFDCF84EC8EBD0DB407FEFDCF70
:10318000409A409887E18EBD0DB407FEFDCF8AE1DD
:103190008EBD0DB407FEFDCF86E58EBD0DB407FED6
:1031A000FDCF409A84EF91E00E94402F409888EE36
:1031B0008EBD0DB407FEFDCF80E88EBD0DB407FEB9
:1031C000FDCFFE0131969E012D5F3F4F80818EBD68
:1031D0000DB407FEFDCF3196E217F307B9F7409A19
:1031E00084EF91E00E94402F78948D2D0E946D0E07
:1031F00078941093F3060093F20689819A81909354
:10320000F7068093F606F092F906E092F80610921F
:10321000F4061092FA060E948C0E8091ED069091B1
:10322000EE060E9415248F3F39F48DE591E00E944F
:10323000F01D82E00E940C211092FD061092EF0614
:103240001092FE0622960FB6F894DEBF0FBECDBFD9
:10325000DF91CF911F910F91FF90EF90DF90089534
:103260002091160780910407281781F0E22FFF278D
:10327000EB5FF84FE081822F8F5F809316078031DC
:1032800011F4109216078E2F992708958091C80087
:1032900087FFFCCF8091C8008F778093C800809112
:1032A000CE0099270895882351F48091C000992772
:1032B00087FD90958827990F881F99270895813059
:1032C00019F080E090E0089520E030E0909116073A
:1032D00080910407981711F021E030E0C9010895AA
:1032E00085B7806185BF86E084B987E085B981E0D4
:1032F00087B988B98CE38DB98BE08AB98EE38EB932
:1033000088E781B980E482B908950E94701980E548
:103310008CBD81E08DBD08958F3F09F47FC0482F9B
:1033200055279A012770307022303105A9F12330DA
:10333000310544F42115310589F02130310509F0BA
:103340006DC01CC02430310509F446C0243031055D
:103350009CF12530310509F061C04EC022B1A3E0D7
:1033600056954795AA95E1F781E090E002C0880F55
:10337000991F4A95E2F7282B22B94DC085B1F3E099
:1033800056954795FA95E1F702C0220F331F4A95EB
:10339000E2F7822B85B93FC028B1E3E05695479507
:1033A000EA95E1F781E090E002C0880F991F4A9505
:1033B000E2F7282B28B92FC02BB173E0569547951B
:1033C0007A95E1F781E090E002C0880F991F4A9555
:1033D000E2F7282B2BB91FC02EB163E05695479515
:1033E0006A95E1F781E090E002C0880F991F4A9545
:1033F000E2F7282B2EB90FC021B333E0569547953D
:103400003A95E1F781E090E002C0880F991F4A9554
:10341000E2F7282B21BB81E090E008958FEF9FEF2A
:1034200008958F3F09F486C0482F55279A012770C9
:10343000307022303105C1F12330310544F42115BB
:10344000310589F02130310509F074C01DC02430E8
:10345000310509F44BC024303105BCF1253031056C
:1034600009F068C054C022B173E0569547957A952B
:10347000E1F781E090E002C0880F991F4A95E2F7DA
:103480008095822382B953C095B163E056954795E4
:103490006A95E1F702C0220F331F4A95E2F7822FA7
:1034A0008095892385B943C028B133E05695479567
:1034B0003A95E1F781E090E002C0880F991F4A95A4
:1034C000E2F78095822388B932C02BB193E05695FC
:1034D00047959A95E1F781E090E002C0880F991F27
:1034E0004A95E2F7809582238BB921C02EB183E003
:1034F000569547958A95E1F781E090E002C0880FE4
:10350000991F4A95E2F7809582238EB910C021B3A6
:10351000B3E056954795BA95E1F781E090E002C097
:10352000880F991F4A95E2F78095822381BB81E03D
:1035300090E008958FEF9FEF08958F3FA9F1282F16
:103540003327C9018770907082309105A9F08330CC
:1035500091052CF4009761F0019731F50BC0843090
:10356000910571F0843091054CF00597E9F40AC09B
:1035700080B109C083B107C086B105C089B103C05D
:103580008CB101C08FB19927E3E036952795EA9574
:10359000E1F702C0959587952A95E2F7992787FD6F
:1035A00090958170907008958FEF9FEF08958F3FF1
:1035B00009F403C1282F3327A90147705070423006
:1035C000510509F45CC04330510544F441155105DF
:1035D00091F04130510509F0F0C034C0443051053C
:1035E00009F49BC0443051050CF470C045305105BE
:1035F00009F0E3C0B9C080B1A90173E056954795C1
:103600007A95E1F79927042E02C0959587950A943B
:10361000E2F780FD0BC022B181E090E002C0880F8C
:10362000991F4A95E2F7282B22B9C4C022B181E044
:1036300090E002C0880F991F4A95E2F78095822397
:1036400082B9B8C083B163E0369527956A95E1F7F2
:103650009927022E02C0959587950A94E2F702C039
:10366000440F551F2A95E2F780FD03C085B1842BD6
:1036700004C095B1842F8095892385B99BC086B1FC
:10368000A90193E0569547959A95E1F79927042E5D
:1036900002C0959587950A94E2F780FD0BC028B18A
:1036A00081E090E002C0880F991F4A95E2F7282B2D
:1036B00028B980C028B181E090E002C0880F991F2E
:1036C0004A95E2F78095822388B974C089B1A9012F
:1036D000B3E056954795BA95E1F79927042E02C0B5
:1036E000959587950A94E2F780FD0BC02BB181E098
:1036F00090E002C0880F991F4A95E2F7282B2BB95A
:1037000059C02BB181E090E002C0880F991F4A9503
:10371000E2F7809582238BB94DC08CB1A901A3E05B
:1037200056954795AA95E1F79927042E02C09595DD
:1037300087950A94E2F780FD0BC02EB181E090E0FE
:1037400002C0880F991F4A95E2F7282B2EB932C084
:103750002EB181E090E002C0880F991F4A95E2F7F0
:10376000809582238EB926C08FB1A901F3E05695CA
:103770004795FA95E1F79927042E02C0959587950C
:103780000A94E2F780FD0BC021B381E090E002C013
:10379000880F991F4A95E2F7282B21BB0BC021B354
:1037A00081E090E002C0880F991F4A95E2F780956A
:1037B000822381BB81E090E008958FEF9FEF089511
:1037C0008F3F09F412C1482F5527662309F090C096
:1037D000CA01877090708230910509F43EC0833031
:1037E00091053CF4009789F08130910509F0FDC006
:1037F00021C08430910509F454C0843091050CF443
:103800003EC0059709F0F1C05EC031B1B3E05695F6
:103810004795BA95E1F781E090E002C0880F991FC3
:103820004A95E2F7282F2095232321B922B1822B34
:1038300082B9D8C024B1A3E056954795AA95E1F77F
:1038400002C0880F991F4A95E2F7982F809582232E
:1038500084B985B1982B95B9C5C037B1F3E05695B9
:103860004795FA95E1F781E090E002C0880F991F33
:103870004A95E2F7282F2095232327B935C03AB17E
:10388000E3E056954795EA95E1F781E090E002C0C4
:10389000880F991F4A95E2F7282F209523232AB9EC
:1038A00023C03DB173E0569547957A95E1F781E0E5
:1038B00090E002C0880F991F4A95E2F7282F2095C3
:1038C00023232DB911C030B363E0569547956A950F
:1038D000E1F781E090E002C0880F991F4A95E2F776
:1038E000282F2095232320BB25B1822B85B97AC0B0
:1038F0009A012770307022303105A9F1233031054B
:1039000044F42115310589F02130310509F06DC0ED
:103910001CC02430310509F446C0243031059CF127
:103920002530310509F061C04EC021B133E0569514
:1039300047953A95E1F781E090E002C0880F991F22
:103940004A95E2F7282B21B94DC084B193E05695F2
:1039500047959A95E1F702C0220F331F4A95E2F787
:10396000822B84B93FC027B1B3E056954795BA95ED
:10397000E1F781E090E002C0880F991F4A95E2F7D5
:10398000282B27B92FC02AB1A3E056954795AA95B1
:10399000E1F781E090E002C0880F991F4A95E2F7B5
:1039A000282B2AB91FC02DB1F3E056954795FA95FB
:1039B000E1F781E090E002C0880F991F4A95E2F795
:1039C000282B2DB90FC020B3E3E056954795EA9513
:1039D000E1F781E090E002C0880F991F4A95E2F775
:1039E000282B20BB81E090E008958FEF9FEF089592
:1039F000882319F08FEF9FEF089580B1992787FDF5
:103A00009095809590958827990F881F99270895FC
:103A1000009711F484E109C08130910511F48CE123
:103A200004C08230910531F484E20E94D71A81E00B
:103A300090E00895039719F08FEF9FEF08958CE2BF
:103A40000E94D71A81E090E00895009711F484E174
:103A500009C08130910511F48CE104C082309105D8
:103A600031F484E20E948C1981E090E0089503977C
:103A700019F08FEF9FEF08958CE20E948C1981E07E
:103A800090E00895009711F484E109C08130910518
:103A900011F48CE104C08230910531F484E20E947B
:103AA000111A81E090E00895039719F08FEF9FEFCE
:103AB00008958CE20E94111A81E090E00895882315
:103AC00019F085B78F7E02C085B7806185BF81E020
:103AD00090E00895982F8091C00085FFFCCF8091E1
:103AE000C0008F7D8093C0009093C6000895982FEA
:103AF0008091C80085FFFCCF9093CE000895292FB8
:103B000033272093C5008093C40086E08093C200D1
:103B1000E1ECF0E080818B7F8083A0ECB0E08C91C1
:103B200082608C938081886180830895292F332758
:103B30002093CD008093CC0086E08093CA00E9EC0E
:103B4000F0E080818B7F8083A8ECB0E08C91826074
:103B50008C9380818861808308958091C00087FF65
:103B6000FCCF8091C0008F778093C0008091C60009
:103B7000992708950E94961D60E379E187E79DE10A
:103B80000E94BF349093BD078093BC0760E379E146
:103B900087E79DE10E94BF349093BB078093BA07EB
:103BA0000E94D822809315078F3F19F48EE00E945F
:103BB000D82110921607109204078091C9008068DE
:103BC0008093C9000895809115078F3F19F48EE006
:103BD0000E94D82180911507992787FD9095089517
:103BE000CF93DF93EC0107C06091BC077091BD07D4
:103BF00099270E940D35FE01219684918823A1F713
:103C0000DF91CF9108951F920F920FB60F9211245A
:103C10002F933F934F935F936F937F938F939F93D4
:103C2000AF93BF93EF93FF938091C9008F778093F9
:103C3000C9008091C80087FFFCCF8091C8008F77B2
:103C40008093C8009091CE0080910407E82FFF2751
:103C5000EB5FF84F90838F5F80930407803111F4FE
:103C600010920407809115070E9469248091C80072
:103C70008F778093C8008091C90080688093C900C5
:103C8000FF91EF91BF91AF919F918F917F916F9134
:103C90005F914F913F912F910F900FBE0F901F900A
:103CA000189500000000000000000197D1F708956A
:103CB000FC01A7E0B0E00E946F37802D808381E097
:103CC00090E00895FC018081A7E0B0E0082E0E94FA
:103CD000773781E090E00895DC010E946F37802DF6
:103CE00099270895FC01A0E0B0E00E946F37402DB5
:103CF0004383A1E0B0E00E946F37802D8283A2E071
:103D0000B0E00E946F37302D3183A3E0B0E00E9415
:103D10006F37902D9083A4E0B0E00E946F37202D84
:103D2000830F840F890F281719F481E090E008951C
:103D30008FEF9FEF0895FC01A5E0B0E00E946F3780
:103D4000802D808381E090E00895FC01A6E0B0E042
:103D50000E946F37802D808381E090E00895AC0150
:103D600020E030E0D90118960E946F37802DFA01CB
:103D7000E20FF31F80832F5F3F4F2031310591F712
:103D800081E090E00895DC01062E0E9477370895C7
:103D9000FC018081A6E0B0E0082E0E94773781E028
:103DA00090E00895AC0120E030E0D9011896FA01C6
:103DB000E20FF31F8081082E0E9477372F5F3F4F5D
:103DC0002031310591F781E090E00895F89408954D
:103DD0007894089585E690E008950E942F2C089528
:103DE000EF92FF920F931F93CF93DF93EC018B0120
:103DF0007A018985823021F080918407888301C00F
:103E0000188280918407833020F060E087E00E9470
:103E1000D1218985823029F0809184078F5F80933A
:103E2000840780918407882319F481E080938407B4
:103E30008881992787FD9095FC0145E0EE0FFF1FD3
:103E40004A95E1F7E80FF91FE75EF84F1183008309
:103E50008881992787FD9095FC0135E0EE0FFF1FC3
:103E60003A95E1F7E80FF91FE75EF84F88858287FA
:103E70008881992787FD9095FC0125E0EE0FFF1FB3
:103E80002A95E1F7E80FF91FE75EF84F83E0818795
:103E90002881822F992787FD9095FC0105E0EE0F80
:103EA000FF1F0A95E1F7E80FF91FE75EF84F20873B
:103EB0008881992787FD9095FC0115E0EE0FFF1F83
:103EC0001A95E1F7E80FF91FE75EF84F15820881B0
:103ED000112707FD10952B853C854D855E856F85E7
:103EE000788989899A890E94542AF801B5E0EE0FF1
:103EF000FF1FBA95E1F7E00FF11FE75EF84F948FCF
:103F0000838F0881112707FD10952B8D3C8D4D8DDA
:103F10005E8D6F8D78A189A19AA10E94542AF80123
:103F2000A5E0EE0FFF1FAA95E1F7E00FF11FE75E96
:103F3000F84F968B858B8881992787FD9095FC019A
:103F400075E0EE0FFF1F7A95E1F7E80FF91FE75EC6
:103F5000F84F85899689238D348D820F931F908F1A
:103F6000878B0881112707FD10952B893C894D8986
:103F70005E896F89788D898D9A8D0E94542AF80107
:103F800065E0EE0FFF1F6A95E1F7E00FF11FE75EB6
:103F9000F84F968F858F8881992787FD9095FC0132
:103FA00055E0EE0FFF1F5A95E1F7E80FF91FE75EA6
:103FB000F84F858D968D928F818F8881992787FD07
:103FC0009095FC0145E0EE0FFF1F4A95E1F7E80FE1
:103FD000F91FE75EF84F81E090E090A3878F88811A
:103FE000992787FD9095FC0135E0EE0FFF1F3A956C
:103FF000E1F7E80FF91FE75EF84FF382E28288816C
:10400000992787FD9095FC0125E0EE0FFF1F2A956B
:10401000E1F7E80FF91FE75EF84F81E0848781E060
:1040200090E0DF91CF911F910F91FF90EF90089555
:104030008F929F92AF92BF92CF92DF92EF92FF92B8
:104040000F931F93CF93DF9361E2A62E67E0B62E06
:10405000CC24DD244501EC2CF501F080FFEFFF16A8
:1040600091F0E40100E010E0E01639F08881F816E4
:1040700021F46F2D85E00E94D1210F5F1F4FA19683
:104080000330110589F70894C11CD11C81E290E02E
:10409000A80EB91E93E0C916D104E9F60E94F625D0
:1040A000282F332727FD3095F90155E0EE0FFF1F2C
:1040B0005A95E1F7E20FF31FE75EF84F3285309330
:1040C000970721E28202C0011124875E984F9093E6
:1040D0009607809395079093870780938607309380
:1040E00088070E942E330E9414330E945233FFCF60
:1040F0000F931F93CF93DF93CDB7DEB7A3970FB680
:10410000F894DEBF0FBECDBF0E94D82280938507F2
:104110008F3F21F460E08EE00E94D1210E94853221
:10412000882321F460E086E00E94D1211092880764
:1041300010929607109295071092870710928607A3
:1041400010929707109294078FEF80937E078093C9
:10415000800780937F0780938107809383078093F4
:10416000820793E690932307809321079093440757
:10417000809342079093650780936307E8E9F7E02F
:10418000CF01059694838383F783E683FC0127E0C0
:10419000873A9207A9F710929A07109299071092FE
:1041A000AB071092AA0710928B0710928A070F97FD
:1041B000909318078093170765E17CE28E010F5FEB
:1041C0001F4FC8010E94D23240E850E061E176E022
:1041D000C8010E94333385E58093110619861C8E31
:1041E0001D8E1E8E1F8E18A219A21AA21BA291E06C
:1041F000988782E08A879B87C8010E94DF28A39660
:104200000FB6F894DEBF0FBECDBFDF91CF911F91E7
:104210000F910895F894FFCFE0919507F0919607DC
:1042200084870895E0919507F091960784859927F2
:104230000895DC01FB0180910206882319F480E0D7
:1042400090E008958083809115038C9381E090E045
:1042500008951F9380910206882309F49EC00E944E
:10426000E61E0E94E61E82E793E00E94F01D809108
:10427000150399279F938F9387E992E09F938F93DC
:104280000E943A358EE693E00E94F01D0F900F9049
:104290000F900F9080910206843110F01092020668
:1042A000809102069927AA27BB27FC013197E231AA
:1042B000F105F0F5EA59FF4FEE0FFF1F0590F4915D
:1042C000E02D099487E493E035C083E393E032C0A6
:1042D0008DE193E02FC082E093E02CC08CEE92E061
:1042E00029C084ED92E026C081EC92E023C08EEAE2
:1042F00092E020C080E992E01DC08BE692E01AC0F7
:104300008FE592E017C084E492E014C085E392E068
:1043100011C084E292E00EC080E192E00BC080EF19
:1043200091E008C088ED91E005C08DEB91E002C0FE
:1043300086EB91E00E94F01D6091BC077091BD0773
:104340008DE090E00E940D356091BC077091BD0733
:104350008AE090E00E940D3582E090E00E94421DCC
:1043600083E090E00E94251D10E088EE93E00E941B
:10437000402F1F5F1436C9F783E090E00E94421D72
:1043800082E090E00E94251D10E088EE93E00E94FC
:10439000402F1F5F1436C9F7DFCF80E090E01F91F8
:1043A000089580930206609315030E9429210895C1
:1043B00080930206E0919507F0919607808580939F
:1043C00015030E9429210895992787FD9095FC01E6
:1043D00025E0EE0FFF1F2A95E1F7E80FF91FE75ED2
:1043E000F84FA281B3818C91853529F085E58C93B6
:1043F0008FEF9FEF0895808191818050924218F451
:1044000081E090E0089582E10E94D8218FEF9FEF34
:1044100008956F927F928F929F92AF92BF92CF92A8
:10442000DF92EF92FF920F931F93CF93DF938EE76C
:1044300093E00E94F01DE0919507F091960780852A
:10444000992787FD90959F938F938AE992E09F9398
:104450008F930E943A35E0919507F091960702817B
:1044600013811F930F9383EA92E09F938F930E948F
:104470003A35F801808199279F938F9350EBC52E91
:1044800052E0D52EDF92CF920E943A35E091950707
:10449000F0919607808191819F938F934DEBE42E4D
:1044A00042E0F42EFF92EF920E943A3580919507F8
:1044B000909196079F938F9307EC12E01F930F93B1
:1044C0000E943A35C9E1D7E0AA24BB248DB79EB734
:1044D00044960FB6F8949EBF0FBE8DBF37ED632E86
:1044E00032E0732E4601670178010A811B811F9318
:1044F0000F93BF92AF927F926F920E943A35F8016C
:10450000808199279F938F939F928F920E943A3533
:10451000888199819F938F93DF92CF920E943A3541
:10452000DF93CF93FF92EF920E943A350894A11C3B
:10453000B11CA1968DB79EB742960FB6F8949EBF58
:104540000FBE8DBF93E0A916B10479F6DF91CF912C
:104550001F910F91FF90EF90DF90CF90BF90AF90A1
:104560009F908F907F906F900895CF93DF93E0910D
:104570009507F0919607C281D3818881853539F0FE
:104580000E94092281E00E94D82185E58883E0917C
:104590009507F0919607808191818050924228F092
:1045A0000E94092282E10E94D821DF91CF910895D3
:1045B0004091F4035091F5036091F6037091F70375
:1045C00020E030E0DB01CA01022E04C0B695A795B9
:1045D000979587950A94D2F781709070892BE9F4AA
:1045E00081E090E0A0E0B0E0022E04C0880F991FA7
:1045F000AA1FBB1F0A94D2F7842B952BA62BB72B8F
:104600008093F4039093F503A093F603B093F7031C
:10461000822F992787FD909508952F5F3F4F203275
:10462000310581F68FEF9FEF0895E0919507F091A6
:10463000960765857685878590890895EF92FF9224
:104640000F931F9321E030E040E050E004C0220FC0
:10465000331F441F551F8A95D2F7E0919507F091BB
:104660009607E584F68407851089DA01C9018E2151
:104670009F21A023B1230097A105B10519F48FEF65
:104680009FEF1AC02095309540955095E222F32275
:1046900004231523E586F6860787108B8189928986
:1046A000A389B48982239323A423B523818B928B7E
:1046B000A38BB48B81E090E01F910F91FF90EF905E
:1046C0000895682F772767FD70958091F403909186
:1046D000F503A091F603B091F703062E04C0B6953A
:1046E000A795979587950A94D2F781709070892B3A
:1046F00019F48FEF9FEF0895E0919507F0919607D9
:1047000021E030E040E050E004C0220F331F441F9E
:10471000551F6A95D2F785859685A785B089822B26
:10472000932BA42BB52B85879687A787B08B81E029
:1047300090E00895382F80919407882319F080E045
:1047400090E0089580917E078F3F11F420E007C02C
:10475000809181078F3F11F022E001C021E0822F7C
:104760009927FC01EE0FFF1FE80FF91FE258F84FE1
:1047700032833083618381E08093940783E0289FB4
:10478000C00111248258984F089527E08E37920770
:1047900011F480E007C08158974019F08FEF9FEF28
:1047A000089581E0992787FD909508950E94C5237B
:1047B0008F3F11F481E002C0823029F40E940C2165
:1047C0008FEF9FEF0895992787FD9095FC01EE0FDD
:1047D000FF1FE80FF91FE258F84F8FEF80838283A5
:1047E00081838091940781508093940781E090E0C9
:1047F00008950E94C5238F3F11F481E002C08230EA
:1048000029F40E940C218FEF9FEF0895992787FDCF
:104810009095FC01EE0FFF1FE80FF91FE258F84FCB
:104820008281992787FD909508951F93CF93DF93F9
:104830000E94C523182F8F3F11F481E003C08230FE
:1048400031F482E00E940C218FEF9FEF3EC0992748
:1048500087FD9095EC01CC0FDD1FC80FD91FC25802
:10486000D84F9A818881981774F50E94E61E8A8134
:104870008F5F8A83E0919507F09196071482E0E2BA
:10488000F7E0212F332727FD3095432F532F8081C9
:10489000823091F482859385A485B585821793072C
:1048A000A407B50749F483E0828317861686108231
:1048B0001286138614861586B19687E0E338F807CA
:1048C00031F70E94E81E81E090E0DF91CF911F91C7
:1048D0000895DF92EF92FF920F931F93E1E0EE2E87
:1048E000F12C012D112D04C0EE0CFF1C001F111F17
:1048F0008A95D2F78091F4039091F503A091F60385
:10490000B091F7038E219F21A023B1230097A10529
:10491000B10511F481E043C00E94E61EE0E2F7E039
:10492000DD2480818130B9F482859385A485B585A5
:104930008E219F21A023B1230097A105B10559F035
:1049400083E08283178616861082E286F3860487C8
:104950001587DD24D39480818230A1F482859385EC
:10496000A485B5858E159F05A007B10759F483E08E
:104970008283178616861082128613861486158601
:10498000DD24D394B19687E0E338F80751F60E940E
:10499000E81EDD2019F081E090E005C082E00E9471
:1049A0000C218FEF9FEF1F910F91FF90EF90DF9001
:1049B0000895EF92FF920F931F93CF93DF93C82F29
:1049C000DD27C7FDD095F1E0EF2EF12C012D112D43
:1049D0000C2E04C0EE0CFF1C001F111F0A94D2F70E
:1049E0008091F4039091F503A091F603B091F70341
:1049F0008E219F21A023B1230097A105B10519F4B1
:104A00008FEF9FEF5DC00E94E61EE9E1F7E0A8018D
:104A10009701209530954095509580858F3F41F1C5
:104A200085859685A785B0898E159F05A007B10756
:104A300039F4118A128A138A148A178283E08187D3
:104A400085859685A785B08982239323A423B523E2
:104A500085879687A787B08B81899289A389B48936
:104A600082239323A423B523818B928BA38BB48BB6
:104A7000B19687E0EC37F80781F62EEF3FEF4FEF66
:104A80005FEF04C0220F331F441F551FCA95D2F792
:104A90008091F4039091F503A091F603B091F70390
:104AA00082239323A423B5238093F4039093F503E7
:104AB000A093F603B093F7030E94E81E81E090E014
:104AC000DF91CF911F910F91FF90EF9008951F9369
:104AD000CF93DF930E94C523182F8F3F11F481E0FD
:104AE00003C0823031F482E00E940C218FEF9FEFEF
:104AF0003EC00E94E61E812F992787FD9095EC010C
:104B0000CC0FDD1FC80FD91FC258D84F8A81882308
:104B1000D9F4E0919507F0919607878182608783A9
:104B2000E0919507F0919607812F992787FD909541
:104B3000A92FB92F818B928BA38BB48B0E94E81E77
:104B400080E090E00E940C288A8181508A83E09165
:104B50009507F091960789818387E0919507F091F9
:104B6000960781E084830E94E81E81E090E0DF9157
:104B7000CF911F9108959B01AC01E0919507F091B1
:104B8000960785859685A785B08982239323A423DC
:104B9000B5230097A105B10529F460E070E080E03D
:104BA00090E00895218B328B438B548B81E0878377
:104BB0000090850704C056954795379527950A9428
:104BC000D2F7C90181709070892B19F00E94A72734
:104BD00004C080E090E00E940C28E0919507F091DD
:104BE000960761897289838994890895E0918A077B
:104BF000F0918B07808199270895E0918A07F091C1
:104C00008B0703C00380F481E02D3097D9F7089516
:104C1000CF93DF93482FC0911707D09118072097A3
:104C200009F47AC0A0918A07B0918B071097B9F167
:104C3000992787FD90959C0165E0220F331F6A95A7
:104C4000E1F7280F391F275E384F8C919927BC0157
:104C500055E0660F771F5A95E1F7680F791F675E79
:104C6000784FFB018481882329F09385F90182859F
:104C70009817A8F0F9018481882331F0FB0192850F
:104C8000F9018385981758F0FB019285F901828517
:104C9000981728F0FD01A381B4811097B1F64883DD
:104CA000E0911707F091180723813481309318079A
:104CB0002093170780918A0790918B07A817B9074F
:104CC000A1F4109731F0BC83AB831A821982FD01E5
:104CD00005C01C821B821A821982F901D283C1830A
:104CE000D0938B07C0938A0717C0FD018181928101
:104CF000A217B30751F09A838983BC83AB83818168
:104D00009281FC01D483C38304C01C821B829A83DA
:104D10008983FD01D283C183DF91CF910895CF9321
:104D2000DF93A0918A07B0918B07109709F446C0D2
:104D3000482F552747FD50958C9199278417950743
:104D400069F4ED01EB81FC81F0938B07E0938A0716
:104D50001282118216C0D901232B81F18C919927DF
:104D6000FD012381348184179507A9F7C181D28180
:104D70003C832B8383819481009719F0FC01D283BB
:104D8000C183E0911707F0911807309741F4B09371
:104D90001807A0931707ED011C821B8209C0ED01C3
:104DA000FC83EB83B283A183B0931807A09317070A
:104DB000E0911707F091180712821182DF91CF91CD
:104DC0000895E0919507F0919607808599270895B9
:104DD0000E94C732E0919507F0919607858188235C
:104DE000B9F70895FF920F931F93CF93DF93CDB739
:104DF000DEB728970FB6F894DEBF0FBECDBF29836C
:104E00003A834B835C836D837E838F8398870E9474
:104E1000B5220E94E61EE0919507F091960781E089
:104E2000858381E090E090A3878F0E940630F82E62
:104E300029813A814B815C816D817E818F8198854A
:104E40000E94542AE0919507F09196070F2D1127A3
:104E5000800F911F968B858B87EF8F1570F00E94C6
:104E6000922F0E5F1F4F99278017910734F08F2DD7
:104E70008E5F8093E3060E94972F0E94E81E0E9497
:104E8000E82681E090E028960FB6F894DEBF0FBECA
:104E9000CDBFDF91CF911F910F91FF9008958F9219
:104EA0009F92AF92BF92CF92DF92EF92FF920F93B9
:104EB0001F93CF93DF93CDB7DEB760970FB6F8940B
:104EC000DEBF0FBECDBF29873A874B875C876D87D2
:104ED0007E878F87988BCE0101960E94BA2B89809E
:104EE0009A80AB80BC80CD80DE80EF80F88409851D
:104EF0001A852B853C854D855E856F857889CE0129
:104F000009960E943529882319F48FEF9FEF0CC072
:104F100029853A854B855C856D857E858F85988949
:104F20000E94F22681E090E060960FB6F894DEBF12
:104F30000FBECDBFDF91CF911F910F91FF90EF90EA
:104F4000DF90CF90BF90AF909F908F9008951F9368
:104F50000E94E61EE0919507F091960781E0858317
:104F600086830E940630182F883F80F40E94922F7B
:104F7000212F33272E5F3F4F99278217930734F055
:104F8000812F8E5F8093E3060E94972F0E94E81E78
:104F90000E94E82681E090E01F9108951F93CF932F
:104FA000DF93CDB7DEB728970FB6F894DEBF0FBEFC
:104FB000CDBF29833A834B835C836D837E838F834C
:104FC00098870E94E61E0E940630182F29813A8198
:104FD0004B815C816D817E818F8198850E94542AEE
:104FE0008330910518F48FEF9FEF0CC0E091950787
:104FF000F0919607810F911D968B858B0E94E81E7C
:1050000081E090E028960FB6F894DEBF0FBECDBFCA
:10501000DF91CF911F9108950F931F938C010E94F0
:10502000E61EE0919507F091960781E08583168B47
:10503000058B0E940630082F883F80F40E94922F33
:10504000202F33272E5F3F4F99278217930734F085
:10505000802F8E5F8093E3060E94972F0E94E81EA8
:105060000E94E82681E090E01F910F910895FF9241
:105070000F931F93CF93DF938C010E94E61EE09164
:105080009507F091960781E085830E940630F82EFF
:10509000E0919507F0919607C82FDD270C0F1D1F93
:1050A000168B058B87EF8F1568F00E94922F229642
:1050B00099278C179D0734F08F2D8E5F8093E30620
:1050C0000E94972F0E94E81E0E94E82681E090E04F
:1050D000DF91CF911F910F91FF9008951F93CF9370
:1050E000DF93EC010E94B522209711F4C1E0D0E0DB
:1050F0000E94E61EE0919507F091960781E0858376
:10510000D0A3C78F0E940630182F883F80F40E94DA
:10511000922F212F33272E5F3F4F99278217930716
:1051200034F0812F8E5F8093E3060E94972F0E94B8
:10513000E81E0E94E82681E090E0DF91CF911F9168
:1051400008951F930E94B5220E94E61EE0919507E4
:10515000F091960781E090E090A3878F81E08583AE
:105160000E940630182F883F80F40E94922F212F32
:1051700033272E5F3F4F99278217930734F0812FF3
:105180008E5F8093E3060E94972F0E94E81E0E9484
:10519000E82681E090E01F910895E0919507F09155
:1051A000960780850E948F26E0919507F0919607DB
:1051B00084E081870E94A12881E090E00895EF9229
:1051C000FF920F931F93CF93DF93EC014B815C8190
:1051D00069817A818D819E810E94D632BC018F8146
:1051E000882369F04B815C81EE24FF2400E010E00D
:1051F00020E030E0CE010E94F01E1F8216C08881A0
:10520000992787FD9095FC01A5E0EE0FFF1FAA9559
:10521000E1F7E80FF91FE75EF84F8185833019F059
:105220008FEF9FEF1BC0718360838881992787FD73
:105230009095FC0175E0EE0FFF1F7A95E1F7E80FFE
:10524000F91FE75EF84F85899689892B29F482E05A
:10525000818788810E94082681E090E0DF91CF91CC
:105260001F910F91FF90EF9008958F929F92AF92B0
:10527000BF92CF92DF92EF92FF920F931F93CF9343
:10528000DF93CDB7DEB760970FB6F894DEBF0FBEE1
:10529000CDBFFC0109831A832B833C834D835E833E
:1052A0006F83788789869A86AB86BC86CD86DE86B4
:1052B000EF86F88A2D813E814F81588589819A81B8
:1052C000AB81BC81AD84BE84CF84D888E984FA8464
:1052D0000B851C858E159F05A007B10708F43FC0FC
:1052E000E816F9060A071B0791F42A153B054C0539
:1052F0005D05A8F12A193B094C095D092483358312
:105300004683578310821182128213821CC02A1591
:105310003B054C055D05D0F40197A109B1098E1933
:105320009F09A00BB10B80839183A283B38320508C
:1053300036434546544C2A193B094C095D092483E0
:1053400035834683578381E090E00BC08E199F0917
:10535000A00BB10B80839183A283B383ECCF80E059
:1053600090E060960FB6F894DEBF0FBECDBFDF9120
:10537000CF911F910F91FF90EF90DF90CF90BF9052
:10538000AF909F908F900895FC0113C080509A4C6D
:10539000AA49BB4384839583A683B7838081918187
:1053A000A281B3810196A11DB11D80839183A28347
:1053B000B38384819581A681B78180302AEC9207DE
:1053C0002AE9A2072BE3B20708F708958F929F926C
:1053D000AF92BF92CF92DF92EF92FF920F931F9303
:1053E000CF93DF93CDB7DEB760970FB6F894DEBFEB
:1053F0000FBECDBFFC0109831A832B833C834D83F1
:105400005E836F83788789869A86AB86BC86CD86D5
:10541000DE86EF86F88AAD80BE80CF80D884ED84AA
:10542000FE840F85188989859A85AB85BC8529817D
:105430003A814B815C81820F931FA41FB51F80832B
:105440009183A283B383EA0CFB1C0C1D1D1DE48217
:10545000F58206831783CF010E94C42981E090E082
:1054600060960FB6F894DEBF0FBECDBFDF91CF912F
:105470001F910F91FF90EF90DF90CF90BF90AF9072
:105480009F908F90089560938C0770938D07809301
:105490008E0790938F072093900730939107409346
:1054A00092075093930708958F929F92AF92BF9265
:1054B000CF92DF92EF92FF920F931F93CF93DF93E0
:1054C000CDB7DEB728970FB6F894DEBF0FBECDBFBD
:1054D00029833A834B835C836D837E838F83988794
:1054E0008D809E80AF80B884E980FA800B811C811A
:1054F000E114F1040105110501F180E09AECAAE93B
:10550000BBE3880E991EAA1EBB1EC501B40123EB86
:1055100036EE4EE050E00E94163769010894E1082B
:10552000F108010911098AE0EE0CFF1C001F111F90
:105530008A95D1F7CE0CDF1C09C0C501B40123EB5D
:1055400036EE4EE050E00E9416376901B60102C007
:105550006050744094E061307907D0F7882799272C
:1055600023EB36EE4EE050E00E94D036675A7C487E
:10557000884F9F4F681579058A059B0518F4089494
:10558000C11CD11CC60128960FB6F894DEBF0FBE11
:10559000CDBFDF91CF911F910F91FF90EF90DF90E2
:1055A000CF90BF90AF909F908F9008952F923F9291
:1055B0004F925F926F927F928F929F92AF92BF9223
:1055C000CF92DF92EF92FF920F931F93CF93DF93CF
:1055D000CDB7DEB728970FB6F894DEBF0FBECDBFAC
:1055E0007B018C0173708070907023EB36EE4EE07F
:1055F00050E00E94D0366D837E838F8398879AE037
:1056000016950795F794E7949A95D1F7E982FA826F
:105610000B831C83988529803A804B805C806D8049
:105620007E808F80222D332D442D552D662D772D94
:10563000882D28960FB6F894DEBF0FBECDBFDF9140
:10564000CF911F910F91FF90EF90DF90CF90BF907F
:10565000AF909F908F907F906F905F904F903F9012
:105660002F900895AF92BF92CF92DF92EF92FF9268
:105670000F931F93CF93DF93CDB7DEB728970FB665
:10568000F894DEBF0FBECDBF29833A834B835C8382
:105690006D837E838F839887AD80BE80CF80D884D2
:1056A000E980FA800B811C81E114F10401051105E8
:1056B00009F180E09AECAAE9BBE3A80EB91ECA1E64
:1056C000DB1EC601B50123EB36EE4EE050E00E9432
:1056D00016370894E108F108010911096AE0EE0C97
:1056E000FF1C001F111F6A95D1F7E20EF31E041F65
:1056F000151F0AC0C601B50123EB36EE4EE050E09F
:105700000E94163779018A01C801B70104C06050B0
:105710007440804090406130A4E07A07A0E08A079E
:10572000A0E09A07A0F723EB36EE4EE050E00E948F
:10573000D036675A7C48884F9F4F6A157B058C0589
:105740009D0528F40894E11CF11C011D111DC801E0
:10575000B70128960FB6F894DEBF0FBECDBFDF911C
:10576000CF911F910F91FF90EF90DF90CF90BF905E
:10577000AF900895EF92FF920F931F93CF93DF9313
:10578000EC0180918C0790918D07A0918E07B091CC
:105790008F0788839983AA83BB83E0909007F0905A
:1057A00091070091920710919307EC82FD820E837E
:1057B0001F830E9406309927AA27BB27BC01CD0171
:1057C00023EB36EE4EE050E00E94D036E60EF71E98
:1057D000081F191FEC82FD820E831F8313C08050A7
:1057E0009A4CAA49BB438C839D83AE83BF83888137
:1057F0009981AA81BB810196A11DB11D88839983DE
:10580000AA83BB838C819D81AE81BF8180302AECCD
:1058100092072AE9A2072BE3B20708F7DF91CF919D
:105820001F910F91FF90EF9008950E94B5220E9462
:10583000922F8B3018F481E0809389070E94C73241
:1058400080911106853519F088E00E94D821809159
:105850007E21853551F388E00E94D821E6CF8F92D2
:105860009F92AF92BF92CF92DF92EF92FF920F93EF
:105870001F93CF93DF930E94E61E0E944E2F0E943B
:10588000562F4C018AEF0E94972F6091E3067727ED
:105890008827992723EB36EE4EE050E00E94D03661
:1058A0007B018C018091900790919107A0919207C4
:1058B000B0919307E80EF91E0A1F1B1FC801B7011C
:1058C0000E941637A8019701261B370B480B590B6E
:1058D00080918C0790918D07A0918E07B0918F07D2
:1058E0001BC0E12C66E3F62E65E6062F64EC162F4E
:1058F000E20EF31E041F151FC801B70123EB36EE9D
:105900004EE050E00E941637A8019701261B370B86
:10591000480B590BD601C5015C016D010894A11C0F
:10592000B11CC11CD11C20306AEC36076AE946075D
:105930006BE35607B0F680938C0790938D07A09386
:105940008E07B0938F072093900730939107409371
:10595000920750939307E0919507F0919607858100
:10596000882319F18185843001F18781823029F003
:10597000882341F08681882311F485E001C083E00B
:1059800081870CC083E08187E0919507F0919607AD
:105990001782E0919507F09196071682E09195079E
:1059A000F091960780850E948F26E0919507F091EF
:1059B0009607858D968D892B91F16085662379F107
:1059C0008185843061F1218D328D8091E3069927A4
:1059D0002817390750F482E00E94D121E091950701
:1059E000F0919607128E118E04C0281B390B328F4E
:1059F000218FE0919507F09196071085818D928D0A
:105A0000892B69F4612F83E00E94D121E0919507F1
:105A1000F091960783E08187812F0E948F26C9E14C
:105A2000D7E000E61AEECC24DD244C2D88858F3F8C
:105A300009F489C01D82882391F18985843079F128
:105A40002D893E898091E30699272817390728F088
:105A5000281B390B3E8B2D8B02C01E8A1D8A2F8975
:105A6000388D2817390728F0281B390B388F2F8BD2
:105A70000EC06B8D7C8D8617970728F4681B790BF9
:105A8000788F6F8B04C00E94EF36988F8F8B8F8931
:105A9000988D892B21F48B8D9C8D988F8F8B898588
:105AA000833009F050C08D899E89892B09F043C04D
:105AB0008F818823A1F08E81882389F081E090E096
:105AC000A0E0B0E00090850704C0880F991FAA1FCE
:105AD000BB1F0A94D2F7898B9A8BAB8BBC8B1F822E
