:100000000C948B010C943C230C94AA010C94AA012F
:100010000C94AA010C94AA010C94AA010C94AA01B4
:100020000C94AA010C946E230C94AA010C94AA01BE
:100030000C94AA010C94A0210C94AA010C94A02168
:100040000C94AA010C94D3210C94AA010C94AA013B
:100050000C94AA010C94AA010C94AA010C94AA0174
:100060000C94AA010C94AA010C94AA010C94AA0164
:100070000C94AA010C94AA010C94AA010C94AA0154
:100080000C94DD210C94AA010C94AA010C94AA01F1
:100090000C94AA010C94AA010C94AA010C94AA0134
:1000A0000C94AA010C94AA010C94AA010C94AA0124
:1000B0000C94AA010C94AA010C94AA010C94AA0114
:1000C0000C94AA010C94AA010C94AA01821388131F
:1000D0008B138E13911394139A1397139D13A013DC
:1000E000A313A913AC13AF13B213A6137F13851375
:1000F0002A204552524F522072656164696E672012
:100100004D414320616464726573730D0A004D4173
:1001100043203D203078005374617274696E67200B
:1001200075702E2E2E0D0A00554E4B4F574E004621
:1001300061696C656420746F206372656174652009
:1001400053656D6170686F7265004661696C6564C6
:1001500020746F20637265617465205369676E61F6
:100160006C004B65726E656C2066756E6374696FAA
:100170006E206E6F7420696D706C656D656E746550
:10018000640044657669636520447269766572200F
:100190004572726F72005761746368646F672052B2
:1001A0006573746172740054696D6572204F766571
:1001B00072666C6F7700556E68616E646C65642062
:1001C000496E7465727275707420566563746F72CF
:1001D000004C6F7720566F6C7461676500457874CA
:1001E0007261205461736B20737461727465642C46
:1001F000206973206E726B5F6366672E68206F6B79
:100200003F0049646C65206F72204B65726E656CAF
:1002100020537461636B204F766572666C6F770054
:10022000556E65787065637465642052657374619A
:100230007274004475706C69636174656420546104
:10024000736B204944005363686564756C65722064
:100250004D69737365642057616B657570005461F7
:10026000736B20526573657276652056696F6C6199
:100270007465640052657365727665204572726FAD
:100280007220696E205363686564756C65720049FD
:100290006E76616C696420537461636B20506F6982
:1002A0006E746572005461736B20537461636B20CC
:1002B0004F766572666C6F7700537461636B20775D
:1002C0006173206E6F7420646566696E6564206179
:1002D00073206C6172676520656E6F7567682100B9
:1002E000293A20002A4E524B204552524F522800A4
:1002F0000D0A535441434B2044554D500D0A0045BF
:10030000464765666700202B2D2E30313233343559
:1003100036373839680011241FBECFEFD1E2DEBF77
:10032000CDBF12E0A0E0B2E0E2E1F1E500E00BBFFA
:1003300002C007900D92AE3CB107D9F715E0AEECC4
:10034000B2E001C01D92A03BB107E1F70E94360365
:100350000C9487280C940F221F93CF93DF9381E492
:1003600092E09093DC028093DB02C6EDD2E0CE01F6
:100370006DE773E040E850E00E94322411E01887F6
:100380001F8319871A871B861C861D861E8680E898
:1003900092EBA6EEBEE08F87988BA98BBA8B1B8A57
:1003A0001C8A1D8A1E8A1F8A188E198E1A8E1B8E11
:1003B0001C8E1D8E1E8E1F8E18A219A21AA2CE018F
:1003C0000E942A1B8DE192E0909388048093870419
:1003D000C2E8D4E0CE0169EF72E040E850E00E944C
:1003E000322482E088871F8319871A871B861C8620
:1003F0001D861E8680E095E6ADECBDE18F87988B6B
:10040000A98BBA8B1B8A1C8A1D8A1E8A80E091EEFA
:10041000A5EFB5E08F8B988FA98FBA8F1B8E1C8E9E
:100420001D8E1E8E1F8E18A219A21AA2CE010E9426
:100430002A1BDF91CF911F9108951F930E943719B6
:1004400000D000D0EDB7FEB7319620E032E0ADB776
:10045000BEB712963C932E931197828313820E940B
:100460009A26109156020F900F900F900F9081E0F6
:1004700090E00E94F70F812F0E94F70D0E94EE1A64
:10048000F6CFEF92FF920F931F93DF93CF930F92CC
:10049000CDB7DEB781ED92E00E943B11813009F0CB
:1004A00082C08EE091E00E94BA1000D000D0EDB77B
:1004B000FEB731960FE012E0ADB7BEB712961C93AF
:1004C0000E9311978091D402828313820E949A2600
:1004D000EDB7FEB73196ADB7BEB712961C930E932B
:1004E00011978091D302828313820E949A26EDB7DE
:1004F000FEB73196ADB7BEB712961C930E93119707
:100500008091D202828313820E949A26EDB7FEB7B1
:10051000319682E192E0ADB7BEB712969C938E936E
:1005200011978091D102828313820E949A260F90A4
:100530000F900F900F90CE0101960E942F1100D0C6
:1005400000D0EDB7FEB7319687E192E0ADB7BEB708
:1005500012969C938E9311978981828313820E94B5
:100560009A260F900F900F900F900E94371900D08D
:1005700000D0EDB7FEB7319623E232E0ADB7BEB79B
:1005800012963C932E931197828313820E949A268F
:1005900000E011E00F900F900F900F9092E3E92E82
:1005A00092E0F92E07C080EF90E00E94BA100E94FE
:1005B000EE1AF9CFC801602F0E94FC1000D000D0C5
:1005C00000D0EDB7FEB73196ADB7BEB71296FC922C
:1005D000EE921197C80180509140938382831583D6
:1005E00004830E949A260F5F1F4F8DB79EB7069611
:1005F0000FB6F8949EBF0FBE8DBF91E00031190772
:10060000C9F600E011E083E4E82E82E0F82EC8018C
:100610000E94711100D000D000D0EDB7FEB7319626
:10062000ADB7BEB71296FC92EE92119782831382F9
:10063000158304830E949A260F5F1F4F8DB79EB7C4
:1006400006960FB6F8949EBF0FBE8DBF91E00031A5
:100650001907E9F60091550280E090E00E94F70F3B
:10066000802F0E94F70D0E94EE1AF6CF0E94C30C55
:1006700087E090E00E949B1087E191E00E94BA1011
:100680000E94821280E090E00E94121081E090E0CF
:100690000E94121082E090E00E94121083E090E02D
:1006A0000E94121060E070E080E090E020E030E016
:1006B00040E050E00E94A71C0E94AC010E94301252
:1006C00080E090E0089590E09C012B503040220F94
:1006D000331F220F331F865A9E4B820F931FF894AD
:1006E000409828E12EBD0DB407FEFDCF9EBD0DB490
:1006F00007FEFDCF8EBD0DB407FEFDCF409A789466
:100700000895F89440981EBC0DB407FEFDCF8EB539
:10071000409A789486FFF5CF08958091BA040895A1
:10072000FC01409889EC8EBD0DB407FEFDCF80E83A
:100730008EBD0DB407FEFDCF82E08150DF01A80F12
:10074000B11D9C919EBD0DB407FEFDCF8823A9F776
:10075000409A40988BEC8EBD0DB407FEFDCF80E82B
:100760008EBD0DB407FEFDCF82E08150DF01A80FE2
:10077000B11D12969C9112979EBD0DB407FEFDCF40
:10078000882399F7409A80818093BB04818180936C
:10079000BC0482818093BD0483818093BE0408954C
:1007A000409889E18EBD0DB407FEFDCF83E08EBD7C
:1007B0000DB407FEFDCF86E08EBD0DB407FEFDCF64
:1007C000409A40988AE18EBD0DB407FEFDCF8EE0C1
:1007D0008EBD0DB407FEFDCF8EE08EBD0DB407FEBD
:1007E000FDCF409A81E08093AB040895409889E161
:1007F0008EBD0DB407FEFDCF81E08EBD0DB407FEAA
:10080000FDCF84EC8EBD0DB407FEFDCF409A109253
:10081000AB0408958091A9049091AA04089590E0F2
:100820008F719070806E906A409825E12EBD0DB456
:1008300007FEFDCF9EBD0DB407FEFDCF8EBD0DB4EE
:1008400007FEFDCF409A08958091AC049091AD04CD
:1008500098609093AD048093AC04409821E12EBD44
:100860000DB407FEFDCF9EBD0DB407FEFDCF8EBDBE
:100870000DB407FEFDCF409A08958091AC0490918D
:10088000AD04977F9093AD048093AC04409821E130
:100890002EBD0DB407FEFDCF9EBD0DB407FEFDCFEE
:1008A0008EBD0DB407FEFDCF409A089581E0809380
:1008B000B9048091AC049091AD0480619093AD0433
:1008C0008093AC04409821E12EBD0DB407FEFDCF0E
:1008D0009EBD0DB407FEFDCF8EBD0DB407FEFDCF4E
:1008E000409A08951092B9048091AC049091AD049F
:1008F0008F7E9093AD048093AC04409821E12EBD8F
:100900000DB407FEFDCF9EBD0DB407FEFDCF8EBD1D
:100910000DB407FEFDCF409A089581E08093B604A0
:10092000409883E08EBD0DB407FEFDCF409A4098FD
:1009300088E08EBD0DB407FEFDCF409A1092BF0433
:10094000089581E08093B604409883E08EBD0DB495
:1009500007FEFDCF409A409888E08EBD0DB407FE9B
:10096000FDCF409A1092BF0408951092B6044098AB
:1009700086E08EBD0DB407FEFDCF409A1092BF04F5
:10098000089589B190E026E0969587952A95E1F73C
:10099000817008958CB1881F8827881F089589B1B8
:1009A00090E036E0969587953A95E1F78170089545
:1009B000DF93CF9300D000D00F92CDB7DEB7679909
:1009C00002C080E00DC21092BA04679B1EC031992C
:1009D0001CC040988FE78EBD0DB407FEFDCF1EBC36
:1009E0000DB407FEFDCF8EB5409A409888E08EBDCD
:1009F0000DB407FEFDCF409A409888E08EBD0DB43F
:100A000007FEFDCF409A8FEFEBC140989FE79EBD58
:100A10000DB407FEFDCF1EBC0DB407FEFDCF9EB585
:100A2000409A9F77E1F440988FE78EBD0DB407FEA2
:100A3000FDCF1EBC0DB407FEFDCF8EB5409A409889
:100A400088E08EBD0DB407FEFDCF409A409888E047
:100A50008EBD0DB407FEFDCF409A8EEFC1C195301B
:100A60008CF0E091AE04F091AF04292F332727FDDD
:100A700030952B5030404481552747FD5095421703
:100A80005307ACF540988FE78EBD0DB407FEFDCF40
:100A900080E0292F332727FD309505C01EBC0DB4FB
:100AA00007FEFDCF8F5F482F50E04217530714F425
:100AB0003199F4CF409A40988FE78EBD0DB407FE70
:100AC000FDCF1EBC0DB407FEFDCF8EB5409A4098F9
:100AD00088E08EBD0DB407FEFDCF409A409888E0B7
:100AE0008EBD0DB407FEFDCF409A8DEF79C1E09128
:100AF000AE04F091AF049C509383882371F0E09191
:100B0000AE04F091AF048381992787FD909570E042
:100B10008617970711F08AEF63C140988FE78EBD63
:100B20000DB407FEFDCFFE013296CF0102961EBC2A
:100B30000DB407FEFDCF2EB52193E817F907B9F7DD
:100B4000409AE091AE04F091AF048A819B8145E028
:100B5000969587954A95E1F78170878340988FE74E
:100B60008EBD0DB407FEFDCF1EBC0DB407FEFDCF3C
:100B7000E091AE04F091AF048EB58083409A409826
:100B80008FE78EBD0DB407FEFDCF80E007C01EBC11
:100B90000DB407FEFDCF8F5F843011F03199F7CF90
:100BA000409A40988FE78EBD0DB407FEFDCF80E0E0
:100BB00090E01EBC0DB407FEFDCFE091AE04F091B5
:100BC000AF042EB5E80FF91F2183019682309105FD
:100BD00081F7409A8A8183FF56C040988FE78EBD87
:100BE0000DB407FEFDCFE5EAF4E01EBC0DB407FE30
:100BF000FDCF8EB5819384E0E93AF807B1F7409ACA
:100C0000409889E98EBD0DB407FEFDCF80E88EBD0A
:100C10000DB407FEFDCF82E08150E82FF0E0EB55E8
:100C2000FB4F90819EBD0DB407FEFDCF8823A1F739
:100C3000409A40988BE98EBD0DB407FEFDCF80E849
:100C40008EBD0DB407FEFDCF82E08150E82FF0E0AD
:100C5000E955FB4F90819EBD0DB407FEFDCF882363
:100C6000A1F7409A40988CE08EBD0DB407FEFDCFF1
:100C7000409A81E08093BA04E091AE04F091AF0411
:100C800083818450838340988FE78EBD0DB407FE27
:100C9000FDCF80E010C01EBC0DB407FEFDCFE0917B
:100CA000AE04F091AF049EB50580F681E02DE80F0B
:100CB000F11D90838F5FE091AE04F091AF04482F57
:100CC00050E02381332727FD3095421753071CF34B
:100CD000409A40988FE78EBD0DB407FEFDCF1EBC35
:100CE0000DB407FEFDCF8EB5409A40989FE79EBD9C
:100CF0000DB407FEFDCF8983FE013496CE01069622
:100D00001EBC0DB407FEFDCF2EB52193E817F907E1
:100D1000B9F7409AE091AE04F091AF048C818087DE
:100D200090E080E00CC0E091AE04F091AF0405804B
:100D3000F681E02DE20FF31F2081820F9F5FE0918B
:100D4000AE04F091AF04292F30E04381552747FDD1
:100D50005095241735073CF399818917E1F04098A5
:100D60008FE78EBD0DB407FEFDCF1EBC0DB407FE90
:100D7000FDCF8EB5409A409888E08EBD0DB407FE39
:100D8000FDCF409A409888E08EBD0DB407FEFDCFA0
:100D9000409A8CEF25C08D8187FF07C08091BF04EA
:100DA0008F5F8093BF0481E01BC040988FE78EBDAA
:100DB0000DB407FEFDCF1EBC0DB407FEFDCF8EB5F2
:100DC000409A409888E08EBD0DB407FEFDCF409A52
:100DD000409888E08EBD0DB407FEFDCF409A8BEFA2
:100DE0000F900F900F900F900F90CF91DF9108957B
:100DF0008091BF04882321F08091BF041092BF042A
:100E00000895409888E08EBD0DB407FEFDCF409A4E
:100E1000409888E08EBD0DB407FEFDCF409A08953E
:100E2000992787FD9095982F88278068409823E11F
:100E30002EBD0DB407FEFDCF9EBD0DB407FEFDCF48
:100E40008EBD0DB407FEFDCF409A0895409886E010
:100E50008EBD0DB407FEFDCF409A409882E18EBD55
:100E60000DB407FEFDCF85E08EBD0DB407FEFDCFAE
:100E700088E08EBD0DB407FEFDCF409A40988EE20B
:100E80008EBD0DB407FEFDCF88E18EBD0DB407FE0B
:100E9000FDCF1EBC0DB407FEFDCF409A0E94010796
:100EA0000895409886E08EBD0DB407FEFDCF409AB0
:100EB000409882E18EBD0DB407FEFDCF85E08EBD6A
:100EC0000DB407FEFDCF1EBC0DB407FEFDCF409A4A
:100ED00040988EE28EBD0DB407FEFDCF1EBC0DB452
:100EE00007FEFDCF1EBC0DB407FEFDCF409A0E9449
:100EF00001070895409884E08EBD0DB407FEFDCF34
:100F0000409A0895409886E08EBD0DB407FEFDCF4F
:100F1000409A0895FF920F931F93DF93CF9300D0D1
:100F200000D0CDB7DEB7FC018091AB04882339F047
:100F300040989DE09EBD0DB407FEFDCF409A1A82F9
:100F40009281492F552747FD509520E009C0A38184
:100F5000B481A60FB71F3A816C91360F3A832F5F89
:100F6000622F70E06417750794F3292F245F29839B
:100F7000882311F0905F99836799FECF4E99FCCF3B
:100F8000F894409899E09EBD0DB407FEFDCF409ABD
:100F9000409899E09EBD0DB407FEFDCF409A409861
:100FA0009EE39EBD0DB407FEFDCF99819EBD0DB49D
:100FB00007FEFDCF409A21E438E83C832B839091D3
:100FC000B904992321F021E638E83C832B83882358
:100FD00029F02B813C8128603C832B8340989EE341
:100FE0009EBD0DB407FEFDCFDE0113969E012B5F63
:100FF0003F4F9C919EBD0DB407FEFDCF1196A217E9
:10100000B307B9F7409A40989EE39EBD0DB407FE22
:10101000FDCF9091B0049EBD0DB407FEFDCF409A68
:1010200040989EE39EBD0DB407FEFDCF20E030E06A
:10103000D901A255BB4F14969C9114979EBD0DB437
:1010400007FEFDCF2F5F3F4F2230310589F7409AD1
:1010500040989EE39EBD0DB407FEFDCFDF019F01CA
:101060002E5F3F4F9C919EBD0DB407FEFDCF1196A4
:10107000A217B307B9F7409A40989EE39EBD0DB4FE
:1010800007FEFDCF20E030E0D901A255BB4F1696F8
:101090009C9116979EBD0DB407FEFDCF2F5F3F4F6D
:1010A0002230310589F7409A882399F040988EE3E1
:1010B0008EBD0DB407FEFDCFABEBB4E08C918EBDC1
:1010C0000DB407FEFDCF119684E0AF3BB807B1F732
:1010D000409A40988EE38EBD0DB407FEFDCF80E0B0
:1010E0000AC0A381B481A20FB31F9C919EBD0DB411
:1010F00007FEFDCF8F5F282F30E0241735078CF3D4
:10110000409A40988EE38EBD0DB407FEFDCF8A81D4
:101110008EBD0DB407FEFDCF409A85818823B1F1C5
:101120008091B604882339F4409883E08EBD0DB4D5
:1011300007FEFDCF409A40981EBC0DB407FEFDCFC0
:101140008EB5409A81FFF7CF10E005E040980EBDC4
:101150000DB407FEFDCF409A40981EBC0DB407FEAB
:10116000FDCFFEB4409A1F5F153649F47894809104
:10117000A9049091AA040E94261680E048C084E643
:1011800090E00E94CD10F3FEE1CF07C0409884E0CC
:101190008EBD0DB407FEFDCF409A78944E9BFECFD6
:1011A0004E99FECF8091B904882391F084EA92E0B1
:1011B0000E94CD10319B0EC040988FE78EBD0DB4BC
:1011C00007FEFDCF1EBC0DB407FEFDCF8EB5409AC5
:1011D00081E00FC0409888E08EBD0DB407FEFDCFC2
:1011E000409A409888E08EBD0DB407FEFDCF409A2E
:1011F00080E0F894409896E09EBD0DB407FEFDCFC8
:10120000409A78949091B0049F5F9093B0040F90AF
:101210000F900F900F90CF91DF911F910F91FF9042
:101220000895AF92BF92CF92DF92EF92FF920F9309
:101230001F93DF93CF9300D000D00F92CDB7DEB7CE
:101240008C017B015A0169010E949D21409888E030
:101250008EBD0DB407FEFDCF409A409888E08EBD4C
:101260000DB407FEFDCF409A6799FECF4E99FCCF93
:10127000F894409889E08EBD0DB407FEFDCF409AEA
:10128000409889E08EBD0DB407FEFDCF409A1A82CA
:10129000D80112962C911297622F772767FD7095CF
:1012A00080E00CC0D8011396ED91FC911497E40FE7
:1012B000F51F9A813081930F9A838F5F482F50E0FA
:1012C000461757077CF3822F845F898340989EE3FB
:1012D0009EBD0DB407FEFDCF8EBD0DB407FEFDCF44
:1012E000409AF8018681882319F481E498E802C0C5
:1012F00081E698E89C838B8340988EE38EBD0DB485
:1013000007FEFDCFFE013396CE01059620812EBD4E
:101310000DB407FEFDCF3196E817F907B9F7409AEB
:1013200040988EE38EBD0DB407FEFDCF8091B004D2
:101330008EBD0DB407FEFDCF409A40988EE38EBD62
:101340000DB407FEFDCF80E090E0FC01E255FB4FBD
:1013500024812EBD0DB407FEFDCF0196823091058C
:10136000A1F7409A40988EE38EBD0DB407FEFDCFE5
:10137000F801C801029620812EBD0DB407FEFDCFF5
:101380003196E817F907B9F7409A40988EE38EBD79
:101390000DB407FEFDCF80E090E0FC01E255FB4F6D
:1013A00026812EBD0DB407FEFDCF0196823091053A
:1013B000A1F7409AC701B5010E94BA20D80115963D
:1013C0008C911597882381F18091B604882339F494
:1013D000409883E08EBD0DB407FEFDCF409A20E01B
:1013E00065E0E62E4098EEBC0DB407FEFDCF409AB6
:1013F00040981EBC0DB407FEFDCFAEB4409A2F5FDF
:10140000253649F478948091A9049091AA040E9409
:10141000261680E078C084E690E02D830E94CD10EF
:101420002D81A3FEDFCF07C0409884E08EBD0DB4B0
:1014300007FEFDCF409A809155020E94CA0C809110
:10144000840090918500F6019183808340988EE31B
:101450008EBD0DB407FEFDCFD80112964C911297A8
:10146000552747FD509580E00DC0D8011396ED91AA
:10147000FC911497E20FF31F90819EBD0DB407FEFF
:10148000FDCF8F5F282F30E02417350774F3409A83
:1014900040988EE38EBD0DB407FEFDCF8A818EBDD0
:1014A0000DB407FEFDCF409A4E9BFECFF8944E99A7
:1014B000FECF409888E08EBD0DB407FEFDCF409A68
:1014C000409888E08EBD0DB407FEFDCF409A40984D
:1014D00089E08EBD0DB407FEFDCF409A409889E0AB
:1014E0008EBD0DB407FEFDCF409A409886E08EBDBC
:1014F0000DB407FEFDCF409A78948091B0048F5FC1
:101500008093B00481E00F900F900F900F900F9098
:10151000CF91DF911F910F91FF90EF90DF90CF90CF
:10152000BF90AF900895DF93CF9300D0CDB7DEB7D3
:101530009A8389839093B5048093B40484EF91E0F7
:101540000E946F2040988AEE8EBD0DB407FEFDCF3D
:1015500080E88EBD0DB407FEFDCFFE013196CE01B1
:10156000039620812EBD0DB407FEFDCF3196E817FE
:10157000F907B9F7409A84EF91E00E946F200F902D
:101580000F90CF91DF9108958F929F92AF92BF926B
:10159000CF92DF92EF92FF920F931F93DF93CF933F
:1015A00000D000D0CDB7DEB7E82E092F84E690E05A
:1015B0000E946F20CE2CD02E20E031E08E010F5FF4
:1015C0001F4FA3E0AA2EB12CAC0EBD1EF6019080D9
:1015D0008824818190E0882999299A83898384E6E7
:1015E00090E02B833C830E946F2040982B813C81AC
:1015F000822F80688EBD0DB407FEFDCFC901959581
:101600008795807C8EBD0DB407FEFDCF7801F80173
:1016100080818EBD0DB407FEFDCF3196EA15FB0526
:10162000B9F7409A0894C11CD11C2E5F3F4FF1E0DE
:1016300020313F0759F684E690E00E946F2020E4B5
:1016400031E080E191E01A8219824098422F40688F
:101650004EBD0DB407FEFDCFA90155954795407CC1
:101660004EBD0DB407FEFDCFF80140814EBD0DB457
:1016700007FEFDCF3196EA15FB05B9F7409A409871
:10168000482F40684EBD0DB407FEFDCFAC01559507
:101690004795407C4EBD0DB407FEFDCFF80140815B
:1016A0004EBD0DB407FEFDCF3196EA15FB05B9F727
:1016B000409A02962E5F3F4F41E08E31940719F613
:1016C00081E090E09A83898340988EEC8EBD0DB4C2
:1016D00007FEFDCF80E88EBD0DB407FEFDCFC8012B
:1016E0000296F80120812EBD0DB407FEFDCF319684
:1016F000E817F907B9F7409A40988EE98EBD0DB406
:1017000007FEFDCF80E88EBD0DB407FEFDCF0E5F56
:101710001F4FF70180818EBD0DB407FEFDCF0894E9
:10172000E11CF11CE016F106A1F7409A0F900F9012
:101730000F900F90CF91DF911F910F91FF90EF903D
:10174000DF90CF90BF90AF909F908F900895CF93F0
:10175000DF93EC01862F409898E09EBD0DB407FE04
:10176000FDCF409A409898E09EBD0DB407FEFDCF96
:10177000409A0E946303D093AF04C093AE04DF91FC
:10178000CF9108950E9463030895CF92DF92FF9254
:101790000F931F93DF93CF9300D0CDB7DEB78C01AB
:1017A000F62E5A8349836901159A88EE93E00E94C8
:1017B000CD10169881E090E00E94CD10169A84E634
:1017C00090E00E94CD10F894409881E08EBD0DB459
:1017D00007FEFDCF409A82EE92E09093AD04809395
:1017E000AC04409881E18EBD0DB407FEFDCF82E0D0
:1017F0008EBD0DB407FEFDCF82EE8EBD0DB407FE8B
:10180000FDCF409A409882E18EBD0DB407FEFDCF1A
:1018100085E08EBD0DB407FEFDCF1EBC0DB407FEE6
:10182000FDCF409A40988CE18EBD0DB407FEFDCFF0
:101830001EBC0DB407FEFDCF8FE78EBD0DB407FEB5
:10184000FDCF409A409889E18EBD0DB407FEFDCFD3
:1018500081E08EBD0DB407FEFDCF84EC8EBD0DB4CE
:1018600007FEFDCF409A409887E18EBD0DB407FE7C
:10187000FDCF8AE18EBD0DB407FEFDCF86E58EBD9E
:101880000DB407FEFDCF409A84EF91E00E946F20D7
:10189000409888EE8EBD0DB407FEFDCF80E88EBD6A
:1018A0000DB407FEFDCFFE013196CE0103962081D7
:1018B0002EBD0DB407FEFDCF3196E817F907B9F735
:1018C000409A84EF91E00E946F2078948F2D0E94BF
:1018D000630378941093AF040093AE0489819A81D6
:1018E0009093B3048093B204D092B504C092B40430
:1018F0001092B0041092B6040E9481031092B904B1
:101900001092AB041092BA040F900F90CF91DF9118
:101910001F910F91FF90DF90CF9008958FEF089562
:10192000813031F48091C800881F8827881F08956E
:10193000882311F080E008958091C000881F8827D7
:10194000881F08958091C80087FFFCCF8091C80050
:101950008F778093C8008091CE00089585B780610D
:1019600085BF86E084B987E085B981E087B988B909
:101970008CE38DB98BE08AB98EE38EB988E781B9A3
:1019800080E482B908950E94AE0C80E58CBD81E0B0
:101990008DBD08958F3F09F471C0282F30E0277066
:1019A00030702230310589F12330310544F421159E
:1019B000310589F02130310509F060C01AC02430AA
:1019C000310509F43EC0243031056CF12530310574
:1019D00009F054C044C092B186958695869541E041
:1019E00050E002C0440F551F8A95E2F7942B92B93C
:1019F00043C095B186958695869502C0220F331F08
:101A00008A95E2F7922B95B937C098B1869586955D
:101A1000869541E050E002C0440F551F8A95E2F7D9
:101A2000942B98B929C09BB186958695869541E0FF
:101A300050E002C0440F551F8A95E2F7942B9BB9E2
:101A40001BC09EB186958695869541E050E002C008
:101A5000440F551F8A95E2F7942B9EB90DC091B3A0
:101A600086958695869541E050E002C0440F551F4B
:101A70008A95E2F7942B91BB81E008958FEF08954A
:101A80008F3F09F47CC0282F30E02770307022305F
:101A90003105A1F12330310544F42115310589F0D8
:101AA0002130310509F06BC01CC02430310509F428
:101AB00045C02430310594F12530310509F05FC06F
:101AC0004DC032B1282F26952695269581E090E0CD
:101AD00002C0880F991F2A95E2F78095832382B967
:101AE0004CC095B186958695869502C0220F331F0E
:101AF0008A95E2F72095292325B93FC038B1282FD0
:101B000026952695269581E090E002C0880F991FC2
:101B10002A95E2F78095832388B92FC03BB1282FFF
:101B200026952695269581E090E002C0880F991FA2
:101B30002A95E2F7809583238BB91FC03EB1282FE9
:101B400026952695269581E090E002C0880F991F82
:101B50002A95E2F7809583238EB90FC031B3282FE1
:101B600026952695269581E090E002C0880F991F62
:101B70002A95E2F78095832381BB81E008958FEF5A
:101B800008958F3F91F1282F30E027703070223078
:101B90003105C1F0233031053CF42115310571F0D8
:101BA0002130310511F50CC02430310579F0243095
:101BB000310554F025303105C1F40AC020B109C007
:101BC00023B107C026B105C029B103C02CB101C0A3
:101BD0002FB130E086958695869502C0359527957C
:101BE0008A95E2F7822F817008958FEF08958F3FD5
:101BF00009F4F5C0282F30E027703070223031050D
:101C000009F458C02330310544F42115310591F011
:101C10002130310509F0E3C032C02430310509F428
:101C200093C0243031050CF46AC02530310509F029
:101C3000D6C0AFC090B1869586958695282F892FFE
:101C400090E0022E02C0959587950A94E2F780FDF8
:101C50000AC082B141E050E002C0440F551F2A95EE
:101C6000E2F7842B0AC032B181E090E002C0880F15
:101C7000991F2A95E2F78095832382B9AEC043B1BC
:101C800086958695869550E0082E02C05595479515
:101C90000A94E2F702C0220F331F8A95E2F740FD53
:101CA00004C095B1922B95B998C085B12095282391
:101CB00025B993C096B1869586958695282F892F4C
:101CC00090E0022E02C0959587950A94E2F780FD78
:101CD0000AC088B141E050E002C0440F551F2A9568
:101CE000E2F7842B0AC038B181E090E002C0880F8F
:101CF000991F2A95E2F78095832388B96EC099B120
:101D0000869586958695282F892F90E0022E02C011
:101D1000959587950A94E2F780FD0AC08BB141E062
:101D200050E002C0440F551F2A95E2F7842B0AC0E9
:101D30003BB181E090E002C0880F991F2A95E2F73D
:101D4000809583238BB949C09CB1869586958695ED
:101D5000282F892F90E0022E02C0959587950A942E
:101D6000E2F780FD0AC08EB141E050E002C0440FAE
:101D7000551F2A95E2F7842B0AC03EB181E090E01E
:101D800002C0880F991F2A95E2F7809583238EB9A8
:101D900024C09FB1869586958695282F892F90E03F
:101DA000022E02C0959587950A94E2F780FD0AC03D
:101DB00081B341E050E002C0440F551F2A95E2F77D
:101DC000842B0AC031B381E090E002C0880F991FD4
:101DD0002A95E2F78095832381BB81E008958FEFF8
:101DE00008958F3F09F4F7C0282F30E0662309F0EB
:101DF00083C02770307022303105D9F1233031058E
:101E000044F42115310589F02130310509F0E3C092
:101E10001FC02430310509F44CC024303105CCF109
:101E20002530310509F0D7C054C091B1869586950B
:101E3000869521E030E002C0220F331F8A95E2F739
:101E4000822F8095892381B982B1822B82B9C1C04A
:101E500044B186958695869502C0220F331F8A95D8
:101E6000E2F7922F9095942394B995B1922B95B95E
:101E7000B0C097B186958695869521E030E002C086
:101E8000220F331F8A95E2F7822F8095892387B925
:101E90002FC09AB186958695869521E030E002C0E4
:101EA000220F331F8A95E2F7822F809589238AB902
:101EB0001FC09DB186958695869521E030E002C0D1
:101EC000220F331F8A95E2F7822F809589238DB9DF
:101ED0000FC090B386958695869521E030E002C0CC
:101EE000220F331F8A95E2F7822F8095892380BBCA
:101EF00085B1822B85B96DC02770307022303105D5
:101F000089F12330310544F42115310589F0213060
:101F1000310509F060C01AC02430310509F43EC013
:101F2000243031056CF12530310509F054C044C02E
:101F300091B186958695869521E030E002C0220F0A
:101F4000331F8A95E2F7922B91B943C094B18695DD
:101F50008695869502C0220F331F8A95E2F7922B51
:101F600094B937C097B186958695869521E030E083
:101F700002C0220F331F8A95E2F7922B97B929C02E
:101F80009AB186958695869521E030E002C0220FB1
:101F9000331F8A95E2F7922B9AB91BC09DB18695A3
:101FA0008695869521E030E002C0220F331F8A9586
:101FB000E2F7922B9DB90DC090B3869586958695D4
:101FC00021E030E002C0220F331F8A95E2F7922B06
:101FD00090BB81E008958FEF0895882311F08FEF73
:101FE000089580B18095881F8827881F08950097DD
:101FF00011F484E109C08130910511F48CE104C031
:102000008230910529F484E20E94F70D81E0089561
:102010008330910511F08FEF08958CE20E94F70D47
:1020200081E00895009711F484E109C081309105A1
:1020300011F48CE104C08230910529F484E20E94FD
:10204000CA0C81E008958330910511F08FEF089557
:102050008CE20E94CA0C81E00895009711F484E19B
:1020600009C08130910511F48CE104C082309105E2
:1020700029F484E20E94400D81E0089583309105A7
:1020800011F08FEF08958CE20E94400D81E00895D9
:10209000882319F085B78F7E02C085B7806185BF20
:1020A00081E008959091C00095FFFCCF9091C00011
:1020B0009F7D9093C0008093C60008959091C800C2
:1020C00095FFFCCF8093CE0008959093C500809338
:1020D000C40086E08093C200E1ECF0E080818B7F59
:1020E0008083A0ECB0E08C9182608C9380818861C9
:1020F000808308959093CD008093CC0086E08093F8
:10210000CA00E9ECF0E080818B7F8083A8ECB0E02E
:102110008C9182608C938081886180830895809106
:10212000C00087FFFCCF8091C0008F778093C000F4
:102130008091C60008950F931F93CF93DF930E9461
:102140007A100EE510E1C2EADCE0C801BE010E948F
:1021500022269093A9058093A805C801BE010E947C
:1021600022269093A7058093A605DF91CF911F911A
:102170000F910895CF93DF93EC0107C06091A805FC
:102180007091A90590E00E946E26FE01219684912F
:102190008823A1F7DF91CF9108950000000000008F
:1021A00000000197D1F70895FC0187E090E060817D
:1021B0000E94122781E008950F931F93CF93DF931E
:1021C000082F192FC8E0D0E0CE01F80161918F01EE
:1021D0000E9412272196C831D105B1F781E0DF9125
:1021E000CF911F910F910895FC0186E090E06081EE
:1021F0000E94122781E008950E9412270895CF932C
:10220000DF93EC0187E090E00E940A27888381E059
:10221000DF91CF9108950F931F93CF93DF93082FF2
:10222000192FC8E0D0E0CE010E940A27F80181935F
:102230008F012196C831D105B1F781E0DF91CF91AF
:102240001F910F910895CF93DF93EC0186E090E00A
:102250000E940A27888381E0DF91CF910895CF9370
:10226000DF93EC0185E090E00E940A27888381E0FB
:10227000DF91CF910895EF92FF920F931F93CF9329
:10228000DF93E82EE7017E01F92EE70180E090E080
:102290000E940A27082F8B8381E090E00E940A2782
:1022A000E82E8A8382E090E00E940A27F82E898334
:1022B00083E090E00E940A27182F888384E090E052
:1022C0000E940A27FE0CF00EF10E8F1511F08FEF11
:1022D00001C081E0DF91CF911F910F91FF90EF90AE
:1022E00008950E940A270895F8940895789408950F
:1022F000F894FFCF85E690E008950E94791E089536
:10230000CF92DF92EF92FF920F931F93CF93DF93C1
:10231000EC016B017A018985823021F080916C0596
:10232000888301C0188280916C05853020F087E099
:1023300060E00E94EA138985823029F080916C0563
:102340008F5F80936C0580916C05882319F481E080
:1023500080936C058881282F332727FD30958901CC
:1023600055E0000F111F5A95E1F7020F131F0E538E
:102370001B4FF801D182C0829885928793E09187A4
:10238000808715822B853C854D855E856F85788994
:1023900089899A890E94B81CF801948F838F0881DB
:1023A000112707FD10952B8D3C8D4D8D5E8D6F8D0A
:1023B00078A189A19AA10E94B81CF80145E0EE0F0E
:1023C000FF1F4A95E1F7E00FF11FEE53FB4F968B8D
:1023D000858B8881992787FD90958C0135E0000FCA
:1023E000111F3A95E1F7080F191F0E531B4FF80103
:1023F00085899689238D348D820F931F908F878BCB
:102400002B893C894D895E896F89788D898D9A8D5C
:102410000E94B81CF801968F858F8881992787FDC7
:102420009095FC0125E0EE0FFF1F2A95E1F7E80FDC
:10243000F91FEE53FB4F858D968D928F818F81E032
:1024400090E090A3878FF382E28281E08487DF911E
:10245000CF911F910F91FF90EF90DF90CF90089553
:10246000DF92EF92FF920F931F93CF93DF93CAEC0B
:10247000D4E010E0D8808FEFD816B1F07AECE72ED8
:1024800074E0F72E00E0101741F0F7018081D816B4
:1024900021F485E06D2D0E94EA130F5F81E290E048
:1024A000E80EF91E053079F71F5FA196153011F778
:1024B0000E941E18282F332727FD3095F90165E06B
:1024C000EE0FFF1F6A95E1F7E20FF31FEE53FB4F8C
:1024D000228520937F0591E28902C00111248E5349
:1024E0009B4F90937E0580937D0590936F0580931D
:1024F0006E05209370050E942D240E9417240E94CF
:102500005124FFCF0F931F93DF93CF93CDB7DEB747
:10251000A3970FB6F894DEBF0FBECDBF0E941E1565
:1025200080936D058F3F21F48EE060E00E94EA13F6
:102530000E94A023882321F486E060E00E94EA1331
:102540000E94A8238F3F31F40E94C12380E160E004
:102550000E94EA130E94B1231092700510927E052A
:1025600010927D0510926F0510926E0510927F05F6
:1025700010927C058FEF8093690580936B058093A3
:102580006A0593E69093CC048093CA049093ED047B
:102590008093EB0490930E0580930C0590932F0588
:1025A00080932D059093500580934E05E0E8F5E06B
:1025B000CF01059694838383F783E683FC0185E04E
:1025C000E939F807A9F71092820510928105109257
:1025D0009D0510929C0510927305109272057997D3
:1025E000F093C104E093C0048E010F5F1F4FC80138
:1025F00063E57EE10E94E823C80162E074E040E800
:1026000050E00E94322485E58093020419861C8ED6
:102610001D8E1E8E1F8E18A219A21AA21BA281E067
:10262000888792E09A878B87C8010E942A1BA3960D
:102630000FB6F894DEBF0FBECDBFCF91DF911F91D3
:102640000F910895E0917D05F0917E0584870895AE
:10265000E0917D05F0917E05848508952091010427
:10266000222311F480E00895FB0120832091D00201
:10267000FC01208381E008951F9380910104882349
:1026800011F41F9108950E9474110E94C1230E94A9
:10269000741184EE92E00E94BA1000D000D0EDB721
:1026A000FEB7319686E792E0ADB7BEB712969C931F
:1026B0008E9311978091D002828313820E949A2672
:1026C0000F900F900F900F9080EE92E00E94BA1042
:1026D00080910104843110F010920104E091010412
:1026E0008E2F90E0FC013197E231F105F0F5EA59C7
:1026F000FF4FEE0FFF1F0590F491E02D099489EB39
:1027000092E035C085EA92E032C08FE892E02FC0B7
:1027100084E792E02CC08EE592E029C086E492E046
:1027200026C083E392E023C080E292E020C082E0F2
:1027300092E01DC08DED91E01AC081ED91E017C0CF
:1027400086EB91E014C087EA91E011C086E991E040
:102750000EC082E891E00BC082E691E008C08AE4F6
:1027600091E005C08FE291E002C088E291E00E9412
:10277000BA106091A8057091A9058DE090E00E94C3
:102780006E266091A8057091A9058AE090E00E94EC
:102790006E2682E090E00E942D1083E090E00E947F
:1027A000121010E088EE93E00E946F201F5F143635
:1027B000C9F783E090E00E942D1082E090E00E9433
:1027C000121010E088EE93E00E946F201F5F143615
:1027D000C9F7DFCF809301046093D0020E943C13BD
:1027E000089580930104E0917D05F0917E05808538
:1027F0008093D0020E943C130895992787FD9095FD
:10280000FC0125E0EE0FFF1F2A95E1F7E80FF91F05
:10281000EE53FB4FA281B3818C91853521F085E584
:102820008C938FEF08958081918122E2803092070E
:1028300010F481E0089582E10E94F1138FEF089572
:102840006F927F928F929F92AF92BF92CF92DF92C0
:10285000EF92FF920F931F93CF93DF9380EF92E05D
:102860000E94BA1000D000D089E792E0ADB7BEB7A1
:1028700012969C938E931197E0917D05F0917E05C1
:102880008085992787FD909514969C938E93139736
:102890000E949A26E0917D05F0917E05C281D38148
:1028A00082E892E0EDB7FEB792838183D483C3833D
:1028B0000E949A26EDB7FEB731966FE8A62E62E029
:1028C000B62EADB7BEB71296BC92AE921197888164
:1028D000828313820E949A265CE9C52E52E0D52E8F
:1028E000EDB7FEB7D282C182E0917D05F0917E0501
:1028F00080819181ADB7BEB714969C938E93139748
:102900000E949A2646EAE42E42E0F42EEDB7FEB786
:10291000F282E18280917D0590917E05948383838C
:102920000E949A26C2ECD4E000E010E00F900F90D5
:102930000F900F9036EB832E32E0932E3501BC2C96
:10294000AE2CCF2CEA80FB8000D000D000D0EDB7B9
:10295000FEB73196ADB7BEB712969C928E92119784
:1029600013830283F582E4820E949A260F900F90CF
:10297000EDB7FEB73196ADB7BEB711966C92119711
:1029800012967C92D7018C91828313820E949A26A0
:10299000EDB7FEB7B182D282888199819483838317
:1029A0000E949A26ADB7BEB71196AC9211971296B7
:1029B000CC9212971496DC93CE9313970E949A268A
:1029C0000F5F1F4FA1960F900F900F900F90053043
:1029D000110509F0B7CFDF91CF911F910F91FF90B3
:1029E000EF90DF90CF90BF90AF909F908F907F90AF
:1029F0006F900895CF93DF93E0917D05F0917E0570
:102A0000C281D3818881853539F00E94201481E00C
:102A10000E94F11385E58883E0917D05F0917E05A4
:102A20008081918122E28030920728F00E94201458
:102A300082E10E94F113DF91CF910895EF92FF920E
:102A40000F931F93E0907903F0907A0300917B033A
:102A500010917C0380E090E0A8019701082E04C04B
:102A600056954795379527950A94D2F7217030707F
:102A700021153105C9F421E030E040E050E0082E96
:102A800004C0220F331F441F551F0A94D2F72E296A
:102A90003F29402B512B2093790330937A034093A5
:102AA0007B0350937C0305C0019680329105A1F60B
:102AB0008FEF1F910F91FF90EF900895E0917D05AA
:102AC000F0917E0565857685878590890895EF92DA
:102AD000FF920F931F9321E030E040E050E004C0EC
:102AE000220F331F441F551F8A95D2F7E0917D05B1
:102AF000F0917E0585859685A785B08979018A0143
:102B0000E822F9220A231B23E114F104010511052F
:102B100011F48FEF19C02095309540955095822380
:102B20009323A423B52385879687A787B08B8189B4
:102B30009289A389B48982239323A423B523818B0B
:102B4000928BA38BB48B81E01F910F91FF90EF903C
:102B50000895992787FD90952091790330917A0304
:102B600040917B0350917C03082E04C056954795F5
:102B7000379527950A94D2F72170307021153105C9
:102B800011F48FEF0895E0917D05F0917E0521E02D
:102B900030E040E050E004C0220F331F441F551FB7
:102BA0008A95D2F785859685A785B089822B932B48
:102BB000A42BB52B85879687A787B08B81E00895D6
:102BC00080E090E0089525E08936920711F08FEFBC
:102BD000089580E008950E94E3158F3F11F481E08D
:102BE00003C0813029F482E00E9422138FEF089500
:102BF000992787FD9095FC01EE0FFF1FE80FF91F45
:102C0000E759FA4F8FEF80838283818380917C051F
:102C1000815080937C0581E008950E94E3158F3FE9
:102C200011F481E003C0813029F482E00E94221374
:102C30008FEF0895992787FD9095FC01EE0FFF1FF8
:102C4000E80FF91FE759FA4F82810895EF92FF923A
:102C50000F931F93DF93CF930F92CDB7DEB70E94F0
:102C6000E3158F3F11F481E003C0813029F482E045
:102C70000E9422138FEF44C0282F332727FD309561
:102C80008901000F111F020F131F07591A4FD80196
:102C900012962C9112979C9129178CF589830E948A
:102CA0007411F80192819F5F9283E0917D05F0910C
:102CB0007E051482E9ECF4E08981282F332727FD73
:102CC0003095432F532F93E08081823089F4E28442
:102CD000F38404851585E216F3060407150741F40D
:102CE000928317861686108212861386148615869E
:102CF000B19685E0EE36F80739F70E94761181E04B
:102D00000F90CF91DF911F910F91FF90EF90089559
:102D1000EF92FF920F931F93DF93CF930F92CDB754
:102D2000DEB751E0E52EF12C012D112D04C0EE0C83
:102D3000FF1C001F111F8A95D2F780917903909193
:102D40007A03A0917B03B0917C038E219F21A02365
:102D5000B1230097A105B10511F481E042C00E94A2
:102D60007411E9ECF4E080E093E020812130B1F4CB
:102D700022853385448555852E213F2140235123CB
:102D8000211531054105510549F0928317861686B4
:102D90001082E286F3860487158781E02081223045
:102DA00091F422853385448555852E153F054007CE
:102DB000510749F49283178616861082128613866D
:102DC0001486158681E0B19625E0EE36F20769F6A5
:102DD00089830E9476118981882311F081E004C0E3
:102DE00082E00E9422138FEF0F90CF91DF911F910D
:102DF0000F91FF90EF900895EF92FF920F931F9322
:102E0000CF93DF93C82FDD27C7FDD09561E0E62E75
:102E1000F12C012D112D0C2E04C0EE0CFF1C001FF7
:102E2000111F0A94D2F78091790390917A03A091AF
:102E30007B03B0917C038E219F21A023B1230097B7
:102E4000A105B10511F48FEF5CC00E947411E9EC8B
:102E5000F4E0A8019701209530954095509563E0E6
:102E600081818F3F39F186819781A085B1858E154B
:102E70009F05A007B10731F41286138614861586C4
:102E80001082628386819781A085B18582239323F6
:102E9000A423B52386839783A087B18782859385F2
:102EA000A485B58582239323A423B52382879387A2
:102EB000A487B587B19695E0EE36F90789F62EEF2F
:102EC0003FEF4FEF5FEF04C0220F331F441F551F2A
:102ED000CA95D2F78091790390917A03A0917B03F0
:102EE000B0917C0382239323A423B5238093790399
:102EF00090937A03A0937B03B0937C030E94761196
:102F000081E0DF91CF911F910F91FF90EF90089595
:102F10000F931F93DF93CF930F92CDB7DEB70E942D
:102F2000E3158F3F11F481E003C0813029F482E082
:102F30000E9422138FEF40C089830E9474118981FF
:102F4000082F112707FD1095F801EE0FFF1FE00F66
:102F5000F11FE759FA4F92819923B1F4E0917D0571
:102F6000F0917E05978192609783992787FD9095D0
:102F7000A92FB92F818B928BA38BB48B0E947611D2
:102F800080E090E00E945B1AF801EE0FFF1FE00F57
:102F9000F11FE759FA4F828181508283A0917D050C
:102FA000B0917E0581811B968C931B9781E01496CE
:102FB0008C930E94761181E00F90CF91DF911F9149
:102FC0000F910895E0917D05F0917E052585368568
:102FD0004785508926233723482359232115310556
:102FE0004105510529F420E030E040E050E023C0E5
:102FF000618B728B838B948B21E0278300906D050E
:1030000004C096958795779567950A94D2F7617075
:1030100070706115710519F00E94F91904C080E003
:1030200090E00E945B1AE0917D05F0917E05218978
:10303000328943895489B901CA010895E091720522
:10304000F091730580810895E0917205F091730508
:1030500003C00380F481E02D3097D9F70895DF9203
:10306000EF92FF920F931F93CF93DF93E091C004F1
:10307000F091C104309709F499C060917205709184
:1030800073056115710519F4A0E0B0E055C0DB01CE
:10309000482F552747FD50959A0115E0220F331F01
:1030A0001A95E1F7240F351F2E533B4F8901065F18
:1030B0001F4F44E0E42EF12CE20EF31E255F3F4F3C
:1030C0004C9150E0EA0195E0CC0FDD1F9A95E1F7B5
:1030D000C40FD51FCE53DB4F9C81992329F0DB848D
:1030E000E8019881D91640F1E7019881992379F098
:1030F000EA0195E0CC0FDD1F9A95E1F7C40FD51FCB
:10310000CE53DB4FDA84E9019881D916A8F0EA01A1
:1031100095E0CC0FDD1F9A95E1F7C40FD51FCE5374
:10312000DB4F4A85E8019881491730F013960D90DE
:10313000BC91A02D109721F68083C381D481D093B8
:10314000C104C093C004A617B707B1F4109749F0A3
:10315000B483A383128211821296FC93EE9311978B
:1031600006C01482138212821182FA83E983F093DB
:103170007305E09372051AC011968D919C91129778
:10318000AC17BD0759F092838183B483A383119652
:10319000CD91DC911297FC83EB8304C014821382DF
:1031A000928381831296FC93EE931197DF91CF91D6
:1031B0001F910F91FF90EF90DF900895CF93DF93D1
:1031C000E0917205F0917305309709F44DC0482FD6
:1031D000552747FD5095808190E08417950779F435
:1031E000A381B481B0937305A093720512961C92CB
:1031F0001E9211970EC0E22FF92F3097A9F160812E
:1032000070E02381948164177507A9F720C0BA8301
:10321000A983A091C004B091C104109739F4F09330
:10322000C104E093C004148213820AC0B483A38350
:103230001296FC93EE931197F093C104E093C004AF
:10324000E091C004F091C104128211820DC0A181ED
:10325000B28113962C93139714969C931497C38161
:10326000D4812097A1F6D5CFDF91CF910895E09139
:103270007D05F0917E05808508950E94DD23E09113
:103280007D05F0917E0585818823B9F70895EF9239
:10329000FF921F93DF93CF93CDB7DEB728970FB67A
:1032A000F894DEBF0FBECDBF29833A834B835C8386
:1032B0006D837E838F8398870E94FA140E94741115
:1032C000E0917D05F0917E0581E0858381E090E0CD
:1032D00090A3878F0E949D21182F29813A814B81CD
:1032E0005C816D817E818F8198850E94B81CE09100
:1032F0007D05F0917E05E12EFF248E0D9F1D968B9E
:10330000858B183F78F40E9432210894E11CF11C4F
:1033100090E0E816F90634F4812F8E5F8093000464
:103320000E9436210E9476110E943D1981E0289664
:103330000FB6F894DEBF0FBECDBFCF91DF911F91C6
:10334000FF90EF9008958F929F92AF92BF92CF928D
:10335000DF92EF92FF920F931F93DF93CF93CDB73E
:10336000DEB760970FB6F894DEBF0FBECDBF2987DA
:103370003A874B875C876D877E878F87988BCE01D6
:1033800001960E94FC1DCE01099609851A852B85A0
:103390003C854D855E856F85788989809A80AB8074
:1033A000BC80CD80DE80EF80F8840E947F1B882364
:1033B00011F48FEF0BC029853A854B855C856D85AF
:1033C0007E858F8598890E94471981E060960FB6A7
:1033D000F894DEBF0FBECDBFCF91DF911F910F914B
:1033E000FF90EF90DF90CF90BF90AF909F908F9025
:1033F00008951F930E947411E0917D05F0917E0560
:1034000081E0858386830E949D21182F883F80F468
:103410000E943221212F30E02F5F3F4F90E028178C
:10342000390734F4812F8E5F809300040E94362187
:103430000E9476110E943D1981E01F9108951F930B
:10344000DF93CF93CDB7DEB728970FB6F894DEBFE2
:103450000FBECDBF29833A834B835C836D837E830C
:103460008F8398870E9474110E949D21182F2981B3
:103470003A814B815C816D817E818F8198850E942C
:10348000B81C8330910510F48FEF0BC0E0917D05DF
:10349000F0917E05810F911D968B858B0E94761190
:1034A00081E028960FB6F894DEBF0FBECDBFCF9156
:1034B000DF911F9108951F93CF93DF93EC010E943A
:1034C0007411E0917D05F0917E0581E08583D68BB6
:1034D000C58B0E949D21182F883F80F40E943221C5
:1034E000212F30E02F5F3F4F90E02817390734F449
:1034F000812F8E5F809300040E9436210E947611F6
:103500000E943D1981E0DF91CF911F910895EF92C4
:10351000FF921F93CF93DF937C010E947411E0917F
:103520007D05F0917E0581E085830E949D21182F05
:10353000E0917D05F0917E05C82FD0E0EC0EFD1ED8
:10354000F68AE58A883F68F40E943221219690E04D
:10355000C817D90734F4812F8E5F809300040E942E
:1035600036210E9476110E943D1981E0DF91CF91B2
:103570001F91FF90EF9008951F93CF93DF93EC017D
:103580000E94FA14209711F4C1E0D0E00E94741157
:10359000E0917D05F0917E0581E08583D0A3C78F02
:1035A0000E949D21182F883F80F40E943221212FF4
:1035B00030E02F5F3F4F90E02817390734F4812F18
:1035C0008E5F809300040E9436210E9476110E9433
:1035D0003D1981E0DF91CF911F9108951F930E94C3
:1035E000FA140E947411E0917D05F0917E0581E04E
:1035F00090E090A3878F81E085830E949D21182F02
:10360000883F80F40E943221212F30E02F5F3F4F0E
:1036100090E02817390734F4812F8E5F80930004DF
:103620000E9436210E9476110E943D1981E01F916F
:103630000895E0917D05F0917E0580850E94DE1859
:10364000E0917D05F0917E0584E081870E94EE1A6D
:1036500081E00895EF92FF920F931F93CF93DF9332
:10366000EC0169817A814B815C818D819E810E9410
:10367000EC23BC018F81882369F04B815C81CE01F2
:1036800020E030E000E010E0EE24FF240E948011F2
:103690001F8215C08881992787FD9095FC0125E040
:1036A000EE0FFF1F2A95E1F7E80FF91FEE53FB4FCE
:1036B0008185833011F08FEF1BC071836083888117
:1036C000282F332727FD3095F90105E0EE0FFF1F66
:1036D0000A95E1F7E20FF31FEE53FB4F2589368978
:1036E0002115310521F492E091870E942F1881E085
:1036F000DF91CF911F910F91FF90EF9008958F92DE
:103700009F92AF92BF92CF92DF92EF92FF920F9370
:103710001F93DF93CF93CDB7DEB760970FB6F894C2
:10372000DEBF0FBECDBFFC0109831A832B833C8310
:103730004D835E836F83788789869A86AB86BC8645
:10374000CD86DE86EF86F88AA980BA80CB80DC80C1
:103750002D813E814F815885E984FA840B851C8533
:103760008D859E85AF85B889AE14BF04C006D1068D
:1037700008F440C0EA14FB040C051D0591F4281759
:1037800039074A075B07B0F1281B390B4A0B5B0B63
:1037900024833583468357831082118212821382D9
:1037A0001EC0281739074A075B07D8F40894A108F8
:1037B000B108C108D108AE18BF08C00AD10AA0825A
:1037C000B182C282D382205036434546544C281BD6
:1037D000390B4A0B5B0B248335834683578381E087
:1037E0000AC0AE18BF08C00AD10AA082B182C28244
:1037F000D382EDCF80E060960FB6F894DEBF0FBEA7
:10380000CDBFCF91DF911F910F91FF90EF90DF908F
:10381000CF90BF90AF909F908F9008958F929F927E
:10382000AF92BF92CF92DF92EF92FF920F931F93CE
:10383000DF93CF93CDB7DEB760970FB6F894DEBFB6
:103840000FBECDBFFC0109831A832B833C834D83BC
:103850005E836F83788789869A86AB86BC86CD86A1
:10386000DE86EF86F88AED80FE800F8118858D85D3
:103870009E85AF85B88929853A854B855C85A98069
:10388000BA80CB80DC802A0D3B1D4C1D5D1D208342
:103890003183428353838E0D9F1DA01FB11F8483EC
:1038A0009583A683B78310C02081318142815381E3
:1038B0002F5F3F4F4F4F5F4F2083318342835383AE
:1038C00080509A4CAA49BB4380302AEC92072AE9DF
:1038D000A2072BE3B20740F784839583A683B783BF
:1038E00081E060960FB6F894DEBF0FBECDBFCF91DA
:1038F000DF911F910F91FF90EF90DF90CF90BF90DD
:10390000AF909F908F900895FC0184819581A6814E
:10391000B78110C020813181428153812F5F3F4F99
:103920004F4F5F4F208331834283538380509A4CA3
:10393000AA49BB4380302AEC92072AE9A2072BE36D
:10394000B20740F784839583A683B7830895609375
:103950007405709375058093760590937705209391
:1039600078053093790540937A0550937B05089547
:103970008F929F92AF92BF92CF92DF92EF92FF927F
:103980000F931F93DF93CF93CDB7DEB728970FB672
:10399000F894DEBF0FBECDBF29833A834B835C838F
:1039A0006D837E838F83988789809A80AB80BC806B
:1039B000CD80DE80EF80F88481149104A104B104ED
:1039C000E9F080E09AECAAE9BBE3C80ED91EEA1E32
:1039D000FB1EC701B60123EB36EE4EE050E00E941D
:1039E000F525089481089108A108B1088401102FD9
:1039F0000027110F110F020F131F09C0C701B601D5
:103A000023EB36EE4EE050E00E94F5258901B80127
:103A100002C06050744094E061307907D0F780E0D4
:103A200090E023EB36EE4EE050E00E94C225675A4C
:103A30007C48884F9F4F6C157D058E059F0510F4BF
:103A40000F5F1F4FC80128960FB6F894DEBF0FBE58
:103A5000CDBFCF91DF911F910F91FF90EF90DF903D
:103A6000CF90BF90AF909F908F900895EF92FF926C
:103A70000F931F93DF93CF93CDB7DEB728970FB681
:103A8000F894DEBF0FBECDBF7B018C0173708070D8
:103A9000907023EB36EE4EE050E00E94C2256D831D
:103AA0007E838F839887A8019701EAE05695479512
:103AB00037952795EA95D1F729833A834B835C8321
:103AC0003A814B815C8128960FB6F894DEBF0FBE19
:103AD000CDBFCF91DF911F910F91FF90EF9008958F
:103AE000AF92BF92CF92DF92EF92FF920F931F930C
:103AF000DF93CF93CDB7DEB728970FB6F894DEBF2C
:103B00000FBECDBF29833A834B835C836D837E8355
:103B10008F839887E980FA800B811C81AD80BE80FD
:103B2000CF80D884E114F1040105110519F180E07A
:103B30009AECAAE9BBE3A80EB91ECA1EDB1EC60199
:103B4000B50123EB36EE4EE050E00E94F525C901A9
:103B5000DA010894E108F10801091109FAE0EE0C14
:103B6000FF1C001F111FFA95D1F7E80EF91E0A1F5E
:103B70001B1F0CC0C601B50123EB36EE4EE050E032
:103B80000E94F525E22EF32E042F152FC801B70150
:103B900004C060507440804090406130A4E07A07D7
:103BA000A0E08A07A0E09A07A0F723EB36EE4EE0EC
:103BB00050E00E94C225675A7C48884F9F4F6A1583
:103BC0007B058C059D0528F40894E11CF11C011D62
:103BD000111DB701C80128960FB6F894DEBF0FBEBD
:103BE000CDBFCF91DF911F910F91FF90EF90DF90AC
:103BF000CF90BF90AF900895EF92FF920F931F93D5
:103C0000CF93DF93EC018091740590917505A0919D
:103C10007605B091770588839983AA83BB83E0906A
:103C20007805F090790500917A0510917B05EC827A
:103C3000FD820E831F830E949D21682F70E080E02B
:103C400090E023EB36EE4EE050E00E94C2256E0D70
:103C50007F1D801F911F6C837D838E839F8310C087
:103C6000288139814A815B812F5F3F4F4F4F5F4FE2
:103C7000288339834A835B8360507A4C8A499B430B
:103C800060302AEC72072AE982072BE3920740F79B
:103C90006C837D838E839F83DF91CF911F910F91E2
:103CA000FF90EF9008950F931F9301E012E00E94A0
:103CB000FA140E9432218B3028F4009371050E947F
:103CC000DD2308C08AE090E00E946F201093710508
:103CD0000E94D12380910204853519F088E00E946A
:103CE000F11380917E21853511F388E00E94F11354
:103CF000DECF4F925F926F927F928F929F92AF92A0
:103D0000BF92CF92DF92EF92FF920F931F93CF93C8
:103D1000DF930E9474110E94B2200E94FE203C0199
:103D20008AEF0E9436210E94AF236091000470E068
:103D300080E090E023EB36EE4EE050E00E94C2259A
:103D40007B018C018091780590917905A0917A058D
:103D5000B0917B05E80EF91E0A1F1B1FC801B701B1
:103D60000E94F525E61AF70A080B190B80917405D5
:103D700090917505A0917605B091770516C080E009
:103D800096E3A5E6B4ECE80EF91E0A1F1B1FC80156
:103D9000B70123EB36EE4EE050E00E94F525E61A1F
:103DA000F70A080B190BD601C5015C016D010894D7
:103DB000A11CB11CC11CD11C20E0E2162AECF206A9
:103DC0002AE902072BE31207D0F6E0927805F09279
:103DD000790500937A0510937B0580937405909381
:103DE0007505A0937605B0937705E0917D05F09178
:103DF0007E0585818823B9F081858430A1F0878193
:103E0000823029F0882341F08681882311F485E0EF
:103E100001C083E0818704C083E081871782168216
:103E200080850E94DE18E0917D05F0917E05858DEC
:103E3000968D009791F16085662379F181858430B4
:103E400061F1218D328D8091000490E028173907AF
:103E500050F482E00E94EA13E0917D05F0917E0526
:103E6000128E118E04C0281B390B328F218FE091E6
:103E70007D05F0917E051085818D928D009769F406
:103E800083E0612F0E94EA13E0917D05F0917E05A9
:103E900083E08187812F0E94DE18C7ECD4E0F0E632
:103EA000EF2EFAEEFF2E10E0E1E08E2E912C02E0D4
:103EB00071E0A72EB12CC12CD12C8B818F3F09F43E
:103EC0007DC01882882369F18C81843051F1288962
:103ED00039898091000490E02817390728F0281BC1
:103EE000390B398B288B02C0198A188A6A897B8919
:103EF0006817790728F46E897F898617970728F451
:103F0000681B790B7B8B6A8B04C00E94E1259B8B1D
:103F10008A8B8A899B89009721F48E899F899B8B44
:103F20008A8B8C81833009F049C0888999890097F0
:103F3000E9F58A81882391F08981882379F0D60177
:103F4000C50100906D0504C0880F991FAA1FBB1FF3
:103F50000A94D2F78C879D87AE87BF871A82198211
:103F600018828A8D9B8D288D398D8130910559F469
:103F70003D8B2C8B0C838A899B89998B888B812F15
:103F80000E942F1813C03D8B2C8B01972E893F89DF
:103F9000AC01429FC001439F900D529F900D112490
:103FA000998B888B9B8B8A8B9B8E8A8E48885988AD
:103FB0004114510419F04E145F0408F027011F5FEB
:103FC000A196153011F0720178CF0E941E18182F9B
:103FD000992787FD9095FC0165E0EE0FFF1F6A951C
:103FE000E1F7E80FF91FEE53FB4F428540937F0541
:103FF00081E21802C00111248E539B4F90936F05EC
:1040000080936E051123A1F0258D368D2115310584
:1040100051F0218D328D2A3F310528F424153505C4
:1040200028F5290123C05BEF45165104F8F017C0AD
:10403000ABE04A165104D0F092012A5030402A3F9A
:10404000310540F429012930310580F459E0452E2D
:10405000512C0CC024E0421621E0520621F03AEF28
:10406000432E512C03C020EF422E512C409370055B
:1040700090937E0580937D05409200040E949D21CF
:1040800090E08415950550F00E949D21482E5524FE
:1040900042E050E0440E551E40920004112311F0FE
:1040A00010927105842D0E943621C3016EEE72E0DC
:1040B0000E94BA200E9426240E945124DF91CF91B1
:1040C0001F910F91FF90EF90DF90CF90BF90AF9036
:1040D0009F908F907F906F905F904F900895000019
:1040E0000000000000000197D1F7089580E280935E
:1040F000B6008EEF8093B30083E087BB92E090938D
:10410000B000E1EBF0E0808393B5926093BD87BB94
:1041100084BD93B5926093BD1092800091E090931E
:104120008100109285001092840093B5926093BD37
:1041300093B5916093BD93B5926093BD1092B20018
:1041400010920004A0E7B0E09C9193609C93808360
:104150001092D502089510928100089581E0809315
:104160008100089583B5816083BD1092850010920F
:1041700084000895EF92FF920F931F93DF93CF93E4
:1041800000D0CDB7DEB72FEF8937920710F080E06F
:1041900090E09C0140E050E07B0100E010E02E0D3B
:1041A0003F1D401F511F213060E0360761E0460788
:1041B00060E0560778F060918400709185007A8302
:1041C000698369817A8186179707A8F32050304068
:1041D0004140504080918400909185009A8389836A
:1041E00089819A8182179307A8F30F900F90CF913E
:1041F000DF911F910F91FF90EF900895DF93CF9380
:1042000000D0CDB7DEB780918400909185009A836D
:10421000898329813A81C9010F900F90CF91DF9155
:1042200008951092B100E0E7F0E080818D7F8083F7
:1042300080818E7F808308958093B2000895E0E7A7
:10424000F0E080818360808383E08093B1000895F3
:1042500083B5826083BD1092B2001092D502109295
:10426000000408958091B3008F5F0895815080937A
:10427000B3000895882311F4109271008FEF089510
:10428000882311F08FEF08951092950010929400FA
:1042900081E00895882319F020E030E004C02091E7
:1042A000940030919500C9010895882311F08FEF93
:1042B000089582E08093710081E00895882311F0D1
:1042C0008FEF0895CB0101978530910510F460932D
:1042D000FF031092900088E0809391005093990022
:1042E000409398003093CF022093CE028091FF0339
:1042F000813021F48091910081600BC0823021F4E3
:1043000080919100826005C0833031F480919100EA
:1043100083608093910008C0843021F480919100E3
:104320008460F7CF853011F081E00895809191008D
:1043300085608093910081E008958091B200089596
:104340000F920FB60F921F922F923F924F925F9251
:104350006F927F928F929F92AF92BF92CF92DF9295
:10436000EF92FF920F931F932F933F934F935F937F
:104370006F937F938F939F93AF93BF93CF93DF936D
:10438000EF93FF93A0917D05B0917E050DB60D9240
:104390000EB60D921F92A091FD03B091FE031E90E8
:1043A000BEBFADBF08951F920F920FB60F9211249A
:1043B0000F900FBE0F901F9018951F920F920FB67F
:1043C0000F920BB60F9211242F933F934F935F934D
:1043D0006F937F938F939F93AF93BF93EF93FF93CD
:1043E000E091CE02F091CF02309711F0099504C010
:1043F0008AE060E00E94EA13FF91EF91BF91AF91D4
:104400009F918F917F916F915F914F913F912F91EC
:104410000F900BBE0F900FBE0F901F9018951F921C
:104420000F920FB60F920BB60F9211242F933F935A
:104430004F935F936F937F938F939F93AF93BF93AC
:10444000EF93FF938AE060E00E94EA13FFCF882396
:1044500011F4E89A33C0813011F4E99A089582305A
:1044600011F4EA9A2BC0833021F480916B008160B3
:1044700023C0843021F480916B0082601DC08530A0
:1044800021F480916B00846017C0863021F4809104
:104490006B00886011C0873021F480916B008061CF
:1044A0000BC0883021F480916B00806205C0893098
:1044B00039F480916B00806480936B0081E00895F3
:1044C0008A3011F08FEF089580916B00806880939F
:1044D0006B0081E00895882311F4E89833C081309F
:1044E00011F4E9980895823011F4E9982BC08330D3
:1044F00021F480916B008E7F23C0843021F4809161
:104500006B008D7F1DC0853021F480916B008B7F07
:1045100017C0863021F480916B00877F11C08730EF
:1045200021F480916B008F7E0BC0883021F4809144
:104530006B008F7D05C0893039F480916B008F7BD3
:1045400080936B0081E008958A3011F08FEF089519
:1045500080916B008F7780936B0081E008958823B2
:1045600039F55093A1054093A005662321F480916D
:1045700069008C7F44C0613049F4809169008D7F6F
:104580008093690080916900816039C0623049F48C
:1045900080916900826080936900809169008E7FBC
:1045A0002EC0633009F066C080916900836027C027
:1045B000813041F550939F0540939E05662321F479
:1045C00080916900837F1BC0613049F4809169004C
:1045D000877F8093690080916900846010C0623099
:1045E00049F4809169008860809369008091690036
:1045F0008B7F05C06330F1F5809169008C608093FA
:10460000690036C0823031F550939F0540939E0576
:10461000662321F4809169008F7CF1CF613049F4E9
:10462000809169008F7D809369008091690080612D
:10463000E6CF623049F4809169008062809369001E
:10464000809169008F7EDBCF6330A1F48091690097
:104650008063D5CF8350883010F08FEF089580911C
:1046600068008160809368005093A5054093A4057D
:1046700081E0089581E008951F920F920FB60F9286
:104680000BB60F9211242F933F934F935F936F9329
:104690007F938F939F93AF93BF93EF93FF93E0919B
:1046A000A005F091A105309711F0099504C08AE0AA
:1046B00060E00E94EA13FF91EF91BF91AF919F914B
:1046C0008F917F916F915F914F913F912F910F90BB
:1046D0000BBE0F900FBE0F901F9018951F920F9258
:1046E0000FB60F920BB60F9211242F933F934F9357
:1046F0005F936F937F938F939F93AF93BF93EF934A
:10470000FF93E091A405F091A505309711F009956C
:1047100004C08AE060E00E94EA13FF91EF91BF912C
:10472000AF919F918F917F916F915F914F913F9149
:104730002F910F900BBE0F900FBE0F901F901895EA
:104740009091B00080E0992309F481E008950895E4
:1047500004B603FE02C08FEF089581E00895A89586
:1047600008950E94741184B7877F84BFA895E0E6FE
:10477000F0E08081886180838DE080830E947611E3
:1047800008950E947411A89584B7877F84BFE0E6DE
:10479000F0E080818861808310820E947611089504
:1047A000089583B7817F866083BF83B7816083BFAD
:1047B000889583B78E7F83BF089583B7817F83BF3A
:1047C00083B7816083BF889583B78E7F83BF089549
:1047D000FC0176836583089525E5FA012083FB01BA
:1047E00032979083818312921292129212921292B5
:1047F0001292129212921292129212921292129299
:104800001292129212921292129212921292129288
:104810001292129212921292129212921292129278
:1048200012921292129212921292CF01089585E57D
:1048300080937E21EEEFF1E2F093FE03E093FD031F
:104840008DE791E190838093FF2108958DE791E1B9
:104850009093FE218093FF2108950E9476200E946C
:1048600076110895EF92FF920F931F93CF93DF93EA
:10487000EC018B017A014032510518F481E10E946C
:10488000F1130894E108F108E00EF11EFA82E982C2
:104890001C830B83DF91CF911F910F91FF90EF90BD
:1048A0000895A0916E05B0916F05CD91CDBFDD91BA
:1048B000DEBFFF91EF91DF91CF91BF91AF919F91BB
:1048C0008F917F916F915F914F913F912F911F91A8
:1048D0000F91FF90EF90DF90CF90BF90AF909F909F
:1048E0008F907F906F905F904F903F902F901F9090
:1048F0000F900FBE0F9018956F927F928F929F929C
:10490000AF92BF92CF92DF92EF92FF920F931F93DD
:10491000DF93CF93CDB7DEB72D970FB6F894DEBFF8
:104920000FBECDBF6C014B018A01FC0117821682BC
:10493000838181FD06C02FEF3FEF0EC10E5F1F4F39
:1049400004C05E010894A11CB11CF601F380F401BF
:10495000F3FC8591F3FE81914F01882309F4F9C09E
:10496000853251F4F3FC2591F3FE21914F0125325C
:1049700011F030E01FC085E290E032C0222309F43C
:10498000E8C086E093E0622F70E02C873D870E94AC
:1049900017262C853D85009739F4233211F43061B8
:1049A00003C02C3661F43068F401F3FC2591F3FE6A
:1049B00021914F0137FFE2CF222309F4CAC0F32E21
:1049C0008FEF92E0622F70E02C873D870E941726C0
:1049D0002C853F2D009741F00C5F1F4F8FE390E037
:1049E000B6010E946E26B1CF233629F0233791F00D
:1049F000233509F50DC032E0E32EF12CE00EF11E57
:104A0000F80180819181B6010E946E2687019DCFB9
:104A1000F1E0FF2AF8016080718004C090E0B601E7
:104A20000E946E26F301F0FC8591F0FE81913F011A
:104A30008823A1F783CF243611F0293629F537FFD3
:104A400008C0F80160817181828193810C5F1F4FE2
:104A500009C0F80160817181882777FD8095982FC2
:104A60000E5F1F4F2FEEF22EF32297FF09C0909595
:104A70008095709561957F4F8F4F9F4FF0E4FF2A8F
:104A8000A5012AE030E035C02037B1F0213730F4FD
:104A90002835C9F02F3609F05CC006C0253739F03B
:104AA000283709F056C00AC028E030E010C02FEEC9
:104AB000F2222AE030E00BC080E1F82AE4E2FE2A8C
:104AC00020E130E004C0F4E0FF2A20E132E0F7FE0C
:104AD00008C0F80160817181828193810C5F1F4F52
:104AE00007C0F8016081718180E090E00E5F1F4F88
:104AF000A5010E94AC26E82EEA186F2C7724F6FE5A
:104B000005C08DE290E0B6010E946E2664FE15C0DD
:104B1000FE01EE0DF11D8081803379F080E390E09D
:104B2000B6010E946E2662FE08C0C30180729070BA
:104B3000885A9F4FB6010E946E26EA94F501EE0D49
:104B4000F11D808190E0B6010E946E26EE20A9F74B
:104B5000FCCEF60126813781C9012D960FB6F89457
:104B6000DEBF0FBECDBFCF91DF911F910F91FF90A0
:104B7000EF90DF90CF90BF90AF909F908F907F90FD
:104B80006F900895629FD001739FF001829FE00DA6
:104B9000F11D649FE00DF11D929FF00D839FF00DBC
:104BA000749FF00D659FF00D9927729FB00DE11D68
:104BB000F91F639FB00DE11DF91FBD01CF01112445
:104BC0000895AA1BBB1B51E107C0AA1FBB1FA61754
:104BD000B70710F0A61BB70B881F991F5A95A9F7A6
:104BE00080959095BC01CD010895A1E21A2EAA1BD3
:104BF000BB1BFD010DC0AA1FBB1FEE1FFF1FA2178D
:104C0000B307E407F50720F0A21BB30BE40BF50B89
:104C1000661F771F881F991F1A9469F76095709512
:104C2000809590959B01AC01BD01CF010895FC01D9
:104C30000590061621F00020D9F7C001089531979C
:104C4000CF0108950F931F93CF93DF93EC018B0156
:104C5000009731F46115710519F420E030E038C097
:104C600081E090E06EE070E00E942027FC019C0152
:104C7000009771F180E883830115110571F01387A6
:104C8000028781E883838091A6059091A70500970C
:104C900021F4F093A705E093A6052097C9F0D187EA
:104CA000C0878381826083838091A8059091A90544
:104CB000009771F4F093A905E093A8058091AA05E7
:104CC0009091AB05009721F4F093AB05E093AA0512
:104CD000C901DF91CF911F910F9108950F931F93F9
:104CE000CF93DF938C01EB018B8181FF1BC082FF8F
:104CF0000DC02E813F818C819D812817390764F476
:104D0000E881F9810193F983E88306C0E885F98594
:104D1000802F0995009731F48E819F8101969F83A2
:104D20008E8302C00FEF1FEFC801DF91CF911F915B
:104D30000F910895DF93CF93CDB7DEB7FE0135967F
:104D4000619171918091A8059091A905AF010E9490
:104D50007C24CF91DF910895FA01AA27283051F1E0
:104D6000203181F1E8946F936E7F6E5F7F4F8F4F9C
:104D70009F4FAF4FB1E03ED0B4E03CD0670F781FFB
:104D8000891F9A1FA11D680F791F8A1F911DA11DE0
:104D90006A0F711D811D911DA11D20D009F4689419
:104DA0003F912AE0269F11243019305D3193DEF6C1
:104DB000CF010895462F4770405D4193B3E00FD077
:104DC000C9F7F6CF462F4F70405D4A3318F0495D62
:104DD00031FD4052419302D0A9F7EACFB4E0A69545
:104DE0009795879577956795BA95C9F70097610567
:104DF000710508959B01AC010A2E069457954795BD
:104E000037952795BA95C9F7620F731F841F951FB1
:104E1000A01D0895F999FECF92BD81BDF89A9927FA
:104E200080B50895262FF999FECF1FBA92BD81BD96
:104E300020BD0FB6F894FA9AF99A0FBE019608951C
:104E4000EF92FF920F931F93CF93DF93689F8001A0
:104E5000699F100D789F100D1124C8010E944627EC
:104E6000E82EE7017E01F92EE701E114F10431F0AB
:104E70008E2D60E070E0A8010E948028CE01DF91B5
:104E8000CF911F910F91FF90EF900895EF92FF92B5
:104E90000F931F93CF93DF938230910510F482E03C
:104EA00090E0C091AE05D091AF0540E050E020E029
:104EB00030E028C06881798168177907D8F06817D1
:104EC000790779F48A819B812115310521F0F90157
:104ED0009383828304C09093AF058093AE05DE0177
:104EE00029C04115510519F06417750718F4AB0175
:104EF000D901FE019E017A816B81E72EE7017E01D7
:104F0000F62EE7012097B1F641155105F9F0481B3F
:104F1000590B4430510580F482819381109729F018
:104F200013969C938E93129704C09093AF05809331
:104F3000AE05DF01129645C0DF01A40FB51F8D93AA
:104F40009D9342505040518340833BC02091AC051B
:104F50003091AD052115310541F42091C902309100
:104F6000CA023093AD052093AC052091CB0230915D
:104F7000CC022115310541F42DB73EB74091C7024F
:104F80005091C802241B350BA091AC05B091AD0522
:104F9000A217B307A0F42A1B3B0B2817390778F098
:104FA000AC014E5F5F4F2417350748F04A0F5B1F77
:104FB0005093AD054093AC058D939D9302C0A0E046
:104FC000B0E0CD01DF91CF911F910F91FF90EF9055
:104FD0000895CF93DF93009709F48FC0FC013297B7
:104FE000138212826091AE057091AF056115710553
:104FF00081F420813181280F391F8091AC05909177
:10500000AD058217930761F5F093AD05E093AC050C
:1050100074C0EB0180E090E0CE17DF0740F42A81F6
:105020003B81CE012115310501F1E901F5CFD38393
:10503000C283DF014D915D919D01240F351FC21781
:10504000D30761F428813981240F351F2E5F3F4F2C
:10505000318320832A813B8133832283009729F483
:10506000F093AF05E093AE0548C0DC011396FC93C6
:10507000EE931297EC0149915991C40FD51FEC178B
:10508000FD0779F420813181240F351F2E5F3F4FBA
:1050900011963C932E932281338113963C932E9349
:1050A0001297E0E0F0E0DB0112968D919C9113974E
:1050B000009721F0E62FF72FBC01F5CF9B012E5F63
:1050C0003F4FDB018D919C911197820F931F40916F
:1050D000AC055091AD054817590779F4309729F47C
:1050E0001092AF051092AE0502C0138212822250B8
:1050F00030403093AD052093AC05DF91CF910895FA
:10510000DC0101C06D9341505040E0F70895F894E0
:02511000FFCFCF
:105112005461736B32205049443D25640D0A0025C9
:10512200780025780D0A006368616E203D202564B1
:105132000D0A005461736B31205049443D25640DC2
:105142000A0057726F746520257520746F202564DC
:105152000D0A00526561642025752066726F6D200C
:1051620025640D0A00182038010911192129313945
:10517200030B131B2333040C141C242C343C050D89
:10518200151D252D353D2564006375723A20256471
:105192002000626F74746F6D203D202578200063BB
:1051A200616E617279203D202578200073746B2036
:1051B2003D20257820007463622061646472203D82
:1051C2002025780D0A0025643A20626F74746F6D91
:0E51D200203D20257820002000B005000000C0
:00000001FF
