:100000000C94EE010C9412280C940D020C940D0229
:100010000C940D020C940D020C940D020C940D0224
:100020000C940D020C9440280C940D020C940D02BB
:100030000C940D020C94F3250C940D020C94F325F2
:100040000C940D020C9426260C940D020C940D02B7
:100050000C940D020C940D020C940D020C940D02E4
:100060000C940D020C940D020C940D020C940D02D4
:100070000C940D020C940D020C940D020C940D02C4
:100080000C9430260C940D020C940D020C940D026D
:100090000C940D020C940D020C940D020C940D02A4
:1000A0000C940D020C940D020C940D020C940D0294
:1000B0000C940D020C940D020C940D020C940D0284
:1000C0000C940D020C940D020C940D025218581849
:1000D0005B185E18611864186A1867186D18701834
:1000E000731879187C187F18821876184F185518CD
:1000F0004E616E6F2D524B2056657273696F6E2084
:10010000000D0A4E616E6F2D524B205461736B20AF
:10011000537461746973746963733A0D0A000D0A4C
:10012000000D0A2020204F766572666C6F7720459F
:1001300072726F72205374617475733A20000D0AE5
:100140002020204B65726E656C2056696F6C61745F
:10015000696F6E733A20000D0A2020205072656589
:100160006D7074696F6E733A20000D0A2020205361
:100170007761702D696E733A20000D0A202020549B
:10018000696D65205B4D696E2C4C6173742C4D61FB
:10019000785D3A20000D0A202020546F74616C2095
:1001A0004350553A20000D0A20202049646C6520F8
:1001B0005461736B204465657020536C65657020D5
:1001C00054696D653A20000D0A202020546F746137
:1001D0006C2053797374656D20557074696D653A40
:1001E0002000205461736B2049443A2000554E4B47
:1001F0004F574E004661696C656420746F206372CE
:10020000656174652053656D6170686F7265004645
:1002100061696C656420746F206372656174652028
:100220005369676E616C004B65726E656C20667514
:100230006E6374696F6E206E6F7420696D706C658B
:100240006D656E746564004465766963652044720B
:1002500069766572204572726F72005761746368C7
:10026000646F6720526573746172740054696D65C0
:1002700072204F766572666C6F7700556E68616E9E
:10028000646C656420496E74657272757074205672
:100290006563746F72004C6F7720566F6C74616782
:1002A00065004578747261205461736B20737461CA
:1002B000727465642C206973206E726B5F6366676D
:1002C0002E68206F6B3F0049646C65206F72204B75
:1002D00065726E656C20537461636B204F76657236
:1002E000666C6F7700556E65787065637465642021
:1002F00052657374617274004475706C69636174E3
:100300006564205461736B204944005363686564DD
:10031000756C6572204D69737365642057616B65F8
:100320007570005461736B20526573657276652039
:1003300056696F6C617465640052657365727665A9
:10034000204572726F7220696E2053636865647510
:100350006C657200496E76616C69642053746163E8
:100360006B20506F696E746572005461736B20531B
:100370007461636B204F766572666C6F770053749F
:1003800061636B20776173206E6F742064656669AA
:100390006E6564206173206C6172676520656E6FA5
:1003A0007567682100293A20002A4E524B20455299
:1003B000524F5228000D0A535441434B2044554D8F
:1003C000500D0A0045464765666700202B2D2E30EC
:1003D00031323334353637383968000011241FBEC6
:1003E000CFEFD1E2DEBFCDBF12E0A0E0B2E0E6EA9F
:1003F000FAE500E00BBF02C007900D92A63EB107E0
:10040000D9F715E0A6EEB2E001C01D92AF3BB107EF
:10041000E1F70E940E030C94522D0C945E26AF92CD
:10042000BF92DF92EF92FF920F931F93CF93DF93D0
:10043000CDB7DEB72A970FB6F894DEBF0FBECDBF9B
:10044000D82E7E010894E11CF11C87019E2D9E018F
:10045000255F3F4F802F891BF80181938F01E217A1
:10046000F307C1F780E0A82E82E0B82EF701819152
:100470007F0199279F938F93BF92AF920E941C2B6D
:100480000F900F900F900F90E016F10679F78D2DD9
:1004900099279F938F9384E092E09F938F930E947C
:1004A0001C2B0F900F900F900F90F1E0FD1520F492
:1004B0008D2D81500E940F0280E090E02A960FB6A9
:1004C000F894DEBF0FBECDBFDF91CF911F910F918A
:1004D000FF90EF90DF90BF90AF9008950F931F9320
:1004E0000AEE12E061EC72E0C8010E94BB2840E80D
:1004F00050E069E173E0C8010E941C2981E080930B
:10050000F2028093F1028093F3028093F40210923E
:10051000F5021092F6021092F7021092F80280E0B3
:100520009DE2A1E3B1E08093F9029093FA02A093D7
:10053000FB02B093FC021092FD021092FE02109298
:10054000FF02109200031092010310920203109216
:1005500003031092040310920503109206031092F5
:100560000703109208031092090310920A031092D5
:100570000B0310920C03C8010E948A1F1F910F9158
:1005800008950F931F9380EF90E00E948C1185E6F1
:1005900090E09F938F9383E192E09F938F930E94CB
:1005A0001C2B1F921F9288E192E09F938F930E94D1
:1005B0001C2B0E948C1D99279F938F9382E392E0BE
:1005C0009F938F930E941C2B009142028DB79EB780
:1005D0000C960FB6F8949EBF0FBE8DBF802F0E9461
:1005E0003D0D0E94EF25182F0E945A250E943725A5
:1005F00062E07CE180E090E00E947426812F8E5FB3
:100600000E9465250E94682582E390E00E942925CA
:10061000802F0E94C20D0E944C1FE0CFCFEFD1E28D
:10062000DEBFCDBF0E94360D87E090E00E946B11C7
:100630000E94C61380E090E00E94D61081E090E016
:100640000E94D61082E090E00E94D61083E090E0F5
:100650000E94D61020E030E040E050E060E070E022
:1006600080E090E00E94EE200E946E020E946613DD
:1006700080E090E00C94522D99279C01265A3E4B25
:100680000B97880F991F880F991F280F391FF8940F
:10069000409888E18EBD0DB407FEFDCF832F9927CA
:1006A0008EBD0DB407FEFDCF2EBD0DB407FEFDCFF0
:1006B000409A78940895F89440981EBC0DB407FEB3
:1006C000FDCF8EB5409A789486FFF5CF089580913E
:1006D000C90499270895CF93DF93DC01409889ECF2
:1006E0008EBD0DB407FEFDCF80E88EBD0DB407FEB4
:1006F000FDCF92E09150FD01E90FF11D80818EBD8B
:100700000DB407FEFDCF9923A9F7409A40988BECD2
:100710008EBD0DB407FEFDCF80E88EBD0DB407FE83
:10072000FDCF92E09D012E5F3F4FE9019150F9010D
:10073000E90FF11D80818EBD0DB407FEFDCF992319
:10074000A1F7409A8C918093CA04FD018181809326
:10075000CB0488818093CC0483818093CD04DF9186
:10076000CF910895409889E18EBD0DB407FEFDCF6D
:1007700083E08EBD0DB407FEFDCF86E08EBD0DB4C7
:1007800007FEFDCF409A40988AE18EBD0DB407FE6A
:10079000FDCF8EE08EBD0DB407FEFDCF8EE08EBD89
:1007A0000DB407FEFDCF409A81E08093BA0408950E
:1007B000409889E18EBD0DB407FEFDCF81E08EBD6E
:1007C0000DB407FEFDCF84EC8EBD0DB407FEFDCF4A
:1007D000409A1092BA0408958091B8049091B90497
:1007E0000895282F33272F713070206E306A40987B
:1007F00085E18EBD0DB407FEFDCF832F99278EBDF9
:100800000DB407FEFDCF2EBD0DB407FEFDCF409AFF
:1008100008952091BB043091BC0438603093BC042F
:100820002093BB04409881E18EBD0DB407FEFDCF3F
:10083000832F99278EBD0DB407FEFDCF2EBD0DB4BD
:1008400007FEFDCF409A08952091BB043091BC046F
:10085000377F3093BC042093BB04409881E18EBD68
:100860000DB407FEFDCF832F99278EBD0DB407FE73
:10087000FDCF2EBD0DB407FEFDCF409A089581E057
:100880008093C8042091BB043091BC042061309354
:10089000BC042093BB04409881E18EBD0DB407FEDB
:1008A000FDCF832F99278EBD0DB407FEFDCF2EBD42
:1008B0000DB407FEFDCF409A08951092C804209110
:1008C000BB043091BC042F7E3093BC042093BB0446
:1008D000409881E18EBD0DB407FEFDCF832F99278F
:1008E0008EBD0DB407FEFDCF2EBD0DB407FEFDCFAE
:1008F000409A089581E08093C504409883E08EBDBE
:100900000DB407FEFDCF409A409888E08EBD0DB42F
:1009100007FEFDCF409A1092CE04089581E08093A7
:10092000C504409883E08EBD0DB407FEFDCF409A0C
:10093000409888E08EBD0DB407FEFDCF409A10921E
:10094000CE0408951092C504409886E08EBD0DB483
:1009500007FEFDCF409A1092CE04089589B19927E1
:1009600076E0969587957A95E1F781709070089575
:100970008CB1992787FD90958827990F881F992713
:10098000089589B19927F6E096958795FA95E1F74C
:10099000817090700895CF93DF93CDB7DEB7249721
:1009A0000FB6F894DEBF0FBECDBF582F679903C0B6
:1009B00080E090E021C21092C904679B1FC031996A
:1009C0001DC040988FE78EBD0DB407FEFDCF1EBC45
:1009D0000DB407FEFDCF8EB5409A409888E08EBDDD
:1009E0000DB407FEFDCF409A409888E08EBD0DB44F
:1009F00007FEFDCF409A8FEF9FEFFEC140988FE733
:100A00008EBD0DB407FEFDCF1EBC0DB407FEFDCF9D
:100A10004EB5409A4F77E9F440988FE78EBD0DB4FC
:100A200007FEFDCF1EBC0DB407FEFDCF8EB5409A6C
:100A3000409888E08EBD0DB407FEFDCF409A4098E7
:100A400088E08EBD0DB407FEFDCF409A8EEF9FEF7C
:100A5000D3C145308CF0E091BD04F091BE04242F49
:100A6000332727FD30952B5030408481992787FD0F
:100A7000909582179307C4F540988FE78EBD0DB40B
:100A800007FEFDCF60E070E0242F332727FD30956F
:100A900006C01EBC0DB407FEFDCF6F5F7F4F862FD3
:100AA00099278217930714F43199F3CF409A40980D
:100AB0008FE78EBD0DB407FEFDCF1EBC0DB407FE43
:100AC000FDCF8EB5409A409888E08EBD0DB407FEEC
:100AD000FDCF409A409888E08EBD0DB407FEFDCF53
:100AE000409A8DEF9FEF88C1E091BD04F091BE0464
:100AF0004C504383552381F0E091BD04F091BE0436
:100B00008381992787FD9095262F33278217930796
:100B100019F08AEF9FEF70C140988FE78EBD0DB43A
:100B200007FEFDCFFE0131969E012D5F3F4F1EBC9B
:100B30000DB407FEFDCF8EB58193E217F307B9F729
:100B4000409AE091BD04F091BE0489819A81A5E0AC
:100B500096958795AA95E1F78170878340988FE7EE
:100B60008EBD0DB407FEFDCF1EBC0DB407FEFDCF3C
:100B7000E091BD04F091BE048EB58083409A409808
:100B80008FE78EBD0DB407FEFDCF80E007C01EBC11
:100B90000DB407FEFDCF8F5F843011F03199F7CF90
:100BA000409A40988FE78EBD0DB407FEFDCF20E040
:100BB00030E01EBC0DB407FEFDCFE091BD04F09106
:100BC000BE04E20FF31F8EB581832F5F3F4F2230AB
:100BD000310579F7409A89819A8183FF56C0409800
:100BE0008FE78EBD0DB407FEFDCFE4EBF4E01EBC35
:100BF0000DB407FEFDCF8EB5819384E0E83BF80786
:100C0000B1F7409A409889E98EBD0DB407FEFDCF3B
:100C100080E88EBD0DB407FEFDCF92E09150E92F24
:100C2000FF27EC54FB4F80818EBD0DB407FEFDCF36
:100C30009923A1F7409A40988BE98EBD0DB407FE29
:100C4000FDCF80E88EBD0DB407FEFDCF92E0915040
:100C5000E92FFF27EA54FB4F80818EBD0DB407FEBC
:100C6000FDCF9923A1F7409A40988CE08EBD0DB43A
:100C700007FEFDCF409A81E08093C904E091BD0456
:100C8000F091BE0483818450838340988FE78EBDAA
:100C90000DB407FEFDCF40E050E011C01EBC0DB406
:100CA00007FEFDCFE091BD04F091BE040580F68102
:100CB000E02DE60FF11D8EB580834F5F5F4F642FEF
:100CC000E091BD04F091BE04242F3327838199273E
:100CD00087FD9095281739070CF3409A40988FE7C5
:100CE0008EBD0DB407FC0AC0FCCF0DB407FEFDCFCE
:100CF0005EB5409A40988FE78EBD02C01EBCF5CF0E
:100D00000DB407FEFDCFFE0133969E012B5F3F4FD2
:100D10001EBC0DB407FEFDCF8EB58193E217F3071D
:100D2000B9F7409AE091BD04F091BE048B818087B1
:100D300040E020E030E00AC0E091BD04F091BE0444
:100D400085819681A80FB91F8C91480F822FE09161
:100D5000BD04F091BE042F5F3F4FA82FBB278381B6
:100D6000992787FD9095A817B90734F34517E9F03F
:100D700040988FE78EBD0DB407FEFDCF1EBC0DB4AD
:100D800007FEFDCF8EB5409A409888E08EBD0DB429
:100D900007FEFDCF409A409888E08EBD0DB407FE57
:100DA000FDCF409A8CEF9FEF27C08C8187FF08C052
:100DB0008091CE048F5F8093CE0481E090E01CC0D0
:100DC00040988FE78EBD0DB407FEFDCF1EBC0DB45D
:100DD00007FEFDCF8EB5409A409888E08EBD0DB4D9
:100DE00007FEFDCF409A409888E08EBD0DB407FE07
:100DF000FDCF409A8BEF9FEF24960FB6F894DEBF9D
:100E00000FBECDBFDF91CF9108958091CE0488238E
:100E100019F480E090E008958091CE041092CE0401
:100E2000992787FD90950895409888E08EBD0DB470
:100E300007FEFDCF409A409888E08EBD0DB407FEB6
:100E4000FDCF409A0895992787FD9095382F222746
:100E50002068409883E18EBD0DB407FEFDCF832F3F
:100E600099278EBD0DB407FEFDCF2EBD0DB407FE34
:100E7000FDCF409A0895409886E08EBD0DB407FEE0
:100E8000FDCF409A409882E18EBD0DB407FEFDCFA4
:100E900085E08EBD0DB407FEFDCF88E08EBD0DB49C
:100EA00007FEFDCF409A40988EE28EBD0DB407FE3E
:100EB000FDCF88E18EBD0DB407FEFDCF1EBC0DB485
:100EC00007FEFDCF409A0E9414070895409886E0DF
:100ED0008EBD0DB407FEFDCF409A409882E18EBDD5
:100EE0000DB407FEFDCF85E08EBD0DB407FEFDCF2E
:100EF0001EBC0DB407FEFDCF409A40988EE28EBD19
:100F00000DB407FEFDCF1EBC0DB407FEFDCF1EBC09
:100F10000DB407FEFDCF409A0E9414070895409833
:100F200084E08EBD0DB407FEFDCF409A0895409831
:100F300086E08EBD0DB407FEFDCF409A0895EF9276
:100F4000FF920F931F93CF93DF93CDB7DEB7229716
:100F50000FB6F894DEBF0FBECDBFDC015091BA04CE
:100F6000552339F040988DE08EBD0DB407FEFDCFBE
:100F7000409AFD014281642F772767FD709510E04C
:100F800020E030E008C0FD0183819481E80EF91E65
:100F9000F7018081180F822F2F5F3F4FE82EFF242B
:100FA000E616F70684F3942F945F51119C5F6799BE
:100FB000FECF4E99FCCFF894409889E08EBD0DB4D9
:100FC00007FEFDCF409A409889E08EBD0DB407FE24
:100FD000FDCF409A40988EE38EBD0DB407FC05C04E
:100FE000FCCF0DB407FC2AC1FCCF9EBDFACF81E631
:100FF00098E89A838983552329F089819A818860AA
:101000009A83898340988EE38EBD0DB407FEFDCF91
:10101000FE0131969E012D5F3F4F80818EBD0DB444
:1010200007FEFDCF3196E217F307B9F7409A4098D3
:101030008EE38EBD0DB407FC05C0FCCF0DB407FCDC
:1010400008C1FCCF8091BF048EBDF8CF0DB407FE60
:10105000FDCF20E030E0F901EF53FB4F80818EBDE2
:101060000DB407FEFDCF2F5F3F4F2230310599F7BA
:10107000409A40988EE38EBD0DB407FEFDCF20E070
:1010800030E0FD01E20FF31F80818EBD0DB407FE3D
:10109000FDCF2F5F3F4F2230310599F7409A40989E
:1010A0008EE38EBD0DB407FEFDCF20E030E0F901E8
:1010B000ED53FB4F80818EBD0DB407FEFDCF2F5F3A
:1010C0003F4F2230310599F7409A552399F04098C7
:1010D0008EE38EBD0DB407FEFDCFEAECF4E0808117
:1010E0008EBD0DB407FEFDCF319684E0EE3CF807CF
:1010F000B1F7409A40988EE38EBD0DB407FEFDCF48
:1011000020E030E00DC0FD0183819481480F591F1C
:10111000FA0180818EBD0DB407FEFDCF2F5F3F4FDA
:10112000422F55274617570774F3409A40988EE38D
:101130008EBD0DB407FC05C0FCCF0DB407FC8EC0FE
:10114000FCCF1EBDFACF8091C504882339F44098A6
:1011500083E08EBD0DB407FEFDCF409A40981EBCC3
:101160000DB407FEFDCF8EB5409A81FFF7CF00E0AA
:10117000409885E08EBD0DB407FEFDCF409A4098A3
:101180001EBC0DB407FEFDCF1EB5409A0F5F05369D
:1011900051F478948091B8049091B9040E94C01AD7
:1011A00080E090E062C084E690E00E949F1113FD11
:1011B00008C0DECF409884E08EBD0DB407FEFDCFA1
:1011C000409A78944E9BFECF4E99FECF8091C804F2
:1011D000882391F084EA92E00E949F11319B0EC017
:1011E00040988FE78EBD0DB407FEFDCF1EBC0DB439
:1011F00007FEFDCF8EB5409A91E00FC0409888E081
:101200008EBD0DB407FEFDCF409A409888E08EBD9C
:101210000DB407FEFDCF409A90E0F894409886E028
:101220008EBD0DB407FEFDCF409A78948091BF0427
:101230008F5F8093BF04892F992717C0409A81E45C
:1012400098E89A8389838091C804882309F0CFCED7
:10125000D2CE409A40988EE38EBDF8CE409AFD01E2
:101260008581882309F06FCFA5CF22960FB6F89419
:10127000DEBF0FBECDBFDF91CF911F910F91FF90C9
:10128000EF9008958F929F92BF92CF92DF92EF924C
:10129000FF920F931F93CF93DF93CDB7DEB72297C3
:1012A0000FB6F894DEBF0FBECDBF8C016B017A0183
:1012B00049010E94EF25409888E08EBD0DB407FEDD
:1012C000FDCF409A409888E08EBD0DB407FEFDCF5B
:1012D000409A6799FECF4E99FCCFF894409889E0E8
:1012E0008EBD0DB407FEFDCF409A409889E08EBDBB
:1012F0000DB407FEFDCF409AF8016281462F5527B5
:1013000047FD5095BB2420E030E007C0F801838101
:101310009481A80FB91F8C91B80E822F2F5F3F4F79
:10132000A82FBB27A417B5078CF3962F945F40987E
:101330008EE38EBD0DB407FC05C0FCCF0DB407FCD9
:101340001AC1FCCF9EBDFACF81E698E89A838983C3
:1013500040988EE38EBD0DB407FEFDCFFE013196A1
:101360009E012D5F3F4F80818EBD0DB407FEFDCFE6
:101370003196E217F307B9F7409A40988EE38EBD95
:101380000DB407FC05C0FCCF0DB407FCFDC0FCCFBD
:101390008091BF048EBDF8CF0DB407FEFDCF20E0D5
:1013A00030E0F901EF53FB4F80818EBD0DB407FE95
:1013B000FDCF2F5F3F4F2230310599F7409A40987B
:1013C0008EE38EBD0DB407FEFDCF20E030E0F801C6
:1013D000E20FF31F80818EBD0DB407FEFDCF2F5F9E
:1013E0003F4F2230310599F7409A40988EE38EBDE9
:1013F0000DB407FEFDCF20E030E0F901ED53FB4FC7
:1014000080818EBD0DB407FEFDCF2F5F3F4F223090
:10141000310599F7409AB701C6010E947426F80178
:101420008581882379F18091C504882339F4409817
:1014300083E08EBD0DB407FEFDCF409AEE244098A8
:1014400085E08EBD0DB407FEFDCF409A40981EBCCE
:101450000DB407FEFDCFFEB4409AE394F5E6EF1617
:1014600051F478948091B8049091B9040E94C01A04
:1014700080E090E090C084E690E00E949F11F3FC31
:1014800008C0DDCF409884E08EBD0DB407FEFDCFCF
:10149000409A809141020E943D0D40988EE38EBD9E
:1014A0000DB407FEFDCFF8018281482F552747FD77
:1014B000509520E030E00CC0F80183819481A80FA2
:1014C000B91F8C918EBD0DB407FEFDCF2F5F3F4F2E
:1014D000A22FBB27A417B5077CF3409A40988EE350
:1014E0008EBD0DB407FC05C0FCCF0DB407FC51C088
:1014F000FCCFBEBCFACF4E9BFECF80918400909172
:101500008500F4019183808310914C02812F0E9409
:101510003D0D812F0E94C20DF8944E99FECF409848
:1015200088E08EBD0DB407FEFDCF409A409888E05C
:101530008EBD0DB407FEFDCF409A409889E08EBD68
:101540000DB407FEFDCF409A409889E08EBD0DB4E2
:1015500007FEFDCF409A409886E08EBD0DB407FE91
:10156000FDCF409A78948091BF048F5F8093BF0431
:1015700081E090E010C0409AF8018681882309F04C
:10158000E3CE81E498E8E2CE409A40988EE38EBDA7
:1015900003CF409AB0CF22960FB6F894DEBF0FBEAD
:1015A000CDBFDF91CF911F910F91FF90EF90DF9012
:1015B000CF90BF909F908F900895CF93DF93CDB73A
:1015C000DEB722970FB6F894DEBF0FBECDBF9A8369
:1015D00089839093C4048093C30484EF91E00E94B4
:1015E000292540988AEE8EBD0DB407FEFDCF80E818
:1015F0008EBD0DB407FEFDCFFE0131969E012D5F1D
:101600003F4F80818EBD0DB407FEFDCF3196E217AE
:10161000F307B9F7409A84EF91E00E9429252296BA
:101620000FB6F894DEBF0FBECDBFDF91CF91089506
:101630006F927F928F929F92AF92BF92CF92DF92E2
:10164000EF92FF920F931F93CF93DF93CDB7DEB747
:1016500022970FB6F894DEBF0FBECDBF8C0184E693
:1016600090E00E9429257801C12CB1E0DB2E3E01DB
:101670000894611C711CA3E08A2E912C8C0E9D1E77
:10168000F7018081218133279927982F8827282BDC
:10169000392B3A83298384E690E00E9429254098DB
:1016A0008C2D80688EBD0DB407FEFDCFC6019595CB
:1016B0008795807C8EBD0DB407FEFDCF830153015D
:1016C000F50180818EBD0DB407FEFDCF0894A11CED
:1016D000B11CA814B904A1F7409A0894E11CF11CAC
:1016E00082E090E0C80ED91E90E1C91691E0D906BB
:1016F00039F684E690E00E94292520E131E040E4BB
:1017000051E01A8219824098842F80688EBD0DB4F2
:1017100007FEFDCFCA0195958795807C8EBD0DB4DF
:1017200007FEFDCFF80180818EBD0DB407FEFDCF11
:101730003196EA15FB05B9F7409A4098822F8068E8
:101740008EBD0DB407FEFDCFC90195958795807CB0
:101750008EBD0DB407FEFDCFF80180818EBD0DB4A6
:1017600007FEFDCF3196EA15FB05B9F7409A2E5FCB
:101770003F4F4E5F5F4FE1E02E313E0711F681E0B3
:1017800090E09A83898340988EEC8EBD0DB407FE5D
:10179000FDCF80E88EBD0DB407FEFDCFF80180813E
:1017A0008EBD0DB407FEFDCF3196EA15FB05B9F7E6
:1017B000409A40988EE98EBD0DB407FEFDCF80E8BB
:1017C0008EBD0DB407FEFDCFF80180818EBD0DB436
:1017D00007FEFDCF0F5F1F4F0A151B05A9F7409AA3
:1017E00022960FB6F894DEBF0FBECDBFDF91CF912A
:1017F0001F910F91FF90EF90DF90CF90BF90AF902F
:101800009F908F907F906F900895CF93DF93EC011E
:10181000409888E08EBD0DB407FEFDCF409A4098F9
:1018200088E08EBD0DB407FEFDCF409A862F0E9442
:101830003C03D093BE04C093BD04DF91CF910895C3
:101840000E943C030895DF92EF92FF920F931F9343
:10185000CF93DF93CDB7DEB722970FB6F894DEBFF4
:101860000FBECDBF8C01D62E5A8349837901159ABC
:1018700088EE93E00E949F11169881E090E00E940C
:101880009F11169A84E690E00E949F11F894409868
:1018900081E08EBD0DB407FEFDCF409A82EE92E04E
:1018A0009093BC048093BB04409881E18EBD0DB43D
:1018B00007FEFDCF82E08EBD0DB407FEFDCF82EEA8
:1018C0008EBD0DB407FEFDCF409A409882E18EBDDB
:1018D0000DB407FEFDCF85E08EBD0DB407FEFDCF34
:1018E0001EBC0DB407FEFDCF409A40988CE18EBD22
:1018F0000DB407FEFDCF1EBC0DB407FEFDCF8FE774
:101900008EBD0DB407FEFDCF409A409889E18EBD93
:101910000DB407FEFDCF81E08EBD0DB407FEFDCFF7
:1019200084EC8EBD0DB407FEFDCF409A409887E150
:101930008EBD0DB407FEFDCF8AE18EBD0DB407FE4E
:10194000FDCF86E58EBD0DB407FEFDCF409A84EF36
:1019500091E00E942925409888EE8EBD0DB407FEC7
:10196000FDCF80E88EBD0DB407FEFDCFFE013196A0
:101970009E012D5F3F4F80818EBD0DB407FEFDCFD0
:101980003196E217F307B9F7409A84EF91E00E948D
:10199000292578948D2D0E943C0378941093BE04E1
:1019A0000093BD0489819A819093C2048093C104FD
:1019B000F092C404E092C3041092BF041092C504D4
:1019C0000E945B031092C8041092BA041092C904DA
:1019D00022960FB6F894DEBF0FBECDBFDF91CF9138
:1019E0001F910F91FF90EF90DF9008958FEF9FEF81
:1019F0000895813051F48091C800992787FD909512
:101A00008827990F881F99270895882319F080E067
:101A100090E008958091C000992787FD90958827D0
:101A2000990F881F992708958091C80087FFFCCFE0
:101A30008091C8008F778093C8008091CE0099274D
:101A4000089585B7806185BF86E084B987E085B950
:101A500081E087B988B98CE38DB98BE08AB98EE3D0
:101A60008EB988E781B980E482B908950E94210D7A
:101A700080E58CBD81E08DBD08958F3F09F47FC066
:101A8000482F55279A012770307022303105A9F16F
:101A90002330310544F42115310589F02130310519
:101AA00009F06DC01CC02430310509F446C0243053
:101AB00031059CF12530310509F061C04EC022B1DD
:101AC000B3E056954795BA95E1F781E090E002C002
:101AD000880F991F4A95E2F7282B22B94DC085B18E
:101AE000A3E056954795AA95E1F702C0220F331F50
:101AF0004A95E2F7822B85B93FC028B1F3E05695AD
:101B00004795FA95E1F781E090E002C0880F991FB0
:101B10004A95E2F7282B28B92FC02BB1E3E0569560
:101B20004795EA95E1F781E090E002C0880F991FA0
:101B30004A95E2F7282B2BB91FC02EB173E05695BA
:101B400047957A95E1F781E090E002C0880F991FF0
:101B50004A95E2F7282B2EB90FC021B363E05695C2
:101B600047956A95E1F781E090E002C0880F991FE0
:101B70004A95E2F7282B21BB81E090E008958FEF92
:101B80009FEF08958F3F09F486C0482F55279A018B
:101B90002770307022303105C1F12330310544F413
:101BA0002115310589F02130310509F074C01DC0BF
:101BB0002430310509F44BC024303105BCF1253007
:101BC000310509F068C054C022B1E3E0569547954D
:101BD000EA95E1F781E090E002C0880F991F4A95ED
:101BE000E2F78095822382B953C095B173E0569590
:101BF00047957A95E1F702C0220F331F4A95E2F725
:101C0000822F8095892385B943C028B163E056951A
:101C100047956A95E1F781E090E002C0880F991F2F
:101C20004A95E2F78095822388B932C02BB133E020
:101C3000569547953A95E1F781E090E002C0880F0C
:101C4000991F4A95E2F7809582238BB921C02EB166
:101C500093E0569547959A95E1F781E090E002C0B0
:101C6000880F991F4A95E2F7809582238EB910C09C
:101C700021B383E0569547958A95E1F781E090E09E
:101C800002C0880F991F4A95E2F78095822381BB95
:101C900081E090E008958FEF9FEF08958F3FA9F1C5
:101CA000282F3327C9018770907082309105A9F0E1
:101CB000833091052CF4009761F0019731F50BC04A
:101CC0008430910571F0843091054CF00597E9F46A
:101CD0000AC080B109C083B107C086B105C089B10F
:101CE00003C08CB101C08FB19927F3E036952795D9
:101CF000FA95E1F702C0959587952A95E2F799271D
:101D000087FD90958170907008958FEF9FEF0895F3
:101D10008F3F09F403C1282F3327A9014770507062
:101D20004230510509F45CC04330510544F441157B
:101D3000510591F04130510509F0F0C034C04430F4
:101D4000510509F49BC0443051050CF470C0453076
:101D5000510509F0E3C0B9C080B1A90173E05695FF
:101D600047957A95E1F79927042E02C095958795B6
:101D70000A94E2F780FD0BC022B181E090E002C03E
:101D8000880F991F4A95E2F7282B22B9C4C022B1C7
:101D900081E090E002C0880F991F4A95E2F7809594
:101DA000822382B9B8C083B163E0369527956A95DE
:101DB000E1F79927022E02C0959587950A94E2F7DC
:101DC00002C0440F551F2A95E2F780FD03C085B17C
:101DD000842B04C095B1842F8095892385B99BC03D
:101DE00086B1A90123E0569547952A95E1F79927F1
:101DF000042E02C0959587950A94E2F780FD0BC0EA
:101E000028B181E090E002C0880F991F4A95E2F75F
:101E1000282B28B980C028B181E090E002C0880F4B
:101E2000991F4A95E2F78095822388B974C089B1D9
:101E3000A90193E0569547959A95E1F79927042EC5
:101E400002C0959587950A94E2F780FD0BC02BB1EF
:101E500081E090E002C0880F991F4A95E2F7282B95
:101E60002BB959C02BB181E090E002C0880F991FB7
:101E70004A95E2F7809582238BB94DC08CB1A901B8
:101E8000B3E056954795BA95E1F79927042E02C01D
:101E9000959587950A94E2F780FD0BC02EB181E0FD
:101EA00090E002C0880F991F4A95E2F7282B2EB9BF
:101EB00032C02EB181E090E002C0880F991F4A9590
:101EC000E2F7809582238EB926C08FB1A901A3E0E5
:101ED00056954795AA95E1F79927042E02C0959546
:101EE00087950A94E2F780FD0BC021B381E090E072
:101EF00002C0880F991F4A95E2F7282B21BB0BC01F
:101F000021B381E090E002C0880F991F4A95E2F763
:101F10008095822381BB81E090E008958FEF9FEF51
:101F200008958F3F09F412C1482F5527662309F001
:101F300090C0CA01877090708230910509F43EC04C
:101F4000833091053CF4009789F08130910509F0C8
:101F5000FDC021C08430910509F454C0843091053E
:101F60000CF43EC0059709F0F1C05EC031B1B3E09A
:101F700056954795BA95E1F781E090E002C0880F49
:101F8000991F4A95E2F7282F2095232321B922B1E2
:101F9000822B82B9D8C024B1A3E056954795AA9563
:101FA000E1F702C0880F991F4A95E2F7982F8095B4
:101FB000822384B985B1982B95B9C5C037B1F3E0B8
:101FC00056954795FA95E1F781E090E002C0880FB9
:101FD000991F4A95E2F7282F2095232327B935C06A
:101FE0003AB1E3E056954795EA95E1F781E090E054
:101FF00002C0880F991F4A95E2F7282F20952323C6
:102000002AB923C03DB173E0569547957A95E1F71B
:1020100081E090E002C0880F991F4A95E2F7282FCF
:10202000209523232DB911C030B363E05695479511
:102030006A95E1F781E090E002C0880F991F4A9508
:10204000E2F7282F2095232320BB25B1822B85B9C9
:102050007AC09A012770307022303105A9F12330FF
:10206000310544F42115310589F02130310509F09D
:102070006DC01CC02430310509F446C02430310540
:102080009CF12530310509F061C04EC021B133E02B
:10209000569547953A95E1F781E090E002C0880FA8
:1020A000991F4A95E2F7282B21B94DC084B193E0DE
:1020B000569547959A95E1F702C0220F331F4A952E
:1020C000E2F7822B84B93FC027B1B3E0569547951C
:1020D000BA95E1F781E090E002C0880F991F4A9518
:1020E000E2F7282B27B92FC02AB1A3E056954795D0
:1020F000AA95E1F781E090E002C0880F991F4A9508
:10210000E2F7282B2AB91FC02DB1F3E05695479569
:10211000FA95E1F781E090E002C0880F991F4A9597
:10212000E2F7282B2DB90FC020B3E3E05695479571
:10213000EA95E1F781E090E002C0880F991F4A9587
:10214000E2F7282B20BB81E090E008958FEF9FEF0E
:102150000895882319F08FEF9FEF089580B1992794
:1021600087FD9095809590958827990F881F9927CE
:102170000895009711F484E109C08130910511F4AC
:102180008CE104C08230910531F484E20E94880E13
:1021900081E090E00895039719F08FEF9FEF089585
:1021A0008CE20E94880E81E090E00895009711F47F
:1021B00084E109C08130910511F48CE104C08230C2
:1021C000910531F484E20E943D0D81E090E0089594
:1021D000039719F08FEF9FEF08958CE20E943D0D59
:1021E00081E090E00895009711F484E109C0813006
:1021F000910511F48CE104C08230910531F484E240
:102200000E94C20D81E090E00895039719F08FEFCE
:102210009FEF08958CE20E94C20D81E090E0089546
:10222000882319F085B78F7E02C085B7806185BF8E
:1022300081E090E00895982F8091C00085FFFCCF49
:102240008091C0008F7D8093C0009093C600089558
:10225000982F8091C80085FFFCCF9093CE00089501
:10226000292F33272093C5008093C40086E08093F4
:10227000C200E1ECF0E080818B7F8083A0ECB0E0D5
:102280008C9182608C938081886180830895292F4E
:1022900033272093CD008093CC0086E08093CA0042
:1022A000E9ECF0E080818B7F8083A8ECB0E08C913A
:1022B00082608C9380818861808308958091C000C2
:1022C00087FFFCCF8091C0008F778093C000809102
:1022D000C60099270895EF92FF920F931F930E94D3
:1022E000471104E11DE058E2E52E51E1F52EB80159
:1022F000C7010E94A12A9093B8058093B705B80141
:10230000C7010E94A12A9093B6058093B5051F913D
:102310000F91FF90EF900895CF93DF93EC0107C0EA
:102320006091B7057091B80599270E94EF2AFE01C8
:10233000219684918823A1F7DF91CF910895000021
:102340000000000000000197D1F70895FC01A7E00C
:10235000B0E00E943E2D802D808381E090E00895C2
:10236000FC018081A7E0B0E0082E0E94462D81E0AC
:1023700090E00895DC010E943E2D802D992708955C
:10238000FC01A0E0B0E00E943E2D402D4383A1E07F
:10239000B0E00E943E2D802D8283A2E0B0E00E943A
:1023A0003E2D302D3183A3E0B0E00E943E2D902DD4
:1023B0009083A4E0B0E00E943E2D202D830F840F77
:1023C000890F281719F481E090E008958FEF9FEFAF
:1023D0000895FC01A5E0B0E00E943E2D802D808391
:1023E00081E090E00895FC01A6E0B0E00E943E2D5F
:1023F000802D808381E090E00895AC0120E030E002
:10240000D90118960E943E2D802DFA01E20FF31F8C
:1024100080832F5F3F4F2031310591F781E090E0BD
:102420000895DC01062E0E94462D0895FC0180814E
:10243000A6E0B0E0082E0E94462D81E090E00895CD
:10244000AC0120E030E0D9011896FA01E20FF31F49
:102450008081082E0E94462D2F5F3F4F203131058D
:1024600091F781E090E00895F894089578940895A4
:1024700085E690E008950E94E4220895EF92FF928D
:102480000F931F93CF93DF93EC018B017A01898522
:10249000823021F080917B05888301C01882809171
:1024A0007B05853020F060E087E00E94AA188985CE
:1024B000823029F080917B058F5F80937B0580912E
:1024C0007B05882319F481E080937B058881992717
:1024D00087FD9095FC0145E0EE0FFF1F4A95E1F75F
:1024E000E80FF91FEF52FB4F118300838881992772
:1024F00087FD9095FC0135E0EE0FFF1F3A95E1F75F
:10250000E80FF91FEF52FB4F888582878881992752
:1025100087FD9095FC0125E0EE0FFF1F2A95E1F75E
:10252000E80FF91FEF52FB4F83E081872881822F4C
:10253000992787FD9095FC0105E0EE0FFF1F0A9596
:10254000E1F7E80FF91FEF52FB4F208788819927A9
:1025500087FD9095FC0115E0EE0FFF1F1A95E1F73E
:10256000E80FF91FEF52FB4F15820881112707FD75
:1025700010952B853C854D855E856F857889898989
:102580009A890E94FF20F801B5E0EE0FFF1FBA956F
:10259000E1F7E00FF11FEF52FB4F948F838F08811B
:1025A000112707FD10952B8D3C8D4D8D5E8D6F8D08
:1025B00078A189A19AA10E94FF20F801A5E0EE0F61
:1025C000FF1FAA95E1F7E00FF11FEF52FB4F968B2B
:1025D000858B8881992787FD9095FC0175E0EE0F2A
:1025E000FF1F7A95E1F7E80FF91FEF52FB4F85893E
:1025F0009689238D348D820F931F908F878B08814E
:10260000112707FD10952B893C894D895E896F89BB
:10261000788D898D9A8D0E94FF20F80165E0EE0F7C
:10262000FF1F6A95E1F7E00FF11FEF52FB4F968F06
:10263000858F8881992787FD9095FC0155E0EE0FE5
:10264000FF1F5A95E1F7E80FF91FEF52FB4F858DF9
:10265000968D928F818F8881992787FD9095FC01B7
:1026600045E0EE0FFF1F4A95E1F7E80FF91FEF5223
:10267000FB4F81E090E090A3878F8881992787FDA9
:102680009095FC0135E0EE0FFF1F3A95E1F7E80F5A
:10269000F91FEF52FB4FF382E2828881992787FD71
:1026A0009095FC0125E0EE0FFF1F2A95E1F7E80F5A
:1026B000F91FEF52FB4F81E0848781E090E0DF91CA
:1026C000CF911F910F91FF90EF9008958F929F925D
:1026D000AF92BF92CF92DF92EF92FF920F931F9330
:1026E000CF93DF9369EDA62E64E0B62ECC24DD24D3
:1026F0004501EC2CF501F080FFEFFF1691F0E401AD
:1027000000E010E0E01639F08881F81621F46F2D12
:1027100085E00E94AA180F5F1F4FA1960530110592
:1027200089F70894C11CD11C81E290E0A80EB91E63
:1027300095E0C916D104E9F60E94A11C282F332781
:1027400027FD3095F90155E0EE0FFF1F5A95E1F78F
:10275000E20FF31FEF52FB4F328530938E0521E2DB
:102760008202C00111248F529B4F90938D0580935C
:102770008C0590937E0580937D0530937F050E94A4
:1027800017290E94FD280E943B29FFCF0F931F931A
:10279000CF93DF93CDB7DEB7A3970FB6F894DEBF24
:1027A0000FBECDBF0E94B11980937C058F3F21F4ED
:1027B00060E08EE00E94AA180E946E28882321F40F
:1027C00060E086E00E94AA180E9479288F3F31F4C9
:1027D0000E94842860E080E10E94AA180E94932849
:1027E00010927F0510928D0510928C0510927E0537
:1027F00010927D0510928E050E94601410928B0538
:102800008FEF8093780580937A0580937905E1EDC9
:10281000F4E083E682878FEF8087B19625E0E63784
:10282000F207B9F7EFE8F5E0CF01059694838383CB
:10283000F783E683FC0125E0883A9207A9F7109216
:102840009105109290051092AC051092AB05109274
:1028500082051092810549979093D0048093CF040C
:1028600060EC72E28E010F5F1F4FC8010E94BB280F
:1028700040E850E064E374E0C8010E941C2985E54B
:102880008093340419861C8E1D8E1E8E1F8E18A2F6
:1028900019A21AA21BA291E0988782E08A879B87DF
:1028A000C8010E948A1FA3960FB6F894DEBF0FBE20
:1028B000CDBFDF91CF911F910F910895F894FFCF75
:1028C00010920D0310920E0310920F03109210033A
:1028D000109211031092120310921303109214031A
:1028E000EDE9F3E0108211821282138210861186C4
:1028F0001286138614821582168217821486158614
:1029000016861786108A118A128A138A108E118EE3
:10291000128E138E148E158E7E9684E0E333F807A4
:1029200009F70895FC0180910D0390910E03A09189
:102930000F03B091100380839183A283B3838091AE
:10294000110390911203A0911303B0911403848397
:102950009583A683B78308959927FC0135E0EE0F90
:10296000FF1F3A95E1F7880F991FE81BF90BE35613
:10297000FC4F848D8F5F848F8F3F11F481E0858FB2
:1029800008959927FC0155E0EE0FFF1F5A95E1F7D6
:10299000880F991FE81BF90BE356FC4F148A158A20
:1029A000168A178A80899189A289B3890196A11D07
:1029B000B11D808B918BA28BB38B8F3F9105A105AD
:1029C000B10511F481E0858F0895262F9927FC0128
:1029D00075E0EE0FFF1F7A95E1F7880F991FE81B4E
:1029E000F90BE356FC4F808D918DA28DB38D01962E
:1029F000A11DB11D808F918FA28FB38F33274427E4
:102A0000552784899589A689B789820F931FA41FAA
:102A1000B51F848B958BA68BB78B80819181A2810A
:102A2000B381280F391F4A1F5B1F208331834283E4
:102A300053830895EF92FF920F931F93262F682FD1
:102A40007727CB01880F991FFB0115E0EE0FFF1FC1
:102A50001A95E1F7E81BF90BE356FC4F858D8130A1
:102A600009F449C0332744275527E488F5880689A7
:102A70001789E20EF31E041F151FE486F5860687EC
:102A8000178780819181A281B381280F391F4A1F46
:102A90005B1F208331834283538384819581A68188
:102AA000B7810097A105B10529F0E816F9060A07D4
:102AB0001B0720F4E482F58206831783FB01B5E04F
:102AC000EE0FFF1FBA95E1F7660F771FE61BF70BB6
:102AD000E356FC4F2485358546855785808591854D
:102AE000A285B38582179307A407B50720F4208732
:102AF0003187428753871F910F91FF90EF90089580
:102B0000CF93DF93EB01853018F08FEF9FEF4BC031
:102B10009927FC0135E0EE0FFF1F3A95E1F7880F8A
:102B2000991FE81BF90BE356FC4F80819181A2812C
:102B3000B38188839983AA83BB8384819581A6818D
:102B4000B7818C839D83AE83BF8380859185A28569
:102B5000B38588879987AA87BB8784859585A6854D
:102B6000B7858C879D87AE87BF8780899189A28929
:102B7000B389888B998BAA8BBB8B84899589A6890D
:102B8000B7898C8B9D8BAE8BBF8B808D918DA28DE9
:102B9000B38D888F998FAA8FBB8F848D8C8F858DF5
:102BA0008D8F81E090E0DF91CF910895EF92FF92B9
:102BB0000F931F93CF93DF93CDB7DEB760970FB618
:102BC000F894DEBF0FBECDBF182F82EE91E00E94B9
:102BD0008C11E12EFF24FF92EF9282E692E09F9308
:102BE0008F930E941C2B0F900F900F900F9011232A
:102BF00009F052C087EC91E00E948C11CE01019641
:102C00000E9465226D817E818F81988520E432E467
:102C10004FE050E00E94E52C5F934F933F932F933A
:102C200089819A81AB81BC81BF93AF939F938F932E
:102C300005E612E01F930F930E941C2B86EA91E099
:102C40000E948C1160911103709112038091130303
:102C50009091140320E432E44FE050E00E94E52C10
:102C60005F934F933F932F9380910D0390910E03A9
:102C7000A0910F03B0911003BF93AF939F938F93D5
:102C80001F930F930E941C2B8DB79EB744960FB6CF
:102C9000F8949EBF0FBE8DBF85E991E00E948C1114
:102CA000C701880F991FF70145E0EE0FFF1F4A95F6
:102CB000E1F7E81BF90BE356FC4F608171818281DB
:102CC00093810E94812129873A874B875C876D8792
:102CD0007E878F87988BDE011196FE01399688E0FA
:102CE00001900D928150E1F76D817E818F819885F1
:102CF00020E432E44FE050E00E94E52C5F934F93D4
:102D00003F932F9389819A81AB81BC81BF93AF930D
:102D10009F938F9385E692E09F938F930E941C2B45
:102D20008AE791E00E948C11C701880F991FF70173
:102D300025E0EE0FFF1F2A95E1F7E81BF90BE3569C
:102D4000FC4F64817581868197810E94812129874A
:102D50003A874B875C876D877E878F87988BDE01EC
:102D60001196FE01399688E001900D928150E1F7AD
:102D70006D817E818F81988520E432E44FE050E0C0
:102D80000E94E52C5F934F933F932F9389819A8103
:102D9000AB81BC81BF93AF939F938F9385E792E004
:102DA0009F938F930E941C2BC701880F991FF701D7
:102DB00015E0EE0FFF1F1A95E1F7E81BF90BE3563C
:102DC000FC4F64857585868597850E9481212987BA
:102DD0003A874B875C876D877E878F87988BDE016C
:102DE0001196FE01399688E001900D928150E1F72D
:102DF0006D817E818F81988520E432E44FE050E040
:102E00000E94E52C5F934F933F932F9389819A8182
:102E1000AB81BC81BF93AF939F938F9385E792E083
:102E20009F938F930E941C2BC701880F991FF70156
:102E3000A5E0EE0FFF1FAA95E1F7E81BF90BE3569B
:102E4000FC4F60857185828593850E948121298749
:102E50003A874B875C876D877E878F87988BDE01EB
:102E60001196FE01399688E001900D928150E1F7AC
:102E70006D817E818F81988520E432E44FE050E0BF
:102E80000E94E52C5F934F933F932F9389819A8102
:102E9000AB81BC81BF93AF939F938F9385E692E004
:102EA0009F938F930E941C2BEDB7FEB7B8960FB679
:102EB000F894FEBF0FBEEDBF8AE691E00E948C1130
:102EC000870175E0000F111F7A95E1F7EE0CFF1CEA
:102ED0000E191F0903561C4FF80180899189A28998
:102EE000B389BF93AF939F938F9357E8E52E52E03A
:102EF000F52EFF92EF920E941C2B87E591E00E9435
:102F00008C11F801808D918DA28DB38DBF93AF93FD
:102F10009F938F93FF92EF920E941C2B8EE391E080
:102F20000E948C11F801848D99279F938F934BE811
:102F3000E42E42E0F42EFF92EF920E941C2B81E2DD
:102F400091E00E948C11F801858D99279F938F93B2
:102F5000FF92EF920E941C2B8EE191E00E948C1157
:102F60008DB79EB744960FB6F8949EBF0FBE8DBF27
:102F700060960FB6F894DEBF0FBECDBFDF91CF9144
:102F80001F910F91FF90EF900895CF93DF9381E011
:102F900091E00E948C11C0E0D0E08C2F0E94D615E9
:102FA0002196C530D105C9F7DF91CF9108959927B2
:102FB000AA27BB27BC01CD0123EB36EE4EE050E043
:102FC0000E94B22C209111033091120340911303FF
:102FD00050911403260F371F481F591F20931103C8
:102FE0003093120340931303509314038DE093E046
:102FF0000E946F200895E0918C05F0918D058487E3
:103000000895E0918C05F0918D05848599270895A8
:10301000DC01FB0180913304882319F480E090E007
:10302000089580838091E8028C9381E090E0089578
:103030001F9380913304882319F480E090E088C0C6
:1030400089EA93E00E948C118091E80299279F936E
:103050008F938EE892E09F938F930E941C2B85EABA
:1030600093E00E948C110F900F900F900F90809121
:103070003304843110F01092330480913304992783
:10308000AA27BB27FC013197E231F105F0F5EA5997
:10309000FF4FEE0FFF1F0590F491E02D09948EE78E
:1030A00093E035C08AE693E032C084E593E02FC018
:1030B00089E393E02CC083E293E029C08BE093E0A6
:1030C00026C088EF92E023C085EE92E020C087EC16
:1030D00092E01DC082EA92E01AC086E992E017C031
:1030E0008BE792E014C08CE692E011C08BE592E091
:1030F0000EC087E492E00BC087E292E008C08FE048
:1031000092E005C084EF91E002C08DEE91E00E9454
:103110008C116091B7057091B8058DE090E00E9428
:10312000EF2A6091B7057091B8058AE090E00E949F
:10313000EF2A80913304803129F00E9493280E9465
:103140003412FFCF10923304812F992787FD909579
:103150001F910895809333046093E8020E94181829
:10316000089580933304E0918C05F0918D0580855E
:103170008093E8020E9418180895992787FD90957A
:10318000FC0125E0EE0FFF1F2A95E1F7E80FF91F7C
:10319000EF52FB4FA281B3818C91853529F085E5F3
:1031A0008C938FEF9FEF08958081918180509242A0
:1031B00018F481E090E0089582E10E94B1188FEF49
:1031C0009FEF08956F927F928F929F92AF92BF92DE
:1031D000CF92DF92EF92FF920F931F93CF93DF93E3
:1031E00085EB93E00E948C11E0918C05F0918D05A8
:1031F0008085992787FD90959F938F9381E992E031
:103200009F938F930E941C2BE0918C05F0918D056C
:10321000028113811F930F938AE992E09F938F930A
:103220000E941C2BF801808199279F938F9357EA66
:10323000C52E52E0D52EDF92CF920E941C2BE0913A
:103240008C05F0918D05808191819F938F9344EB44
:10325000E42E42E0F42EFF92EF920E941C2B80910C
:103260008C0590918D059F938F930EEB12E01F9329
:103270000F930E941C2BC1EDD4E0AA24BB248DB770
:103280009EB744960FB6F8949EBF0FBE8DBF3EEC1E
:10329000632E32E0732E4601670178010A811B819B
:1032A0001F930F93BF92AF927F926F920E941C2B3D
:1032B000F801808199279F938F939F928F920E940C
:1032C0001C2B888199819F938F93DF92CF920E94CC
:1032D0001C2BDF93CF93FF92EF920E941C2B08943C
:1032E000A11CB11CA1968DB79EB742960FB6F8945B
:1032F0009EBF0FBE8DBF95E0A916B10479F6DF9190
:10330000CF911F910F91FF90EF90DF90CF90BF90E2
:10331000AF909F908F907F906F900895CF93DF93A1
:10332000E0918C05F0918D05C281D381888185352E
:1033300039F00E94E21881E00E94B11885E5888387
:10334000E0918C05F0918D058081918180509242B1
:1033500028F00E94E21882E10E94B118DF91CF911B
:1033600008954091150350911603609117037091D1
:10337000180320E030E0DB01CA01022E04C0B6953C
:10338000A795979587950A94D2F781709070892BAD
:10339000E9F481E090E0A0E0B0E0022E04C0880FE4
:1033A000991FAA1FBB1F0A94D2F7842B952BA62B1B
:1033B000B72B8093150390931603A0931703B09334
:1033C0001803822F992787FD909508952F5F3F4F0F
:1033D0002032310581F68FEF9FEF0895E0918C0543
:1033E000F0918D0565857685878590890895EF92A2
:1033F000FF920F931F9321E030E040E050E004C0C3
:10340000220F331F441F551F8A95D2F7E0918C0578
:10341000F0918D05E584F68407851089DA01C901EC
:103420008E219F21A023B1230097A105B10519F496
:103430008FEF9FEF1AC02095309540955095E2226E
:10344000F32204231523E586F6860787108B8189EE
:103450009289A389B48982239323A423B523818BE2
:10346000928BA38BB48B81E090E01F910F91FF9022
:10347000EF900895682F772767FD70958091150369
:1034800090911603A0911703B0911803062E04C063
:10349000B695A795979587950A94D2F78170907005
:1034A000892B19F48FEF9FEF0895E0918C05F0912F
:1034B0008D0521E030E040E050E004C0220F331FD2
:1034C000441F551F6A95D2F785859685A785B089D3
:1034D000822B932BA42BB52B85879687A787B08B40
:1034E00081E090E0089580E090E00895885795404D
:1034F00019F08FEF9FEF089580E090E008950E940B
:10350000761A8F3F11F481E003C0813031F482E0FC
:103510000E94FB178FEF9FEF0895992787FD9095E5
:10352000FC01EE0FFF1FE80FF91FE858FA4F8FEF6D
:1035300080838283818380918B05815080938B056A
:1035400081E090E008950E94761A8F3F11F481E0A7
:1035500003C0813031F482E00E94FB178FEF9FEFB0
:103560000895992787FD9095FC01EE0FFF1FE80F46
:10357000F91FE858FA4F8281992787FD90950895A1
:103580001F93CF93DF930E94761A182F8F3F11F469
:1035900081E003C0813031F482E00E94FB178FEF9D
:1035A0009FEF3EC0992787FD9095EC01CC0FDD1F62
:1035B000C80FD91FC858DA4F9A818881981774F5B7
:1035C0000E9434128A818F5F8A83E0918C05F0918A
:1035D0008D051482E8EDF4E0212F332727FD309587
:1035E000432F532F8081823091F482859385A48567
:1035F000B58582179307A407B50749F483E0828352
:103600001786168610821286138614861586B19642
:1036100085E0ED37F80731F70E94361281E090E03F
:10362000DF91CF911F910895DF92EF92FF920F9358
:103630001F9351E0E52EF12C012D112D04C0EE0C4D
:10364000FF1C001F111F8A95D2F7809115039091DE
:103650001603A0911703B09118038E219F21A02378
:10366000B1230097A105B10511F481E043C00E9488
:103670003412E8EDF4E0DD2480818130B9F48285F4
:103680009385A485B5858E219F21A023B123009722
:10369000A105B10559F083E0828317861686108252
:1036A000E286F38604871587DD24D39480818230F7
:1036B000A1F482859385A485B5858E159F05A00705
:1036C000B10759F483E0828317861686108212862A
:1036D000138614861586DD24D394B19685E0ED37E4
:1036E000F80751F60E943612DD2019F081E090E0D3
:1036F00005C082E00E94FB178FEF9FEF1F910F9193
:10370000FF90EF90DF900895EF92FF920F931F9339
:10371000CF93DF93C82FDD27C7FDD09561E0E62E5C
:10372000F12C012D112D0C2E04C0EE0CFF1C001FDE
:10373000111F0A94D2F78091150390911603A0915E
:103740001703B09118038E219F21A023B123009766
:10375000A105B10519F48FEF9FEF5DC00E943412EF
:10376000E1EDF4E0A8019701209530954095509542
:1037700080858F3F41F185859685A785B0898E1517
:103780009F05A007B10739F4118A128A138A148A97
:10379000178283E0818785859685A785B0898223F6
:1037A0009323A423B52385879687A787B08B818928
:1037B0009289A389B48982239323A423B523818B7F
:1037C000928BA38BB48BB19685E0E637F80781F630
:1037D0002EEF3FEF4FEF5FEF04C0220F331F441F68
:1037E000551FCA95D2F78091150390911603A091A9
:1037F0001703B091180382239323A423B523809346
:10380000150390931603A0931703B09318030E9417
:10381000361281E090E0DF91CF911F910F91FF90E0
:10382000EF9008951F93CF93DF930E94761A182F7D
:103830008F3F11F481E003C0813031F482E00E94B7
:10384000FB178FEF9FEF3EC00E943412812F992704
:1038500087FD9095EC01CC0FDD1FC80FD91FC8580C
:10386000DA4F8A818823D9F4E0918C05F0918D0597
:10387000878182608783E0918C05F0918D05812F8F
:10388000992787FD9095A92FB92F818B928BA38BB8
:10389000B48B0E94361280E090E00E94B71E8A81AD
:1038A00081508A83E0918C05F0918D058981838711
:1038B000E0918C05F0918D0581E084830E943612A1
:1038C00081E090E0DF91CF911F9108959B01AC01C1
:1038D000E0918C05F0918D0585859685A785B08949
:1038E00082239323A423B5230097A105B10529F4CE
:1038F00060E070E080E090E00895218B328B438B94
:10390000548B81E0878300907C0504C056954795D1
:10391000379527950A94D2F7C90181709070892B49
:1039200019F00E94521E04C080E090E00E94B71E71
:10393000E0918C05F0918D05618972898389948964
:103940000895E0918105F09182058081992708957D
:10395000E0918105F091820503C00380F481E02DA0
:103960003097D9F70895CF93DF93482FC091CF04B4
:10397000D091D004209709F47AC0A0918105B0912C
:1039800082051097B9F1992787FD90959C0165E014
:10399000220F331F6A95E1F7280F391F2F523B4F33
:1039A0008C919927BC0155E0660F771F5A95E1F776
:1039B000680F791F6F527B4FFB018481882329F0A8
:1039C0009385F90182859817A8F0F90184818823ED
:1039D00031F0FB019285F9018385981758F0FB01BE
:1039E0009285F9018285981728F0FD01A381B481A1
:1039F0001097B1F64883E091CF04F091D004238171
:103A000034813093D0042093CF048091810590912C
:103A10008205A817B907A1F4109731F0BC83AB83D6
:103A20001A821982FD0105C01C821B821A8219822A
:103A3000F901D283C183D0938205C093810517C059
:103A4000FD0181819281A217B30751F09A83898386
:103A5000BC83AB8381819281FC01D483C38304C086
:103A60001C821B829A838983FD01D283C183DF91EB
:103A7000CF910895CF93DF93A0918105B0918205F6
:103A8000109709F446C0482F552747FD50958C9153
:103A900099278417950769F4ED01EB81FC81F09378
:103AA0008205E09381051282118216C0D901232B71
:103AB00081F18C919927FD01238134818417950729
:103AC000A9F7C181D2813C832B83838194810097A4
:103AD00019F0FC01D283C183E091CF04F091D004AE
:103AE000309741F4B093D004A093CF04ED011C8231
:103AF0001B8209C0ED01FC83EB83B283A183B093E9
:103B0000D004A093CF04E091CF04F091D0041282AE
:103B10001182DF91CF910895E0918C05F0918D0590
:103B20008085992708950E94B028E0918C05F09136
:103B30008D0585818823B9F70895FF920F931F9310
:103B4000CF93DF93CDB7DEB728970FB6F894DEBFDB
:103B50000FBECDBF29833A834B835C836D837E8305
:103B60008F8398870E948E190E943412E0918C05F1
:103B7000F0918D0581E0858381E090E090A3878FAF
:103B80000E94EF25F82E29813A814B815C816D815D
:103B90007E818F8198850E94FF20E0918C05F091B5
:103BA0008D050F2D1127800F911F968B858B87EF29
:103BB0008F1570F00E947B250E5F1F4F992780178D
:103BC000910734F08F2D8E5F80939C030E94802597
:103BD0000E9436120E94931D81E090E028960FB655
:103BE000F894DEBF0FBECDBFDF91CF911F910F9133
:103BF000FF9008958F929F92AF92BF92CF92DF92E3
:103C0000EF92FF920F931F93CF93DF93CDB7DEB761
:103C100060970FB6F894DEBF0FBECDBF29873A87F5
:103C20004B875C876D877E878F87988BCE01019647
:103C30000E94652289809A80AB80BC80CD80DE8026
:103C4000EF80F88409851A852B853C854D855E8536
:103C50006F857889CE0109960E94E01F882319F4A8
:103C60008FEF9FEF0CC029853A854B855C856D856C
:103C70007E858F8598890E949D1D81E090E06096E9
:103C80000FB6F894DEBF0FBECDBFDF91CF911F916D
:103C90000F91FF90EF90DF90CF90BF90AF909F90EB
:103CA0008F9008951F930E943412E0918C05F0913B
:103CB0008D0581E0858386830E94EF25182F883F3C
:103CC00080F40E947B25212F33272E5F3F4F9927B9
:103CD0008217930734F0812F8E5F80939C030E949C
:103CE00080250E9436120E94931D81E090E01F9172
:103CF00008951F93CF93DF93CDB7DEB728970FB604
:103D0000F894DEBF0FBECDBF29833A834B835C831B
:103D10006D837E838F8398870E9434120E94EF25E3
:103D2000182F29813A814B815C816D817E818F8141
:103D300098850E94FF208330910518F48FEF9FEF44
:103D40000CC0E0918C05F0918D05810F911D968B33
:103D5000858B0E94361281E090E028960FB6F89489
:103D6000DEBF0FBECDBFDF91CF911F9108950F939E
:103D70001F938C010E943412E0918C05F0918D0507
:103D800081E08583168B058B0E94EF25082F883FE5
:103D900080F40E947B25202F33272E5F3F4F9927E9
:103DA0008217930734F0802F8E5F80939C030E94CC
:103DB00080250E9436120E94931D81E090E01F91A1
:103DC0000F910895FF920F931F93CF93DF938C0170
:103DD0000E943412E0918C05F0918D0581E085837D
:103DE0000E94EF25F82EE0918C05F0918D05C82FEB
:103DF000DD270C0F1D1F168B058B87EF8F1568F0C5
:103E00000E947B25229699278C179D0734F08F2DD1
:103E10008E5F80939C030E9480250E9436120E9430
:103E2000931D81E090E0DF91CF911F910F91FF9062
:103E300008951F93CF93DF93EC010E948E19209772
:103E400011F4C1E0D0E00E943412E0918C05F091B1
:103E50008D0581E08583D0A3C78F0E94EF25182FA1
:103E6000883F80F40E947B25212F33272E5F3F4F10
:103E700099278217930734F0812F8E5F80939C03DC
:103E80000E9480250E9436120E94931D81E090E0DE
:103E9000DF91CF911F9108951F930E948E190E9468
:103EA0003412E0918C05F0918D0581E090E090A3B3
:103EB000878F81E085830E94EF25182F883F80F44B
:103EC0000E947B25212F33272E5F3F4F9927821792
:103ED000930734F0812F8E5F80939C030E9480258E
:103EE0000E9436120E94931D81E090E01F91089578
:103EF000E0918C05F0918D0580850E943A1DE0913E
:103F00008C05F0918D0584E081870E944C1F81E033
:103F100090E00895EF92FF920F931F93CF93DF935A
:103F2000EC014B815C8169817A818D819E810E9447
:103F3000BF28BC018F81882369F04B815C81EE240E
:103F4000FF2400E010E020E030E0CE010E943E12AD
:103F50001F8216C08881992787FD9095FC01A5E0F6
:103F6000EE0FFF1FAA95E1F7E80FF91FEF52FB4F85
:103F70008185833019F08FEF9FEF1BC071836083C1
:103F80008881992787FD9095FC0175E0EE0FFF1F52
:103F90007A95E1F7E80FF91FEF52FB4F8589968973
:103FA000892B29F482E0818788810E94B31C81E0FB
:103FB00090E0DF91CF911F910F91FF90EF900895C6
:103FC0008F929F92AF92BF92CF92DF92EF92FF9229
:103FD0000F931F93CF93DF93CDB7DEB760970FB6E4
:103FE000F894DEBF0FBECDBFFC0109831A832B837B
:103FF0003C834D835E836F83788789869A86AB8600
:10400000BC86CD86DE86EF86F88A2D813E814F8183
:10401000588589819A81AB81BC81AD84BE84CF846F
:10402000D888E984FA840B851C858E159F05A00726
:10403000B10708F43FC0E816F9060A071B0791F418
:104040002A153B054C055D05A8F12A193B094C09C9
:104050005D0924833583468357831082118212823F
:1040600013821CC02A153B054C055D05D0F4019751
:10407000A109B1098E199F09A00BB10B808391830F
:10408000A283B383205036434546544C2A193B093A
:104090004C095D09248335834683578381E090E092
:1040A0000BC08E199F09A00BB10B80839183A28353
:1040B000B383ECCF80E090E060960FB6F894DEBF5B
:1040C0000FBECDBFDF91CF911F910F91FF90EF9069
:1040D000DF90CF90BF90AF909F908F900895FC019C
:1040E00013C080509A4CAA49BB4384839583A6830E
:1040F000B78380819181A281B3810196A11DB11DF9
:1041000080839183A283B38384819581A681B781C3
:1041100080302AEC92072AE9A2072BE3B20708F7BE
:1041200008958F929F92AF92BF92CF92DF92EF92BB
:10413000FF920F931F93CF93DF93CDB7DEB76097B6
:104140000FB6F894DEBF0FBECDBFFC0109831A8302
:104150002B833C834D835E836F83788789869A8621
:10416000AB86BC86CD86DE86EF86F88AAD80BE80C3
:10417000CF80D884ED84FE840F85188989859A853F
:10418000AB85BC8529813A814B815C81820F931F6D
:10419000A41FB51F80839183A283B383EA0CFB1C09
:1041A0000C1D1D1DE482F58206831783CF010E943A
:1041B0006F2081E090E060960FB6F894DEBF0FBEEE
:1041C000CDBFDF91CF911F910F91FF90EF90DF90C6
:1041D000CF90BF90AF909F908F900895609383058C
:1041E00070938405809385059093860520938705B9
:1041F000309388054093890550938A0508958F92DE
:104200009F92AF92BF92CF92DF92EF92FF920F9365
:104210001F93CF93DF93CDB7DEB728970FB6F894EF
:10422000DEBF0FBECDBF29833A834B835C836D8392
:104230007E838F8398878D809E80AF80B884E9804D
:10424000FA800B811C81E114F1040105110501F1D3
:1042500080E09AECAAE9BBE3880E991EAA1EBB1E59
:10426000C501B40123EB36EE4EE050E00E94E52C90
:1042700069010894E108F108010911098AE0EE0CCE
:10428000FF1C001F111F8A95D1F7CE0CDF1C09C03F
:10429000C501B40123EB36EE4EE050E00E94E52C60
:1042A0006901B60102C06050744094E06130790742
:1042B000D0F78827992723EB36EE4EE050E00E9496
:1042C000B22C675A7C48884F9F4F681579058A053C
:1042D0009B0518F40894C11CD11CC60128960FB682
:1042E000F894DEBF0FBECDBFDF91CF911F910F912C
:1042F000FF90EF90DF90CF90BF90AF909F908F9006
:1043000008952F923F924F925F926F927F928F9279
:104310009F92AF92BF92CF92DF92EF92FF920F9354
:104320001F93CF93DF93CDB7DEB728970FB6F894DE
:10433000DEBF0FBECDBF7B018C01737080709070AB
:1043400023EB36EE4EE050E00E94B22C6D837E836C
:104350008F8398879AE016950795F794E7949A9536
:10436000D1F7E982FA820B831C83988529803A80F1
:104370004B805C806D807E808F80222D332D442D7C
:10438000552D662D772D882D28960FB6F894DEBF13
:104390000FBECDBFDF91CF911F910F91FF90EF9096
:1043A000DF90CF90BF90AF909F908F907F906F9055
:1043B0005F904F903F902F900895AF92BF92CF9211
:1043C000DF92EF92FF920F931F93CF93DF93CDB7BE
:1043D000DEB728970FB6F894DEBF0FBECDBF298396
:1043E0003A834B835C836D837E838F839887AD8014
:1043F000BE80CF80D884E980FA800B811C81E114D3
:10440000F1040105110509F180E09AECAAE9BBE38A
:10441000A80EB91ECA1EDB1EC601B50123EB36EE7F
:104420004EE050E00E94E52C0894E108F1080109F3
:1044300011096AE0EE0CFF1C001F111F6A95D1F7ED
:10444000E20EF31E041F151F0AC0C601B50123EBBF
:1044500036EE4EE050E00E94E52C79018A01C80159
:10446000B70104C060507440804090406130A4E0C7
:104470007A07A0E08A07A0E09A07A0F723EB36EEC0
:104480004EE050E00E94B22C675A7C48884F9F4F04
:104490006A157B058C059D0528F40894E11CF11C28
:1044A000011D111DC801B70128960FB6F894DEBF93
:1044B0000FBECDBFDF91CF911F910F91FF90EF9075
:1044C000DF90CF90BF90AF900895EF92FF920F933F
:1044D0001F93CF93DF93EC01809183059091840526
:1044E000A0918505B091860588839983AA83BB83B3
:1044F000E0908705F09088050091890510918A0564
:10450000EC82FD820E831F830E94EF259927AA2744
:10451000BB27BC01CD0123EB36EE4EE050E00E94FC
:10452000B22CE60EF71E081F191FEC82FD820E83C7
:104530001F8313C080509A4CAA49BB438C839D8330
:10454000AE83BF8388819981AA81BB810196A11D19
:10455000B11D88839983AA83BB838C819D81AE81A1
:10456000BF8180302AEC92072AE9A2072BE3B20729
:1045700008F7DF91CF911F910F91FF90EF90089571
:104580000E948E190E947B258B3030F481E080934D
:1045900080050E94B02809C08AE090E00E94292589
:1045A00082E0809380050E94A428809134048535A0
:1045B00019F088E00E94B11880917E21853501F3C1
:1045C00088E00E94B118DCCF8F929F92AF92BF9289
:1045D000CF92DF92EF92FF920F931F93CF93DF93CF
:1045E0000E9434120E9437250E943F254C018AEF19
:1045F0000E9480250E948228D0909C036D2D7727F1
:104600008827992723EB36EE4EE050E00E94B22C2B
:104610007B018C018091870590918805A091890587
:10462000B0918A05E80EF91E0A1F1B1FC801B701C9
:104630000E94E52CE61AF70A080B190BE092870591
:10464000F09288050093890510938A05E0918C0506
:10465000F0918D0590859923B9F480918005823081
:1046600019F48D2D0E94D717E0918C05F0918D05DE
:1046700060919C0380850E94E514E0918C05F09187
:104680008D0560E0808505C08581882329F06D2D2A
:10469000892F0E941A1504C06D2D892F0E94E514E0
:1046A0008091830590918405A0918505B091860540
:1046B00020918705309188054091890550918A05A0
:1046C0001BC0E12C66E3F62E65E6062F64EC162F80
:1046D000E20EF31E041F151FC801B70123EB36EECF
:1046E0004EE050E00E94E52CA8019701261B370BF5
:1046F000480B590BD601C5015C016D010894A11C42
:10470000B11CC11CD11C20306AEC36076AE946078F
:104710006BE35607B0F68093830590938405A093CE
:104720008505B093860520938705309388054093CF
:10473000890550938A05E0918C05F0918D0585815E
:10474000882319F18185843001F18781823029F035
:10475000882341F08681882311F485E001C083E03D
:1047600081870CC083E08187E0918C05F0918D05F5
:104770001782E0918C05F0918D051682E0918C05F1
:10478000F0918D0580850E943A1DE0918C05F09195
:104790008D05858D968D892BE9F140854423D1F1D6
:1047A00081858430B9F1218D328D80919C039927C8
:1047B0002817390790F4842F0E94AC14E0918C05DF
:1047C000F0918D05608582E00E94AA18E0918C0529
:1047D000F0918D05128E118E04C0281B390B328F7B
:1047E000218FE0918C05F0918D05E084818D928D73
:1047F000892B81F48E2D0E94AC146E2D83E00E94D3
:10480000AA18E0918C05F0918D0583E081878E2DAB
:104810000E943A1DC1EDD4E000E61AEECC24DD245E
:104820004C2D88858F3F09F489C01D82882391F122
:104830008985843079F12D893E8980919C0399275F
:104840002817390728F0281B390B3E8B2D8B02C007
:104850001E8A1D8A2F89388D2817390728F0281BB2
:10486000390B388F2F8B0EC06B8D7C8D8617970779
:1048700028F4681B790B788F6F8B04C00E94D12CB1
:10488000988F8F8B8F89988D892B21F48B8D9C8DA0
:10489000988F8F8B8985833009F050C08D899E89D0
:1048A000892B09F043C08F818823A1F08E81882352
:1048B00089F081E090E0A0E0B0E000907C0504C0C9
:1048C000880F991FAA1FBB1F0A94D2F7898B9A8B56
:1048D000AB8BBC8B1F821E821D822F8D38A18D8DCC
:1048E0009E8D2130310561F49A8F898F82E089870E
:1048F0008F89988D9E8B8D8B842F0E94B31C16C040
:104900009A8F898F215030408B8D9C8DAC01249FD4
:10491000C001259F900D349F900D11249E8B8D8B8F
:10492000988F8F8B81E090E098A38F8F8D899E89DF
:10493000009721F08017910708F48C010894C11C9E
:10494000D11CA19655E0C516D10409F069CFE091BC
:104950008C05F0918D0580850E94C1140E94A11CD8
:10496000E82E992787FD9095FC0125E0EE0FFF1FAB
:104970002A95E1F7E80FF91FEF52FB4F428540936C
:104980008E0581E26E2D6802900111242F523B4F5B
:1049900030937E0520937D05EE2091F0858D968DD8
:1049A000892B51F0818D928D8A3F910528F48017D3
:1049B0009107E0F48C011AC00B3F1105B8F014C048
:1049C0000B30110598F0C8010A978A3F910530F421
:1049D0008C01099758F409E010E008C00550114017
:1049E00018F400EF10E002C00AEF10E040937F05DA
:1049F00030938D0520938C0500939C030E94EF2536
:104A000099278017910740F00E94EF25082F112762
:104A10000E5F1F4F00939C03EE2011F01092800553
:104A2000802F0E9480256EEE72E0C4010E947426E1
:104A30000E940E290E943B29DF91CF911F910F9177
:104A4000FF90EF90DF90CF90BF90AF909F908F90AE
:104A5000089500000000000000000197D1F70895BC
:104A600010928100089581E080938100089583B5BC
:104A7000816083BD10928500109284000895CF93C9
:104A8000DF93CDB7DEB722970FB6F894DEBF0FBE27
:104A9000CDBF80918400909185009A83898389811C
:104AA0009A8122960FB6F894DEBF0FBECDBFDF917C
:104AB000CF9108951092B100E0E7F0E080818D7F02
:104AC000808380818E7F808308958093B2000895D3
:104AD000E0E7F0E080818360808383E08093B10031
:104AE000089583B5826083BD1092B2001092E902EE
:104AF00010929C0308958091B3008F5F99270895C9
:104B000081508093B3000895882311F410927100AE
:104B10008FEF9FEF0895882319F08FEF9FEF08958F
:104B2000109295001092940081E090E008958823FF
:104B300019F080E090E008958091940090919500A4
:104B40000895882319F08FEF9FEF089582E08093F6
:104B5000710081E090E00895882319F08FEF9FEFB6
:104B60000895CB010197059710F460939B03109271
:104B7000900088E080939100852F99278093990079
:104B8000409398003093E7022093E60280919B03C4
:104B9000813021F48091910081600BC0823021F43A
:104BA00080919100826005C0833031F48091910042
:104BB00083608093910008C0843021F4809191003B
:104BC0008460F7CF853019F081E090E008958091FE
:104BD000910085608093910081E090E0089580913C
:104BE000B200992708950F920FB60F921F922F923D
:104BF0003F924F925F926F927F928F929F92AF926D
:104C0000BF92CF92DF92EF92FF920F931F932F9359
:104C10003F934F935F936F937F938F939F93AF9344
:104C2000BF93CF93DF93EF93FF93A0918C05B09147
:104C30008D050DB60D920EB60D921F92A09199039F
:104C4000B0919A031E90BEBFADBF08951F920F9200
:104C50000FB60F9211240F900FBE0F901F90189552
:104C60001F920F920FB60F9211242F933F934F93E1
:104C70005F936F937F938F939F93AF93BF93EF93C4
:104C8000FF93E091E602F091E702309711F0099569
:104C900004C060E08AE00E94AA18FF91EF91BF91E2
:104CA000AF919F918F917F916F915F914F913F91C4
:104CB0002F910F900FBE0F901F9018951F920F927B
:104CC0000FB60F9211242F933F934F935F936F93DF
:104CD0007F938F939F93AF93BF93EF93FF9360E086
:104CE0008AE00E94AA18FFCFCF93DF93CDB7DEB73B
:104CF00022970FB6F894DEBF0FBECDBFFC018FEF39
:104D0000E937F80710F0E0E0F0E09F01442755276D
:104D1000CB01AA27BB27280F391F4A1F5B1F213051
:104D200080E0380781E0480780E0580778F08091FC
:104D30008400909185009A83898389819A81E817FC
:104D4000F907A8F320503040414050408091840042
:104D5000909185009A83898389819A81821793072C
:104D6000A8F322960FB6F894DEBF0FBECDBFDF9139
:104D7000CF910895EF92FF921F939EEF90939C0323
:104D800080E28093B6009093B30013E017BB82E0FB
:104D90008093B00091EBE92EF12CF701108383B5DD
:104DA000826083BD17BB14BD83B5826083BD109242
:104DB000800081E080938100109285001092840031
:104DC00083B5826083BD83B5816083BD0E947125F8
:104DD000E0E7F0E0808183608083F7011083109228
:104DE000E9021F91FF90EF900895882311F4E89A4B
:104DF00033C0813011F4E99A2FC0823011F4EA9A5D
:104E00002BC0833021F480916B00816023C08430FB
:104E100021F480916B0082601DC0853021F4809167
:104E20006B00846017C0863021F480916B0088602D
:104E300011C0873021F480916B0080610BC08830F5
:104E400021F480916B00806205C0893041F480912B
:104E50006B00806480936B0081E090E008958A305D
:104E600019F08FEF9FEF089580916B008068809319
:104E70006B0081E090E00895882311F4E89831C038
:104E8000813011F0823011F4E9982BC0833021F485
:104E900080916B008E7F23C0843021F480916B0061
:104EA0008D7F1DC0853021F480916B008B7F17C0F2
:104EB000863021F480916B00877F11C0873021F408
:104EC00080916B008F7E0BC0883021F480916B0045
:104ED0008F7D05C0893041F480916B008F7B80937A
:104EE0006B0081E090E008958A3019F08FEF9FEF1A
:104EF000089580916B008F7780936B0081E090E044
:104F00000895882339F55093B0054093AF05662383
:104F100021F4809169008C7F45C0613049F4809113
:104F200069008D7F809369008091690081603AC03B
:104F3000623049F4809169008260809369008091B9
:104F400069008E7F2FC0633009F069C080916900CD
:104F5000836028C0813049F55093AE054093AD057C
:104F6000662321F480916900837F1CC0613049F47D
:104F700080916900877F80936900809169008460D7
:104F800011C0623049F480916900886080936900A3
:104F9000809169008B7F06C0633009F040C080912A
:104FA00069008C608093690037C0823031F550937E
:104FB000AE054093AD05662321F4809169008F7C96
:104FC000F1CF613049F4809169008F7D8093690051
:104FD000809169008061E6CF623049F48091690078
:104FE000806280936900809169008F7EDBCF63309F
:104FF000B1F4809169008063D5CF8350883018F078
:105000008FEF9FEF08958091680081608093680022
:105010005093B4054093B30581E090E0089581E09A
:1050200090E008951F920F920FB60F9211242F93C4
:105030003F934F935F936F937F938F939F93AF9320
:10504000BF93EF93FF93E091AF05F091B0053097D8
:1050500011F0099504C060E08AE00E94AA18FF914F
:10506000EF91BF91AF919F918F917F916F915F91E0
:105070004F913F912F910F900FBE0F901F90189559
:105080001F920F920FB60F9211242F933F934F93BD
:105090005F936F937F938F939F93AF93BF93EF93A0
:1050A000FF93E091B305F091B405309711F00995A5
:1050B00004C060E08AE00E94AA18FF91EF91BF91BE
:1050C000AF919F918F917F916F915F914F913F91A0
:1050D0002F910F900FBE0F901F9018958091B000E8
:1050E00090E0811191E081E09827892F9927089518
:1050F000089504B603FC03C081E090E008958FEFAB
:105100009FEF0895A89508950E943412A89584B73A
:10511000877F84BFE0E6F0E0808188618083108231
:105120000E94361208950E94341284B7877F84BF8C
:10513000A895E0E6F0E08081886180838DE080833F
:105140000E9436120895089583B7817F866083BFD9
:1051500083B7816083BF889583B78E7F83BF0895AF
:1051600083B7817F83BF83B7816083BF889583B70F
:105170008E7F83BF0895FC01768365830895FB01CC
:10518000DA0125E52C933297292F33272083818359
:1051900032971182108232971182108232971182D7
:1051A00010823297118210823297118210823297C8
:1051B00011821082329711821082329711821082EE
:1051C00032971182108232971182108232971182A7
:1051D0001082329711821082329711821082329798
:1051E00011821082329711821082329711821082BE
:1051F000329711821082CF01089585E580937E2138
:10520000EEEFF1E2F0939A03E09399032BE332E19E
:10521000832F992780832093FF2108952BE332E188
:10522000832F99278093FE212093FF2108950E94C8
:10523000BA260E9436120895EF92FF920F931F93A1
:10524000CF93DF937C018B01EA014032510518F4C2
:1052500081E10E94B118C80101978C0F9D1FF701D1
:105260009283818314830383DF91CF911F910F91E8
:10527000FF90EF900895A0917D05B0917E05CD91AE
:10528000CDBFDD91DEBFFF91EF91DF91CF91BF9157
:10529000AF919F918F917F916F915F914F913F91CE
:1052A0002F911F910F91FF90EF90DF90CF90BF90C3
:1052B000AF909F908F907F906F905F904F903F90B6
:1052C0002F901F900F900FBE0F901895ABE0B0E09D
:1052D000ECE6F9E20C94072D4C016B017A01FC011C
:1052E00017821682838181FD08C08FEF9FEF1AC15C
:1052F00022E030E0E20EF31E0CC09BEC292E93E07E
:10530000392E3E010894611C711C84EC482E83E008
:10531000582EF4010381F60103FD859103FF81916D
:105320006F01882309F4FBC0853259F403FD6591B0
:1053300003FF61916F01653219F0162FBB241CC069
:1053400085E2B40199272AC0112359F1612F7727EB
:10535000C1010E94962A892B49F4133219F4F0E115
:10536000BF2A04C01C3661F420E8B22AF60103FD0E
:10537000159103FF11916F01B7FEE6CF112389F05C
:10538000612F7727C2010E94962A892B51F024E0D1
:1053900030E0E20EF31EB4018FE390E00E94EF2AAA
:1053A000B8CF133629F0133781F01335F9F40BC059
:1053B00087010E5F1F4FB401F701808191810E9428
:1053C000EF2A7801A6CFF1E0BF2AF7010081118111
:1053D00004C0B40199270E94EF2AF801B0FC85911E
:1053E000B0FE81918F018823A1F782CF143611F08E
:1053F000193649F5B7FE0AC0F701608171818281D3
:10540000938124E030E0E20EF31E0DC0F7018081AD
:1054100091819C01B901882777FD8095982F42E002
:1054200050E0E40EF51E5FEEB52297FF09C090959F
:105430008095709561957F4F8F4F9F4FE0E4BE2A16
:105440002AE030E03AC01037B1F0113730F41835A7
:10545000C9F01F3609F063C006C0153739F0183798
:1054600009F05DC00AC028E030E010C0FFEEBF22A6
:105470002AE030E00BC020E1B22A34E2B32A20E176
:1054800030E004C044E0B42A20E132E0B7FE0AC0B4
:10549000F701608171818281938144E050E0E40EE4
:1054A000F51E0BC0F70180819181AC01BA018827FC
:1054B0009927E2E0F0E0EE0EFF1EA3010E94332BDD
:1054C000A82EA6180B2D112706FF05C0B4018DE2EA
:1054D00090E00E94EF2A04FF15C0FE01EA0DF11DC5
:1054E0008081803379F0B40180E390E00E94EF2A5C
:1054F00002FF08C000721070B401C801885A9F4FA3
:105500000E94EF2AAA94F301EA0DF11D8081B401F3
:1055100099270E94EF2AAA2009F4FBCEF3CFF401C9
:1055200086819781E2E12B960C94232DFC01059056
:10553000061621F00020D9F7C00108953197CF0158
:105540000895EF92FF920F931F93CF93DF938C01F7
:105550007B01892B11F4672BD1F16EE070E081E0C3
:1055600090E00E94912BFC01009789F1DC0180E81A
:105570008383E114F10471F0F386E28681E883838A
:105580008091B5059091B605892B21F4F093B6056D
:10559000E093B50501151105E1F0118700878381BE
:1055A000826083838091B7059091B805892B89F437
:1055B000F093B805E093B7058091B9059091BA05CD
:1055C000892B39F4F093BA05E093B90502C0A0E045
:1055D000B0E0CD01E6E0CDB7DEB70C942F2D0F93F0
:1055E0001F93CF93DF938C01EB018B81992781FF70
:1055F0001BC082FF0DC02E813F818C819D812817A9
:10560000390764F4E881F9810193F983E88306C0DE
:10561000E885F985802F0995892B31F48E819F814A
:1056200001969F838E8302C00FEF1FEFC801DF91A9
:10563000CF911F910F910895A2E0B0E0E2E2FBE26A
:105640000C94172DFE01379661917191FA83E983CD
:10565000AF018091B7059091B8050E946629E2E0FC
:1056600022960C94332DFA01AA27283051F12031CB
:1056700081F1E8946F936E7F6E5F7F4F8F4F9F4FE6
:10568000AF4FB1E03ED0B4E03CD0670F781F891F28
:105690009A1FA11D680F791F8A1F911DA11D6A0FF6
:1056A000711D811D911DA11D20D009F468943F91A9
:1056B0002AE0269F11243019305D3193DEF6CF01A8
:1056C0000895462F4770405D4193B3E00FD0C9F76E
:1056D000F6CF462F4F70405D4A3318F0495D31FDDB
:1056E0004052419302D0A9F7EACFB4E0A69597952E
:1056F000879577956795BA95C9F700976105710504
:1057000008959B01AC010A2E06945795479537954D
:105710002795BA95C9F7620F731F841F951FA01DA7
:1057200008950F931F93CF93DF93689F8001699F24
:10573000100D789F100D1124C8010E94AD2BEC01B3
:10574000009729F0A80160E070E00E94AB2CCE0128
:10575000DF91CF911F910F910895CF93DF93AC010B
:10576000029710F442E050E0A091BD05B091BE0553
:10577000FD01C0E0D0E020E030E020C080819181D8
:105780008417950769F482819381209719F09B8390
:105790008A8304C09093BE058093BD059F0132C0EB
:1057A0004817590738F42115310519F08217930766
:1057B00008F49C01EF010280F381E02D3097F1F6AF
:1057C0002115310599F1C901841B950B049708F443
:1057D000A901E0E0F0E028C08D919C91119782171B
:1057E0009307F9F44817590781F4ED018A819B81E9
:1057F000309719F09383828304C09093BE05809301
:10580000BD059D012E5F3F4F4CC0841B950BFD01D4
:10581000E80FF91F4193519302978D939C939F0139
:1058200040C0FD01A281B3811097B1F68091BB0504
:105830009091BC05892B41F48091E1029091E202A4
:105840009093BC058093BB052091E3023091E40264
:105850002115310549F48DB7282F33278091DF02B8
:105860009091E002281B390BA091BB05B091BC05BB
:105870002A1B3B0B2417350790F0CA010296281704
:10588000390768F09D012E5F3F4FC901840F951FB6
:105890009093BC058093BB054D935C9302C020E0C0
:1058A00030E0C901DF91CF910895CF93DF93009746
:1058B00009F44EC0EC0122971B821A82A091BD050B
:1058C000B091BE05109711F140E050E001C0DC013D
:1058D000AC17BD0700F1BB83AA83FE012191319172
:1058E000E20FF31FEA17FB0771F48D919C9111975A
:1058F000280F391F2E5F3F4F39832883FD01828196
:1059000093819B838A834115510559F4D093BE0539
:10591000C093BD051DC0FD0182819381AD0100973B
:10592000B1F6FA01D383C28321913191E20FF31FC3
:10593000EC17FD0769F488819981280F391F2E5FC4
:105940003F4FFA01318320838A819B819383828335
:10595000DF91CF910895DC0101C06D93415050401B
:10596000E0F70895629FD001739FF001829FE00DE0
:10597000F11D649FE00DF11D929FF00D839FF00DCE
:10598000749FF00D659FF00D9927729FB00DE11D7A
:10599000F91F639FB00DE11DF91FBD01CF01112457
:1059A0000895AA1BBB1B51E107C0AA1FBB1FA61766
:1059B000B70710F0A61BB70B881F991F5A95A9F7B8
:1059C00080959095BC01CD010895A1E21A2EAA1BE5
:1059D000BB1BFD010DC0AA1FBB1FEE1FFF1FA2179F
:1059E000B307E407F50720F0A21BB30BE40BF50B9C
:1059F000661F771F881F991F1A9469F76095709525
:105A0000809590959B01AC01BD01CF0108952F9227
:105A10003F924F925F926F927F928F929F92AF923E
:105A2000BF92CF92DF92EF92FF920F931F93CF938B
:105A3000DF93CDB7DEB7CA1BDB0B0FB6F894DEBF22
:105A40000FBECDBF09942A88398848885F846E8448
:105A50007D848C849B84AA84B984C884DF80EE8092
:105A6000FD800C811B81AA81B981CE0FD11D0FB69B
:105A7000F894DEBF0FBECDBFED010895F999FECFBA
:105A8000B2BDA1BDF89A119600B40895F999FECF60
:105A9000B2BDA1BD00BC11960FB6F894FA9AF99A5E
:065AA0000FBE0895FFCFC8
:105AA6002564200044696520537461636B20256476
:105AB6000D0A0025640D0A004D79206E6F64652776
:105AC6007320616464726573732069732025750D94
:105AD6000A005461736B31205049443D25750D0A07
