:100000000C94D2010C94CC310C94F1010C94F101BC
:100010000C94F1010C94F1010C94F1010C94F10198
:100020000C94F1010C94FA310C94F1010C94F1014F
:100030000C94F1010C94AD2F0C94F1010C94AD2FA4
:100040000C94F1010C94E02F0C94F1010C94F1014B
:100050000C94F1010C94F1010C94F1010C94F10158
:100060000C94F1010C94F1010C94F1010C94F10148
:100070000C94F1010C94F1010C94F1010C94F10138
:100080000C94EA2F0C94F1010C94F1010C94F10101
:100090000C94A61D0C94F1010C94F1010C94F10147
:1000A0000C94F1010C94F1010C94F1010C94F10108
:1000B0000C94F1010C94F1010C94F1010C94F101F8
:1000C0000C94F1010C94F1010C94F10108210E2122
:1000D0001121142117211A2120211D21232126213C
:1000E00029212F213221352138212C2105210B21D5
:1000F00043726561746520446F6E650D0A00537428
:10010000617274696E672075702E2E2E0D0A00497B
:100110005341204552524F523A20637265617469CF
:100120006E67207478207369676E616C2066616900
:100130006C65640D0A00495341204552524F523AB2
:10014000206372656174696E6720727820736967D5
:100150006E616C206661696C65640D0A0043433210
:10016000343230204552524F523A202052656C654D
:10017000617365206F662073656D6170686F72656D
:10018000206661696C65640D0A0043433234323085
:10019000204552524F523A202041636365737320C9
:1001A000746F2073656D6170686F72652066616938
:1001B0006C65640D0A00554E4B4F574E0046616901
:1001C0006C656420746F206372656174652053658B
:1001D0006D6170686F7265004661696C656420745A
:1001E0006F20637265617465205369676E616C008E
:1001F0004B65726E656C2066756E6374696F6E20F8
:100200006E6F7420696D706C656D656E74656400E9
:10021000446576696365204472697665722045722B
:10022000726F72005761746368646F672052657300
:10023000746172740054696D6572204F76657266E0
:100240006C6F7700556E68616E646C656420496EF2
:100250007465727275707420566563746F72004CA9
:100260006F7720566F6C74616765004578747261B2
:10027000205461736B20737461727465642C2069FF
:1002800073206E726B5F6366672E68206F6B3F0032
:1002900049646C65206F72204B65726E656C2053EB
:1002A0007461636B204F766572666C6F7700556E74
:1002B00065787065637465642052657374617274E7
:1002C000004475706C696361746564205461736B7C
:1002D000204944005363686564756C6572204D69FC
:1002E000737365642057616B657570005461736B3F
:1002F00020526573657276652056696F6C6174650E
:10030000640052657365727665204572726F722063
:10031000696E205363686564756C657200496E761A
:10032000616C696420537461636B20506F696E74F3
:100330006572005461736B20537461636B204F7658
:100340006572666C6F7700537461636B20776173BD
:10035000206E6F7420646566696E65642061732029
:100360006C6172676520656E6F7567682100293A58
:1003700020002A4E524B204552524F5228000D0A5F
:10038000535441434B2044554D500D0A00454647B8
:1003900065666700202B2D2E3031323334353637E9
:1003A0003839680011241FBECFEFD1E2DEBFCDBFC8
:1003B00012E0A0E0B2E0E6E6FEE600E00BBF02C01D
:1003C00007900D92AA3CB107D9F717E0AAECB2E06A
:1003D00001C01D92AA39B107E1F70E94E8020C940E
:1003E00032370C94183080E592E090932903809383
:1003F000280387EC94E0909325038093240388E4FA
:1004000094E0909327038093260382E080932B034C
:1004100081E080932A0380932C0380932D03109214
:100420002E0310922F03109230031092310380E0BC
:100430009DE2A1E3B1E08093320390933303A09354
:100440003403B093350310923603109237031092A1
:1004500038031092390380933A0390933B03A0939F
:100460003C03B0933D0310923E0310923F03109261
:1004700040031092410380E890EFAAEFB2E080932E
:10048000420390934303A0934403B093450383E254
:1004900093E00E94822880EF90E00E94931D0895CF
:1004A0008F929F92AF92BF92CF92DF92EF92FF9284
:1004B0000F931F93CF93DF93CDB7DEB722970FB67D
:1004C000F894DEBF0FBECDBF0E94842699279F936C
:1004D0008F9380E092E09F938F930E94DD3483E0BE
:1004E00090E00E94E51C81E090E00E94400342E021
:1004F00062E081E00E94B20960E081E00E948B0B23
:1005000083E10E945B080E949A0364E783ED93E015
:100510000E948A030F900F900F900F9002C00E94CC
:1005200044280E9480038823D1F38FE092E09F93B8
:100530008F930E94DD340F900F9022E0822E912C39
:100540008C0E9D1E5E010894A11CB11C03EF14E0EB
:100550009CE1C92E92E0D92E8DEFE82E8FEFF82E78
:10056000E00EF11E0E940104882331F0B401C501A0
:100570000E947B0A0E94070483E00E943E048823B5
:1005800089F7B601C8010E945B34F8010190002090
:10059000E9F7E45FF440EC5FE9830E949E0323E007
:1005A000482F6981C7010E9410040E94320860919F
:1005B0009207709193078AE090E00E94B0346091B6
:1005C0009207709193078DE090E00E94B034CACFFB
:1005D000CFEFD1E2DEBFCDBF0E94281987E090E0C7
:1005E0000E945D1D8EEF90E00E94931D0E941B20D3
:1005F00080E090E00E94C81C81E090E00E94C81C4E
:1006000082E090E00E94C81C83E090E00E94C81C39
:1006100020E030E040E050E060E070E080E090E01A
:100620000E94E6290E945B040E94F3010E94BB1F06
:1006300080E090E00C94323721E030E040E050E080
:1006400004C0220F331F441F551F8A95D2F7809193
:10065000CE029091CF02A091D002B091D102822B14
:10066000932BA42BB52B8093CE029093CF02A09313
:10067000D002B093D10208958091EE029927089597
:10068000813019F08330D9F531C083E18093A90618
:100690008CE08093AA0684E18093AB0688E1809386
:1006A000AC0680E18093AD0687E18093AE0682E1DF
:1006B0008093AF0689E18093B0068EE08093B10607
:1006C00085E18093B2068BE08093B3068FE0809340
:1006D000B40686E18093B50681E18093B6068DE08D
:1006E0008093B7068AE18093B80608958FE08093DF
:1006F000A40684E18093A50689E18093A606089567
:100700008091EF04813019F481E090E008958FEF3B
:100710009FEF0895662359F0009749F09093E10206
:100720008093E0026093DF0281E090E008958FEF14
:100730009FEF089582E08093EF0408958091D203A3
:10074000823070F42091CC023091CD02C90164E670
:1007500070E00E949E36892B29F02431310510F07B
:1007600021EE01C025EE8091CC029091CD02019640
:100770009093CD028093CC02822F992787FD90958C
:100780000895982F8091D203823021F4992311F09B
:1007900083E801C083E0992787FD909508958F92A3
:1007A000AF92CF92EF920F93CF93DF93CDB7DEB797
:1007B000109287069AE090938E0610928F0680938F
:1007C00090066093910640939206109293062093B0
:1007D0009A0600939B06E0929C06C0929D06A0920A
:1007E0009E0680929F068A858093A0068B858093C3
:1007F000A106DF91CF910F91EF90CF90AF908F90A6
:1008000008958091D905992787FD909508951092B4
:10081000D9051092DA051092DB051092DC050895D7
:100820003327F901EE0FFF1FEE0FFF1FE459FA4FB8
:10083000938382836083418341E050E060E070E015
:1008400004C0440F551F661F771F2A95D2F7809169
:10085000F5029091F602A091F702B091F802842B74
:10086000952BA62BB72B8093F5029093F602A093BD
:10087000F702B093F80281E090E008952091F5022C
:100880003091F6024091F7025091F80204C056955B
:100890004795379527958A95D2F7C9018170907051
:1008A00008958091C903813019F481E090E00895A2
:1008B0008FEF9FEF08950F931F9380E698E090933A
:1008C00006038093050300E013E040E850E066E48F
:1008D00073E0C8010E94D63284E18093080381E06E
:1008E000809307038093090380930A0310920B03FC
:1008F00010920C0310920D0310920E0380E896E9FB
:10090000A8E9B0E080930F0390931003A093110324
:10091000B093120310921303109214031092150354
:1009200010921603109217031092180310921903D5
:1009300010921A0310921B0310921C0310921D03B5
:1009400010921E0310921F03109220031092210395
:1009500010922203C8010E9482281F910F910895CE
:10096000AF92BF92DF92EF92FF920F931F93CF93BC
:10097000DF93EE24FF245BEDA52E52E0B52E00910F
:10098000E0021091E1020E949E03F80180836091D1
:10099000EE02C5010E9498170E94BB1210928406B5
:1009A0008AEF0E943A2F80E00E941F2F00E012C0C1
:1009B0000E94A92F081771F00E94A92F082F0894F0
:1009C000E11CF11CF1E1EF16F7E2FF0618F0EE244E
:1009D000FF2405C00E94490FD82E882349F30E94A6
:1009E000F12E0E94A92FC82FDD272496DD2071F05B
:1009F00006C00E94A92F9927C817D90738F060E8C8
:100A000080E00E942E10D82E882399F30E94A31212
:100A100081E0D81609F0B3CFE091E002F091E10255
:100A200092818091C803981709F0A9CF41E0E42E84
:100A3000F12C012D112DE092D905F092DA050093E9
:100A4000DB051093DC058091770690917806218173
:100A5000820F911D909378068093770682E090E054
:100A60000E94AB1C609192077091930789E690E019
:100A70000E94B0340090670604C0EE0CFF1C001FFB
:100A8000111F0A94D2F78E2D0E940C24D092840656
:100A90001092D9051092DA051092DB051092DC0550
:100AA0000E94142F8AE00E943A2F87E00E941F2F95
:100AB0006CE977EC80E090E00E942E300E94222FBB
:100AC000E0916B07F0916C078AE090E0968B858B44
:100AD000809184069927DF91CF911F910F91FF900C
:100AE000EF90DF90BF90AF9008950F931F93CF9337
:100AF000DF93CDB7DEB721970FB6F894DEBF0FBEF8
:100B0000CDBF6091EE028BED92E00E9498170E949B
:100B1000BB1200915D02802F0E942F190E94A92F05
:100B2000898389818C5F89830BC00E94A92F998159
:100B3000981730F4802F0E94B4190E94A312A0C00D
:100B40000E94490F882389F30E94F92E909386060C
:100B5000809385060E94A92F898389818B5F898371
:100B60000EC00E94A92F9981981748F48EE192E057
:100B70009F938F930E94DD340F900F9081C060E8A7
:100B800080E00E942E10182F882359F3802F0E9496
:100B9000B4190E94A312113009F072C081E090E0F4
:100BA0000E94AB1C609192077091930782E790E0DE
:100BB0000E94B03481E090E0A0E0B0E08093D905DD
:100BC0009093DA05A093DB05B093DC05E091E00299
:100BD000F091E102808180934704809167060E9432
:100BE0000C241091470417FF4BC0812F84700E9482
:100BF000C1038093BA068093640584E695E09093E0
:100C0000FD028093FC02609192077091930712FF9E
:100C10001CC08BE490E00E94B034809185069091D6
:100C200086062091730630917406821B930B909375
:100C3000700680936F06292F3327209365058093D4
:100C4000660584E08093FB0207C082E08093FB028C
:100C500083E490E00E94B034802F0E942F194091CD
:100C6000F0025091F102609173067091740620E8D1
:100C700036E089EF92E00E94D114802F0E94B419CF
:100C800021960FB6F894DEBF0FBECDBFDF91CF9196
:100C90001F910F910895CF92DF92EF92FF920F93E1
:100CA0001F93CF93DF93CDB7DEB721970FB6F8949C
:100CB000DEBF0FBECDBFE82E81E08093E9020E2D8E
:100CC0001127F801EE0FFF1FEE0FFF1FE459FA4F37
:100CD000828193819093E8028093E70280818093E0
:100CE000E602A091E702B091E80281818C93E09145
:100CF000E702F091E802809177069091780681836F
:100D0000E091E702F091E8028091D20282830E9492
:100D1000F12E60E875E280E090E00E942E30F090C5
:100D200053028F2D0E942F194091F0025091F10231
:100D3000609173067091740620E836E084EE92E0CC
:100D40000E94D1148823E9F08F2D0E94B41983E00A
:100D500090E00E94AB1C609192077091930784E72A
:100D600090E00E94B034809180069091810620919D
:100D7000730630917406821B930B90936E068093DA
:100D80006D06809175060E940C2481E090E0A0E041
:100D9000B0E004C0880F991FAA1FBB1F0A95D2F7A5
:100DA00080959095A095B0952091F5023091F6022E
:100DB0004091F7025091F802282339234A235B23FC
:100DC0002093F5023093F6024093F7025093F80215
:100DD0008091470487FF37C1609192077091930714
:100DE00082E690E00E94B0340E94BB128F2D0E94D8
:100DF0002F190E94F12E60E070E180E090E00E94E7
:100E00002E300E94A92F898389818E5F898332C009
:100E10000E94A92F9981981768F580917206E816AB
:100E200051F48091BB069091BC0649969093BC0604
:100E30008093BB0613C0E81A2091BB063091BC0614
:100E40004E2D552747FD50951E1414F0275E3F4F39
:100E5000240F351F3093BC062093BB060E94A312BB
:100E60008F2D0E94B4198FE392E09F938F930E947D
:100E7000DD3428C00E94490F882351F20E94A92F17
:100E8000898389818E5F89832091CC023091CD0244
:100E9000C90162E370E00E949E36892BC1F02431C3
:100EA0003105A8F012C00E94A92F9981981780F4EB
:100EB0008EE192E09F938F930E94DD340E94A92FD0
:100EC000809368060F900F90BEC002E001C004E05E
:100ED000602F80E00E942E10182F882321F381308C
:100EE00041F4609192077091930784E390E00E942F
:100EF000B0340E94A3128F2D0E94B419113009F052
:100F0000A2C01092BC061092BB06E091E002F091E4
:100F1000E10290819093BA068091470487FF93C0C5
:100F200097FF91C081819927982F882722813327A5
:100F3000822B932B9093700680936F0680E090E055
:100F40000E94AB1C609192077091930781E690E03C
:100F50000E94B03400916F061091700680916D066A
:100F600090916E06081B190B82E389830E94A92FBA
:100F7000D82E17FD33C086E08D1580F1D09268061B
:100F80000E94142F74E6E72E79E1F72EC80164E67B
:100F900079E10E94B236C62EC394C0927A06C80187
:100FA00064E679E10E94B236E81AF90AF0927F0607
:100FB000E0927E060E94F12E82E390E00E94E32EF2
:100FC0000E94F92E8E159F05D8F38D2D8C0D0E9451
:100FD0001F2F84E690E00E94E32E2DC0109501950E
:100FE0001F4F8FE1013418070CF427C086E08D15E0
:100FF00020F10E94142F0E94F12E0000000000003A
:10100000000089818150898389818F3FB1F7B801C0
:1010100080E090E00E942E308D2D0E941F2F84E6EC
:1010200089830000000000000000898181508983CD
:1010300089818F3FB1F70E94222F0E94F12E82E317
:1010400090E00E94E32E21960FB6F894DEBF0FBE0B
:10105000CDBFDF91CF911F910F91FF90EF90DF9067
:10106000CF900895809167060E94042380917506B1
:101070000E94042321E030E040E050E0CA01B901C1
:101080000090750604C0660F771F881F991F0A9489
:10109000D2F70090670604C0220F331F441F551F6C
:1010A0000A94D2F7622B732B842B952B0E945E251A
:1010B00081E090E008958093EE020E94C2170895A7
:1010C000CF92DF92EF92FF920F931F931092EF0453
:1010D0000E9444288091EF048823D1F381E080931B
:1010E000EF04C090530200E010E08C2D0E942F19F5
:1010F0008C2D0E94B4190E94F12E0E94F92E90931B
:101100007406809373068091770690917806909389
:10111000DE058093DD058536910530F085569040DB
:101120009093DE058093DD05809177069091780697
:10113000909383068093820680917706909178063B
:101140008536910598F080917706909178068456BF
:101150009040909378068093770680916B069091EB
:101160006C06019690936C0680936B06209177062F
:101170003091780680918406813009F084C0C901DD
:1011800069E170E00E949E36D82EE0917606E00F6D
:10119000E0937606FF27EF70F070E755F94F8081F6
:1011A0008093A8060E945B0885E18D15E0F480918C
:1011B000D2038230C1F480917D0663E00E949236B2
:1011C000E92F90937D06FF27EC55F94F808180939E
:1011D000A8060E945B0887E18D1528F480917D06A2
:1011E0008F5F80937D0611E0E12EF12C012D112DF2
:1011F0000D2C04C0EE0CFF1C001F111F0A94D2F727
:101200008091D0049091D104A091D204B091D304E4
:101210002091F5023091F6024091F7025091F802C8
:1012200082239323A423B5238E219F21A023B123BE
:101230000097A105B10531F08D2D0E944B06D0928B
:10124000720633C08091CE039091CF03A091D0035A
:10125000B091D103E822F9220A231B23E114F104FF
:101260000105110511F18091D9059091DA05A09140
:10127000DB05B091DC050097A105B105B1F48D2D1A
:101280000E94750512C00E949E03809347048091BE
:10129000D203823039F01092CD021092CC020E941B
:1012A000B00401C081E0809384062091BB06309198
:1012B000BC0680915002909151022817390788F19D
:1012C0008091D203823069F1109284061092BC069C
:1012D0001092BB0684E690E09093780680937706A0
:1012E0008091C6039091C70301969093C7038093A2
:1012F000C6038091D202882349F0E091C803E093AD
:101300007606FF27E755F94F808104C010927606D4
:101310008091A9068093A8068091A8060E945B0888
:10132000E2CE80917706909178060E94230C8C0182
:101330008091770690917806800F911F90937806A0
:101340008093770680E090E00E94C81C10926E06A1
:1013500010926D06C8010E94112880E090E00E9462
:10136000E51CC3CEFF920F931F93082FF62E142F68
:101370000E947B22809367068F3F19F486E391E0F9
:1013800008C00E947B22809375068F3F79F48FE01E
:1013900091E00E94931DE0916B07F0916C076085CE
:1013A0008EE00E9474218FEF90E087C01092E102DE
:1013B0001092E0021092DF020E94ED2E10926C0655
:1013C00010926B0684E690E09093780680937706FF
:1013D000109284061092C9031092BC061092BB06AC
:1013E0000093D203F092D2021093C8031092D90551
:1013F0001092DA051092DB051092DC051092F502CE
:101400001092F6021092F7021092F80284E680938E
:10141000F40280E49FE19093F3028093F20280EA69
:101420009FE09093F1028093F0028FE08093EE02B0
:1014300081E899E19093ED028093EC02E6EDF4E00F
:10144000119284E0EF3EF807D9F71092CE03109284
:10145000CF031092D0031092D1031092D0041092B7
:10146000D1041092D2041092D30421E839E141E270
:1014700054E26FE08BED92E00E94D51781E08093FB
:10148000710610927D06FF2041F010937606E12F41
:10149000FF27E755F94F808104C0109276068091AE
:1014A000A9068093A8068091A8060E945B08109266
:1014B000C7031092C60381E090E01F910F91FF9047
:1014C0000895809167060E9404238091D90588239E
:1014D00079F461E070E080E090E00090670604C07D
:1014E000660F771F881F991F0A94D2F70E945E2506
:1014F00081E090E00895FC01DB018091D90588230B
:1015000029F410821C9280E090E008958091DE0220
:1015100080838091E3028C938091E0029091E102BC
:101520000895CF92DF92EF92FF920F931F93CF9384
:10153000DF93EE24FF240BEDC02E02E0D02E60914D
:10154000EE02C6010E9498170E94BB1210928406F8
:1015500000E012C00E94A92F081771F00E94A92F65
:10156000082F0894E11CF11C81E1E81687E2F806D7
:1015700018F0EE24FF2405C00E94490F182F88237D
:1015800049F30E94A92FC82FDD272496112371F05B
:1015900006C00E94A92F9927C817D90738F060E81C
:1015A00080E00E942E10182F882399F30E94A31226
:1015B000113029F6E091E002F091E10284858A3051
:1015C00009F0BDCF81E090E0A0E0B0E08093D905C4
:1015D0009093DA05A093DB05B093DC0586850E9425
:1015E0004003E091E002F091E102E785E0937606A6
:1015F000FF27E755F94F80818093A8060E945B087A
:101600000091E0021091E102E80168E675E0888D42
:10161000882371F121E030E040E050E004C0220F67
:10162000331F441F551F8A95D2F78091D0049091A3
:10163000D104A091D204B091D304822B932BA42B7C
:10164000B52B8093D0049093D104A093D204B0938F
:10165000D304E88DFF27EA52FB4F81E08083888D19
:10166000FB018193BF012196F5E06C367F0779F687
:10167000E80160E08C8D882349F121E030E040E012
:1016800050E004C0220F331F441F551F8A95D2F724
:101690008091CE039091CF03A091D003B091D1035C
:1016A000822B932BA42BB52B8093CE039093CF0347
:1016B000A093D003B093D103EC8DFF27EA52FB4FE8
:1016C00081E080836F5F21966430A1F681E090E035
:1016D000A0E0B0E00090670604C0880F991FAA1F21
:1016E000BB1F0A94D2F70E940C2481E08093C903A7
:1016F0001092D9051092DA051092DB051092DC05E4
:1017000081E090E0DF91CF911F910F91FF90EF90DA
:10171000DF90CF900895282F6093C803823041F561
:101720008091D0049091D104A091D204B091D304BF
:1017300084608093D0049093D104A093D204B0939A
:10174000D3048091CE039091CF03A091D003B091A8
:10175000D10388608093CE039093CF03A093D003EE
:10176000B093D10381E08093D8048093D90452C010
:10177000813039F58091CE039091CF03A091D003B1
:10178000B091D10384608093CE039093CF03A09354
:10179000D003B093D1038091D0049091D104A09153
:1017A000D204B091D30488608093D0049093D10484
:1017B000A093D204B093D3042093D8042093D904E7
:1017C00029C0882339F58091D0049091D104A0914B
:1017D000D204B091D30482608093D0049093D1045A
:1017E000A093D204B093D3048091CE039091CF0301
:1017F000A091D003B091D10380618093CE039093E8
:10180000CF03A093D003B093D10381E08093D7049A
:101810008093DA0481E090E008958A3118F08FEF28
:101820009FEF0895E82FFF27EA52FB4F8081992709
:1018300087FD90950895E6EDF4E0119284E0EF3E87
:10184000F807D9F7089569E170E00E949E36682F85
:10185000482F0CC0242F3327F901EA52FB4F808117
:10186000882321F0C901861B910908954F5F4931F2
:1018700088F320E030E0422F5527FA01EA52FB4F6F
:101880008081882339F089E190E0861B9109840FDB
:10189000951F08952F5F3F4F621768F70895EAE795
:1018A000F0E083E08083ACE7B0E080E48C9380815B
:1018B000806880831092BE068C91807E8C939C9170
:1018C0008C91807E892B8C93089588EC90E00E9407
:1018D000E32E089580917A00806480937A0080914D
:1018E0007A0084FFFCCF0E94650C2091780033279A
:1018F000809179009927982F8827822B932B089520
:10190000FF920F931F93CF93DF93CDB7DEB722974C
:101910000FB6F894DEBF0FBECDBF0E94C00E8C0183
:10192000009711F00E940A25159AFF248F2D8062DE
:1019300099279A83898340988BE18EBD0DB407FE69
:10194000FDCF89819A81892F99278EBD0DB407FE1D
:10195000FDCF89819A818EBD0DB407FEFDCF409ADF
:1019600082E090E00E94E32E40988BE58EBD0DB49E
:1019700007FEFDCF1EBC0DB407FEFDCF8EB5992727
:10198000982F88279A8389831EBC0DB407FEFDCF4C
:1019900089819A812EB53327282B392B3A832983C5
:1019A000409A89819A8186FD05C0F3942FE1F21651
:1019B00009F0BCCF0115110519F0C8010E94B82328
:1019C000FF20C9F40E946A0C9A83898389819A81D5
:1019D0008F3A910530F089819A818E5A90409A838E
:1019E000898389819A818A54914098F48AE491E0AC
:1019F0009A8389830EC02DE7F29E9001112488E21C
:101A000093E2821B930B6BE170E00E94B2367A8303
:101A1000698389819A8122960FB6F894DEBF0FBE42
:101A2000CDBFDF91CF911F910F91FF900895CF927D
:101A3000DF92EF92FF920F931F93CF93DF93982F34
:101A4000EA01122F823009F481C0833030F48823F8
:101A500071F0813009F0D2C010C0843009F481C027
:101A6000843008F477C0853009F0C8C02DC080E804
:101A700080BB8F9A0E944F0C6AC08091BD06813056
:101A800009F4C3C09093BD06772760FF13C08F98F9
:101A90001092BE0680917C00807E80937C009091A5
:101AA0007C0080917C00807E892B80937C0088EE76
:101AB00093E09FC061FDA9C062FDA7C06770707010
:101AC000672B09F4A2C097C0822F8150823008F0A2
:101AD00099C09091BE06892F8150863018F40E94DB
:101AE0006A0C22C0992319F40E94800C1DC0973003
:101AF00051F5F1E0CF2EF4E0DF2EEE24FF2400E0DC
:101B00000E946A0C8C159D0508F46C01E816F90614
:101B100008F47C018DE790E00E94E32E0F5F003413
:101B200079F7C7018C199D09123031F48883892F08
:101B30009927898381E008C0113029F4969587950B
:101B400096958795888380E08F5F09C08F9A109261
:101B5000BD0651C0613009F058C08091BE0699277A
:101B600056C0613009F051C02730D9F42093BE0629
:101B700080917C008F7780937C0080917C008064D2
:101B800080937C0080917C00807E80937C0090918B
:101B90007C0080917C009360807E982B90937C00E9
:101BA00026C0283020F081E00E94AF202EC0209374
:101BB000BE06213049F480917C008F7780937C00B1
:101BC00080917C00806403C080917C00806C809355
:101BD0007C0080917C00807E80937C0090917C00D2
:101BE00080917C00807E892B812B80937C0088EC07
:101BF00090E00E94E32E81E090E009C060E08CE07C
:101C00000E94742180E090E002C08FEF90E0DF91AD
:101C1000CF911F910F91FF90EF90DF90CF9008959B
:101C200099279C01265A3E4B0B97880F991F880FC6
:101C3000991F280F391FF894409888E18EBD0DB484
:101C400007FEFDCF832F99278EBD0DB407FEFDCF74
:101C50002EBD0DB407FEFDCF409A78940895F894F8
:101C600040981EBC0DB407FEFDCF8EB5409A789407
:101C700086FFF5CF08958091D40699270895CF93D4
:101C8000DF93DC01409889EC8EBD0DB407FEFDCFDB
:101C900080E88EBD0DB407FEFDCF92E09150FD01AE
:101CA000E90FF11D80818EBD0DB407FEFDCF992394
:101CB000A9F7409A40988BEC8EBD0DB407FEFDCF7E
:101CC00080E88EBD0DB407FEFDCF92E09D012E5F32
:101CD0003F4FE9019150F901E90FF11D80818EBD5F
:101CE0000DB407FEFDCF9923A1F7409A8C91809304
:101CF000D506FD0181818093D60688818093D70621
:101D000083818093D806DF91CF910895409889E12F
:101D10008EBD0DB407FEFDCF83E08EBD0DB407FE72
:101D2000FDCF86E08EBD0DB407FEFDCF409A4098F2
:101D30008AE18EBD0DB407FEFDCF8EE08EBD0DB4E1
:101D400007FEFDCF8EE08EBD0DB407FEFDCF409A9D
:101D500081E08093C5060895409889E18EBD0DB459
:101D600007FEFDCF81E08EBD0DB407FEFDCF84ECF4
:101D70008EBD0DB407FEFDCF409A1092C5060895A2
:101D80008091C3069091C40608952091C6063091B3
:101D9000C70638603093C7062093C606409881E195
:101DA0008EBD0DB407FEFDCF832F99278EBD0DB4D8
:101DB00007FEFDCF2EBD0DB407FEFDCF409A08955E
:101DC0002091C6063091C706377F3093C70620930F
:101DD000C606409881E18EBD0DB407FEFDCF832F6E
:101DE00099278EBD0DB407FEFDCF2EBD0DB407FEA5
:101DF000FDCF409A089581E08093D3062091C606D6
:101E00003091C70620613093C7062093C6064098DC
:101E100081E18EBD0DB407FEFDCF832F99278EBDC6
:101E20000DB407FEFDCF2EBD0DB407FEFDCF409AC9
:101E300008951092D3062091C6063091C7062F7ED2
:101E40003093C7062093C606409881E18EBD0DB43D
:101E500007FEFDCF832F99278EBD0DB407FEFDCF62
:101E60002EBD0DB407FEFDCF409A089589B1992784
:101E700066E0969587956A95E1F781709070089570
:101E80008CB1992787FD90958827990F881F9927EE
:101E9000089589B19927E6E096958795EA95E1F747
:101EA0008170907008958091D906882319F480E09C
:101EB00090E008958091D9061092D906992787FD60
:101EC00090950895409888E08EBD0DB407FEFDCF33
:101ED000409A409888E08EBD0DB407FEFDCF409A31
:101EE00008958091C3069091C4060E940A254098E7
:101EF00086E08EBD0DB407FEFDCF409A8091C306EB
:101F00009091C4060E94B82308958091C3069091D1
:101F1000C4060E940A25409884E08EBD0DB407FED9
:101F2000FDCF409A8091C3069091C4060E94B823C9
:101F300008958091C3069091C4060E940A25409896
:101F400086E08EBD0DB407FEFDCF409A409882E139
:101F50008EBD0DB407FEFDCF85E08EBD0DB407FE2E
:101F6000FDCF1EBC0DB407FEFDCF409A40988EE217
:101F70008EBD0DB407FEFDCF1EBC0DB407FEFDCF18
:101F80001EBC0DB407FEFDCF409A0E94620F8091E7
:101F9000C3069091C4060E94B82308958091C30699
:101FA0009091C4060E940A25409886E08EBD0DB42B
:101FB00007FEFDCF409A409882E18EBD0DB407FE2A
:101FC000FDCF85E08EBD0DB407FEFDCF88E08EBD50
:101FD0000DB407FEFDCF409A40988EE28EBD0DB441
:101FE00007FEFDCF88E18EBD0DB407FEFDCF1EBC00
:101FF0000DB407FEFDCF409A0E94620F8091C30688
:102000009091C4060E94B82308950F931F93082F40
:102010008091C3069091C4060E940A25112707FDEE
:102020001095302F22272068409883E18EBD0DB493
:1020300007FEFDCF832F99278EBD0DB407FEFDCF80
:102040002EBD0DB407FEFDCF409A8091C30690913E
:10205000C4060E94B8231F910F9108950F931F93F8
:10206000CF93DF93CDB7DEB724970FB6F894DEBFDA
:102070000FBECDBF182F062F8091C3069091C406C6
:102080000E940A25679B4CC21092D406679B25C00C
:10209000319923C040988FE78EBD0DB407FEFDCF68
:1020A0001EBC0DB407FEFDCF8EB5409A409888E067
:1020B0008EBD0DB407FEFDCF409A409888E08EBDDE
:1020C0000DB407FEFDCF409A8091C3069091C406DF
:1020D0000E94B8238FEF9FEF2BC240988FE78EBDF1
:1020E0000DB407FEFDCF1EBC0DB407FEFDCF4EB5EF
:1020F000409A4F7719F540988FE78EBD0DB407FED3
:10210000FDCF1EBC0DB407FEFDCF8EB5409A4098A2
:1021100088E08EBD0DB407FEFDCF409A409888E060
:102120008EBD0DB407FEFDCF409A8091C3069091FD
:10213000C4060E94B8238EEF9FEFFAC145308CF0A1
:10214000E091C806F091C906242F332727FD30956A
:102150002B5030408481992787FD909582179307F3
:10216000F4F540988FE78EBD0DB407FEFDCF60E01B
:1021700070E0242F332727FD309506C01EBC0DB418
:1021800007FEFDCF6F5F7F4F862F9927821793073A
:1021900014F43199F3CF409A40988FE78EBD0DB477
:1021A00007FEFDCF1EBC0DB407FEFDCF8EB5409AD5
:1021B000409888E08EBD0DB407FEFDCF409A409850
:1021C00088E08EBD0DB407FEFDCF409A8091C30616
:1021D0009091C4060E94B8238DEF9FEFA9C1E091B2
:1021E000C806F091C9064C5043831123B1F0E09129
:1021F000C806F091C9068381992787FD9095202F05
:1022000033278217930749F08091C3069091C40643
:102210000E94B8238AEF9FEF8BC140988FE78EBD55
:102220000DB407FEFDCFFE0131969E012D5F3F4F9D
:102230001EBC0DB407FEFDCF8EB58193E217F307E8
:10224000B9F7409AE091C806F091C90689819A8150
:10225000B5E096958795BA95E1F7817087834098A8
:102260008FE78EBD0DB407FEFDCF1EBC0DB407FE7B
:10227000FDCFE091C806F091C9068EB58083409AE3
:1022800040988FE78EBD0DB407FEFDCF80E007C0FC
:102290001EBC0DB407FEFDCF8F5F843011F0319965
:1022A000F7CF409A40988FE78EBD0DB407FEFDCF63
:1022B00020E030E01EBC0DB407FEFDCFE091C80663
:1022C000F091C906E20FF31F8EB581832F5F3F4F58
:1022D0002230310579F7409A89819A8183FF56C06F
:1022E00040988FE78EBD0DB407FEFDCFEFEBF6E013
:1022F0001EBC0DB407FEFDCF8EB5819386E0E33C96
:10230000F807B1F7409A409889E98EBD0DB407FEF1
:10231000FDCF80E88EBD0DB407FEFDCF92E0915059
:10232000E92FFF27E154F94F80818EBD0DB407FEE0
:10233000FDCF9923A1F7409A40988BE98EBD0DB44B
:1023400007FEFDCF80E88EBD0DB407FEFDCF92E005
:102350009150E92FFF27EF53F94F80818EBD0DB4C7
:1023600007FEFDCF9923A1F7409A40988CE08EBDDF
:102370000DB407FEFDCF409A81E08093D406E09132
:10238000C806F091C90683818450838340988FE703
:102390008EBD0DB407FEFDCF40E050E011C01EBC65
:1023A0000DB407FEFDCFE091C806F091C906058087
:1023B000F681E02DE60FF11D8EB580834F5F5F4FF4
:1023C000642FE091C806F091C906242F332783813A
:1023D000992787FD9095281739070CF3409A409864
:1023E0008FE78EBD0DB407FC0AC0FCCF0DB407FE0D
:1023F000FDCF5EB5409A40988FE78EBD02C01EBCEF
:10240000F5CF0DB407FEFDCFFE0133969E012B5F85
:102410003F4F1EBC0DB407FEFDCF8EB58193E21772
:10242000F307B9F7409AE091C806F091C9068B818D
:10243000808740E020E030E00AC0E091C806F091DB
:10244000C90685819681A80FB91F8C91480F822FEC
:10245000E091C806F091C9062F5F3F4FA82FBB2718
:102460008381992787FD9095A817B90734F34517FD
:1024700019F140988FE78EBD0DB407FEFDCF1EBC4D
:102480000DB407FEFDCF8EB5409A409888E08EBD12
:102490000DB407FEFDCF409A409888E08EBD0DB484
:1024A00007FEFDCF409A8091C3069091C4060E941A
:1024B000B8238CEF9FEF3CC08C8187FF0EC08091CA
:1024C000D9068F5F8093D9068091C3069091C40688
:1024D0000E94B82381E090E02BC040988FE78EBD2A
:1024E0000DB407FEFDCF1EBC0DB407FEFDCF8EB5AB
:1024F000409A409888E08EBD0DB407FEFDCF409A0B
:10250000409888E08EBD0DB407FEFDCF409A8091C3
:10251000C3069091C4060E94B8238BEF9FEF08C0BA
:102520008091C3069091C4060E94B82380E090E099
:1025300024960FB6F894DEBF0FBECDBFDF91CF91CA
:102540001F910F9108958091C3069091C4060E9437
:102550000A251092D006409886E08EBD0DB407FE85
:10256000FDCF409A1092D9068091C3069091C4067F
:102570000E94B82308958091C3069091C4060E94DA
:102580000A2581E08093D006409883E08EBD0DB48B
:1025900007FEFDCF409A409888E08EBD0DB407FE3F
:1025A000FDCF409A1092D9068091C3069091C4063F
:1025B0000E94B82308958091C3069091C4060E949A
:1025C0000A2581E08093D006409883E08EBD0DB44B
:1025D00007FEFDCF409A409888E08EBD0DB407FEFF
:1025E000FDCF409A1092D9068091C3069091C406FF
:1025F0000E94B82308951F93182F8091C3069091CD
:10260000C4060E940A25212F33272F713070206EB7
:10261000306A409885E18EBD0DB407FEFDCF832F53
:1026200099278EBD0DB407FEFDCF2EBD0DB407FE5C
:10263000FDCF409A8091C3069091C4060E94B823B2
:102640001F910895EF92FF920F931F93CF93DF9303
:10265000CDB7DEB722970FB6F894DEBF0FBECDBF61
:102660008C018091C3069091C4060E940A25509166
:10267000C506552339F040988DE08EBD0DB407FE98
:10268000FDCF409AF8014281642F772767FD70954E
:10269000A0E020E030E008C0F80183819481E80EDA
:1026A000F91EF7018081A80F822F2F5F3F4FE82E80
:1026B000FF24E616F70684F3942F945F51119C5F74
:1026C0006799FECF4E99FCCFF894409889E08EBD73
:1026D0000DB407FEFDCF409A409889E08EBD0DB441
:1026E00007FEFDCF409A40988EE38EBD0DB407FCE7
:1026F00005C0FCCF0DB407FC30C1FCCF9EBDFACFA6
:1027000081E698E89A838983552329F089819A8103
:1027100088609A83898340988EE38EBD0DB407FE4E
:10272000FDCFFE0131969E012D5F3F4F80818EBD12
:102730000DB407FEFDCF3196E217F307B9F7409AC3
:1027400040988EE38EBD0DB407FC05C0FCCF0DB4E0
:1027500007FC0EC1FCCF8091CA068EBDF8CF0DB428
:1027600007FEFDCF20E030E0F901E453F94F80810E
:102770008EBD0DB407FEFDCF2F5F3F4F22303105D8
:1027800099F7409A40988EE38EBD0DB407FEFDCFB9
:1027900020E030E0F801E20FF31F80818EBD0DB420
:1027A00007FEFDCF2F5F3F4F2230310599F7409A4A
:1027B00040988EE38EBD0DB407FEFDCF20E030E0E3
:1027C000F901E253F94F80818EBD0DB407FEFDCFB4
:1027D0002F5F3F4F2230310599F7409A552399F0EA
:1027E00040988EE38EBD0DB407FEFDCFE5EDF6E01B
:1027F00080818EBD0DB407FEFDCF319686E0E93DA8
:10280000F807B1F7409A40988EE38EBD0DB407FEED
:10281000FDCF20E030E00DC0F80183819481480FA6
:10282000591FFA0180818EBD0DB407FEFDCF2F5FC9
:102830003F4F422F55274617570774F3409A409849
:102840008EE38EBD0DB407FC05C0FCCF0DB407FCB4
:1028500094C0FCCFAEBDFACF8091D006882339F466
:10286000409883E08EBD0DB407FEFDCF409A40989E
:102870001EBC0DB407FEFDCF8EB5409A81FFF7CF89
:1028800000E0409885E08EBD0DB407FEFDCF409A74
:1028900040981EBC0DB407FEFDCF1EB5409A0F5FD9
:1028A000053651F478948091C3069091C4060E9435
:1028B000B82380E090E068C084E690E00E94F41DB8
:1028C00013FD08C0DECF409884E08EBD0DB407FE36
:1028D000FDCF409A78944E9BFECF4E99FECF8091CB
:1028E000D306882391F084EA92E00E94F41D319B84
:1028F0000EC040988FE78EBD0DB407FEFDCF1EBC05
:102900000DB407FEFDCF8EB5409A11E00FC0409880
:1029100088E08EBD0DB407FEFDCF409A409888E058
:102920008EBD0DB407FEFDCF409A10E0F89440989C
:1029300086E08EBD0DB407FEFDCF409A789480915D
:10294000CA068F5F8093CA068091C3069091C40621
:102950000E94B823812F992717C0409A81E498E8F4
:102960009A8389838091D306882309F0C9CECCCE7F
:10297000409A40988EE38EBDF2CE409AF801858150
:10298000882309F069CF9FCF22960FB6F894DEBF57
:102990000FBECDBFDF91CF911F910F91FF90EF90B0
:1029A00008958F929F92BF92CF92DF92EF92FF9203
:1029B0000F931F93CF93DF93CDB7DEB722970FB658
:1029C000F894DEBF0FBECDBF8C016B017A014901C7
:1029D0008091C3069091C4060E940A250E94A92FE7
:1029E000409888E08EBD0DB407FEFDCF409A409818
:1029F00088E08EBD0DB407FEFDCF409A6799FECFEB
:102A00004E99FCCFF894409889E08EBD0DB407FE36
:102A1000FDCF409A409889E08EBD0DB407FEFDCFF2
:102A2000409AF8016281462F552747FD5095BB24F7
:102A300020E030E007C0F80183819481A80FB91F1E
:102A40008C91B80E822F2F5F3F4FA82FBB27A41762
:102A5000B5078CF3962F945F40988EE38EBD0DB42E
:102A600007FC05C0FCCF0DB407FC18C1FCCF9EBD10
:102A7000FACF81E698E89A83898340988EE38EBDE9
:102A80000DB407FEFDCFFE0131969E012D5F3F4F35
:102A900080818EBD0DB407FEFDCF3196E217F3079E
:102AA000B9F7409A40988EE38EBD0DB407FC05C07F
:102AB000FCCF0DB407FCFBC0FCCF8091CA068EBDD5
:102AC000F8CF0DB407FEFDCF20E030E0F901E4536C
:102AD000F94F80818EBD0DB407FEFDCF2F5F3F4FB4
:102AE0002230310599F7409A40988EE38EBD0DB49F
:102AF00007FEFDCF20E030E0F801E20FF31F8081F8
:102B00008EBD0DB407FEFDCF2F5F3F4F2230310544
:102B100099F7409A40988EE38EBD0DB407FEFDCF25
:102B200020E030E0F901E253F94F80818EBD0DB411
:102B300007FEFDCF2F5F3F4F2230310599F7409AB6
:102B4000B701C6010E942E30F8018581882379F1F2
:102B50008091D006882339F4409883E08EBD0DB46F
:102B600007FEFDCF409AEE24409885E08EBD0DB45F
:102B700007FEFDCF409A40981EBC0DB407FEFDCF66
:102B8000FEB4409AE394F5E6EF1651F47894809100
:102B9000C3069091C4060E94B82380E090E08EC0E6
:102BA00084E690E00E94F41DF3FC08C0DDCF40985D
:102BB00084E08EBD0DB407FEFDCF409A8091520295
:102BC0000E942F198091840090918500F4019183D7
:102BD000808340988EE38EBD0DB407FEFDCFF801D3
:102BE0008281482F552747FD509520E030E00CC0EA
:102BF000F80183819481A80FB91F8C918EBD0DB40B
:102C000007FEFDCF2F5F3F4FA22FBB27A417B507AD
:102C10007CF3409A40988EE38EBD0DB407FC05C04E
:102C2000FCCF0DB407FC48C0FCCFBEBCFACF4E9B16
:102C3000FECFF8944E99FECF409888E08EBD0DB43B
:102C400007FEFDCF409A409888E08EBD0DB407FE88
:102C5000FDCF409A409889E08EBD0DB407FEFDCFB0
:102C6000409A409889E08EBD0DB407FEFDCF409A92
:102C7000409886E08EBD0DB407FEFDCF409A789453
:102C80008091CA068F5F8093CA068091C306909197
:102C9000C4060E94B82381E090E010C0409AF80179
:102CA0008681882309F0E5CE81E498E8E4CE409A55
:102CB00040988EE38EBD05CF409AB9CF22960FB6CD
:102CC000F894DEBF0FBECDBFDF91CF911F910F9162
:102CD000FF90EF90DF90CF90BF909F908F900895DE
:102CE000CF93DF93CDB7DEB722970FB6F894DEBF50
:102CF0000FBECDBF9A8389839093CF068093CE0673
:102D000084EF91E00E94E32E40988AEE8EBD0DB4D0
:102D100007FEFDCF80E88EBD0DB407FEFDCFFE019E
:102D200031969E012D5F3F4F80818EBD0DB407FE11
:102D3000FDCF3196E217F307B9F7409A84EF91E09F
:102D40000E94E32E22960FB6F894DEBF0FBECDBFD1
:102D5000DF91CF9108956F927F928F929F92AF9261
:102D6000BF92CF92DF92EF92FF920F931F93CF9378
:102D7000DF93CDB7DEB722970FB6F894DEBF0FBE54
:102D8000CDBF8C0184E690E00E94E32E7801C12C37
:102D9000B1E0DB2E3E010894611C711CA3E08A2E79
:102DA000912C8C0E9D1EF70180812181332799275C
:102DB000982F8827282B392B3A83298384E690E0A3
:102DC0000E94E32E40988C2D80688EBD0DB407FEC6
:102DD000FDCFC60195958795807C8EBD0DB407FE0D
:102DE000FDCF83015301F50180818EBD0DB407FE37
:102DF000FDCF0894A11CB11CA814B904A1F7409AF6
:102E00000894E11CF11C82E090E0C80ED91E90E10C
:102E1000C91691E0D90639F684E690E00E94E32EC7
:102E200020E131E040E451E01A8219824098842F79
:102E300080688EBD0DB407FEFDCFCA0195958795BC
:102E4000807C8EBD0DB407FEFDCFF80180818EBD64
:102E50000DB407FEFDCF3196EA15FB05B9F7409A90
:102E60004098822F80688EBD0DB407FEFDCFC9014A
:102E700095958795807C8EBD0DB407FEFDCFF8013A
:102E800080818EBD0DB407FEFDCF3196EA15FB059E
:102E9000B9F7409A2E5F3F4F4E5F5F4FE1E02E3112
:102EA0003E0711F681E090E09A83898340988EEC8A
:102EB0008EBD0DB407FEFDCF80E88EBD0DB407FEBC
:102EC000FDCFF80180818EBD0DB407FEFDCF319698
:102ED000EA15FB05B9F7409A40988EE98EBD0DB40E
:102EE00007FEFDCF80E88EBD0DB407FEFDCFF801D3
:102EF00080818EBD0DB407FEFDCF0F5F1F4F0A15F9
:102F00001B05A9F7409A22960FB6F894DEBF0FBEB4
:102F1000CDBFDF91CF911F910F91FF90EF90DF9088
:102F2000CF90BF90AF909F908F907F906F900895BB
:102F30001F93CF93DF93EC01162F8091C3069091DE
:102F4000C4060E940A25409888E08EBD0DB407FE95
:102F5000FDCF409A409888E08EBD0DB407FEFDCFAE
:102F6000409A812F0E94100ED093C906C093C806C4
:102F70008091C3069091C4060E94B823DF91CF913F
:102F80001F9108951F93182F8091C3069091C40636
:102F90000E940A25812F0E94100E8091C3069091F5
:102FA000C4060E94B8231F910895DF92EF92FF920A
:102FB0000F931F93CF93DF93CDB7DEB722970FB652
:102FC000F894DEBF0FBECDBF8C01D62E5A83498345
:102FD000790164E181E00E943D239093C4068093CF
:102FE000C306892B31F40E948426682F8FE00E944B
:102FF00074218091C3069091C4060E940A258F3FD8
:1030000021F48AE891E00E94931D159A88EE93E0DE
:103010000E94F41D169881E090E00E94F41D169A1B
:1030200084E690E00E94F41DF894409881E08EBD03
:103030000DB407FEFDCF409A82EE92E09093C70652
:103040008093C606409881E18EBD0DB407FEFDCF8A
:1030500082E08EBD0DB407FEFDCF82EE8EBD0DB4B5
:1030600007FEFDCF409A409882E18EBD0DB407FE69
:10307000FDCF85E08EBD0DB407FEFDCF1EBC0DB4A7
:1030800007FEFDCF409A40988CE18EBD0DB407FE3F
:10309000FDCF1EBC0DB407FEFDCF8FE78EBD0DB476
:1030A00007FEFDCF409A409889E18EBD0DB407FE22
:1030B000FDCF81E08EBD0DB407FEFDCF84EC8EBD4B
:1030C0000DB407FEFDCF409A409887E18EBD0DB448
:1030D00007FEFDCF8AE18EBD0DB407FEFDCF86E56C
:1030E0008EBD0DB407FEFDCF409A84EF91E00E94A3
:1030F000E32E409888EE8EBD0DB407FEFDCF80E82C
:103100008EBD0DB407FEFDCFFE0131969E012D5FF1
:103110003F4F80818EBD0DB407FEFDCF3196E21783
:10312000F307B9F7409A84EF91E00E94E32E789478
:103130008D2D0E94100E78941093C9060093C80636
:1031400089819A819093CD068093CC06F092CF0628
:10315000E092CE061092CA061092D0060E942F0E60
:103160008091C3069091C4060E94B8238F3F39F422
:103170008DE591E00E94931D82E00E94AF201092A5
:10318000D3061092C5061092D40622960FB6F89474
:10319000DEBF0FBECDBFDF91CF911F910F91FF908A
:1031A000EF90DF9008952091EC068091DA062817C1
:1031B00081F0E22FFF27E552F94FE081822F8F5FE8
:1031C0008093EC06803111F41092EC068E2F992733
:1031D00008958091C80087FFFCCF8091C8008F7749
:1031E0008093C8008091CE0099270895882351F4D8
:1031F0008091C000992787FD90958827990F881F97
:1032000099270895813019F080E090E0089520E03A
:1032100030E09091EC068091DA06981711F021E0E9
:1032200030E0C901089585B7806185BF86E084B923
:1032300087E085B981E087B988B98CE38DB98BE0E7
:103240008AB98EE38EB988E781B980E482B908959E
:103250000E94131980E58CBD81E08DBD08958F3FDC
:1032600009F47FC0482F55279A012770307022300B
:103270003105A9F12330310544F42115310589F0D8
:103280002130310509F06DC01CC02430310509F42E
:1032900046C0243031059CF12530310509F061C06C
:1032A0004EC022B1A3E056954795AA95E1F781E07B
:1032B00090E002C0880F991F4A95E2F7282B22B9A7
:1032C0004DC085B1F3E056954795FA95E1F702C0F8
:1032D000220F331F4A95E2F7822B85B93FC028B1F0
:1032E000E3E056954795EA95E1F781E090E002C06A
:1032F000880F991F4A95E2F7282B28B92FC02BB1C8
:1033000073E0569547957A95E1F781E090E002C029
:10331000880F991F4A95E2F7282B2BB91FC02EB1B1
:1033200063E0569547956A95E1F781E090E002C029
:10333000880F991F4A95E2F7282B2EB90FC021B3A9
:1033400033E0569547953A95E1F781E090E002C069
:10335000880F991F4A95E2F7282B21BB81E090E066
:1033600008958FEF9FEF08958F3F09F486C0482F8F
:1033700055279A012770307022303105C1F1233072
:10338000310544F42115310589F02130310509F06A
:1033900074C01DC02430310509F44BC02430310500
:1033A000BCF12530310509F068C054C022B173E08A
:1033B000569547957A95E1F781E090E002C0880F35
:1033C000991F4A95E2F78095822382B953C095B13F
:1033D00063E0569547956A95E1F702C0220F331FC7
:1033E0004A95E2F7822F8095892385B943C028B199
:1033F00033E0569547953A95E1F781E090E002C0B9
:10340000880F991F4A95E2F78095822388B932C0C8
:103410002BB193E0569547959A95E1F781E090E0BE
:1034200002C0880F991F4A95E2F7809582238BB9D5
:1034300021C02EB183E0569547958A95E1F781E04A
:1034400090E002C0880F991F4A95E2F78095822389
:103450008EB910C021B3B3E056954795BA95E1F700
:1034600081E090E002C0880F991F4A95E2F78095AD
:10347000822381BB81E090E008958FEF9FEF089554
:103480008F3FA9F1282F3327C901877090708230B0
:103490009105A9F0833091052CF4009761F0019714
:1034A00031F50BC08430910571F0843091054CF0FA
:1034B0000597E9F40AC080B109C083B107C086B19D
:1034C00005C089B103C08CB101C08FB19927E3E079
:1034D00036952795EA95E1F702C0959587952A9547
:1034E000E2F7992787FD90958170907008958FEF8E
:1034F0009FEF08958F3F09F403C1282F3327A901B7
:10350000477050704230510509F45CC0433051059A
:1035100044F44115510591F04130510509F0F0C0D6
:1035200034C04430510509F49BC0443051050CF4BB
:1035300070C04530510509F0E3C0B9C080B1A901A0
:1035400073E0569547957A95E1F79927042E02C0C6
:10355000959587950A94E2F780FD0BC022B181E032
:1035600090E002C0880F991F4A95E2F7282B22B9F4
:10357000C4C022B181E090E002C0880F991F4A9533
:10358000E2F78095822382B9B8C083B163E03695B3
:1035900027956A95E1F79927022E02C095958795A0
:1035A0000A94E2F702C0440F551F2A95E2F780FD06
:1035B00003C085B1842B04C095B1842F80958923E5
:1035C00085B99BC086B1A90193E0569547959A9518
:1035D000E1F79927042E02C0959587950A94E2F7A2
:1035E00080FD0BC028B181E090E002C0880F991FD8
:1035F0004A95E2F7282B28B980C028B181E090E0F5
:1036000002C0880F991F4A95E2F78095822388B9F6
:1036100074C089B1A901B3E056954795BA95E1F711
:103620009927042E02C0959587950A94E2F780FDAC
:103630000BC02BB181E090E002C0880F991F4A9522
:10364000E2F7282B2BB959C02BB181E090E002C0E2
:10365000880F991F4A95E2F7809582238BB94DC058
:103660008CB1A901A3E056954795AA95E1F7992752
:10367000042E02C0959587950A94E2F780FD0BC051
:103680002EB181E090E002C0880F991F4A95E2F7C1
:10369000282B2EB932C02EB181E090E002C0880FF5
:1036A000991F4A95E2F7809582238EB926C08FB183
:1036B000A901F3E056954795FA95E1F79927042E6D
:1036C00002C0959587950A94E2F780FD0BC021B35F
:1036D00081E090E002C0880F991F4A95E2F7282BFD
:1036E00021BB0BC021B381E090E002C0880F991F7D
:1036F0004A95E2F78095822381BB81E090E00895AE
:103700008FEF9FEF08958F3F09F412C1482F55277F
:10371000662309F090C0CA018770907082309105CD
:1037200009F43EC0833091053CF4009789F0813064
:10373000910509F0FDC021C08430910509F454C001
:10374000843091050CF43EC0059709F0F1C05EC0CD
:1037500031B1B3E056954795BA95E1F781E090E035
:1037600002C0880F991F4A95E2F7282F209523233E
:1037700021B922B1822B82B9D8C024B1A3E05695D9
:103780004795AA95E1F702C0880F991F4A95E2F77D
:10379000982F8095822384B985B1982B95B9C5C09F
:1037A00037B1F3E056954795FA95E1F781E090E05F
:1037B00002C0880F991F4A95E2F7282F20952323EE
:1037C00027B935C03AB1E3E056954795EA95E1F758
:1037D00081E090E002C0880F991F4A95E2F7282FF8
:1037E000209523232AB923C03DB173E05695479510
:1037F0007A95E1F781E090E002C0880F991F4A9521
:10380000E2F7282F209523232DB911C030B363E0B0
:10381000569547956A95E1F781E090E002C0880FE0
:10382000991F4A95E2F7282F2095232320BB25B125
:10383000822B85B97AC09A01277030702230310509
:10384000A9F12330310544F42115310589F02130E7
:10385000310509F06DC01CC02430310509F446C0A3
:10386000243031059CF12530310509F061C04EC08E
:1038700021B133E0569547953A95E1F781E090E024
:1038800002C0880F991F4A95E2F7282B21B94DC035
:1038900084B193E0569547959A95E1F702C0220FBF
:1038A000331F4A95E2F7822B84B93FC027B1B3E0BA
:1038B00056954795BA95E1F781E090E002C0880FF0
:1038C000991F4A95E2F7282B27B92FC02AB1A3E008
:1038D00056954795AA95E1F781E090E002C0880FE0
:1038E000991F4A95E2F7282B2AB91FC02DB1F3E0A2
:1038F00056954795FA95E1F781E090E002C0880F70
:10390000991F4A95E2F7282B2DB90FC020B3E3E0A9
:1039100056954795EA95E1F781E090E002C0880F5F
:10392000991F4A95E2F7282B20BB81E090E008958B
:103930008FEF9FEF0895882319F08FEF9FEF089581
:1039400080B1992787FD9095809590958827990F4C
:10395000881F99270895009711F484E109C08130E8
:10396000910511F48CE104C08230910531F484E2B8
:103970000E947A1A81E090E00895039719F08FEF82
:103980009FEF08958CE20E947A1A81E090E00895FA
:10399000009711F484E109C08130910511F48CE1A4
:1039A00004C08230910531F484E20E942F1981E035
:1039B00090E00895039719F08FEF9FEF08958CE240
:1039C0000E942F1981E090E00895009711F484E19E
:1039D00009C08130910511F48CE104C08230910559
:1039E00031F484E20E94B41981E090E008950397D5
:1039F00019F08FEF9FEF08958CE20E94B41981E0D7
:103A000090E00895882319F085B78F7E02C085B7AE
:103A1000806185BF81E090E00895982F8091C0007B
:103A200085FFFCCF8091C0008F7D8093C000909374
:103A3000C6000895982F8091C80085FFFCCF909311
:103A4000CE000895292F33272093C5008093C4000A
:103A500086E08093C200E1ECF0E080818B7F808380
:103A6000A0ECB0E08C9182608C938081886180832F
:103A70000895292F33272093CD008093CC0086E032
:103A80008093CA00E9ECF0E080818B7F8083A8EC12
:103A9000B0E08C9182608C938081886180830895EE
:103AA0008091C00087FFFCCF8091C0008F7780930A
:103AB000C0008091C600992708950E94391D63EDCA
:103AC00078E18AE19DE10E946234909393078093AC
:103AD000920763ED78E18AE19DE10E946234909360
:103AE0009107809390070E947B228093EB068F3F83
:103AF00019F48EE00E947B211092EC061092DA06F7
:103B00008091C90080688093C90008958091EB0678
:103B10008F3F19F48EE00E947B218091EB0699275C
:103B200087FD90950895CF93DF93EC0107C06091D6
:103B300092077091930799270E94B034FE01219655
:103B400084918823A1F7DF91CF9108951F920F925E
:103B50000FB60F9211242F933F934F935F936F9360
:103B60007F938F939F93AF93BF93EF93FF93809136
:103B7000C9008F778093C9008091C80087FFFCCF70
:103B80008091C8008F778093C8009091CE0080917B
:103B9000DA06E82FFF27E552F94F90838F5F809375
:103BA000DA06803111F41092DA068091EB060E9459
:103BB0000C248091C8008F778093C8008091C90041
:103BC00080688093C900FF91EF91BF91AF919F9161
:103BD0008F917F916F915F914F913F912F910F90B6
:103BE0000FBE0F901F90189500000000000000000D
:103BF0000197D1F70895FC01A7E0B0E00E941E37BD
:103C0000802D808381E090E00895FC018081A7E011
:103C1000B0E0082E0E94263781E090E00895DC0194
:103C20000E941E37802D99270895FC01A0E0B0E086
:103C30000E941E37402D4383A1E0B0E00E941E3752
:103C4000802D8283A2E0B0E00E941E37302D3183A8
:103C5000A3E0B0E00E941E37902D9083A4E0B0E076
:103C60000E941E37202D830F840F890F281719F407
:103C700081E090E008958FEF9FEF0895FC01A5E0AB
:103C8000B0E00E941E37802D808381E090E008958F
:103C9000FC01A6E0B0E00E941E37802D808381E009
:103CA00090E00895AC0120E030E0D90118960E9420
:103CB0001E37802DFA01E20FF31F80832F5F3F4FE5
:103CC0002031310591F781E090E00895DC01062E66
:103CD0000E9426370895FC018081A6E0B0E0082EFE
:103CE0000E94263781E090E00895AC0120E030E0AA
:103CF000D9011896FA01E20FF31F8081082E0E9465
:103D000026372F5F3F4F2031310591F781E090E05A
:103D10000895F89408957894089585E690E00895BC
:103D20000E94D22B0895EF92FF920F931F93CF938F
:103D3000DF93EC018B017A018985823021F080913B
:103D40005A07888301C0188280915A07833020F077
:103D500060E087E00E9474218985823029F080919B
:103D60005A078F5F80935A0780915A07882319F466
:103D700081E080935A078881992787FD9095FC01FF
:103D800045E0EE0FFF1F4A95E1F7E80FF91FE151FB
:103D9000F94F118300838881992787FD9095FC0155
:103DA00035E0EE0FFF1F3A95E1F7E80FF91FE151FB
:103DB000F94F888582878881992787FD9095FC0136
:103DC00025E0EE0FFF1F2A95E1F7E80FF91FE151FB
:103DD000F94F83E081872881822F992787FD90956D
:103DE000FC0105E0EE0FFF1F0A95E1F7E80FF91F50
:103DF000E151F94F20878881992787FD9095FC0133
:103E000015E0EE0FFF1F1A95E1F7E80FF91FE151DA
:103E1000F94F15820881112707FD10952B853C85E8
:103E20004D855E856F85788989899A890E94F729F1
:103E3000F801B5E0EE0FFF1FBA95E1F7E00FF11FB3
:103E4000E151F94F948F838F0881112707FD109559
:103E50002B8D3C8D4D8D5E8D6F8D78A189A19AA1A2
:103E60000E94F729F801A5E0EE0FFF1FAA95E1F7E0
:103E7000E00FF11FE151F94F968B858B88819927CF
:103E800087FD9095FC0175E0EE0FFF1F7A95E1F735
:103E9000E80FF91FE151F94F85899689238D348DFB
:103EA000820F931F908F878B0881112707FD109534
:103EB0002B893C894D895E896F89788D898D9A8D92
:103EC0000E94F729F80165E0EE0FFF1F6A95E1F700
:103ED000E00FF11FE151F94F968F858F8881992767
:103EE00087FD9095FC0155E0EE0FFF1F5A95E1F715
:103EF000E80FF91FE151F94F858D968D928F818FD3
:103F00008881992787FD9095FC0145E0EE0FFF1F02
:103F10004A95E1F7E80FF91FE151F94F81E090E090
:103F200090A3878F8881992787FD9095FC0135E0C4
:103F3000EE0FFF1F3A95E1F7E80FF91FE151F94F36
:103F4000F382E2828881992787FD9095FC0125E024
:103F5000EE0FFF1F2A95E1F7E80FF91FE151F94F26
:103F600081E0848781E090E0DF91CF911F910F91F4
:103F7000FF90EF9008958F929F92AF92BF92CF9251
:103F8000DF92EF92FF920F931F93CF93DF9367EF30
:103F9000A62E66E0B62ECC24DD244501EC2CF501DE
:103FA000F080FFEFFF1691F0E40100E010E0E01672
:103FB00039F08881F81621F46F2D85E00E94742174
:103FC0000F5F1F4FA1960330110589F70894C11C9C
:103FD000D11C81E290E0A80EB91E93E0C916D1046D
:103FE000E9F60E949925282F332727FD3095F901FE
:103FF00055E0EE0FFF1F5A95E1F7E20FF31FE15175
:10400000F94F328530936D0721E28202C0011124FD
:104010008151994F90936C0780936B0790935D0744
:1040200080935C0730935E070E94D1320E94B732C2
:104030000E94F532FFCF0F931F93CF93DF93CDB73D
:10404000DEB7A3970FB6F894DEBF0FBECDBF0E94B8
:104050007B2280935B078F3F21F460E08EE00E941B
:1040600074210E942832882321F460E086E00E94B7
:10407000742110925E0710926C0710926B071092D9
:104080005D0710925C0710926D0710926A078FEF20
:104090008093540780935607809355078093570762
:1040A000809359078093580793E69093F90680937D
:1040B000F70690931A078093180790933B07809315
:1040C0003907EEE6F7E0CF01059694838383F78303
:1040D000E683FC0127E08D379207A9F7109270075D
:1040E00010926F071092810710928007109261075B
:1040F000109260070F979093EE068093ED0668EBA1
:104100007BE28E010F5F1F4FC8010E94753240E8AD
:1041100050E067EE75E0C8010E94D63285E58093D5
:10412000E70519861C8E1D8E1E8E1F8E18A219A2E1
:104130001AA21BA291E0988782E08A879B87C80118
:104140000E948228A3960FB6F894DEBF0FBECDBFA3
:10415000DF91CF911F910F910895F894FFCFE091D7
:104160006B07F0916C0784870895E0916B07F091DD
:104170006C07848599270895DC01FB018091D8059F
:10418000882319F480E090E0089580838091EB0209
:104190008C9381E090E008951F938091D805882347
:1041A00009F49EC00E94891E0E94891E82E793E046
:1041B0000E94931D8091EB0299279F938F9383E731
:1041C00092E09F938F930E94DD348EE693E00E94ED
:1041D000931D0F900F900F900F908091D805843110
:1041E00010F01092D8058091D8059927AA27BB27EF
:1041F000FC013197E231F105F0F5EA59FF4FEE0F7E
:10420000FF1F0590F491E02D099487E493E035C0F9
:1042100083E393E032C08DE193E02FC082E093E02E
:104220002CC08CEE92E029C084ED92E026C081EC97
:1042300092E023C08EEA92E020C080E992E01DC0A7
:104240008BE692E01AC08FE592E017C084E492E01A
:1042500014C085E392E011C084E292E00EC080E1D8
:1042600092E00BC080EF91E008C088ED91E005C0BE
:104270008DEB91E002C086EB91E00E94931D60916E
:104280009207709193078DE090E00E94B0346091A6
:104290009207709193078AE090E00E94B03482E028
:1042A00090E00E94E51C83E090E00E94C81C10E0B2
:1042B00088EE93E00E94E32E1F5F1436C9F783E077
:1042C00090E00E94E51C82E090E00E94C81C10E093
:1042D00088EE93E00E94E32E1F5F1436C9F7DFCF0C
:1042E00080E090E01F9108958093D8056093EB02E1
:1042F0000E94CC2008958093D805E0916B07F0913F
:104300006C0780858093EB020E94CC20089599274A
:1043100087FD9095FC0125E0EE0FFF1F2A95E1F740
:10432000E80FF91FE151F94FA281B3818C918535D6
:1043300029F085E58C938FEF9FEF0895808191811F
:104340008050924218F481E090E0089582E10E944A
:104350007B218FEF9FEF08956F927F928F929F92B4
:10436000AF92BF92CF92DF92EF92FF920F931F9383
:10437000CF93DF938EE793E00E94931DE0916B074C
:10438000F0916C078085992787FD90959F938F9377
:1043900086E792E09F938F930E94DD34E0916B0754
:1043A000F0916C07028113811F930F938FE792E0C6
:1043B0009F938F930E94DD34F801808199279F930A
:1043C0008F935CE8C52E52E0D52EDF92CF920E94EB
:1043D000DD34E0916B07F0916C07808191819F93B0
:1043E0008F9349E9E42E42E0F42EFF92EF920E946F
:1043F000DD3480916B0790916C079F938F9303EA54
:1044000012E01F930F930E94DD34CFEED6E0AA2472
:10441000BB248DB79EB744960FB6F8949EBF0FBECF
:104420008DBF33EB632E32E0732E460167017801B6
:104430000A811B811F930F93BF92AF927F926F925D
:104440000E94DD34F801808199279F938F939F927A
:104450008F920E94DD34888199819F938F93DF92A0
:10446000CF920E94DD34DF93CF93FF92EF920E94B0
:10447000DD340894A11CB11CA1968DB79EB742965D
:104480000FB6F8949EBF0FBE8DBF93E0A916B1047E
:1044900079F6DF91CF911F910F91FF90EF90DF9010
:1044A000CF90BF90AF909F908F907F906F90089526
:1044B000CF93DF93E0916B07F0916C07C281D381BA
:1044C0008881853539F00E94AC2181E00E947B21F2
:1044D00085E58883E0916B07F0916C07808191817D
:1044E0008050924228F00E94AC2182E10E947B2100
:1044F000DF91CF9108954091CA035091CB03609111
:10450000CC037091CD0320E030E0DB01CA01022E24
:1045100004C0B695A795979587950A94D2F78170B0
:104520009070892BE9F481E090E0A0E0B0E0022EE9
:1045300004C0880F991FAA1FBB1F0A94D2F7842BAF
:10454000952BA62BB72B8093CA039093CB03A093F4
:10455000CC03B093CD03822F992787FD90950895C2
:104560002F5F3F4F2032310581F68FEF9FEF089587
:10457000E0916B07F0916C0765857685878590895A
:104580000895EF92FF920F931F9321E030E040E0F7
:1045900050E004C0220F331F441F551F8A95D2F7E5
:1045A000E0916B07F0916C07E584F684078510892C
:1045B000DA01C9018E219F21A023B1230097A10513
:1045C000B10519F48FEF9FEF1AC0209530954095F3
:1045D0005095E222F32204231523E586F686078709
:1045E000108B81899289A389B48982239323A42380
:1045F000B523818B928BA38BB48B81E090E01F91CC
:104600000F91FF90EF900895682F772767FD7095C1
:104610008091CA039091CB03A091CC03B091CD03BC
:10462000062E04C0B695A795979587950A94D2F75C
:1046300081709070892B19F48FEF9FEF0895E091AE
:104640006B07F0916C0721E030E040E050E004C0DF
:10465000220F331F441F551F6A95D2F78585968513
:10466000A785B089822B932BA42BB52B85879687A2
:10467000A787B08B81E090E00895382F80916A077A
:10468000882319F080E090E00895809154078F3FCF
:1046900011F420E007C0809157078F3F11F022E00E
:1046A00001C021E0822F9927FC01EE0FFF1FE80FC8
:1046B000F91FEC5AF84F32833083618381E0809395
:1046C0006A0783E0289FC00111248C5A984F0895EF
:1046D00027E08435920711F480E007C087559740A2
:1046E00019F08FEF9FEF089581E0992787FD90954E
:1046F00008950E9468238F3F11F481E002C0823048
:1047000029F40E94AF208FEF9FEF0895992787FD2E
:104710009095FC01EE0FFF1FE80FF91FEC5AF84FC0
:104720008FEF80838283818380916A078150809399
:104730006A0781E090E008950E9468238F3F11F49A
:1047400081E002C0823029F40E94AF208FEF9FEFFA
:104750000895992787FD9095FC01EE0FFF1FE80F44
:10476000F91FEC5AF84F8281992787FD909508959B
:104770001F93CF93DF930E946823182F8F3F11F46C
:1047800081E003C0823031F482E00E94AF208FEFDD
:104790009FEF3EC0992787FD9095EC01CC0FDD1F60
:1047A000C80FD91FCC5AD84F9A818881981774F5B1
:1047B0000E94891E8A818F5F8A83E0916B07F09146
:1047C0006C071482E6EFF6E0212F332727FD3095A2
:1047D000432F532F8081823091F482859385A48565
:1047E000B58582179307A407B50749F483E0828350
:1047F0001786168610821286138614861586B19641
:1048000087E0E935F80731F70E948B1E81E090E0E0
:10481000DF91CF911F910895DF92EF92FF920F9356
:104820001F93E1E0EE2EF12C012D112D04C0EE0CB2
:10483000FF1C001F111F8A95D2F78091CA03909127
:10484000CB03A091CC03B091CD038E219F21A02357
:10485000B1230097A105B10511F481E043C00E9486
:10486000891EE6EFF6E0DD2480818130B9F482858F
:104870009385A485B5858E219F21A023B123009720
:10488000A105B10559F083E0828317861686108250
:10489000E286F38604871587DD24D39480818230F5
:1048A000A1F482859385A485B5858E159F05A00703
:1048B000B10759F483E08283178616861082128628
:1048C000138614861586DD24D394B19687E0E935E6
:1048D000F80751F60E948B1EDD2019F081E090E070
:1048E00005C082E00E94AF208FEF9FEF1F910F91D4
:1048F000FF90EF90DF900895EF92FF920F931F9338
:10490000CF93DF93C82FDD27C7FDD095F1E0EF2EC1
:10491000F12C012D112D0C2E04C0EE0CFF1C001FDC
:10492000111F0A94D2F78091CA039091CB03A091F2
:10493000CC03B091CD038E219F21A023B1230097FA
:10494000A105B10519F48FEF9FEF5DC00E94891E8C
:10495000EFEEF6E0A801970120953095409550952F
:1049600080858F3F41F185859685A785B0898E1515
:104970009F05A007B10739F4118A128A138A148A95
:10498000178283E0818785859685A785B0898223F4
:104990009323A423B52385879687A787B08B818926
:1049A0009289A389B48982239323A423B523818B7D
:1049B000928BA38BB48BB19687E0E235F80781F632
:1049C0002EEF3FEF4FEF5FEF04C0220F331F441F66
:1049D000551FCA95D2F78091CA039091CB03A0913D
:1049E000CC03B091CD0382239323A423B5238093DA
:1049F000CA039093CB03A093CC03B093CD030E9442
:104A00008B1E81E090E0DF91CF911F910F91FF907D
:104A1000EF9008951F93CF93DF930E946823182F80
:104A20008F3F11F481E003C0823031F482E00E94B4
:104A3000AF208FEF9FEF3EC00E94891E812F9927E4
:104A400087FD9095EC01CC0FDD1FC80FD91FCC5A04
:104A5000D84F8A818823D9F4E0916B07F0916C07D5
:104A6000878182608783E0916B07F0916C07812FCB
:104A7000992787FD9095A92FB92F818B928BA38BB6
:104A8000B48B0E948B1E80E090E00E94AF278A8149
:104A900081508A83E0916B07F0916C07898183874D
:104AA000E0916B07F0916C0781E084830E948B1E7C
:104AB00081E090E0DF91CF911F9108959B01AC01BF
:104AC000E0916B07F0916C0785859685A785B08985
:104AD00082239323A423B5230097A105B10529F4CC
:104AE00060E070E080E090E00895218B328B438B92
:104AF000548B81E0878300905B0704C056954795EF
:104B0000379527950A94D2F7C90181709070892B47
:104B100019F00E944A2704C080E090E00E94AF276D
:104B2000E0916B07F0916C076189728983899489A0
:104B30000895E0916007F0916107808199270895B9
:104B4000E0916007F091610703C00380F481E02DDC
:104B50003097D9F70895CF93DF93482FC091ED0692
:104B6000D091EE06209709F47AC0A0916007B09129
:104B700061071097B9F1992787FD90959C0165E031
:104B8000220F331F6A95E1F7280F391F2151394F42
:104B90008C919927BC0155E0660F771F5A95E1F774
:104BA000680F791F6151794FFB018481882329F0B7
:104BB0009385F90182859817A8F0F90184818823EB
:104BC00031F0FB019285F9018385981758F0FB01BC
:104BD0009285F9018285981728F0FD01A381B4819F
:104BE0001097B1F64883E091ED06F091EE0623812F
:104BF00034813093EE062093ED068091600790910A
:104C00006107A817B907A1F4109731F0BC83AB83F3
:104C10001A821982FD0105C01C821B821A82198228
:104C2000F901D283C183D0936107C093600717C095
:104C3000FD0181819281A217B30751F09A83898384
:104C4000BC83AB8381819281FC01D483C38304C084
:104C50001C821B829A838983FD01D283C183DF91E9
:104C6000CF910895CF93DF93A0916007B091610732
:104C7000109709F446C0482F552747FD50958C9151
:104C800099278417950769F4ED01EB81FC81F09376
:104C90006107E09360071282118216C0D901232BAD
:104CA00081F18C919927FD01238134818417950727
:104CB000A9F7C181D2813C832B83838194810097A2
:104CC00019F0FC01D283C183E091ED06F091EE066C
:104CD000309741F4B093EE06A093ED06ED011C82EF
:104CE0001B8209C0ED01FC83EB83B283A183B093E7
:104CF000EE06A093ED06E091ED06F091EE0612822D
:104D00001182DF91CF910895E0916B07F0916C07CC
:104D10008085992708950E946A32E0916B07F0918F
:104D20006C0785818823B9F70895FF920F931F932D
:104D3000CF93DF93CDB7DEB728970FB6F894DEBFD9
:104D40000FBECDBF29833A834B835C836D837E8303
:104D50008F8398870E9458220E94891EE0916B07DA
:104D6000F0916C0781E0858381E090E090A3878FCC
:104D70000E94A92FF82E29813A814B815C816D8197
:104D80007E818F8198850E94F729E0916B07F091D1
:104D90006C070F2D1127800F911F968B858B87EF46
:104DA0008F1570F00E94352F0E5F1F4F99278017C7
:104DB000910734F08F2D8E5F8093B9060E943A2FB1
:104DC0000E948B1E0E948B2681E090E028960FB6F1
:104DD000F894DEBF0FBECDBFDF91CF911F910F9131
:104DE000FF9008958F929F92AF92BF92CF92DF92E1
:104DF000EF92FF920F931F93CF93DF93CDB7DEB760
:104E000060970FB6F894DEBF0FBECDBF29873A87F3
:104E10004B875C876D877E878F87988BCE01019645
:104E20000E945D2B89809A80AB80BC80CD80DE8023
:104E3000EF80F88409851A852B853C854D855E8534
:104E40006F857889CE0109960E94D828882319F4A5
:104E50008FEF9FEF0CC029853A854B855C856D856A
:104E60007E858F8598890E94952681E090E06096E6
:104E70000FB6F894DEBF0FBECDBFDF91CF911F916B
:104E80000F91FF90EF90DF90CF90BF90AF909F90E9
:104E90008F9008951F930E94891EE0916B07F091F7
:104EA0006C0781E0858386830E94A92F182F883F95
:104EB00080F40E94352F212F33272E5F3F4F9927F3
:104EC0008217930734F0812F8E5F8093B9060E947A
:104ED0003A2F0E948B1E0E948B2681E090E01F914A
:104EE00008951F93CF93DF93CDB7DEB728970FB602
:104EF000F894DEBF0FBECDBF29833A834B835C831A
:104F00006D837E838F8398870E94891E0E94A92FBC
:104F1000182F29813A814B815C816D817E818F813F
:104F200098850E94F7298330910518F48FEF9FEF41
:104F30000CC0E0916B07F0916C07810F911D968B6F
:104F4000858B0E948B1E81E090E028960FB6F89426
:104F5000DEBF0FBECDBFDF91CF911F9108950F939C
:104F60001F938C010E94891EE0916B07F0916C07E2
:104F700081E08583168B058B0E94A92F082F883F1F
:104F800080F40E94352F202F33272E5F3F4F992723
:104F90008217930734F0802F8E5F8093B9060E94AA
:104FA0003A2F0E948B1E0E948B2681E090E01F9179
:104FB0000F910895FF920F931F93CF93DF938C016E
:104FC0000E94891EE0916B07F0916C0781E0858358
:104FD0000E94A92FF82EE0916B07F0916C07C82F63
:104FE000DD270C0F1D1F168B058B87EF8F1568F0C3
:104FF0000E94352F229699278C179D0734F08F2D0C
:105000008E5F8093B9060E943A2F0E948B1E0E94E9
:105010008B2681E090E0DF91CF911F910F91FF905F
:1050200008951F93CF93DF93EC010E94582220979D
:1050300011F4C1E0D0E00E94891EE0916B07F0916D
:105040006C0781E08583D0A3C78F0E94A92F182FFA
:10505000883F80F40E94352F212F33272E5F3F4F4A
:1050600099278217930734F0812F8E5F8093B906BA
:105070000E943A2F0E948B1E0E948B2681E090E0B6
:10508000DF91CF911F9108951F930E9458220E9493
:10509000891EE0916B07F0916C0781E090E090A38E
:1050A000878F81E085830E94A92F182F883F80F485
:1050B0000E94352F212F33272E5F3F4F99278217CC
:1050C000930734F0812F8E5F8093B9060E943A2FA8
:1050D0000E948B1E0E948B2681E090E01F91089514
:1050E000E0916B07F0916C0780850E943226E09179
:1050F0006B07F0916C0784E081870E94442881E06F
:1051000090E00895EF92FF920F931F93CF93DF9358
:10511000EC014B815C8169817A818D819E810E9445
:105120007932BC018F81882369F04B815C81EE2448
:10513000FF2400E010E020E030E0CE010E94931E4A
:105140001F8216C08881992787FD9095FC01A5E0F4
:10515000EE0FFF1FAA95E1F7E80FF91FE151F94F94
:105160008185833019F08FEF9FEF1BC071836083BF
:105170008881992787FD9095FC0175E0EE0FFF1F50
:105180007A95E1F7E80FF91FE151F94F8589968982
:10519000892B29F482E0818788810E94AB2581E0F8
:1051A00090E0DF91CF911F910F91FF90EF900895C4
:1051B0008F929F92AF92BF92CF92DF92EF92FF9227
:1051C0000F931F93CF93DF93CDB7DEB760970FB6E2
:1051D000F894DEBF0FBECDBFFC0109831A832B8379
:1051E0003C834D835E836F83788789869A86AB86FE
:1051F000BC86CD86DE86EF86F88A2D813E814F8182
:10520000588589819A81AB81BC81AD84BE84CF846D
:10521000D888E984FA840B851C858E159F05A00724
:10522000B10708F43FC0E816F9060A071B0791F416
:105230002A153B054C055D05A8F12A193B094C09C7
:105240005D0924833583468357831082118212823D
:1052500013821CC02A153B054C055D05D0F401974F
:10526000A109B1098E199F09A00BB10B808391830D
:10527000A283B383205036434546544C2A193B0938
:105280004C095D09248335834683578381E090E090
:105290000BC08E199F09A00BB10B80839183A28351
:1052A000B383ECCF80E090E060960FB6F894DEBF59
:1052B0000FBECDBFDF91CF911F910F91FF90EF9067
:1052C000DF90CF90BF90AF909F908F900895FC019A
:1052D00013C080509A4CAA49BB4384839583A6830C
:1052E000B78380819181A281B3810196A11DB11DF7
:1052F00080839183A283B38384819581A681B781C2
:1053000080302AEC92072AE9A2072BE3B20708F7BC
:1053100008958F929F92AF92BF92CF92DF92EF92B9
:10532000FF920F931F93CF93DF93CDB7DEB76097B4
:105330000FB6F894DEBF0FBECDBFFC0109831A8300
:105340002B833C834D835E836F83788789869A861F
:10535000AB86BC86CD86DE86EF86F88AAD80BE80C1
:10536000CF80D884ED84FE840F85188989859A853D
:10537000AB85BC8529813A814B815C81820F931F6B
:10538000A41FB51F80839183A283B383EA0CFB1C07
:105390000C1D1D1DE482F58206831783CF010E9438
:1053A000672981E090E060960FB6F894DEBF0FBEEB
:1053B000CDBFDF91CF911F910F91FF90EF90DF90C4
:1053C000CF90BF90AF909F908F90089560936207A9
:1053D0007093630780936407909365072093660733
:1053E00030936707409368075093690708958F9239
:1053F0009F92AF92BF92CF92DF92EF92FF920F9364
:105400001F93CF93DF93CDB7DEB728970FB6F894ED
:10541000DEBF0FBECDBF29833A834B835C836D8390
:105420007E838F8398878D809E80AF80B884E9804B
:10543000FA800B811C81E114F1040105110501F1D1
:1054400080E09AECAAE9BBE3880E991EAA1EBB1E57
:10545000C501B40123EB36EE4EE050E00E94C536A4
:1054600069010894E108F108010911098AE0EE0CCC
:10547000FF1C001F111F8A95D1F7CE0CDF1C09C03D
:10548000C501B40123EB36EE4EE050E00E94C53674
:105490006901B60102C06050744094E06130790740
:1054A000D0F78827992723EB36EE4EE050E00E9494
:1054B0007336675A7C48884F9F4F681579058A056F
:1054C0009B0518F40894C11CD11CC60128960FB680
:1054D000F894DEBF0FBECDBFDF91CF911F910F912A
:1054E000FF90EF90DF90CF90BF90AF909F908F9004
:1054F00008952F923F924F925F926F927F928F9278
:105500009F92AF92BF92CF92DF92EF92FF920F9352
:105510001F93CF93DF93CDB7DEB728970FB6F894DC
:10552000DEBF0FBECDBF7B018C01737080709070A9
:1055300023EB36EE4EE050E00E9473366D837E839F
:105540008F8398879AE016950795F794E7949A9534
:10555000D1F7E982FA820B831C83988529803A80EF
:105560004B805C806D807E808F80222D332D442D7A
:10557000552D662D772D882D28960FB6F894DEBF11
:105580000FBECDBFDF91CF911F910F91FF90EF9094
:10559000DF90CF90BF90AF909F908F907F906F9053
:1055A0005F904F903F902F900895AF92BF92CF920F
:1055B000DF92EF92FF920F931F93CF93DF93CDB7BC
:1055C000DEB728970FB6F894DEBF0FBECDBF298394
:1055D0003A834B835C836D837E838F839887AD8012
:1055E000BE80CF80D884E980FA800B811C81E114D1
:1055F000F1040105110509F180E09AECAAE9BBE389
:10560000A80EB91ECA1EDB1EC601B50123EB36EE7D
:105610004EE050E00E94C5360894E108F108010907
:1056200011096AE0EE0CFF1C001F111F6A95D1F7EB
:10563000E20EF31E041F151F0AC0C601B50123EBBD
:1056400036EE4EE050E00E94C53679018A01C8016D
:10565000B70104C060507440804090406130A4E0C5
:105660007A07A0E08A07A0E09A07A0F723EB36EEBE
:105670004EE050E00E947336675A7C48884F9F4F37
:105680006A157B058C059D0528F40894E11CF11C26
:10569000011D111DC801B70128960FB6F894DEBF91
:1056A0000FBECDBFDF91CF911F910F91FF90EF9073
:1056B000DF90CF90BF90AF900895EF92FF920F933D
:1056C0001F93CF93DF93EC01809162079091630762
:1056D000A0916407B091650788839983AA83BB83EF
:1056E000E0906607F09067070091680710916907DE
:1056F000EC82FD820E831F830E94A92F9927AA277F
:10570000BB27BC01CD0123EB36EE4EE050E00E94FA
:105710007336E60EF71E081F191FEC82FD820E83FA
:105720001F8313C080509A4CAA49BB438C839D832E
:10573000AE83BF8388819981AA81BB810196A11D17
:10574000B11D88839983AA83BB838C819D81AE819F
:10575000BF8180302AEC92072AE9A2072BE3B20727
:1057600008F7DF91CF911F910F91FF90EF9008956F
:105770000E9458220E94352F8B3018F481E08093CC
:105780005F070E946A328091E705853519F088E04D
:105790000E947B2180917E21853551F388E00E9413
:1057A0007B21E6CF8F929F92AF92BF92CF92DF92F2
:1057B000EF92FF920F931F93CF93DF930E94891E66
:1057C0000E94F12E0E94F92E4C018AEF0E943A2F7E
:1057D0006091B90677278827992723EB36EE4EE0AC
:1057E00050E00E9473367B018C0180916607909196
:1057F0006707A0916807B0916907E80EF91E0A1FB4
:105800001B1FC801B7010E94C536A8019701261BBE
:10581000370B480B590B8091620790916307A09159
:105820006407B09165071BC0E12C66E3F62E65E6C0
:10583000062F64EC162FE20EF31E041F151FC8017D
:10584000B70123EB36EE4EE050E00E94C536A801CA
:105850009701261B370B480B590BD601C5015C017C
:105860006D010894A11CB11CC11CD11C20306AEC34
:1058700036076AE946076BE35607B0F6809362077E
:1058800090936307A0936407B0936507209366071E
:10589000309367074093680750936907E0916B075F
:1058A000F0916C078581882319F18185843001F19D
:1058B0008781823029F0882341F08681882311F482
:1058C00085E001C083E081870CC083E08187E0919F
:1058D0006B07F0916C071782E0916B07F0916C07F2
:1058E0001682E0916B07F0916C0780850E9432264A
:1058F000E0916B07F0916C07858D968D892B91F166
:105900006085662379F18185843061F1218D328D46
:105910008091B90699272817390750F482E00E9430
:105920007421E0916B07F0916C07128E118E04C008
:10593000281B390B328F218FE0916B07F0916C0798
:105940001085818D928D892B69F4612F83E00E94EF
:105950007421E0916B07F0916C0783E08187812FC0
:105960000E943226CFEED6E000E61AEECC24DD24EB
:105970004C2D88858F3F09F489C01D82882391F1C1
:105980008985843079F12D893E898091B9069927DE
:105990002817390728F0281B390B3E8B2D8B02C0A6
:1059A0001E8A1D8A2F89388D2817390728F0281B51
:1059B000390B388F2F8B0EC06B8D7C8D8617970718
:1059C00028F4681B790B788F6F8B04C00E949E3679
:1059D000988F8F8B8F89988D892B21F48B8D9C8D3F
:1059E000988F8F8B8985833009F050C08D899E896F
:1059F000892B09F043C08F818823A1F08E818823F1
:105A000089F081E090E0A0E0B0E000905B0704C086
:105A1000880F991FAA1FBB1F0A94D2F7898B9A8BF4
:105A2000AB8BBC8B1F821E821D822F8D38A18D8D6A
:105A30009E8D2130310561F49A8F898F82E08987AC
:105A40008F89988D9E8B8D8B842F0E94AB2516C0DD
:105A50009A8F898F215030408B8D9C8DAC01249F73
:105A6000C001259F900D349F900D11249E8B8D8B2E
:105A7000988F8F8B81E090E098A38F8F8D899E897E
:105A8000009721F08017910708F48C010894C11C3D
:105A9000D11CA19653E0C516D10409F069CF0E942C
:105AA0009925E82E992787FD9095FC0125E0EE0FBA
:105AB000FF1F2A95E1F7E80FF91FE151F94F4285E1
:105AC00040936D0781E26E2D6802900111242151EF
:105AD000394F30935D0720935C07EE2091F0858D60
