:100000000C948A010C9424230C94A9010C94A9014A
:100010000C94A9010C94A9010C94A9010C94A901B8
:100020000C94A9010C9456230C94A9010C94A901D9
:100030000C94A9010C9488210C94A9010C9488219A
:100040000C94A9010C94BB210C94A9010C94A90156
:100050000C94A9010C94A9010C94A9010C94A90178
:100060000C94A9010C94A9010C94A9010C94A90168
:100070000C94A9010C94A9010C94A9010C94A90158
:100080000C94C5210C94A9010C94A9010C94A9010C
:100090000C9486100C94A9010C94A9010C94A9014C
:1000A0000C94A9010C94A9010C94A9010C94A90128
:1000B0000C94A9010C94A9010C94A9010C94A90118
:1000C0000C94A9010C94A9010C94A90177137D1338
:1000D00080138313861389138F138C139213951334
:1000E00098139E13A113A413A7139B1374137A13CD
:1000F0000D0A676F74207561727420646174613ACF
:1001000020005258207369676E616C206572726FAF
:100110007200476574205369676E616C20455252C6
:100120004F52210D0A00554E4B4F574E0046616904
:100130006C656420746F206372656174652053651B
:100140006D6170686F7265004661696C65642074EA
:100150006F20637265617465205369676E616C001E
:100160004B65726E656C2066756E6374696F6E2088
:100170006E6F7420696D706C656D656E746564007A
:1001800044657669636520447269766572204572BC
:10019000726F72005761746368646F672052657391
:1001A000746172740054696D6572204F7665726671
:1001B0006C6F7700556E68616E646C656420496E83
:1001C0007465727275707420566563746F72004C3A
:1001D0006F7720566F6C7461676500457874726143
:1001E000205461736B20737461727465642C206990
:1001F00073206E726B5F6366672E68206F6B3F00C3
:1002000049646C65206F72204B65726E656C20537B
:100210007461636B204F766572666C6F7700556E04
:100220006578706563746564205265737461727477
:10023000004475706C696361746564205461736B0C
:10024000204944005363686564756C6572204D698C
:10025000737365642057616B657570005461736BCF
:1002600020526573657276652056696F6C6174659E
:10027000640052657365727665204572726F7220F4
:10028000696E205363686564756C657200496E76AB
:10029000616C696420537461636B20506F696E7484
:1002A0006572005461736B20537461636B204F76E9
:1002B0006572666C6F7700537461636B207761734E
:1002C000206E6F7420646566696E656420617320BA
:1002D0006C6172676520656E6F7567682100293AE9
:1002E00020002A4E524B204552524F5228000D0AF0
:1002F000535441434B2044554D500D0A0045464749
:1003000065666700202B2D2E303132333435363779
:100310003839680011241FBECFEFD1E2DEBFCDBF58
:1003200012E0A0E0B2E0E8EEF1E500E00BBF02C0B1
:1003300007900D92AA3CB107D9F718E0AAECB2E0F9
:1003400001C01D92AF3EB107E1F70E94BB020C94C1
:10035000F2280C94F7211F93CF93DF9382E492E06D
:100360009093D4028093D302CEECD2E0CE0165EF1D
:1003700074E040E052E00E941A2411E018871F83C5
:1003800019871A878AE090E0A0E0B0E08B879C870D
:10039000AD87BE8780E892EBA6EEBEE08F87988B94
:1003A000A98BBA8B1B8A1C8A1D8A1E8A80E890EF53
:1003B000AAEFB2E08F8B988FA98FBA8F1B8E1C8EFD
:1003C0001D8E1E8E1F8E18A219A21AA2CE010E9487
:1003D0001F1B84E292E0909300088093FF07CAEF0E
:1003E000D7E0CE0161EF72E040E052E00E941A24B3
:1003F00082E088871F8319871A871B861C861D86C3
:100400001E8680E095E6ADECBDE18F87988BA98BC9
:10041000BA8B1B8A1C8A1D8A1E8A80E091EEA5EF8A
:10042000B5E08F8B988FA98FBA8F1B8E1C8E1D8E77
:100430001E8E1F8E18A219A21AA2CE010E941F1B87
:10044000DF91CF911F9108950E942C1900D000D008
:10045000EDB7FEB7319620E032E0ADB7BEB71296E9
:100460003C932E931197828313820E94C3260F9090
:100470000F900F900F9081E090E00E949C0F0E94DF
:10048000E31AF9CFCF92DF92EF92FF920F931F936F
:1004900000D000D081E192E0ADB7BEB712969C9338
:1004A0008E93119714961C921E9213970E94C32646
:1004B0000F900F900F900F900E942C1900D000D039
:1004C000EDB7FEB731962BE232E0ADB7BEB712966C
:1004D0003C932E931197828313820E94C3260F9020
:1004E0000F900F900F900E946910D82EBFEF8B17BE
:1004F00021F482E191E00E9473108D2D0E949E15DF
:1005000091E0E92EF12C012D112D04C0EE0CFF1C01
:10051000001F111FDA94D2F780E2D82E15C0809107
:10052000E5089091E6080E945626C82E90E00E94A9
:10053000D526E8E7CE1621F481B38D2581BB04C012
:1005400082E090E00E94B70F81E00E943D0C88237A
:1005500031F7C801B7010E94D7176E157F058007D4
:10056000910721F082E091E00E94731080EF90E00B
:100570000E947310E9CF0E94680C87E090E00E940F
:1005800040108D9A00D000D08CE392E0EDB7FEB71A
:1005900092838183148213820E94C3260F900F904E
:1005A0000F900F9081E492E00E94DC260E948D1251
:1005B00080E090E00E94B70F81E090E00E94B70FCA
:1005C00082E090E00E94D20F83E090E00E94B70F9B
:1005D00060E070E080E090E020E030E040E050E05B
:1005E0000E949C1C0E94AB010E943B1280E090E0A4
:1005F000089590E09C012B503040220F331F220FB2
:10060000331F865A9E4B820F931FF894409828E11F
:100610002EBD0DB407FEFDCF9EBD0DB407FEFDCF70
:100620008EBD0DB407FEFDCF409A78940895F894DE
:1006300040981EBC0DB407FEFDCF8EB5409A78944D
:1006400086FFF5CF0895809132080895FC01409807
:1006500089EC8EBD0DB407FEFDCF80E88EBD0DB4D4
:1006600007FEFDCF82E08150DF01A80FB11D9C91F4
:100670009EBD0DB407FEFDCF8823A9F7409A409890
:100680008BEC8EBD0DB407FEFDCF80E88EBD0DB4A2
:1006900007FEFDCF82E08150DF01A80FB11D129649
:1006A0009C9112979EBD0DB407FEFDCF882399F74C
:1006B000409A8081809333088181809334088281BD
:1006C000809335088381809336080895409889E1A6
:1006D0008EBD0DB407FEFDCF83E08EBD0DB407FEC9
:1006E000FDCF86E08EBD0DB407FEFDCF409A409849
:1006F0008AE18EBD0DB407FEFDCF8EE08EBD0DB438
:1007000007FEFDCF8EE08EBD0DB407FEFDCF409AF3
:1007100081E0809323080895409889E18EBD0DB44F
:1007200007FEFDCF81E08EBD0DB407FEFDCF84EC4A
:100730008EBD0DB407FEFDCF409A10922308089598
:100740008091210890912208089590E08F71907017
:10075000806E906A409825E12EBD0DB407FEFDCF56
:100760009EBD0DB407FEFDCF8EBD0DB407FEFDCFBF
:10077000409A08958091240890912508986090935C
:10078000250880932408409821E12EBD0DB407FE72
:10079000FDCF9EBD0DB407FEFDCF8EBD0DB407FE8F
:1007A000FDCF409A08958091240890912508977F65
:1007B0009093250880932408409821E12EBD0DB424
:1007C00007FEFDCF9EBD0DB407FEFDCF8EBD0DB45F
:1007D00007FEFDCF409A089581E080933108809113
:1007E000240890912508806190932508809324081F
:1007F000409821E12EBD0DB407FEFDCF9EBD0DB486
:1008000007FEFDCF8EBD0DB407FEFDCF409A0895C3
:100810001092310880912408909125088F7E909342
:10082000250880932408409821E12EBD0DB407FED1
:10083000FDCF9EBD0DB407FEFDCF8EBD0DB407FEEE
:10084000FDCF409A089581E080932E08409883E080
:100850008EBD0DB407FEFDCF409A409888E08EBD56
:100860000DB407FEFDCF409A10923708089581E03D
:1008700080932E08409883E08EBD0DB407FEFDCF17
:10088000409A409888E08EBD0DB407FEFDCF409A97
:1008900010923708089510922E08409886E08EBD79
:1008A0000DB407FEFDCF409A10923708089589B124
:1008B00090E026E0969587952A95E1F78170089556
:1008C0008CB1881F8827881F089589B190E036E091
:1008D000969587953A95E1F781700895DF93CF93C8
:1008E00000D000D00F92CDB7DEB7679902C080E08C
:1008F0000DC210923208679B1EC031991CC04098EF
:100900008FE78EBD0DB407FEFDCF1EBC0DB407FEF4
:10091000FDCF8EB5409A409888E08EBD0DB407FE9D
:10092000FDCF409A409888E08EBD0DB407FEFDCF04
:10093000409A8FEFEBC140989FE79EBD0DB407FE34
:10094000FDCF1EBC0DB407FEFDCF9EB5409A9F772C
:10095000E1F440988FE78EBD0DB407FEFDCF1EBCBD
:100960000DB407FEFDCF8EB5409A409888E08EBD4D
:100970000DB407FEFDCF409A409888E08EBD0DB4BF
:1009800007FEFDCF409A8EEFC1C195308CF0E0910B
:100990002608F0912708292F332727FD30952B5063
:1009A00030404481552747FD509542175307ACF519
:1009B00040988FE78EBD0DB407FEFDCF80E0292F54
:1009C000332727FD309505C01EBC0DB407FEFDCFB3
:1009D0008F5F482F50E04217530714F43199F4CF3A
:1009E000409A40988FE78EBD0DB407FEFDCF1EBC28
:1009F0000DB407FEFDCF8EB5409A409888E08EBDBD
:100A00000DB407FEFDCF409A409888E08EBD0DB42E
:100A100007FEFDCF409A8DEF79C1E0912608F09155
:100A200027089C509383882371F0E0912608F09169
:100A300027088381992787FD909570E0861797078F
:100A400011F08AEF63C140988FE78EBD0DB407FEA9
:100A5000FDCFFE013296CF0102961EBC0DB407FEFB
:100A6000FDCF2EB52193E817F907B9F7409AE09129
:100A70002608F09127088A819B8145E09695879505
:100A80004A95E1F78170878340988FE78EBD0DB45A
:100A900007FEFDCF1EBC0DB407FEFDCFE09126087A
:100AA000F09127088EB58083409A40988FE78EBDDD
:100AB0000DB407FEFDCF80E007C01EBC0DB407FEDD
:100AC000FDCF8F5F843011F03199F7CF409A409875
:100AD0008FE78EBD0DB407FEFDCF80E090E01EBC19
:100AE0000DB407FEFDCFE0912608F09127082EB542
:100AF000E80FF91F218301968230910581F7409A12
:100B00008A8183FF56C040988FE78EBD0DB407FEE3
:100B1000FDCFEDE1F8E01EBC0DB407FEFDCF8EB5B4
:100B2000819388E0E132F807B1F7409A409889E96B
:100B30008EBD0DB407FEFDCF80E88EBD0DB407FE5F
:100B4000FDCF82E08150E82FF0E0E35EF74F908127
:100B50009EBD0DB407FEFDCF8823A1F7409A4098B3
:100B60008BE98EBD0DB407FEFDCF80E88EBD0DB4C0
:100B700007FEFDCF82E08150E82FF0E0E15EF74F05
:100B800090819EBD0DB407FEFDCF8823A1F7409A4A
:100B900040988CE08EBD0DB407FEFDCF409A81E0F9
:100BA00080933208E0912608F091270883818450D1
:100BB000838340988FE78EBD0DB407FEFDCF80E0A4
:100BC00010C01EBC0DB407FEFDCFE0912608F091C9
:100BD00027089EB50580F681E02DE80FF11D908372
:100BE0008F5FE0912608F0912708482F50E023817D
:100BF000332727FD3095421753071CF3409A40983E
:100C00008FE78EBD0DB407FEFDCF1EBC0DB407FEF1
:100C1000FDCF8EB5409A40989FE79EBD0DB407FE6C
:100C2000FDCF8983FE013496CE0106961EBC0DB41D
:100C300007FEFDCF2EB52193E817F907B9F7409AC3
:100C4000E0912608F09127088C81808790E080E071
:100C50000CC0E0912608F09127080580F681E02D70
:100C6000E20FF31F2081820F9F5FE0912608F09131
:100C70002708292F30E04381552747FD5095241739
:100C800035073CF399818917E1F040988FE78EBDD5
:100C90000DB407FEFDCF1EBC0DB407FEFDCF8EB513
:100CA000409A409888E08EBD0DB407FEFDCF409A73
:100CB000409888E08EBD0DB407FEFDCF409A8CEFC2
:100CC00025C08D8187FF07C0809137088F5F809393
:100CD000370881E01BC040988FE78EBD0DB407FE3A
:100CE000FDCF1EBC0DB407FEFDCF8EB5409A4098D7
:100CF00088E08EBD0DB407FEFDCF409A409888E095
:100D00008EBD0DB407FEFDCF409A8BEF0F900F9074
:100D10000F900F900F90CF91DF9108958091370839
:100D2000882321F080913708109237080895409861
:100D300088E08EBD0DB407FEFDCF409A409888E054
:100D40008EBD0DB407FEFDCF409A0895992787FD0B
:100D50009095982F88278068409823E12EBD0DB488
:100D600007FEFDCF9EBD0DB407FEFDCF8EBD0DB4B9
:100D700007FEFDCF409A0895409886E08EBD0DB4E1
:100D800007FEFDCF409A409882E18EBD0DB407FE6C
:100D9000FDCF85E08EBD0DB407FEFDCF88E08EBD92
:100DA0000DB407FEFDCF409A40988EE28EBD0DB483
:100DB00007FEFDCF88E18EBD0DB407FEFDCF1EBC42
:100DC0000DB407FEFDCF409A0E9497060895409803
:100DD00086E08EBD0DB407FEFDCF409A409882E1BB
:100DE0008EBD0DB407FEFDCF85E08EBD0DB407FEB0
:100DF000FDCF1EBC0DB407FEFDCF409A40988EE299
:100E00008EBD0DB407FEFDCF1EBC0DB407FEFDCF99
:100E10001EBC0DB407FEFDCF409A0E9497060895B0
:100E2000409884E08EBD0DB407FEFDCF409A089532
:100E3000409886E08EBD0DB407FEFDCF409A089520
:100E4000FF920F931F93DF93CF9300D000D0CDB7C5
:100E5000DEB7FC0180912308882339F040989DE09B
:100E60009EBD0DB407FEFDCF409A1A829281492F94
:100E7000552747FD509520E009C0A381B481A60FF6
:100E8000B71F3A816C91360F3A832F5F622F70E063
:100E90006417750794F3292F245F2983882311F0A1
:100EA000905F99836799FECF4E99FCCFF894409854
:100EB00099E09EBD0DB407FEFDCF409A409899E0A1
:100EC0009EBD0DB407FEFDCF409A40989EE39EBDA7
:100ED0000DB407FEFDCF99819EBD0DB407FEFDCF79
:100EE000409A21E438E83C832B8390913108992380
:100EF00021F021E638E83C832B83882329F02B81DD
:100F00003C8128603C832B8340989EE39EBD0DB4BA
:100F100007FEFDCFDE0113969E012B5F3F4F9C9194
:100F20009EBD0DB407FEFDCF1196A217B307B9F70A
:100F3000409A40989EE39EBD0DB407FEFDCF909170
:100F400028089EBD0DB407FEFDCF409A40989EE351
:100F50009EBD0DB407FEFDCF20E030E0D901AA5DB3
:100F6000B74F14969C9114979EBD0DB407FEFDCF0C
:100F70002F5F3F4F2230310589F7409A40989EE31A
:100F80009EBD0DB407FEFDCFDF019F012E5F3F4FD9
:100F90009C919EBD0DB407FEFDCF1196A217B3071D
:100FA000B9F7409A40989EE39EBD0DB407FEFDCF71
:100FB00020E030E0D901AA5DB74F16969C911697B4
:100FC0009EBD0DB407FEFDCF2F5F3F4F2230310590
:100FD00089F7409A882399F040988EE38EBD0DB42E
:100FE00007FEFDCFA3E3B8E08C918EBD0DB407FEE4
:100FF000FDCF119688E0A733B807B1F7409A409823
:101000008EE38EBD0DB407FEFDCF80E00AC0A38144
:10101000B481A20FB31F9C919EBD0DB407FEFDCFFE
:101020008F5F282F30E0241735078CF3409A4098C3
:101030008EE38EBD0DB407FEFDCF8A818EBD0DB44B
:1010400007FEFDCF409A85818823B1F180912E085B
:10105000882339F4409883E08EBD0DB407FEFDCFA0
:10106000409A40981EBC0DB407FEFDCF8EB5409A45
:1010700081FFF7CF10E005E040980EBD0DB407FEEC
:10108000FDCF409A40981EBC0DB407FEFDCFFEB4C4
:10109000409A1F5F153649F4789480912108909109
:1010A00022080E941B1680E048C084E690E00E945F
:1010B000D810F3FEE1CF07C0409884E08EBD0DB498
:1010C00007FEFDCF409A78944E9BFECF4E99FECFFF
:1010D00080913108882391F084EA92E00E94D81030
:1010E000319B0EC040988FE78EBD0DB407FEFDCF3B
:1010F0001EBC0DB407FEFDCF8EB5409A81E00FC037
:10110000409888E08EBD0DB407FEFDCF409A409810
:1011100088E08EBD0DB407FEFDCF409A80E0F894C4
:10112000409896E09EBD0DB407FEFDCF409A78949E
:10113000909128089F5F909328080F900F900F9030
:101140000F90CF91DF911F910F91FF900895AF9273
:10115000BF92CF92DF92EF92FF920F931F93DF9394
:10116000CF9300D000D00F92CDB7DEB78C017B01BA
:101170005A0169010E948521409888E08EBD0DB416
:1011800007FEFDCF409A409888E08EBD0DB407FE63
:10119000FDCF409A6799FECF4E99FCCFF8944098C6
:1011A00089E08EBD0DB407FEFDCF409A409889E0DE
:1011B0008EBD0DB407FEFDCF409A1A82D80112965B
:1011C0002C911297622F772767FD709580E00CC0F5
:1011D000D8011396ED91FC911497E40FF51F9A81B5
:1011E0003081930F9A838F5F482F50E0461757073F
:1011F0007CF3822F845F898340989EE39EBD0DB46B
:1012000007FEFDCF8EBD0DB407FEFDCF409AF8015D
:101210008681882319F481E498E802C081E698E881
:101220009C838B8340988EE38EBD0DB407FEFDCF6B
:10123000FE013396CE01059620812EBD0DB407FE2A
:10124000FDCF3196E817F907B9F7409A40988EE339
:101250008EBD0DB407FEFDCF809128088EBD0DB464
:1012600007FEFDCF409A40988EE38EBD0DB407FE79
:10127000FDCF80E090E0FC01EA5DF74F24812EBDB8
:101280000DB407FEFDCF019682309105A1F7409A7B
:1012900040988EE38EBD0DB407FEFDCFF801C80166
:1012A000029620812EBD0DB407FEFDCF3196E817C2
:1012B000F907B9F7409A40988EE38EBD0DB407FE4A
:1012C000FDCF80E090E0FC01EA5DF74F26812EBD66
:1012D0000DB407FEFDCF019682309105A1F7409A2B
:1012E000C701B5010E94A220D80115968C911597CF
:1012F000882381F180912E08882339F4409883E077
:101300008EBD0DB407FEFDCF409A20E065E0E62ECD
:101310004098EEBC0DB407FEFDCF409A40981EBC2D
:101320000DB407FEFDCFAEB4409A2F5F253649F4C9
:10133000789480912108909122080E941B1680E0E9
:1013400072C084E690E02D830E94D8102D81A3FE08
:10135000DFCF07C0409884E08EBD0DB407FEFDCFFF
:10136000409A40988EE38EBD0DB407FEFDCFF80184
:101370004281552747FD509580E00DC0D801139656
:10138000ED91FC911497E20FF31F90819EBD0DB477
:1013900007FEFDCF8F5F282F30E02417350774F349
:1013A000409A40988EE38EBD0DB407FEFDCF8A8132
:1013B0008EBD0DB407FEFDCF409A4E9BFECF8091AF
:1013C000840090918500F60191838083F8944E9972
:1013D000FECF409888E08EBD0DB407FEFDCF409A49
:1013E000409888E08EBD0DB407FEFDCF409A40982E
:1013F00089E08EBD0DB407FEFDCF409A409889E08C
:101400008EBD0DB407FEFDCF409A409886E08EBD9C
:101410000DB407FEFDCF409A7894809128088F5F25
:101420008093280881E00F900F900F900F900F90FD
:10143000CF91DF911F910F91FF90EF90DF90CF90B0
:10144000BF90AF900895DF93CF9300D0CDB7DEB7B4
:101450009A83898390932D0880932C0884EF91E0E0
:101460000E94572040988AEE8EBD0DB407FEFDCF36
:1014700080E88EBD0DB407FEFDCFFE013196CE0192
:10148000039620812EBD0DB407FEFDCF3196E817DF
:10149000F907B9F7409A84EF91E00E9457200F9026
:1014A0000F90CF91DF9108958F929F92AF92BF924C
:1014B000CF92DF92EF92FF920F931F93DF93CF9320
:1014C00000D000D0CDB7DEB7E82E092F84E690E03B
:1014D0000E945720CE2CD02E20E031E08E010F5FED
:1014E0001F4FA3E0AA2EB12CAC0EBD1EF6019080BA
:1014F0008824818190E0882999299A83898384E6C8
:1015000090E02B833C830E94572040982B813C81A4
:10151000822F80688EBD0DB407FEFDCFC901959561
:101520008795807C8EBD0DB407FEFDCF7801F80154
:1015300080818EBD0DB407FEFDCF3196EA15FB0507
:10154000B9F7409A0894C11CD11C2E5F3F4FF1E0BF
:1015500020313F0759F684E690E00E94572020E4AE
:1015600031E080E191E01A8219824098422F406870
:101570004EBD0DB407FEFDCFA90155954795407CA2
:101580004EBD0DB407FEFDCFF80140814EBD0DB438
:1015900007FEFDCF3196EA15FB05B9F7409A409852
:1015A000482F40684EBD0DB407FEFDCFAC015595E8
:1015B0004795407C4EBD0DB407FEFDCFF80140813C
:1015C0004EBD0DB407FEFDCF3196EA15FB05B9F708
:1015D000409A02962E5F3F4F41E08E31940719F6F4
:1015E00081E090E09A83898340988EEC8EBD0DB4A3
:1015F00007FEFDCF80E88EBD0DB407FEFDCFC8010C
:101600000296F80120812EBD0DB407FEFDCF319664
:10161000E817F907B9F7409A40988EE98EBD0DB4E6
:1016200007FEFDCF80E88EBD0DB407FEFDCF0E5F37
:101630001F4FF70180818EBD0DB407FEFDCF0894CA
:10164000E11CF11CE016F106A1F7409A0F900F90F3
:101650000F900F90CF91DF911F910F91FF90EF901E
:10166000DF90CF90BF90AF909F908F900895CF93D1
:10167000DF93EC01862F409898E09EBD0DB407FEE5
:10168000FDCF409A409898E09EBD0DB407FEFDCF77
:10169000409A0E94F902D0932708C0932608DF9150
:1016A000CF9108950E94F9020895CF92DF92FF92A0
:1016B0000F931F93DF93CF9300D0CDB7DEB78C018C
:1016C000F62E5A8349836901159A88EE93E00E94A9
:1016D000D810169881E090E00E94D810169A84E6FF
:1016E00090E00E94D810F894409881E08EBD0DB42F
:1016F00007FEFDCF409A82EE92E0909325088093FA
:101700002408409881E18EBD0DB407FEFDCF82E034
:101710008EBD0DB407FEFDCF82EE8EBD0DB407FE6B
:10172000FDCF409A409882E18EBD0DB407FEFDCFFB
:1017300085E08EBD0DB407FEFDCF1EBC0DB407FEC7
:10174000FDCF409A40988CE18EBD0DB407FEFDCFD1
:101750001EBC0DB407FEFDCF8FE78EBD0DB407FE96
:10176000FDCF409A409889E18EBD0DB407FEFDCFB4
:1017700081E08EBD0DB407FEFDCF84EC8EBD0DB4AF
:1017800007FEFDCF409A409887E18EBD0DB407FE5D
:10179000FDCF8AE18EBD0DB407FEFDCF86E58EBD7F
:1017A0000DB407FEFDCF409A84EF91E00E945720D0
:1017B000409888EE8EBD0DB407FEFDCF80E88EBD4B
:1017C0000DB407FEFDCFFE013196CE0103962081B8
:1017D0002EBD0DB407FEFDCF3196E817F907B9F716
:1017E000409A84EF91E00E94572078948F2D0E94B8
:1017F000F9027894109327080093260889819A812A
:1018000090932B0880932A08D0922D08C0922C0820
:101810001092280810922E080E9417031092310887
:1018200010922308109232080F900F90CF91DF9101
:101830001F910F91FF90DF90CF90089590914A08EB
:1018400080913808981769F0E92FF0E0E75CF74FCE
:1018500080819F5F90934A08903171F410924A08FA
:1018600008958091C80087FFFCCF8091C8008F77D2
:101870008093C8008091CE000895882331F4809130
:10188000C000881F8827881F0895813011F080E0EC
:10189000089580E020914A0890913808291381E04A
:1018A000089585B7806185BF86E084B987E085B9F2
:1018B00081E087B988B98CE38DB98BE08AB98EE372
:1018C0008EB988E781B980E482B98FEF80BB089533
:1018D0000E94510C80E58CBD81E08DBD08958F3F45
:1018E00009F471C0282F30E02770307022303105A4
:1018F00089F12330310544F42115310589F0213077
:10190000310509F060C01AC02430310509F43EC029
:10191000243031056CF12530310509F054C044C044
:1019200092B186958695869541E050E002C0440FBD
:10193000551F8A95E2F7942B92B943C095B18695CD
:101940008695869502C0220F331F8A95E2F7922B67
:1019500095B937C098B186958695869541E050E057
:1019600002C0440F551F8A95E2F7942B98B929C0FD
:101970009BB186958695869541E050E002C0440F64
:10198000551F8A95E2F7942B9BB91BC09EB1869593
:101990008695869541E050E002C0440F551F8A9518
:1019A000E2F7942B9EB90DC091B3869586958695E6
:1019B00041E050E002C0440F551F8A95E2F7942B96
:1019C00091BB81E008958FEF08958F3F09F47CC0AB
:1019D000282F30E02770307022303105A1F12330FC
:1019E000310544F42115310589F02130310509F024
:1019F0006BC01CC02430310509F445C024303105CA
:101A000094F12530310509F05FC04DC032B1282F67
:101A100026952695269581E090E002C0880F991FB3
:101A20002A95E2F78095832382B94CC095B18695BB
:101A30008695869502C0220F331F8A95E2F720957E
:101A4000292325B93FC038B1282F269526952695FC
:101A500081E090E002C0880F991F2A95E2F78095F7
:101A6000832388B92FC03BB1282F2695269526952C
:101A700081E090E002C0880F991F2A95E2F78095D7
:101A800083238BB91FC03EB1282F26952695269516
:101A900081E090E002C0880F991F2A95E2F78095B7
:101AA00083238EB90FC031B3282F2695269526950E
:101AB00081E090E002C0880F991F2A95E2F7809597
:101AC000832381BB81E008958FEF08958F3F91F1CB
:101AD000282F30E02770307022303105C1F02330DC
:101AE00031053CF42115310571F02130310511F536
:101AF0000CC02430310579F02430310554F0253004
:101B00003105C1F40AC020B109C023B107C026B114
:101B100005C029B103C02CB101C02FB130E08695BA
:101B20008695869502C0359527958A95E2F7822F8E
:101B3000817008958FEF08958F3F09F4F5C0282F25
:101B400030E0277030702230310509F458C023305E
:101B5000310544F42115310591F02130310509F0AA
:101B6000E3C032C02430310509F493C0243031057C
:101B70000CF46AC02530310509F0D6C0AFC090B171
:101B8000869586958695282F892F90E0022E02C093
:101B9000959587950A94E2F780FD0AC082B141E0ED
:101BA00050E002C0440F551F2A95E2F7842B0AC06B
:101BB00032B181E090E002C0880F991F2A95E2F7C8
:101BC0008095832382B9AEC043B18695869586956C
:101BD00050E0082E02C0559547950A94E2F702C0DE
:101BE000220F331F8A95E2F740FD04C095B1922B76
:101BF00095B998C085B12095282325B993C096B191
:101C0000869586958695282F892F90E0022E02C012
:101C1000959587950A94E2F780FD0AC088B141E066
:101C200050E002C0440F551F2A95E2F7842B0AC0EA
:101C300038B181E090E002C0880F991F2A95E2F741
:101C40008095832388B96EC099B1869586958695CF
:101C5000282F892F90E0022E02C0959587950A942F
:101C6000E2F780FD0AC08BB141E050E002C0440FB2
:101C7000551F2A95E2F7842B0AC03BB181E090E022
:101C800002C0880F991F2A95E2F7809583238BB9AC
:101C900049C09CB1869586958695282F892F90E01E
:101CA000022E02C0959587950A94E2F780FD0AC03E
:101CB0008EB141E050E002C0440F551F2A95E2F773
:101CC000842B0AC03EB181E090E002C0880F991FCA
:101CD0002A95E2F7809583238EB924C09FB186951B
:101CE00086958695282F892F90E0022E02C0959523
:101CF00087950A94E2F780FD0AC081B341E050E085
:101D000002C0440F551F2A95E2F7842B0AC031B355
:101D100081E090E002C0880F991F2A95E2F7809534
:101D2000832381BB81E008958FEF08958F3F09F4ED
:101D3000F7C0282F30E0662309F083C02770307089
:101D400022303105D9F12330310544F42115310514
:101D500089F02130310509F0E3C01FC0243031057E
:101D600009F44CC024303105CCF12530310509F09F
:101D7000D7C054C091B186958695869521E030E014
:101D800002C0220F331F8A95E2F7822F80958923A4
:101D900081B982B1822B82B9C1C044B18695869542
:101DA000869502C0220F331F8A95E2F7922F9095F5
:101DB000942394B995B1922B95B9B0C097B18695FB
:101DC0008695869521E030E002C0220F331F8A9568
:101DD000E2F7822F8095892387B92FC09AB1869523
:101DE0008695869521E030E002C0220F331F8A9548
:101DF000E2F7822F809589238AB91FC09DB186950D
:101E00008695869521E030E002C0220F331F8A9527
:101E1000E2F7822F809589238DB90FC090B3869504
:101E20008695869521E030E002C0220F331F8A9507
:101E3000E2F7822F8095892380BB85B1822B85B9FB
:101E40006DC0277030702230310589F123303105A3
:101E500044F42115310589F02130310509F060C0C5
:101E60001AC02430310509F43EC0243031056CF12C
:101E70002530310509F054C044C091B1869586954E
:101E8000869521E030E002C0220F331F8A95E2F7E9
:101E9000922B91B943C094B186958695869502C0E0
:101EA000220F331F8A95E2F7922B94B937C097B16E
:101EB00086958695869521E030E002C0220F331F7B
:101EC0008A95E2F7922B97B929C09AB186958695A3
:101ED000869521E030E002C0220F331F8A95E2F799
:101EE000922B9AB91BC09DB186958695869521E067
:101EF00030E002C0220F331F8A95E2F7922B9DB982
:101F00000DC090B386958695869521E030E002C09D
:101F1000220F331F8A95E2F7922B90BB81E0089540
:101F20008FEF0895882311F08FEF089580B1809589
:101F3000881F8827881F0895009711F484E109C03D
:101F40008130910511F48CE104C08230910529F4AF
:101F500084E20E949C0D81E008958330910511F088
:101F60008FEF08958CE20E949C0D81E00895009708
:101F700011F484E109C08130910511F48CE104C0B1
:101F80008230910529F484E20E946F0C81E008956B
:101F90008330910511F08FEF08958CE20E946F0C51
:101FA00081E00895009711F484E109C08130910522
:101FB00011F48CE104C08230910529F484E20E947E
:101FC000E50C81E008958330910511F08FEF0895BD
:101FD0008CE20E94E50C81E00895882319F085B712
:101FE0008F7E02C085B7806185BF81E008959091A2
:101FF000C00095FFFCCF9091C0009F7D9093C000E2
:102000008093C60008959091C80095FFFCCF8093FF
:10201000CE0008959093C5008093C40086E080931D
:10202000C200E1ECF0E080818B7F8083A0ECB0E027
:102030008C9182608C9380818861808308959093D5
:10204000CD008093CC0086E08093CA00E9ECF0E0FC
:1020500080818B7F8083A8ECB0E08C9182608C9330
:1020600080818861808308958091C00087FFFCCFC4
:102070008091C0008F778093C0008091C600089542
:102080000E941F1083E090E16EE17CE00E940A262E
:102090009093E8088093E70883E090E16EE17CE0AC
:1020A0000E940A269093E6088093E5080E94131583
:1020B000809349088F3F19F48EE00E94E613109236
:1020C0004A08109238088091C90080688093C9003E
:1020D0000895809149088F3F19F48EE00E94E6131D
:1020E000809149080895CF93DF93EC0107C0609178
:1020F000E7087091E80890E00E949726FE0121967B
:1021000084918823A1F7DF91CF9108951F920F92B8
:102110000FB60F920BB60F9211242F933F934F934C
:102120005F936F937F938F939F93AF93BF93EF933F
:10213000FF938091C9008F778093C9008091C80078
:1021400087FFFCCF8091C8008F778093C800909163
:10215000CE0080913808E82FF0E0E75CF74F9083DD
:102160008F5F80933808803111F410923808809185
:1021700049080E947D168091C8008F778093C8001F
:102180008091C90080688093C900FF91EF91BF9151
:10219000AF919F918F917F916F915F914F913F91FF
:1021A0002F910F900BBE0F900FBE0F901F901895A0
:1021B00000000000000000000197D1F70895FC0125
:1021C00087E090E060810E947D2781E008950F9371
:1021D0001F93CF93DF93082F192FC8E0D0E0CE01D3
:1021E000F80161918F010E947D272196C831D105A8
:1021F000B1F781E0DF91CF911F910F910895FC011C
:1022000086E090E060810E947D2781E008950E9431
:102210007D270895CF93DF93EC0187E090E00E9443
:102220007527888381E0DF91CF9108950F931F93E5
:10223000CF93DF93082F192FC8E0D0E0CE010E9482
:102240007527F80181938F012196C831D105B1F727
:1022500081E0DF91CF911F910F910895CF93DF938C
:10226000EC0186E090E00E947527888381E0DF9191
:10227000CF910895CF93DF93EC0185E090E00E9429
:102280007527888381E0DF91CF910895EF92FF92C7
:102290000F931F93CF93DF93E82EE7017E01F92E72
:1022A000E70180E090E00E947527082F8B8381E092
:1022B00090E00E947527E82E8A8382E090E00E94D9
:1022C0007527F82E898383E090E00E947527182FE8
:1022D000888384E090E00E947527FE0CF00EF10EDA
:1022E0008F1511F08FEF01C081E0DF91CF911F9129
:1022F0000F91FF90EF9008950E9475270895F8942C
:10230000089578940895F894FFCF85E690E00895B5
:102310000E94631E0895CF92DF92EF92FF920F9377
:102320001F93CF93DF93EC016B017A018985823093
:1023300021F08091B508888301C018828091B5088A
:10234000833020F087E060E00E94DF1389858230CF
:1023500029F08091B5088F5F8093B5088091B5080A
:10236000882319F481E08093B5088881282F3327CA
:1023700027FD3095890155E0000F111F5A95E1F7AF
:10238000020F131F035B174FF801D182C08298859B
:10239000928793E09187808715822B853C854D85B8
:1023A0005E856F85788989899A890E94AD1CF801BC
:1023B000948F838F0881112707FD10952B8D3C8DFD
:1023C0004D8D5E8D6F8D78A189A19AA10E94AD1C63
:1023D000F80145E0EE0FFF1F4A95E1F7E00FF11F0E
:1023E000E35BF74F968B858B8881992787FD9095C6
:1023F0008C0135E0000F111F3A95E1F7080F191F06
:10240000035B174FF80185899689238D348D820FE0
:10241000931F908F878B2B893C894D895E896F89AB
:10242000788D898D9A8D0E94AD1CF801968F858FCD
:102430008881992787FD9095FC0125E0EE0FFF1F0D
:102440002A95E1F7E80FF91FE35BF74F858D968D2D
:10245000928F818F81E090E090A3878FF382E28258
:1024600081E08487DF91CF911F910F91FF90EF90D2
:10247000DF90CF900895DF92EF92FF920F931F931A
:10248000CF93DF93C5E5D8E010E0D8808FEFD81662
:10249000B1F075E5E72E78E0F72E00E0101741F077
:1024A000F7018081D81621F485E06D2D0E94DF139D
:1024B0000F5F81E290E0E80EF91E033079F71F5FAD
:1024C000A196133011F70E941318282F332727FDE8
:1024D0003095F90165E0EE0FFF1F6A95E1F7E20F15
:1024E000F31FE35BF74F22852093C80891E289022E
:1024F000C0011124835B974F9093C7088093C6084F
:102500009093B8088093B7082093B9080E941524C7
:102510000E94FF230E943924FFCF0F931F93DF9364
:10252000CF93CDB7DEB7A3970FB6F894DEBF0FBE3B
:10253000CDBF0E9413158093B6088F3F21F48EE023
:1025400060E00E94DF130E948823882321F486E044
:1025500060E00E94DF131092B9081092C708109231
:10256000C6081092B8081092B7081092C8081092C6
:10257000C5088FEF8093B2088093B4088093B308A6
:1025800093E690935708809355089093780880932A
:1025900076089093990880939708E9ECF8E0CF01CA
:1025A000059694838383F783E683FC0188E0E83D06
:1025B000F807A9F71092CB081092CA081092DC080D
:1025C0001092DB081092BC081092BB083F97F09362
:1025D0004C08E0934B088E010F5F1F4FC80168E461
:1025E0007EE10E94D023C8016AEF76E040E051E02E
:1025F0000E941A2485E58093FA0619861C8E1D8E8A
:102600001E8E1F8E18A219A21AA21BA281E0888713
:1026100092E09A878B87C8010E941F1BA3960FB672
:10262000F894DEBF0FBECDBFCF91DF911F910F9108
:102630000895E091C608F091C70884870895E09155
:10264000C608F091C708848508952091F9062223D1
:1026500011F480E00895FB0120832091CC02FC015D
:10266000208381E008951F938091F906882311F457
:102670001F9108950E947F110E947F1182EE92E0C7
:102680000E94731000D000D0EDB7FEB7319682E7FC
:1026900092E0ADB7BEB712969C938E93119780913E
:1026A000CC02828313820E94C3260F900F900F905A
:1026B0000F908EED92E00E9473108091F9068431A4
:1026C00010F01092F906E091F9068E2F90E0FC01CF
:1026D0003197E231F105F0F5EA59FF4FEE0FFF1F98
:1026E0000590F491E02D099487EB92E035C083EAE0
:1026F00092E032C08DE892E02FC082E792E02CC0D9
:102700008CE592E029C084E492E026C081E392E067
:1027100023C08EE192E020C080E092E01DC08BEDEE
:1027200091E01AC08FEC91E017C084EB91E014C0E7
:1027300085EA91E011C084E991E00EC080E891E063
:102740000BC080E691E008C088E491E005C08DE20E
:1027500091E002C086E291E00E9473106091E70868
:102760007091E8088DE090E00E9497266091E7085C
:102770007091E8088AE090E00E94972682E090E05D
:102780000E94D20F83E090E00E94B70F10E088EE25
:1027900093E00E9457201F5F1436C9F783E090E052
:1027A0000E94D20F82E090E00E94B70F10E088EE06
:1027B00093E00E9457201F5F1436C9F7DFCF809344
:1027C000F9066093CC020E94331308958093F906B2
:1027D000E091C608F091C70880858093CC020E94E2
:1027E00033130895992787FD9095FC0125E0EE0F9E
:1027F000FF1F2A95E1F7E80FF91FE35BF74FA2816E
:10280000B3818C91853521F085E58C938FEF089508
:102810008081918122E28030920710F481E0089556
:1028200082E10E94E6138FEF08956F927F928F925C
:102830009F92AF92BF92CF92DF92EF92FF920F934F
:102840001F93CF93DF938EEE92E00E94731000D01F
:1028500000D085E792E0ADB7BEB712969C938E93F9
:102860001197E091C608F091C7088085992787FDE8
:10287000909514969C938E9313970E94C326E09193
:10288000C608F091C708C281D3818EE792E0EDB708
:10289000FEB792838183D483C3830E94C326EDB79E
:1028A000FEB731966BE8A62E62E0B62EADB7BEB786
:1028B0001296BC92AE9211978881828313820E94F5
:1028C000C32658E9C52E52E0D52EEDB7FEB7D28209
:1028D000C182E091C608F091C70880819181ADB7AF
:1028E000BEB714969C938E9313970E94C32642EA18
:1028F000E42E42E0F42EEDB7FEB7F282E182809141
:10290000C6089091C708948383830E94C326CDE4B0
:10291000D8E000E010E00F900F900F900F9032EB96
:10292000832E32E0932E3501BC2CAE2CCF2CEA80C6
:10293000FB8000D000D000D0EDB7FEB73196ADB728
:10294000BEB712969C928E92119713830283F582E2
:10295000E4820E94C3260F900F90EDB7FEB7319628
:10296000ADB7BEB711966C92119712967C92D701B3
:102970008C91828313820E94C326EDB7FEB7B18289
:10298000D28288819981948383830E94C326ADB7C4
:10299000BEB71196AC9211971296CC9212971496DC
:1029A000DC93CE9313970E94C3260F5F1F4FA1960F
:1029B0000F900F900F900F900330110509F0B7CFD3
:1029C000DF91CF911F910F91FF90EF90DF90CF900B
:1029D000BF90AF909F908F907F906F900895CF930E
:1029E000DF93E091C608F091C708C281D381888146
:1029F000853539F00E94151481E00E94E61385E5C3
:102A00008883E091C608F091C7088081918122E215
:102A10008030920728F00E94151482E10E94E6138C
:102A2000DF91CF910895EF92FF920F931F93E09063
:102A3000F104F090F2040091F3041091F40480E0AA
:102A400090E0A8019701082E04C056954795379548
:102A500027950A94D2F72170307021153105C9F4F9
:102A600021E030E040E050E0082E04C0220F331F88
:102A7000441F551F0A94D2F72E293F29402B512B72
:102A80002093F1043093F2044093F3045093F40440
:102A900005C0019680329105A1F68FEF1F910F912D
:102AA000FF90EF900895E091C608F091C708658502
:102AB0007685878590890895EF92FF920F931F93F3
:102AC00021E030E040E050E004C0220F331F441FFB
:102AD000551F8A95D2F7E091C608F091C708858501
:102AE0009685A785B08979018A01E822F9220A230F
:102AF0001B23E114F1040105110511F48FEF19C036
:102B0000209530954095509582239323A423B52397
:102B100085879687A787B08B81899289A389B48995
:102B200082239323A423B523818B928BA38BB48B15
:102B300081E01F910F91FF90EF900895992787FDF5
:102B400090952091F1043091F2044091F30450915A
:102B5000F404082E04C056954795379527950A9496
:102B6000D2F7217030702115310511F48FEF0895DF
:102B7000E091C608F091C70821E030E040E050E065
:102B800004C0220F331F441F551F8A95D2F7858535
:102B90009685A785B089822B932BA42BB52B85878F
:102BA0009687A787B08B81E0089580E090E0089534
:102BB00028E0823B920711F08FEF089580E008959E
:102BC0000E94D8158F3F11F481E003C0813029F4B1
:102BD00082E00E9419138FEF0895992787FD909541
:102BE000FC01EE0FFF1FE80FF91FEE54F74F8FEFB8
:102BF0008083828381838091C50881508093C5083A
:102C000081E008950E94D8158F3F11F481E003C040
:102C1000813029F482E00E9419138FEF08959927DB
:102C200087FD9095FC01EE0FFF1FE80FF91FEE5492
:102C3000F74F82810895EF92FF920F931F93DF93D6
:102C4000CF930F92CDB7DEB70E94D8158F3F11F406
:102C500081E003C0813029F482E00E9419138FEFD4
:102C600044C0282F332727FD30958901000F111FFD
:102C7000020F131F0E54174FD80112962C91129762
:102C80009C9129178CF589830E947F11F80192810C
:102C90009F5F9283E091C608F091C7081482E4E533
:102CA000F8E08981282F332727FD3095432F532FB4
:102CB00093E08081823089F4E284F3840485158571
:102CC000E216F3060407150741F492831786168669
:102CD00010821286138614861586B19688E0E73B2B
:102CE000F80739F70E94811181E00F90CF91DF91B1
:102CF0001F910F91FF90EF900895EF92FF920F9325
:102D00001F93DF93CF930F92CDB7DEB751E0E52E3F
:102D1000F12C012D112D04C0EE0CFF1C001F111F02
:102D20008A95D2F78091F1049091F204A091F30476
:102D3000B091F4048E219F21A023B1230097A10517
:102D4000B10511F481E042C00E947F11E4E5F8E092
:102D500080E093E020812130B1F4228533854485E1
:102D600055852E213F214023512321153105410551
:102D7000510549F09283178616861082E286F38603
:102D80000487158781E02081223091F422853385E4
:102D9000448555852E153F054007510749F4928318
:102DA000178616861082128613861486158681E091
:102DB000B19628E0E73BF20769F689830E9481110A
:102DC0008981882311F081E004C082E00E941913F8
:102DD0008FEF0F90CF91DF911F910F91FF90EF90A8
:102DE0000895EF92FF920F931F93CF93DF93C82F15
:102DF000DD27C7FDD09561E0E62EF12C012D112DC8
:102E00000C2E04C0EE0CFF1C001F111F0A94D2F7F9
:102E10008091F1049091F204A091F304B091F40434
:102E20008E219F21A023B1230097A105B10511F4A4
:102E30008FEF5CC00E947F11E4E5F8E0A8019701E4
:102E4000209530954095509563E081818F3F39F111
:102E500086819781A085B1858E159F05A007B10752
:102E600031F4128613861486158610826283868159
:102E70009781A085B18582239323A423B5238683DC
:102E80009783A087B18782859385A485B5858223A2
:102E90009323A423B52382879387A487B587B1960C
:102EA00098E0E73BF90789F62EEF3FEF4FEF5FEF32
:102EB00004C0220F331F441F551FCA95D2F78091BB
:102EC000F1049091F204A091F304B091F4048223F0
:102ED0009323A423B5238093F1049093F204A09349
:102EE000F304B093F4040E94811181E0DF91CF914B
:102EF0001F910F91FF90EF9008950F931F93DF9311
:102F0000CF930F92CDB7DEB70E94D8158F3F11F443
:102F100081E003C0813029F482E00E9419138FEF11
:102F200040C089830E947F118981082F112707FDE6
:102F30001095F801EE0FFF1FE00FF11FEE54F74F51
:102F400092819923B1F4E091C608F091C708978166
:102F500092609783992787FD9095A92FB92F818B30
:102F6000928BA38BB48B0E94811180E090E00E9431
:102F7000501AF801EE0FFF1FE00FF11FEE54F74F4C
:102F8000828181508283A091C608B091C708818157
:102F90001B968C931B9781E014968C930E94811151
:102FA00081E00F90CF91DF911F910F910895E091F3
:102FB000C608F091C70825853685478550892623A0
:102FC000372348235923211531054105510529F49B
:102FD00020E030E040E050E023C0618B728B838BB7
:102FE000948B21E027830090B60804C096958795BE
:102FF000779567950A94D2F76170707061157105C5
:1030000019F00E94EE1904C080E090E00E94501A6E
:10301000E091C608F091C708218932894389548913
:10302000B901CA010895E091BB08F091BC08808104
:103030000895E091BB08F091BC0803C00380F481BF
:10304000E02D3097D9F70895DF92EF92FF920F931A
:103050001F93CF93DF93E0914B08F0914C0830978A
:1030600009F499C06091BB087091BC0861157105A5
:1030700019F4A0E0B0E055C0DB01482F552747FD0B
:1030800050959A0115E0220F331F1A95E1F7240F8E
:10309000351F235B374F8901065F1F4F44E0E42E45
:1030A000F12CE20EF31E255F3F4F4C9150E0EA01F8
:1030B00095E0CC0FDD1F9A95E1F7C40FD51FC35BD8
:1030C000D74F9C81992329F0DB84E8019881D91698
:1030D00040F1E7019881992379F0EA0195E0CC0F5E
:1030E000DD1F9A95E1F7C40FD51FC35BD74FDA8474
:1030F000E9019881D916A8F0EA0195E0CC0FDD1F0F
:103100009A95E1F7C40FD51FC35BD74F4A85E801F5
:103110009881491730F013960D90BC91A02D10970F
:1031200021F68083C381D481D0934C08C0934B088F
:10313000A617B707B1F4109749F0B483A38312829E
:1031400011821296FC93EE93119706C0148213829B
:1031500012821182FA83E983F093BC08E093BB08E2
:103160001AC011968D919C911297AC17BD0759F01A
:1031700092838183B483A3831196CD91DC911297BE
:10318000FC83EB8304C014821382928381831296A2
:10319000FC93EE931197DF91CF911F910F91FF90C8
:1031A000EF90DF900895CF93DF93E091BB08F0910B
:1031B000BC08309709F44DC0482F552747FD50955E
:1031C000808190E08417950779F4A381B481B0934E
:1031D000BC08A093BB0812961C921E9211970EC0B9
:1031E000E22FF92F3097A9F1608170E0238194815B
:1031F00064177507A9F720C0BA83A983A0914B086B
:10320000B0914C08109739F4F0934C08E0934B08B8
:10321000148213820AC0B483A3831296FC93EE93A4
:103220001197F0934C08E0934B08E0914B08F09114
:103230004C08128211820DC0A181B28113962C9389
:10324000139714969C931497C381D4812097A1F669
:10325000D5CFDF91CF910895E091C608F091C708CE
:10326000808508950E94C523E091C608F091C708A3
:1032700085818823B9F70895EF92FF921F93DF931A
:10328000CF93CDB7DEB728970FB6F894DEBF0FBE49
:10329000CDBF29833A834B835C836D837E838F8389
:1032A00098870E94EF140E947F11E091C608F09168
:1032B000C70881E0858381E090E090A3878F0E941A
:1032C0008521182F29813A814B815C816D817E8116
:1032D0008F8198850E94AD1CE091C608F091C708C7
:1032E000E12EFF248E0D9F1D968B858B183F78F461
:1032F0000E941A210894E11CF11C90E0E816F906DE
:1033000034F4812F8E5F8093F8060E941E210E9464
:1033100081110E94321981E028960FB6F894DEBF21
:103320000FBECDBFCF91DF911F91FF90EF90089519
:103330008F929F92AF92BF92CF92DF92EF92FF92C5
:103340000F931F93DF93CF93CDB7DEB760970FB680
:10335000F894DEBF0FBECDBF29873A874B875C87C5
:103360006D877E878F87988BCE0101960E94F11D15
:10337000CE01099609851A852B853C854D855E858C
:103380006F85788989809A80AB80BC80CD80DE8013
:10339000EF80F8840E94741B882311F48FEF0BC018
:1033A00029853A854B855C856D857E858F859889D5
:1033B0000E943C1981E060960FB6F894DEBF0FBE04
:1033C000CDBFCF91DF911F910F91FF90EF90DF90D4
:1033D000CF90BF90AF909F908F9008951F930E94C1
:1033E0007F11E091C608F091C70881E0858386834C
:1033F0000E948521182F883F80F40E941A21212FD6
:1034000030E02F5F3F4F90E02817390734F4812FC9
:103410008E5F8093F8060E941E210E9481110E94F7
:10342000321981E01F9108951F93DF93CF93CDB799
:10343000DEB728970FB6F894DEBF0FBECDBF298345
:103440003A834B835C836D837E838F8398870E944E
:103450007F110E948521182F29813A814B815C813F
:103460006D817E818F8198850E94AD1C833091058E
:1034700010F48FEF0BC0E091C608F091C708810FE0
:10348000911D968B858B0E94811181E028960FB645
:10349000F894DEBF0FBECDBFCF91DF911F9108958D
:1034A0001F93CF93DF93EC010E947F11E091C60838
:1034B000F091C70881E08583D68BC58B0E9485215A
:1034C000182F883F80F40E941A21212F30E02F5FAF
:1034D0003F4F90E02817390734F4812F8E5F809397
:1034E000F8060E941E210E9481110E94321981E07B
:1034F000DF91CF911F910895EF92FF921F93CF9389
:10350000DF937C010E947F11E091C608F091C7080B
:1035100081E085830E948521182FE091C608F091F3
:10352000C708C82FD0E0EC0EFD1EF68AE58A883F5A
:1035300068F40E941A21219690E0C817D90734F444
:10354000812F8E5F8093F8060E941E210E948111B8
:103550000E94321981E0DF91CF911F91FF90EF908F
:1035600008951F93CF93DF93EC010E94EF142097EF
:1035700011F4C1E0D0E00E947F11E091C608F09103
:10358000C70881E08583D0A3C78F0E948521182FAB
:10359000883F80F40E941A21212F30E02F5F3F4F97
:1035A00090E02817390734F4812F8E5F8093F80656
:1035B0000E941E210E9481110E94321981E0DF9138
:1035C000CF911F9108951F930E94EF140E947F11C5
:1035D000E091C608F091C70881E090E090A3878F42
:1035E00081E085830E948521182F883F80F40E9406
:1035F0001A21212F30E02F5F3F4F90E02817390725
:1036000034F4812F8E5F8093F8060E941E210E9461
:1036100081110E94321981E01F910895E091C6083E
:10362000F091C70880850E94D318E091C608F091F8
:10363000C70884E081870E94E31A81E00895EF9231
:10364000FF920F931F93CF93DF93EC0169817A81EF
:103650004B815C818D819E810E94D423BC018F812E
:10366000882369F04B815C81CE0120E030E000E0EE
:1036700010E0EE24FF240E948B111F8215C0888168
:10368000992787FD9095FC0125E0EE0FFF1F2A95F5
:10369000E1F7E80FF91FE35BF74F8185833011F005
:1036A0008FEF1BC0718360838881282F332727FD0C
:1036B0003095F90105E0EE0FFF1F0A95E1F7E20FE3
:1036C000F31FE35BF74F258936892115310521F476
:1036D00092E091870E94241881E0DF91CF911F91A1
:1036E0000F91FF90EF9008958F929F92AF92BF92AB
:1036F000CF92DF92EF92FF920F931F93DF93CF93BE
:10370000CDB7DEB760970FB6F894DEBF0FBECDBF62
:10371000FC0109831A832B833C834D835E836F8373
:10372000788789869A86AB86BC86CD86DE86EF86CC
:10373000F88AA980BA80CB80DC802D813E814F81C0
:103740005885E984FA840B851C858D859E85AF8517
:10375000B889AE14BF04C006D10608F440C0EA140C
:10376000FB040C051D0591F4281739074A075B0770
:10377000B0F1281B390B4A0B5B0B2483358346833E
:10378000578310821182128213821EC028173907B4
:103790004A075B07D8F40894A108B108C108D1080A
:1037A000AE18BF08C00AD10AA082B182C282D382F9
:1037B000205036434546544C281B390B4A0B5B0BB3
:1037C000248335834683578381E00AC0AE18BF083F
:1037D000C00AD10AA082B182C282D382EDCF80E03A
:1037E00060960FB6F894DEBF0FBECDBFCF91DF91CC
:1037F0001F910F91FF90EF90DF90CF90BF90AF900F
:103800009F908F9008958F929F92AF92BF92CF9288
:10381000DF92EF92FF920F931F93DF93CF93CDB779
:10382000DEB760970FB6F894DEBF0FBECDBFFC01C8
:1038300009831A832B833C834D835E836F83788750
:1038400089869A86AB86BC86CD86DE86EF86F88A28
:10385000ED80FE800F8118858D859E85AF85B889A6
:1038600029853A854B855C85A980BA80CB80DC8030
:103870002A0D3B1D4C1D5D1D2083318342835383E4
:103880008E0D9F1DA01FB11F84839583A683B783D0
:1038900010C020813181428153812F5F3F4F4F4FB4
:1038A0005F4F208331834283538380509A4CAA49CF
:1038B000BB4380302AEC92072AE9A2072BE3B20728
:1038C00040F784839583A683B78381E060960FB623
:1038D000F894DEBF0FBECDBFCF91DF911F910F9146
:1038E000FF90EF90DF90CF90BF90AF909F908F9020
:1038F0000895FC0184819581A681B78110C0208143
:103900003181428153812F5F3F4F4F4F5F4F208363
:1039100031834283538380509A4CAA49BB43803001
:103920002AEC92072AE9A2072BE3B20740F7848327
:103930009583A683B78308956093BD087093BE08EE
:103940008093BF089093C0082093C1083093C208A9
:103950004093C3085093C40808958F929F92AF92EA
:10396000BF92CF92DF92EF92FF920F931F93DF935C
:10397000CF93CDB7DEB728970FB6F894DEBF0FBE52
:10398000CDBF29833A834B835C836D837E838F8392
:10399000988789809A80AB80BC80CD80DE80EF8064
:1039A000F88481149104A104B104E9F080E09AEC58
:1039B000AAE9BBE3C80ED91EEA1EFB1EC701B60169
:1039C00023EB36EE4EE050E00E94DD25089481089E
:1039D0009108A108B1088401102F0027110F110FC1
:1039E000020F131F09C0C701B60123EB36EE4EE0EC
:1039F00050E00E94DD258901B80102C0605074408A
:103A000094E061307907D0F780E090E023EB36EE68
:103A10004EE050E00E94AA25675A7C48884F9F4F8D
:103A20006C157D058E059F0510F40F5F1F4FC801B3
:103A300028960FB6F894DEBF0FBECDBFCF91DF91B1
:103A40001F910F91FF90EF90DF90CF90BF90AF90BC
:103A50009F908F900895EF92FF920F931F93DF93A3
:103A6000CF93CDB7DEB728970FB6F894DEBF0FBE61
:103A7000CDBF7B018C0173708070907023EB36EEAC
:103A80004EE050E00E94AA256D837E838F83988745
:103A9000A8019701EAE05695479537952795EA954D
:103AA000D1F729833A834B835C833A814B815C81D4
:103AB00028960FB6F894DEBF0FBECDBFCF91DF9131
:103AC0001F910F91FF90EF900895AF92BF92CF9208
:103AD000DF92EF92FF920F931F93DF93CF93CDB7B7
:103AE000DEB728970FB6F894DEBF0FBECDBF29838F
:103AF0003A834B835C836D837E838F839887E980D1
:103B0000FA800B811C81AD80BE80CF80D884E11407
:103B1000F1040105110519F180E09AECAAE9BBE373
:103B2000A80EB91ECA1EDB1EC601B50123EB36EE78
:103B30004EE050E00E94DD25C901DA010894E10859
:103B4000F10801091109FAE0EE0CFF1C001F111F1A
:103B5000FA95D1F7E80EF91E0A1F1B1F0CC0C6010B
:103B6000B50123EB36EE4EE050E00E94DD25E22E5B
:103B7000F32E042F152FC801B70104C06050744004
:103B8000804090406130A4E07A07A0E08A07A0E07E
:103B90009A07A0F723EB36EE4EE050E00E94AA25EC
:103BA000675A7C48884F9F4F6A157B058C059D0599
:103BB00028F40894E11CF11C011D111DB701C80176
:103BC00028960FB6F894DEBF0FBECDBFCF91DF9120
:103BD0001F910F91FF90EF90DF90CF90BF90AF902B
:103BE0000895EF92FF920F931F93CF93DF93EC0111
:103BF0008091BD089091BE08A091BF08B091C00807
:103C000088839983AA83BB83E090C108F090C2089F
:103C10000091C3081091C408EC82FD820E831F83BB
:103C20000E948521682F70E080E090E023EB36EE63
:103C30004EE050E00E94AA256E0D7F1D801F911F4F
:103C40006C837D838E839F8310C0288139814A8154
:103C50005B812F5F3F4F4F4F5F4F288339834A83EC
:103C60005B8360507A4C8A499B4360302AEC720730
:103C70002AE982072BE3920740F76C837D838E83CA
:103C80009F83DF91CF911F910F91FF90EF90089547
:103C90001F9311E00E94EF140E941A218B3010F440
:103CA0001093BA080E94C5238091FA06853519F051
:103CB00088E00E94E6138091FE1F853559F388E065
:103CC0000E94E613E7CF4F925F926F927F928F929E
:103CD0009F92AF92BF92CF92DF92EF92FF920F939B
:103CE0001F93CF93DF930E947F110E949A200E941E
:103CF000E6203C018AEF0E941E216091F80670E0E8
:103D000080E090E023EB36EE4EE050E00E94AA25E2
:103D10007B018C018091C1089091C208A091C308D9
:103D2000B091C408E80EF91E0A1F1B1FC801B70195
:103D30000E94DD25E61AF70A080B190B8091BD08D1
:103D40009091BE08A091BF08B091C00816C080E055
:103D500096E3A5E6B4ECE80EF91E0A1F1B1FC80186
:103D6000B70123EB36EE4EE050E00E94DD25E61A67
:103D7000F70A080B190BD601C5015C016D01089407
:103D8000A11CB11CC11CD11C20E0E2162AECF206D9
:103D90002AE902072BE31207D0F6E092C108F0925D
:103DA000C2080093C3081093C4088093BD08909381
:103DB000BE08A093BF08B093C008E091C608F09178
:103DC000C70885818823B9F081858430A1F0878177
:103DD000823029F0882341F08681882311F485E020
:103DE00001C083E0818704C083E081871782168247
:103DF00080850E94D318E091C608F091C708858D90
:103E0000968D009791F16085662379F181858430E4
:103E100061F1218D328D8091F80690E028173907E5
:103E200050F482E00E94DF13E091C608F091C708C9
:103E3000128E118E04C0281B390B328F218FE09116
:103E4000C608F091C7081085818D928D009769F49E
:103E500083E0612F0E94DF13E091C608F091C7084C
:103E600083E08187812F0E94D318C2E5D8E0F0E675
:103E7000EF2EFAEEFF2E10E0E1E08E2E912C02E004
:103E800071E0A72EB12CC12CD12C8B818F3F09F46E
:103E90007DC01882882369F18C81843051F1288992
:103EA00039898091F80690E02817390728F0281BF7
:103EB000390B398B288B02C0198A188A6A897B8949
:103EC0006817790728F46E897F898617970728F481
:103ED000681B790B7B8B6A8B04C00E94C9259B8B66
:103EE0008A8B8A899B89009721F48E899F899B8B75
:103EF0008A8B8C81833009F049C088899989009721
:103F0000E9F58A81882391F08981882379F0D601A7
:103F1000C5010090B60804C0880F991FAA1FBB1FD7
:103F20000A94D2F78C879D87AE87BF871A82198241
:103F300018828A8D9B8D288D398D8130910559F499
:103F40003D8B2C8B0C838A899B89998B888B812F45
:103F50000E94241813C03D8B2C8B01972E893F891A
:103F6000AC01429FC001439F900D529F900D1124C0
:103F7000998B888B9B8B8A8B9B8E8A8E48885988DD
:103F80004114510419F04E145F0408F027011F5F1B
:103F9000A196133011F0720178CF0E941318182FD8
:103FA000992787FD9095FC0165E0EE0FFF1F6A954C
:103FB000E1F7E80FF91FE35BF74F42854093C8082C
:103FC00081E21802C0011124835B974F9093B808D7
:103FD0008093B7081123A1F0258D368D2115310569
:103FE00051F0218D328D2A3F310528F424153505F5
:103FF00028F5290123C05BEF45165104F8F017C0DE
:10400000ABE04A165104D0F092012A5030402A3FCA
:10401000310540F429012930310580F459E0452E5D
:10402000512C0CC024E0421621E0520621F03AEF58
:10403000432E512C03C020EF422E512C4093B9083F
:104040009093C7088093C6084092F8060E94852185
:1040500090E08415950550F00E948521482E552446
:1040600042E050E0440E551E4092F806112311F034
:104070001092BA08842D0E941E21C3016EEE72E0D8
:104080000E94A2200E940E240E943924DF91CF9129
:104090001F910F91FF90EF90DF90CF90BF90AF9066
:1040A0009F908F907F906F905F904F900895000049
:1040B0000000000000000197D1F7089580E280938E
:1040C000B6008EEF8093B30083E087BB92E09093BD
:1040D000B000E1EBF0E0808393B5926093BD87BBC5
:1040E00084BD93B5926093BD1092800091E090934F
:1040F0008100109285001092840093B5926093BD68
:1041000093B5916093BD93B5926093BD1092B20048
:104110001092F806A0E7B0E09C9193609C93808396
:104120001092CD02089510928100089581E080934D
:104130008100089583B5816083BD1092850010923F
:1041400084000895EF92FF920F931F93DF93CF9314
:1041500000D0CDB7DEB72FEF8937920710F080E09F
:1041600090E09C0140E050E07B0100E010E02E0D6B
:104170003F1D401F511F213060E0360761E04607B8
:1041800060E0560778F060918400709185007A8332
:10419000698369817A8186179707A8F32050304098
:1041A0004140504080918400909185009A8389839A
:1041B00089819A8182179307A8F30F900F90CF916E
:1041C000DF911F910F91FF90EF900895DF93CF93B0
:1041D00000D0CDB7DEB780918400909185009A839E
:1041E000898329813A81C9010F900F90CF91DF9186
:1041F00008951092B100E0E7F0E080818D7F808328
:1042000080818E7F808308958093B2000895E0E7D7
:10421000F0E080818360808383E08093B100089523
:1042200083B5826083BD1092B2001092CD021092CD
:10423000F80608958091B3008F5F089581508093B0
:10424000B3000895882311F4109271008FEF089540
:10425000882311F08FEF089510929500109294002A
:1042600081E00895882319F020E030E004C0209117
:10427000940030919500C9010895882311F08FEFC3
:10428000089582E08093710081E00895882311F001
:104290008FEF0895CB0101978530910510F460935D
:1042A000F7061092900088E0809391005093990057
:1042B000409398003093CB022093CA028091F70676
:1042C000813021F48091910081600BC0823021F413
:1042D00080919100826005C0833031F4809191001B
:1042E00083608093910008C0843021F48091910014
:1042F0008460F7CF853011F081E0089580919100BE
:1043000085608093910081E008958091B2000895C6
:104310000F920FB60F921F922F923F924F925F9281
:104320006F927F928F929F92AF92BF92CF92DF92C5
:10433000EF92FF920F931F932F933F934F935F93AF
:104340006F937F938F939F93AF93BF93CF93DF939D
:10435000EF93FF93A091C608B091C7080DB60D92D8
:104360000EB60D921F92A091F506B091F6061E9022
:10437000BEBFADBF08951F920F920FB60F921124CA
:104380000F900FBE0F901F9018951F920F920FB6AF
:104390000F920BB60F9211242F933F934F935F937D
:1043A0006F937F938F939F93AF93BF93EF93FF93FD
:1043B000E091CA02F091CB02309711F0099504C048
:1043C0008AE060E00E94DF13FF91EF91BF91AF910F
:1043D0009F918F917F916F915F914F913F912F911D
:1043E0000F900BBE0F900FBE0F901F9018951F924D
:1043F0000F920FB60F920BB60F9211242F933F938B
:104400004F935F936F937F938F939F93AF93BF93DC
:10441000EF93FF938AE060E00E94DF13FFCF8823D1
:1044200011F4E89A33C0813011F4E99A089582308A
:1044300011F4EA9A2BC0833021F480916B008160E3
:1044400023C0843021F480916B0082601DC08530D0
:1044500021F480916B00846017C0863021F4809134
:104460006B00886011C0873021F480916B008061FF
:104470000BC0883021F480916B00806205C08930C8
:1044800039F480916B00806480936B0081E0089523
:104490008A3011F08FEF089580916B0080688093CF
:1044A0006B0081E00895882311F4E89833C08130CF
:1044B00011F4E9980895823011F4E9982BC0833003
:1044C00021F480916B008E7F23C0843021F4809191
:1044D0006B008D7F1DC0853021F480916B008B7F38
:1044E00017C0863021F480916B00877F11C0873020
:1044F00021F480916B008F7E0BC0883021F4809175
:104500006B008F7D05C0893039F480916B008F7B03
:1045100080936B0081E008958A3011F08FEF089549
:1045200080916B008F7780936B0081E008958823E2
:1045300039F55093E0084093DF08662321F4809119
:1045400069008C7F44C0613049F4809169008D7F9F
:104550008093690080916900816039C0623049F4BC
:1045600080916900826080936900809169008E7FEC
:104570002EC0633009F066C080916900836027C057
:10458000813041F55093DE084093DD08662321F425
:1045900080916900837F1BC0613049F4809169007C
:1045A000877F8093690080916900846010C06230C9
:1045B00049F4809169008860809369008091690066
:1045C0008B7F05C06330F1F5809169008C6080932A
:1045D000690036C0823031F55093DE084093DD0823
:1045E000662321F4809169008F7CF1CF613049F41A
:1045F000809169008F7D809369008091690080615E
:10460000E6CF623049F4809169008062809369004E
:10461000809169008F7EDBCF6330A1F480916900C7
:104620008063D5CF8350883010F08FEF089580914C
:1046300068008160809368005093E4084093E30829
:1046400081E0089581E008951F920F920FB60F92B6
:104650000BB60F9211242F933F934F935F936F9359
:104660007F938F939F93AF93BF93EF93FF93E091CB
:10467000DF08F091E008309711F0099504C08AE056
:1046800060E00E94DF13FF91EF91BF91AF919F9186
:104690008F917F916F915F914F913F912F910F90EB
:1046A0000BBE0F900FBE0F901F9018951F920F9288
:1046B0000FB60F920BB60F9211242F933F934F9387
:1046C0005F936F937F938F939F93AF93BF93EF937A
:1046D000FF93E091E308F091E408309711F0099519
:1046E00004C08AE060E00E94DF13FF91EF91BF9168
:1046F000AF919F918F917F916F915F914F913F917A
:104700002F910F900BBE0F900FBE0F901F9018951A
:104710009091B00080E0992309F481E00895089514
:1047200004B603FE02C08FEF089581E00895A895B6
:1047300008950E947F1184B7877F84BFA895E0E623
:10474000F0E08081886180838DE080830E94811108
:1047500008950E947F11A89584B7877F84BFE0E603
:10476000F0E080818861808310820E948111089529
:10477000089583B7817F866083BF83B7816083BFDD
:10478000889583B78E7F83BF089583B7817F83BF6A
:1047900083B7816083BF889583B78E7F83BF089579
:1047A000FC0176836583089525E5FA012083FB01EA
:1047B00032979083818312921292129212921292E5
:1047C00012921292129212921292129212921292C9
:1047D00012921292129212921292129212921292B9
:1047E00012921292129212921292129212921292A9
:1047F00012921292129212921292CF01089585E5AE
:104800008093FE1FEEEFF1E2F093F606E093F506DB
:1048100088E891E190838093FF21089588E891E1F1
:104820009093FE218093FF2108950E945E200E94B4
:1048300081110895EF92FF920F931F93CF93DF930F
:10484000EC018B017A014032510518F481E10E949C
:10485000E6130894E108F108E00EF11EFA82E982FD
:104860001C830B83DF91CF911F910F91FF90EF90ED
:104870000895A091B708B091B808CD91CDBFDD9152
:10488000DEBFFF91EF91DF91CF91BF91AF919F91EB
:104890008F917F916F915F914F913F912F911F91D8
:1048A0000F91FF90EF90DF90CF90BF90AF909F90CF
:1048B0008F907F906F905F904F903F902F901F90C0
:1048C0000F900FBE0F9018956F927F928F929F92CC
:1048D000AF92BF92CF92DF92EF92FF920F931F930E
:1048E000DF93CF93CDB7DEB72D970FB6F894DEBF29
:1048F0000FBECDBF6C014B018A01FC0117821682ED
:10490000838181FD06C02FEF3FEF0EC10E5F1F4F69
:1049100004C05E010894A11CB11CF601F380F401EF
:10492000F3FC8591F3FE81914F01882309F4F9C0CE
:10493000853251F4F3FC2591F3FE21914F0125328C
:1049400011F030E01FC085E290E032C0222309F46C
:10495000E8C084E093E0622F70E02C873D870E94DE
:10496000FF252C853D85009739F4233211F4306101
:1049700003C02C3661F43068F401F3FC2591F3FE9A
:1049800021914F0137FFE2CF222309F4CAC0F32E51
:104990008DEF92E0622F70E02C873D870E94FF250B
:1049A0002C853F2D009741F00C5F1F4F8FE390E067
:1049B000B6010E949726B1CF233629F0233791F014
:1049C000233509F50DC032E0E32EF12CE00EF11E87
:1049D000F80180819181B6010E94972687019DCFC1
:1049E000F1E0FF2AF8016080718004C090E0B60118
:1049F0000E949726F301F0FC8591F0FE81913F0122
:104A00008823A1F783CF243611F0293629F537FF03
:104A100008C0F80160817181828193810C5F1F4F12
:104A200009C0F80160817181882777FD8095982FF2
:104A30000E5F1F4F2FEEF22EF32297FF09C09095C5
:104A40008095709561957F4F8F4F9F4FF0E4FF2ABF
:104A5000A5012AE030E035C02037B1F0213730F42D
:104A60002835C9F02F3609F05CC006C0253739F06B
:104A7000283709F056C00AC028E030E010C02FEEF9
:104A8000F2222AE030E00BC080E1F82AE4E2FE2ABC
:104A900020E130E004C0F4E0FF2A20E132E0F7FE3C
:104AA00008C0F80160817181828193810C5F1F4F82
:104AB00007C0F8016081718180E090E00E5F1F4FB8
:104AC000A5010E941727E82EEA186F2C7724F6FE1E
:104AD00005C08DE290E0B6010E94972664FE15C0E5
:104AE000FE01EE0DF11D8081803379F080E390E0CE
:104AF000B6010E94972662FE08C0C30180729070C2
:104B0000885A9F4FB6010E949726EA94F501EE0D50
:104B1000F11D808190E0B6010E949726EE20A9F752
:104B2000FCCEF60126813781C9012D960FB6F89487
:104B3000DEBF0FBECDBFCF91DF911F910F91FF90D0
:104B4000EF90DF90CF90BF90AF909F908F907F902D
:104B50006F900895629FD001739FF001829FE00DD6
:104B6000F11D649FE00DF11D929FF00D839FF00DEC
:104B7000749FF00D659FF00D9927729FB00DE11D98
:104B8000F91F639FB00DE11DF91FBD01CF01112475
:104B90000895AA1BBB1B51E107C0AA1FBB1FA61784
:104BA000B70710F0A61BB70B881F991F5A95A9F7D6
:104BB00080959095BC01CD010895A1E21A2EAA1B03
:104BC000BB1BFD010DC0AA1FBB1FEE1FFF1FA217BD
:104BD000B307E407F50720F0A21BB30BE40BF50BBA
:104BE000661F771F881F991F1A9469F76095709543
:104BF000809590959B01AC01BD01CF010895FC010A
:104C00000590061621F00020D9F7C00108953197CC
:104C1000CF0108950F931F93CF93DF93EC018B0186
:104C2000009731F46115710519F420E030E038C0C7
:104C300081E090E06EE070E00E948B27FC019C0117
:104C4000009771F180E883830115110571F01387D6
:104C5000028781E883838091E5089091E6080097B8
:104C600021F4F093E608E093E5082097C9F0D18796
:104C7000C0878381826083838091E7089091E808F0
:104C8000009771F4F093E808E093E7088091E90851
:104C90009091EA08009721F4F093EA08E093E9087C
:104CA000C901DF91CF911F910F910895CF93DF93A9
:104CB000EC013B8130FF17C036FF09C03F7B3B83CF
:104CC0008E819F8101969F838E832A812BC032FF24
:104CD00011C0E881F9818081992787FD909500971F
:104CE00029F430623B832FEF3FEF1DC03196F983EB
:104CF000E88311C0EA85FB85CE01099597FF0BC0BB
:104D00002B813FEF8F3F930711F080E201C080E1DC
:104D1000822B8B83E8CF2E813F812F5F3F4F3F83D4
:104D20002E83282F30E0C901DF91CF9108950F9392
:104D30001F93CF93DF938C01EB018B8181FF1BC00D
:104D400082FF0DC02E813F818C819D8128173907FC
:104D500064F4E881F9810193F983E88306C0E8856A
:104D6000F985802F0995009731F48E819F810196F6
:104D70009F838E8302C00FEF1FEFC801DF91CF9199
:104D80001F910F910895DF93CF93CDB7DEB7FE014A
:104D90003596619171918091E7089091E808AF0193
:104DA0000E946424CF91DF9108956091E70870918B
:104DB000E8080E9497260895EF92FF920F931F93A1
:104DC000CF93DF938C01E091E708F091E8088381AD
:104DD00081FF23C0C0E0D0E00EC06091E708709171
:104DE000E808DB011896ED91FC9119970995009759
:104DF00011F0CFEFDFEFF80181918F01882369F780
:104E00006091E7087091E808DB011896ED91FC913C
:104E100019978AE00995009711F0CFEFDFEFCE01E7
:104E2000DF91CF911F910F91FF90EF900895FA01BC
:104E3000AA27283051F1203181F1E8946F936E7FD9
:104E40006E5F7F4F8F4F9F4FAF4FB1E03ED0B4E0CA
:104E50003CD0670F781F891F9A1FA11D680F791F0B
:104E60008A1F911DA11D6A0F711D811D911DA11D1C
:104E700020D009F468943F912AE0269F112430192C
:104E8000305D3193DEF6CF010895462F4770405DC7
:104E90004193B3E00FD0C9F7F6CF462F4F70405D76
:104EA0004A3318F0495D31FD4052419302D0A9F7D1
:104EB000EACFB4E0A6959795879577956795BA95CB
:104EC000C9F700976105710508959B01AC010A2E91
:104ED00006945795479537952795BA95C9F7620F68
:104EE000731F841F951FA01D0895F999FECF92BDD1
:104EF00081BDF89A992780B50895262FF999FECF9C
:104F00001FBA92BD81BD20BD0FB6F894FA9AF99AE6
:104F10000FBE01960895EF92FF920F931F93CF93C8
:104F2000DF93689F8001699F100D789F100D1124F9
:104F3000C8010E94B127E82EE7017E01F92EE701A2
:104F4000E114F10431F08E2D60E070E0A8010E94C0
:104F5000EB28CE01DF91CF911F910F91FF90EF9041
:104F60000895EF92FF920F931F93CF93DF938230B8
:104F7000910510F482E090E0C091ED08D091EE0828
:104F800040E050E020E030E028C068817981681777
:104F90007907D8F06817790779F48A819B81211500
:104FA000310521F0F9019383828304C09093EE08C8
:104FB0008093ED08DE0129C04115510519F06417F1
:104FC000750718F4AB01D901FE019E017A816B814E
:104FD000E72EE7017E01F62EE7012097B1F6411595
:104FE0005105F9F0481B590B4430510580F482817A
:104FF0009381109729F013969C938E93129704C077
:105000009093EE088093ED08DF01129645C0DF0112
:10501000A40FB51F8D939D93425050405183408300
:105020003BC02091EB083091EC082115310541F48B
:105030002091C5023091C6023093EC082093EB0812
:105040002091C7023091C8022115310541F42DB7D6
:105050003EB74091C3025091C402241B350BA0916E
:10506000EB08B091EC08A217B307A0F42A1B3B0B86
:105070002817390778F0AC014E5F5F4F24173507CA
:1050800048F04A0F5B1F5093EC084093EB088D9358
:105090009D9302C0A0E0B0E0CD01DF91CF911F91C0
:1050A0000F91FF90EF900895CF93DF93009709F44D
:1050B0008FC0FC013297138212826091ED087091CB
:1050C000EE086115710581F420813181280F391FA7
:1050D0008091EB089091EC088217930761F5F093AB
:1050E000EC08E093EB0874C0EB0180E090E0CE1791
:1050F000DF0740F42A813B81CE012115310501F102
:10510000E901F5CFD383C283DF014D915D919D010C
:10511000240F351FC217D30761F428813981240F6A
:10512000351F2E5F3F4F318320832A813B8133839C
:105130002283009729F4F093EE08E093ED0848C02D
:10514000DC011396FC93EE931297EC01499159916F
:10515000C40FD51FEC17FD0779F420813181240F8E
:10516000351F2E5F3F4F11963C932E932281338142
:1051700013963C932E931297E0E0F0E0DB01129639
:105180008D919C911397009721F0E62FF72FBC018A
:10519000F5CF9B012E5F3F4FDB018D919C911197C5
:1051A000820F931F4091EB085091EC084817590764
:1051B00079F4309729F41092EE081092ED0802C0AD
:1051C00013821282225030403093EC082093EB0877
:1051D000DF91CF910895DC0101C06D9341505040A3
:0851E000E0F70895F894FFCFF9
:1051E80074785F7461736B205049443D25640D0ADF
:1051F800004D79206E6F6465277320616464726561
:1052080073732069732025640D0A0072785F7461D6
:10521800736B205049443D25640D0A0025640D0A2E
:10522800005374617274696E672075702E2E2E0D8E
:10523800001820380109111921293139030B131BD2
:105248002333040C141C242C343C050D151D252D6A
:10525800353D2564006375723A2025642000626F2D
:1052680074746F6D203D202578200063616E617233
:1052780079203D202578200073746B203D20257807
:1052880020007463622061646472203D2025780DDB
:105298000A0025643A20626F74746F6D203D2025E2
:0A52A8007820002000EF080000004D
:00000001FF
