:100000000C94D2010C9437320C94F1010C94F10150
:100010000C94F1010C94F1010C94F1010C94F10198
:100020000C94F1010C9465320C94F1010C94F101E3
:100030000C94F1010C9418300C94F1010C941830CC
:100040000C94F1010C944B300C94F1010C94F101DF
:100050000C94F1010C94F1010C94F1010C94F10158
:100060000C94F1010C94F1010C94F1010C94F10148
:100070000C94F1010C94F1010C94F1010C94F10138
:100080000C9455300C94F1010C94F1010C94F10195
:100090000C94111E0C94F1010C94F1010C94F101DB
:1000A0000C94F1010C94F1010C94F1010C94F10108
:1000B0000C94F1010C94F1010C94F1010C94F101F8
:1000C0000C94F1010C94F1010C94F101732179214C
:1000D0007C217F21822185218B2188218E219121E4
:1000E00094219A219D21A021A3219721702176217D
:1000F00043726561746520446F6E650D0A00537428
:10010000617274696E672075702E2E2E0D0A00497B
:100110005341204552524F523A20637265617469CF
:100120006E67207478207369676E616C2066616900
:100130006C65640D0A00495341204552524F523AB2
:10014000206372656174696E6720727820736967D5
:100150006E616C206661696C65640D0A0043433210
:10016000343230204552524F523A202052656C654D
:10017000617365206F662073656D6170686F72656D
:10018000206661696C65640D0A0043433234323085
:10019000204552524F523A202041636365737320C9
:1001A000746F2073656D6170686F72652066616938
:1001B0006C65640D0A00554E4B4F574E0046616901
:1001C0006C656420746F206372656174652053658B
:1001D0006D6170686F7265004661696C656420745A
:1001E0006F20637265617465205369676E616C008E
:1001F0004B65726E656C2066756E6374696F6E20F8
:100200006E6F7420696D706C656D656E74656400E9
:10021000446576696365204472697665722045722B
:10022000726F72005761746368646F672052657300
:10023000746172740054696D6572204F76657266E0
:100240006C6F7700556E68616E646C656420496EF2
:100250007465727275707420566563746F72004CA9
:100260006F7720566F6C74616765004578747261B2
:10027000205461736B20737461727465642C2069FF
:1002800073206E726B5F6366672E68206F6B3F0032
:1002900049646C65206F72204B65726E656C2053EB
:1002A0007461636B204F766572666C6F7700556E74
:1002B00065787065637465642052657374617274E7
:1002C000004475706C696361746564205461736B7C
:1002D000204944005363686564756C6572204D69FC
:1002E000737365642057616B657570005461736B3F
:1002F00020526573657276652056696F6C6174650E
:10030000640052657365727665204572726F722063
:10031000696E205363686564756C657200496E761A
:10032000616C696420537461636B20506F696E74F3
:100330006572005461736B20537461636B204F7658
:100340006572666C6F7700537461636B20776173BD
:10035000206E6F7420646566696E65642061732029
:100360006C6172676520656E6F7567682100293A58
:1003700020002A4E524B204552524F5228000D0A5F
:10038000535441434B2044554D500D0A00454647B8
:1003900065666700202B2D2E3031323334353637E9
:1003A0003839680011241FBECFEFD1E2DEBFCDBFC8
:1003B00012E0A0E0B2E0E4E2FFE600E00BBF02C022
:1003C00007900D92AC3EB107D9F717E0ACEEB2E062
:1003D00001C01D92A23CB107E1F70E9423030C94D7
:1003E00091370C94833080E592E090935103809391
:1003F00050038FEE94E090934D0380934C0380E77D
:1004000094E090934F0380934E0382E080935303D4
:1004100081E080935203809354038093550310929C
:10042000560310925703109258031092590380E01C
:100430009DE2A1E3B1E080935A0390935B03A09304
:100440005C03B0935D0310925E0310925F03109201
:100450006003109261038093620390936303A093FF
:100460006403B093650310926603109267031092C1
:1004700068031092690380E890EFAAEFB2E08093DE
:100480006A0390936B03A0936C03B0936D038BE4AA
:1004900093E00E94ED2880EF90E00E94FE1D0895F9
:1004A0002F923F924F925F926F927F928F929F9284
:1004B000AF92BF92CF92DF92EF92FF920F931F9372
:1004C000CF93DF93CDB7DEB722970FB6F894DEBF98
:1004D0000FBECDBF0E94EF2699279F938F9380E098
:1004E00092E09F938F930E94483583E090E00E94B2
:1004F000501D81E090E00E947B0340E062E081E0DB
:100500000E94190A60E081E00E94F20B83E10E94E0
:10051000F1080E94D50364E78BEF93E00E94C503C6
:100520000F900F900F900F9002C00E94AF280E9472
:10053000BB038823D1F38FE092E09F938F930E94B7
:1005400048350F900F905CE1252E52E0352E42E0A9
:10055000442E512C4C0E5D1E3E010894611C711CF2
:100560003EEFE32E33E0F32E2DEF822E2FEF922E6F
:100570008E0C9F1C0BE115E094E4A92E92E0B92E9D
:100580008DEFC82E8FEFD82EC00ED11E2091F00215
:100590003091F102C90168EE73E00E94FD36892BAB
:1005A000D1F48091F4029091F5029F938F93809102
:1005B000F2029091F3029F938F933F932F933F9278
:1005C0002F920E9448358DB79EB708960FB6F894C3
:1005D0009EBF0FBE8DBF0E9437048823B9F0B201C1
:1005E000C3010E94E20AF70101900020E9F7EF5FE2
:1005F000F340EC5FE98385E00E94D90325E0482FB2
:100600006981C4010E9446040E943D0483E00E9467
:1006100074048823A9F4B501C8010E94C634F80106
:1006200001900020E9F7EC51F540EC5FE98380E0B0
:100630000E94D90323E0482F6981C6010E94460425
:100640000E94C808A3CFCFEFD1E2DEBFCDBF0E948A
:10065000931987E090E00E94C81D8EEF90E00E9401
:10066000FE1D0E94862080E090E00E94331D81E004
:1006700090E00E94331D82E090E00E94331D83E0F1
:1006800090E00E94331D20E030E040E050E060E068
:1006900070E080E090E00E94512A0E9491040E9444
:1006A000F3010E94262080E090E00C94913721E035
:1006B00030E040E050E004C0220F331F441F551FBC
:1006C0008A95D2F78091F6029091F702A091F802F4
:1006D000B091F902822B932BA42BB52B8093F602B9
:1006E0009093F702A093F802B093F90208958091D5
:1006F000160399270895813019F08330D9F531C058
:1007000083E18093D1068CE08093D20684E18093CC
:10071000D30688E18093D40680E18093D50687E1F3
:100720008093D60682E18093D70689E18093D8062C
:100730008EE08093D90685E18093DA068BE0809382
:10074000DB068FE08093DC0686E18093DD0681E1A5
:100750008093DE068DE08093DF068AE18093E006D9
:1007600008958FE08093CC0684E18093CD0689E1E3
:100770008093CE06089580911705813019F481E0A9
:1007800090E008958FEF9FEF0895662359F000974A
:1007900049F090930903809308036093070381E075
:1007A00090E008958FEF9FEF089582E08093170502
:1007B0000895282F853049F08091EE029091EF0244
:1007C00001969093EF028093EE028091FA038230BB
:1007D00070F48091EE029091EF0268EC70E00E945C
:1007E000FD36892B21F4253011F085EE01C081EE14
:1007F000992787FD90950895882311F083E801C01B
:1008000083E0992787FD909508958F92AF92CF92BC
:10081000EF920F93CF93DF93CDB7DEB71092AF0671
:100820009AE09093B6061092B7068093B80660934C
:10083000B9064093BA061092BB062093C2060093F5
:10084000C306E092C406C092C506A092C606809276
:10085000C7068A858093C8068B858093C906DF9179
:10086000CF910F91EF90CF90AF908F90089580919E
:100870000106992787FD9095089510920106109220
:100880000206109203061092040608953327F90118
:10089000EE0FFF1FEE0FFF1FEC56FA4F938382837C
:1008A0006083418341E050E060E070E004C0440FA9
:1008B000551F661F771F2A95D2F780911D039091CF
:1008C0001E03A0911F03B0912003842B952BA62B10
:1008D000B72B80931D0390931E03A0931F03B09327
:1008E000200381E090E0089520911D0330911E03C4
:1008F00040911F035091200304C0569547953795AA
:1009000027958A95D2F7C9018170907008958091DA
:10091000F103813019F481E090E008958FEF9FEFAB
:1009200008950F931F9386EF98E090932E03809382
:100930002D0308E213E040E850E06EE673E0C801E2
:100940000E94413384E18093300381E080932F0340
:100950008093310380933203109233031092340357
:10096000109235031092360380E896E9A8E9B0E0CA
:100970008093370390933803A0933903B0933A03DD
:1009800010923B0310923C0310923D0310923E03E1
:1009900010923F03109240031092410310924203C1
:1009A00010924303109244031092450310924603A1
:1009B00010924703109248031092490310924A0381
:1009C000C8010E94ED281F910F910895CF92DF92E8
:1009D000EF92FF920F931F93CF93DF93EE24FF24A8
:1009E00043E0C42E43E0D42E009108031091090384
:1009F00080E00E94D903F801808360911603C6014C
:100A00000E9403180E9426131092AC068AEF0E94DF
:100A1000A52F80E00E948A2F10E012C00E9414309F
:100A2000181771F00E941430182F0894E11CF11C63
:100A3000F1E1EF16F7E2FF0618F0EE24FF2405C0FF
:100A40000E94B40F082F882349F30E945C2F0E9454
:100A50001430C82FDD272496002371F006C00E94B1
:100A600014309927C817D90738F060E880E00E9451
:100A70009910082F882399F30E940E13013009F072
:100A8000B3CFE0910803F091090392818091F003C4
:100A9000981709F0A9CF81E090E0A0E0B0E0809342
:100AA000010690930206A0930306B093040680917A
:100AB0009F069091A0062181820F911D9093A00620
:100AC00080939F0682E090E00E94161D6091BA0715
:100AD0007091BB0789E690E00E941B350093AC063D
:100AE000109201061092020610920306109204065C
:100AF0000E947F2F8AE00E94A52F87E00E948A2F04
:100B000060E571E980E090E00E9499300E948D2FAD
:100B1000E0919307F09194078AE090E0968B858BA3
:100B20008091AC069927DF91CF911F910F91FF9093
:100B3000EF90DF90CF900895FF920F931F93CF9384
:100B4000DF93CDB7DEB721970FB6F894DEBF0FBEA7
:100B5000CDBFF82E6091160383E093E00E94031846
:100B60000E94261300917E02802F0E949A190E94F3
:100B70001430898389818C5F89831FC00E9414305F
:100B800099819817D0F4802F0E941F1A0E940E138B
:100B9000802F0E949A19802F0E941F1A6091BA0715
:100BA0007091BB0786E790E00E941B358F2D992737
:100BB0009F938F9386E492E044C00E94B40F8823F1
:100BC000E9F20E94642F9093AE068093AD060E94D6
:100BD0001430898389818B5F898317C00E94143008
:100BE0009981981790F489E492E09F938F930E94E3
:100BF00048358091F4029091F50201969093F502A8
:100C00008093F4020F900F90A8C060E880E00E94EB
:100C10009910182F882311F3802F0E941F1A0E9409
:100C20000E13113001F16091BA077091BB0782E693
:100C300090E00E941B35812F99279F938F938AE61E
:100C400092E09F938F930E9448358091F402909197
:100C5000F50201969093F5028093F4020F900F90A5
:100C60000F900F907AC08091F2029091F30201965A
:100C70009093F3028093F20281E090E00E94161DAF
:100C800087E0F81661F081E090E0A0E0B0E08093AA
:100C9000010690930206A0930306B0930406E09128
:100CA0000803F0910903808180936F0480918F067F
:100CB0000E94772420916F0427FF4FC08091F0029B
:100CC0009091F10201969093F1028093F00222FF3D
:100CD00002C083E801C083E08093E20680938C0524
:100CE0008CE895E0909325038093240322FF1EC097
:100CF0006091BA077091BB078BE490E00E941B35AE
:100D00008091AD069091AE0620919B0630919C0695
:100D1000821B930B9093980680939706292F332775
:100D200020938D0580938E0584E001C082E080933E
:100D30002303802F0E949A194091180350911903A0
:100D400060919B0670919C0628EA36E081E293E070
:100D50000E943C15802F0E941F1A21960FB6F8940E
:100D6000DEBF0FBECDBFDF91CF911F910F91FF90DE
:100D70000895AF92BF92CF92DF92EF92FF920F93BE
:100D80001F93CF93DF93CDB7DEB721970FB6F894BB
:100D9000DEBF0FBECDBFE82E81E0809311030E2D84
:100DA0001127F801EE0FFF1FEE0FFF1FEC56FA4F51
:100DB000828193819093100380930F0380818093AD
:100DC0000E03A0910F03B091100381818C93E091E9
:100DD0000F03F091100380919F069091A0068183EC
:100DE000E0910F03F09110038091FA0282830E9438
:100DF0005C2F60E875E280E090E00E949930D0902E
:100E000074028D2D0E949A19409118035091190374
:100E100060919B0670919C0628EA36E08CE093E096
:100E20000E943C158823F1F08091F0029091F1022C
:100E300001969093F1028093F0028D2D0E941F1A6B
:100E400083E090E00E94161D8091A8069091A9066B
:100E500020919B0630919C06821B930B90939606E3
:100E60008093950680919D060E94772481E090E012
:100E7000A0E0B0E0002E04C0880F991FAA1FBB1F7E
:100E80000A94D2F780959095A095B09520911D0376
:100E900030911E0340911F035091200328233923D2
:100EA0004A235B2320931D0330931E0340931F03AB
:100EB0005093200380916F0487FF59C10E9426132D
:100EC0008D2D0E949A190E945C2F60E070E180E0F5
:100ED00090E00E9499300E941430898389818E5F4E
:100EE00089834AC00E9414309981981708F044C041
:100EF00080919A06E81651F48091E3069091E406F9
:100F000049969093E4068093E30613C0E81A209173
:100F1000E3063091E4064E2D552747FD50951E14EB
:100F200014F0275E3F4F240F351F3093E4062093C3
:100F3000E3060E940E138D2D0E941F1A6091BA07BE
:100F40007091BB0783E790E00E941B351F930F93BE
:100F500086E492E09F938F930E9448358091F4023B
:100F60009091F50201969093F5028093F4020F9010
:100F70000F900F900F90FBC00E94B40F882309F4CC
:100F8000B1CF0E941430898389818E5F898385E087
:100F9000E81661F08091EE029091EF0268EC70E04B
:100FA0000E94FD36892B11F414E001C012E08091FB
:100FB000FA038230E9F412E01BC00E9414309981D8
:100FC0009817B0F489E492E09F938F930E9448357C
:100FD0008091F4029091F50201969093F50280932E
:100FE000F4020E941430809390060F900F90BFC0BF
:100FF000612F81E00E949910082F8823F1F281303F
:1010000009F4B2C06091BA077091BB0786E690E020
:101010000E941B358091F4029091F5020196909305
:10102000F5028093F4028D2D0E941F1A013009F001
:101030009EC08091F2029091F30201969093F30288
:101040008093F2021092E4061092E306E091080306
:10105000F091090390819093E20680916F0487FFDD
:1010600086C097FF84C081819927982F8827228185
:101070003327822B932B909398068093970680E0DA
:1010800090E00E94161D6091BA077091BB0781E63F
:1010900090E00E941B35C0909706D09098068091F2
:1010A000950690919606C81AD90A82E389830E9410
:1010B0001430B82EA0907E028A2D0E949A19D7FC77
:1010C00030C0B09290060E947F2F64E6E62E69E160
:1010D000F62EC60164E679E10E9411378B010F5F9D
:1010E0000093A206C60164E679E10E941137E81A6E
:1010F000F90AF092A706E092A6060E945C2F82E30E
:1011000090E00E944E2FB70180E090E00E9499305D
:101110008B2D800F0E948A2F84E690E00E944E2F34
:1011200017C06091BA077091BB0781E290E00E94FE
:101130001B350E947F2F0E945C2F662777276C1932
:101140007D0980E090E00E9499308B2D0E948A2FCB
:101150000E948D2F0E945C2F82E390E00E944E2F10
:101160008A2D0E941F1A03C00E940E135CCF219685
:101170000FB6F894DEBF0FBECDBFDF91CF911F91A8
:101180000F91FF90EF90DF90CF90BF90AF900895B8
:1011900080918F060E946F2380919D060E946F238D
:1011A00021E030E040E050E0CA01B90100909D0626
:1011B00004C0660F771F881F991F0A94D2F700900A
:1011C0008F0604C0220F331F441F551F0A94D2F705
:1011D000622B732B842B952B0E94C92581E090E014
:1011E0000895809316030E942D180895BF92CF9200
:1011F000DF92EF92FF920F931F93CF93DF931092A2
:1012000017050E94AF28809117058823D1F381E04C
:1012100080931705B0907402CC24DD248B2D0E949E
:101220009A198B2D0E941F1A0E945C2F0E94642F16
:1012300090939C0680939B0680919F069091A006B8
:101240009093AB068093AA0680919F069091A0068A
:101250008536910598F080919F069091A00684565E
:1012600090409093A00680939F0680919306909162
:1012700094060196909394068093930620919F067E
:101280003091A0068091AC06813009F064C0C9019C
:1012900069E170E00E94FD36EC01B1E0EB2EF12C2B
:1012A000012D112D04C0EE0CFF1C001F111F8A958B
:1012B000D2F7E0919E06EC0DE0939E06FF27EF70BB
:1012C000F070EF52F94F80818093D0060E94F108B0
:1012D0008091F8049091F904A091FA04B091FB0474
:1012E00020911D0330911E0340911F035091200354
:1012F00082239323A423B5238E219F21A023B123EE
:101300000097A105B10531F08C2F0E94B906C0935A
:101310009A0634C08091F6039091F703A091F803E8
:10132000B091F903E822F9220A231B23E114F10406
:101330000105110519F18091010690910206A09115
:101340000306B09104060097A105B105B9F48C2FEE
:101350000E949C0513C080E00E94D90380936F0413
:101360008091FA03823039F01092EF021092EE026F
:101370000E94E60401C081E08093AC062091E30660
:101380003091E4068091710290917202281739071A
:1013900078F18091FA03823059F11092AC061092E4
:1013A000E4061092E3061092A00610929F06809128
:1013B000EE039091EF0301969093EF038093EE0379
:1013C0008091FA02882349F0E091F003E0939E06B1
:1013D000FF27EF52F94F808104C010929E06809142
:1013E000D1068093D0068091D0060E94F10814CFD8
:1013F00080919F069091A0060E948E0C6C018091B6
:101400009F069091A0068C0D9D1D9093A006809341
:101410009F0680E090E00E94331D10929606109285
:101420009506C6010E947C2880E090E00E94501D35
:10143000F5CEFF920F931F93082FF62E142F0E94C4
:10144000E62280938F068F3F19F486E391E008C06F
:101450000E94E62280939D068F3F79F48FE091E011
:101460000E94FE1DE0919307F091940760858EE045
:101470000E94DF218FEF90E087C010920903109245
:101480000803109207030E94582F1092940610929E
:10149000930684E690E09093A00680939F061092B6
:1014A000AC061092F1031092E4061092E30600934A
:1014B000FA03F092FA021093F003109201061092D0
:1014C0000206109203061092040610921D03109259
:1014D0001E0310921F031092200384E680931C03C6
:1014E00080E49FE190931B0380931A0380EA9FE0BE
:1014F00090931903809318038FE08093160381E87B
:1015000099E19093150380931403EEEFF4E01192A8
:1015100085E0E731F807D9F71092F6031092F70348
:101520001092F8031092F9031092F8041092F90443
:101530001092FA041092FB0421E839E141E254E2EE
:101540006FE083E093E00E94401881E08093990669
:101550001092A506FF2041F010939E06E12FFF2771
:10156000EF52F94F808104C010929E068091D106FF
:101570008093D0068091D0060E94F1081092EF036C
:101580001092EE0381E090E01F910F91FF9008957B
:1015900080918F060E946F2380910106882379F441
:1015A00061E070E080E090E000908F0604C0660F7C
:1015B000771F881F991F0A94D2F70E94C92581E0DE
:1015C00090E00895FC01DB0180910106882329F455
:1015D00010821C9280E090E0089580910603808341
:1015E00080910B038C9380910803909109030895D7
:1015F000CF92DF92EF92FF920F931F93CF93DF93DF
:10160000EE24FF2413E0C12E13E0D12E60911603C7
:10161000C6010E9403180E9426131092AC0600E037
:1016200012C00E941430081771F00E941430082F65
:101630000894E11CF11C81E1E81687E2F80618F035
:10164000EE24FF2405C00E94B40F182F882349F30D
:101650000E941430C82FDD272496112371F006C094
:101660000E9414309927C817D90738F060E880E045
:101670000E949910182F882399F30E940E1311309D
:1016800029F6E0910803F091090384858A3009F076
:10169000BDCF81E090E0A0E0B0E0809301069093A0
:1016A0000206A0930306B093040686850E947B037E
:1016B000E0910803F0910903E785E0939E06FF2778
:1016C000EF52F94F80818093D0060E94F10800917B
:1016D000080310910903E80160E975E0888D88230B
:1016E00071F121E030E040E050E004C0220F331FF0
:1016F000441F551F8A95D2F78091F8049091F90400
:10170000A091FA04B091FB04822B932BA42BB52B50
:101710008093F8049093F904A093FA04B093FB0427
:10172000E88DFF27E250FB4F81E08083888DFB012D
:101730008193BF012196F5E064397F0779F6E801CE
:1017400060E08C8D882349F121E030E040E050E0FA
:1017500004C0220F331F441F551F8A95D2F7809172
:10176000F6039091F703A091F803B091F903822B4F
:10177000932BA42BB52B8093F6039093F703A093A0
:10178000F803B093F903EC8DFF27E250FB4F81E0A3
:1017900080836F5F21966430A1F681E090E0A0E045
:1017A000B0E000908F0604C0880F991FAA1FBB1FCE
:1017B0000A94D2F70E94772481E08093F10310927B
:1017C000010610920206109203061092040681E0B0
:1017D00090E0DF91CF911F910F91FF90EF90DF90FC
:1017E000CF900895782F6093F003823041F5809177
:1017F000F8049091F904A091FA04B091FB0484607C
:101800008093F8049093F904A093FA04B093FB0436
:101810008091F6039091F703A091F803B091F9033A
:1018200088608093F6039093F703A093F803B09336
:10183000F90381E0809300058093010556C0813053
:1018400059F52091F6033091F7034091F803509138
:10185000F9038091F8049091F904A091FA04B091F1
:10186000FB0488628093F8049093F904A093FA042F
:10187000B093FB0424682093F6033093F70340935E
:10188000F8035093F9037093000570930505709366
:1018900003057093010529C0882339F58091F80468
:1018A0009091F904A091FA04B091FB0482608093B6
:1018B000F8049093F904A093FA04B093FB04809188
:1018C000F6039091F703A091F803B091F9038061BA
:1018D0008093F6039093F703A093F803B093F90372
:1018E00081E08093FF048093020581E090E00895F9
:1018F0008A3118F08FEF9FEF0895E82FFF27E2500D
:10190000FB4F8081992787FD90950895EEEFF4E0D5
:10191000119285E0E731F807D9F7089569E170E0A1
:101920000E94FD36682F482F0CC0242F3327F90161
:10193000E250FB4F8081882321F0C901861B910969
:1019400008954F5F493188F320E030E0422F55275A
:10195000FA01E250FB4F8081882339F089E190E061
:10196000861B9109840F951F08952F5F3F4F6217C3
:1019700068F70895EAE7F0E083E08083ACE7B0E041
:1019800080E48C938081806880831092E6068C913D
:10199000807E8C939C918C91807E892B8C93089572
:1019A00088EC90E00E944E2F089580917A00806428
:1019B00080937A0080917A0084FFFCCF0E94D00C43
:1019C000209178003327809179009927982F8827D4
:1019D000822B932B0895FF920F931F93CF93DF9346
:1019E000CDB7DEB722970FB6F894DEBF0FBECDBFDE
:1019F0000E942B0F8C01009711F00E947525159AFB
:101A0000FF248F2D806299279A83898340988BE1E8
:101A10008EBD0DB407FEFDCF89819A81892F99274C
:101A20008EBD0DB407FEFDCF89819A818EBD0DB4A8
:101A300007FEFDCF409A82E090E00E944E2F409832
:101A40008BE58EBD0DB407FEFDCF1EBC0DB407FEA9
:101A5000FDCF8EB59927982F88279A8389831EBC3E
:101A60000DB407FEFDCF89819A812EB53327282B2F
:101A7000392B3A832983409A89819A8186FD05C052
:101A8000F3942FE1F21609F0BCCF0115110519F0FE
:101A9000C8010E942324FF20C9F40E94D50C9A8318
:101AA000898389819A818F3A910530F089819A8161
:101AB0008E5A90409A83898389819A818A54914071
:101AC00098F48AE491E09A8389830EC02DE7F29E10
:101AD0009001112488E293E2821B930B6BE170E08A
:101AE0000E9411377A83698389819A8122960FB681
:101AF000F894DEBF0FBECDBFDF91CF911F910F9144
:101B0000FF900895CF92DF92EF92FF920F931F9371
:101B1000CF93DF93982FEA01122F823009F481C00E
:101B2000833030F4882371F0813009F0D2C010C0C6
:101B3000843009F481C0843008F477C0853009F01E
:101B4000C8C02DC080E880BB8F9A0E94BA0C6AC0C2
:101B50008091E506813009F4C3C09093E5067727AC
:101B600060FF13C08F981092E60680917C00807E03
:101B700080937C0090917C0080917C00807E892BFA
:101B800080937C0088EE93E09FC061FDA9C062FD58
:101B9000A7C067707070672B09F4A2C097C0822F2E
:101BA0008150823008F099C09091E606892F8150CB
:101BB000863018F40E94D50C22C0992319F40E9493
:101BC000EB0C1DC0973051F5F1E0CF2EF4E0DF2E85
:101BD000EE24FF2400E00E94D50C8C159D0508F42E
:101BE0006C01E816F90608F47C018DE790E00E948C
:101BF0004E2F0F5F003479F7C7018C199D09123001
:101C000031F48883892F9927898381E008C01130B6
:101C100029F49695879596958795888380E08F5FC0
:101C200009C08F9A1092E50651C0613009F058C082
:101C30008091E606992756C0613009F051C02730DF
:101C4000D9F42093E60680917C008F7780937C0006
:101C500080917C00806480937C0080917C00807EF9
:101C600080937C0090917C0080917C009360807ECA
:101C7000982B90937C0026C0283020F081E00E94B1
:101C80001A212EC02093E606213049F480917C0071
:101C90008F7780937C0080917C00806403C080916A
:101CA0007C00806C80937C0080917C00807E80939F
:101CB0007C0090917C0080917C00807E892B812B20
:101CC00080937C0088EC90E00E944E2F81E090E0B1
:101CD00009C060E08CE00E94DF2180E090E002C05B
:101CE0008FEF90E0DF91CF911F910F91FF90EF90D8
:101CF000DF90CF90089599279C01265A3E4B0B9771
:101D0000880F991F880F991F280F391FF894409842
:101D100088E18EBD0DB407FEFDCF832F99278EBDC0
:101D20000DB407FEFDCF2EBD0DB407FEFDCF409ACA
:101D300078940895F89440981EBC0DB407FEFDCF2A
:101D40008EB5409A789486FFF5CF08958091FC0671
:101D500099270895CF93DF93DC01409889EC8EBDDD
:101D60000DB407FEFDCF80E88EBD0DB407FEFDCF9C
:101D700092E09150FD01E90FF11D80818EBD0DB4FF
:101D800007FEFDCF9923A9F7409A40988BEC8EBDB2
:101D90000DB407FEFDCF80E88EBD0DB407FEFDCF6C
:101DA00092E09D012E5F3F4FE9019150F901E90F4B
:101DB000F11D80818EBD0DB407FEFDCF9923A1F7E3
:101DC000409A8C918093FD06FD0181818093FE06EF
:101DD00088818093FF06838180930007DF91CF91F4
:101DE0000895409889E18EBD0DB407FEFDCF83E0D4
:101DF0008EBD0DB407FEFDCF86E08EBD0DB407FE8F
:101E0000FDCF409A40988AE18EBD0DB407FEFDCF0C
:101E10008EE08EBD0DB407FEFDCF8EE08EBD0DB4FD
:101E200007FEFDCF409A81E08093ED06089540982B
:101E300089E18EBD0DB407FEFDCF81E08EBD0DB4EE
:101E400007FEFDCF84EC8EBD0DB407FEFDCF409A9A
:101E50001092ED0608958091EB069091EC0608959E
:101E60002091EE063091EF0638603093EF06209314
:101E7000EE06409881E18EBD0DB407FEFDCF832FA5
:101E800099278EBD0DB407FEFDCF2EBD0DB407FE04
:101E9000FDCF409A08952091EE063091EF06377FEE
:101EA0003093EF062093EE06409881E18EBD0DB48D
:101EB00007FEFDCF832F99278EBD0DB407FEFDCF02
:101EC0002EBD0DB407FEFDCF409A089581E08093AA
:101ED000FB062091EE063091EF0620613093EF066D
:101EE0002093EE06409881E18EBD0DB407FEFDCF34
:101EF000832F99278EBD0DB407FEFDCF2EBD0DB4E7
:101F000007FEFDCF409A08951092FB062091EE0641
:101F10003091EF062F7E3093EF062093EE06409827
:101F200081E18EBD0DB407FEFDCF832F99278EBDB5
:101F30000DB407FEFDCF2EBD0DB407FEFDCF409AB8
:101F4000089589B1992766E0969587956A95E1F796
:101F50008170907008958CB1992787FD909588279E
:101F6000990F881F9927089589B19927E6E09695DA
:101F70008795EA95E1F78170907008958091010747
:101F8000882319F480E090E0089580910107109271
:101F90000107992787FD90950895409888E08EBDA8
:101FA0000DB407FEFDCF409A409888E08EBD0DB479
:101FB00007FEFDCF409A08958091EB069091EC06C4
:101FC0000E947525409886E08EBD0DB407FEFDCFBA
:101FD000409A8091EB069091EC060E94232408958C
:101FE0008091EB069091EC060E947525409884E064
:101FF0008EBD0DB407FEFDCF409A8091EB06909107
:10200000EC060E94232408958091EB069091EC0643
:102010000E947525409886E08EBD0DB407FEFDCF69
:10202000409A409882E18EBD0DB407FEFDCF85E059
:102030008EBD0DB407FEFDCF1EBC0DB407FEFDCF57
:10204000409A40988EE28EBD0DB407FEFDCF1EBCB7
:102050000DB407FEFDCF1EBC0DB407FEFDCF409AA8
:102060000E94CD0F8091EB069091EC060E942324F4
:1020700008958091EB069091EC060E94752540989A
:1020800086E08EBD0DB407FEFDCF409A409882E1F8
:102090008EBD0DB407FEFDCF85E08EBD0DB407FEED
:1020A000FDCF88E08EBD0DB407FEFDCF409A40986D
:1020B0008EE28EBD0DB407FEFDCF88E18EBD0DB45E
:1020C00007FEFDCF1EBC0DB407FEFDCF409A0E9457
:1020D000CD0F8091EB069091EC060E942324089589
:1020E0000F931F93082F8091EB069091EC060E94AE
:1020F0007525112707FD1095302F2227206840985D
:1021000083E18EBD0DB407FEFDCF832F99278EBDD1
:102110000DB407FEFDCF2EBD0DB407FEFDCF409AD6
:102120008091EB069091EC060E9423241F910F9161
:1021300008950F931F93CF93DF93CDB7DEB7249706
:102140000FB6F894DEBF0FBECDBF182F062F8091BB
:10215000EB069091EC060E947525679B4CC210928D
:10216000FC06679B25C0319923C040988FE78EBD40
:102170000DB407FEFDCF1EBC0DB407FEFDCF8EB51E
:10218000409A409888E08EBD0DB407FEFDCF409A7E
:10219000409888E08EBD0DB407FEFDCF409A809137
:1021A000EB069091EC060E9423248FEF9FEF2BC249
:1021B00040988FE78EBD0DB407FEFDCF1EBC0DB459
:1021C00007FEFDCF4EB5409A4F7719F540988FE73F
:1021D0008EBD0DB407FEFDCF1EBC0DB407FEFDCFB6
:1021E0008EB5409A409888E08EBD0DB407FEFDCFB5
:1021F000409A409888E08EBD0DB407FEFDCF409A0E
:102200008091EB069091EC060E9423248EEF9FEFC5
:10221000FAC145308CF0E091F006F091F106242FE0
:10222000332727FD30952B5030408481992787FD37
:10223000909582179307F4F540988FE78EBD0DB403
:1022400007FEFDCF60E070E0242F332727FD309597
:1022500006C01EBC0DB407FEFDCF6F5F7F4F862FFB
:1022600099278217930714F43199F3CF409A409835
:102270008FE78EBD0DB407FEFDCF1EBC0DB407FE6B
:10228000FDCF8EB5409A409888E08EBD0DB407FE14
:10229000FDCF409A409888E08EBD0DB407FEFDCF7B
:1022A000409A8091EB069091EC060E9423248DEFDA
:1022B0009FEFA9C1E091F006F091F1064C504383E5
:1022C0001123B1F0E091F006F091F1068381992796
:1022D00087FD9095202F33278217930749F080912F
:1022E000EB069091EC060E9423248AEF9FEF8BC1AE
:1022F00040988FE78EBD0DB407FEFDCFFE013196ED
:102300009E012D5F3F4F1EBC0DB407FEFDCF8EB565
:102310008193E217F307B9F7409AE091F006F09144
:10232000F10689819A81B5E096958795BA95E1F78E
:102330008170878340988FE78EBD0DB407FEFDCF77
:102340001EBC0DB407FEFDCFE091F006F091F10642
:102350008EB58083409A40988FE78EBD0DB407FEFE
:10236000FDCF80E007C01EBC0DB407FEFDCF8F5F20
:10237000843011F03199F7CF409A40988FE78EBDA5
:102380000DB407FEFDCF20E030E01EBC0DB407FE0B
:10239000FDCFE091F006F091F106E20FF31F8EB54C
:1023A00081832F5F3F4F2230310579F7409A898131
:1023B0009A8183FF56C040988FE78EBD0DB407FE0B
:1023C000FDCFE7EEF6E01EBC0DB407FEFDCF8EB5E7
:1023D000819386E0EB3EF807B1F7409A409889E98F
:1023E0008EBD0DB407FEFDCF80E88EBD0DB407FE97
:1023F000FDCF92E09150E92FFF27E951F94F8081FD
:102400008EBD0DB407FEFDCF9923A1F7409A4098E9
:102410008BE98EBD0DB407FEFDCF80E88EBD0DB4F7
:1024200007FEFDCF92E09150E92FFF27E751F94FCA
:1024300080818EBD0DB407FEFDCF9923A1F7409A90
:1024400040988CE08EBD0DB407FEFDCF409A81E030
:102450008093FC06E091F006F091F10683818450B0
:10246000838340988FE78EBD0DB407FEFDCF40E01B
:1024700050E011C01EBC0DB407FEFDCFE091F00688
:10248000F091F1060580F681E02DE60FF11D8EB585
:1024900080834F5F5F4F642FE091F006F091F1066B
:1024A000242F33278381992787FD90952817390793
:1024B0000CF3409A40988FE78EBD0DB407FC0AC01C
:1024C000FCCF0DB407FEFDCF5EB5409A40988FE774
:1024D0008EBD02C01EBCF5CF0DB407FEFDCFFE01C0
:1024E00033969E012B5F3F4F1EBC0DB407FEFDCF00
:1024F0008EB58193E217F307B9F7409AE091F006A1
:10250000F091F1068B81808740E020E030E00AC046
:10251000E091F006F091F10685819681A80FB91F30
:102520008C91480F822FE091F006F091F1062F5F19
:102530003F4FA82FBB278381992787FD9095A81728
:10254000B90734F3451719F140988FE78EBD0DB4E4
:1025500007FEFDCF1EBC0DB407FEFDCF8EB5409A21
:10256000409888E08EBD0DB407FEFDCF409A40989C
:1025700088E08EBD0DB407FEFDCF409A8091EB063A
:102580009091EC060E9423248CEF9FEF3CC08C813D
:1025900087FF0EC0809101078F5F809301078091B4
:1025A000EB069091EC060E94232481E090E02BC082
:1025B00040988FE78EBD0DB407FEFDCF1EBC0DB455
:1025C00007FEFDCF8EB5409A409888E08EBD0DB4D1
:1025D00007FEFDCF409A409888E08EBD0DB407FEFF
:1025E000FDCF409A8091EB069091EC060E94232447
:1025F0008BEF9FEF08C08091EB069091EC060E9454
:10260000232480E090E024960FB6F894DEBF0FBE3E
:10261000CDBFDF91CF911F910F9108958091EB066F
:102620009091EC060E9475251092F806409886E07D
:102630008EBD0DB407FEFDCF409A10920107809128
:10264000EB069091EC060E94232408958091EB06FE
:102650009091EC060E94752581E08093F8064098E1
:1026600083E08EBD0DB407FEFDCF409A409888E010
:102670008EBD0DB407FEFDCF409A109201078091E8
:10268000EB069091EC060E94232408958091EB06BE
:102690009091EC060E94752581E08093F8064098A1
:1026A00083E08EBD0DB407FEFDCF409A409888E0D0
:1026B0008EBD0DB407FEFDCF409A109201078091A8
:1026C000EB069091EC060E94232408951F93182F87
:1026D0008091EB069091EC060E947525212F3327FF
:1026E0002F713070206E306A409885E18EBD0DB438
:1026F00007FEFDCF832F99278EBD0DB407FEFDCFBA
:102700002EBD0DB407FEFDCF409A8091EB0690914F
:10271000EC060E9423241F910895EF92FF920F93DD
:102720001F93CF93DF93CDB7DEB722970FB6F89400
:10273000DEBF0FBECDBF8C018091EB069091EC0601
:102740000E9475255091ED06552339F040988DE093
:102750008EBD0DB407FEFDCF409AF8014281642F73
:10276000772767FD7095A0E020E030E008C0F80111
:1027700083819481E80EF91EF7018081A80F822FD2
:102780002F5F3F4FE82EFF24E616F70684F3942FC1
:10279000945F51119C5F6799FECF4E99FCCFF894DE
:1027A000409889E08EBD0DB407FEFDCF409A409859
:1027B00089E08EBD0DB407FEFDCF409A40988EE3B0
:1027C0008EBD0DB407FC05C0FCCF0DB407FC30C1B5
:1027D000FCCF9EBDFACF81E698E89A838983552382
:1027E00029F089819A8188609A83898340988EE351
:1027F0008EBD0DB407FEFDCFFE0131969E012D5F0B
:102800003F4F80818EBD0DB407FEFDCF3196E2179C
:10281000F307B9F7409A40988EE38EBD0DB407FCDC
:1028200005C0FCCF0DB407FC0EC1FCCF8091F206B1
:102830008EBDF8CF0DB407FEFDCF20E030E0F901EA
:10284000EC50F94F80818EBD0DB407FEFDCF2F5F98
:102850003F4F2230310599F7409A40988EE38EBD64
:102860000DB407FEFDCF20E030E0F801E20FF31FCA
:1028700080818EBD0DB407FEFDCF2F5F3F4F22300C
:10288000310599F7409A40988EE38EBD0DB407FE4E
:10289000FDCF20E030E0F901EA50F94F80818EBD94
:1028A0000DB407FEFDCF2F5F3F4F2230310599F762
:1028B000409A552399F040988EE38EBD0DB407FEE3
:1028C000FDCFEDEFF6E080818EBD0DB407FEFDCFAC
:1028D000319687E0E130F807B1F7409A40988EE3EF
:1028E0008EBD0DB407FEFDCF20E030E00DC0F80135
:1028F00083819481480F591FFA0180818EBD0DB4E8
:1029000007FEFDCF2F5F3F4F422F55274617570732
:1029100074F3409A40988EE38EBD0DB407FC05C059
:10292000FCCF0DB407FC94C0FCCFAEBDFACF8091B4
:10293000F806882339F4409883E08EBD0DB407FE75
:10294000FDCF409A40981EBC0DB407FEFDCF8EB55A
:10295000409A81FFF7CF00E0409885E08EBD0DB42E
:1029600007FEFDCF409A40981EBC0DB407FEFDCF78
:102970001EB5409A0F5F053651F478948091EB06AE
:102980009091EC060E94232480E090E068C084E6E9
:1029900090E00E945F1E13FD08C0DECF409884E0E7
:1029A0008EBD0DB407FEFDCF409A78944E9BFECFAE
:1029B0004E99FECF8091FB06882391F084EA92E045
:1029C0000E945F1E319B0EC040988FE78EBD0DB4F4
:1029D00007FEFDCF1EBC0DB407FEFDCF8EB5409A9D
:1029E00011E00FC0409888E08EBD0DB407FEFDCF0A
:1029F000409A409888E08EBD0DB407FEFDCF409A06
:102A000010E0F894409886E08EBD0DB407FEFDCF2F
:102A1000409A78948091F2068F5F8093F2068091BD
:102A2000EB069091EC060E942324812F992717C072
:102A3000409A81E498E89A8389838091FB068823F1
:102A400009F0C9CECCCE409A40988EE38EBDF2CE2E
:102A5000409AF8018581882309F069CF9FCF22969B
:102A60000FB6F894DEBF0FBECDBFDF91CF911F919F
:102A70000F91FF90EF9008958F929F92BF92CF9207
:102A8000DF92EF92FF920F931F93CF93DF93CDB717
:102A9000DEB722970FB6F894DEBF0FBECDBF8C0114
:102AA0006B017A0149018091EB069091EC060E943E
:102AB00075250E941430409888E08EBD0DB407FE45
:102AC000FDCF409A409888E08EBD0DB407FEFDCF43
:102AD000409A6799FECF4E99FCCFF894409889E0D0
:102AE0008EBD0DB407FEFDCF409A409889E08EBDA3
:102AF0000DB407FEFDCF409AF8016281462F55279D
:102B000047FD5095BB2420E030E007C0F8018381E9
:102B10009481A80FB91F8C91B80E822F2F5F3F4F61
:102B2000A82FBB27A417B5078CF3962F945F409866
:102B30008EE38EBD0DB407FC05C0FCCF0DB407FCC1
:102B400018C1FCCF9EBDFACF81E698E89A838983AD
:102B500040988EE38EBD0DB407FEFDCFFE01319689
:102B60009E012D5F3F4F80818EBD0DB407FEFDCFCE
:102B70003196E217F307B9F7409A40988EE38EBD7D
:102B80000DB407FC05C0FCCF0DB407FCFBC0FCCFA7
:102B90008091F2068EBDF8CF0DB407FEFDCF20E088
:102BA00030E0F901EC50F94F80818EBD0DB407FE85
:102BB000FDCF2F5F3F4F2230310599F7409A409863
:102BC0008EE38EBD0DB407FEFDCF20E030E0F801AE
:102BD000E20FF31F80818EBD0DB407FEFDCF2F5F86
:102BE0003F4F2230310599F7409A40988EE38EBDD1
:102BF0000DB407FEFDCF20E030E0F901EA50F94FB7
:102C000080818EBD0DB407FEFDCF2F5F3F4F223078
:102C1000310599F7409AB701C6010E949930F80131
:102C20008581882379F18091F806882339F44098CA
:102C300083E08EBD0DB407FEFDCF409AEE24409890
:102C400085E08EBD0DB407FEFDCF409A40981EBCB6
:102C50000DB407FEFDCFFEB4409AE394F5E6EF16FF
:102C600051F478948091EB069091EC060E94232415
:102C700080E090E08EC084E690E00E945F1EF3FC4E
:102C800008C0DDCF409884E08EBD0DB407FEFDCFB7
:102C9000409A809173020E949A19809184009091C9
:102CA0008500F4019183808340988EE38EBD0DB43E
:102CB00007FEFDCFF8018281482F552747FD50952B
:102CC00020E030E00CC0F80183819481A80FB91F87
:102CD0008C918EBD0DB407FEFDCF2F5F3F4FA22F0D
:102CE000BB27A417B5077CF3409A40988EE38EBDAE
:102CF0000DB407FC05C0FCCF0DB407FC48C0FCCFE9
:102D0000BEBCFACF4E9BFECFF8944E99FECF4098B2
:102D100088E08EBD0DB407FEFDCF409A409888E054
:102D20008EBD0DB407FEFDCF409A409889E08EBD60
:102D30000DB407FEFDCF409A409889E08EBD0DB4DA
:102D400007FEFDCF409A409886E08EBD0DB407FE89
:102D5000FDCF409A78948091F2068F5F8093F206BF
:102D60008091EB069091EC060E94232481E090E094
:102D700010C0409AF8018681882309F0E5CE81E4ED
:102D800098E8E4CE409A40988EE38EBD05CF409AF5
:102D9000B9CF22960FB6F894DEBF0FBECDBFDF913C
:102DA000CF911F910F91FF90EF90DF90CF90BF9048
:102DB0009F908F900895CF93DF93CDB7DEB7229782
:102DC0000FB6F894DEBF0FBECDBF9A838983909370
:102DD000F7068093F60684EF91E00E944E2F40980C
:102DE0008AEE8EBD0DB407FEFDCF80E88EBD0DB41A
:102DF00007FEFDCFFE0131969E012D5F3F4F808182
:102E00008EBD0DB407FEFDCF3196E217F307B9F77B
:102E1000409A84EF91E00E944E2F22960FB6F894CC
:102E2000DEBF0FBECDBFDF91CF9108956F927F922D
:102E30008F929F92AF92BF92CF92DF92EF92FF92CA
:102E40000F931F93CF93DF93CDB7DEB722970FB6C3
:102E5000F894DEBF0FBECDBF8C0184E690E00E94E7
:102E60004E2F7801C12CB1E0DB2E3E010894611C8D
:102E7000711CA3E08A2E912C8C0E9D1EF70180817F
:102E8000218133279927982F8827282B392B3A839C
:102E9000298384E690E00E944E2F40988C2D806814
:102EA0008EBD0DB407FEFDCFC60195958795807C3C
:102EB0008EBD0DB407FEFDCF83015301F501808166
:102EC0008EBD0DB407FEFDCF0894A11CB11CA81443
:102ED000B904A1F7409A0894E11CF11C82E090E04B
:102EE000C80ED91E90E1C91691E0D90639F684E6DC
:102EF00090E00E944E2F20E131E040E451E01A8240
:102F000019824098842F80688EBD0DB407FEFDCFD6
:102F1000CA0195958795807C8EBD0DB407FEFDCFC7
:102F2000F80180818EBD0DB407FEFDCF3196EA1504
:102F3000FB05B9F7409A4098822F80688EBD0DB48A
:102F400007FEFDCFC90195958795807C8EBD0DB498
:102F500007FEFDCFF80180818EBD0DB407FEFDCFC9
:102F60003196EA15FB05B9F7409A2E5F3F4F4E5F49
:102F70005F4FE1E02E313E0711F681E090E09A8349
:102F8000898340988EEC8EBD0DB407FEFDCF80E89E
:102F90008EBD0DB407FEFDCFF80180818EBD0DB44E
:102FA00007FEFDCF3196EA15FB05B9F7409A409828
:102FB0008EE98EBD0DB407FEFDCF80E88EBD0DB449
:102FC00007FEFDCFF80180818EBD0DB407FEFDCF59
:102FD0000F5F1F4F0A151B05A9F7409A22960FB6DF
:102FE000F894DEBF0FBECDBFDF91CF911F910F913F
:102FF000FF90EF90DF90CF90BF90AF909F908F9019
:103000007F906F9008951F93CF93DF93EC01162F5D
:103010008091EB069091EC060E947525409888E01F
:103020008EBD0DB407FEFDCF409A409888E08EBD5E
:103030000DB407FEFDCF409A812F0E947B0ED093E6
:10304000F106C093F0068091EB069091EC060E9489
:103050002324DF91CF911F9108951F93182F809102
:10306000EB069091EC060E947525812F0E947B0E45
:103070008091EB069091EC060E9423241F91089505
:10308000DF92EF92FF920F931F93CF93DF93CDB711
:10309000DEB722970FB6F894DEBF0FBECDBF8C010E
:1030A000D62E5A834983790164E181E00E94A823E6
:1030B0009093EC068093EB06892B31F40E94EF2667
:1030C000682F8FE00E94DF218091EB069091EC0643
:1030D0000E9475258F3F21F48AE891E00E94FE1D31
:1030E000159A88EE93E00E945F1E169881E090E0AA
:1030F0000E945F1E169A84E690E00E945F1EF8947C
:10310000409881E08EBD0DB407FEFDCF409A82EE5F
:1031100092E09093EF068093EE06409881E18EBD99
:103120000DB407FEFDCF82E08EBD0DB407FEFDCFCE
:1031300082EE8EBD0DB407FEFDCF409A409882E12D
:103140008EBD0DB407FEFDCF85E08EBD0DB407FE2C
:10315000FDCF1EBC0DB407FEFDCF409A40988CE118
:103160008EBD0DB407FEFDCF1EBC0DB407FEFDCF16
:103170008FE78EBD0DB407FEFDCF409A409889E1E0
:103180008EBD0DB407FEFDCF81E08EBD0DB407FEF0
:10319000FDCF84EC8EBD0DB407FEFDCF409A409864
:1031A00087E18EBD0DB407FEFDCF8AE18EBD0DB463
:1031B00007FEFDCF86E58EBD0DB407FEFDCF409A1C
:1031C00084EF91E00E944E2F409888EE8EBD0DB4A2
:1031D00007FEFDCF80E88EBD0DB407FEFDCFFE01DA
:1031E00031969E012D5F3F4F80818EBD0DB407FE4D
:1031F000FDCF3196E217F307B9F7409A84EF91E0DB
:103200000E944E2F78948D2D0E947B0E78941093FF
:10321000F1060093F00689819A819093F5068093D8
:10322000F406F092F706E092F6061092F20610927B
:10323000F8060E949A0E8091EB069091EC060E948F
:1032400023248F3F39F48DE591E00E94FE1D82E03A
:103250000E941A211092FB061092ED061092FC06B5
:1032600022960FB6F894DEBF0FBECDBFDF91CF918F
:103270001F910F91FF90EF90DF9008952091140718
:1032800080910207281781F0E22FFF27ED5FF84FAA
:10329000E081822F8F5F80931407803111F41092A8
:1032A00014078E2F992708958091C80087FFFCCFBF
:1032B0008091C8008F778093C8008091CE009927B5
:1032C0000895882351F48091C000992787FD909537
:1032D0008827990F881F99270895813019F080E079
:1032E00090E0089520E030E090911407809102076B
:1032F000981711F021E030E0C901089585B7806189
:1033000085BF86E084B987E085B981E087B988B94F
:103310008CE38DB98BE08AB98EE38EB988E781B9E9
:1033200080E482B908950E947E1980E58CBD81E019
:103330008DBD08958F3F09F47FC0482F55279A010E
:103340002770307022303105A9F12330310544F463
:103350002115310589F02130310509F06DC01CC0FF
:103360002430310509F446C0243031059CF1253064
:10337000310509F061C04EC022B1A3E056954795D2
:10338000AA95E1F781E090E002C0880F991F4A9565
:10339000E2F7282B22B94DC085B1F3E05695479549
:1033A000FA95E1F702C0220F331F4A95E2F7822B0C
:1033B00085B93FC028B1E3E056954795EA95E1F716
:1033C00081E090E002C0880F991F4A95E2F7282B10
:1033D00028B92FC02BB173E0569547957A95E1F740
:1033E00081E090E002C0880F991F4A95E2F7282BF0
:1033F0002BB91FC02EB163E0569547956A95E1F74A
:1034000081E090E002C0880F991F4A95E2F7282BCF
:103410002EB90FC021B333E0569547953A95E1F7A1
:1034200081E090E002C0880F991F4A95E2F7282BAF
:1034300021BB81E090E008958FEF9FEF08958F3FCB
:1034400009F486C0482F55279A0127703070223022
:103450003105C1F12330310544F42115310589F0DE
:103460002130310509F074C01DC02430310509F444
:103470004BC024303105BCF12530310509F068C05E
:1034800054C022B173E0569547957A95E1F781E0F3
:1034900090E002C0880F991F4A95E2F78095822339
:1034A00082B953C095B163E0569547956A95E1F7A7
:1034B00002C0220F331F4A95E2F7822F809589239D
:1034C00085B943C028B133E0569547953A95E1F761
:1034D00081E090E002C0880F991F4A95E2F780953D
:1034E000822388B932C02BB193E0569547959A95BF
:1034F000E1F781E090E002C0880F991F4A95E2F75A
:10350000809582238BB921C02EB183E056954795D3
:103510008A95E1F781E090E002C0880F991F4A95F3
:10352000E2F7809582238EB910C021B3B3E056959F
:103530004795BA95E1F781E090E002C0880F991FA6
:103540004A95E2F78095822381BB81E090E008955F
:103550008FEF9FEF08958F3FA9F1282F3327C901DF
:103560008770907082309105A9F0833091052CF41A
:10357000009761F0019731F50BC08430910571F02F
:10358000843091054CF00597E9F40AC080B109C078
:1035900083B107C086B105C089B103C08CB101C039
:1035A0008FB19927E3E036952795EA95E1F702C0B8
:1035B000959587952A95E2F7992787FD90958170D3
:1035C000907008958FEF9FEF08958F3F09F403C126
:1035D000282F3327A901477050704230510509F454
:1035E0005CC04330510544F44115510591F0413020
:1035F000510509F0F0C034C04430510509F49BC0B6
:10360000443051050CF470C04530510509F0E3C059
:10361000B9C080B1A90173E0569547957A95E1F755
:103620009927042E02C0959587950A94E2F780FDAC
:103630000BC022B181E090E002C0880F991F4A952B
:10364000E2F7282B22B9C4C022B181E090E002C089
:10365000880F991F4A95E2F78095822382B9B8C0F6
:1036600083B163E0369527956A95E1F79927022E95
:1036700002C0959587950A94E2F702C0440F551F42
:103680002A95E2F780FD03C085B1842B04C095B173
:10369000842F8095892385B99BC086B1A90193E0C9
:1036A000569547959A95E1F79927042E02C095956E
:1036B00087950A94E2F780FD0BC028B181E090E085
:1036C00002C0880F991F4A95E2F7282B28B980C0BD
:1036D00028B181E090E002C0880F991F4A95E2F777
:1036E0008095822388B974C089B1A901B3E0569549
:1036F0004795BA95E1F79927042E02C095958795CD
:103700000A94E2F780FD0BC02BB181E090E002C08B
:10371000880F991F4A95E2F7282B2BB959C02BB176
:1037200081E090E002C0880F991F4A95E2F78095EA
:1037300082238BB94DC08CB1A901A3E05695479562
:10374000AA95E1F79927042E02C0959587950A94CA
:10375000E2F780FD0BC02EB181E090E002C0880F3F
:10376000991F4A95E2F7282B2EB932C02EB181E07D
:1037700090E002C0880F991F4A95E2F78095822356
:103780008EB926C08FB1A901F3E056954795FA95F9
:10379000E1F79927042E02C0959587950A94E2F7E0
:1037A00080FD0BC021B381E090E002C0880F991F1B
:1037B0004A95E2F7282B21BB0BC021B381E090E0B2
:1037C00002C0880F991F4A95E2F78095822381BB3A
:1037D00081E090E008958FEF9FEF08958F3F09F407
:1037E00012C1482F5527662309F090C0CA0187707F
:1037F00090708230910509F43EC0833091053CF40D
:10380000009789F08130910509F0FDC021C0843016
:10381000910509F454C0843091050CF43EC005971D
:1038200009F0F1C05EC031B1B3E056954795BA9545
:10383000E1F781E090E002C0880F991F4A95E2F716
:10384000282F2095232321B922B1822B82B9D8C0F9
:1038500024B1A3E056954795AA95E1F702C0880FD9
:10386000991F4A95E2F7982F8095822384B985B1F4
:10387000982B95B9C5C037B1F3E056954795FA95A1
:10388000E1F781E090E002C0880F991F4A95E2F7C6
:10389000282F2095232327B935C03AB1E3E0569568
:1038A0004795EA95E1F781E090E002C0880F991F03
:1038B0004A95E2F7282F209523232AB923C03DB14A
:1038C00073E0569547957A95E1F781E090E002C064
:1038D000880F991F4A95E2F7282F209523232DB9A9
:1038E00011C030B363E0569547956A95E1F781E0E2
:1038F00090E002C0880F991F4A95E2F7282F209583
:10390000232320BB25B1822B85B97AC09A01277069
:10391000307022303105A9F12330310544F42115EE
:10392000310589F02130310509F06DC01CC024300B
:10393000310509F446C0243031059CF125303105AC
:1039400009F061C04EC021B133E0569547953A95D4
:10395000E1F781E090E002C0880F991F4A95E2F7F5
:10396000282B21B94DC084B193E0569547959A957F
:10397000E1F702C0220F331F4A95E2F7822B84B988
:103980003FC027B1B3E056954795BA95E1F781E07E
:1039900090E002C0880F991F4A95E2F7282B27B9BB
:1039A0002FC02AB1A3E056954795AA95E1F781E08B
:1039B00090E002C0880F991F4A95E2F7282B2AB998
:1039C0001FC02DB1F3E056954795FA95E1F781E0D8
:1039D00090E002C0880F991F4A95E2F7282B2DB975
:1039E0000FC020B3E3E056954795EA95E1F781E0F3
:1039F00090E002C0880F991F4A95E2F7282B20BB60
:103A000081E090E008958FEF9FEF0895882319F0EB
:103A10008FEF9FEF089580B1992787FD909580954E
:103A200090958827990F881F99270895009711F47A
:103A300084E109C08130910511F48CE104C0823029
:103A4000910531F484E20E94E51A81E090E0089546
:103A5000039719F08FEF9FEF08958CE20E94E51A0B
:103A600081E090E00895009711F484E109C081306D
:103A7000910511F48CE104C08230910531F484E2A7
:103A80000E949A1981E090E00895039719F08FEF52
:103A90009FEF08958CE20E949A1981E090E00895CA
:103AA000009711F484E109C08130910511F48CE193
:103AB00004C08230910531F484E20E941F1A81E033
:103AC00090E00895039719F08FEF9FEF08958CE22F
:103AD0000E941F1A81E090E00895882319F085B7AD
:103AE0008F7E02C085B7806185BF81E090E0089538
:103AF000982F8091C00085FFFCCF8091C0008F7D02
:103B00008093C0009093C6000895982F8091C800BC
:103B100085FFFCCF9093CE000895292F3327209363
:103B2000C5008093C40086E08093C200E1ECF0E021
:103B300080818B7F8083A0ECB0E08C9182608C933D
:103B40008081886180830895292F33272093CD00B9
:103B50008093CC0086E08093CA00E9ECF0E080819D
:103B60008B7F8083A8ECB0E08C9182608C93808105
:103B70008861808308958091C00087FFFCCF809189
:103B8000C0008F778093C0008091C6009927089568
:103B90000E94A41D6EE379E185E89DE10E94CD3489
:103BA0009093BB078093BA076EE379E185E89DE1C6
:103BB0000E94CD349093B9078093B8070E94E62203
:103BC000809313078F3F19F48EE00E94E621109234
:103BD0001407109202078091C90080688093C90081
:103BE0000895809113078F3F19F48EE00E94E6211B
:103BF00080911307992787FD90950895CF93DF93C0
:103C0000EC0107C06091BA077091BB0799270E9429
:103C10001B35FE01219684918823A1F7DF91CF9176
:103C200008951F920F920FB60F9211242F933F9376
:103C30004F935F936F937F938F939F93AF93BF93B4
:103C4000EF93FF938091C9008F778093C900809193
:103C5000C80087FFFCCF8091C8008F778093C80091
:103C60009091CE0080910207E82FFF27ED5FF84F7B
:103C700090838F5F80930207803111F410920207C6
:103C8000809113070E9477248091C8008F778093DA
:103C9000C8008091C90080688093C900FF91EF91AE
:103CA000BF91AF919F918F917F916F915F914F9154
:103CB0003F912F910F900FBE0F901F90189500000D
:103CC0000000000000000197D1F70895FC01A7E073
:103CD000B0E00E947D37802D808381E090E00895E0
:103CE000FC018081A7E0B0E0082E0E94853781E0CA
:103CF00090E00895DC010E947D37802D992708957A
:103D0000FC01A0E0B0E00E947D37402D4383A1E09C
:103D1000B0E00E947D37802D8283A2E0B0E00E9457
:103D20007D37302D3183A3E0B0E00E947D37902DA8
:103D30009083A4E0B0E00E947D37202D830F840F94
:103D4000890F281719F481E090E008958FEF9FEF15
:103D50000895FC01A5E0B0E00E947D37802D8083AE
:103D600081E090E00895FC01A6E0B0E00E947D377C
:103D7000802D808381E090E00895AC0120E030E068
:103D8000D90118960E947D37802DFA01E20FF31FAA
:103D900080832F5F3F4F2031310591F781E090E024
:103DA0000895DC01062E0E9485370895FC0180816C
:103DB000A6E0B0E0082E0E94853781E090E00895EB
:103DC000AC0120E030E0D9011896FA01E20FF31FB0
:103DD0008081082E0E9485372F5F3F4F20313105AB
:103DE00091F781E090E00895F8940895789408950B
:103DF00085E690E008950E943D2C0895EF92FF9291
:103E00000F931F93CF93DF93EC018B017A01898588
:103E1000823021F080918207888301C018828091CE
:103E20008207833020F060E087E00E94DF218985EF
:103E3000823029F0809182078F5F80938207809182
:103E40008207882319F481E080938207888199276B
:103E500087FD9095FC0145E0EE0FFF1F4A95E1F7C5
:103E6000E80FF91FE95EF84F1183008388819927D5
:103E700087FD9095FC0135E0EE0FFF1F3A95E1F7C5
:103E8000E80FF91FE95EF84F8885828788819927B6
:103E900087FD9095FC0125E0EE0FFF1F2A95E1F7C5
:103EA000E80FF91FE95EF84F83E081872881822FB0
:103EB000992787FD9095FC0105E0EE0FFF1F0A95FD
:103EC000E1F7E80FF91FE95EF84F2087888199270D
:103ED00087FD9095FC0115E0EE0FFF1F1A95E1F7A5
:103EE000E80FF91FE95EF84F15820881112707FDD9
:103EF00010952B853C854D855E856F8578898989F0
:103F00009A890E94622AF801B5E0EE0FFF1FBA9568
:103F1000E1F7E00FF11FE95EF84F948F838F08817E
:103F2000112707FD10952B8D3C8D4D8D5E8D6F8D6E
:103F300078A189A19AA10E94622AF801A5E0EE0F5A
:103F4000FF1FAA95E1F7E00FF11FE95EF84F968B8E
:103F5000858B8881992787FD9095FC0175E0EE0F90
:103F6000FF1F7A95E1F7E80FF91FE95EF84F8589A1
:103F70009689238D348D820F931F908F878B0881B4
:103F8000112707FD10952B893C894D895E896F8922
:103F9000788D898D9A8D0E94622AF80165E0EE0F76
:103FA000FF1F6A95E1F7E00FF11FE95EF84F968F6A
:103FB000858F8881992787FD9095FC0155E0EE0F4C
:103FC000FF1F5A95E1F7E80FF91FE95EF84F858D5D
:103FD000968D928F818F8881992787FD9095FC011E
:103FE00045E0EE0FFF1F4A95E1F7E80FF91FE95E84
:103FF000F84F81E090E090A3878F8881992787FD13
:104000009095FC0135E0EE0FFF1F3A95E1F7E80FC0
:10401000F91FE95EF84FF382E2828881992787FDD4
:104020009095FC0125E0EE0FFF1F2A95E1F7E80FC0
:10403000F91FE95EF84F81E0848781E090E0DF912D
:10404000CF911F910F91FF90EF9008958F929F92C3
:10405000AF92BF92CF92DF92EF92FF920F931F9396
:10406000CF93DF936FE1A62E67E0B62ECC24DD243C
:104070004501EC2CF501F080FFEFFF1691F0E40113
:1040800000E010E0E01639F08881F81621F46F2D79
:1040900085E00E94DF210F5F1F4FA19603301105BD
:1040A00089F70894C11CD11C81E290E0A80EB91ECA
:1040B00093E0C916D104E9F60E940426282F33277D
:1040C00027FD3095F90155E0EE0FFF1F5A95E1F7F6
:1040D000E20FF31FE95EF84F32853093950721E236
:1040E0008202C0011124895E984F909394078093B7
:1040F00093079093850780938407309386070E94E7
:104100003C330E9422330E946033FFCF0F931F93F2
:10411000CF93DF93CDB7DEB7A3970FB6F894DEBF8A
:104120000FBECDBF0E94E622809383078F3F21F40C
:1041300060E08EE00E94DF210E949332882321F408
:1041400060E086E00E94DF211092860710929407BB
:10415000109293071092850710928407109295078A
:10416000109292078FEF80937C0780937E07809355
:104170007D0780937F07809381078093800793E674
:104180009093210780931F079093420780934007E5
:104190009093630780936107E6E9F7E0CF01059606
:1041A00094838383F783E683FC0127E0853A9207B3
:1041B000A9F710929807109297071092A9071092EA
:1041C000A80710928907109288070F9790931607F7
:1041D0008093150763E27CE28E010F5F1F4FC801D9
:1041E0000E94E03240E850E06FE076E0C8010E94B3
:1041F000413385E580930F0619861C8E1D8E1E8E19
:104200001F8E18A219A21AA21BA291E0988782E021
:104210008A879B87C8010E94ED28A3960FB6F89461
:10422000DEBF0FBECDBFDF91CF911F910F910895DB
:10423000F894FFCFE0919307F09194078487089555
:10424000E0919307F0919407848599270895DC0104
:10425000FB0180910006882319F480E090E0089526
:104260008083809113038C9381E090E008951F93E5
:1042700080910006882309F49EC00E94F41E0E94CB
:10428000F41E82E793E00E94FE1D8091130399279C
:104290009F938F9384E992E09F938F930E94483578
:1042A0008EE693E00E94FE1D0F900F900F900F90EE
:1042B00080910006843110F0109200068091000673
:1042C0009927AA27BB27FC013197E231F105F0F5C8
:1042D000EA59FF4FEE0FFF1F0590F491E02D09946E
:1042E00087E493E035C083E393E032C08DE193E04F
:1042F0002FC082E093E02CC08CEE92E029C084EDC8
:1043000092E026C081EC92E023C08EEA92E020C0C9
:1043100080E992E01DC08BE692E01AC08FE592E042
:1043200017C084E492E014C085E392E011C084E2F7
:1043300092E00EC080E192E00BC080EF91E008C0F7
:1043400088ED91E005C08DEB91E002C086EB91E035
:104350000E94FE1D6091BA077091BB078DE090E04E
:104360000E941B356091BA077091BB078AE090E00C
:104370000E941B3582E090E00E94501D83E090E097
:104380000E94331D10E088EE93E00E944E2F1F5FC5
:104390001436C9F783E090E00E94501D82E090E05F
:1043A0000E94331D10E088EE93E00E944E2F1F5FA5
:1043B0001436C9F7DFCF80E090E01F910895809315
:1043C0000006609313030E9437210895809300062E
:1043D000E0919307F09194078085809313030E94E6
:1043E00037210895992787FD9095FC0125E0EE0F70
:1043F000FF1F2A95E1F7E80FF91FE95EF84FA28148
:10440000B3818C91853529F085E58C938FEF9FEFF3
:104410000895808191818050924218F481E090E06B
:10442000089582E10E94E6218FEF9FEF08956F9239
:104430007F928F929F92AF92BF92CF92DF92EF9234
:10444000FF920F931F93CF93DF938EE793E00E9429
:10445000FE1DE0919307F09194078085992787FDD1
:1044600090959F938F9387E992E09F938F930E94FB
:104470004835E0919307F0919407028113811F93CF
:104480000F9380EA92E09F938F930E944835F80142
:10449000808199279F938F935DEAC52E52E0D52E98
:1044A000DF92CF920E944835E0919307F0919407F4
:1044B000808191819F938F934AEBE42E42E0F42E0A
:1044C000FF92EF920E944835809193079091940754
:1044D0009F938F9304EC12E01F930F930E94483533
:1044E000C7E1D7E0AA24BB248DB79EB744960FB688
:1044F000F8949EBF0FBE8DBF34ED632E32E0732E55
:104500004601670178010A811B811F930F93BF92B7
:10451000AF927F926F920E944835F801808199276F
:104520009F938F939F928F920E94483588819981A3
:104530009F938F93DF92CF920E944835DF93CF9362
:10454000FF92EF920E9448350894A11CB11CA196DD
:104550008DB79EB742960FB6F8949EBF0FBE8DBF23
:1045600093E0A916B10479F6DF91CF911F910F91D5
:10457000FF90EF90DF90CF90BF90AF909F908F9083
:104580007F906F900895CF93DF93E0919307F09120
:104590009407C281D3818881853539F00E94172222
:1045A00081E00E94E62185E58883E0919307F09100
:1045B0009407808191818050924228F00E941722B6
:1045C00082E10E94E621DF91CF9108954091F203AC
:1045D0005091F3036091F4037091F50320E030E013
:1045E000DB01CA01022E04C0B695A7959795879561
:1045F0000A94D2F781709070892BE9F481E090E001
:10460000A0E0B0E0022E04C0880F991FAA1FBB1FB4
:104610000A94D2F7842B952BA62BB72B8093F20309
:104620009093F303A093F403B093F503822F99279B
:1046300087FD909508952F5F3F4F2032310581F619
:104640008FEF9FEF0895E0919307F09194076585B0
:104650007685878590890895EF92FF920F931F9337
:1046600021E030E040E050E004C0220F331F441F3F
:10467000551F8A95D2F7E0919307F0919407E5844E
:10468000F68407851089DA01C9018E219F21A023B4
:10469000B1230097A105B10519F48FEF9FEF1AC060
:1046A0002095309540955095E222F322042315235E
:1046B000E586F6860787108B81899289A389B4895C
:1046C00082239323A423B523818B928BA38BB48B5A
:1046D00081E090E01F910F91FF90EF900895682F77
:1046E000772767FD70958091F2039091F303A09175
:1046F000F403B091F503062E04C0B695A7959795DF
:1047000087950A94D2F781709070892B19F48FEFF6
:104710009FEF0895E0919307F091940721E030E036
:1047200040E050E004C0220F331F441F551F6A951C
:10473000D2F785859685A785B089822B932BA42BEC
:10474000B52B85879687A787B08B81E090E0089589
:10475000382F80919207882319F080E090E0089527
:1047600080917C078F3F11F420E007C080917F0784
:104770008F3F11F022E001C021E0822F9927FC0138
:10478000EE0FFF1FE80FF91FE458F84F3283308314
:10479000618381E08093920783E0289FC001112408
:1047A0008458984F089527E08C37920711F480E0E1
:1047B00007C08F57974019F08FEF9FEF089581E062
:1047C000992787FD909508950E94D3238F3F11F478
:1047D00081E002C0823029F40E941A218FEF9FEFFE
:1047E0000895992787FD9095FC01EE0FFF1FE80FB4
:1047F000F91FE458F84F8FEF808382838183809183
:10480000920781508093920781E090E008950E9482
:10481000D3238F3F11F481E002C0823029F40E943B
:104820001A218FEF9FEF0895992787FD9095FC013E
:10483000EE0FFF1FE80FF91FE458F84F8281992708
:1048400087FD909508951F93CF93DF930E94D32304
:10485000182F8F3F11F481E003C0823031F482E0E1
:104860000E941A218FEF9FEF3EC0992787FD9095F8
:10487000EC01CC0FDD1FC80FD91FC458D84F9A8147
:104880008881981774F50E94F41E8A818F5F8A834D
:10489000E0919307F09194071482EEE1F7E0212F65
:1048A000332727FD3095432F532F8081823091F499
:1048B00082859385A485B58582179307A407B507DC
:1048C00049F483E082831786168610821286138647
:1048D00014861586B19687E0E138F80731F70E9413
:1048E000F61E81E090E0DF91CF911F910895DF9255
:1048F000EF92FF920F931F93E1E0EE2EF12C012D2A
:10490000112D04C0EE0CFF1C001F111F8A95D2F759
:104910008091F2039091F303A091F403B091F50319
:104920008E219F21A023B1230097A105B10511F489
:1049300081E043C00E94F41EEEE1F7E0DD248081B7
:104940008130B9F482859385A485B5858E219F2118
:10495000A023B1230097A105B10559F083E082831C
:10496000178616861082E286F38604871587DD2473
:10497000D39480818230A1F482859385A485B58506
:104980008E159F05A007B10759F483E0828317862F
:10499000168610821286138614861586DD24D3941B
:1049A000B19687E0E138F80751F60E94F61EDD2047
:1049B00019F081E090E005C082E00E941A218FEF9B
:1049C0009FEF1F910F91FF90EF90DF900895EF926E
:1049D000FF920F931F93CF93DF93C82FDD27C7FD5F
:1049E000D095F1E0EF2EF12C012D112D0C2E04C0ED
:1049F000EE0CFF1C001F111F0A94D2F78091F203E6
:104A00009091F303A091F403B091F5038E219F21BF
:104A1000A023B1230097A105B10519F48FEF9FEFF3
:104A20005DC00E94F41EE7E1F7E0A8019701209520
:104A300030954095509580858F3F41F185859685CD
:104A4000A785B0898E159F05A007B10739F4118A93
:104A5000128A138A148A178283E081878585968556
:104A6000A785B08982239323A423B52385879687BE
:104A7000A787B08B81899289A389B48982239323E4
:104A8000A423B523818B928BA38BB48BB19687E043
:104A9000EA37F80781F62EEF3FEF4FEF5FEF04C0E4
:104AA000220F331F441F551FCA95D2F78091F2037E
:104AB0009091F303A091F403B091F5038223932323
:104AC000A423B5238093F2039093F303A093F403FC
:104AD000B093F5030E94F61E81E090E0DF91CF9144
:104AE0001F910F91FF90EF9008951F93CF93DF9345
:104AF0000E94D323182F8F3F11F481E003C082302E
:104B000031F482E00E941A218FEF9FEF3EC00E9495
:104B1000F41E812F992787FD9095EC01CC0FDD1FA6
:104B2000C80FD91FC458D84F8A818823D9F4E0917F
:104B30009307F0919407878182608783E0919307C0
:104B4000F0919407812F992787FD9095A92FB92F70
:104B5000818B928BA38BB48B0E94F61E80E090E039
:104B60000E941A288A8181508A83E0919307F091EC
:104B7000940789818387E0919307F091940781E0FE
:104B800084830E94F61E81E090E0DF91CF911F9117
:104B900008959B01AC01E0919307F09194078585FE
:104BA0009685A785B08982239323A423B5230097F4
:104BB000A105B10529F460E070E080E090E008957F
:104BC000218B328B438B548B81E08783009083074A
:104BD00004C056954795379527950A94D2F7C90191
:104BE00081709070892B19F00E94B52704C080E075
:104BF00090E00E941A28E0919307F0919407618950
:104C00007289838994890895E0918807F0918907D2
:104C1000808199270895E0918807F091890703C062
:104C20000380F481E02D3097D9F70895CF93DF9377
:104C3000482FC0911507D0911607209709F47AC024
:104C4000A0918807B09189071097B9F1992787FD3E
:104C500090959C0165E0220F331F6A95E1F7280FBC
:104C6000391F295E384F8C919927BC0155E0660F9A
:104C7000771F5A95E1F7680F791F695E784FFB013E
:104C80008481882329F09385F90182859817A8F0FB
:104C9000F9018481882331F0FB019285F901838534
:104CA000981758F0FB019285F9018285981728F032
:104CB000FD01A381B4811097B1F64883E0911507F7
:104CC000F09116072381348130931607209315073E
:104CD0008091880790918907A817B907A1F41097C8
:104CE00031F0BC83AB831A821982FD0105C01C829E
:104CF0001B821A821982F901D283C183D09389075A
:104D0000C093880717C0FD0181819281A217B30764
:104D100051F09A838983BC83AB8381819281FC01AA
:104D2000D483C38304C01C821B829A838983FD01C0
:104D3000D283C183DF91CF910895CF93DF93A09168
:104D40008807B0918907109709F446C0482F552766
:104D500047FD50958C9199278417950769F4ED01CB
:104D6000EB81FC81F0938907E0938807128211821E
:104D700016C0D901232B81F18C919927FD01238144
:104D8000348184179507A9F7C181D2813C832B8395
:104D900083819481009719F0FC01D283C183E09153
:104DA0001507F0911607309741F4B0931607A093BA
:104DB0001507ED011C821B8209C0ED01FC83EB830A
:104DC000B283A183B0931607A0931507E09115074E
:104DD000F091160712821182DF91CF910895E09130
:104DE0009307F09194078085992708950E94D53202
:104DF000E0919307F091940785818823B9F708958E
:104E0000FF920F931F93CF93DF93CDB7DEB7289711
:104E10000FB6F894DEBF0FBECDBF29833A834B8314
:104E20005C836D837E838F8398870E94C3220E9458
:104E3000F41EE0919307F091940781E0858381E06F
:104E400090E090A3878F0E941430F82E29813A8138
:104E50004B815C816D817E818F8198850E94622A61
:104E6000E0919307F09194070F2D1127800F911F68
:104E7000968B858B87EF8F1570F00E94A02F0E5FA9
:104E80001F4F99278017910734F08F2D8E5F8093E5
:104E9000E1060E94A52F0E94F61E0E94F62681E0E0
:104EA00090E028960FB6F894DEBF0FBECDBFDF911D
:104EB000CF911F910F91FF9008958F929F92AF9283
:104EC000BF92CF92DF92EF92FF920F931F93CF93F7
:104ED000DF93CDB7DEB760970FB6F894DEBF0FBE95
:104EE000CDBF29873A874B875C876D877E878F8701
:104EF000988BCE0101960E94C82B89809A80AB8046
:104F0000BC80CD80DE80EF80F88409851A852B85F2
:104F10003C854D855E856F857889CE0109960E9416
:104F20004329882319F48FEF9FEF0CC029853A8518
:104F30004B855C856D857E858F8598890E940027CD
:104F400081E090E060960FB6F894DEBF0FBECDBF53
:104F5000DF91CF911F910F91FF90EF90DF90CF9055
:104F6000BF90AF909F908F9008951F930E94F41E62
:104F7000E0919307F091940781E0858386830E94F6
:104F80001430182F883F80F40E94A02F212F332740
:104F90002E5F3F4F99278217930734F0812F8E5F42
:104FA0008093E1060E94A52F0E94F61E0E94F6261D
:104FB00081E090E01F9108951F93CF93DF93CDB7C9
:104FC000DEB728970FB6F894DEBF0FBECDBF29839A
:104FD0003A834B835C836D837E838F8398870E94A3
:104FE000F41E0E941430182F29813A814B815C8174
:104FF0006D817E818F8198850E94622A8330910520
:1050000018F48FEF9FEF0CC0E0919307F091940795
:10501000810F911D968B858B0E94F61E81E090E09A
:1050200028960FB6F894DEBF0FBECDBFDF91CF91AB
:105030001F9108950F931F938C010E94F41EE0911D
:105040009307F091940781E08583168B058B0E946E
:105050001430082F883F80F40E94A02F202F332780
:105060002E5F3F4F99278217930734F0802F8E5F72
:105070008093E1060E94A52F0E94F61E0E94F6264C
:1050800081E090E01F910F910895FF920F931F937D
:10509000CF93DF938C010E94F41EE0919307F0916F
:1050A000940781E085830E941430F82EE0919307E5
:1050B000F0919407C82FDD270C0F1D1F168B058B51
:1050C00087EF8F1568F00E94A02F229699278C17E2
:1050D0009D0734F08F2D8E5F8093E1060E94A52FEF
:1050E0000E94F61E0E94F62681E090E0DF91CF91AB
:1050F0001F910F91FF9008951F93CF93DF93EC01C1
:105100000E94C322209711F4C1E0D0E00E94F41E57
:10511000E0919307F091940781E08583D0A3C78F36
:105120000E941430182F883F80F40E94A02F212F56
:1051300033272E5F3F4F99278217930734F0812F33
:105140008E5F8093E1060E94A52F0E94F61E0E94AA
:10515000F62681E090E0DF91CF911F9108951F9393
:105160000E94C3220E94F41EE0919307F0919407DD
:1051700081E090E090A3878F81E085830E941430C6
:10518000182F883F80F40E94A02F212F33272E5FF5
:105190003F4F99278217930734F0812F8E5F8093BA
:1051A000E1060E94A52F0E94F61E0E94F62681E0CD
:1051B00090E01F910895E0919307F0919407808506
:1051C0000E949D26E0919307F091940784E08187E7
:1051D0000E94AF2881E090E00895EF92FF920F9334
:1051E0001F93CF93DF93EC014B815C8169817A81BE
:1051F0008D819E810E94E432BC018F81882369F0F9
:105200004B815C81EE24FF2400E010E020E030E0E0
:10521000CE010E94FE1E1F8216C08881992787FD3D
:105220009095FC01A5E0EE0FFF1FAA95E1F7E80FAE
:10523000F91FE95EF84F8185833019F08FEF9FEFFA
:105240001BC0718360838881992787FD9095FC013D
:1052500075E0EE0FFF1F7A95E1F7E80FF91FE95EA1
:10526000F84F85899689892B29F482E08187888186
:105270000E94162681E090E0DF91CF911F910F915F
:10528000FF90EF9008958F929F92AF92BF92CF922E
:10529000DF92EF92FF920F931F93CF93DF93CDB7DF
:1052A000DEB760970FB6F894DEBF0FBECDBFFC012E
:1052B00009831A832B833C834D835E836F837887B6
:1052C00089869A86AB86BC86CD86DE86EF86F88A8E
:1052D0002D813E814F81588589819A81AB81BC8126
:1052E000AD84BE84CF84D888E984FA840B851C857C
:1052F0008E159F05A007B10708F43FC0E816F90610
:105300000A071B0791F42A153B054C055D05A8F11A
:105310002A193B094C095D09248335834683578349
:1053200010821182128213821CC02A153B054C0583
:105330005D05D0F40197A109B1098E199F09A00B51
:10534000B10B80839183A283B383205036434546BB
:10535000544C2A193B094C095D0924833583468343
:10536000578381E090E00BC08E199F09A00BB10B11
:1053700080839183A283B383ECCF80E090E060963A
:105380000FB6F894DEBF0FBECDBFDF91CF911F9156
:105390000F91FF90EF90DF90CF90BF90AF909F90D4
:1053A0008F900895FC0113C080509A4CAA49BB43CA
:1053B00084839583A683B78380819181A281B38101
:1053C0000196A11DB11D80839183A283B383848143
:1053D0009581A681B78180302AEC92072AE9A2073D
:1053E0002BE3B20708F708958F929F92AF92BF9276
:1053F000CF92DF92EF92FF920F931F93CF93DF93A1
:10540000CDB7DEB760970FB6F894DEBF0FBECDBF45
:10541000FC0109831A832B833C834D835E836F8356
:10542000788789869A86AB86BC86CD86DE86EF86AF
:10543000F88AAD80BE80CF80D884ED84FE840F854D
:10544000188989859A85AB85BC8529813A814B81EC
:105450005C81820F931FA41FB51F80839183A28359
:10546000B383EA0CFB1C0C1D1D1DE482F582068330
:105470001783CF010E94D22981E090E060960FB699
:10548000F894DEBF0FBECDBFDF91CF911F910F917A
:10549000FF90EF90DF90CF90BF90AF909F908F9054
:1054A000089560938A0770938B0780938C0790937D
:1054B0008D0720938E0730938F074093900750936A
:1054C000910708958F929F92AF92BF92CF92DF92F1
:1054D000EF92FF920F931F93CF93DF93CDB7DEB779
:1054E00028970FB6F894DEBF0FBECDBF29833A834D
:1054F0004B835C836D837E838F8398878D809E80B2
:10550000AF80B884E980FA800B811C81E114F1043A
:105510000105110501F180E09AECAAE9BBE3880ED0
:10552000991EAA1EBB1EC501B40123EB36EE4EE048
:1055300050E00E94243769010894E108F10801094C
:1055400011098AE0EE0CFF1C001F111F8A95D1F78C
:10555000CE0CDF1C09C0C501B40123EB36EE4EE0D2
:1055600050E00E9424376901B60102C060507440C7
:1055700094E061307907D0F78827992723EB36EE3E
:105580004EE050E00E94DE36675A7C48884F9F4FBD
:10559000681579058A059B0518F40894C11CD11C6F
:1055A000C60128960FB6F894DEBF0FBECDBFDF91BF
:1055B000CF911F910F91FF90EF90DF90CF90BF9010
:1055C000AF909F908F9008952F923F924F925F924D
:1055D0006F927F928F929F92AF92BF92CF92DF9203
:1055E000EF92FF920F931F93CF93DF93CDB7DEB768
:1055F00028970FB6F894DEBF0FBECDBF7B018C019C
:1056000073708070907023EB36EE4EE050E00E9495
:10561000DE366D837E838F8398879AE01695079593
:10562000F794E7949A95D1F7E982FA820B831C8369
:10563000988529803A804B805C806D807E808F8049
:10564000222D332D442D552D662D772D882D28960E
:105650000FB6F894DEBF0FBECDBFDF91CF911F9183
:105660000F91FF90EF90DF90CF90BF90AF909F9001
:105670008F907F906F905F904F903F902F90089504
:10568000AF92BF92CF92DF92EF92FF920F931F9350
:10569000CF93DF93CDB7DEB728970FB6F894DEBF70
:1056A0000FBECDBF29833A834B835C836D837E839A
:1056B0008F839887AD80BE80CF80D884E980FA80C0
:1056C0000B811C81E114F1040105110509F180E051
:1056D0009AECAAE9BBE3A80EB91ECA1EDB1EC601DE
:1056E000B50123EB36EE4EE050E00E9424370894DB
:1056F000E108F108010911096AE0EE0CFF1C001F26
:10570000111F6A95D1F7E20EF31E041F151F0AC080
:10571000C601B50123EB36EE4EE050E00E9424377F
:1057200079018A01C801B70104C06050744080400B
:1057300090406130A4E07A07A0E08A07A0E09A07D1
:10574000A0F723EB36EE4EE050E00E94DE36675ABB
:105750007C48884F9F4F6A157B058C059D0528F472
:105760000894E11CF11C011D111DC801B701289608
:105770000FB6F894DEBF0FBECDBFDF91CF911F9162
:105780000F91FF90EF90DF90CF90BF90AF90089572
:10579000EF92FF920F931F93CF93DF93EC018091D1
:1057A0008A0790918B07A0918C07B0918D07888311
:1057B0009983AA83BB83E0908E07F0908F070091B6
:1057C000900710919107EC82FD820E831F830E9447
:1057D00014309927AA27BB27BC01CD0123EB36EE55
:1057E0004EE050E00E94DE36E60EF71E081F191F3D
:1057F000EC82FD820E831F8313C080509A4CAA490D
:10580000BB438C839D83AE83BF8388819981AA81AA
:10581000BB810196A11DB11D88839983AA83BB8397
:105820008C819D81AE81BF8180302AEC92072AE96C
:10583000A2072BE3B20708F7DF91CF911F910F91D9
:10584000FF90EF9008950E94C3220E94A02F8B30FA
:1058500018F481E0809387070E94D53280910F066B
:10586000853519F088E00E94E62180917E218535FA
:1058700051F388E00E94E621E6CF8F929F92AF928B
:10588000BF92CF92DF92EF92FF920F931F93CF932D
:10589000DF930E94F41E0E945C2F0E94642F4C0133
:1058A0008AEF0E94A52F6091E10677278827992724
:1058B00023EB36EE4EE050E00E94DE367B018C0199
:1058C00080918E0790918F07A0919007B0919107DA
:1058D000E80EF91E0A1F1B1FC801B7010E942437DA
:1058E000A8019701261B370B480B590B80918A079B
:1058F00090918B07A0918C07B0918D071BC0E12C74
:1059000066E3F62E65E6062F64EC162FE20EF31E14
:10591000041F151FC801B70123EB36EE4EE050E01F
:105920000E942437A8019701261B370B480B590BFF
:10593000D601C5015C016D010894A11CB11CC11CFC
:10594000D11C20306AEC36076AE946076BE356073C
:10595000B0F680938A0790938B07A0938C07B0933F
:105960008D0720938E0730938F07409390075093B5
:105970009107E0919307F09194078581882319F1AD
:105980008185843001F18781823029F0882341F0BC
:105990008681882311F485E001C083E081870CC0F3
:1059A00083E08187E0919307F09194071782E0915B
:1059B0009307F09194071682E0919307F091940772
:1059C00080850E949D26E0919307F0919407858D34
:1059D000968D892B91F16085662379F181858430DC
:1059E00061F1218D328D8091E106992728173907C1
:1059F00050F482E00E94DF21E0919307F091940738
:105A0000128E118E04C0281B390B328F218FE0912A
:105A10009307F09194071085818D928D892B69F4FD
:105A2000612F83E00E94DF21E0919307F0919407BA
:105A300083E08187812F0E949D26C7E1D7E000E6A1
:105A40001AEECC24DD244C2D88858F3F09F489C0C3
:105A50001D82882391F18985843079F12D893E89D1
:105A60008091E10699272817390728F0281B390B60
:105A70003E8B2D8B02C01E8A1D8A2F89388D2817D8
:105A8000390728F0281B390B388F2F8B0EC06B8DF0
:105A90007C8D8617970728F4681B790B788F6F8B9E
:105AA00004C00E94FD36988F8F8B8F89988D892B2B
:105AB00021F48B8D9C8D988F8F8B8985833009F095
:105AC00050C08D899E89892B09F043C08F8188231E
:105AD000A1F08E81882389F081E090E0A0E0B0E021
