:100000000C94D2010C94153C0C94F1010C94F10168
:100010000C94F1010C94F1010C94F1010C94F10198
:100020000C94F1010C94433C0C94F1010C94F101FB
:100030000C94F1010C94F6390C94F1010C94F639FE
:100040000C94F1010C94293A0C94F1010C94F101F7
:100050000C94F1010C94F1010C94F1010C94F10158
:100060000C94F1010C94F1010C94F1010C94F10148
:100070000C94F1010C94F1010C94F1010C94F10138
:100080000C94333A0C94F1010C94F1010C94F101AD
:100090000C94EF270C94F1010C94F1010C94F101F4
:1000A0000C94F1010C94F1010C94F1010C94F10108
:1000B0000C94F1010C94F1010C94F1010C94F101F8
:1000C0000C94F1010C94F1010C94F101512B572B7C
:1000D0005A2B5D2B602B632B692B662B6C2B6F2BA4
:1000E000722B782B7B2B7E2B812B752B4E2B542B3D
:1000F00043726561746520446F6E650D0A00537428
:10010000617274696E672075702E2E2E0D0A00497B
:100110005341204552524F523A20637265617469CF
:100120006E67207478207369676E616C2066616900
:100130006C65640D0A00495341204552524F523AB2
:10014000206372656174696E6720727820736967D5
:100150006E616C206661696C65640D0A0043433210
:10016000343230204552524F523A202052656C654D
:10017000617365206F662073656D6170686F72656D
:10018000206661696C65640D0A0043433234323085
:10019000204552524F523A202041636365737320C9
:1001A000746F2073656D6170686F72652066616938
:1001B0006C65640D0A00554E4B4F574E0046616901
:1001C0006C656420746F206372656174652053658B
:1001D0006D6170686F7265004661696C656420745A
:1001E0006F20637265617465205369676E616C008E
:1001F0004B65726E656C2066756E6374696F6E20F8
:100200006E6F7420696D706C656D656E74656400E9
:10021000446576696365204472697665722045722B
:10022000726F72005761746368646F672052657300
:10023000746172740054696D6572204F76657266E0
:100240006C6F7700556E68616E646C656420496EF2
:100250007465727275707420566563746F72004CA9
:100260006F7720566F6C74616765004578747261B2
:10027000205461736B20737461727465642C2069FF
:1002800073206E726B5F6366672E68206F6B3F0032
:1002900049646C65206F72204B65726E656C2053EB
:1002A0007461636B204F766572666C6F7700556E74
:1002B00065787065637465642052657374617274E7
:1002C000004475706C696361746564205461736B7C
:1002D000204944005363686564756C6572204D69FC
:1002E000737365642057616B657570005461736B3F
:1002F00020526573657276652056696F6C6174650E
:10030000640052657365727665204572726F722063
:10031000696E205363686564756C657200496E761A
:10032000616C696420537461636B20506F696E74F3
:100330006572005461736B20537461636B204F7658
:100340006572666C6F7700537461636B20776173BD
:10035000206E6F7420646566696E65642061732029
:100360006C6172676520656E6F7567682100293A58
:1003700020002A4E524B204552524F5228000D0A5F
:10038000535441434B2044554D500D0A00454647B8
:1003900065666700202B2D2E3031323334353637E9
:1003A0003839680011241FBECFEFD1E2DEBFCDBFC8
:1003B00018E0A0E0B2E0EEE4F4E800E00BBF02C019
:1003C00007900D92AC31B107D9F71BE1ACE1B8E071
:1003D00001C01D92A93EB107E1F70E9407030C94EA
:1003E00026420C94613A84E592E0909382088093CF
:1003F00081088CE99AE090937E0880937D088DE9CE
:1004000099E09093800880937F0882E0809384082D
:1004100081E08093830880938508809386081092FA
:100420008708109288081092890810928A0880E83C
:1004300096E9A8E9B0E080938B0890938C08A0938C
:100440008D08B0938E0810928F0810929008109229
:1004500091081092920880E09DE2A1E3B1E08093C0
:10046000930890939408A0939508B09396081092DF
:100470009708109298081092990810929A0880E8AC
:1004800090EFAAEFB2E080939B0890939C08A09312
:100490009D08B0939E088CE798E00E94CB3280EFD5
:1004A00090E00E94DC2708952F923F924F925F9236
:1004B0006F927F928F929F92AF92BF92CF92DF9274
:1004C000EF92FF920F931F93CF93DF93CDB7DEB7D9
:1004D00022970FB6F894DEBF0FBECDBF0E94CD307D
:1004E00099279F938F9380E092E09F938F930E9430
:1004F000AA3F83E090E00E942E270E94AD0564E7AA
:1005000088E299E00E949D050F900F900F900F9048
:1005100002C00E948D320E9493058823D1F38FE0A0
:1005200092E09F938F930E94AA3F10E00F900F904C
:1005300042E0242E312C2C0E3D1E2E010894411C2D
:10054000511C3FEAE32E3AE0F32E22E3622E22E032
:10055000722E47010894811C911C96E1A92E94E00B
:10056000B92E89EFC82E8FEFD82ECE0CDF1C20912C
:10057000230830912408C90168EE73E00E9492417B
:10058000892BE1F480912708909128089F938F93FD
:1005900080912508909126089F938F933F932F93E6
:1005A0008CE192E09F938F930E94AA3F8DB79EB7F4
:1005B00008960FB6F8949EBF0FBE8DBF0E94070627
:1005C000882331F0B101C2010E94310E0E940D0654
:1005D0001123C1F481E08093AF0AB301C4010E94EA
:1005E000283FF70101900020E9F7E05BFA40E75F60
:1005F000E983850196014E2F60E081E090E00E9442
:10060000231411E00E945D040E948D32B0CFCFEF21
:10061000D1E2DEBFCDBF0E94712387E090E00E944F
:10062000A6278EEF90E00E94DC270E94642A80E0DB
:1006300090E00E94112781E090E00E94112782E063
:1006400090E00E94112783E090E00E94112720E0B3
:1006500030E040E050E060E070E080E090E00E9438
:100660002F340E94200681E090E00E94530541E073
:1006700062E081E00E947F0D0E94AA121F921F92E9
:100680008824AA24A394CC24EE2400E010E020E0E7
:1006900030E040E050E060E070E081E090E00E94F7
:1006A000CD141F921F92AA2420E030E040E050E0D9
:1006B00060E070E085E090E00E94CD141F921F92F0
:1006C00020E030E040E050E060E070E086E090E064
:1006D0000E94CD141F921F9220E030E040E050E0D5
:1006E00060E070E087E090E00E94CD141F921F92BE
:1006F00020E030E040E050E060E070E088E090E032
:100700000E94CD141F921F9220E030E040E050E0A4
:1007100060E070E089E090E00E94CD1424E040E0C9
:1007200050E060E070E08AE10E94831521E040E043
:1007300050E061E070E084E00E94831521E040E039
:1007400050E065E070E087E00E94831521E040E022
:1007500050E066E070E088E00E94831521E040E010
:1007600050E067E070E089E00E94831521E040E0FE
:1007700050E068E070E08AE00E94831521E040E0EC
:1007800050E069E070E08BE00E94831528E040E0D3
:1007900050E060E070E08CE00E94831528E040E0CB
:1007A00050E060E070E08DE00E94831528E040E0BA
:1007B00050E060E070E08EE00E94831528E040E0A9
:1007C00050E060E070E08FE00E94831528E040E098
:1007D00050E060E070E080E10E94831528E040E096
:1007E00050E060E070E083E00E94831528E040E084
:1007F00050E060E070E089E10E94831528E040E06D
:1008000050E060E070E08BE10E9483150E94F301EC
:100810000E94042A8DB79EB70C960FB6F8949EBF1F
:100820000FBE8DBF80E090E00C942642CF92DF9205
:10083000EF92FF920F931F93CF93DF936C015FEAC8
:10084000E52E5AE0F52E81E08093AF0A64E372E072
:10085000C70101960E94283FF70101900020E9F7A7
:10086000EE19E85FE6018C8106E114E029EF3FEF25
:10087000E20EF31E97014E2F6A8199270E942314DE
:10088000C6010E943512DF91CF911F910F91FF9009
:10089000EF90DF90CF9008958C988C9A8EBD0DB418
:1008A00007FEFDCF6EBD0DB407FEFDCF4EBD0DB4EE
:1008B00007FEFDCF8D9A8D9808950F931F93CF93C8
:1008C000DF93CDB7DEB728970FB6F894DEBF0FBE23
:1008D000CDBF80911C08882309F4A3C06091E11B5F
:1008E0007091E21B80E790E00E947D3F80911D089F
:1008F000833098F58091C30B99270AE110E0809F1F
:10090000A001819F500D909F500D1124FA01E75CCA
:10091000FD4F818D99279C012F5F3F4FD901AA0F71
:10092000BB1FA20FB31FA40FB51FA75CBD4FFC01D7
:10093000EE0FFF1FE80FF91FE40FF51FE75CFD4FF7
:100940004C91628181810E944C0480911D088F5FCF
:1009500080931D088091C30B2FC08091C40B9927F1
:100960000AE110E0809FA001819F500D909F500DE3
:100970001124FA01E75CFD4F818D99279C012F5FBF
:100980003F4FD901AA0FBB1FA20FB31FA40FB51F62
:10099000A75CBD4FFC01EE0FFF1FE80FF91FE40F2E
:1009A000F51FE75CFD4F4C91628181810E944C04F0
:1009B00010921D088091C40B9927809FF001819FA0
:1009C000F00D909FF00D1124E75CFD4F818D8F5F3E
:1009D000818F9081891708F0118ECE0101960E94B7
:1009E000A63589819A81AB81BC812091BB0B309166
:1009F000BC0B4091BD0B5091BE0B821B930BA40B03
:100A0000B50B0597A105B10520F08C988C9A109232
:100A10001C086091E11B7091E21B81E790E00E944D
:100A20007D3F28960FB6F894DEBF0FBECDBFDF9195
:100A3000CF911F910F910895982F693010F4609312
:100A4000C40B892F8950853010F49093C30B8BEB26
:100A50009BE00E94A63581E080931C08089521E068
:100A600030E040E050E004C0220F331F441F551F08
:100A70008A95D2F780912B0890912C08A0912D088F
:100A8000B0912E08822B932BA42BB52B80932B088F
:100A900090932C08A0932D08B0932E080895809170
:100AA0004B0899270895813019F08330D9F531C06A
:100AB00083E18093260C8CE08093270C84E1809363
:100AC000280C88E18093290C80E180932A0C87E12F
:100AD00080932B0C82E180932C0C89E180932D0C68
:100AE0008EE080932E0C85E180932F0C8BE0809319
:100AF000300C8FE08093310C86E18093320C81E1E1
:100B00008093330C8DE08093340C8AE18093350C14
:100B100008958FE08093210C84E18093220C89E179
:100B20008093230C08958091A70A813019F481E005
:100B300090E008958FEF9FEF0895662359F0009796
:100B400049F090933E0880933D0860933C0881E013
:100B500090E008958FEF9FEF089582E08093A70AB9
:100B60000895FC012481213011F481E801C081E065
:100B7000982F9066243011F4982F90670084F185A7
:100B8000E02D858587FD9460892F992787FD9095B5
:100B90000895882311F083E801C083E06295607FA7
:100BA000862B992787FD909508958F92AF92CF92CB
:100BB000EF920F93CF93DF93CDB7DEB71092040C73
:100BC0009AE090930B0C10920C0C80930D0C609398
:100BD0000E0C40930F0C1092100C2093170C0093E6
:100BE000180CE092190CC0921A0CA0921B0C809267
:100BF0001C0C8A8580931D0C8B8580931E0CDF91C5
:100C0000CF910F91EF90CF90AF908F9008958091FA
:100C10002D0B992787FD9095089510922D0B10921A
:100C20002E0B10922F0B1092300B089580912209F9
:100C3000813019F481E090E008958FEF9FEF0895DF
:100C40000F931F9388E79CE090935F0880935E0862
:100C500009E518E040E850E06FE978E0C8010E943B
:100C60001F3D84E18093610881E080936008809358
:100C700062088093630810926408109265081092CD
:100C800066081092670880E896E9A8E9B0E08093CA
:100C9000680890936908A0936A08B0936B08109253
:100CA0006C0810926D0810926E0810926F081092E6
:100CB00070081092710810927208109273081092C6
:100CC00074081092750810927608109277081092A6
:100CD00078081092790810927A0810927B08C8015F
:100CE0000E94CB321F910F910895CF92DF92EF9225
:100CF000FF920F931F93CF93DF93EE24FF2488E39B
:100D0000C82E88E0D82EE0913D08F0913E0881E0A1
:100D1000808360914B08C6010E94DF210E94061D5E
:100D20001092010C8AEF0E94833980E00E9468399A
:100D300000E012C00E94F239081771F00E94F239E7
:100D4000082F0894E11CF11C81E1E81687E2F806FF
:100D500018F0EE24FF2405C00E949419182F882350
:100D600049F30E943A390E94F239C82FDD272496B0
:100D7000112371F006C00E94F2399927C817D907CC
:100D800038F060E880E00E94791A182F882399F3E0
:100D90000E94EE1C113009F0B6CFE0913D08F091B1
:100DA0003E082081928180912109981709F0ABCFEC
:100DB00024FFA9CF81E090E0A0E0B0E080932D0B6C
:100DC00090932E0BA0932F0BB093300B818199271A
:100DD0009093D50B8093D40B82E090E00E94F42690
:100DE0006091E11B7091E21B89E690E00E947D3FDB
:100DF0001093010C10922D0B10922E0B10922F0BB2
:100E00001092300B0E945D390E9474398AE00E9472
:100E1000833987E00E94683961E170E880E090E002
:100E20000E94773A0E946B39E091BA1BF091BB1B8C
:100E30008AE090E0968B858B8091010C9927DF9159
:100E4000CF911F910F91FF90EF90DF90CF90089579
:100E5000BF92CF92DF92EF92FF920F931F93CF93A7
:100E6000DF93CDB7DEB727970FB6F894DEBF0FBE7E
:100E7000CDBF7C016B0181E080934608F70184813E
:100E8000813091F5C7010E945510009709F403C203
:100E90008C01C092D00B0F5F1F4F10934508009339
:100EA0004408F80182918F0180934308C7010E9492
:100EB000B105F82EE0914408F09145088083E09157
:100EC0004408F09145088781882339F0E09144086F
:100ED000F091450880912F088283F801EC57FF4F6D
:100EE00080818F5F80832BC0843049F587E39CE04D
:100EF00090934508809344088BE180934308C70191
:100F00000E94B105F82EE0914408F09145088083D5
:100F1000E0914408F091450880912F088283E09188
:100F20004408F09145088091D40B9091D50B8183B2
:100F3000E0914408F0914508E581FF2710820E9466
:100F40003A3960E875E280E090E00E94773AB0902C
:100F5000A4078B2D0E94782340914D0850914E0894
:100F60006091D10B7091D20B2DEF3BE081E498E0C2
:100F70000E941C1F8823F1F080912308909124087F
:100F8000019690932408809323088B2D0E94FD23C3
:100F900083E090E00E94F4268091FD0B9091FE0B7F
:100FA0002091D10B3091D20B821B930B9093CC0BE1
:100FB0008093CB0B8091D30B0E94552EF7FE6BC113
:100FC0000E94061D8B2D0E9478230E943A3960E012
:100FD00070E180E090E00E94773A0E94F2398983C4
:100FE00089818E5F89834BC00E94F239998198175D
:100FF00008F045C06091D00B862F9927C816D906F6
:1010000051F48091AC0C9091AD0C49969093AD0C3D
:101010008093AC0C14C08C2D861B2091AC0C3091AD
:10102000AD0C482F552747FD5095181614F0275E34
:101030003F4F240F351F3093AD0C2093AC0C0E9412
:10104000EE1C8B2D0E94FD236091E11B7091E21B31
:1010500083E790E00E947D3F8091270890912808C7
:10106000019690932808809327080C571F4FF8018A
:10107000808104581040833008F40DC133C00E94B1
:101080009419882309F4B0CF0E94F23989838981A9
:101090008E5F8983F2FE33C044E0E42E32C00E94AA
:1010A000F2399981981768F585EA93E09F938F93B9
:1010B0000E94AA3F8091270890912808019690935A
:1010C0002808809327080E94F2398093C60B0C579A
:1010D0001F4FF8018081045810400F900F9083300B
:1010E00009F0D9C0F801E958FF4F80819181892B1F
:1010F00009F4C7C00190F081E02D60E0CAC032E081
:10110000E32E6E2D81E00E94791AF82E882339F2A1
:10111000F1E08F1701F16091E11B7091E21B86E60F
:1011200090E00E947D3F8091250C99279F938F939B
:1011300086EC93E09F938F930E94AA3F80912708AB
:1011400090912808019690932808809327080F9083
:101150000F900F900F900E94EE1C8B2D0E94FD238C
:1011600081E0F81609F097C0809125089091260833
:1011700001969093260880932508E0913D08F09110
:101180003E0880818093AB0C1092AD0C1092AC0C99
:1011900087FF64C081819927982F88272281332770
:1011A000822B932B9093CE0B8093CD0B80E090E01D
:1011B0000E94F4268091CD0B9091CE0B2091CB0B09
:1011C0003091CC0B821B930B885795409F838E8365
:1011D00082E389838E819F8197FD2DC00E94F23921
:1011E0008B838E819F812DE93CE16DE97CE10E943A
:1011F000A6416F5F6A838E819F816DE97CE10E94C9
:10120000A641281B390B3D832C830E945D390E9427
:101210003A396C817D8180E090E00E94773A9B8131
:101220008A81890F0E9468390E946B3982E390E0BD
:101230000E942C3913C08E819F8197FF0FC00E949E
:101240005D390E943A396E817F81709561957F4F3B
:1012500080E090E00E94773A0E946B390C571F4F54
:10126000F801808104581040833021F08091AB0C4C
:10127000807389F4F801E958FF4F80819181892BAF
:1012800021F4C8010E94351206C00190F081E02DC2
:1012900061E0C801099527960FB6F894DEBF0FBE2E
:1012A000CDBFDF91CF911F910F91FF90EF90DF9015
:1012B000CF90BF9008958F929F92AF92BF92CF929E
:1012C000DF92EF92FF920F931F93CF93DF93CDB7EF
:1012D000DEB721970FB6F894DEBF0FBECDBF609189
:1012E0004B0888E398E00E94DF210E94061D0091D0
:1012F000AE07802F0E9478230E94F239898389816A
:101300008C5F89830BC00E94F2399981981730F461
:10131000802F0E94FD230E94EE1CA9C20E949419F6
:10132000882389F30E9442399093030C8093020C26
:101330000E94F239898389818B5F89830CC00E9466
:10134000F2399981981738F485EA93E09F938F9347
:101350000E94AA3FECC060E880E00E94791A182F32
:10136000882369F3802F0E94FD230E94EE1C113018
:1013700009F45BC26091E11B7091E21B82E690E090
:101380000E947D3F8091250C99279F938F9385ED37
:1013900093E09F938F930E94AA3F3DC299270E949A
:1013A000DF128F3F09F01EC20E944E0E1BC2AF2CEF
:1013B000BB2417FD02C0EE2458C0809123089091F1
:1013C000240801969093240880932308CF010E945B
:1013D000C00EE82E882349F48091AE0C9091AF0C9A
:1013E0008A159B0511F063E001C060E0812F8470D5
:1013F0000E94C9058093AB0C80931C0B8CE19BE091
:10140000909356088093550882FE18C08091020C74
:101410009091030C2091D10B3091D20B821B930B36
:101420009093CE0B8093CD0B892F992780931D0B22
:101430008091CD0B80931E0B84E001C082E08093ED
:101440005408802F0E94782340914D0850914E08F7
:101450006091D10B7091D20B2DEF3BE082E598E0CB
:101460000E941C1F802F0E94FD23D6011796F601B3
:101470008781813091F58091AE0C9091AF0CA816C8
:10148000B90679F4E0913D08F0913E0882816F0140
:10149000EE2400E020E040E0B50199270E942014EE
:1014A000E6C1EE20A9F020913D0830913E08409120
:1014B0003B08552747FD509500E010E060E070E0E4
:1014C000C5010E946013BF92AF9282EE93E097C174
:1014D000BF92AF928BEF93E092C1823009F04DC082
:1014E0008091AE0C9091AF0CA816B90619F51F9219
:1014F0001F928824AA24CC24EE2400E010E020E0EF
:1015000030E040E050E060E070E0FD0181819281D8
:101510000E94CD1410922D0B10922E0B10922F0BB7
:101520001092300BFA946F2D8CE00E941C050F90E6
:101530000F909DC1EE20E1F020913D0830913E08D2
:1015400040913B08552747FD509500E010E060E0D2
:1015500070E0C5010E94601310922D0B10922E0BAB
:1015600010922F0B1092300BFA946F2D8CE000C16B
:10157000BF92AF9285E394E042C18330D9F5809168
:10158000AE0C9091AF0CA816B90689F4D601189646
:10159000FD01068117812481358142815381F60145
:1015A0008085FD01618199270E94461412C0EE20BA
:1015B000E1F020913D0830913E0840913B085527CD
:1015C00047FD509500E010E060E070E0C5010E942A
:1015D000601310922D0B10922E0B10922F0B109265
:1015E000300BFA946F2D89E0C3C0BF92AF9281E7B0
:1015F00094E005C18430B9F58091AE0C9091AF0CA8
:10160000A816B90669F4F601389643815527618119
:10161000728105812481F60180850E94831512C0A4
:10162000EE20E1F020913D0830913E0840913B08CA
:10163000552747FD509500E010E060E070E0C501DF
:101640000E94601310922D0B10922E0B10922F0BF4
:101650001092300BFA946F2D8BE08AC0BF92AF923C
:1016600083EA94E0CCC0882309F085C080912709E3
:10167000E0913D08F0913E08823009F05BC0828124
:1016800099279F938F9389ED94E09F938F930E9466
:10169000AA3FB601685F7F4FD6011996E0913D08D9
:1016A000F0913E08E281FF27EE0FFF1FE652F44F54
:1016B0001182108240E050E00F900F900F900F9039
:1016C00019C0E0913D08F0913E08E281FF27EE0F3E
:1016D000FF1FE652F44F21E030E00C9002C0220FD1
:1016E000331F0A94E2F780819181822B932B91839F
:1016F00080831496942F4F5F5F4FFB018081981772
:1017000000F36091E11B7091E21B8AE090E00E947F
:101710007D3F6091E11B7091E21B8DE090E00E94A3
:101720007D3F6091E11B7091E21B8EE690E00E948C
:101730007D3F58C040913B08552747FD509580910B
:10174000210900E010E09F0160E070E099270E940D
:10175000601310922D0B10922E0B10922F0B1092E3
:10176000300BE0913D08F0913E08628161508DE0C0
:101770000E941C057CC0853009F052C0E0913D08F4
:10178000F0913E08828199279F938F938BEF94E08D
:101790009F938F930E94AA3F0F900F900F900F90EE
:1017A0008091AE0C9091AF0CA816B90619F40E9466
:1017B000551218C080913D0890913E080E94C00EBD
:1017C0008823C9F020913D0830913E0840913B08A4
:1017D000552747FD509500E010E060E070E0C5013E
:1017E0000E94601310922D0B10922E0B10922F0B53
:1017F0001092300B3CC0BF92AF928FE195E09F9367
:101800008F930E94AA3F10922D0B10922E0B1092D4
:101810002F0B1092300B0F900F900F900F9027C04E
:1018200085E595E00E94C13F22C0809125089091F6
:1018300026080196909326088093250881E090E081
:101840000E94F426C0903D08D0903E08F601F38037
:1018500010818091C50B0E94552EE0913D08F091BA
:101860003E088281812E992484FEA1CD97CD2196B8
:101870000FB6F894DEBF0FBECDBFDF91CF911F91A1
:101880000F91FF90EF90DF90CF90BF90AF909F901F
:101890008F9008958091C50B0E944D2D8091D30BA0
:1018A0000E944D2D21E030E040E050E0CA01B90136
:1018B0000090D30B04C0660F771F881F991F0A94EE
:1018C000D2F70090C50B04C0220F331F441F551FD1
:1018D0000A94D2F7622B732B842B952B0E94A72F8F
:1018E00081E090E0089580934B080E9409220895BA
:1018F000CF92DF92EF92FF920F931F93CF93DF93DC
:101900001092A70A0E948D328091A70A8823D1F3F2
:1019100081E08093A70A0091A407EE24FF243BE610
:10192000C32E35E0D32E0E943A390E94423990935B
:10193000D20B8093D10B802F0E947823802F0E949E
:10194000FD238091D40B9091D50B9093000C809344
:10195000FF0B8091D40B9091D50B87399105A8F09E
:101960008091D40B9091D50B62E370E00E9492417C
:101970009093D50B8093D40B8091C90B9091CA0B97
:1019800001969093CA0B8093C90B2091D40B309190
:10199000D50B8091010C813071F5C90162E370E0D3
:1019A0000E949241EC01182FE0911E08EE0DE09389
:1019B0001E08FF27EF70F070EA5DF34F808180937F
:1019C000250C0E94730C8C2F0E942D13FC01892B77
:1019D00001F18481883029F46C2FCF010E945B09CA
:1019E00018C0813011F08430A1F4612F7727CF0126
:1019F0000E9428070EC080912709823039F010928A
:101A00002208109221080E94750601C081E080938F
:101A1000010C2091AC0C3091AD0C8091740590912B
:101A200075052817390788F180912709823069F1F7
:101A30001092010C1092AD0C1092AC0C1092D50BC0
:101A40001092D40B80911F099091200901969093D8
:101A5000200980931F0980912F08813049F0E0917F
:101A60002109E0931E08FF27EA5DF34F808104C03F
:101A700010921E088091260C8093250C8091250CD5
:101A80000E94730CEE24FF244ECF8091D40B9091D2
:101A9000D50B0E94170F7C018091D40B9091D50B30
:101AA0008E0D9F1D9093D50B8093D40B80E090E01A
:101AB0000E9411271092CC0B1092CB0B809127091A
:101AC0008230A9F00E947A12882389F00E94C713FD
:101AD0008F3F11F40E944E0EC6010E94C13F0E942A
:101AE00075126091AE0C61508DE00E941C05C7011B
:101AF0000E945A3280E090E00E942E2714CFFF927D
:101B00000F931F93F82E162F042F0E94C42C80933E
:101B1000C50B8F3F19F486E391E008C00E94C42CE6
:101B20008093D30B8F3F79F48FE091E00E94DC2704
:101B3000E091BA1BF091BB1B60858EE00E94BD2B2B
:101B40008FEF90E070C010923E0810923D08109206
:101B50003C080E9436391092CA0B1092C90B84E6D9
:101B600090E09093D50B8093D40B1092010C1092BF
:101B700022091092AD0C1092AC0CF0922709109330
:101B80002F08812F99279093AF0C8093AE0C009370
:101B9000210910922D0B10922E0B10922F0B1092E8
:101BA000300B84E68093510880E49FE190935008C5
:101BB00080934F0880EA9FE090934E0880934D08F1
:101BC0008FE080934B0881E899E190934A088093D5
:101BD000490821E839E141E254E26FE088E398E006
:101BE0000E941C2281E08093CF0B1092FA0B1130DF
:101BF00041F000931E08E02FFF27EA5DF34F80813C
:101C000004C010921E088091260C8093250C8091B0
:101C1000250C0E94730C1092200910921F090E943B
:101C2000AA1281E090E01F910F91FF90089580919A
:101C3000C50B0E944D2D80912D0B882379F461E016
:101C400070E080E090E00090C50B04C0660F771F45
:101C5000881F991F0A94D2F70E94A72F81E090E075
:101C60000895FC01DB0180912D0B882329F410825B
:101C70001C9280E090E0089580913B0880838091E1
:101C800040088C9380913D0890913E080895809380
:101C90002A08089580912A089927089580912A0892
:101CA0008330A1F0843028F4813051F08230D1F4B7
:101CB0000AC0853089F0853060F0863099F40FC015
:101CC00086E795E011C089E995E00EC08FEB95E0BD
:101CD0000BC08BEE95E008C08BE096E005C082E378
:101CE00096E002C085E596E09F938F930E94AA3FFD
:101CF0000F900F900895AC0120E030E0F901EE0F55
:101D0000FF1FC90173E0880F991F7A95E1F7E80F6B
:101D1000F91FE056F14F808191814817590739F436
:101D20008AE0289FC00111248056914F08952F5FAB
:101D30003F4F2A30310511F780E090E00895AC0163
:101D400020E030E0F901B4E0EE0FFF1FBA95E1F7B3
:101D5000E20FF31FEC5FF04F818192814817590722
:101D600039F481E1289FC00111248C5F904F0895C0
:101D70002F5F3F4F2031310529F780E090E0089533
:101D80000F931F93CF93DF93EC018C010C5F1F4FD8
:101D900060E070E0CB01880F991FDC0123E0AA0FFF
:101DA000BB1F2A95E1F7A80FB91FA055B34FFD013E
:101DB00097818C91882359F18481813041F5492F95
:101DC000407342954F70208531858B819927F901A9
:101DD000218132812817390721F4442309F1423047
:101DE000F9F0FD0182859385FC0180819181892B29
:101DF00071F0FD01A285B385F801828199272D91AB
:101E00003C912817390719F44150423048F06F5F70
:101E10007F4F6431710509F0BDCF80E090E002C0D2
:101E200081E090E0DF91CF911F910F9108952F9263
:101E30003F924F925F926F927F928F929F92AF925A
:101E4000BF92CF92DF92EF92FF920F931F93CF93A7
:101E5000DF93CDB7DEB72E970FB6F894DEBF0FBE77
:101E6000CDBF62E370E00E9492418983282F33271F
:101E70003C872B8789010F5F1F4F21E030E040E056
:101E800050E060E070E080E090E00E94993E222EF9
:101E9000332E442E552E662E772E882E992E39817C
:101EA0003F5F3A838091240E8B839091250E9C8313
:101EB000E091260EED83F091270EFE832091280EEF
:101EC0002F833091290E388780912A0E898790912F
:101ED0002B0E9A8737C02B8122213C8133214D81E3
:101EE00044215E8155216F8166217885772189851E
:101EF00088219A859921E22FE32BE42BE52BE62B11
:101F0000E72BE82BE92B41F0EA818E2F99272B85CF
:101F10003C85821B930B64C001E0222D332D442DA0
:101F2000552D662D772D882D992D0E94993E222EB4
:101F3000332E442E552E662E772E882E992E3A81DA
:101F40003F5F3A838A81823330F222242394332400
:101F50004424552466247724882499241E861D86CB
:101F6000AD852B8122213C8133214D8144215E812D
:101F700055216F81662178857721898588219A8509
:101F80009921E22FE32BE42BE52BE62BE72BE82B23
:101F9000E92B49F082E390E0EB85FC858E1B9F0BDB
:101FA0008A0F911D1DC02D853E852F5F3F4F3E87B7
:101FB0002D8739813217A0F001E0222D332D442DD9
:101FC000552D662D772D882D992D0E94993E222E14
:101FD000332E442E552E662E772E882E992EC0CF66
:101FE0002E960FB6F894DEBF0FBECDBFDF91CF9116
:101FF0001F910F91FF90EF90DF90CF90BF90AF9027
:102000009F908F907F906F905F904F903F902F9018
:1020100008950F931F93CF93DF93FC01EC57FF4F6D
:102020008081FB01C285D385882369F08A81482F8E
:10203000552740775070F4E055954795FA95E1F7AC
:1020400000E010E026C040E050E0FB01A085B18533
:102050002C813D81FD01818192812817390711F47E
:1020600041E050E0CA011CC00F5F1F4FAA0FBB1F09
:10207000AC0FBD1FFB0180859185FD012481358159
:10208000FC01818192812817390719F481E090E0E1
:1020900007C0A02FBB27A417B50734F380E090E05A
:1020A000DF91CF911F910F9108952F923F924F9200
:1020B0005F926F927F928F929F92AF92BF92CF92D8
:1020C000DF92EF92FF920F931F93CF93DF93CDB7E1
:1020D000DEB727970FB6F894DEBF0FBECDBF2C0139
:1020E000FC017780F0E37F22769476947694769460
:1020F00009F0C5C01D82F201A085B185109709F4D1
:1021000097C18C91882309F493C1FD01C180D280CD
:1021100040E020E030E060E070E085E890E0289F5B
:102120003001299F700C389F700C112484E190E1DC
:10213000680E791EA6E7B0E06A0E7B1EF30180816F
:10214000AAE8BFEF6A0E7B1E882309F48CC0E5E77E
:10215000F0E06E0E7F1ED3018C91EBE8FFEF6E0E68
:102160007F1E882309F47FC08AE790E0680E791EFD
:10217000D3018D919C91E6E8FFEF6E0E7F1E8C15CA
:102180009D0509F070C04423F9F489E790E0680EDA
:10219000791ED301BC91BD83FB01EC5EFF4EFC8335
:1021A000EB8387E090E0680E791ED3018D909D90BF
:1021B000AD90BC90F30112910291F290E2903F0138
:1021C00084E89FEF680E791ED301A758BF4F8C910A
:1021D0009D81981740F18C91981709F043C0A30195
:1021E00044585F4FFA0180819181A281B3818E159D
:1021F0009F05A007B107B8F080819181A281B381CA
:10220000E816F9060A071B0769F580E890E0680EF2
:10221000791EF30180819181A281B381881599058E
:10222000AA05BB05F8F485E890E0289FD001299F16
:10223000B00D389FB00D1124AC5EBF4EA758BF4FF4
:10224000FC91FD83CB018C5E9F4E9C838B83179604
:102250008D909D90AD90BC901397FD0112910291CD
:10226000F290E29041E02F5F3F4F6B577F4F243158
:10227000310509F052CF442309F0DCC0D9C0872DC5
:102280008150823008F0D3C0F201A285B385109747
:1022900021F08D919C91892B29F4F2E07F1609F0B1
:1022A000C7C028CF1D826624222433241A821982B3
:1022B00085E890E0289EF001299EF00D389EF00DF3
:1022C00011249F012C5E3F4E2A583F4FD9018C911B
:1022D000A657B040BF83AE83882309F494C0AB589F
:1022E000BF4F8C91A557B040BF83AE83882309F4BC
:1022F0008AC0E75EFF4E8281882309F484C0992753
:10230000F201A285B3852D913C918217930709F0C4
:102310007AC0C980DA8024E130E1C20ED31EB20156
:10232000C6010E940910882309F46DC06620C9F413
:102330008E819F8187589F4F9F838E83DC01BC9144
:10234000BD83DC82CB820796FC0180809180A280D5
:10235000B38012910291F290E290EC57F040FF832B
:10236000EE83AE81BF81A758BF4F8C91FD81F817D6
:1023700040F18C91F81709F044C0EE81FF81E458D8
:10238000FF4F80819181A281B3818E159F05A007A7
:10239000B107B8F080819181A281B381E816F90676
:1023A0000A071B0771F52E813F8120583F4FF90125
:1023B00080819181A281B38188159905AA05BB0509
:1023C00000F585E890E0289ED001299EB00D389E4A
:1023D000B00D1124AC5EBF4EA758BF4FFC91FD83DA
:1023E00029813A812C5E3F4E3C832B8317968D903A
:1023F0009D90AD90BC901397FD0112910291F290C7
:10240000E290662463940894211C311C89819A818E
:102410008B579F4F9A83898394E12916310409F0E1
:1024200047CF662039F4A2E07A1611F464CE04C0D6
:102430001C821B828B819C8127960FB6F894DEBF8D
:102440000FBECDBFDF91CF911F910F91FF90EF9005
:10245000DF90CF90BF90AF909F908F907F906F90C4
:102460005F904F903F902F900895FC01EA58FF4FE6
:10247000108212923296118210828091881A8150B5
:102480008093881A08951092BB1A80E090E0FC01B6
:10249000EE0FFF1FEE0FFF1FE554F54E1282118263
:1024A00001968431910599F70895CF93DF9320E049
:1024B00030E00FC0FF27EE0FFF1FEE0FFF1FDF0101
:1024C000A554B54EED011A821982E154F54E1082E1
:1024D0001B82E22F8091BB1A2F5F3F4FE81750F30A
:1024E0001092BB1ADF91CF9108958CE19EE00E947B
:1024F000A6350895CF93DF93CDB7DEB728970FB6F3
:10250000F894DEBF0FBECDBFCE0101960E94A63566
:1025100060E070E089819A81AB81BC8120911C0EC2
:1025200030911D0E40911E0E50911F0E821B930B79
:10253000A40BB50BCD97A105B10510F061E070E0DB
:10254000CB0128960FB6F894DEBF0FBECDBFDF914A
:10255000CF91089520E030E0F901EE0FFF1FCF0189
:1025600043E0880F991F4A95E1F7E80FF91FE055FE
:10257000F34F10822F5F3F4F2431310569F780E020
:1025800090E0FC0124E0EE0FFF1F2A95E1F7E80F31
:10259000F91FEC5FF04F108201968031910589F7A9
:1025A0001092881A1092180E8CE390E090931B0EF4
:1025B00080931A0E8CE19EE00E94A6350895AC012E
:1025C00020E030E011C0FF27EE0FFF1FEE0FFF1FCE
:1025D000E554F54E818192812F5F3F4F8417950717
:1025E00019F481E090E00895E22F8091BB1A28173A
:1025F00050F38091BB1A843130F085E00E94470E81
:102600008FEF9FEF0895E091BB1AFF27EE0FFF1F9A
:10261000EE0FFF1FE554F54E528341838091BB1AA4
:102620008F5F8093BB1A8091BB1A992701979F9364
:102630008F935F934F9387E696E09F938F930E94CB
:10264000AA3F81E090E02DB73EB72A5F3F4F0FB61B
:10265000F8943EBF0FBE2DBF0895482F20E030E014
:10266000C901880F991FFC01A3E0EE0FFF1FAA9577
:10267000E1F7E80FF91FE055F34F8081882351F00F
:102680008089841739F482E1289FC0011124805584
:10269000934F08952F5F3F4F2431310509F7842F61
:1026A00099279F938F938BE896E09F938F930E9437
:1026B000AA3F80E090E00F900F900F900F90089548
:1026C000CF92DF92EF92FF920F931F93CF93DF93FE
:1026D0007C01562FB9018091881A853110F083E072
:1026E00003C0443720F084E00E94470E45C0A0E0BC
:1026F000B0E085E890E0A89F6001A99FD00CB89F4A
:10270000D00C1124F601EC5EFF4E9F012A583F4F7A
:10271000E9018881882309F54083E758FF4F5083FA
:10272000349781E0808388833596F182E082339705
:10273000118300833D9610825527C6018B5E9F4E04
:102740000E941F3FC60180579F4E0E94A635809170
:10275000881A8F5F8093881A08C08A2F8F5F11961E
:10276000A431B10531F6843119F081E090E006C062
:1027700081EB96E00E94C13F8FEF9FEFDF91CF91F9
:102780001F910F91FF90EF90DF90CF900895EF92FF
:10279000FF920F931F934091BB1A042F1127000F34
:1027A000111F000F111F402F4F5F13E3E12E1EE09A
:1027B000F12E1092330E55276BEB7AE1C70101968B
:1027C0000E941F3F8091210980932F0E9091AE0CA3
:1027D00090932E0E402F475F29EF3FEFE20EF31E3E
:1027E00000E010E0970160E099270E9460139927AC
:1027F00087FD90951F910F91FF90EF9008958F9214
:102800009F92AF92CF920F931F93CF93DF93CDB749
:10281000DEB7CB01642F4A2DF4018383C6820B857A
:102820001C8594010E946013992787FD9095DF9184
:10283000CF911F910F91CF90AF909F908F9008955F
:102840000E940D0608958F929F92AF92CF92EF92C1
:102850000F931F931F930F934901A42EC62EEE24AE
:1028600000E020E040E0BC0180E090E00E94FF1327
:102870000F900F908F3F11F40E944E0E1F910F91F9
:10288000EF90CF90AF909F908F9008956F927F922E
:102890008F929F92AF92BF92DF92EF92FF920F932F
:1028A0001F93CF93DF937C01D62E5A014901380143
:1028B00010E020E0C0E0D0E0FE01EE0FFF1FCE01EF
:1028C00043E0880F991F4A95E1F7E80FF91FE0569A
:1028D000F14F80819181E816F90651F4FF92EF9251
:1028E00084EC96E09F938F930E94AA3F1C2F20C0F8
:1028F00080819181892B21F4222311F41C2F21E066
:102900002196CA30D105C1F6222341F486E00E9407
:10291000470E0E944E0E80E090E031C0812F992733
:102920009F938F9389EE96E09F938F930E94AA3F87
:102930000F900F900F900F90E12FFF27CF0133E002
:10294000880F991F3A95E1F7EE0FFF1FE80FF91F67
:10295000E056F14FF182E0828281DD0CDD0CDD0C6E
:10296000DD0C8D298283B582A4829782868271864E
:1029700060868AE0189FC00111248056914FDF9134
:10298000CF911F910F91FF90EF90DF90BF90AF908C
:102990009F908F907F906F9008956F927F928F920B
:1029A000AF92CF92EF92FF920F931F93CF93DF934B
:1029B000CDB7DEB728970FB6F894DEBF0FBECDBFF8
:1029C0003C0109831A832B833C834D835E836F8391
:1029D0007887FF2420E000E010E0302FF801A4E029
:1029E000EE0FFF1FAA95E1F7E00FF11FEC5FF04F2C
:1029F000818192816816790669F48081882351F07B
:102A00007F926F9283E097E09F938F930E94AA3FFB
:102A1000F02E2AC0F80174E0EE0FFF1F7A95E1F75F
:102A2000E00FF11FEC5FF04F8081882321F4222317
:102A300011F4F32E21E00F5F1F4F0031110569F6ED
:102A4000222341F482E00E94470E0E944E0E80E055
:102A500090E047C08F2D99279F938F938CE297E04A
:102A60009F938F930E94AA3F0F900F900F900F900B
:102A70008F2D9927DC0164E0AA0FBB1F6A95E1F74F
:102A8000A80FB91FAC5FB04FFD017282618281E077
:102A90008C939D012D5F3F4F898183838A81F9014A
:102AA00081838B8182838C8183838D8184838E81DA
:102AB00085838F81868388858783FD01E386C4862D
:102AC000AA2019F0858580688587FD0186868E8914
:102AD00087878F89808B81E1F89EC00111248C5FEC
:102AE000904F28960FB6F894DEBF0FBECDBFDF9192
:102AF000CF911F910F91FF90EF90CF90AF908F905B
:102B00007F906F9008956F927F928F929F92AF9275
:102B1000BF92CF92DF92EF92FF920F931F93CF93CA
:102B2000DF93A82EEB017A01D22E602E8EE38A1558
:102B300028F489E497E00E94C13FEDC00FEF20E048
:102B400030E0722E0F3F89F4F901EE0FFF1FCF0125
:102B500063E0880F991F6A95E1F7E80FF91FE055C8
:102B6000F34F8081882309F4022FF901EE0FFF1F34
:102B7000CF0143E0880F991F4A95E1F7E80FF91F4D
:102B8000E055F34F80898A1581F48A2D99279F9308
:102B90008F9383E697E09F938F930E94AA3F072D20
:102BA0000F900F900F900F9010C073942F5F3F4FB6
:102BB0002431310531F60F3F41F481E00E94470E88
:102BC0000E944E0E8FEF9FEFA6C0E1E0DE1619F0D7
:102BD000882499240CC0209719F48824992404C0CF
:102BE000CE010E949F0E4C01E114F10419F4C0E0E3
:102BF000D0E004C0C7010E947B0EEC01112707FD45
:102C000010951F930F938AE897E09F938F930E94EC
:102C1000AA3F000F111FD80183E0AA0FBB1F8A959E
:102C2000E1F7A00FB11FA055B34F81E08C93FD01D8
:102C300091868086D387C287D482A08AD387C287B1
:102C4000E72DFF27EE0FFF1FCF0113E0880F991F1D
:102C50001A95E1F7E80FF91FE055F34F8781660CED
:102C6000660C660C660C8629FD0187830F900F9019
:102C70000F900F90F7E1AF1641F46091E11B709156
:102C8000E21B88E790E00E947D3F0A2D112721E09A
:102C900030E040E050E060E070E080E090E00E94D2
:102CA000993EA22EB32EC42ED52EE62EF72E082F37
:102CB000192FE091240EF091250EA091260EB091CF
:102CC000270E9090280E8090290E70902A0E60900A
:102CD0002B0E2E2F2A293F2F3B294A2F4C295B2FC1
:102CE0005D29692D6E29782D7F29872D802B962DC2
:102CF000912B2093240E3093250E4093260E509353
:102D0000270E6093280E7093290E80932A0E9093BD
:102D10002B0E81E090E0DF91CF911F910F91FF90FA
:102D2000EF90DF90CF90BF90AF909F908F907F906B
:102D30006F900895EAE7F0E083E08083ACE7B0E0CD
:102D400080E48C9380818068808310920D1B8C912D
:102D5000807E8C939C918C91807E892B8C9308959E
:102D600088EC90E00E942C39089580917A0080646C
:102D700080937A0080917A0084FFFCCF0E94B01685
:102D8000209178003327809179009927982F882700
:102D9000822B932B0895FF920F931F93CF93DF9372
:102DA000CDB7DEB722970FB6F894DEBF0FBECDBF0A
:102DB0000E940B198C01009711F00E94532F159A55
:102DC000FF248F2D806299279A83898340988BE115
:102DD0008EBD0DB407FEFDCF89819A81892F992779
:102DE0008EBD0DB407FEFDCF89819A818EBD0DB4D5
:102DF00007FEFDCF409A82E090E00E942C39409877
:102E00008BE58EBD0DB407FEFDCF1EBC0DB407FED5
:102E1000FDCF8EB59927982F88279A8389831EBC6A
:102E20000DB407FEFDCF89819A812EB53327282B5B
:102E3000392B3A832983409A89819A8186FD05C07E
:102E4000F3942FE1F21609F0BCCF0115110519F02A
:102E5000C8010E94012EFF20C9F40E94B5169A8372
:102E6000898389819A818F3A910530F089819A818D
:102E70008E5A90409A83898389819A818A5491409D
:102E800098F48AE491E09A8389830EC02DE7F29E3C
:102E90009001112488E293E2821B930B6BE170E0B6
:102EA0000E94A6417A83698389819A8122960FB60E
:102EB000F894DEBF0FBECDBFDF91CF911F910F9170
:102EC000FF900895CF92DF92EF92FF920F931F939E
:102ED000CF93DF93982FEA01122F823009F481C03B
:102EE000833030F4882371F0813009F0D2C010C0F3
:102EF000843009F481C0843008F477C0853009F04B
:102F0000C8C02DC080E880BB8F9A0E949A166AC004
:102F100080910C1B813009F4C3C090930C1B772760
:102F200060FF13C08F9810920D1B80917C00807EF3
:102F300080937C0090917C0080917C00807E892B26
:102F400080937C0088EE93E09FC061FDA9C062FD84
:102F5000A7C067707070672B09F4A2C097C0822F5A
:102F60008150823008F099C090910D1B892F8150BB
:102F7000863018F40E94B51622C0992319F40E94D5
:102F8000CB161DC0973051F5F1E0CF2EF4E0DF2EC7
:102F9000EE24FF2400E00E94B5168C159D0508F470
:102FA0006C01E816F90608F47C018DE790E00E94B8
:102FB0002C390F5F003479F7C7018C199D09123045
:102FC00031F48883892F9927898381E008C01130E3
:102FD00029F49695879596958795888380E08F5FED
:102FE00009C08F9A10920C1B51C0613009F058C073
:102FF00080910D1B992756C0613009F051C02730D0
:10300000D9F420930D1B80917C008F7780937C00F6
:1030100080917C00806480937C0080917C00807E25
:1030200080937C0090917C0080917C009360807EF6
:10303000982B90937C0026C0283020F081E00E94DD
:10304000F82A2EC020930D1B213049F480917C007A
:103050008F7780937C0080917C00806403C0809196
:103060007C00806C80937C0080917C00807E8093CB
:103070007C0090917C0080917C00807E892B812B4C
:1030800080937C0088EC90E00E942C3981E090E0F5
:1030900009C060E08CE00E94BD2B80E090E002C09F
:1030A0008FEF90E0DF91CF911F910F91FF90EF9004
:1030B000DF90CF90089599279C01265A3E4B0B979D
:1030C000880F991F880F991F280F391FF89440986F
:1030D00088E18EBD0DB407FEFDCF832F99278EBDED
:1030E0000DB407FEFDCF2EBD0DB407FEFDCF409AF7
:1030F00078940895F89440981EBC0DB407FEFDCF57
:103100008EB5409A789486FFF5CF08958091231B61
:1031100099270895CF93DF93DC01409889EC8EBD09
:103120000DB407FEFDCF80E88EBD0DB407FEFDCFC8
:1031300092E09150FD01E90FF11D80818EBD0DB42B
:1031400007FEFDCF9923A9F7409A40988BEC8EBDDE
:103150000DB407FEFDCF80E88EBD0DB407FEFDCF98
:1031600092E09D012E5F3F4FE9019150F901E90F77
:10317000F11D80818EBD0DB407FEFDCF9923A1F70F
:10318000409A8C918093241BFD0181818093251BA3
:1031900088818093261B83818093271BDF91CF91A9
:1031A0000895409889E18EBD0DB407FEFDCF83E000
:1031B0008EBD0DB407FEFDCF86E08EBD0DB407FEBB
:1031C000FDCF409A40988AE18EBD0DB407FEFDCF39
:1031D0008EE08EBD0DB407FEFDCF8EE08EBD0DB42A
:1031E00007FEFDCF409A81E08093141B089540981C
:1031F00089E18EBD0DB407FEFDCF81E08EBD0DB41B
:1032000007FEFDCF84EC8EBD0DB407FEFDCF409AC6
:103210001092141B08958091121B9091131B089516
:103220002091151B3091161B38603093161B20938C
:10323000151B409881E18EBD0DB407FEFDCF832F95
:1032400099278EBD0DB407FEFDCF2EBD0DB407FE30
:10325000FDCF409A08952091151B3091161B377FA2
:103260003093161B2093151B409881E18EBD0DB441
:1032700007FEFDCF832F99278EBD0DB407FEFDCF2E
:103280002EBD0DB407FEFDCF409A089581E08093D6
:10329000221B2091151B3091161B20613093161BA9
:1032A0002093151B409881E18EBD0DB407FEFDCF24
:1032B000832F99278EBD0DB407FEFDCF2EBD0DB413
:1032C00007FEFDCF409A08951092221B2091151BF6
:1032D0003091161B2F7E3093161B2093151B4098A0
:1032E00081E18EBD0DB407FEFDCF832F99278EBDE2
:1032F0000DB407FEFDCF2EBD0DB407FEFDCF409AE5
:10330000089589B1992766E0969587956A95E1F7C2
:103310008170907008958CB1992787FD90958827CA
:10332000990F881F9927089589B19927E6E0969506
:103330008795EA95E1F78170907008958091281B38
:10334000882319F480E090E008958091281B109262
:10335000281B992787FD90950895409888E08EBD99
:103360000DB407FEFDCF409A409888E08EBD0DB4A5
:1033700007FEFDCF409A08958091121B9091131B78
:103380000E94532F409886E08EBD0DB407FEFDCFFE
:10339000409A8091121B9091131B0E94012E089558
:1033A0008091121B9091131B0E94532F409884E030
:1033B0008EBD0DB407FEFDCF409A8091121B9091F7
:1033C000131B0E94012E08958091121B9091131BD4
:1033D0000E94532F409886E08EBD0DB407FEFDCFAE
:1033E000409A409882E18EBD0DB407FEFDCF85E086
:1033F0008EBD0DB407FEFDCF1EBC0DB407FEFDCF84
:10340000409A40988EE28EBD0DB407FEFDCF1EBCE3
:103410000DB407FEFDCF1EBC0DB407FEFDCF409AD4
:103420000E94AD198091121B9091131B0E94012ED6
:1034300008958091121B9091131B0E94532F409866
:1034400086E08EBD0DB407FEFDCF409A409882E124
:103450008EBD0DB407FEFDCF85E08EBD0DB407FE19
:10346000FDCF88E08EBD0DB407FEFDCF409A409899
:103470008EE28EBD0DB407FEFDCF88E18EBD0DB48A
:1034800007FEFDCF1EBC0DB407FEFDCF409A0E9483
:10349000AD198091121B9091131B0E94012E08956B
:1034A0000F931F93082F8091121B9091131B0E9462
:1034B000532F112707FD1095302F222720684098A1
:1034C00083E18EBD0DB407FEFDCF832F99278EBDFE
:1034D0000DB407FEFDCF2EBD0DB407FEFDCF409A03
:1034E0008091121B9091131B0E94012E1F910F912E
:1034F00008950F931F93CF93DF93CDB7DEB7249733
:103500000FB6F894DEBF0FBECDBF182F062F8091E7
:10351000121B9091131B0E94532F679B4CC2109259
:10352000231B679B25C0319923C040988FE78EBD30
:103530000DB407FEFDCF1EBC0DB407FEFDCF8EB54A
:10354000409A409888E08EBD0DB407FEFDCF409AAA
:10355000409888E08EBD0DB407FEFDCF409A809163
:10356000121B9091131B0E94012E8FEF9FEF2BC215
:1035700040988FE78EBD0DB407FEFDCF1EBC0DB485
:1035800007FEFDCF4EB5409A4F7719F540988FE76B
:103590008EBD0DB407FEFDCF1EBC0DB407FEFDCFE2
:1035A0008EB5409A409888E08EBD0DB407FEFDCFE1
:1035B000409A409888E08EBD0DB407FEFDCF409A3A
:1035C0008091121B9091131B0E94012E8EEF9FEF92
:1035D000FAC145308CF0E091171BF091181B242F95
:1035E000332727FD30952B5030408481992787FD64
:1035F000909582179307F4F540988FE78EBD0DB430
:1036000007FEFDCF60E070E0242F332727FD3095C3
:1036100006C01EBC0DB407FEFDCF6F5F7F4F862F27
:1036200099278217930714F43199F3CF409A409861
:103630008FE78EBD0DB407FEFDCF1EBC0DB407FE97
:10364000FDCF8EB5409A409888E08EBD0DB407FE40
:10365000FDCF409A409888E08EBD0DB407FEFDCFA7
:10366000409A8091121B9091131B0E94012E8DEFA6
:103670009FEFA9C1E091171BF091181B4C50438399
:103680001123B1F0E091171BF091181B838199274A
:1036900087FD9095202F33278217930749F080915B
:1036A000121B9091131B0E94012E8AEF9FEF8BC17A
:1036B00040988FE78EBD0DB407FEFDCFFE01319619
:1036C0009E012D5F3F4F1EBC0DB407FEFDCF8EB592
:1036D0008193E217F307B9F7409AE091171BF09135
:1036E000181B89819A81B5E096958795BA95E1F77F
:1036F0008170878340988FE78EBD0DB407FEFDCFA4
:103700001EBC0DB407FEFDCFE091171BF091181BF6
:103710008EB58083409A40988FE78EBD0DB407FE2A
:10372000FDCF80E007C01EBC0DB407FEFDCF8F5F4C
:10373000843011F03199F7CF409A40988FE78EBDD1
:103740000DB407FEFDCF20E030E01EBC0DB407FE37
:10375000FDCFE091171BF091181BE20FF31F8EB500
:1037600081832F5F3F4F2230310579F7409A89815D
:103770009A8183FF56C040988FE78EBD0DB407FE37
:10378000FDCFEEE0FBE11EBC0DB407FEFDCF8EB514
:1037900081938BE1E231F807B1F7409A409889E9CB
:1037A0008EBD0DB407FEFDCF80E88EBD0DB407FEC3
:1037B000FDCF92E09150E92FFF27E25FF44E808128
:1037C0008EBD0DB407FEFDCF9923A1F7409A409816
:1037D0008BE98EBD0DB407FEFDCF80E88EBD0DB424
:1037E00007FEFDCF92E09150E92FFF27E05FF44EF6
:1037F00080818EBD0DB407FEFDCF9923A1F7409ABD
:1038000040988CE08EBD0DB407FEFDCF409A81E05C
:103810008093231BE091171BF091181B8381845028
:10382000838340988FE78EBD0DB407FEFDCF40E047
:1038300050E011C01EBC0DB407FEFDCFE091171B78
:10384000F091181B0580F681E02DE60FF11D8EB575
:1038500080834F5F5F4F642FE091171BF091181B1F
:10386000242F33278381992787FD909528173907BF
:103870000CF3409A40988FE78EBD0DB407FC0AC048
:10388000FCCF0DB407FEFDCF5EB5409A40988FE7A0
:103890008EBD02C01EBCF5CF0DB407FEFDCFFE01EC
:1038A00033969E012B5F3F4F1EBC0DB407FEFDCF2C
:1038B0008EB58193E217F307B9F7409AE091171B91
:1038C000F091181B8B81808740E020E030E00AC037
:1038D000E091171BF091181B85819681A80FB91FE5
:1038E0008C91480F822FE091171BF091181B2F5FCE
:1038F0003F4FA82FBB278381992787FD9095A81755
:10390000B90734F3451719F140988FE78EBD0DB410
:1039100007FEFDCF1EBC0DB407FEFDCF8EB5409A4D
:10392000409888E08EBD0DB407FEFDCF409A4098C8
:1039300088E08EBD0DB407FEFDCF409A8091121B2A
:103940009091131B0E94012E8CEF9FEF3CC08C8145
:1039500087FF0EC08091281B8F5F8093281B80916A
:10396000121B9091131B0E94012E81E090E02BC04E
:1039700040988FE78EBD0DB407FEFDCF1EBC0DB481
:1039800007FEFDCF8EB5409A409888E08EBD0DB4FD
:1039900007FEFDCF409A409888E08EBD0DB407FE2B
:1039A000FDCF409A8091121B9091131B0E94012E13
:1039B0008BEF9FEF08C08091121B9091131B0E9408
:1039C000012E80E090E024960FB6F894DEBF0FBE83
:1039D000CDBFDF91CF911F910F9108958091121B60
:1039E0009091131B0E94532F10921F1B409886E04A
:1039F0008EBD0DB407FEFDCF409A1092281B80911A
:103A0000121B9091131B0E94012E08958091121B8E
:103A10009091131B0E94532F81E080931F1B4098AD
:103A200083E08EBD0DB407FEFDCF409A409888E03C
:103A30008EBD0DB407FEFDCF409A1092281B8091D9
:103A4000121B9091131B0E94012E08958091121B4E
:103A50009091131B0E94532F81E080931F1B40986D
:103A600083E08EBD0DB407FEFDCF409A409888E0FC
:103A70008EBD0DB407FEFDCF409A1092281B809199
:103A8000121B9091131B0E94012E08951F93182F53
:103A90008091121B9091131B0E94532F212F3327CB
:103AA0002F713070206E306A409885E18EBD0DB464
:103AB00007FEFDCF832F99278EBD0DB407FEFDCFE6
:103AC0002EBD0DB407FEFDCF409A8091121B909140
:103AD000131B0E94012E1F910895EF92FF920F93E6
:103AE0001F93CF93DF93CDB7DEB722970FB6F8942D
:103AF000DEBF0FBECDBF8C018091121B9091131BB6
:103B00000E94532F5091141B552339F040988DE09B
:103B10008EBD0DB407FEFDCF409AF8014281642F9F
:103B2000772767FD7095A0E020E030E008C0F8013D
:103B300083819481E80EF91EF7018081A80F822FFE
:103B40002F5F3F4FE82EFF24E616F70684F3942FED
:103B5000945F51119C5F6799FECF4E99FCCFF8940A
:103B6000409889E08EBD0DB407FEFDCF409A409885
:103B700089E08EBD0DB407FEFDCF409A40988EE3DC
:103B80008EBD0DB407FC05C0FCCF0DB407FC30C1E1
:103B9000FCCF9EBDFACF81E698E89A8389835523AE
:103BA00029F089819A8188609A83898340988EE37D
:103BB0008EBD0DB407FEFDCFFE0131969E012D5F37
:103BC0003F4F80818EBD0DB407FEFDCF3196E217C9
:103BD000F307B9F7409A40988EE38EBD0DB407FC09
:103BE00005C0FCCF0DB407FC0EC1FCCF8091191BA2
:103BF0008EBDF8CF0DB407FEFDCF20E030E0F90117
:103C0000E55EF44E80818EBD0DB407FEFDCF2F5FC3
:103C10003F4F2230310599F7409A40988EE38EBD90
:103C20000DB407FEFDCF20E030E0F801E20FF31FF6
:103C300080818EBD0DB407FEFDCF2F5F3F4F223038
:103C4000310599F7409A40988EE38EBD0DB407FE7A
:103C5000FDCF20E030E0F901E35EF44E80818EBDBF
:103C60000DB407FEFDCF2F5F3F4F2230310599F78E
:103C7000409A552399F040988EE38EBD0DB407FE0F
:103C8000FDCFE4E2FBE180818EBD0DB407FEFDCFE8
:103C900031968BE1E832F807B1F7409A40988EE30D
:103CA0008EBD0DB407FEFDCF20E030E00DC0F80161
:103CB00083819481480F591FFA0180818EBD0DB414
:103CC00007FEFDCF2F5F3F4F422F5527461757075F
:103CD00074F3409A40988EE38EBD0DB407FC05C086
:103CE000FCCF0DB407FC94C0FCCFAEBDFACF8091E1
:103CF0001F1B882339F4409883E08EBD0DB407FE66
:103D0000FDCF409A40981EBC0DB407FEFDCF8EB586
:103D1000409A81FFF7CF00E0409885E08EBD0DB45A
:103D200007FEFDCF409A40981EBC0DB407FEFDCFA4
:103D30001EB5409A0F5F053651F478948091121B9E
:103D40009091131B0E94012E80E090E068C084E6F1
:103D500090E00E943D2813FD08C0DECF409884E02B
:103D60008EBD0DB407FEFDCF409A78944E9BFECFDA
:103D70004E99FECF8091221B882391F084EA92E035
:103D80000E943D28319B0EC040988FE78EBD0DB438
:103D900007FEFDCF1EBC0DB407FEFDCF8EB5409AC9
:103DA00011E00FC0409888E08EBD0DB407FEFDCF36
:103DB000409A409888E08EBD0DB407FEFDCF409A32
:103DC00010E0F894409886E08EBD0DB407FEFDCF5C
:103DD000409A78948091191B8F5F8093191B809172
:103DE000121B9091131B0E94012E812F992717C03F
:103DF000409A81E498E89A8389838091221B8823E2
:103E000009F0C9CECCCE409A40988EE38EBDF2CE5A
:103E1000409AF8018581882309F069CF9FCF2296C7
:103E20000FB6F894DEBF0FBECDBFDF91CF911F91CB
:103E30000F91FF90EF9008958F929F92BF92CF9233
:103E4000DF92EF92FF920F931F93CF93DF93CDB743
:103E5000DEB722970FB6F894DEBF0FBECDBF8C0140
:103E60006B017A0149018091121B9091131B0E94F2
:103E7000532F0E94F239409888E08EBD0DB407FEA2
:103E8000FDCF409A409888E08EBD0DB407FEFDCF6F
:103E9000409A6799FECF4E99FCCFF894409889E0FC
:103EA0008EBD0DB407FEFDCF409A409889E08EBDCF
:103EB0000DB407FEFDCF409AF8016281462F5527C9
:103EC00047FD5095BB2420E030E007C0F801838116
:103ED0009481A80FB91F8C91B80E822F2F5F3F4F8E
:103EE000A82FBB27A417B5078CF3962F945F409893
:103EF0008EE38EBD0DB407FC05C0FCCF0DB407FCEE
:103F000014C1FCCF9EBDFACF81E698E89A838983DD
:103F100040988EE38EBD0DB407FEFDCFFE013196B5
:103F20009E012D5F3F4F80818EBD0DB407FEFDCFFA
:103F30003196E217F307B9F7409A40988EE38EBDA9
:103F40000DB407FC05C0FCCF0DB407FCF7C0FCCFD7
:103F50008091191B8EBDF8CF0DB407FEFDCF20E078
:103F600030E0F901E55EF44E80818EBD0DB407FEB0
:103F7000FDCF2F5F3F4F2230310599F7409A40988F
:103F80008EE38EBD0DB407FEFDCF20E030E0F801DA
:103F9000E20FF31F80818EBD0DB407FEFDCF2F5FB2
:103FA0003F4F2230310599F7409A40988EE38EBDFD
:103FB0000DB407FEFDCF20E030E0F901E35EF44EE2
:103FC00080818EBD0DB407FEFDCF2F5F3F4F2230A5
:103FD000310599F7409AB701C6010E94773AF80176
:103FE0008581882379F180911F1B882339F44098BB
:103FF00083E08EBD0DB407FEFDCF409AEE244098BD
:1040000085E08EBD0DB407FEFDCF409A40981EBCE2
:104010000DB407FEFDCFFEB4409AE394F5E6EF162B
:1040200051F478948091121B9091131B0E94012EE1
:1040300080E090E08AC084E690E00E943D28F3FC96
:1040400008C0DDCF409884E08EBD0DB407FEFDCFE3
:10405000409A40988EE38EBD0DB407FEFDCFF80167
:104060008281482F552747FD509520E030E00CC055
:10407000F80183819481A80FB91F8C918EBD0DB476
:1040800007FEFDCF2F5F3F4FA22FBB27A417B50719
:104090007CF3409A40988EE38EBD0DB407FC05C0BA
:1040A000FCCF0DB407FC4FC0FCCFBEBCFACF4E9B7B
:1040B000FECF8091840090918500F40191838083EC
:1040C000F8944E99FECF409888E08EBD0DB407FE5F
:1040D000FDCF409A409888E08EBD0DB407FEFDCF1D
:1040E000409A409889E08EBD0DB407FEFDCF409AFE
:1040F000409889E08EBD0DB407FEFDCF409A4098F0
:1041000086E08EBD0DB407FEFDCF409A7894809175
:10411000191B8F5F8093191B8091121B9091131BA9
:104120000E94012E81E090E010C0409AF801868143
:10413000882309F0E9CE81E498E8E8CE409A4098D7
:104140008EE38EBD09CF409AB2CF22960FB6F89477
:10415000DEBF0FBECDBFDF91CF911F910F91FF90BA
:10416000EF90DF90CF90BF909F908F900895CF9366
:10417000DF93CDB7DEB722970FB6F894DEBF0FBE40
:10418000CDBF9A83898390931E1B80931D1B84EF60
:1041900091E00E942C3940988AEE8EBD0DB407FE46
:1041A000FDCF80E88EBD0DB407FEFDCFFE01319638
:1041B0009E012D5F3F4F80818EBD0DB407FEFDCF68
:1041C0003196E217F307B9F7409A84EF91E00E9425
:1041D0002C3922960FB6F894DEBF0FBECDBFDF910B
:1041E000CF9108956F927F928F929F92AF92BF92DC
:1041F000CF92DF92EF92FF920F931F93CF93DF93B3
:10420000CDB7DEB722970FB6F894DEBF0FBECDBF95
:104210008C0184E690E00E942C397801C12CB1E039
:10422000DB2E3E010894611C711CA3E08A2E912CA8
:104230008C0E9D1EF7018081218133279927982FAD
:104240008827282B392B3A83298384E690E00E9423
:104250002C3940988C2D80688EBD0DB407FEFDCFA3
:10426000C60195958795807C8EBD0DB407FEFDCF68
:1042700083015301F50180818EBD0DB407FEFDCF92
:104280000894A11CB11CA814B904A1F7409A089481
:10429000E11CF11C82E090E0C80ED91E90E1C91625
:1042A00091E0D90639F684E690E00E942C3920E1AD
:1042B00031E040E451E01A8219824098842F8068EE
:1042C0008EBD0DB407FEFDCFCA0195958795807C04
:1042D0008EBD0DB407FEFDCFF80180818EBD0DB4FB
:1042E00007FEFDCF3196EA15FB05B9F7409A4098D5
:1042F000822F80688EBD0DB407FEFDCFC901959554
:104300008795807C8EBD0DB407FEFDCFF8018081BE
:104310008EBD0DB407FEFDCF3196EA15FB05B9F74A
:10432000409A2E5F3F4F4E5F5F4FE1E02E313E07D8
:1043300011F681E090E09A83898340988EEC8EBDDF
:104340000DB407FEFDCF80E88EBD0DB407FEFDCF96
:10435000F80180818EBD0DB407FEFDCF3196EA15C0
:10436000FB05B9F7409A40988EE98EBD0DB407FE63
:10437000FDCF80E88EBD0DB407FEFDCFF801808132
:104380008EBD0DB407FEFDCF0F5F1F4F0A151B0535
:10439000A9F7409A22960FB6F894DEBF0FBECDBFA4
:1043A000DF91CF911F910F91FF90EF90DF90CF9011
:1043B000BF90AF909F908F907F906F9008951F93C4
:1043C000CF93DF93EC01162F8091121B9091131B5A
:1043D0000E94532F409888E08EBD0DB407FEFDCF9C
:1043E000409A409888E08EBD0DB407FEFDCF409AFC
:1043F000812F0E945B18D093181BC093171B8091CC
:10440000121B9091131B0E94012EDF91CF911F91DF
:1044100008951F93182F8091121B9091131B0E94D7
:10442000532F812F0E945B188091121B9091131BB8
:104430000E94012E1F910895DF92EF92FF920F9339
:104440001F93CF93DF93CDB7DEB722970FB6F894C3
:10445000DEBF0FBECDBF8C01D62E5A8349837901B2
:1044600064E181E00E94862D9093131B8093121BC0
:10447000892B31F40E94CD30682F8FE00E94BD2B34
:104480008091121B9091131B0E94532F8F3F21F498
:104490008AE891E00E94DC27159A88EE93E00E945A
:1044A0003D28169881E090E00E943D28169A84E607
:1044B00090E00E943D28F894409881E08EBD0DB4B4
:1044C00007FEFDCF409A82EE92E09093161B8093F8
:1044D000151B409881E18EBD0DB407FEFDCF82E033
:1044E0008EBD0DB407FEFDCF82EE8EBD0DB407FE6E
:1044F000FDCF409A409882E18EBD0DB407FEFDCFFE
:1045000085E08EBD0DB407FEFDCF1EBC0DB407FEC9
:10451000FDCF409A40988CE18EBD0DB407FEFDCFD3
:104520001EBC0DB407FEFDCF8FE78EBD0DB407FE98
:10453000FDCF409A409889E18EBD0DB407FEFDCFB6
:1045400081E08EBD0DB407FEFDCF84EC8EBD0DB4B1
:1045500007FEFDCF409A409887E18EBD0DB407FE5F
:10456000FDCF8AE18EBD0DB407FEFDCF86E58EBD81
:104570000DB407FEFDCF409A84EF91E00E942C39E4
:10458000409888EE8EBD0DB407FEFDCF80E88EBD4D
:104590000DB407FEFDCFFE0131969E012D5F3F4F0A
:1045A00080818EBD0DB407FEFDCF3196E217F30773
:1045B000B9F7409A84EF91E00E942C3978948D2DC0
:1045C0000E945B1878941093181B0093171B898125
:1045D0009A8190931C1B80931B1BF0921E1BE092F0
:1045E0001D1B1092191B10921F1B0E947A1880919C
:1045F000121B9091131B0E94012E8F3F39F48DE501
:1046000091E00E94DC2782E00E94F82A1092221B8F
:104610001092141B1092231B22960FB6F894DEBF43
:104620000FBECDBFDF91CF911F910F91FF90EF9003
:10463000DF90089520913B1B8091291B281781F062
:10464000E22FFF27E65DF44EE081822F8F5F80939B
:104650003B1B803111F410923B1B8E2F992708953C
:104660008091C80087FFFCCF8091C8008F7780932E
:10467000C8008091CE0099270895882351F4809135
:10468000C000992787FD90958827990F881F992743
:104690000895813019F080E090E0089520E030E046
:1046A00090913B1B8091291B981711F021E030E07D
:1046B000C901089585B7806185BF86E084B987E028
:1046C00085B981E087B988B98CE38DB98BE08AB967
:1046D0008EE38EB988E781B980E482B98FEF80BB21
:1046E00008950E945A2380E58CBD81E08DBD089518
:1046F0008F3F09F47FC0482F55279A0127703070EB
:1047000022303105A9F12330310544F4211531055A
:1047100089F02130310509F06DC01CC0243031050D
:1047200009F446C0243031059CF12530310509F0EB
:1047300061C04EC022B1A3E056954795AA95E1F716
:1047400081E090E002C0880F991F4A95E2F7282B7C
:1047500022B94DC085B1F3E056954795FA95E1F73A
:1047600002C0220F331F4A95E2F7822B85B93FC062
:1047700028B1E3E056954795EA95E1F781E090E0AE
:1047800002C0880F991F4A95E2F7282B28B92FC03D
:104790002BB173E0569547957A95E1F781E090E06B
:1047A00002C0880F991F4A95E2F7282B2BB91FC02A
:1047B0002EB163E0569547956A95E1F781E090E068
:1047C00002C0880F991F4A95E2F7282B2EB90FC017
:1047D00021B333E0569547953A95E1F781E090E0B3
:1047E00002C0880F991F4A95E2F7282B21BB81E070
:1047F00090E008958FEF9FEF08958F3F09F486C0F2
:10480000482F55279A012770307022303105C1F1A9
:104810002330310544F42115310589F0213031056B
:1048200009F074C01DC02430310509F44BC0243098
:104830003105BCF12530310509F068C054C022B102
:1048400073E0569547957A95E1F781E090E002C0D4
:10485000880F991F4A95E2F78095822382B953C049
:1048600095B163E0569547956A95E1F702C0220F2E
:10487000331F4A95E2F7822F8095892385B943C07B
:1048800028B133E0569547953A95E1F781E090E0FD
:1048900002C0880F991F4A95E2F78095822388B954
:1048A00032C02BB193E0569547959A95E1F781E098
:1048B00090E002C0880F991F4A95E2F78095822305
:1048C0008BB921C02EB183E0569547958A95E1F7C3
:1048D00081E090E002C0880F991F4A95E2F7809529
:1048E00082238EB910C021B3B3E056954795BA958F
:1048F000E1F781E090E002C0880F991F4A95E2F746
:104900008095822381BB81E090E008958FEF9FEF37
:1049100008958F3FA9F1282F3327C9018770907020
:1049200082309105A9F0833091052CF4009761F055
:10493000019731F50BC08430910571F084309105F9
:104940004CF00597E9F40AC080B109C083B107C0F3
:1049500086B105C089B103C08CB101C08FB1992760
:10496000E3E036952795EA95E1F702C0959587959E
:104970002A95E2F7992787FD9095817090700895A8
:104980008FEF9FEF08958F3F09F403C1282F33273E
:10499000A901477050704230510509F45CC04330A2
:1049A000510544F44115510591F04130510509F08C
:1049B000F0C034C04430510509F49BC04430510567
:1049C0000CF470C04530510509F0E3C0B9C080B1A6
:1049D000A90173E0569547957A95E1F79927042E3A
:1049E00002C0959587950A94E2F780FD0BC022B12D
:1049F00081E090E002C0880F991F4A95E2F7282BCA
:104A000022B9C4C022B181E090E002C0880F991F92
:104A10004A95E2F78095822382B9B8C083B163E0FA
:104A2000369527956A95E1F79927022E02C095954C
:104A300087950A94E2F702C0440F551F2A95E2F7C2
:104A400080FD03C085B1842B04C095B1842F80956F
:104A5000892385B99BC086B1A90193E056954795F6
:104A60009A95E1F79927042E02C0959587950A94A7
:104A7000E2F780FD0BC028B181E090E002C0880F12
:104A8000991F4A95E2F7282B28B980C028B181E008
:104A900090E002C0880F991F4A95E2F78095822323
:104AA00088B974C089B1A901B3E056954795BA9504
:104AB000E1F79927042E02C0959587950A94E2F7AD
:104AC00080FD0BC02BB181E090E002C0880F991FE0
:104AD0004A95E2F7282B2BB959C02BB181E090E021
:104AE00002C0880F991F4A95E2F7809582238BB9FF
:104AF0004DC08CB1A901A3E056954795AA95E1F761
:104B00009927042E02C0959587950A94E2F780FDB7
:104B10000BC02EB181E090E002C0880F991F4A952A
:104B2000E2F7282B2EB932C02EB181E090E002C00E
:104B3000880F991F4A95E2F7809582238EB926C087
:104B40008FB1A901F3E056954795FA95E1F79927BA
:104B5000042E02C0959587950A94E2F780FD0BC05C
:104B600021B381E090E002C0880F991F4A95E2F7D7
:104B7000282B21BB0BC021B381E090E002C0880F3D
:104B8000991F4A95E2F78095822381BB81E090E0EE
:104B900008958FEF9FEF08958F3F09F412C1482FBA
:104BA0005527662309F090C0CA0187709070823043
:104BB000910509F43EC0833091053CF4009789F0DB
:104BC0008130910509F0FDC021C08430910509F4C0
:104BD00054C0843091050CF43EC0059709F0F1C033
:104BE0005EC031B1B3E056954795BA95E1F781E0E3
:104BF00090E002C0880F991F4A95E2F7282F209570
:104C0000232321B922B1822B82B9D8C024B1A3E0D9
:104C100056954795AA95E1F702C0880F991F4A95C6
:104C2000E2F7982F8095822384B985B1982B95B9A6
:104C3000C5C037B1F3E056954795FA95E1F781E0A5
:104C400090E002C0880F991F4A95E2F7282F20951F
:104C5000232327B935C03AB1E3E056954795EA9545
:104C6000E1F781E090E002C0880F991F4A95E2F7D2
:104C7000282F209523232AB923C03DB173E05695F0
:104C800047957A95E1F781E090E002C0880F991F7F
:104C90004A95E2F7282F209523232DB911C030B370
:104CA00063E0569547956A95E1F781E090E002C090
:104CB000880F991F4A95E2F7282F2095232320BBC0
:104CC00025B1822B85B97AC09A01277030702230C5
:104CD0003105A9F12330310544F42115310589F05E
:104CE0002130310509F06DC01CC02430310509F4B4
:104CF00046C0243031059CF12530310509F061C0F2
:104D00004EC021B133E0569547953A95E1F781E0E1
:104D100090E002C0880F991F4A95E2F7282B21B92D
:104D20004DC084B193E0569547959A95E1F702C03E
:104D3000220F331F4A95E2F7822B84B93FC027B177
:104D4000B3E056954795BA95E1F781E090E002C04F
:104D5000880F991F4A95E2F7282B27B92FC02AB14F
:104D6000A3E056954795AA95E1F781E090E002C04F
:104D7000880F991F4A95E2F7282B2AB91FC02DB139
:104D8000F3E056954795FA95E1F781E090E002C08F
:104D9000880F991F4A95E2F7282B2DB90FC020B331
:104DA000E3E056954795EA95E1F781E090E002C08F
:104DB000880F991F4A95E2F7282B20BB81E090E0ED
:104DC00008958FEF9FEF0895882319F08FEF9FEFDD
:104DD000089580B1992787FD9095809590958827B3
:104DE000990F881F99270895009711F484E109C04D
:104DF0008130910511F48CE104C08230910531F4C9
:104E000084E20E94C32481E090E00895039719F0A2
:104E10008FEF9FEF08958CE20E94C32481E090E021
:104E20000895009711F484E109C08130910511F4CF
:104E30008CE104C08230910531F484E20E94782331
:104E400081E090E00895039719F08FEF9FEF0895A8
:104E50008CE20E94782381E090E00895009711F49D
:104E600084E109C08130910511F48CE104C08230E5
:104E7000910531F484E20E94FD2381E090E00895E1
:104E8000039719F08FEF9FEF08958CE20E94FD23A6
:104E900081E090E00895882319F085B78F7E02C0E5
:104EA00085B7806185BF81E090E00895982F80915B
:104EB000C00085FFFCCF8091C0008F7D8093C00033
:104EC0009093C6000895982F8091C80085FFFCCF6D
:104ED0009093CE000895292F33272093C500809307
:104EE000C40086E08093C200E1ECF0E080818B7F1B
:104EF0008083A0ECB0E08C9182608C93808188618B
:104F000080830895292F33272093CD008093CC00F0
:104F100086E08093CA00E9ECF0E080818B7F80839B
:104F2000A8ECB0E08C9182608C9380818861808352
:104F300008958091C00087FFFCCF8091C0008F77DB
:104F40008093C0008091C600992708950E9482270F
:104F50006AE173E283E697E20E942F3F9093E21B9F
:104F60008093E11B6AE173E283E697E20E942F3FA0
:104F70009093E01B8093DF1B0E94C42C80933A1B0C
:104F80008F3F19F48EE00E94C42B10923B1B1092AD
:104F9000291B8091C90080688093C9000895809181
:104FA0003A1B8F3F19F48EE00E94C42B80913A1B6C
:104FB000992787FD90950895CF93DF93EC0107C063
:104FC0006091E11B7091E21B99270E947D3FFE01D9
:104FD000219684918823A1F7DF91CF9108951F92A4
:104FE0000F920FB60F9211242F933F934F935F931D
:104FF0006F937F938F939F93AF93BF93EF93FF93A1
:105000008091C9008F778093C9008091C80087FF85
:10501000FCCF8091C8008F778093C8009091CE001C
:105020008091291BE82FFF27E65DF44E90838F5F68
:105030008093291B803111F41092291B80913A1B17
:105040000E94552E8091C8008F778093C800809170
:10505000C90080688093C900FF91EF91BF91AF9123
:105060009F918F917F916F915F914F913F912F9180
:105070000F900FBE0F901F901895000000000000C9
:1050800000000197D1F70895FC01A7E0B0E00E946D
:105090001242802D808381E090E00895FC018081A0
:1050A000A7E0B0E0082E0E941A4281E090E0089547
:1050B000DC010E941242802D99270895FC01A0E096
:1050C000B0E00E941242402D4383A1E0B0E00E9474
:1050D0001242802D8283A2E0B0E00E941242302D65
:1050E0003183A3E0B0E00E941242902D9083A4E0AF
:1050F000B0E00E941242202D830F840F890F2817E1
:1051000019F481E090E008958FEF9FEF0895FC017E
:10511000A5E0B0E00E941242802D808381E090E003
:105120000895FC01A6E0B0E00E941242802D808329
:1051300081E090E00895AC0120E030E0D9011896BC
:105140000E941242802DFA01E20FF31F80832F5F2D
:105150003F4F2031310591F781E090E00895DC0167
:10516000062E0E941A420895FC018081A6E0B0E05C
:10517000082E0E941A4281E090E00895AC0120E0E0
:1051800030E0D9011896FA01E20FF31F8081082E52
:105190000E941A422F5F3F4F2031310591F781E085
:1051A00090E00895F89408957894089585E690E045
:1051B00008950E941B360895EF92FF920F931F935C
:1051C000CF93DF93EC018B017A018985823021F046
:1051D0008091A91B888301C018828091A91B83300C
:1051E00020F060E087E00E94BD2B8985823029F0A5
:1051F0008091A91B8F5F8093A91B8091A91B882395
:1052000019F481E08093A91B8881992787FD9095E7
:10521000FC0145E0EE0FFF1F4A95E1F7E80FF91F8B
:10522000E25CF44E118300838881992787FD909575
:10523000FC0135E0EE0FFF1F3A95E1F7E80FF91F8B
:10524000E25CF44E888582878881992787FD909556
:10525000FC0125E0EE0FFF1F2A95E1F7E80FF91F8B
:10526000E25CF44E83E081872881822F992787FDB5
:105270009095FC0105E0EE0FFF1F0A95E1F7E80F9E
:10528000F91FE25CF44E20878881992787FD90956D
:10529000FC0115E0EE0FFF1F1A95E1F7E80FF91F6B
:1052A000E25CF44E15820881112707FD10952B85CD
:1052B0003C854D855E856F85788989899A890E94AC
:1052C0004034F801B5E0EE0FFF1FBA95E1F7E00FAB
:1052D000F11FE25CF44E948F838F0881112707FD44
:1052E00010952B8D3C8D4D8D5E8D6F8D78A189A194
:1052F0009AA10E944034F801A5E0EE0FFF1FAA9585
:10530000E1F7E00FF11FE25CF44E968B858B88810C
:10531000992787FD9095FC0175E0EE0FFF1F7A95A8
:10532000E1F7E80FF91FE25CF44E85899689238D39
:10533000348D820F931F908F878B0881112707FD73
:1053400010952B893C894D895E896F89788D898D6F
:105350009A8D0E944034F80165E0EE0FFF1F6A95B8
:10536000E1F7E00FF11FE25CF44E968F858F8881A4
:10537000992787FD9095FC0155E0EE0FFF1F5A9588
:10538000E1F7E80FF91FE25CF44E858D968D928F60
:10539000818F8881992787FD9095FC0145E0EE0F6C
:1053A000FF1F4A95E1F7E80FF91FE25CF44E81E038
:1053B00090E090A3878F8881992787FD9095FC01C5
:1053C00035E0EE0FFF1F3A95E1F7E80FF91FE25CB9
:1053D000F44EF382E2828881992787FD9095FC0143
:1053E00025E0EE0FFF1F2A95E1F7E80FF91FE25CB9
:1053F000F44E81E0848781E090E0DF91CF911F91AE
:105400000F91FF90EF9008958F929F92AF92BF926D
:10541000CF92DF92EF92FF920F931F93CF93DF9380
:1054200066E4A62E6BE1B62ECC24DD244501EC2CDF
:10543000F501F080FFEFFF1691F0E40100E010E0CD
:10544000E01639F08881F81621F46F2D85E00E946E
:10545000BD2B0F5F1F4FA1960330110589F70894EC
:10546000C11CD11C81E290E0A80EB91E93E0C916C0
:10547000D104E9F60E94E22F282F332727FD30952B
:10548000F90155E0EE0FFF1F5A95E1F7E20FF31F08
:10549000E25CF44E32853093BC1B21E28202C001F3
:1054A0001124825C944E9093BB1B8093BA1B909303
:1054B000AC1B8093AB1B3093AD1B0E941A3D0E9426
:1054C000003D0E943E3DFFCF0F931F93CF93DF938C
:1054D000CDB7DEB7A3970FB6F894DEBF0FBECDBF32
:1054E0000E94C42C8093AA1B8F3F21F460E08EE0C1
:1054F0000E94BD2B0E94713C882321F460E086E06D
:105500000E94BD2B1092AD1B1092BB1B1092BA1BB8
:105510001092AC1B1092AB1B1092BC1B1092B91BCB
:105520008FEF8093A31B8093A51B8093A41B809374
:10553000A61B8093A81B8093A71B93E69093481B00
:105540008093461B9093691B8093671B90938A1BE3
:105550008093881BEDEBFBE1CF0105969483838359
:10556000F783E683FC012BE18C3C9207A9F71092AC
:10557000BF1B1092BE1B1092D01B1092CF1B10921B
:10558000B01B1092AF1B0F9790933D1B80933C1B59
:1055900061E076E38E010F5F1F4FC8010E94BE3CA1
:1055A00040E850E06BE37BE0C8010E941F3D85E5C9
:1055B00080933B0B19861C8E1D8E1E8E1F8E18A28B
:1055C00019A21AA21BA291E0988782E08A879B8782
:1055D000C8010E94CB32A3960FB6F894DEBF0FBE6F
:1055E000CDBFDF91CF911F910F910895F894FFCF18
:1055F000E091BA1BF091BB1B84870895E091BA1B20
:10560000F091BB1B848599270895DC01FB018091F3
:105610002C0B882319F480E090E00895808380911A
:1056200048088C9381E090E008951F9380912C0BA3
:10563000882309F49EC00E94D2280E94D22882E7C3
:1056400093E00E94DC278091480899279F938F93CD
:1056500084EC97E09F938F930E94AA3F8EE693E09D
:105660000E94DC270F900F900F900F9080912C0BD1
:10567000843110F010922C0B80912C0B9927AA27C3
:10568000BB27FC013197E231F105F0F5EA59FF4FF4
:10569000EE0FFF1F0590F491E02D099487E493E04D
:1056A00035C083E393E032C08DE193E02FC082E008
:1056B00093E02CC08CEE92E029C084ED92E026C0ED
:1056C00081EC92E023C08EEA92E020C080E992E073
:1056D0001DC08BE692E01AC08FE592E017C084E40B
:1056E00092E014C085E392E011C084E292E00EC023
:1056F00080E192E00BC080EF91E008C088ED91E07E
:1057000005C08DEB91E002C086EB91E00E94DC27A2
:105710006091E11B7091E21B8DE090E00E947D3F63
:105720006091E11B7091E21B8AE090E00E947D3F56
:1057300082E090E00E942E2783E090E00E941127F3
:1057400010E088EE93E00E942C391F5F1436C9F7F1
:1057500083E090E00E942E2782E090E00E941127D3
:1057600010E088EE93E00E942C391F5F1436C9F7D1
:10577000DFCF80E090E01F91089580932C0B609321
:1057800048080E94152B089580932C0BE091BA1BBA
:10579000F091BB1B8085809348080E94152B0895CB
:1057A000992787FD9095FC0125E0EE0FFF1F2A95B4
:1057B000E1F7E80FF91FE25CF44EA281B3818C910E
:1057C000853529F085E58C938FEF9FEF08958081D3
:1057D00091818050924218F481E090E0089582E136
:1057E0000E94C42B8FEF9FEF08956F927F928F924C
:1057F0009F92AF92BF92CF92DF92EF92FF920F9360
:105800001F93CF93DF938EE793E00E94DC27E09114
:10581000BA1BF091BB1B8085992787FD90959F93BC
:105820008F9387EC97E09F938F930E94AA3FE0911C
:10583000BA1BF091BB1B028113811F930F9380ED64
:1058400097E09F938F930E94AA3FF8018081992748
:105850009F938F935DEDC52E57E0D52EDF92CF92AB
:105860000E94AA3FE091BA1BF091BB1B80819181FD
:105870009F938F934AEEE42E47E0F42EFF92EF922F
:105880000E94AA3F8091BA1B9091BB1B9F938F935C
:1058900004EF17E01F930F930E94AA3FCEE3DBE1D2
:1058A000AA24BB248DB79EB744960FB6F8949EBF2A
:1058B0000FBE8DBF34E0632E38E0732E46016701C2
:1058C00078010A811B811F930F93BF92AF927F9241
:1058D0006F920E94AA3FF801808199279F938F932E
:1058E0009F928F920E94AA3F888199819F938F9364
:1058F000DF92CF920E94AA3FDF93CF93FF92EF9265
:105900000E94AA3F0894A11CB11CA1968DB79EB716
:1059100042960FB6F8949EBF0FBE8DBF93E0A916B6
:10592000B10479F6DF91CF911F910F91FF90EF9025
:10593000DF90CF90BF90AF909F908F907F906F90AF
:105940000895CF93DF93E091BA1BF091BB1BC28106
:10595000D3818881853539F00E94F52B81E00E9442
:10596000C42B85E58883E091BA1BF091BB1B808135
:1059700091818050924228F00E94F52B82E10E9492
:10598000C42BDF91CF9108954091230950912409B0
:10599000609125097091260920E030E0DB01CA0101
:1059A000022E04C0B695A795979587950A94D2F7CD
:1059B00081709070892BE9F481E090E0A0E0B0E084
:1059C000022E04C0880F991FAA1FBB1F0A94D2F78A
:1059D000842B952BA62BB72B809323099093240916
:1059E000A0932509B0932609822F992787FD9095CA
:1059F00008952F5F3F4F2032310581F68FEF9FEFE3
:105A00000895E091BA1BF091BB1B6585768587856B
:105A100090890895EF92FF920F931F9321E030E059
:105A200040E050E004C0220F331F441F551F8A95E9
:105A3000D2F7E091BA1BF091BB1BE584F684078591
:105A40001089DA01C9018E219F21A023B12300977B
:105A5000A105B10519F48FEF9FEF1AC0209530957D
:105A600040955095E222F32204231523E586F6861D
:105A70000787108B81899289A389B4898223932314
:105A8000A423B523818B928BA38BB48B81E090E010
:105A90001F910F91FF90EF900895682F772767FD72
:105AA00070958091230990912409A0912509B091C6
:105AB0002609062E04C0B695A795979587950A9452
:105AC000D2F781709070892B19F48FEF9FEF0895B2
:105AD000E091BA1BF091BB1B21E030E040E050E0C8
