:100000000C94D2010C94FC330C94F1010C94F1018A
:100010000C94F1010C94F1010C94F1010C94F10198
:100020000C94F1010C942A340C94F1010C94F1011C
:100030000C94F1010C94DD310C94F1010C94DD3140
:100040000C94F1010C9410320C94F1010C94F10118
:100050000C94F1010C94F1010C94F1010C94F10158
:100060000C94F1010C94F1010C94F1010C94F10148
:100070000C94F1010C94F1010C94F1010C94F10138
:100080000C941A320C94F1010C94F1010C94F101CE
:100090000C94D61F0C94F1010C94F1010C94F10115
:1000A0000C94F1010C94F1010C94F1010C94F10108
:1000B0000C94F1010C94F1010C94F1010C94F101F8
:1000C0000C94F1010C94F1010C94F10138233E23BE
:1000D0004123442347234A2350234D2353235623AC
:1000E00059235F236223652368235C2335233B2345
:1000F00043726561746520446F6E650D0A00537428
:10010000617274696E672075702E2E2E0D0A00497B
:100110005341204552524F523A20637265617469CF
:100120006E67207478207369676E616C2066616900
:100130006C65640D0A00495341204552524F523AB2
:10014000206372656174696E6720727820736967D5
:100150006E616C206661696C65640D0A0043433210
:10016000343230204552524F523A202052656C654D
:10017000617365206F662073656D6170686F72656D
:10018000206661696C65640D0A0043433234323085
:10019000204552524F523A202041636365737320C9
:1001A000746F2073656D6170686F72652066616938
:1001B0006C65640D0A00554E4B4F574E0046616901
:1001C0006C656420746F206372656174652053658B
:1001D0006D6170686F7265004661696C656420745A
:1001E0006F20637265617465205369676E616C008E
:1001F0004B65726E656C2066756E6374696F6E20F8
:100200006E6F7420696D706C656D656E74656400E9
:10021000446576696365204472697665722045722B
:10022000726F72005761746368646F672052657300
:10023000746172740054696D6572204F76657266E0
:100240006C6F7700556E68616E646C656420496EF2
:100250007465727275707420566563746F72004CA9
:100260006F7720566F6C74616765004578747261B2
:10027000205461736B20737461727465642C2069FF
:1002800073206E726B5F6366672E68206F6B3F0032
:1002900049646C65206F72204B65726E656C2053EB
:1002A0007461636B204F766572666C6F7700556E74
:1002B00065787065637465642052657374617274E7
:1002C000004475706C696361746564205461736B7C
:1002D000204944005363686564756C6572204D69FC
:1002E000737365642057616B657570005461736B3F
:1002F00020526573657276652056696F6C6174650E
:10030000640052657365727665204572726F722063
:10031000696E205363686564756C657200496E761A
:10032000616C696420537461636B20506F696E74F3
:100330006572005461736B20537461636B204F7658
:100340006572666C6F7700537461636B20776173BD
:10035000206E6F7420646566696E65642061732029
:100360006C6172676520656E6F7567682100293A58
:1003700020002A4E524B204552524F5228000D0A5F
:10038000535441434B2044554D500D0A00454647B8
:1003900065666700202B2D2E3031323334353637E9
:1003A0003839680011241FBECFEFD1E2DEBFCDBFC8
:1003B00014E0A0E0B2E0E6EBF3E700E00BBF02C020
:1003C00007900D92A633B107D9F710E1A6E3B4E088
:1003D00001C01D92AE3BB107E1F70E9412030C94DD
:1003E000DA390C94483280E592E090939904809336
:1003F000980483EB96E0909395048093940484EBA7
:1004000095E0909397048093960482E080939B04F8
:1004100081E080939A0480939C0480939D041092C1
:100420009E0410929F041092A0041092A10480E0F8
:100430009DE2A1E3B1E08093A2049093A304A09372
:10044000A404B093A5041092A6041092A7041092DD
:10045000A8041092A9048093AA049093AB04A093DB
:10046000AC04B093AD041092AE041092AF0410929D
:10047000B0041092B10480E890EFAAEFB2E080934C
:10048000B2049093B304A093B404B093B50483E989
:1004900094E00E94B22A80EF90E00E94C31F08956A
:1004A0003F924F925F926F927F928F929F92AF9204
:1004B000BF92CF92DF92EF92FF920F931F93CF9351
:1004C000DF93CDB7DEB722970FB6F894DEBF0FBE2D
:1004D000CDBF0E94B42899279F938F9380E092E02C
:1004E0009F938F930E94913783E090E00E94151FA5
:1004F00081E090E00E94880343E064E081E00E9494
:10050000CF090E94C10A20E048E061E070E088E085
:100510000E94EA0D21E041E063E070E089E00E9482
:10052000EA0D0E94E20364E78FE395E00E94D203A4
:100530000F900F900F900F9002C00E94742A0E949B
:10054000C8038823D1F38FE092E09F938F930E949A
:10055000913733240F900F904CE1442E42E0542EFB
:1005600032E0632E712C6C0E7D1E4E010894811CAE
:10057000911C03EC16E022E3A22E22E0B22E96E4B8
:10058000C92E93E0D92E8CEFE82E8FEFF82EE00ED7
:10059000F11E20913A0430913B04C90168EE73E0EA
:1005A0000E944639892BD1F480913E0490913F04FA
:1005B0009F938F9380913C0490913D049F938F93E0
:1005C0003F932F935F924F920E9491378DB79EB7C2
:1005D00008960FB6F8949EBF0FBE8DBF0E943204DE
:1005E000882331F0B301C4010E94810A0E943804BB
:1005F0003320A9F4B501C8010E940F37F80101901A
:100600000020E9F7E45CF640EB5FE9839601A7017F
:100610006E2F83E090E00E94C90D332433940E9432
:10062000A02AB7CFCFEFD1E2DEBFCDBF0E94581BCB
:1006300087E090E00E948D1F8EEF90E00E94C31F24
:100640000E944B2280E090E00E94F81E81E090E042
:100650000E94F81E82E090E00E94F81E83E090E085
:100660000E94F81E20E030E040E050E060E070E0E2
:1006700080E090E00E94162C0E944B040E94F3013F
:100680000E94EB2180E090E00C94DA390F931F93E5
:100690000E94520C03EC16E064E372E0C8010E9471
:1006A0000F37F80101900020E9F7E01BEC5F26E42A
:1006B00033E004501040A8016E2F83E090E00E94C8
:1006C000C90D1F910F91089521E030E040E050E006
:1006D00004C0220F331F441F551F8A95D2F7809103
:1006E000420490914304A0914404B0914504822BAC
:1006F000932BA42BB52B8093420490934304A09397
:100700004404B093450408958091620499270895A4
:10071000813019F08330D9F531C083E18093160818
:100720008CE08093170884E18093180888E1809317
:10073000190880E180931A0887E180931B0882E101
:1007400080931C0889E180931D088EE080931E0829
:1007500085E180931F088BE0809320088FE08093D1
:10076000210886E18093220881E1809323088DE0AF
:10077000809324088AE18093250808958FE0809370
:10078000110884E18093120889E180931308089589
:100790008091BE06813019F481E090E008958FEFDA
:1007A0009FEF0895662359F0009749F09093550400
:1007B000809354046093530481E090E008958FEF98
:1007C0009FEF089582E08093BE060895CF93DF9354
:1007D000EC01E885F985858587FF02C085EE01C0BB
:1007E00081EE992787FD9095DF91CF910895882319
:1007F00011F083E801C083E0992787FD9095089563
:100800008F92AF92CF92EF920F93CF93DF93CDB7AA
:10081000DEB71092F4079AE09093FB071092FC0762
:100820008093FD076093FE074093FF071092000836
:100830002093070800930808E0920908C0920A086C
:10084000A0920B0880920C088A8580930D088B85F6
:1008500080930E08DF91CF910F91EF90CF90AF90E2
:100860008F90089580914407992787FD909508956A
:1008700010924407109245071092460710924707BE
:10088000089580913905813019F481E090E0089550
:100890008FEF9FEF08950F931F938EEC98E0909346
:1008A00076048093750400E714E040E850E066EBBE
:1008B00074E0C8010E94063584E18093780481E0E9
:1008C000809377048093790480937A0410927B0458
:1008D00010927C0410927D0410927E0480E896E9C8
:1008E000A8E9B0E080937F0490938004A0938104F2
:1008F000B0938204109283041092840410928504B1
:100900001092860410928704109288041092890431
:1009100010928A0410928B0410928C0410928D0411
:1009200010928E0410928F041092900410929104F1
:1009300010929204C8010E94B22A1F910F9108954B
:10094000CF92DF92EF92FF920F931F93CF93DF939B
:10095000EE24FF248FE4C82E84E0D82EE0915404C6
:10096000F091550481E0808360916204C6010E9489
:10097000C8190E94E3141092F1078AEF0E946A31AD
:1009800080E00E944F3100E012C00E94D931081768
:1009900071F00E94D931082F0894E11CF11C81E10B
:1009A000E81687E2F80618F0EE24FF2405C00E943E
:1009B0007111182F882349F30E9421310E94D931E7
:1009C000C82FDD272496112371F006C00E94D9316B
:1009D0009927C817D90738F060E880E00E945612BE
:1009E000182F882399F30E94CB14113009F0B6CF49
:1009F000E0915404F0915504928180913805981744
:100A000009F0ACCF81E090E0A0E0B0E08093440733
:100A100090934507A0934607B09347078091E4075A
:100A20009091E5072181820F911D9093E5078093B6
:100A3000E40782E090E00E94DB1E6091B6107091A6
:100A4000B71089E690E00E9464371093F107109286
:100A500044071092450710924607109247070E94DC
:100A600044310E945B318AE00E946A3187E00E9433
:100A70004F3161E170E880E090E00E945E320E94B8
:100A80005231E0918F10F09190108AE090E0968BB7
:100A9000858B8091F1079927DF91CF911F910F915D
:100AA000FF90EF90DF90CF900895BF92CF92DF92AA
:100AB000EF92FF920F931F93CF93DF93CDB7DEB7E3
:100AC00027970FB6F894DEBF0FBECDBF7C016B0138
:100AD00081E080935D0480914004853011F40E9490
:100AE000A02AF701A085B185FD01818192810E9434
:100AF000E60B8C01892B09F4D8C1BC2CC092DF070E
:100B00000F5F1F4F10935C0400935B04D8018E911C
:100B10008D0180935A04C7010E94E603F82EE091EC
:100B20005B04F0915C048083E0915B04F0915C04D1
:100B30008091E4079091E5078183E0915B04F09157
:100B40005C048091460482830E94213160E875E252
:100B500080E090E00E945E32E090BE038E2D0E9405
:100B60005F1B40916404509165046091E0077091AF
:100B7000E1072DEE37E088E594E00E94F91688231E
:100B800021F10B581F4FF80110820557104080913A
:100B90003A0490913B04019690933B0480933A046D
:100BA0008E2D0E94E41B83E090E00E94DB1E80916A
:100BB000ED079091EE072091E0073091E107821B4D
:100BC000930B9093DB078093DA078091E2070E94F2
:100BD0003C26F7FE5AC10E94E3148E2D0E945F1B33
:100BE0000E94213160E070E180E090E00E945E327E
:100BF0000E94D931898389818E5F898340C00E9498
:100C0000D93199819817D8F52091DF07822F99273C
:100C1000C816D90651F48091280890912908499660
:100C2000909329088093280814C08B2D821B209153
:100C3000280830912908482F552747FD5095181648
:100C400014F0275E3F4F240F351F3093290820935F
:100C500028080E94CB148E2D0E94E41B80913E0434
:100C600090913F04019690933F0480933E0409586D
:100C70001F4FD801ED91FC910757104031C00E94E1
:100C80007111882309F4BBCF0E94D93189838981EE
:100C90008E5F8983F2FE29C044E0D42E28C00E94D2
:100CA000D9319981981718F589E392E09F938F9332
:100CB0000E94913780913E0490913F040196909359
:100CC0003F0480933E040E94D9318093D307095892
:100CD0001F4FD801ED91FC91075710400F900F90D6
:100CE000309709F4DBC060E0DEC032E0D32E6D2D1A
:100CF00081E00E945612F82E882389F2B1E08B170A
:100D000089F06091B6107091B71086E690E00E946D
:100D1000643780913E0490913F04019690933F0484
:100D200080933E040E94CB14E1E0FE1609F0ADC0B2
:100D30008E2D0E94E41B80913C0490913D0401960D
:100D400090933D0480933C04109229081092280847
:100D5000E0915404F091550480818093270887FF27
:100D60006AC081819927982F882722813327822B77
:100D7000932B9093DD078093DC0780E090E00E9446
:100D8000DB1E8091DC079091DD072091DA0730911E
:100D9000DB07821B930B885795409F838E8382E3EA
:100DA00089838E819F8197FD33C00E94D9318B83C7
:100DB0008E819F812DE93CE16DE97CE10E945A39E9
:100DC0006E5F6A838E819F816DE97CE10E945A3952
:100DD000281B390B3D832C830E9444318E2D0E94A9
:100DE0005F1B0E9421316C817D8180E090E00E9438
:100DF0005E329B818A81890F0E944F318E2D0E9425
:100E0000E41B0E94523182E390E00E94133113C030
:100E10008E819F8197FF0FC00E9444310E94213133
:100E20006E817F81709561957F4F80E090E00E9498
:100E30005E320E9452314C815D818A8199272E81D8
:100E40003F815F934F939F938F933F932F938AE5B7
:100E500092E09F938F930E9491376091B6107091AA
:100E6000B7108AE090E00E9464376091B6107091EC
:100E7000B7108DE090E00E9464378DB79EB708965A
:100E80000FB6F8949EBF0FBE8DBF09581F4FD801F3
:100E9000ED91FC9107571040309721F4C8010E9452
:100EA000520C03C061E0C801099527960FB6F8946B
:100EB000DEBF0FBECDBFDF91CF911F910F91FF908D
:100EC000EF90DF90CF90BF900895AF92BF92CF92F6
:100ED000DF92EF920F931F93CF93DF93CDB7DEB7DF
:100EE00021970FB6F894DEBF0FBECDBF60916204AC
:100EF0008FE494E00E94C8190E94E3140091C80393
:100F0000802F0E945F1B0E94D931898389818C5F69
:100F100089830BC00E94D9319981981730F4802FB2
:100F20000E94E41B0E94CB1447C00E9471118823C9
:100F300089F30E9429319093F3078093F20710916F
:100F4000BE03812F0E945F1B812F0E94E41B0E9421
:100F5000D931898389818B5F898317C00E94D931F8
:100F60009981981790F489E392E09F938F930E9460
:100F7000913780913E0490913F04019690933F04F5
:100F800080933E040F900F90CBC060E880E00E94F9
:100F90005612182F882311F3802F0E94E41B0E9401
:100FA000CB14113009F49FC06091B6107091B71046
:100FB00082E690E00E94643780913E0490913F0465
:100FC000019690933F0480933E04AAC080913A0416
:100FD00090913B04019690933B0480933A0412FF56
:100FE00002C083E801C083E0809327088093330721
:100FF00083E397E090936D0480936C0412FF16C016
:101000008091F2079091F3072091E0073091E1077A
:10101000821B930B9093DD078093DC07292F3327E6
:10102000209334078093350784E001C082E08093E9
:101030006B04802F0E945F1B4091640450916504F3
:101040006091E0077091E1072DEE37E089E694E0CA
:101050000E94F916802F0E94E41B8091D407909182
:10106000D507A816B90679F4E0915404F091550417
:1010700082816F01EE2400E020E040E0B501992775
:101080000E94C60D4DC0C5010E94D40A8823B1F04C
:10109000209154043091550400E010E04AE050E003
:1010A00060E070E0C5010E94840C10924407109229
:1010B0004507109246071092470732C0BF92AF9281
:1010C00083E692E09F938F930E949137109244079A
:1010D0001092450710924607109247070F900F9005
:1010E0000F900F901DC080913C0490913D0401969B
:1010F00090933D0480933C0481E090E00E94DB1ECD
:10110000E0915404F09155048381A82EBB241081F2
:101110008091D2070E943C2611230CF09ECF56CF1F
:1011200021960FB6F894DEBF0FBECDBFDF91CF91F1
:101130001F910F91EF90DF90CF90BF90AF900895E7
:101140008091D2070E9434258091E2070E943425C5
:1011500021E030E040E050E0CA01B9010090E20730
:1011600004C0660F771F881F991F0A94D2F700905A
:10117000D20704C0220F331F441F551F0A94D2F711
:10118000622B732B842B952B0E948E2781E090E09D
:101190000895809362040E94F2190895CF92DF921D
:1011A000EF92FF920F931F93CF93DF931092BE069F
:1011B0000E94742A8091BE068823D1F381E0809337
:1011C000BE06E090BE0300E010E06BE9C62E62E0D0
:1011D000D62E0E9421310E9429319093E1078093FD
:1011E000E0078E2D0E945F1B8E2D0E94E41B8091D4
:1011F000E4079091E5079093F0078093EF078091C3
:10120000E4079091E5078536910598F08091E40711
:101210009091E507845690409093E5078093E4070A
:101220008091D8079091D90701969093D907809320
:10123000D8072091E4073091E5078091F1078130CC
:1012400059F5C90169E170E00E944639EC01E0916D
:10125000E307E00FE093E307FF27EF70F070EA5E2B
:10126000F74F8081809315080E94C9088C2F0E9437
:101270009D0DFC01892BF1F08481883029F46C2FBD
:10128000CF010E94650716C08130A1F46C2F77272B
:10129000CF010E9455050EC080913E05823039F085
:1012A00010923904109238040E94A00401C081E019
:1012B0008093F10720912808309129088091A3029A
:1012C0009091A4022817390788F180913E05823059
:1012D00069F11092F10710922908109228081092D3
:1012E000E5071092E4078091360590913705019645
:1012F000909337058093360580914604882349F002
:10130000E0913805E093E307FF27EA5EF74F80811D
:1013100004C01092E307809116088093150880910D
:1013200015080E94C90800E010E053CF8091E4073F
:101330009091E5070E94F40A8C018091E407909156
:10134000E507800F911F9093E5078093E40780E005
:1013500090E00E94F81E1092DB071092DA0780914D
:101360003A0490913B0468EE73E00E944639892B61
:1013700071F480913E0490913F049F938F93DF928C
:10138000CF920E9491370F900F900F900F90C8014D
:101390000E94412A80E090E00E94151F1ACFFF9220
:1013A0000F931F93F82E162F042F0E94AB248093C7
:1013B000D2078F3F19F486E391E008C00E94AB2466
:1013C0008093E2078F3F79F48FE091E00E94C31F82
:1013D000E0918F10F091901060858EE00E94A42320
:1013E0008FEF90E070C01092550410925404109248
:1013F00053040E941D311092D9071092D80784E639
:1014000090E09093E5078093E4071092F107109223
:1014100039051092290810922808F0923E05109381
:101420004604812F99279093D5078093D407009382
:101430003805109244071092450710924607109203
:10144000470784E68093680480E49FE190936704F3
:101450008093660480EA9FE090936504809364041F
:101460008FE08093620481E899E190936104809316
:10147000600421E839E141E254E26FE08FE494E056
:101480000E94051A81E08093DE071092EA0711237B
:1014900041F00093E307E02FFF27EA5EF74F8081DA
:1014A00004C01092E307809116088093150880917C
:1014B00015080E94C90810923705109236050E943F
:1014C000C10A81E090E01F910F91FF9008958091F3
:1014D000D2070E94342580914407882379F461E083
:1014E00070E080E090E00090D20704C0660F771FA4
:1014F000881F991F0A94D2F70E948E2781E090E0FE
:101500000895FC01DB0180914407882329F41082AF
:101510001C9280E090E00895809152048083809135
:1015200057048C93809154049091550408958093AE
:1015300041040895809141049927089580914104C0
:10154000823069F0833018F4813091F405C0833023
:1015500049F0843069F409C085EA92E00BC088EC58
:1015600092E008C08EEE92E005C08AE193E002C0EE
:101570008AE393E09F938F930E9491370F900F908F
:101580000895EAE2F8E01082729688E0EE3DF807EE
:10159000D1F7E6EEF8E0108271968AE0EF38F807AE
:1015A000D1F71092C70F0895CF93DF939C01AAE261
:1015B000B8E08C91882371F0ED018C81813051F479
:1015C000E885F985818192818217930719F481E07A
:1015D00090E007C05296E8E0AE3DBE0751F780E0CC
:1015E00090E0DF91CF9108952F923F924F925F92BA
:1015F0006F927F928F929F92AF92BF92CF92DF9223
:10160000EF92FF920F931F93CF93DF93CDB7DEB787
:101610002E970FB6F894DEBF0FBECDBF69E170E024
:101620000E9446398983282F33273C872B878901DD
:101630000F5F1F4F21E030E040E050E060E070E0DD
:1016400080E090E00E948036222E332E442E552ECC
:10165000662E772E882E992E39813F5F3A838091AE
:10166000DE088B839091DF089C83E091E008ED8396
:10167000F091E108FE832091E2082F833091E30886
:1016800038878091E40889879091E5089A8737C068
:101690002B8122213C8133214D8144215E815521C2
:1016A0006F81662178857721898588219A8599219E
:1016B000E22FE32BE42BE52BE62BE72BE82BE92BA2
:1016C00041F0EA818E2F99272B853C85821B930B55
:1016D00064C001E0222D332D442D552D662D772D2C
:1016E000882D992D0E948036222E332E442E552E81
:1016F000662E772E882E992E3A813F5F3A838A8113
:10170000893130F22224239433244424552466243E
:101710007724882499241E861D86AD852B8122215D
:101720003C8133214D8144215E8155216F816621A9
:1017300078857721898588219A859921E22FE32B65
:10174000E42BE52BE62BE72BE82BE92B49F089E18D
:1017500090E0EB85FC858E1B9F0B8A0F911D1DC0B1
:101760002D853E852F5F3F4F3E872D87398132176C
:10177000A0F001E0222D332D442D552D662D772D1F
:10178000882D992D0E948036222E332E442E552EE0
:10179000662E772E882E992EC0CF2E960FB6F894EF
:1017A000DEBF0FBECDBFDF91CF911F910F91FF9094
:1017B000EF90DF90CF90BF90AF909F908F907F90F1
:1017C0006F905F904F903F902F900895AF92BF928F
:1017D000CF92DF92EF92FF920F931F93CF93DF93FD
:1017E0005C01E4E0FBE08FE8C82E8AE0D82E70E0D0
:1017F00060E081818823D9F180818823C1F18581CE
:1018000096818A159B0599F5662351F47481E6014A
:10181000E384F484058516852781308541855285CA
:1018200064817617C8F0761709F587819085A185C0
:10183000B28582179307A407B50770F028173907F8
:101840004A075B0799F483859485A585B6858E152F
:101850009F05A007B10750F4E601E384F4840585F1
:1018600016852781308541855285762F61E084E891
:1018700090E0C80ED91EEC57FF4F90E1EC32F9070B
:1018800009F0B7CF662311F4C0E0D0E0CE01DF91BC
:10189000CF911F910F91FF90EF90DF90CF90BF906D
:1018A000AF900895FC01EA58FF4F10828091C70F56
:1018B00081508093C70F0895282FEAE2F8E090E066
:1018C0008081882351F09F5F72969A30C9F781E03A
:1018D0000E94970A8FEF9FEF0895892F9927880F0D
:1018E000991FFC0133E0EE0FFF1F3A95E1F7E80F77
:1018F000F91FE65DF74F81E080837187608744833D
:10190000208B80E090E008950F931F93CF93DF9397
:10191000EC01D8018091C70F8B3010F083E003C039
:10192000443730F084E00E94970A8FEF9FEF4CC05D
:10193000E5E0FBE000E010E08081882369F584E8C1
:1019400090E0F801E89F8001E99F100DF89F100DCD
:101950001124F801E157F54F4083E758FF4F6083AA
:10196000349781E0819380833496D183C083339709
:10197000B183A0835527B901C8018057954F0E94B4
:101980000637C801855F944F0E948D2D8091C70F47
:101990008F5F8093C70F0BC0802F8F5F0F5F1F4F2C
:1019A000EC57FF4F0A30110539F68A3019F081E003
:1019B00090E00AC08CE493E09F938F930E9491374C
:1019C0008FEF9FEF0F900F90DF91CF911F910F91AD
:1019D00008958F929F92AF920F931F93CF93DF93AF
:1019E000CDB7DEB7CB01642F4A2DF40183830A857E
:1019F0001B8594010E94840C992787FD9095DF91A7
:101A0000CF911F910F91AF909F908F9008956F92FB
:101A10007F928F92AF92CF92EF920F931F93CF93BB
:101A2000DF93CDB7DEB728970FB6F894DEBF0FBEB1
:101A3000CDBF3C0109831A832B833C834D835E8396
:101A40006F837887E6EEF8E010E040E020E030E0D9
:101A5000818192816816790699F47F926F928EE562
:101A600093E09F938F930E94913781E1189FC0016B
:101A700011248A51974F0F900F900F900F904CC0E8
:101A80008081882311F4122F41E02F5F3F4F719620
:101A900029313105E9F6442331F482E00E94970AA6
:101AA00080E090E039C0812F9927DC0164E0AA0F23
:101AB000BB1F6A95E1F7A80FB91FAA51B74FFD01E7
:101AC0007282618281E08C939D012D5F3F4F8981FD
:101AD00083838A81F90181838B8182838C818383D3
:101AE0008D8184838E8185838F818683888587839A
:101AF000FD01E386C486AA2019F085858068858764
:101B0000FD0186868D8987878E89808B81E1189F6C
:101B1000C00111248A51974F28960FB6F894DEBF62
:101B20000FBECDBFDF91CF911F910F91EF90CF905E
:101B3000AF908F907F906F900895482FEAE2F8E081
:101B400020E030E08081882351F08089841739F4C7
:101B500082E1289FC0011124865D974F08952F5F71
:101B60003F4F72962A30310569F7842F99279F934A
:101B70008F938EE793E09F938F930E94913780E03D
:101B800090E00F900F900F900F9008950E943804EE
:101B900008958F929F92AF92CF92EF920F933F93BF
:101BA0002F934A01A62ECC24EE2400E020E040E052
:101BB000BC0180E090E00E94E90C0F900F908F3FF5
:101BC00011F40E949E0A0F91EF90CF90AF909F90DA
:101BD0008F9008956F927F928F929F92AF92BF9253
:101BE000CF92DF92EF92FF920F931F93982ECB012B
:101BF000742EA22E2EE3291548F484EA93E09F93D5
:101C00008F930E9491370F900F9064C028E0421785
:101C1000A1F01F921F928824CC24EE2400E010E053
:101C200020E030E040E050E060E070E00E94070D0E
:101C3000BC010F900F90892B31F0472D892D0E9408
:101C40005C0C8F3F19F40E949E0A44C0092D112795
:101C500021E030E040E050E060E070E080E090E0C3
:101C60000E948036A22EB32EC42ED52EE62EF72E3D
:101C7000082F192FE091DE08F091DF08A091E0080D
:101C8000B091E1089090E2088090E3087090E40839
:101C90006090E5082E2F2A293F2F3B294A2F4C29F7
:101CA0005B2F5D29692D6E29782D7F29872D802B4B
:101CB000962D912B2093DE083093DF084093E008A7
:101CC0005093E1086093E2087093E3088093E4087E
:101CD0009093E5081F910F91FF90EF90DF90CF90C8
:101CE000BF90AF909F908F907F906F900895EAE79C
:101CF000F0E083E08083ACE7B0E080E48C93808107
:101D0000806880831092E20F8C91807E8C939C91EE
:101D10008C91807E892B8C93089588EC90E00E94B2
:101D20001331089580917A00806480937A008091C5
:101D30007A0084FFFCCF0E948D0E2091780033271B
:101D4000809179009927982F8827822B932B0895CB
:101D5000FF920F931F93CF93DF93CDB7DEB72297F8
:101D60000FB6F894DEBF0FBECDBF0E94E8108C0105
:101D7000009711F00E943A27159AFF248F2D806258
:101D800099279A83898340988BE18EBD0DB407FE15
:101D9000FDCF89819A81892F99278EBD0DB407FEC9
:101DA000FDCF89819A818EBD0DB407FEFDCF409A8B
:101DB00082E090E00E94133140988BE58EBD0DB417
:101DC00007FEFDCF1EBC0DB407FEFDCF8EB59927D3
:101DD000982F88279A8389831EBC0DB407FEFDCFF8
:101DE00089819A812EB53327282B392B3A83298371
:101DF000409A89819A8186FD05C0F3942FE1F216FD
:101E000009F0BCCF0115110519F0C8010E94E825A1
:101E1000FF20C9F40E94920E9A83898389819A8156
:101E20008F3A910530F089819A818E5A90409A8339
:101E3000898389819A818A54914098F48AE491E057
:101E40009A8389830EC02DE7F29E9001112488E2C7
:101E500093E2821B930B6BE170E00E945A397A8304
:101E6000698389819A8122960FB6F894DEBF0FBEEE
:101E7000CDBFDF91CF911F910F91FF900895CF9229
:101E8000DF92EF92FF920F931F93CF93DF93982FE0
:101E9000EA01122F823009F481C0833030F48823A4
:101EA00071F0813009F0D2C010C0843009F481C0D3
:101EB000843008F477C0853009F0C8C02DC080E8B0
:101EC00080BB8F9A0E94770E6AC08091E10F8130AB
:101ED00009F4C3C09093E10F772760FF13C08F9878
:101EE0001092E20F80917C00807E80937C00909124
:101EF0007C0080917C00807E892B80937C0088EE22
:101F000093E09FC061FDA9C062FDA7C067707070BB
:101F1000672B09F4A2C097C0822F8150823008F04D
:101F200099C09091E20F892F8150863018F40E9459
:101F3000920E22C0992319F40E94A80E1DC097305A
:101F400051F5F1E0CF2EF4E0DF2EEE24FF2400E087
:101F50000E94920E8C159D0508F46C01E816F90696
:101F600008F47C018DE790E00E9413310F5F00348C
:101F700079F7C7018C199D09123031F48883892FB4
:101F80009927898381E008C0113029F496958795B7
:101F900096958795888380E08F5F09C08F9A10920D
:101FA000E10F51C0613009F058C08091E20F9927CC
:101FB00056C0613009F051C02730D9F42093E20FA8
:101FC00080917C008F7780937C0080917C0080647E
:101FD00080937C0080917C00807E80937C00909137
:101FE0007C0080917C009360807E982B90937C0095
:101FF00026C0283020F081E00E94DF222EC02093EE
:10200000E20F213049F480917C008F7780937C002F
:1020100080917C00806403C080917C00806C809300
:102020007C0080917C00807E80937C0090917C007D
:1020300080917C00807E892B812B80937C0088ECB2
:1020400090E00E94133181E090E009C060E08CE0F4
:102050000E94A42380E090E002C08FEF90E0DF9127
:10206000CF911F910F91FF90EF90DF90CF90089547
:1020700099279C01265A3E4B0B97880F991F880F72
:10208000991F280F391FF894409888E18EBD0DB430
:1020900007FEFDCF832F99278EBD0DB407FEFDCF20
:1020A0002EBD0DB407FEFDCF409A78940895F894A4
:1020B00040981EBC0DB407FEFDCF8EB5409A7894B3
:1020C00086FFF5CF08958091F80F99270895CF9353
:1020D000DF93DC01409889EC8EBD0DB407FEFDCF87
:1020E00080E88EBD0DB407FEFDCF92E09150FD015A
:1020F000E90FF11D80818EBD0DB407FEFDCF992340
:10210000A9F7409A40988BEC8EBD0DB407FEFDCF29
:1021100080E88EBD0DB407FEFDCF92E09D012E5FDD
:102120003F4FE9019150F901E90FF11D80818EBD0A
:102130000DB407FEFDCF9923A1F7409A8C918093AF
:10214000F90FFD0181818093FA0F88818093FB0F45
:1021500083818093FC0FDF91CF910895409889E1AE
:102160008EBD0DB407FEFDCF83E08EBD0DB407FE1E
:10217000FDCF86E08EBD0DB407FEFDCF409A40989E
:102180008AE18EBD0DB407FEFDCF8EE08EBD0DB48D
:1021900007FEFDCF8EE08EBD0DB407FEFDCF409A49
:1021A00081E08093E90F0895409889E18EBD0DB4D8
:1021B00007FEFDCF81E08EBD0DB407FEFDCF84ECA0
:1021C0008EBD0DB407FEFDCF409A1092E90F089521
:1021D0008091E70F9091E80F08952091EA0F3091D8
:1021E000EB0F38603093EB0F2093EA0F409881E1BA
:1021F0008EBD0DB407FEFDCF832F99278EBD0DB484
:1022000007FEFDCF2EBD0DB407FEFDCF409A089509
:102210002091EA0F3091EB0F377F3093EB0F209333
:10222000EA0F409881E18EBD0DB407FEFDCF832FEC
:1022300099278EBD0DB407FEFDCF2EBD0DB407FE50
:10224000FDCF409A089581E08093F70F2091EA0F27
:102250003091EB0F20613093EB0F2093EA0F409801
:1022600081E18EBD0DB407FEFDCF832F99278EBD72
:102270000DB407FEFDCF2EBD0DB407FEFDCF409A75
:1022800008951092F70F2091EA0F3091EB0F2F7EF7
:102290003093EB0F2093EA0F409881E18EBD0DB48F
:1022A00007FEFDCF832F99278EBD0DB407FEFDCF0E
:1022B0002EBD0DB407FEFDCF409A089589B1992730
:1022C00066E0969587956A95E1F78170907008951C
:1022D0008CB1992787FD90958827990F881F99279A
:1022E000089589B19927E6E096958795EA95E1F7F3
:1022F0008170907008958091FD0F882319F480E01B
:1023000090E008958091FD0F1092FD0F992787FDB1
:1023100090950895409888E08EBD0DB407FEFDCFDE
:10232000409A409888E08EBD0DB407FEFDCF409ADC
:1023300008958091E70F9091E80F0E943A27409806
:1023400086E08EBD0DB407FEFDCF409A8091E70F69
:102350009091E80F0E94E82508958091E70F9091F1
:10236000E80F0E943A27409884E08EBD0DB407FE26
:10237000FDCF409A8091E70F9091E80F0E94E825E9
:1023800008958091E70F9091E80F0E943A274098B6
:1023900086E08EBD0DB407FEFDCF409A409882E1E5
:1023A0008EBD0DB407FEFDCF85E08EBD0DB407FEDA
:1023B000FDCF1EBC0DB407FEFDCF409A40988EE2C3
:1023C0008EBD0DB407FEFDCF1EBC0DB407FEFDCFC4
:1023D0001EBC0DB407FEFDCF409A0E948A11809169
:1023E000E70F9091E80F0E94E82508958091E70F8C
:1023F0009091E80F0E943A27409886E08EBD0DB478
:1024000007FEFDCF409A409882E18EBD0DB407FED5
:10241000FDCF85E08EBD0DB407FEFDCF88E08EBDFB
:102420000DB407FEFDCF409A40988EE28EBD0DB4EC
:1024300007FEFDCF88E18EBD0DB407FEFDCF1EBCAB
:102440000DB407FEFDCF409A0E948A118091E70FDC
:102450009091E80F0E94E82508950F931F93082F8D
:102460008091E70F9091E80F0E943A27112707FD0E
:102470001095302F22272068409883E18EBD0DB43F
:1024800007FEFDCF832F99278EBD0DB407FEFDCF2C
:102490002EBD0DB407FEFDCF409A8091E70F9091BD
:1024A000E80F0E94E8251F910F9108950F931F9345
:1024B000CF93DF93CDB7DEB724970FB6F894DEBF86
:1024C0000FBECDBF182F062F8091E70F9091E80F18
:1024D0000E943A27679B4CC21092F80F679B25C059
:1024E000319923C040988FE78EBD0DB407FEFDCF14
:1024F0001EBC0DB407FEFDCF8EB5409A409888E013
:102500008EBD0DB407FEFDCF409A409888E08EBD89
:102510000DB407FEFDCF409A8091E70F9091E80F30
:102520000E94E8258FEF9FEF2BC240988FE78EBD6A
:102530000DB407FEFDCF1EBC0DB407FEFDCF4EB59A
:10254000409A4F7719F540988FE78EBD0DB407FE7E
:10255000FDCF1EBC0DB407FEFDCF8EB5409A40984E
:1025600088E08EBD0DB407FEFDCF409A409888E00C
:102570008EBD0DB407FEFDCF409A8091E70F90917C
:10258000E80F0E94E8258EEF9FEFFAC145308CF0EE
:10259000E091EC0FF091ED0F242F332727FD3095BC
:1025A0002B5030408481992787FD9095821793079F
:1025B000F4F540988FE78EBD0DB407FEFDCF60E0C7
:1025C00070E0242F332727FD309506C01EBC0DB4C4
:1025D00007FEFDCF6F5F7F4F862F992782179307E6
:1025E00014F43199F3CF409A40988FE78EBD0DB423
:1025F00007FEFDCF1EBC0DB407FEFDCF8EB5409A81
:10260000409888E08EBD0DB407FEFDCF409A4098FB
:1026100088E08EBD0DB407FEFDCF409A8091E70F94
:102620009091E80F0E94E8258DEF9FEFA9C1E091FE
:10263000EC0FF091ED0F4C5043831123B1F0E0917A
:10264000EC0FF091ED0F8381992787FD9095202F56
:1026500033278217930749F08091E70F9091E80F95
:102660000E94E8258AEF9FEF8BC140988FE78EBDCF
:102670000DB407FEFDCFFE0131969E012D5F3F4F49
:102680001EBC0DB407FEFDCF8EB58193E217F30794
:10269000B9F7409AE091EC0FF091ED0F89819A81A2
:1026A000B5E096958795BA95E1F781708783409854
:1026B0008FE78EBD0DB407FEFDCF1EBC0DB407FE27
:1026C000FDCFE091EC0FF091ED0F8EB58083409A35
:1026D00040988FE78EBD0DB407FEFDCF80E007C0A8
:1026E0001EBC0DB407FEFDCF8F5F843011F0319911
:1026F000F7CF409A40988FE78EBD0DB407FEFDCF0F
:1027000020E030E01EBC0DB407FEFDCFE091EC0FE1
:10271000F091ED0FE20FF31F8EB581832F5F3F4FD6
:102720002230310579F7409A89819A8183FF56C01A
:1027300040988FE78EBD0DB407FEFDCFE3EEFFE0BE
:102740001EBC0DB407FEFDCF8EB581938FE0E73E32
:10275000F807B1F7409A409889E98EBD0DB407FE9D
:10276000FDCF80E88EBD0DB407FEFDCF92E0915005
:10277000E92FFF27ED51F04F80818EBD0DB407FE8C
:10278000FDCF9923A1F7409A40988BE98EBD0DB4F7
:1027900007FEFDCF80E88EBD0DB407FEFDCF92E0B1
:1027A0009150E92FFF27EB51F04F80818EBD0DB482
:1027B00007FEFDCF9923A1F7409A40988CE08EBD8B
:1027C0000DB407FEFDCF409A81E08093F80FE091B1
:1027D000EC0FF091ED0F83818450838340988FE755
:1027E0008EBD0DB407FEFDCF40E050E011C01EBC11
:1027F0000DB407FEFDCFE091EC0FF091ED0F0580D9
:10280000F681E02DE60FF11D8EB580834F5F5F4F9F
:10281000642FE091EC0FF091ED0F242F332783818B
:10282000992787FD9095281739070CF3409A40980F
:102830008FE78EBD0DB407FC0AC0FCCF0DB407FEB8
:10284000FDCF5EB5409A40988FE78EBD02C01EBC9A
:10285000F5CF0DB407FEFDCFFE0133969E012B5F31
:102860003F4F1EBC0DB407FEFDCF8EB58193E2171E
:10287000F307B9F7409AE091EC0FF091ED0F8B81DF
:10288000808740E020E030E00AC0E091EC0FF0915A
:10289000ED0F85819681A80FB91F8C91480F822F6B
:1028A000E091EC0FF091ED0F2F5F3F4FA82FBB276A
:1028B0008381992787FD9095A817B90734F34517A9
:1028C00019F140988FE78EBD0DB407FEFDCF1EBCF9
:1028D0000DB407FEFDCF8EB5409A409888E08EBDBE
:1028E0000DB407FEFDCF409A409888E08EBD0DB430
:1028F00007FEFDCF409A8091E70F9091E80F0E946C
:10290000E8258CEF9FEF3CC08C8187FF0EC0809143
:10291000FD0F8F5F8093FD0F8091E70F9091E80F7F
:102920000E94E82581E090E02BC040988FE78EBDA3
:102930000DB407FEFDCF1EBC0DB407FEFDCF8EB556
:10294000409A409888E08EBD0DB407FEFDCF409AB6
:10295000409888E08EBD0DB407FEFDCF409A80916F
:10296000E70F9091E80F0E94E8258BEF9FEF08C0DA
:102970008091E70F9091E80F0E94E82580E090E0B9
:1029800024960FB6F894DEBF0FBECDBFDF91CF9176
:102990001F910F9108958091E70F9091E80F0E9489
:1029A0003A271092F40F409886E08EBD0DB407FED2
:1029B000FDCF409A1092FD0F8091E70F9091E80FA4
:1029C0000E94E82508958091E70F9091E80F0E94FA
:1029D0003A2781E08093F40F409883E08EBD0DB4D8
:1029E00007FEFDCF409A409888E08EBD0DB407FEEB
:1029F000FDCF409A1092FD0F8091E70F9091E80F64
:102A00000E94E82508958091E70F9091E80F0E94B9
:102A10003A2781E08093F40F409883E08EBD0DB497
:102A200007FEFDCF409A409888E08EBD0DB407FEAA
:102A3000FDCF409A1092FD0F8091E70F9091E80F23
:102A40000E94E82508951F93182F8091E70F909119
:102A5000E80F0E943A27212F33272F713070206E04
:102A6000306A409885E18EBD0DB407FEFDCF832FFF
:102A700099278EBD0DB407FEFDCF2EBD0DB407FE08
:102A8000FDCF409A8091E70F9091E80F0E94E825D2
:102A90001F910895EF92FF920F931F93CF93DF93AF
:102AA000CDB7DEB722970FB6F894DEBF0FBECDBF0D
:102AB0008C018091E70F9091E80F0E943A27509186
:102AC000E90F552339F040988DE08EBD0DB407FE17
:102AD000FDCF409AF8014281642F772767FD7095FA
:102AE000A0E020E030E008C0F80183819481E80E86
:102AF000F91EF7018081A80F822F2F5F3F4FE82E2C
:102B0000FF24E616F70684F3942F945F51119C5F1F
:102B10006799FECF4E99FCCFF894409889E08EBD1E
:102B20000DB407FEFDCF409A409889E08EBD0DB4EC
:102B300007FEFDCF409A40988EE38EBD0DB407FC92
:102B400005C0FCCF0DB407FC30C1FCCF9EBDFACF51
:102B500081E698E89A838983552329F089819A81AF
:102B600088609A83898340988EE38EBD0DB407FEFA
:102B7000FDCFFE0131969E012D5F3F4F80818EBDBE
:102B80000DB407FEFDCF3196E217F307B9F7409A6F
:102B900040988EE38EBD0DB407FC05C0FCCF0DB48C
:102BA00007FC0EC1FCCF8091EE0F8EBDF8CF0DB4A7
:102BB00007FEFDCF20E030E0F901E051F04F8081C9
:102BC0008EBD0DB407FEFDCF2F5F3F4F2230310584
:102BD00099F7409A40988EE38EBD0DB407FEFDCF65
:102BE00020E030E0F801E20FF31F80818EBD0DB4CC
:102BF00007FEFDCF2F5F3F4F2230310599F7409AF6
:102C000040988EE38EBD0DB407FEFDCF20E030E08E
:102C1000F901EE50F04F80818EBD0DB407FEFDCF5F
:102C20002F5F3F4F2230310599F7409A552399F095
:102C300040988EE38EBD0DB407FEFDCFE9EFFFE0B7
:102C400080818EBD0DB407FEFDCF31968FE0ED3F44
:102C5000F807B1F7409A40988EE38EBD0DB407FE99
:102C6000FDCF20E030E00DC0F80183819481480F52
:102C7000591FFA0180818EBD0DB407FEFDCF2F5F75
:102C80003F4F422F55274617570774F3409A4098F5
:102C90008EE38EBD0DB407FC05C0FCCF0DB407FC60
:102CA00094C0FCCFAEBDFACF8091F40F882339F4E5
:102CB000409883E08EBD0DB407FEFDCF409A40984A
:102CC0001EBC0DB407FEFDCF8EB5409A81FFF7CF35
:102CD00000E0409885E08EBD0DB407FEFDCF409A20
:102CE00040981EBC0DB407FEFDCF1EB5409A0F5F85
:102CF000053651F478948091E70F9091E80F0E9487
:102D0000E82580E090E068C084E690E00E942420FE
:102D100013FD08C0DECF409884E08EBD0DB407FEE1
:102D2000FDCF409A78944E9BFECF4E99FECF809176
:102D3000F70F882391F084EA92E00E942420319BCF
:102D40000EC040988FE78EBD0DB407FEFDCF1EBCB0
:102D50000DB407FEFDCF8EB5409A11E00FC040982C
:102D600088E08EBD0DB407FEFDCF409A409888E004
:102D70008EBD0DB407FEFDCF409A10E0F894409848
:102D800086E08EBD0DB407FEFDCF409A7894809109
:102D9000EE0F8F5F8093EE0F8091E70F9091E80F19
:102DA0000E94E825812F992717C0409A81E498E86E
:102DB0009A8389838091F70F882309F0C9CECCCEFE
:102DC000409A40988EE38EBDF2CE409AF8018581FC
:102DD000882309F069CF9FCF22960FB6F894DEBF03
:102DE0000FBECDBFDF91CF911F910F91FF90EF905C
:102DF00008958F929F92BF92CF92DF92EF92FF92AF
:102E00000F931F93CF93DF93CDB7DEB722970FB603
:102E1000F894DEBF0FBECDBF8C016B017A01490172
:102E20008091E70F9091E80F0E943A270E94D931D4
:102E3000409888E08EBD0DB407FEFDCF409A4098C3
:102E400088E08EBD0DB407FEFDCF409A6799FECF96
:102E50004E99FCCFF894409889E08EBD0DB407FEE2
:102E6000FDCF409A409889E08EBD0DB407FEFDCF9E
:102E7000409AF8016281462F552747FD5095BB24A3
:102E800020E030E007C0F80183819481A80FB91FCA
:102E90008C91B80E822F2F5F3F4FA82FBB27A4170E
:102EA000B5078CF3962F945F40988EE38EBD0DB4DA
:102EB00007FC05C0FCCF0DB407FC20C1FCCF9EBDB4
:102EC000FACF81E698E89A83898340988EE38EBD95
:102ED0000DB407FEFDCFFE0131969E012D5F3F4FE1
:102EE00080818EBD0DB407FEFDCF3196E217F3074A
:102EF000B9F7409A40988EE38EBD0DB407FC05C02B
:102F0000FCCF0DB407FC03C1FCCF8091EE0F8EBD4A
:102F1000F8CF0DB407FEFDCF20E030E0F901E0511D
:102F2000F04F80818EBD0DB407FEFDCF2F5F3F4F68
:102F30002230310599F7409A40988EE38EBD0DB44A
:102F400007FEFDCF20E030E0F801E20FF31F8081A3
:102F50008EBD0DB407FEFDCF2F5F3F4F22303105F0
:102F600099F7409A40988EE38EBD0DB407FEFDCFD1
:102F700020E030E0F901EE50F04F80818EBD0DB4BD
:102F800007FEFDCF2F5F3F4F2230310599F7409A62
:102F9000B701C6010E945E32F8018581882379F16C
:102FA0008091F40F882339F4409883E08EBD0DB4EE
:102FB00007FEFDCF409AEE24409885E08EBD0DB40B
:102FC00007FEFDCF409A40981EBC0DB407FEFDCF12
:102FD000FEB4409AE394F5E6EF1651F478948091AC
:102FE000E70F9091E80F0E94E82580E090E096C0FE
:102FF00084E690E00E942420F3FC08C0DDCF4098D6
:1030000084E08EBD0DB407FEFDCF409A8091BD03D4
:103010000E945F1B40988EE38EBD0DB407FEFDCF6E
:10302000F8018281482F552747FD509520E030E078
:103030000CC0F80183819481A80FB91F8C918EBDBB
:103040000DB407FEFDCF2F5F3F4FA22FBB27A41764
:10305000B5077CF3409A40988EE38EBD0DB407FC13
:1030600005C0FCCF0DB407FC57C0FCCFBEBCFACFE7
:103070004E9BFECF8091840090918500F401918356
:1030800080831091C803812F0E945F1B812F0E94B3
:10309000E41BF8944E99FECF409888E08EBD0DB4A5
:1030A00007FEFDCF409A409888E08EBD0DB407FE24
:1030B000FDCF409A409889E08EBD0DB407FEFDCF4C
:1030C000409A409889E08EBD0DB407FEFDCF409A2E
:1030D000409886E08EBD0DB407FEFDCF409A7894EF
:1030E0008091EE0F8F5F8093EE0F8091E70F9091AC
:1030F000E80F0E94E82581E090E010C0409AF801B6
:103100008681882309F0DDCE81E498E8DCCE409A00
:1031100040988EE38EBDFDCE409AAACF22960FB680
:10312000F894DEBF0FBECDBFDF91CF911F910F91FD
:10313000FF90EF90DF90CF90BF909F908F90089579
:10314000CF93DF93CDB7DEB722970FB6F894DEBFEB
:103150000FBECDBF9A8389839093F30F8093F20FB4
:1031600084EF91E00E94133140988AEE8EBD0DB439
:1031700007FEFDCF80E88EBD0DB407FEFDCFFE013A
:1031800031969E012D5F3F4F80818EBD0DB407FEAD
:10319000FDCF3196E217F307B9F7409A84EF91E03B
:1031A0000E94133122960FB6F894DEBF0FBECDBF3A
:1031B000DF91CF9108956F927F928F929F92AF92FD
:1031C000BF92CF92DF92EF92FF920F931F93CF9314
:1031D000DF93CDB7DEB722970FB6F894DEBF0FBEF0
:1031E000CDBF8C0184E690E00E9413317801C12CA0
:1031F000B1E0DB2E3E010894611C711CA3E08A2E15
:10320000912C8C0E9D1EF7018081218133279927F7
:10321000982F8827282B392B3A83298384E690E03E
:103220000E94133140988C2D80688EBD0DB407FE2E
:10323000FDCFC60195958795807C8EBD0DB407FEA8
:10324000FDCF83015301F50180818EBD0DB407FED2
:10325000FDCF0894A11CB11CA814B904A1F7409A91
:103260000894E11CF11C82E090E0C80ED91E90E1A8
:10327000C91691E0D90639F684E690E00E94133130
:1032800020E131E040E451E01A8219824098842F15
:1032900080688EBD0DB407FEFDCFCA019595879558
:1032A000807C8EBD0DB407FEFDCFF80180818EBD00
:1032B0000DB407FEFDCF3196EA15FB05B9F7409A2C
:1032C0004098822F80688EBD0DB407FEFDCFC901E6
:1032D00095958795807C8EBD0DB407FEFDCFF801D6
:1032E00080818EBD0DB407FEFDCF3196EA15FB053A
:1032F000B9F7409A2E5F3F4F4E5F5F4FE1E02E31AE
:103300003E0711F681E090E09A83898340988EEC25
:103310008EBD0DB407FEFDCF80E88EBD0DB407FE57
:10332000FDCFF80180818EBD0DB407FEFDCF319633
:10333000EA15FB05B9F7409A40988EE98EBD0DB4A9
:1033400007FEFDCF80E88EBD0DB407FEFDCFF8016E
:1033500080818EBD0DB407FEFDCF0F5F1F4F0A1594
:103360001B05A9F7409A22960FB6F894DEBF0FBE50
:10337000CDBFDF91CF911F910F91FF90EF90DF9024
:10338000CF90BF90AF909F908F907F906F90089557
:103390001F93CF93DF93EC01162F8091E70F90914D
:1033A000E80F0E943A27409888E08EBD0DB407FED2
:1033B000FDCF409A409888E08EBD0DB407FEFDCF4A
:1033C000409A812F0E943810D093ED0FC093EC0FDC
:1033D0008091E70F9091E80F0E94E825DF91CF914F
:1033E0001F9108951F93182F8091E70F9091E80F78
:1033F0000E943A27812F0E9438108091E70F909108
:10340000E80F0E94E8251F910895DF92EF92FF9246
:103410000F931F93CF93DF93CDB7DEB722970FB6ED
:10342000F894DEBF0FBECDBF8C01D62E5A834983E0
:10343000790164E181E00E946D259093E80F80930B
:10344000E70F892B31F40E94B428682F8FE00E9487
:10345000A4238091E70F9091E80F0E943A278F3FB5
:1034600021F48AE891E00E94C31F159A88EE93E048
:103470000E942420169881E090E00E942420169A51
:1034800084E690E00E942420F894409881E08EBD6C
:103490000DB407FEFDCF409A82EE92E09093EB0FC1
:1034A0008093EA0F409881E18EBD0DB407FEFDCFF9
:1034B00082E08EBD0DB407FEFDCF82EE8EBD0DB451
:1034C00007FEFDCF409A409882E18EBD0DB407FE05
:1034D000FDCF85E08EBD0DB407FEFDCF1EBC0DB443
:1034E00007FEFDCF409A40988CE18EBD0DB407FEDB
:1034F000FDCF1EBC0DB407FEFDCF8FE78EBD0DB412
:1035000007FEFDCF409A409889E18EBD0DB407FEBD
:10351000FDCF81E08EBD0DB407FEFDCF84EC8EBDE6
:103520000DB407FEFDCF409A409887E18EBD0DB4E3
:1035300007FEFDCF8AE18EBD0DB407FEFDCF86E507
:103540008EBD0DB407FEFDCF409A84EF91E00E943E
:103550001331409888EE8EBD0DB407FEFDCF80E894
:103560008EBD0DB407FEFDCFFE0131969E012D5F8D
:103570003F4F80818EBD0DB407FEFDCF3196E2171F
:10358000F307B9F7409A84EF91E00E9413317894E1
:103590008D2D0E94381078941093ED0F0093EC0F4E
:1035A00089819A819093F10F8093F00FF092F30F3D
:1035B000E092F20F1092EE0F1092F40F0E9457104B
:1035C0008091E70F9091E80F0E94E8258F3F39F432
:1035D0008DE591E00E94C31F82E00E94DF221092DD
:1035E000F70F1092E90F1092F80F22960FB6F89489
:1035F000DEBF0FBECDBFDF91CF911F910F91FF9026
:10360000EF90DF900895209110108091FE0F281701
:1036100081F0E22FFF27E150F04FE081822F8F5F92
:1036200080931010803111F4109210108E2F992772
:1036300008958091C80087FFFCCF8091C8008F77E4
:103640008093C8008091CE0099270895882351F473
:103650008091C000992787FD90958827990F881F32
:1036600099270895813019F080E090E0089520E0D6
:1036700030E0909110108091FE0F981711F021E02A
:1036800030E0C901089585B7806185BF86E084B9BF
:1036900087E085B981E087B988B98CE38DB98BE083
:1036A0008AB98EE38EB988E781B980E482B908953A
:1036B0000E94431B80E58CBD81E08DBD08958F3F46
:1036C00009F47FC0482F55279A01277030702230A7
:1036D0003105A9F12330310544F42115310589F074
:1036E0002130310509F06DC01CC02430310509F4CA
:1036F00046C0243031059CF12530310509F061C008
:103700004EC022B1A3E056954795AA95E1F781E016
:1037100090E002C0880F991F4A95E2F7282B22B942
:103720004DC085B1F3E056954795FA95E1F702C093
:10373000220F331F4A95E2F7822B85B93FC028B18B
:10374000E3E056954795EA95E1F781E090E002C005
:10375000880F991F4A95E2F7282B28B92FC02BB163
:1037600073E0569547957A95E1F781E090E002C0C5
:10377000880F991F4A95E2F7282B2BB91FC02EB14D
:1037800063E0569547956A95E1F781E090E002C0C5
:10379000880F991F4A95E2F7282B2EB90FC021B345
:1037A00033E0569547953A95E1F781E090E002C005
:1037B000880F991F4A95E2F7282B21BB81E090E002
:1037C00008958FEF9FEF08958F3F09F486C0482F2B
:1037D00055279A012770307022303105C1F123300E
:1037E000310544F42115310589F02130310509F006
:1037F00074C01DC02430310509F44BC0243031059C
:10380000BCF12530310509F068C054C022B173E025
:10381000569547957A95E1F781E090E002C0880FD0
:10382000991F4A95E2F78095822382B953C095B1DA
:1038300063E0569547956A95E1F702C0220F331F62
:103840004A95E2F7822F8095892385B943C028B134
:1038500033E0569547953A95E1F781E090E002C054
:10386000880F991F4A95E2F78095822388B932C064
:103870002BB193E0569547959A95E1F781E090E05A
:1038800002C0880F991F4A95E2F7809582238BB971
:1038900021C02EB183E0569547958A95E1F781E0E6
:1038A00090E002C0880F991F4A95E2F78095822325
:1038B0008EB910C021B3B3E056954795BA95E1F79C
:1038C00081E090E002C0880F991F4A95E2F7809549
:1038D000822381BB81E090E008958FEF9FEF0895F0
:1038E0008F3FA9F1282F3327C9018770907082304C
:1038F0009105A9F0833091052CF4009761F00197B0
:1039000031F50BC08430910571F0843091054CF095
:103910000597E9F40AC080B109C083B107C086B138
:1039200005C089B103C08CB101C08FB19927E3E014
:1039300036952795EA95E1F702C0959587952A95E2
:10394000E2F7992787FD90958170907008958FEF29
:103950009FEF08958F3F09F403C1282F3327A90152
:10396000477050704230510509F45CC04330510536
:1039700044F44115510591F04130510509F0F0C072
:1039800034C04430510509F49BC0443051050CF457
:1039900070C04530510509F0E3C0B9C080B1A9013C
:1039A00073E0569547957A95E1F79927042E02C062
:1039B000959587950A94E2F780FD0BC022B181E0CE
:1039C00090E002C0880F991F4A95E2F7282B22B990
:1039D000C4C022B181E090E002C0880F991F4A95CF
:1039E000E2F78095822382B9B8C083B163E036954F
:1039F00027956A95E1F79927022E02C0959587953C
:103A00000A94E2F702C0440F551F2A95E2F780FDA1
:103A100003C085B1842B04C095B1842F8095892380
:103A200085B99BC086B1A90193E0569547959A95B3
:103A3000E1F79927042E02C0959587950A94E2F73D
:103A400080FD0BC028B181E090E002C0880F991F73
:103A50004A95E2F7282B28B980C028B181E090E090
:103A600002C0880F991F4A95E2F78095822388B992
:103A700074C089B1A901B3E056954795BA95E1F7AD
:103A80009927042E02C0959587950A94E2F780FD48
:103A90000BC02BB181E090E002C0880F991F4A95BE
:103AA000E2F7282B2BB959C02BB181E090E002C07E
:103AB000880F991F4A95E2F7809582238BB94DC0F4
:103AC0008CB1A901A3E056954795AA95E1F79927EE
:103AD000042E02C0959587950A94E2F780FD0BC0ED
:103AE0002EB181E090E002C0880F991F4A95E2F75D
:103AF000282B2EB932C02EB181E090E002C0880F91
:103B0000991F4A95E2F7809582238EB926C08FB11E
:103B1000A901F3E056954795FA95E1F79927042E08
:103B200002C0959587950A94E2F780FD0BC021B3FA
:103B300081E090E002C0880F991F4A95E2F7282B98
:103B400021BB0BC021B381E090E002C0880F991F18
:103B50004A95E2F78095822381BB81E090E0089549
:103B60008FEF9FEF08958F3F09F412C1482F55271B
:103B7000662309F090C0CA01877090708230910569
:103B800009F43EC0833091053CF4009789F0813000
:103B9000910509F0FDC021C08430910509F454C09D
:103BA000843091050CF43EC0059709F0F1C05EC069
:103BB00031B1B3E056954795BA95E1F781E090E0D1
:103BC00002C0880F991F4A95E2F7282F20952323DA
:103BD00021B922B1822B82B9D8C024B1A3E0569575
:103BE0004795AA95E1F702C0880F991F4A95E2F719
:103BF000982F8095822384B985B1982B95B9C5C03B
:103C000037B1F3E056954795FA95E1F781E090E0FA
:103C100002C0880F991F4A95E2F7282F2095232389
:103C200027B935C03AB1E3E056954795EA95E1F7F3
:103C300081E090E002C0880F991F4A95E2F7282F93
:103C4000209523232AB923C03DB173E056954795AB
:103C50007A95E1F781E090E002C0880F991F4A95BC
:103C6000E2F7282F209523232DB911C030B363E04C
:103C7000569547956A95E1F781E090E002C0880F7C
:103C8000991F4A95E2F7282F2095232320BB25B1C1
:103C9000822B85B97AC09A012770307022303105A5
:103CA000A9F12330310544F42115310589F0213083
:103CB000310509F06DC01CC02430310509F446C03F
:103CC000243031059CF12530310509F061C04EC02A
:103CD00021B133E0569547953A95E1F781E090E0C0
:103CE00002C0880F991F4A95E2F7282B21B94DC0D1
:103CF00084B193E0569547959A95E1F702C0220F5B
:103D0000331F4A95E2F7822B84B93FC027B1B3E055
:103D100056954795BA95E1F781E090E002C0880F8B
:103D2000991F4A95E2F7282B27B92FC02AB1A3E0A3
:103D300056954795AA95E1F781E090E002C0880F7B
:103D4000991F4A95E2F7282B2AB91FC02DB1F3E03D
:103D500056954795FA95E1F781E090E002C0880F0B
:103D6000991F4A95E2F7282B2DB90FC020B3E3E045
:103D700056954795EA95E1F781E090E002C0880FFB
:103D8000991F4A95E2F7282B20BB81E090E0089527
:103D90008FEF9FEF0895882319F08FEF9FEF08951D
:103DA00080B1992787FD9095809590958827990FE8
:103DB000881F99270895009711F484E109C0813084
:103DC000910511F48CE104C08230910531F484E254
:103DD0000E94AA1C81E090E00895039719F08FEFEC
:103DE0009FEF08958CE20E94AA1C81E090E0089564
:103DF000009711F484E109C08130910511F48CE140
:103E000004C08230910531F484E20E945F1B81E09E
:103E100090E00895039719F08FEF9FEF08958CE2DB
:103E20000E945F1B81E090E00895009711F484E107
:103E300009C08130910511F48CE104C082309105F4
:103E400031F484E20E94E41B81E090E0089503973E
:103E500019F08FEF9FEF08958CE20E94E41B81E040
:103E600090E00895882319F085B78F7E02C085B74A
:103E7000806185BF81E090E00895982F8091C00017
:103E800085FFFCCF8091C0008F7D8093C000909310
:103E9000C6000895982F8091C80085FFFCCF9093AD
:103EA000CE000895292F33272093C5008093C400A6
:103EB00086E08093C200E1ECF0E080818B7F80831C
:103EC000A0ECB0E08C9182608C93808188618083CB
:103ED0000895292F33272093CD008093CC0086E0CE
:103EE0008093CA00E9ECF0E080818B7F8083A8ECAE
:103EF000B0E08C9182608C9380818861808308958A
:103F00008091C00087FFFCCF8091C0008F778093A5
:103F1000C0008091C600992708950E94691F63E040
:103F20007BE18AE49FE10E9416379093B71080935B
:103F3000B61063E07BE18AE49FE10E94163790931C
:103F4000B5108093B4100E94AB2480930F108F3F64
:103F500019F48EE00E94AB23109210101092FE0F05
:103F60008091C90080688093C900089580910F10E6
:103F70008F3F19F48EE00E94AB2380910F10992798
:103F800087FD90950895CF93DF93EC0107C0609172
:103F9000B6107091B71099270E946437FE012196E0
:103FA00084918823A1F7DF91CF9108951F920F92FA
:103FB0000FB60F9211242F933F934F935F936F93FC
:103FC0007F938F939F93AF93BF93EF93FF938091D2
:103FD000C9008F778093C9008091C80087FFFCCF0C
:103FE0008091C8008F778093C8009091CE00809117
:103FF000FE0FE82FFF27E150F04F90838F5F8093F3
:10400000FE0F803111F41092FE0F80910F100E946C
:104010003C268091C8008F778093C8008091C900AA
:1040200080688093C900FF91EF91BF91AF919F91FC
:104030008F917F916F915F914F913F912F910F9051
:104040000FBE0F901F9018950000000000000000A8
:104050000197D1F70895FC01A7E0B0E00E94C639AE
:10406000802D808381E090E00895FC018081A7E0AD
:10407000B0E0082E0E94CE3981E090E00895DC0186
:104080000E94C639802D99270895FC01A0E0B0E078
:104090000E94C639402D4383A1E0B0E00E94C6399A
:1040A000802D8283A2E0B0E00E94C639302D31839A
:1040B000A3E0B0E00E94C639902D9083A4E0B0E068
:1040C0000E94C639202D830F840F890F281719F4F9
:1040D00081E090E008958FEF9FEF0895FC01A5E047
:1040E000B0E00E94C639802D808381E090E0089581
:1040F000FC01A6E0B0E00E94C639802D808381E0FB
:1041000090E00895AC0120E030E0D90118960E94BB
:10411000C639802DFA01E20FF31F80832F5F3F4FD6
:104120002031310591F781E090E00895DC01062E01
:104130000E94CE390895FC018081A6E0B0E0082EEF
:104140000E94CE3981E090E00895AC0120E030E09B
:10415000D9011896FA01E20FF31F8081082E0E9400
:10416000CE392F5F3F4F2031310591F781E090E04C
:104170000895F89408957894089585E690E0089558
:104180000E94022E0895EF92FF920F931F93CF93F8
:10419000DF93EC018B017A018985823021F08091D7
:1041A0007E10888301C0188280917E10833020F0B9
:1041B00060E087E00E94A4238985823029F0809105
:1041C0007E108F5F80937E1080917E10882319F47B
:1041D00081E080937E108881992787FD9095FC016E
:1041E00045E0EE0FFF1F4A95E1F7E80FF91FED5E7E
:1041F000FF4E118300838881992787FD9095FC01EC
:1042000035E0EE0FFF1F3A95E1F7E80FF91FED5E7D
:10421000FF4E888582878881992787FD9095FC01CC
:1042200025E0EE0FFF1F2A95E1F7E80FF91FED5E7D
:10423000FF4E83E081872881822F992787FD909503
:10424000FC0105E0EE0FFF1F0A95E1F7E80FF91FEB
:10425000ED5EFF4E20878881992787FD9095FC01B0
:1042600015E0EE0FFF1F1A95E1F7E80FF91FED5E5D
:10427000FF4E15820881112707FD10952B853C857F
:104280004D855E856F85788989899A890E94272C5A
:10429000F801B5E0EE0FFF1FBA95E1F7E00FF11F4F
:1042A000ED5EFF4E948F838F0881112707FD1095D7
:1042B0002B8D3C8D4D8D5E8D6F8D78A189A19AA13E
:1042C0000E94272CF801A5E0EE0FFF1FAA95E1F749
:1042D000E00FF11FED5EFF4E968B858B888199274D
:1042E00087FD9095FC0175E0EE0FFF1F7A95E1F7D1
:1042F000E80FF91FED5EFF4E85899689238D348D79
:10430000820F931F908F878B0881112707FD1095CF
:104310002B893C894D895E896F89788D898D9A8D2D
:104320000E94272CF80165E0EE0FFF1F6A95E1F768
:10433000E00FF11FED5EFF4E968F858F88819927E4
:1043400087FD9095FC0155E0EE0FFF1F5A95E1F7B0
:10435000E80FF91FED5EFF4E858D968D928F818F50
:104360008881992787FD9095FC0145E0EE0FFF1F9E
:104370004A95E1F7E80FF91FED5EFF4E81E090E00E
:1043800090A3878F8881992787FD9095FC0135E060
:10439000EE0FFF1F3A95E1F7E80FF91FED5EFF4EB4
:1043A000F382E2828881992787FD9095FC0125E0C0
:1043B000EE0FFF1F2A95E1F7E80FF91FED5EFF4EA4
:1043C00081E0848781E090E0DF91CF911F910F9190
:1043D000FF90EF9008958F929F92AF92BF92CF92ED
:1043E000DF92EF92FF920F931F93CF93DF936BE1D6
:1043F000A62E60E1B62ECC24DD244501EC2CF5017F
:10440000F080FFEFFF1691F0E40100E010E0E0160D
:1044100039F08881F81621F46F2D85E00E94A423DD
:104420000F5F1F4FA1960330110589F70894C11C37
:10443000D11C81E290E0A80EB91E93E0C916D10408
:10444000E9F60E94C927282F332727FD3095F90167
:1044500055E0EE0FFF1F5A95E1F7E20FF31FED5EF7
:10446000FF4E32853093911021E28202C001112467
:104470008D5E9F4E9093901080938F10909381103B
:1044800080938010309382100E9401350E94E7349F
:104490000E942535FFCF0F931F93CF93DF93CDB7A6
:1044A000DEB7A3970FB6F894DEBF0FBECDBF0E9454
:1044B000AB2480937F108F3F21F460E08EE00E9458
:1044C000A4230E945834882321F460E086E00E94EF
:1044D000A423109282101092901010928F101092BC
:1044E0008110109280101092911010928E108FEF08
:1044F0008093781080937A108093791080937B104A
:1045000080937D1080937C1093E690931D10809390
:104510001B1090933E1080933C1090935F108093FB
:104520005D10E2E9F0E1CF01059694838383F78380
:10453000E683FC0120E1813A9207A9F710929410DA
:10454000109293101092A5101092A4101092851042
:10455000109284100F97909312108093111068EEB0
:104560007DE28E010F5F1F4FC8010E94A53440E815
:1045700050E062E577E0C8010E94063585E580934A
:10458000520719861C8E1D8E1E8E1F8E18A219A210
:104590001AA21BA291E0988782E08A879B87C801B4
:1045A0000E94B22AA3960FB6F894DEBF0FBECDBF0D
:1045B000DF91CF911F910F910895F894FFCFE09173
:1045C0008F10F091901084870895E0918F10F091F2
:1045D0009010848599270895DC01FB0180914307A1
:1045E000882319F480E090E00895808380915F042F
:1045F0008C9381E090E008951F9380914307882376
:1046000009F49EC00E94B9200E94B92082E793E07D
:104610000E94C31F80915F0499279F938F938EED13
:1046200093E09F938F930E9491378EE693E00E94D0
:10463000C31F0F900F900F900F908091430784310C
:1046400010F010924307809143079927AA27BB27B0
:10465000FC013197E231F105F0F5EA59FF4FEE0F19
:10466000FF1F0590F491E02D099487E493E035C095
:1046700083E393E032C08DE193E02FC082E093E0CA
:104680002CC08CEE92E029C084ED92E026C081EC33
:1046900092E023C08EEA92E020C080E992E01DC043
:1046A0008BE692E01AC08FE592E017C084E492E0B6
:1046B00014C085E392E011C084E292E00EC080E174
:1046C00092E00BC080EF91E008C088ED91E005C05A
:1046D0008DEB91E002C086EB91E00E94C31F6091D8
:1046E000B6107091B7108DE090E00E946437609131
:1046F000B6107091B7108AE090E00E94643782E0B3
:1047000090E00E94151F83E090E00E94F81E10E0E8
:1047100088EE93E00E9413311F5F1436C9F783E0DF
:1047200090E00E94151F82E090E00E94F81E10E0C9
:1047300088EE93E00E9413311F5F1436C9F7DFCF74
:1047400080E090E01F9108958093430760935F0499
:104750000E94FC22089580934307E0918F10F0910E
:104760009010808580935F040E94FC220895992711
:1047700087FD9095FC0125E0EE0FFF1F2A95E1F7DC
:10478000E80FF91FED5EFF4EA281B3818C91853554
:1047900029F085E58C938FEF9FEF089580819181BB
:1047A0008050924218F481E090E0089582E10E94E6
:1047B000AB238FEF9FEF08956F927F928F929F921E
:1047C000AF92BF92CF92DF92EF92FF920F931F931F
:1047D000CF93DF938EE793E00E94C31FE0918F1089
:1047E000F09190108085992787FD90959F938F93E6
:1047F00081EE93E09F938F930E949137E0918F1009
:10480000F0919010028113811F930F938AEE93E031
:104810009F938F930E949137F801808199279F93EE
:104820008F9357EFC52E53E0D52EDF92CF920E9483
:104830009137E0918F10F0919010808191819F933A
:104840008F9344E0E42E44E0F42EFF92EF920E9416
:10485000913780918F10909190109F938F930EE0DD
:1048600014E01F930F930E949137C3E1D0E1AA2473
:10487000BB248DB79EB744960FB6F8949EBF0FBE6B
:104880008DBF3EE1632E34E0732E4601670178014F
:104890000A811B811F930F93BF92AF927F926F92F9
:1048A0000E949137F801808199279F938F939F925F
:1048B0008F920E949137888199819F938F93DF9285
:1048C000CF920E949137DF93CF93FF92EF920E9495
:1048D00091370894A11CB11CA1968DB79EB7429642
:1048E0000FB6F8949EBF0FBE8DBF93E0A916B1041A
:1048F00079F6DF91CF911F910F91FF90EF90DF90AC
:10490000CF90BF90AF909F908F907F906F900895C1
:10491000CF93DF93E0918F10F0919010C281D381FB
:104920008881853539F00E94DC2381E00E94AB2329
:1049300085E58883E0918F10F091901080819181BE
:104940008050924228F00E94DC2382E10E94AB2337
:10495000DF91CF91089540913A0550913B056091C8
:104960003C0570913D0520E030E0DB01CA01022EDC
:1049700004C0B695A795979587950A94D2F781704C
:104980009070892BE9F481E090E0A0E0B0E0022E85
:1049900004C0880F991FAA1FBB1F0A94D2F7842B4B
:1049A000952BA62BB72B80933A0590933B05A093AC
:1049B0003C05B0933D05822F992787FD909508957A
:1049C0002F5F3F4F2032310581F68FEF9FEF089523
:1049D000E0918F10F091901065857685878590899C
:1049E0000895EF92FF920F931F9321E030E040E093
:1049F00050E004C0220F331F441F551F8A95D2F781
:104A0000E0918F10F0919010E584F684078510896D
:104A1000DA01C9018E219F21A023B1230097A105AE
:104A2000B10519F48FEF9FEF1AC02095309540958E
:104A30005095E222F32204231523E586F6860787A4
:104A4000108B81899289A389B48982239323A4231B
:104A5000B523818B928BA38BB48B81E090E01F9167
:104A60000F91FF90EF900895682F772767FD70955D
:104A700080913A0590913B05A0913C05B0913D0590
:104A8000062E04C0B695A795979587950A94D2F7F8
:104A900081709070892B19F48FEF9FEF0895E0914A
:104AA0008F10F091901021E030E040E050E004C021
:104AB000220F331F441F551F6A95D2F785859685AF
:104AC000A785B089822B932BA42BB52B858796873E
:104AD000A787B08B81E090E00895382F80918E10E9
:104AE000882319F080E090E00895809178108F3F3E
:104AF00011F420E007C080917B108F3F11F022E07D
:104B000001C021E0822F9927FC01EE0FFF1FE80F63
:104B1000F91FE858FF4E32833083618381E0809330
:104B20008E1083E0289FC001112488589F4E08955D
:104B300020E18837920711F480E007C08B5790413D
:104B400019F08FEF9FEF089581E0992787FD9095E9
:104B500008950E9498258F3F11F481E002C08230B1
:104B600029F40E94DF228FEF9FEF0895992787FD98
:104B70009095FC01EE0FFF1FE80FF91FE858FF4E5C
:104B80008FEF80838283818380918E108150809308
:104B90008E1081E090E008950E9498258F3F11F4D7
:104BA00081E002C0823029F40E94DF228FEF9FEF64
:104BB0000895992787FD9095FC01EE0FFF1FE80FE0
:104BC000F91FE858FF4E8281992787FD9095089537
:104BD0001F93CF93DF930E949825182F8F3F11F4D6
:104BE00081E003C0823031F482E00E94DF228FEF47
:104BF0009FEF3EC0992787FD9095EC01CC0FDD1FFC
:104C0000C80FD91FC858DF4E9A818881981774F54C
:104C10000E94B9208A818F5F8A83E0918F10F09182
:104C200090101482EAE1F0E1212F332727FD30951F
:104C3000432F532F8081823091F482859385A48500
:104C4000B58582179307A407B50749F483E08283EB
:104C50001786168610821286138614861586B196DC
:104C600080E1ED37F80731F70E94BB2081E090E04A
:104C7000DF91CF911F910895DF92EF92FF920F93F2
:104C80001F93E1E0EE2EF12C012D112D04C0EE0C4E
:104C9000FF1C001F111F8A95D2F780913A05909151
:104CA0003B05A0913C05B0913D058E219F21A0239D
:104CB000B1230097A105B10511F481E043C00E9422
:104CC000B920EAE1F0E1DD2480818130B9F4828508
:104CD0009385A485B5858E219F21A023B1230097BC
:104CE000A105B10559F083E08283178616861082EC
:104CF000E286F38604871587DD24D3948081823091
:104D0000A1F482859385A485B5858E159F05A0079E
:104D1000B10759F483E082831786168610821286C3
:104D2000138614861586DD24D394B19680E1ED3781
:104D3000F80751F60E94BB20DD2019F081E090E0D9
:104D400005C082E00E94DF228FEF9FEF1F910F913D
:104D5000FF90EF90DF900895EF92FF920F931F93D3
:104D6000CF93DF93C82FDD27C7FDD095F1E0EF2E5D
:104D7000F12C012D112D0C2E04C0EE0CFF1C001F78
:104D8000111F0A94D2F780913A0590913B05A091AA
:104D90003C05B0913D058E219F21A023B1230097B2
:104DA000A105B10519F48FEF9FEF5DC00E94B920F6
:104DB000E3E1F0E1A80197012095309540955095E9
:104DC00080858F3F41F185859685A785B0898E15B1
:104DD0009F05A007B10739F4118A128A138A148A31
:104DE000178283E0818785859685A785B089822390
:104DF0009323A423B52385879687A787B08B8189C2
:104E00009289A389B48982239323A423B523818B18
:104E1000928BA38BB48BB19680E1E637F80781F6CD
:104E20002EEF3FEF4FEF5FEF04C0220F331F441F01
:104E3000551FCA95D2F780913A0590913B05A091F4
:104E40003C05B0913D0582239323A423B523809391
:104E50003A0590933B05A0933C05B0933D050E9415
:104E6000BB2081E090E0DF91CF911F910F91FF90E7
:104E7000EF9008951F93CF93DF930E949825182FEA
:104E80008F3F11F481E003C0823031F482E00E9450
:104E9000DF228FEF9FEF3EC00E94B920812F99271C
:104EA00087FD9095EC01CC0FDD1FC80FD91FC858A6
:104EB000DF4E8A818823D9F4E0918F10F091901011
:104EC000878182608783E0918F10F0919010812F0D
:104ED000992787FD9095A92FB92F818B928BA38B52
:104EE000B48B0E94BB2080E090E00E94DF298A8181
:104EF00081508A83E0918F10F0919010898183878F
:104F0000E0918F10F091901081E084830E94BB208B
:104F100081E090E0DF91CF911F9108959B01AC015A
:104F2000E0918F10F091901085859685A785B089C6
:104F300082239323A423B5230097A105B10529F467
:104F400060E070E080E090E00895218B328B438B2D
:104F5000548B81E0878300907F1004C0569547955D
:104F6000379527950A94D2F7C90181709070892BE3
:104F700019F00E947A2904C080E090E00E94DF29A5
:104F8000E0918F10F09190106189728983899489E2
:104F90000895E0918410F0918510808199270895FB
:104FA000E0918410F091851003C00380F481E02D1E
:104FB0003097D9F70895CF93DF93482FC091111000
:104FC000D0911210209709F47AC0A0918410B0916A
:104FD00085101097B9F1992787FD90959C0165E0A0
:104FE000220F331F6A95E1F7280F391F2D5E3F4EC0
:104FF0008C919927BC0155E0660F771F5A95E1F710
:10500000680F791F6D5E7F4EFB018481882329F034
:105010009385F90182859817A8F0F9018481882386
:1050200031F0FB019285F9018385981758F0FB0157
:105030009285F9018285981728F0FD01A381B4813A
:105040001097B1F64883E0911110F091121023816E
:10505000348130931210209311108091841090911C
:105060008510A817B907A1F4109731F0BC83AB8362
:105070001A821982FD0105C01C821B821A821982C4
:10508000F901D283C183D0938510C093841017C0D7
:10509000FD0181819281A217B30751F09A83898320
:1050A000BC83AB8381819281FC01D483C38304C020
:1050B0001C821B829A838983FD01D283C183DF9185
:1050C000CF910895CF93DF93A0918410B091851074
:1050D000109709F446C0482F552747FD50958C91ED
:1050E00099278417950769F4ED01EB81FC81F09312
:1050F0008510E09384101282118216C0D901232BEF
:1051000081F18C919927FD012381348184179507C2
:10511000A9F7C181D2813C832B838381948100973D
:1051200019F0FC01D283C183E0911110F0911210AB
:10513000309741F4B0931210A0931110ED011C822E
:105140001B8209C0ED01FC83EB83B283A183B09382
:105150001210A0931110E0911110F0911210128210
:105160001182DF91CF910895E0918F10F09190100E
:105170008085992708950E949A34E0918F10F091CC
:10518000901085818823B9F70895FF920F931F939C
:10519000CF93DF93CDB7DEB728970FB6F894DEBF75
:1051A0000FBECDBF29833A834B835C836D837E839F
:1051B0008F8398870E9488240E94B920E0918F10E5
:1051C000F091901081E0858381E090E090A3878F3B
:1051D0000E94D931F82E29813A814B815C816D8101
:1051E0007E818F8198850E94272CE0918F10F0910D
:1051F00090100F2D1127800F911F968B858B87EFB5
:105200008F1570F00E9465310E5F1F4F9927801730
:10521000910734F08F2D8E5F809326080E946A31AB
:105220000E94BB200E94BB2881E090E028960FB628
:10523000F894DEBF0FBECDBFDF91CF911F910F91CC
:10524000FF9008958F929F92AF92BF92CF92DF927C
:10525000EF92FF920F931F93CF93DF93CDB7DEB7FB
:1052600060970FB6F894DEBF0FBECDBF29873A878F
:105270004B875C876D877E878F87988BCE010196E1
:105280000E948D2D89809A80AB80BC80CD80DE808D
:10529000EF80F88409851A852B853C854D855E85D0
:1052A0006F857889CE0109960E94082B882319F40E
:1052B0008FEF9FEF0CC029853A854B855C856D8506
:1052C0007E858F8598890E94C52881E090E0609650
:1052D0000FB6F894DEBF0FBECDBFDF91CF911F9107
:1052E0000F91FF90EF90DF90CF90BF90AF909F9085
:1052F0008F9008951F930E94B920E0918F10F09134
:10530000901081E0858386830E94D931182F883FD1
:1053100080F40E946531212F33272E5F3F4F99275C
:105320008217930734F0812F8E5F809326080E94A6
:105330006A310E94BB200E94BB2881E090E01F914F
:1053400008951F93CF93DF93CDB7DEB728970FB69D
:10535000F894DEBF0FBECDBF29833A834B835C83B5
:105360006D837E838F8398870E94B9200E94D931F4
:10537000182F29813A814B815C816D817E818F81DB
:1053800098850E94272C8330910518F48FEF9FEFAA
:105390000CC0E0918F10F0919010810F911D968BB1
:1053A000858B0E94BB2081E090E028960FB6F89490
:1053B000DEBF0FBECDBFDF91CF911F9108950F9338
:1053C0001F938C010E94B920E0918F10F0919010F2
:1053D00081E08583168B058B0E94D931082F883F89
:1053E00080F40E946531202F33272E5F3F4F99278D
:1053F0008217930734F0802F8E5F809326080E94D7
:105400006A310E94BB200E94BB2881E090E01F917E
:105410000F910895FF920F931F93CF93DF938C0109
:105420000E94B920E0918F10F091901081E0858367
:105430000E94D931F82EE0918F10F0919010C82F72
:10544000DD270C0F1D1F168B058B87EF8F1568F05E
:105450000E946531229699278C179D0734F08F2D75
:105460008E5F809326080E946A310E94BB200E94B2
:10547000BB2881E090E0DF91CF911F910F91FF90C9
:1054800008951F93CF93DF93EC010E948824209707
:1054900011F4C1E0D0E00E94B920E0918F10F091AA
:1054A000901081E08583D0A3C78F0E94D931182F37
:1054B000883F80F40E946531212F33272E5F3F4FB4
:1054C00099278217930734F0812F8E5F80932608E7
:1054D0000E946A310E94BB200E94BB2881E090E0BC
:1054E000DF91CF911F9108951F930E9488240E94FD
:1054F000B920E0918F10F091901081E090E090A39E
:10550000878F81E085830E94D931182F883F80F4EE
:105510000E946531212F33272E5F3F4F9927821735
:10552000930734F0812F8E5F809326080E946A31A2
:105530000E94BB200E94BB2881E090E01F9108954B
:10554000E0918F10F091901080850E946228E09188
:105550008F10F091901084E081870E94742A81E07E
:1055600090E00895EF92FF920F931F93CF93DF93F4
:10557000EC014B815C8169817A818D819E810E94E1
:10558000A934BC018F81882369F04B815C81EE24B2
:10559000FF2400E010E020E030E0CE010E94C320B4
:1055A0001F8216C08881992787FD9095FC01A5E090
:1055B000EE0FFF1FAA95E1F7E80FF91FED5EFF4E12
:1055C0008185833019F08FEF9FEF1BC0718360835B
:1055D0008881992787FD9095FC0175E0EE0FFF1FEC
:1055E0007A95E1F7E80FF91FED5EFF4E8589968900
:1055F000892B29F482E0818788810E94DB2781E062
:1056000090E0DF91CF911F910F91FF90EF9008955F
:105610008F929F92AF92BF92CF92DF92EF92FF92C2
:105620000F931F93CF93DF93CDB7DEB760970FB67D
:10563000F894DEBF0FBECDBFFC0109831A832B8314
:105640003C834D835E836F83788789869A86AB8699
:10565000BC86CD86DE86EF86F88A2D813E814F811D
:10566000588589819A81AB81BC81AD84BE84CF8409
:10567000D888E984FA840B851C858E159F05A007C0
:10568000B10708F43FC0E816F9060A071B0791F4B2
:105690002A153B054C055D05A8F12A193B094C0963
:1056A0005D092483358346835783108211821282D9
:1056B00013821CC02A153B054C055D05D0F40197EB
:1056C000A109B1098E199F09A00BB10B80839183A9
:1056D000A283B383205036434546544C2A193B09D4
:1056E0004C095D09248335834683578381E090E02C
:1056F0000BC08E199F09A00BB10B80839183A283ED
:10570000B383ECCF80E090E060960FB6F894DEBFF4
:105710000FBECDBFDF91CF911F910F91FF90EF9002
:10572000DF90CF90BF90AF909F908F900895FC0135
:1057300013C080509A4CAA49BB4384839583A683A7
:10574000B78380819181A281B3810196A11DB11D92
:1057500080839183A283B38384819581A681B7815D
:1057600080302AEC92072AE9A2072BE3B20708F758
:1057700008958F929F92AF92BF92CF92DF92EF9255
:10578000FF920F931F93CF93DF93CDB7DEB7609750
:105790000FB6F894DEBF0FBECDBFFC0109831A839C
:1057A0002B833C834D835E836F83788789869A86BB
:1057B000AB86BC86CD86DE86EF86F88AAD80BE805D
:1057C000CF80D884ED84FE840F85188989859A85D9
:1057D000AB85BC8529813A814B815C81820F931F07
:1057E000A41FB51F80839183A283B383EA0CFB1CA3
:1057F0000C1D1D1DE482F58206831783CF010E94D4
:10580000972B81E090E060960FB6F894DEBF0FBE54
:10581000CDBFDF91CF911F910F91FF90EF90DF905F
:10582000CF90BF90AF909F908F9008956093861017
:1058300070938710809388109093891020938A101A
:1058400030938B1040938C1050938D1008958F924D
:105850009F92AF92BF92CF92DF92EF92FF920F93FF
:105860001F93CF93DF93CDB7DEB728970FB6F89489
:10587000DEBF0FBECDBF29833A834B835C836D832C
:105880007E838F8398878D809E80AF80B884E980E7
:10589000FA800B811C81E114F1040105110501F16D
:1058A00080E09AECAAE9BBE3880E991EAA1EBB1EF3
:1058B000C501B40123EB36EE4EE050E00E946D3995
:1058C00069010894E108F108010911098AE0EE0C68
:1058D000FF1C001F111F8A95D1F7CE0CDF1C09C0D9
:1058E000C501B40123EB36EE4EE050E00E946D3965
:1058F0006901B60102C06050744094E061307907DC
:10590000D0F78827992723EB36EE4EE050E00E942F
:105910002739675A7C48884F9F4F681579058A0553
:105920009B0518F40894C11CD11CC60128960FB61B
:10593000F894DEBF0FBECDBFDF91CF911F910F91C5
:10594000FF90EF90DF90CF90BF90AF909F908F909F
:1059500008952F923F924F925F926F927F928F9213
:105960009F92AF92BF92CF92DF92EF92FF920F93EE
:105970001F93CF93DF93CDB7DEB728970FB6F89478
:10598000DEBF0FBECDBF7B018C0173708070907045
:1059900023EB36EE4EE050E00E9427396D837E8384
:1059A0008F8398879AE016950795F794E7949A95D0
:1059B000D1F7E982FA820B831C83988529803A808B
:1059C0004B805C806D807E808F80222D332D442D16
:1059D000552D662D772D882D28960FB6F894DEBFAD
:1059E0000FBECDBFDF91CF911F910F91FF90EF9030
:1059F000DF90CF90BF90AF909F908F907F906F90EF
:105A00005F904F903F902F900895AF92BF92CF92AA
:105A1000DF92EF92FF920F931F93CF93DF93CDB757
:105A2000DEB728970FB6F894DEBF0FBECDBF29832F
:105A30003A834B835C836D837E838F839887AD80AD
:105A4000BE80CF80D884E980FA800B811C81E1146C
:105A5000F1040105110509F180E09AECAAE9BBE324
:105A6000A80EB91ECA1EDB1EC601B50123EB36EE19
:105A70004EE050E00E946D390894E108F1080109F8
:105A800011096AE0EE0CFF1C001F111F6A95D1F787
:105A9000E20EF31E041F151F0AC0C601B50123EB59
:105AA00036EE4EE050E00E946D3979018A01C8015E
:105AB000B70104C060507440804090406130A4E061
:105AC0007A07A0E08A07A0E09A07A0F723EB36EE5A
:105AD0004EE050E00E942739675A7C48884F9F4F1C
