:100000000C94D2010C9404340C94F1010C94F10181
:100010000C94F1010C94F1010C94F1010C94F10198
:100020000C94F1010C9432340C94F1010C94F10114
:100030000C94F1010C94E5310C94F1010C94E53130
:100040000C94F1010C9418320C94F1010C94F10110
:100050000C94F1010C94F1010C94F1010C94F10158
:100060000C94F1010C94F1010C94F1010C94F10148
:100070000C94F1010C94F1010C94F1010C94F10138
:100080000C9422320C94F1010C94F1010C94F101C6
:100090000C94DE1F0C94F1010C94F1010C94F1010D
:1000A0000C94F1010C94F1010C94F1010C94F10108
:1000B0000C94F1010C94F1010C94F1010C94F101F8
:1000C0000C94F1010C94F1010C94F10140234623AE
:1000D00049234C234F235223582355235B235E236C
:1000E000612367236A236D23702364233D23432305
:1000F00043726561746520446F6E650D0A00537428
:10010000617274696E672075702E2E2E0D0A00497B
:100110005341204552524F523A20637265617469CF
:100120006E67207478207369676E616C2066616900
:100130006C65640D0A00495341204552524F523AB2
:10014000206372656174696E6720727820736967D5
:100150006E616C206661696C65640D0A0043433210
:10016000343230204552524F523A202052656C654D
:10017000617365206F662073656D6170686F72656D
:10018000206661696C65640D0A0043433234323085
:10019000204552524F523A202041636365737320C9
:1001A000746F2073656D6170686F72652066616938
:1001B0006C65640D0A00554E4B4F574E0046616901
:1001C0006C656420746F206372656174652053658B
:1001D0006D6170686F7265004661696C656420745A
:1001E0006F20637265617465205369676E616C008E
:1001F0004B65726E656C2066756E6374696F6E20F8
:100200006E6F7420696D706C656D656E74656400E9
:10021000446576696365204472697665722045722B
:10022000726F72005761746368646F672052657300
:10023000746172740054696D6572204F76657266E0
:100240006C6F7700556E68616E646C656420496EF2
:100250007465727275707420566563746F72004CA9
:100260006F7720566F6C74616765004578747261B2
:10027000205461736B20737461727465642C2069FF
:1002800073206E726B5F6366672E68206F6B3F0032
:1002900049646C65206F72204B65726E656C2053EB
:1002A0007461636B204F766572666C6F7700556E74
:1002B00065787065637465642052657374617274E7
:1002C000004475706C696361746564205461736B7C
:1002D000204944005363686564756C6572204D69FC
:1002E000737365642057616B657570005461736B3F
:1002F00020526573657276652056696F6C6174650E
:10030000640052657365727665204572726F722063
:10031000696E205363686564756C657200496E761A
:10032000616C696420537461636B20506F696E74F3
:100330006572005461736B20537461636B204F7658
:100340006572666C6F7700537461636B20776173BD
:10035000206E6F7420646566696E65642061732029
:100360006C6172676520656E6F7567682100293A58
:1003700020002A4E524B204552524F5228000D0A5F
:10038000535441434B2044554D500D0A00454647B8
:1003900065666700202B2D2E3031323334353637E9
:1003A0003839680011241FBECFEFD1E2DEBFCDBFC8
:1003B00014E0A0E0B2E0E6ECF3E700E00BBF02C01F
:1003C00007900D92A037B107D9F710E1A0E7B4E08C
:1003D00001C01D92A737B107E1F70E9412030C94E8
:1003E000E2390C94503280E592E09093D2048093ED
:1003F000D1048CE696E09093CE048093CD048DEEEC
:1004000095E09093D0048093CF0482E08093D4044D
:1004100081E08093D3048093D5048093D604109216
:10042000D7041092D8041092D9041092DA0480E014
:100430009DE2A1E3B1E08093DB049093DC04A09300
:10044000DD04B093DE041092DF041092E0041092F9
:10045000E1041092E2048093E3049093E404A093F7
:10046000E504B093E6041092E7041092E8041092B9
:10047000E9041092EA0480E890EFAAEFB2E08093DA
:10048000EB049093EC04A093ED04B093EE048CEC99
:1004900094E00E94BA2A80EF90E00E94CB1F08955A
:1004A0003F924F925F926F927F928F929F92AF9204
:1004B000BF92CF92DF92EF92FF920F931F93CF9351
:1004C000DF93CDB7DEB722970FB6F894DEBF0FBE2D
:1004D000CDBF0E94BC2899279F938F9380E092E024
:1004E0009F938F930E94993783E090E00E941D1F95
:1004F00081E090E00E94880343E064E081E00E9494
:10050000DF090E94D10A20E048E061E070E088E065
:100510000E94FA0D21E041E063E070E089E00E9472
:10052000FA0D0E94E20364E788E795E00E94D20397
:100530000F900F900F900F9002C00E947C2A0E9493
:10054000C8038823D1F38FE092E09F938F930E949A
:10055000993733240F900F904CE1442E42E0542EF3
:1005600032E0632E712C6C0E7D1E4E010894811CAE
:10057000911C0CE716E024E4A22E22E0B22E96E4B1
:10058000C92E93E0D92E8CEFE82E8FEFF82EE00ED7
:10059000F11E2091740430917504C90168EE73E076
:1005A0000E944E39892BD1F480917804909179047E
:1005B0009F938F9380917604909177049F938F936C
:1005C0003F932F935F924F920E9499378DB79EB7BA
:1005D00008960FB6F8949EBF0FBE8DBF0E943204DE
:1005E000882331F0B301C4010E94910A0E943804AB
:1005F0003320A9F4B501C8010E941737F801019012
:100600000020E9F7ED57F640EB5FE9839601A7017B
:100610006E2F83E090E00E94D90D332433940E9422
:10062000D008B7CFCFEFD1E2DEBFCDBF0E94601BB5
:1006300087E090E00E94951F8EEF90E00E94CB1F14
:100640000E94532280E090E00E94001F81E090E031
:100650000E94001F82E090E00E94001F83E090E073
:100660000E94001F20E030E040E050E060E070E0D9
:1006700080E090E00E941E2C0E944B040E94F30137
:100680000E94F32180E090E00C94E2390F931F93D5
:100690000E94620C0CE716E066E472E0C8010E945A
:1006A0001737F80101900020E9F7E01BEC5F26E422
:1006B00033E004501040A8016E2F83E090E00E94C8
:1006C000D90D1F910F91089521E030E040E050E0F6
:1006D00004C0220F331F441F551F8A95D2F7809103
:1006E0007B0490917C04A0917D04B0917E04822BC8
:1006F000932BA42BB52B80937B0490937C04A09325
:100700007D04B0937E04089580919B0499270895F9
:10071000813019F08330D9F531C083E18093CF0760
:100720008CE08093D00784E18093D10788E18093A7
:10073000D20780E18093D30787E18093D40782E1D9
:100740008093D50789E18093D6078EE08093D70701
:1007500085E18093D8078BE08093D9078FE0809361
:10076000DA0786E18093DB0781E18093DC078DE087
:100770008093DD078AE18093DE0708958FE0809300
:10078000CA0784E18093CB0789E18093CC07089561
:1007900080917706813019F481E090E008958FEF21
:1007A0009FEF0895662359F0009749F090938E04C7
:1007B00080938D0460938C0481E090E008958FEF26
:1007C0009FEF089582E0809377060895CF93DF939B
:1007D000EC01E885F985858587FF02C085EE01C0BB
:1007E00081EE992787FD9095DF91CF910895882319
:1007F00011F083E801C083E0992787FD9095089563
:100800008F92AF92CF92EF920F93CF93DF93CDB7AA
:10081000DEB71092AD079AE09093B4071092B50737
:100820008093B6076093B7074093B8071092B90753
:100830002093C0070093C107E092C207C092C3078C
:10084000A092C4078092C5078A858093C6078B85CE
:100850008093C707DF91CF910F91EF90CF90AF902A
:100860008F9008958091FD06992787FD90950895B2
:100870001092FD061092FE061092FF0610920007DD
:10088000089580917205813019F481E090E0089517
:100890008FEF9FEF08950F931F938EEF98E0909343
:1008A000AF048093AE0409EA14E040E850E06FEE34
:1008B00074E0C8010E940E3584E18093B10481E0A8
:1008C0008093B0048093B2048093B3041092B40474
:1008D0001092B5041092B6041092B70480E896E91D
:1008E000A8E9B0E08093B8049093B904A093BA0447
:1008F000B093BB041092BC041092BD041092BE04CD
:100900001092BF041092C0041092C1041092C2044D
:100910001092C3041092C4041092C5041092C6042D
:100920001092C7041092C8041092C9041092CA040D
:100930001092CB04C8010E94BA2A1F910F9108950A
:10094000CF92DF92EF92FF920F931F93CF93DF939B
:10095000EE24FF2488E8C82E84E0D82EE0918D0490
:10096000F0918E0481E0808360919B04C6010E9417
:10097000D0190E94F3141092AA078AEF0E947231D4
:1009800080E00E94573100E012C00E94E131081758
:1009900071F00E94E131082F0894E11CF11C81E103
:1009A000E81687E2F80618F0EE24FF2405C00E943E
:1009B0008111182F882349F30E9429310E94E131C7
:1009C000C82FDD272496112371F006C00E94E13163
:1009D0009927C817D90738F060E880E00E946612AE
:1009E000182F882399F30E94DB14113009F0B6CF39
:1009F000E0918D04F0918E04928180917105981799
:100A000009F0ACCF81E090E0A0E0B0E08093FD067B
:100A10009093FE06A093FF06B093000780919D0778
:100A200090919E072181820F911D90939E07809344
:100A30009D0782E090E00E94E31E60916F1070912C
:100A4000701089E690E00E946C371093AA0710920C
:100A5000FD061092FE061092FF06109200070E94FB
:100A60004C318AE00E94723187E00E94573160E584
:100A700071E980E090E00E9466320E945A31E09174
:100A80004810F09149108AE090E0968B858B809118
:100A9000AA079927DF91CF911F910F91FF90EF90B7
:100AA000DF90CF9008958F929F92AF92BF92CF9296
:100AB000DF92EF92FF920F931F93CF93DF93CDB707
:100AC000DEB721970FB6F894DEBF0FBECDBF8C0105
:100AD0005B0181E080939604F801A085B185FD015A
:100AE000818192810E94F60B6C01892B69F4BF927F
:100AF000AF928BE492E09F938F930E9499370F906F
:100B00000F900F900F90F2C18A2CA0929807089432
:100B1000C11CD11CD0929504C0929404D6018E9130
:100B20006D0180939304C8010E94E603982EE09122
:100B30009404F09195048083E0919404F0919504DD
:100B400080919D0790919E078183E0919404F0919C
:100B5000950480917F0482830E94293160E875E2C8
:100B600080E090E00E946632E090F9038E2D0E94B2
:100B7000671B40919D0450919E046091990770916C
:100B80009A0726EA37E081E994E00E940917882352
:100B900041F1E5E7F0E0CE0EDF1ED6011C92EBE856
:100BA000FFEFCE0EDF1E80917404909175040196C4
:100BB00090937504809374048E2D0E94EC1B83E047
:100BC00090E00E94E31E8091A6079091A7072091D4
:100BD000990730919A07821B930B90939407809307
:100BE000930780919B070E94442697FE67C10E944D
:100BF000F3148E2D0E94671B0E94293160E070E182
:100C000080E090E00E9466320E94E1318983898110
:100C10008E5F89834DC00E94E1319981981708F059
:100C200047C020919807822F9927A816B90651F43A
:100C30008091E1079091E20749969093E2078093B3
:100C4000E10714C0882D821B2091E1073091E20753
:100C5000482F552747FD5095181614F0275E3F4F33
:100C6000240F351F3093E2072093E1070E94DB1425
:100C70008E2D0E94EC1B60916F107091701083E7B5
:100C800090E00E946C3780917804909179040196ED
:100C9000909379048093780487E790E0C80ED91E7A
:100CA000D601ED91FC9189E89FEFC80ED91E39C09D
:100CB0000E948111882309F4AECF0E94E13189831B
:100CC00089818E5F8983F801A085B185FD018585C5
:100CD00087FF2CC014E02BC00E94E1319981981746
:100CE00030F588E792E09F938F930E949937809127
:100CF0007804909179040196909379048093780414
:100D00000E94E13180938C0787E790E0C80ED91EDE
:100D1000D601ED91FC9189E89FEFC80ED91E0F9086
:100D20000F90309709F4D7C060E0DAC012E0612F6D
:100D300081E00E946612082F882371F2813009F445
:100D4000D2C060916F107091701086E690E00E94A2
:100D50006C3780917804909179040196909379048E
:100D60008093780480917204909173049F938F9381
:100D700089E992E09F938F930E9499370F900F908B
:100D80000F900F908E2D0E94EC1B013009F096C041
:100D900080917604909177040196909377048093E4
:100DA00076041092E2071092E107E0918D04F09131
:100DB0008E0480818093E00787FF80C0818199271E
:100DC000982F882722813327822B932B9093960785
:100DD0008093950780E090E00E94E31E60916F1081
:100DE0007091701081E690E00E946C37A09095079A
:100DF000B09096078091930790919407A81AB90A2A
:100E000082E389830E94E131982E80900304882D2B
:100E10000E94671BB7FC30C090928C070E944C3137
:100E200094E6E92E99E1F92EC50164E679E10E9484
:100E300062398B010F5F0093A007C50164E679E179
:100E40000E946239E81AF90AF092A507E092A40715
:100E50000E94293182E390E00E941B31B70180E0BB
:100E600090E00E946632892D800F0E94573184E6FF
:100E700090E00E941B3117C060916F10709170104C
:100E800081E290E00E946C370E944C310E9429312F
:100E9000662777276A197B0980E090E00E94663216
:100EA000892D0E9457310E945A310E94293182E3D4
:100EB00090E00E941B31882D0E94EC1BA7E7B0E058
:100EC000CA0EDB1ED601ED91FC9189E89FEFC80E9A
:100ED000D91E309721F4C6010E94620C07C061E060
:100EE000C601099503C00E94DB144CCF21960FB6B2
:100EF000F894DEBF0FBECDBFDF91CF911F910F9150
:100F0000FF90EF90DF90CF90BF90AF909F908F9029
:100F10000895AF92BF92CF92DF92EF920F931F93FB
:100F2000CF93DF93CDB7DEB721970FB6F894DEBF2E
:100F30000FBECDBF60919B0488E894E00E94D01959
:100F40000E94F31400910304802F0E94671B0E94EB
:100F5000E131898389818C5F898317C00E94E131E7
:100F60009981981790F4802F0E94EC1B0E94DB144B
:100F7000802F0E94671B802F0E94EC1B60916F10D6
:100F80007091701086E790E03DC00E948111882327
:100F900029F30E9431319093AC078093AB070E94F4
:100FA000E131898389818B5F898317C00E94E13198
:100FB0009981981790F488E792E09F938F930E940D
:100FC00099378091780490917904019690937904EF
:100FD000809378040F900F90D3C060E880E00E9467
:100FE0006612182F882311F3802F0E94EC1B0E9499
:100FF000DB14113009F4A7C060916F10709170106C
:1010000082E690E00E946C37809178049091790498
:1010100001969093790480937804B2C0809174040F
:10102000909175040196909375048093740412FF57
:1010300002C083E801C083E08093E0078093EC0660
:101040008CEE96E09093A6048093A50412FF1EC038
:1010500060916F10709170108BE490E00E946C377B
:101060008091AB079091AC072091990730919A0736
:10107000821B930B9093960780939507292F332714
:101080002093ED068093EE0684E001C082E0809319
:10109000A404802F0E94671B40919D0450919E04E0
:1010A0006091990770919A0726EA37E082EA94E006
:1010B0000E940917802F0E94EC1B80918D07909150
:1010C0008E07A816B90679F4E0918D04F0918E048C
:1010D00082816F01EE2400E020E040E0B501992715
:1010E0000E94D60D4DC0C5010E94E40A8823B1F0CC
:1010F00020918D0430918E0400E010E04AE050E031
:1011000060E070E0C5010E94940C1092FD06109200
:10111000FE061092FF061092000732C0BF92AF92F7
:1011200086EA92E09F938F930E9499371092FD0672
:101130001092FE061092FF06109200070F900F907B
:101140000F900F901DC080917604909177040196C6
:10115000909377048093760481E090E00E94E31EF0
:10116000E0918D04F0918E048381A82EBB24108120
:1011700080918B070E94442611230CF09ECF4ECF06
:1011800021960FB6F894DEBF0FBECDBFDF91CF9191
:101190001F910F91EF90DF90CF90BF90AF90089587
:1011A00080918B070E943C2580919B070E943C25E3
:1011B00021E030E040E050E0CA01B90100909B0717
:1011C00004C0660F771F881F991F0A94D2F70090FA
:1011D0008B0704C0220F331F441F551F0A94D2F7F8
:1011E000622B732B842B952B0E94962781E090E035
:1011F000089580939B040E94FA190895EF92FF923C
:101200000F931F93CF93DF93109277060E947C2A4F
:10121000809177068823D1F381E080937706E09070
:10122000F90300E010E08E2D0E94671B8E2D0E94B6
:10123000EC1B0E9429310E94313190939A078093D0
:10124000990780919D0790919E079093A90780939D
:10125000A80780919D0790919E078536910598F08B
:1012600080919D0790919E078456904090939E0791
:1012700080939D078091910790919207019690939A
:1012800092078093910720919D0730919E0780914E
:10129000AA07813059F5C90169E170E00E944E3911
:1012A000EC01E0919C07E00FE0939C07FF27EF70B3
:1012B000F070E153F84F80818093CE070E94F908C7
:1012C0008C2F0E94AD0DFC01892BF1F084818830B8
:1012D00029F46C2FCF010E94890716C08130A1F438
:1012E0006C2F7727CF010E9453050EC080917705A0
:1012F000823039F010927304109272040E94A0049C
:1013000001C081E08093AA072091E1073091E207B4
:101310008091DE029091DF022817390778F18091E1
:101320007705823059F11092AA071092E2071092C5
:10133000E10710929E0710929D0780916F05909192
:10134000700501969093700580936F0580917F04DE
:10135000882349F0E0917105E0939C07FF27E15352
:10136000F84F808104C010929C078091CF07809332
:10137000CE078091CE070E94F90853CF80919D0738
:1013800090919E070E94040B8C0180919D07909183
:101390009E07800F911F90939E0780939D0780E08A
:1013A00090E00E94001F1092940710929307C801CA
:1013B0000E94492A80E090E00E941D1F34CFFF92D6
:1013C0000F931F93F82E162F042F0E94B32480939F
:1013D0008B078F3F19F486E391E008C00E94B32485
:1013E00080939B078F3F79F48FE091E00E94CB1FA1
:1013F000E0914810F091491060858EE00E94AC2386
:101400008FEF90E070C010928E0410928D041092B5
:101410008C040E942531109292071092910784E665
:1014200090E090939E0780939D071092AA071092D8
:1014300072051092E2071092E107F092770510937F
:101440007F04812F992790938E0780938D070093B7
:1014500071051092FD061092FE061092FF06109282
:10146000000784E68093A10480E49FE19093A004A8
:1014700080939F0480EA9FE090939E0480939D0454
:101480008FE080939B0481E899E190939A04809384
:10149000990421E839E141E254E26FE088E894E000
:1014A0000E940D1A81E0809397071092A3071123E1
:1014B00041F000939C07E02FFF27E153F84F808114
:1014C00004C010929C078091CF078093CE07809133
:1014D000CE070E94F9081092700510926F050E94C5
:1014E000D10A81E090E01F910F91FF9008958091C3
:1014F0008B070E943C258091FD06882379F461E0EA
:1015000070E080E090E000908B0704C0660F771FCA
:10151000881F991F0A94D2F70E94962781E090E0D5
:101520000895FC01DB018091FD06882329F41082D7
:101530001C9280E090E0089580918B0480838091DC
:1015400090048C9380918D0490918E0408958093E3
:101550007A04089580917A049927089580917A04F5
:10156000823069F0833018F4813091F405C0833003
:1015700049F0843069F409C080EE92E00BC083E04A
:1015800093E008C089E293E005C085E593E002C0DE
:1015900085E793E09F938F930E9499370F900F9068
:1015A0000895E3EEF7E01082729688E0E739F807D5
:1015B000D1F7EFE9F8E0108271968AE0E834F80795
:1015C000D1F71092800F0895CF93DF939C01A3EE83
:1015D000B7E08C91882371F0ED018C81813051F45A
:1015E000E885F985818192818217930719F481E05A
:1015F00090E007C05296E8E0A739BE0751F780E0B7
:1016000090E0DF91CF9108952F923F924F925F9299
:101610006F927F928F929F92AF92BF92CF92DF9202
:10162000EF92FF920F931F93CF93DF93CDB7DEB767
:101630002E970FB6F894DEBF0FBECDBF69E170E004
:101640000E944E398983282F33273C872B878901B5
:101650000F5F1F4F21E030E040E050E060E070E0BD
:1016600080E090E00E948836222E332E442E552EA4
:10167000662E772E882E992E39813F5F3A8380918E
:1016800097088B83909198089C83E0919908ED834B
:10169000F0919A08FE8320919B082F8330919C083B
:1016A000388780919D08898790919E089A8737C0D6
:1016B0002B8122213C8133214D8144215E815521A2
:1016C0006F81662178857721898588219A8599217E
:1016D000E22FE32BE42BE52BE62BE72BE82BE92B82
:1016E00041F0EA818E2F99272B853C85821B930B35
:1016F00064C001E0222D332D442D552D662D772D0C
:10170000882D992D0E948836222E332E442E552E58
:10171000662E772E882E992E3A813F5F3A838A81F2
:10172000893130F22224239433244424552466241E
:101730007724882499241E861D86AD852B8122213D
:101740003C8133214D8144215E8155216F81662189
:1017500078857721898588219A859921E22FE32B45
:10176000E42BE52BE62BE72BE82BE92B49F089E16D
:1017700090E0EB85FC858E1B9F0B8A0F911D1DC091
:101780002D853E852F5F3F4F3E872D87398132174C
:10179000A0F001E0222D332D442D552D662D772DFF
:1017A000882D992D0E948836222E332E442E552EB8
:1017B000662E772E882E992EC0CF2E960FB6F894CF
:1017C000DEBF0FBECDBFDF91CF911F910F91FF9074
:1017D000EF90DF90CF90BF90AF909F908F907F90D1
:1017E0006F905F904F903F902F900895AF92BF926F
:1017F000CF92DF92EF92FF920F931F93CF93DF93DD
:101800005C01EDEBFAE088E4C82E8AE0D82E70E0A7
:1018100060E081818823D9F180818823C1F18581AD
:1018200096818A159B0599F5662351F47481E6012A
:10183000E384F484058516852781308541855285AA
:1018400064817617C8F0761709F587819085A185A0
:10185000B28582179307A407B50770F028173907D8
:101860004A075B0799F483859485A585B6858E150F
:101870009F05A007B10750F4E601E384F4840585D1
:1018800016852781308541855285762F61E084E871
:1018900090E0C80ED91EEC57FF4F9FE0E53EF907D8
:1018A00009F0B7CF662311F4C0E0D0E0CE01DF919C
:1018B000CF911F910F91FF90EF90DF90CF90BF904D
:1018C000AF900895FC01EA58FF4F10828091800F7D
:1018D00081508093800F0895282FE3EEF7E090E089
:1018E0008081882351F09F5F72969A30C9F781E01A
:1018F0000E94A70A8FEF9FEF0895892F9927880FDD
:10190000991FFC0133E0EE0FFF1F3A95E1F7E80F56
:10191000F91FED51F84F81E0808371876087448320
:10192000208B80E090E008950F931F93CF93DF9377
:10193000EC01D8018091800F8B3010F083E003C060
:10194000443730F084E00E94A70A8FEF9FEF4CC02D
:10195000EEEBFAE000E010E08081882369F584E88E
:1019600090E0F801E89F8001E99F100DF89F100DAD
:101970001124F801E85BF54F4083E758FF4F60837F
:10198000349781E0819380833496D183C0833397E9
:10199000B183A0835527B901C801875B954F0E9489
:1019A0000E37C8018C53954F0E94952D8091800F62
:1019B0008F5F8093800F0BC0802F8F5F0F5F1F4F53
:1019C000EC57FF4F0A30110539F68A3019F081E0E3
:1019D00090E00AC087E893E09F938F930E94993725
:1019E0008FEF9FEF0F900F90DF91CF911F910F918D
:1019F00008958F929F92AF920F931F93CF93DF938F
:101A0000CDB7DEB7CB01642F4A2DF40183830A855D
:101A10001B8594010E94940C992787FD9095DF9176
:101A2000CF911F910F91AF909F908F9008956F92DB
:101A30007F928F92AF92CF92EF920F931F93CF939B
:101A4000DF93CDB7DEB728970FB6F894DEBF0FBE91
:101A5000CDBF3C0109831A832B833C834D835E8376
:101A60006F837887EFE9F8E010E040E020E030E0B5
:101A7000818192816816790699F47F926F9289E943
:101A800093E09F938F930E94993781E1189FC00143
:101A900011248156974F0F900F900F900F904CC0CC
:101AA0008081882311F4122F41E02F5F3F4F719600
:101AB00029313105E9F6442331F482E00E94A70A76
:101AC00080E090E039C0812F9927DC0164E0AA0F03
:101AD000BB1F6A95E1F7A80FB91FA156B74FFD01CB
:101AE0007282618281E08C939D012D5F3F4F8981DD
:101AF00083838A81F90181838B8182838C818383B3
:101B00008D8184838E8185838F8186838885878379
:101B1000FD01E386C486AA2019F085858068858743
:101B2000FD0186868D8987878E89808B81E1189F4C
:101B3000C00111248156974F28960FB6F894DEBF46
:101B40000FBECDBFDF91CF911F910F91EF90CF903E
:101B5000AF908F907F906F900895482FE3EEF7E05D
:101B600020E030E08081882351F08089841739F4A7
:101B700082E1289FC00111248D51984F08952F5F55
:101B80003F4F72962A30310569F7842F99279F932A
:101B90008F9389EB93E09F938F930E94993780E016
:101BA00090E00F900F900F900F9008950E943804CE
:101BB00008958F929F92AF92CF92EF920F933F939F
:101BC0002F934A01A62ECC24EE2400E020E040E032
:101BD000BC0180E090E00E94F90C0F900F908F3FC5
:101BE00011F40E94AE0A0F91EF90CF90AF909F90AA
:101BF0008F9008956F927F928F929F92AF92BF9233
:101C0000CF92DF92EF92FF920F931F93982ECB010A
:101C1000742EA22E2EE3291548F48FED93E09F93A6
:101C20008F930E9499370F900F9064C028E042175D
:101C3000A1F01F921F928824CC24EE2400E010E033
:101C400020E030E040E050E060E070E00E94170DDE
:101C5000BC010F900F90892B31F0472D892D0E94E8
:101C60006C0C8F3F19F40E94AE0A44C0092D112755
:101C700021E030E040E050E060E070E080E090E0A3
:101C80000E948836A22EB32EC42ED52EE62EF72E15
:101C9000082F192FE0919708F0919808A0919908C2
:101CA000B0919A0890909B0880909C0870909D0835
:101CB00060909E082E2F2A293F2F3B294A2F4C291E
:101CC0005B2F5D29692D6E29782D7F29872D802B2B
:101CD000962D912B2093970830939808409399085C
:101CE00050939A0860939B0870939C0880939D087A
:101CF00090939E081F910F91FF90EF90DF90CF90EF
:101D0000BF90AF909F908F907F906F900895EAE77B
:101D1000F0E083E08083ACE7B0E080E48C938081E6
:101D20008068808310929B0F8C91807E8C939C9115
:101D30008C91807E892B8C93089588EC90E00E9492
:101D40001B31089580917A00806480937A0080919D
:101D50007A0084FFFCCF0E949D0E209178003327EB
:101D6000809179009927982F8827822B932B0895AB
:101D7000FF920F931F93CF93DF93CDB7DEB72297D8
:101D80000FB6F894DEBF0FBECDBF0E94F8108C01D5
:101D9000009711F00E944227159AFF248F2D806230
:101DA00099279A83898340988BE18EBD0DB407FEF5
:101DB000FDCF89819A81892F99278EBD0DB407FEA9
:101DC000FDCF89819A818EBD0DB407FEFDCF409A6B
:101DD00082E090E00E941B3140988BE58EBD0DB4EF
:101DE00007FEFDCF1EBC0DB407FEFDCF8EB59927B3
:101DF000982F88279A8389831EBC0DB407FEFDCFD8
:101E000089819A812EB53327282B392B3A83298350
:101E1000409A89819A8186FD05C0F3942FE1F216DC
:101E200009F0BCCF0115110519F0C8010E94F02579
:101E3000FF20C9F40E94A20E9A83898389819A8126
:101E40008F3A910530F089819A818E5A90409A8319
:101E5000898389819A818A54914098F48AE491E037
:101E60009A8389830EC02DE7F29E9001112488E2A7
:101E700093E2821B930B6BE170E00E9462397A83DC
:101E8000698389819A8122960FB6F894DEBF0FBECE
:101E9000CDBFDF91CF911F910F91FF900895CF9209
:101EA000DF92EF92FF920F931F93CF93DF93982FC0
:101EB000EA01122F823009F481C0833030F4882384
:101EC00071F0813009F0D2C010C0843009F481C0B3
:101ED000843008F477C0853009F0C8C02DC080E890
:101EE00080BB8F9A0E94870E6AC080919A0F8130C2
:101EF00009F4C3C090939A0F772760FF13C08F989F
:101F000010929B0F80917C00807E80937C0090914A
:101F10007C0080917C00807E892B80937C0088EE01
:101F200093E09FC061FDA9C062FDA7C0677070709B
:101F3000672B09F4A2C097C0822F8150823008F02D
:101F400099C090919B0F892F8150863018F40E9480
:101F5000A20E22C0992319F40E94B80E1DC097301A
:101F600051F5F1E0CF2EF4E0DF2EEE24FF2400E067
:101F70000E94A20E8C159D0508F46C01E816F90666
:101F800008F47C018DE790E00E941B310F5F003464
:101F900079F7C7018C199D09123031F48883892F94
:101FA0009927898381E008C0113029F49695879597
:101FB00096958795888380E08F5F09C08F9A1092ED
:101FC0009A0F51C0613009F058C080919B0F99273A
:101FD00056C0613009F051C02730D9F420939B0FCF
:101FE00080917C008F7780937C0080917C0080645E
:101FF00080937C0080917C00807E80937C00909117
:102000007C0080917C009360807E982B90937C0074
:1020100026C0283020F081E00E94E7222EC02093C5
:102020009B0F213049F480917C008F7780937C0056
:1020300080917C00806403C080917C00806C8093E0
:102040007C0080917C00807E80937C0090917C005D
:1020500080917C00807E892B812B80937C0088EC92
:1020600090E00E941B3181E090E009C060E08CE0CC
:102070000E94AC2380E090E002C08FEF90E0DF91FF
:10208000CF911F910F91FF90EF90DF90CF90089527
:1020900099279C01265A3E4B0B97880F991F880F52
:1020A000991F280F391FF894409888E18EBD0DB410
:1020B00007FEFDCF832F99278EBD0DB407FEFDCF00
:1020C0002EBD0DB407FEFDCF409A78940895F89484
:1020D00040981EBC0DB407FEFDCF8EB5409A789493
:1020E00086FFF5CF08958091B10F99270895CF937A
:1020F000DF93DC01409889EC8EBD0DB407FEFDCF67
:1021000080E88EBD0DB407FEFDCF92E09150FD0139
:10211000E90FF11D80818EBD0DB407FEFDCF99231F
:10212000A9F7409A40988BEC8EBD0DB407FEFDCF09
:1021300080E88EBD0DB407FEFDCF92E09D012E5FBD
:102140003F4FE9019150F901E90FF11D80818EBDEA
:102150000DB407FEFDCF9923A1F7409A8C9180938F
:10216000B20FFD0181818093B30F88818093B40FFA
:1021700083818093B50FDF91CF910895409889E1D5
:102180008EBD0DB407FEFDCF83E08EBD0DB407FEFE
:10219000FDCF86E08EBD0DB407FEFDCF409A40987E
:1021A0008AE18EBD0DB407FEFDCF8EE08EBD0DB46D
:1021B00007FEFDCF8EE08EBD0DB407FEFDCF409A29
:1021C00081E08093A20F0895409889E18EBD0DB4FF
:1021D00007FEFDCF81E08EBD0DB407FEFDCF84EC80
:1021E0008EBD0DB407FEFDCF409A1092A20F089548
:1021F0008091A00F9091A10F08952091A30F30918D
:10220000A40F38603093A40F2093A30F409881E16E
:102210008EBD0DB407FEFDCF832F99278EBD0DB463
:1022200007FEFDCF2EBD0DB407FEFDCF409A0895E9
:102230002091A30F3091A40F377F3093A40F2093E8
:10224000A30F409881E18EBD0DB407FEFDCF832F13
:1022500099278EBD0DB407FEFDCF2EBD0DB407FE30
:10226000FDCF409A089581E08093B00F2091A30F95
:102270003091A40F20613093A40F2093A30F4098B6
:1022800081E18EBD0DB407FEFDCF832F99278EBD52
:102290000DB407FEFDCF2EBD0DB407FEFDCF409A55
:1022A00008951092B00F2091A30F3091A40F2F7EAC
:1022B0003093A40F2093A30F409881E18EBD0DB4FD
:1022C00007FEFDCF832F99278EBD0DB407FEFDCFEE
:1022D0002EBD0DB407FEFDCF409A089589B1992710
:1022E00066E0969587956A95E1F7817090700895FC
:1022F0008CB1992787FD90958827990F881F99277A
:10230000089589B19927E6E096958795EA95E1F7D2
:102310008170907008958091B60F882319F480E041
:1023200090E008958091B60F1092B60F992787FD1F
:1023300090950895409888E08EBD0DB407FEFDCFBE
:10234000409A409888E08EBD0DB407FEFDCF409ABC
:1023500008958091A00F9091A10F0E94422740986C
:1023600086E08EBD0DB407FEFDCF409A8091A00F90
:102370009091A10F0E94F02508958091A00F909157
:10238000A10F0E944227409884E08EBD0DB407FE45
:10239000FDCF409A8091A00F9091A10F0E94F0254F
:1023A00008958091A00F9091A10F0E94422740981C
:1023B00086E08EBD0DB407FEFDCF409A409882E1C5
:1023C0008EBD0DB407FEFDCF85E08EBD0DB407FEBA
:1023D000FDCF1EBC0DB407FEFDCF409A40988EE2A3
:1023E0008EBD0DB407FEFDCF1EBC0DB407FEFDCFA4
:1023F0001EBC0DB407FEFDCF409A0E949A11809139
:10240000A00F9091A10F0E94F02508958091A00F38
:102410009091A10F0E944227409886E08EBD0DB496
:1024200007FEFDCF409A409882E18EBD0DB407FEB5
:10243000FDCF85E08EBD0DB407FEFDCF88E08EBDDB
:102440000DB407FEFDCF409A40988EE28EBD0DB4CC
:1024500007FEFDCF88E18EBD0DB407FEFDCF1EBC8B
:102460000DB407FEFDCF409A0E949A118091A00FF3
:102470009091A10F0E94F02508950F931F93082FAC
:102480008091A00F9091A10F0E944227112707FD74
:102490001095302F22272068409883E18EBD0DB41F
:1024A00007FEFDCF832F99278EBD0DB407FEFDCF0C
:1024B0002EBD0DB407FEFDCF409A8091A00F9091E4
:1024C000A10F0E94F0251F910F9108950F931F9364
:1024D000CF93DF93CDB7DEB724970FB6F894DEBF66
:1024E0000FBECDBF182F062F8091A00F9091A10F86
:1024F0000E944227679B4CC21092B10F679B25C078
:10250000319923C040988FE78EBD0DB407FEFDCFF3
:102510001EBC0DB407FEFDCF8EB5409A409888E0F2
:102520008EBD0DB407FEFDCF409A409888E08EBD69
:102530000DB407FEFDCF409A8091A00F9091A10F9E
:102540000E94F0258FEF9FEF2BC240988FE78EBD42
:102550000DB407FEFDCF1EBC0DB407FEFDCF4EB57A
:10256000409A4F7719F540988FE78EBD0DB407FE5E
:10257000FDCF1EBC0DB407FEFDCF8EB5409A40982E
:1025800088E08EBD0DB407FEFDCF409A409888E0EC
:102590008EBD0DB407FEFDCF409A8091A00F9091A3
:1025A000A10F0E94F0258EEF9FEFFAC145308CF00D
:1025B000E091A50FF091A60F242F332727FD30952A
:1025C0002B5030408481992787FD9095821793077F
:1025D000F4F540988FE78EBD0DB407FEFDCF60E0A7
:1025E00070E0242F332727FD309506C01EBC0DB4A4
:1025F00007FEFDCF6F5F7F4F862F992782179307C6
:1026000014F43199F3CF409A40988FE78EBD0DB402
:1026100007FEFDCF1EBC0DB407FEFDCF8EB5409A60
:10262000409888E08EBD0DB407FEFDCF409A4098DB
:1026300088E08EBD0DB407FEFDCF409A8091A00FBB
:102640009091A10F0E94F0258DEF9FEFA9C1E0911D
:10265000A50FF091A60F4C5043831123B1F0E091E8
:10266000A50FF091A60F8381992787FD9095202FC4
:1026700033278217930749F08091A00F9091A10F03
:102680000E94F0258AEF9FEF8BC140988FE78EBDA7
:102690000DB407FEFDCFFE0131969E012D5F3F4F29
:1026A0001EBC0DB407FEFDCF8EB58193E217F30774
:1026B000B9F7409AE091A50FF091A60F89819A8110
:1026C000B5E096958795BA95E1F781708783409834
:1026D0008FE78EBD0DB407FEFDCF1EBC0DB407FE07
:1026E000FDCFE091A50FF091A60F8EB58083409AA3
:1026F00040988FE78EBD0DB407FEFDCF80E007C088
:102700001EBC0DB407FEFDCF8F5F843011F03199F0
:10271000F7CF409A40988FE78EBD0DB407FEFDCFEE
:1027200020E030E01EBC0DB407FEFDCFE091A50F08
:10273000F091A60FE20FF31F8EB581832F5F3F4FFD
:102740002230310579F7409A89819A8183FF56C0FA
:1027500040988FE78EBD0DB407FEFDCFECE9FFE09A
:102760001EBC0DB407FEFDCF8EB581938FE0E03A1D
:10277000F807B1F7409A409889E98EBD0DB407FE7D
:10278000FDCF80E88EBD0DB407FEFDCF92E09150E5
:10279000E92FFF27E456F04F80818EBD0DB407FE70
:1027A000FDCF9923A1F7409A40988BE98EBD0DB4D7
:1027B00007FEFDCF80E88EBD0DB407FEFDCF92E091
:1027C0009150E92FFF27E256F04F80818EBD0DB466
:1027D00007FEFDCF9923A1F7409A40988CE08EBD6B
:1027E0000DB407FEFDCF409A81E08093B10FE091D8
:1027F000A50FF091A60F83818450838340988FE7C3
:102800008EBD0DB407FEFDCF40E050E011C01EBCF0
:102810000DB407FEFDCFE091A50FF091A60F058046
:10282000F681E02DE60FF11D8EB580834F5F5F4F7F
:10283000642FE091A50FF091A60F242F33278381F9
:10284000992787FD9095281739070CF3409A4098EF
:102850008FE78EBD0DB407FC0AC0FCCF0DB407FE98
:10286000FDCF5EB5409A40988FE78EBD02C01EBC7A
:10287000F5CF0DB407FEFDCFFE0133969E012B5F11
:102880003F4F1EBC0DB407FEFDCF8EB58193E217FE
:10289000F307B9F7409AE091A50FF091A60F8B814D
:1028A000808740E020E030E00AC0E091A50FF09181
:1028B000A60F85819681A80FB91F8C91480F822F92
:1028C000E091A50FF091A60F2F5F3F4FA82FBB27D8
:1028D0008381992787FD9095A817B90734F3451789
:1028E00019F140988FE78EBD0DB407FEFDCF1EBCD9
:1028F0000DB407FEFDCF8EB5409A409888E08EBD9E
:102900000DB407FEFDCF409A409888E08EBD0DB40F
:1029100007FEFDCF409A8091A00F9091A10F0E94D9
:10292000F0258CEF9FEF3CC08C8187FF0EC080911B
:10293000B60F8F5F8093B60F8091A00F9091A10F7B
:102940000E94F02581E090E02BC040988FE78EBD7B
:102950000DB407FEFDCF1EBC0DB407FEFDCF8EB536
:10296000409A409888E08EBD0DB407FEFDCF409A96
:10297000409888E08EBD0DB407FEFDCF409A80914F
:10298000A00F9091A10F0E94F0258BEF9FEF08C040
:102990008091A00F9091A10F0E94F02580E090E01F
:1029A00024960FB6F894DEBF0FBECDBFDF91CF9156
:1029B0001F910F9108958091A00F9091A10F0E94F7
:1029C00042271092AD0F409886E08EBD0DB407FEF1
:1029D000FDCF409A1092B60F8091A00F9091A10F59
:1029E0000E94F02508958091A00F9091A10F0E9460
:1029F000422781E08093AD0F409883E08EBD0DB4F7
:102A000007FEFDCF409A409888E08EBD0DB407FECA
:102A1000FDCF409A1092B60F8091A00F9091A10F18
:102A20000E94F02508958091A00F9091A10F0E941F
:102A3000422781E08093AD0F409883E08EBD0DB4B6
:102A400007FEFDCF409A409888E08EBD0DB407FE8A
:102A5000FDCF409A1092B60F8091A00F9091A10FD8
:102A60000E94F02508951F93182F8091A00F909138
:102A7000A10F0E944227212F33272F713070206E23
:102A8000306A409885E18EBD0DB407FEFDCF832FDF
:102A900099278EBD0DB407FEFDCF2EBD0DB407FEE8
:102AA000FDCF409A8091A00F9091A10F0E94F02538
:102AB0001F910895EF92FF920F931F93CF93DF938F
:102AC000CDB7DEB722970FB6F894DEBF0FBECDBFED
:102AD0008C018091A00F9091A10F0E9442275091EC
:102AE000A20F552339F040988DE08EBD0DB407FE3E
:102AF000FDCF409AF8014281642F772767FD7095DA
:102B0000A0E020E030E008C0F80183819481E80E65
:102B1000F91EF7018081A80F822F2F5F3F4FE82E0B
:102B2000FF24E616F70684F3942F945F51119C5FFF
:102B30006799FECF4E99FCCFF894409889E08EBDFE
:102B40000DB407FEFDCF409A409889E08EBD0DB4CC
:102B500007FEFDCF409A40988EE38EBD0DB407FC72
:102B600005C0FCCF0DB407FC30C1FCCF9EBDFACF31
:102B700081E698E89A838983552329F089819A818F
:102B800088609A83898340988EE38EBD0DB407FEDA
:102B9000FDCFFE0131969E012D5F3F4F80818EBD9E
:102BA0000DB407FEFDCF3196E217F307B9F7409A4F
:102BB00040988EE38EBD0DB407FC05C0FCCF0DB46C
:102BC00007FC0EC1FCCF8091A70F8EBDF8CF0DB4CE
:102BD00007FEFDCF20E030E0F901E755F04F80819E
:102BE0008EBD0DB407FEFDCF2F5F3F4F2230310564
:102BF00099F7409A40988EE38EBD0DB407FEFDCF45
:102C000020E030E0F801E20FF31F80818EBD0DB4AB
:102C100007FEFDCF2F5F3F4F2230310599F7409AD5
:102C200040988EE38EBD0DB407FEFDCF20E030E06E
:102C3000F901E555F04F80818EBD0DB407FEFDCF43
:102C40002F5F3F4F2230310599F7409A552399F075
:102C500040988EE38EBD0DB407FEFDCFE2EBFFE0A2
:102C600080818EBD0DB407FEFDCF31968FE0E63B2F
:102C7000F807B1F7409A40988EE38EBD0DB407FE79
:102C8000FDCF20E030E00DC0F80183819481480F32
:102C9000591FFA0180818EBD0DB407FEFDCF2F5F55
:102CA0003F4F422F55274617570774F3409A4098D5
:102CB0008EE38EBD0DB407FC05C0FCCF0DB407FC40
:102CC00094C0FCCFAEBDFACF8091AD0F882339F40C
:102CD000409883E08EBD0DB407FEFDCF409A40982A
:102CE0001EBC0DB407FEFDCF8EB5409A81FFF7CF15
:102CF00000E0409885E08EBD0DB407FEFDCF409A00
:102D000040981EBC0DB407FEFDCF1EB5409A0F5F64
:102D1000053651F478948091A00F9091A10F0E94F4
:102D2000F02580E090E068C084E690E00E942C20CE
:102D300013FD08C0DECF409884E08EBD0DB407FEC1
:102D4000FDCF409A78944E9BFECF4E99FECF809156
:102D5000B00F882391F084EA92E00E942C20319BEE
:102D60000EC040988FE78EBD0DB407FEFDCF1EBC90
:102D70000DB407FEFDCF8EB5409A11E00FC040980C
:102D800088E08EBD0DB407FEFDCF409A409888E0E4
:102D90008EBD0DB407FEFDCF409A10E0F894409828
:102DA00086E08EBD0DB407FEFDCF409A78948091E9
:102DB000A70F8F5F8093A70F8091A00F9091A10F15
:102DC0000E94F025812F992717C0409A81E498E846
:102DD0009A8389838091B00F882309F0C9CECCCE25
:102DE000409A40988EE38EBDF2CE409AF8018581DC
:102DF000882309F069CF9FCF22960FB6F894DEBFE3
:102E00000FBECDBFDF91CF911F910F91FF90EF903B
:102E100008958F929F92BF92CF92DF92EF92FF928E
:102E20000F931F93CF93DF93CDB7DEB722970FB6E3
:102E3000F894DEBF0FBECDBF8C016B017A01490152
:102E40008091A00F9091A10F0E9442270E94E13132
:102E5000409888E08EBD0DB407FEFDCF409A4098A3
:102E600088E08EBD0DB407FEFDCF409A6799FECF76
:102E70004E99FCCFF894409889E08EBD0DB407FEC2
:102E8000FDCF409A409889E08EBD0DB407FEFDCF7E
:102E9000409AF8016281462F552747FD5095BB2483
:102EA00020E030E007C0F80183819481A80FB91FAA
:102EB0008C91B80E822F2F5F3F4FA82FBB27A417EE
:102EC000B5078CF3962F945F40988EE38EBD0DB4BA
:102ED00007FC05C0FCCF0DB407FC18C1FCCF9EBD9C
:102EE000FACF81E698E89A83898340988EE38EBD75
:102EF0000DB407FEFDCFFE0131969E012D5F3F4FC1
:102F000080818EBD0DB407FEFDCF3196E217F30729
:102F1000B9F7409A40988EE38EBD0DB407FC05C00A
:102F2000FCCF0DB407FCFBC0FCCF8091A70F8EBD7A
:102F3000F8CF0DB407FEFDCF20E030E0F901E755F2
:102F4000F04F80818EBD0DB407FEFDCF2F5F3F4F48
:102F50002230310599F7409A40988EE38EBD0DB42A
:102F600007FEFDCF20E030E0F801E20FF31F808183
:102F70008EBD0DB407FEFDCF2F5F3F4F22303105D0
:102F800099F7409A40988EE38EBD0DB407FEFDCFB1
:102F900020E030E0F901E555F04F80818EBD0DB4A1
:102FA00007FEFDCF2F5F3F4F2230310599F7409A42
:102FB000B701C6010E946632F8018581882379F144
:102FC0008091AD0F882339F4409883E08EBD0DB415
:102FD00007FEFDCF409AEE24409885E08EBD0DB4EB
:102FE00007FEFDCF409A40981EBC0DB407FEFDCFF2
:102FF000FEB4409AE394F5E6EF1651F4789480918C
:10300000A00F9091A10F0E94F02580E090E08EC06B
:1030100084E690E00E942C20F3FC08C0DDCF4098AD
:1030200084E08EBD0DB407FEFDCF409A8091F80379
:103030000E94671B8091840090918500F401918328
:10304000808340988EE38EBD0DB407FEFDCFF8015E
:103050008281482F552747FD509520E030E00CC075
:10306000F80183819481A80FB91F8C918EBD0DB496
:1030700007FEFDCF2F5F3F4FA22FBB27A417B50739
:103080007CF3409A40988EE38EBD0DB407FC05C0DA
:10309000FCCF0DB407FC48C0FCCFBEBCFACF4E9BA2
:1030A000FECFF8944E99FECF409888E08EBD0DB4C7
:1030B00007FEFDCF409A409888E08EBD0DB407FE14
:1030C000FDCF409A409889E08EBD0DB407FEFDCF3C
:1030D000409A409889E08EBD0DB407FEFDCF409A1E
:1030E000409886E08EBD0DB407FEFDCF409A7894DF
:1030F0008091A70F8F5F8093A70F8091A00F909171
:10310000A10F0E94F02581E090E010C0409AF801E4
:103110008681882309F0E5CE81E498E8E4CE409AE0
:1031200040988EE38EBD05CF409AB9CF22960FB658
:10313000F894DEBF0FBECDBFDF91CF911F910F91ED
:10314000FF90EF90DF90CF90BF909F908F90089569
:10315000CF93DF93CDB7DEB722970FB6F894DEBFDB
:103160000FBECDBF9A8389839093AC0F8093AB0F32
:1031700084EF91E00E941B3140988AEE8EBD0DB421
:1031800007FEFDCF80E88EBD0DB407FEFDCFFE012A
:1031900031969E012D5F3F4F80818EBD0DB407FE9D
:1031A000FDCF3196E217F307B9F7409A84EF91E02B
:1031B0000E941B3122960FB6F894DEBF0FBECDBF22
:1031C000DF91CF9108956F927F928F929F92AF92ED
:1031D000BF92CF92DF92EF92FF920F931F93CF9304
:1031E000DF93CDB7DEB722970FB6F894DEBF0FBEE0
:1031F000CDBF8C0184E690E00E941B317801C12C88
:10320000B1E0DB2E3E010894611C711CA3E08A2E04
:10321000912C8C0E9D1EF7018081218133279927E7
:10322000982F8827282B392B3A83298384E690E02E
:103230000E941B3140988C2D80688EBD0DB407FE16
:10324000FDCFC60195958795807C8EBD0DB407FE98
:10325000FDCF83015301F50180818EBD0DB407FEC2
:10326000FDCF0894A11CB11CA814B904A1F7409A81
:103270000894E11CF11C82E090E0C80ED91E90E198
:10328000C91691E0D90639F684E690E00E941B3118
:1032900020E131E040E451E01A8219824098842F05
:1032A00080688EBD0DB407FEFDCFCA019595879548
:1032B000807C8EBD0DB407FEFDCFF80180818EBDF0
:1032C0000DB407FEFDCF3196EA15FB05B9F7409A1C
:1032D0004098822F80688EBD0DB407FEFDCFC901D6
:1032E00095958795807C8EBD0DB407FEFDCFF801C6
:1032F00080818EBD0DB407FEFDCF3196EA15FB052A
:10330000B9F7409A2E5F3F4F4E5F5F4FE1E02E319D
:103310003E0711F681E090E09A83898340988EEC15
:103320008EBD0DB407FEFDCF80E88EBD0DB407FE47
:10333000FDCFF80180818EBD0DB407FEFDCF319623
:10334000EA15FB05B9F7409A40988EE98EBD0DB499
:1033500007FEFDCF80E88EBD0DB407FEFDCFF8015E
:1033600080818EBD0DB407FEFDCF0F5F1F4F0A1584
:103370001B05A9F7409A22960FB6F894DEBF0FBE40
:10338000CDBFDF91CF911F910F91FF90EF90DF9014
:10339000CF90BF90AF909F908F907F906F90089547
:1033A0001F93CF93DF93EC01162F8091A00F909184
:1033B000A10F0E944227409888E08EBD0DB407FE01
:1033C000FDCF409A409888E08EBD0DB407FEFDCF3A
:1033D000409A812F0E944810D093A60FC093A50F4A
:1033E0008091A00F9091A10F0E94F025DF91CF91C5
:1033F0001F9108951F93182F8091A00F9091A10FF6
:103400000E944227812F0E9448108091A00F909126
:10341000A10F0E94F0251F910895DF92EF92FF9275
:103420000F931F93CF93DF93CDB7DEB722970FB6DD
:10343000F894DEBF0FBECDBF8C01D62E5A834983D0
:10344000790164E181E00E9475259093A10F80933A
:10345000A00F892B31F40E94BC28682F8FE00E94B6
:10346000AC238091A00F9091A10F0E9442278F3F23
:1034700021F48AE891E00E94CB1F159A88EE93E030
:103480000E942C20169881E090E00E942C20169A31
:1034900084E690E00E942C20F894409881E08EBD54
:1034A0000DB407FEFDCF409A82EE92E09093A40FF8
:1034B0008093A30F409881E18EBD0DB407FEFDCF30
:1034C00082E08EBD0DB407FEFDCF82EE8EBD0DB441
:1034D00007FEFDCF409A409882E18EBD0DB407FEF5
:1034E000FDCF85E08EBD0DB407FEFDCF1EBC0DB433
:1034F00007FEFDCF409A40988CE18EBD0DB407FECB
:10350000FDCF1EBC0DB407FEFDCF8FE78EBD0DB401
:1035100007FEFDCF409A409889E18EBD0DB407FEAD
:10352000FDCF81E08EBD0DB407FEFDCF84EC8EBDD6
:103530000DB407FEFDCF409A409887E18EBD0DB4D3
:1035400007FEFDCF8AE18EBD0DB407FEFDCF86E5F7
:103550008EBD0DB407FEFDCF409A84EF91E00E942E
:103560001B31409888EE8EBD0DB407FEFDCF80E87C
:103570008EBD0DB407FEFDCFFE0131969E012D5F7D
:103580003F4F80818EBD0DB407FEFDCF3196E2170F
:10359000F307B9F7409A84EF91E00E941B317894C9
:1035A0008D2D0E94481078941093A60F0093A50FBC
:1035B00089819A819093AA0F8093A90FF092AC0F02
:1035C000E092AB0F1092A70F1092AD0F0E94671000
:1035D0008091A00F9091A10F0E94F0258F3F39F4A8
:1035E0008DE591E00E94CB1F82E00E94E7221092BD
:1035F000B00F1092A20F1092B10F22960FB6F8944E
:10360000DEBF0FBECDBFDF91CF911F910F91FF9015
:10361000EF90DF9008952091C90F8091B70F281780
:1036200081F0E22FFF27E854F04FE081822F8F5F77
:103630008093C90F803111F41092C90F8E2F9927F2
:1036400008958091C80087FFFCCF8091C8008F77D4
:103650008093C8008091CE0099270895882351F463
:103660008091C000992787FD90958827990F881F22
:1036700099270895813019F080E090E0089520E0C6
:1036800030E09091C90F8091B70F981711F021E0A9
:1036900030E0C901089585B7806185BF86E084B9AF
:1036A00087E085B981E087B988B98CE38DB98BE073
:1036B0008AB98EE38EB988E781B980E482B908952A
:1036C0000E944B1B80E58CBD81E08DBD08958F3F2E
:1036D00009F47FC0482F55279A0127703070223097
:1036E0003105A9F12330310544F42115310589F064
:1036F0002130310509F06DC01CC02430310509F4BA
:1037000046C0243031059CF12530310509F061C0F7
:103710004EC022B1A3E056954795AA95E1F781E006
:1037200090E002C0880F991F4A95E2F7282B22B932
:103730004DC085B1F3E056954795FA95E1F702C083
:10374000220F331F4A95E2F7822B85B93FC028B17B
:10375000E3E056954795EA95E1F781E090E002C0F5
:10376000880F991F4A95E2F7282B28B92FC02BB153
:1037700073E0569547957A95E1F781E090E002C0B5
:10378000880F991F4A95E2F7282B2BB91FC02EB13D
:1037900063E0569547956A95E1F781E090E002C0B5
:1037A000880F991F4A95E2F7282B2EB90FC021B335
:1037B00033E0569547953A95E1F781E090E002C0F5
:1037C000880F991F4A95E2F7282B21BB81E090E0F2
:1037D00008958FEF9FEF08958F3F09F486C0482F1B
:1037E00055279A012770307022303105C1F12330FE
:1037F000310544F42115310589F02130310509F0F6
:1038000074C01DC02430310509F44BC0243031058B
:10381000BCF12530310509F068C054C022B173E015
:10382000569547957A95E1F781E090E002C0880FC0
:10383000991F4A95E2F78095822382B953C095B1CA
:1038400063E0569547956A95E1F702C0220F331F52
:103850004A95E2F7822F8095892385B943C028B124
:1038600033E0569547953A95E1F781E090E002C044
:10387000880F991F4A95E2F78095822388B932C054
:103880002BB193E0569547959A95E1F781E090E04A
:1038900002C0880F991F4A95E2F7809582238BB961
:1038A00021C02EB183E0569547958A95E1F781E0D6
:1038B00090E002C0880F991F4A95E2F78095822315
:1038C0008EB910C021B3B3E056954795BA95E1F78C
:1038D00081E090E002C0880F991F4A95E2F7809539
:1038E000822381BB81E090E008958FEF9FEF0895E0
:1038F0008F3FA9F1282F3327C9018770907082303C
:103900009105A9F0833091052CF4009761F001979F
:1039100031F50BC08430910571F0843091054CF085
:103920000597E9F40AC080B109C083B107C086B128
:1039300005C089B103C08CB101C08FB19927E3E004
:1039400036952795EA95E1F702C0959587952A95D2
:10395000E2F7992787FD90958170907008958FEF19
:103960009FEF08958F3F09F403C1282F3327A90142
:10397000477050704230510509F45CC04330510526
:1039800044F44115510591F04130510509F0F0C062
:1039900034C04430510509F49BC0443051050CF447
:1039A00070C04530510509F0E3C0B9C080B1A9012C
:1039B00073E0569547957A95E1F79927042E02C052
:1039C000959587950A94E2F780FD0BC022B181E0BE
:1039D00090E002C0880F991F4A95E2F7282B22B980
:1039E000C4C022B181E090E002C0880F991F4A95BF
:1039F000E2F78095822382B9B8C083B163E036953F
:103A000027956A95E1F79927022E02C0959587952B
:103A10000A94E2F702C0440F551F2A95E2F780FD91
:103A200003C085B1842B04C095B1842F8095892370
:103A300085B99BC086B1A90193E0569547959A95A3
:103A4000E1F79927042E02C0959587950A94E2F72D
:103A500080FD0BC028B181E090E002C0880F991F63
:103A60004A95E2F7282B28B980C028B181E090E080
:103A700002C0880F991F4A95E2F78095822388B982
:103A800074C089B1A901B3E056954795BA95E1F79D
:103A90009927042E02C0959587950A94E2F780FD38
:103AA0000BC02BB181E090E002C0880F991F4A95AE
:103AB000E2F7282B2BB959C02BB181E090E002C06E
:103AC000880F991F4A95E2F7809582238BB94DC0E4
:103AD0008CB1A901A3E056954795AA95E1F79927DE
:103AE000042E02C0959587950A94E2F780FD0BC0DD
:103AF0002EB181E090E002C0880F991F4A95E2F74D
:103B0000282B2EB932C02EB181E090E002C0880F80
:103B1000991F4A95E2F7809582238EB926C08FB10E
:103B2000A901F3E056954795FA95E1F79927042EF8
:103B300002C0959587950A94E2F780FD0BC021B3EA
:103B400081E090E002C0880F991F4A95E2F7282B88
:103B500021BB0BC021B381E090E002C0880F991F08
:103B60004A95E2F78095822381BB81E090E0089539
:103B70008FEF9FEF08958F3F09F412C1482F55270B
:103B8000662309F090C0CA01877090708230910559
:103B900009F43EC0833091053CF4009789F08130F0
:103BA000910509F0FDC021C08430910509F454C08D
:103BB000843091050CF43EC0059709F0F1C05EC059
:103BC00031B1B3E056954795BA95E1F781E090E0C1
:103BD00002C0880F991F4A95E2F7282F20952323CA
:103BE00021B922B1822B82B9D8C024B1A3E0569565
:103BF0004795AA95E1F702C0880F991F4A95E2F709
:103C0000982F8095822384B985B1982B95B9C5C02A
:103C100037B1F3E056954795FA95E1F781E090E0EA
:103C200002C0880F991F4A95E2F7282F2095232379
:103C300027B935C03AB1E3E056954795EA95E1F7E3
:103C400081E090E002C0880F991F4A95E2F7282F83
:103C5000209523232AB923C03DB173E0569547959B
:103C60007A95E1F781E090E002C0880F991F4A95AC
:103C7000E2F7282F209523232DB911C030B363E03C
:103C8000569547956A95E1F781E090E002C0880F6C
:103C9000991F4A95E2F7282F2095232320BB25B1B1
:103CA000822B85B97AC09A01277030702230310595
:103CB000A9F12330310544F42115310589F0213073
:103CC000310509F06DC01CC02430310509F446C02F
:103CD000243031059CF12530310509F061C04EC01A
:103CE00021B133E0569547953A95E1F781E090E0B0
:103CF00002C0880F991F4A95E2F7282B21B94DC0C1
:103D000084B193E0569547959A95E1F702C0220F4A
:103D1000331F4A95E2F7822B84B93FC027B1B3E045
:103D200056954795BA95E1F781E090E002C0880F7B
:103D3000991F4A95E2F7282B27B92FC02AB1A3E093
:103D400056954795AA95E1F781E090E002C0880F6B
:103D5000991F4A95E2F7282B2AB91FC02DB1F3E02D
:103D600056954795FA95E1F781E090E002C0880FFB
:103D7000991F4A95E2F7282B2DB90FC020B3E3E035
:103D800056954795EA95E1F781E090E002C0880FEB
:103D9000991F4A95E2F7282B20BB81E090E0089517
:103DA0008FEF9FEF0895882319F08FEF9FEF08950D
:103DB00080B1992787FD9095809590958827990FD8
:103DC000881F99270895009711F484E109C0813074
:103DD000910511F48CE104C08230910531F484E244
:103DE0000E94B21C81E090E00895039719F08FEFD4
:103DF0009FEF08958CE20E94B21C81E090E008954C
:103E0000009711F484E109C08130910511F48CE12F
:103E100004C08230910531F484E20E94671B81E086
:103E200090E00895039719F08FEF9FEF08958CE2CB
:103E30000E94671B81E090E00895009711F484E1EF
:103E400009C08130910511F48CE104C082309105E4
:103E500031F484E20E94EC1B81E090E00895039726
:103E600019F08FEF9FEF08958CE20E94EC1B81E028
:103E700090E00895882319F085B78F7E02C085B73A
:103E8000806185BF81E090E00895982F8091C00007
:103E900085FFFCCF8091C0008F7D8093C000909300
:103EA000C6000895982F8091C80085FFFCCF90939D
:103EB000CE000895292F33272093C5008093C40096
:103EC00086E08093C200E1ECF0E080818B7F80830C
:103ED000A0ECB0E08C9182608C93808188618083BB
:103EE0000895292F33272093CD008093CC0086E0BE
:103EF0008093CA00E9ECF0E080818B7F8083A8EC9E
:103F0000B0E08C9182608C93808188618083089579
:103F10008091C00087FFFCCF8091C0008F77809395
:103F2000C0008091C600992708950E94711F6BE020
:103F30007BE182E59FE10E941E3790937010809391
:103F40006F106BE07BE182E59FE10E941E3790934A
:103F50006E1080936D100E94B3248093C80F8F3F22
:103F600019F48EE00E94B3231092C90F1092B70F7C
:103F70008091C90080688093C90008958091C80F1E
:103F80008F3F19F48EE00E94B3238091C80F9927C8
:103F900087FD90950895CF93DF93EC0107C0609162
:103FA0006F107091701099270E946C37FE01219656
:103FB00084918823A1F7DF91CF9108951F920F92EA
:103FC0000FB60F9211242F933F934F935F936F93EC
:103FD0007F938F939F93AF93BF93EF93FF938091C2
:103FE000C9008F778093C9008091C80087FFFCCFFC
:103FF0008091C8008F778093C8009091CE00809107
:10400000B70FE82FFF27E854F04F90838F5F80931E
:10401000B70F803111F41092B70F8091C80F0E9432
:1040200044268091C8008F778093C8008091C90092
:1040300080688093C900FF91EF91BF91AF919F91EC
:104040008F917F916F915F914F913F912F910F9041
:104050000FBE0F901F901895000000000000000098
:104060000197D1F70895FC01A7E0B0E00E94CE3996
:10407000802D808381E090E00895FC018081A7E09D
:10408000B0E0082E0E94D63981E090E00895DC016E
:104090000E94CE39802D99270895FC01A0E0B0E060
:1040A0000E94CE39402D4383A1E0B0E00E94CE397A
:1040B000802D8283A2E0B0E00E94CE39302D318382
:1040C000A3E0B0E00E94CE39902D9083A4E0B0E050
:1040D0000E94CE39202D830F840F890F281719F4E1
:1040E00081E090E008958FEF9FEF0895FC01A5E037
:1040F000B0E00E94CE39802D808381E090E0089569
:10410000FC01A6E0B0E00E94CE39802D808381E0E2
:1041100090E00895AC0120E030E0D90118960E94AB
:10412000CE39802DFA01E20FF31F80832F5F3F4FBE
:104130002031310591F781E090E00895DC01062EF1
:104140000E94D6390895FC018081A6E0B0E0082ED7
:104150000E94D63981E090E00895AC0120E030E083
:10416000D9011896FA01E20FF31F8081082E0E94F0
:10417000D6392F5F3F4F2031310591F781E090E034
:104180000895F89408957894089585E690E0089548
:104190000E940A2E0895EF92FF920F931F93CF93E0
:1041A000DF93EC018B017A018985823021F08091C7
:1041B0003710888301C0188280913710833020F037
:1041C00060E087E00E94AC238985823029F08091ED
:1041D00037108F5F8093371080913710882319F440
:1041E00081E0809337108881992787FD9095FC01A5
:1041F00045E0EE0FFF1F4A95E1F7E80FF91FE45382
:10420000F04F118300838881992787FD9095FC01E9
:1042100035E0EE0FFF1F3A95E1F7E80FF91FE45381
:10422000F04F888582878881992787FD9095FC01CA
:1042300025E0EE0FFF1F2A95E1F7E80FF91FE45381
:10424000F04F83E081872881822F992787FD909501
:10425000FC0105E0EE0FFF1F0A95E1F7E80FF91FDB
:10426000E453F04F20878881992787FD9095FC01C2
:1042700015E0EE0FFF1F1A95E1F7E80FF91FE45361
:10428000F04F15820881112707FD10952B853C857D
:104290004D855E856F85788989899A890E942F2C42
:1042A000F801B5E0EE0FFF1FBA95E1F7E00FF11F3F
:1042B000E453F04F948F838F0881112707FD1095E9
:1042C0002B8D3C8D4D8D5E8D6F8D78A189A19AA12E
:1042D0000E942F2CF801A5E0EE0FFF1FAA95E1F731
:1042E000E00FF11FE453F04F968B858B888199275F
:1042F00087FD9095FC0175E0EE0FFF1F7A95E1F7C1
:10430000E80FF91FE453F04F85899689238D348D8A
:10431000820F931F908F878B0881112707FD1095BF
:104320002B893C894D895E896F89788D898D9A8D1D
:104330000E942F2CF80165E0EE0FFF1F6A95E1F750
:10434000E00FF11FE453F04F968F858F88819927F6
:1043500087FD9095FC0155E0EE0FFF1F5A95E1F7A0
:10436000E80FF91FE453F04F858D968D928F818F62
:104370008881992787FD9095FC0145E0EE0FFF1F8E
:104380004A95E1F7E80FF91FE453F04F81E090E020
:1043900090A3878F8881992787FD9095FC0135E050
:1043A000EE0FFF1F3A95E1F7E80FF91FE453F04FC6
:1043B000F382E2828881992787FD9095FC0125E0B0
:1043C000EE0FFF1F2A95E1F7E80FF91FE453F04FB6
:1043D00081E0848781E090E0DF91CF911F910F9180
:1043E000FF90EF9008958F929F92AF92BF92CF92DD
:1043F000DF92EF92FF920F931F93CF93DF9364EDC1
:10440000A62E6FE0B62ECC24DD244501EC2CF50160
:10441000F080FFEFFF1691F0E40100E010E0E016FD
:1044200039F08881F81621F46F2D85E00E94AC23C5
:104430000F5F1F4FA1960330110589F70894C11C27
:10444000D11C81E290E0A80EB91E93E0C916D104F8
:10445000E9F60E94D127282F332727FD3095F9014F
:1044600055E0EE0FFF1F5A95E1F7E20FF31FE453FB
:10447000F04F328530934A1021E28202C0011124AC
:104480008453904F909349108093481090933A1022
:104490008093391030933B100E9409350E94EF340D
:1044A0000E942D35FFCF0F931F93CF93DF93CDB78E
:1044B000DEB7A3970FB6F894DEBF0FBECDBF0E9444
:1044C000B324809338108F3F21F460E08EE00E9487
:1044D000AC230E946034882321F460E086E00E94CF
:1044E000AC2310923B101092491010924810109279
:1044F0003A101092391010924A10109247108FEF14
:104500008093311080933310809332108093341055
:10451000809336108093351093E69093D60F809356
:10452000D40F9093F70F8093F50F9093181080930A
:104530001610EBE4F0E1CF01059694838383F783B3
:10454000E683FC0120E18A359207A9F710924D100D
:1045500010924C1010925E1010925D1010923E104E
:1045600010923D100F979093CB0F8093CA0F60EF7E
:104570007DE28E010F5F1F4FC8010E94AD3440E8FD
:1045800050E06BE077E0C8010E940E3585E580932E
:104590000B0719861C8E1D8E1E8E1F8E18A219A247
:1045A0001AA21BA291E0988782E08A879B87C801A4
:1045B0000E94BA2AA3960FB6F894DEBF0FBECDBFF5
:1045C000DF91CF911F910F910895F894FFCFE09163
:1045D0004810F091491084870895E0914810F091B7
:1045E0004910848599270895DC01FB018091FC0620
:1045F000882319F480E090E00895808380919804E6
:104600008C9381E090E008951F938091FC068823AD
:1046100009F49EC00E94C1200E94C12082E793E05D
:104620000E94CB1F8091980499279F938F9389E1D3
:1046300094E09F938F930E9499378EE693E00E94B7
:10464000CB1F0F900F900F900F908091FC0684313C
:1046500010F01092FC068091FC069927AA27BB2730
:10466000FC013197E231F105F0F5EA59FF4FEE0F09
:10467000FF1F0590F491E02D099487E493E035C085
:1046800083E393E032C08DE193E02FC082E093E0BA
:104690002CC08CEE92E029C084ED92E026C081EC23
:1046A00092E023C08EEA92E020C080E992E01DC033
:1046B0008BE692E01AC08FE592E017C084E492E0A6
:1046C00014C085E392E011C084E292E00EC080E164
:1046D00092E00BC080EF91E008C088ED91E005C04A
:1046E0008DEB91E002C086EB91E00E94CB1F6091C0
:1046F0006F10709170108DE090E00E946C376091A7
:104700006F10709170108AE090E00E946C3782E028
:1047100090E00E941D1F83E090E00E94001F10E0C7
:1047200088EE93E00E941B311F5F1436C9F783E0C7
:1047300090E00E941D1F82E090E00E94001F10E0A8
:1047400088EE93E00E941B311F5F1436C9F7DFCF5C
:1047500080E090E01F9108958093FC066093980498
:104760000E94042308958093FC06E0914810F09184
:1047700049108085809398040E9404230895992706
:1047800087FD9095FC0125E0EE0FFF1F2A95E1F7CC
:10479000E80FF91FE453F04FA281B3818C91853566
:1047A00029F085E58C938FEF9FEF089580819181AB
:1047B0008050924218F481E090E0089582E10E94D6
:1047C000B3238FEF9FEF08956F927F928F929F9206
:1047D000AF92BF92CF92DF92EF92FF920F931F930F
:1047E000CF93DF938EE793E00E94CB1FE0914810B8
:1047F000F09149108085992787FD90959F938F931D
:104800008CE194E09F938F930E949937E091481038
:10481000F0914910028113811F930F9385E294E078
:104820009F938F930E949937F801808199279F93D6
:104830008F9352E3C52E54E0D52EDF92CF920E9483
:104840009937E0914810F0914910808191819F93B0
:104850008F934FE3E42E44E0F42EFF92EF920E94F8
:10486000993780914810909149109F938F9309E454
:1048700014E01F930F930E949937CCECDFE0AA2439
:10488000BB248DB79EB744960FB6F8949EBF0FBE5B
:104890008DBF39E5632E34E0732E46016701780140
:1048A0000A811B811F930F93BF92AF927F926F92E9
:1048B0000E949937F801808199279F938F939F9247
:1048C0008F920E949937888199819F938F93DF926D
:1048D000CF920E949937DF93CF93FF92EF920E947D
:1048E00099370894A11CB11CA1968DB79EB742962A
:1048F0000FB6F8949EBF0FBE8DBF93E0A916B1040A
:1049000079F6DF91CF911F910F91FF90EF90DF909B
:10491000CF90BF90AF909F908F907F906F900895B1
:10492000CF93DF93E0914810F0914910C281D38179
:104930008881853539F00E94E42381E00E94B32309
:1049400085E58883E0914810F0914910808191813C
:104950008050924228F00E94E42382E10E94B32317
:10496000DF91CF9108954091730550917405609146
:1049700075057091760520E030E0DB01CA01022E5A
:1049800004C0B695A795979587950A94D2F781703C
:104990009070892BE9F481E090E0A0E0B0E0022E75
:1049A00004C0880F991FAA1FBB1F0A94D2F7842B3B
:1049B000952BA62BB72B8093730590937405A0932A
:1049C0007505B0937605822F992787FD90950895F8
:1049D0002F5F3F4F2032310581F68FEF9FEF089513
:1049E000E0914810F091491065857685878590891A
:1049F0000895EF92FF920F931F9321E030E040E083
:104A000050E004C0220F331F441F551F8A95D2F770
:104A1000E0914810F0914910E584F68407851089EB
:104A2000DA01C9018E219F21A023B1230097A1059E
:104A3000B10519F48FEF9FEF1AC02095309540957E
:104A40005095E222F32204231523E586F686078794
:104A5000108B81899289A389B48982239323A4230B
:104A6000B523818B928BA38BB48B81E090E01F9157
:104A70000F91FF90EF900895682F772767FD70954D
:104A80008091730590917405A0917505B09176059C
:104A9000062E04C0B695A795979587950A94D2F7E8
:104AA00081709070892B19F48FEF9FEF0895E0913A
:104AB0004810F091491021E030E040E050E004C09F
:104AC000220F331F441F551F6A95D2F7858596859F
:104AD000A785B089822B932BA42BB52B858796872E
:104AE000A787B08B81E090E00895382F8091471020
:104AF000882319F080E090E00895809131108F3F75
:104B000011F420E007C0809134108F3F11F022E0B3
:104B100001C021E0822F9927FC01EE0FFF1FE80F53
:104B2000F91FEF5CFF4E32833083618381E0809315
:104B3000471083E0289FC00111248F5C9F4E089589
:104B400020E18133920711F480E007C08453904143
:104B500019F08FEF9FEF089581E0992787FD9095D9
:104B600008950E94A0258F3F11F481E002C0823099
:104B700029F40E94E7228FEF9FEF0895992787FD80
:104B80009095FC01EE0FFF1FE80FF91FEF5CFF4E41
:104B90008FEF80838283818380914710815080933F
:104BA000471081E090E008950E94A0258F3F11F406
:104BB00081E002C0823029F40E94E7228FEF9FEF4C
:104BC0000895992787FD9095FC01EE0FFF1FE80FD0
:104BD000F91FEF5CFF4E8281992787FD909508951C
:104BE0001F93CF93DF930E94A025182F8F3F11F4BE
:104BF00081E003C0823031F482E00E94E7228FEF2F
:104C00009FEF3EC0992787FD9095EC01CC0FDD1FEB
:104C1000C80FD91FCF5CDF4E9A818881981774F531
:104C20000E94C1208A818F5F8A83E0914810F091B1
:104C300049101482E3EDFFE0212F332727FD309543
:104C4000432F532F8081823091F482859385A485F0
:104C5000B58582179307A407B50749F483E08283DB
:104C60001786168610821286138614861586B196CC
:104C700080E1E633F80731F70E94C32081E090E03D
:104C8000DF91CF911F910895DF92EF92FF920F93E2
:104C90001F93E1E0EE2EF12C012D112D04C0EE0C3E
:104CA000FF1C001F111F8A95D2F780917305909108
:104CB0007405A0917505B09176058E219F21A023E2
:104CC000B1230097A105B10511F481E043C00E9412
:104CD000C120E3EDFFE0DD2480818130B9F48285DD
:104CE0009385A485B5858E219F21A023B1230097AC
:104CF000A105B10559F083E08283178616861082DC
:104D0000E286F38604871587DD24D3948081823080
:104D1000A1F482859385A485B5858E159F05A0078E
:104D2000B10759F483E082831786168610821286B3
:104D3000138614861586DD24D394B19680E1E6337C
:104D4000F80751F60E94C320DD2019F081E090E0C1
:104D500005C082E00E94E7228FEF9FEF1F910F9125
:104D6000FF90EF90DF900895EF92FF920F931F93C3
:104D7000CF93DF93C82FDD27C7FDD095F1E0EF2E4D
:104D8000F12C012D112D0C2E04C0EE0CFF1C001F68
:104D9000111F0A94D2F78091730590917405A09128
:104DA0007505B09176058E219F21A023B123009730
:104DB000A105B10519F48FEF9FEF5DC00E94C120DE
:104DC000ECECFFE0A80197012095309540955095B7
:104DD00080858F3F41F185859685A785B0898E15A1
:104DE0009F05A007B10739F4118A128A138A148A21
:104DF000178283E0818785859685A785B089822380
:104E00009323A423B52385879687A787B08B8189B1
:104E10009289A389B48982239323A423B523818B08
:104E2000928BA38BB48BB19680E1EF32F80781F6B9
:104E30002EEF3FEF4FEF5FEF04C0220F331F441FF1
:104E4000551FCA95D2F78091730590917405A09172
:104E50007505B091760582239323A423B52380930F
:104E6000730590937405A0937505B09376050E9421
:104E7000C32081E090E0DF91CF911F910F91FF90CF
:104E8000EF9008951F93CF93DF930E94A025182FD2
:104E90008F3F11F481E003C0823031F482E00E9440
:104EA000E7228FEF9FEF3EC00E94C120812F9927FC
:104EB00087FD9095EC01CC0FDD1FC80FD91FCF5C8B
:104EC000DF4E8A818823D9F4E0914810F09149108F
:104ED000878182608783E0914810F0914910812F8B
:104EE000992787FD9095A92FB92F818B928BA38B42
:104EF000B48B0E94C32080E090E00E94E7298A8161
:104F000081508A83E0914810F0914910898183870C
:104F1000E0914810F091491081E084830E94C32001
:104F200081E090E0DF91CF911F9108959B01AC014A
:104F3000E0914810F091491085859685A785B08944
:104F400082239323A423B5230097A105B10529F457
:104F500060E070E080E090E00895218B328B438B1D
:104F6000548B81E087830090381004C05695479594
:104F7000379527950A94D2F7C90181709070892BD3
:104F800019F00E94822904C080E090E00E94E72985
:104F9000E0914810F0914910618972898389948960
:104FA0000895E0913D10F0913E1080819927089579
:104FB000E0913D10F0913E1003C00380F481E02D9C
:104FC0003097D9F70895CF93DF93482FC091CA0F38
:104FD000D091CB0F209709F47AC0A0913D10B091E9
:104FE0003E101097B9F1992787FD90959C0165E0D7
:104FF000220F331F6A95E1F7280F391F2453304FD2
:105000008C919927BC0155E0660F771F5A95E1F7FF
:10501000680F791F6453704FFB018481882329F046
:105020009385F90182859817A8F0F9018481882376
:1050300031F0FB019285F9018385981758F0FB0147
:105040009285F9018285981728F0FD01A381B4812A
:105050001097B1F64883E091CA0FF091CB0F2381EE
:1050600034813093CB0F2093CA0F80913D109091E3
:105070003E10A817B907A1F4109731F0BC83AB8399
:105080001A821982FD0105C01C821B821A821982B4
:10509000F901D283C183D0933E10C0933D1017C055
:1050A000FD0181819281A217B30751F09A83898310
:1050B000BC83AB8381819281FC01D483C38304C010
:1050C0001C821B829A838983FD01D283C183DF9175
:1050D000CF910895CF93DF93A0913D10B0913E10F2
:1050E000109709F446C0482F552747FD50958C91DD
:1050F00099278417950769F4ED01EB81FC81F09302
:105100003E10E0933D101282118216C0D901232B6C
:1051100081F18C919927FD012381348184179507B2
:10512000A9F7C181D2813C832B838381948100972D
:1051300019F0FC01D283C183E091CA0FF091CB0F2B
:10514000309741F4B093CB0FA093CA0FED011C82AE
:105150001B8209C0ED01FC83EB83B283A183B09372
:10516000CB0FA093CA0FE091CA0FF091CB0F128220
:105170001182DF91CF910895E0914810F09149108C
:105180008085992708950E94A234E0914810F091FB
:10519000491085818823B9F70895FF920F931F93D3
:1051A000CF93DF93CDB7DEB728970FB6F894DEBF65
:1051B0000FBECDBF29833A834B835C836D837E838F
:1051C0008F8398870E9490240E94C120E09148100C
:1051D000F091491081E0858381E090E090A3878F72
:1051E0000E94E131F82E29813A814B815C816D81E9
:1051F0007E818F8198850E942F2CE0914810F0913C
:1052000049100F2D1127800F911F968B858B87EFEB
:105210008F1570F00E946D310E5F1F4F9927801718
:10522000910734F08F2D8E5F8093DF070E947231DB
:105230000E94C3200E94C32881E090E028960FB608
:10524000F894DEBF0FBECDBFDF91CF911F910F91BC
:10525000FF9008958F929F92AF92BF92CF92DF926C
:10526000EF92FF920F931F93CF93DF93CDB7DEB7EB
:1052700060970FB6F894DEBF0FBECDBF29873A877F
:105280004B875C876D877E878F87988BCE010196D1
:105290000E94952D89809A80AB80BC80CD80DE8075
:1052A000EF80F88409851A852B853C854D855E85C0
:1052B0006F857889CE0109960E94102B882319F4F6
:1052C0008FEF9FEF0CC029853A854B855C856D85F6
:1052D0007E858F8598890E94CD2881E090E0609638
:1052E0000FB6F894DEBF0FBECDBFDF91CF911F91F7
:1052F0000F91FF90EF90DF90CF90BF90AF909F9075
:105300008F9008951F930E94C120E0914810F09162
:10531000491081E0858386830E94E131182F883F00
:1053200080F40E946D31212F33272E5F3F4F992744
:105330008217930734F0812F8E5F8093DF070E94DE
:1053400072310E94C3200E94C32881E090E01F9127
:1053500008951F93CF93DF93CDB7DEB728970FB68D
:10536000F894DEBF0FBECDBF29833A834B835C83A5
:105370006D837E838F8398870E94C1200E94E131D4
:10538000182F29813A814B815C816D817E818F81CB
:1053900098850E942F2C8330910518F48FEF9FEF92
:1053A0000CC0E0914810F0914910810F911D968B2F
:1053B000858B0E94C32081E090E028960FB6F89478
:1053C000DEBF0FBECDBFDF91CF911F9108950F9328
:1053D0001F938C010E94C120E0914810F091491068
:1053E00081E08583168B058B0E94E131082F883F71
:1053F00080F40E946D31202F33272E5F3F4F992775
:105400008217930734F0802F8E5F8093DF070E940E
:1054100072310E94C3200E94C32881E090E01F9156
:105420000F910895FF920F931F93CF93DF938C01F9
:105430000E94C120E0914810F091491081E08583DD
:105440000E94E131F82EE0914810F0914910C82FE8
:10545000DD270C0F1D1F168B058B87EF8F1568F04E
:105460000E946D31229699278C179D0734F08F2D5D
:105470008E5F8093DF070E9472310E94C3200E94DA
:10548000C32881E090E0DF91CF911F910F91FF90B1
:1054900008951F93CF93DF93EC010E9490242097EF
:1054A00011F4C1E0D0E00E94C120E0914810F091D9
:1054B000491081E08583D0A3C78F0E94E131182F66
:1054C000883F80F40E946D31212F33272E5F3F4F9C
:1054D00099278217930734F0812F8E5F8093DF071F
:1054E0000E9472310E94C3200E94C32881E090E094
:1054F000DF91CF911F9108951F930E9490240E94E5
:10550000C120E0914810F091491081E090E090A313
:10551000878F81E085830E94E131182F883F80F4D6
:105520000E946D31212F33272E5F3F4F992782171D
:10553000930734F0812F8E5F8093DF070E947231D2
:105540000E94C3200E94C32881E090E01F9108952B
:10555000E0914810F091491080850E946A28E091FE
:105560004810F091491084E081870E947C2A81E0F4
:1055700090E00895EF92FF920F931F93CF93DF93E4
:10558000EC014B815C8169817A818D819E810E94D1
:10559000B134BC018F81882369F04B815C81EE249A
:1055A000FF2400E010E020E030E0CE010E94CB209C
:1055B0001F8216C08881992787FD9095FC01A5E080
:1055C000EE0FFF1FAA95E1F7E80FF91FE453F04F24
:1055D0008185833019F08FEF9FEF1BC0718360834B
:1055E0008881992787FD9095FC0175E0EE0FFF1FDC
:1055F0007A95E1F7E80FF91FE453F04F8589968912
:10560000892B29F482E0818788810E94E32781E049
:1056100090E0DF91CF911F910F91FF90EF9008954F
:105620008F929F92AF92BF92CF92DF92EF92FF92B2
:105630000F931F93CF93DF93CDB7DEB760970FB66D
:10564000F894DEBF0FBECDBFFC0109831A832B8304
:105650003C834D835E836F83788789869A86AB8689
:10566000BC86CD86DE86EF86F88A2D813E814F810D
:10567000588589819A81AB81BC81AD84BE84CF84F9
:10568000D888E984FA840B851C858E159F05A007B0
:10569000B10708F43FC0E816F9060A071B0791F4A2
:1056A0002A153B054C055D05A8F12A193B094C0953
:1056B0005D092483358346835783108211821282C9
:1056C00013821CC02A153B054C055D05D0F40197DB
:1056D000A109B1098E199F09A00BB10B8083918399
:1056E000A283B383205036434546544C2A193B09C4
:1056F0004C095D09248335834683578381E090E01C
:105700000BC08E199F09A00BB10B80839183A283DC
:10571000B383ECCF80E090E060960FB6F894DEBFE4
:105720000FBECDBFDF91CF911F910F91FF90EF90F2
:10573000DF90CF90BF90AF909F908F900895FC0125
:1057400013C080509A4CAA49BB4384839583A68397
:10575000B78380819181A281B3810196A11DB11D82
:1057600080839183A283B38384819581A681B7814D
:1057700080302AEC92072AE9A2072BE3B20708F748
:1057800008958F929F92AF92BF92CF92DF92EF9245
:10579000FF920F931F93CF93DF93CDB7DEB7609740
:1057A0000FB6F894DEBF0FBECDBFFC0109831A838C
:1057B0002B833C834D835E836F83788789869A86AB
:1057C000AB86BC86CD86DE86EF86F88AAD80BE804D
:1057D000CF80D884ED84FE840F85188989859A85C9
:1057E000AB85BC8529813A814B815C81820F931FF7
:1057F000A41FB51F80839183A283B383EA0CFB1C93
:105800000C1D1D1DE482F58206831783CF010E94C3
:105810009F2B81E090E060960FB6F894DEBF0FBE3C
:10582000CDBFDF91CF911F910F91FF90EF90DF904F
:10583000CF90BF90AF909F908F90089560933F104E
:105840007093401080934110909342102093431026
:1058500030934410409345105093461008958F9212
:105860009F92AF92BF92CF92DF92EF92FF920F93EF
:105870001F93CF93DF93CDB7DEB728970FB6F89479
:10588000DEBF0FBECDBF29833A834B835C836D831C
:105890007E838F8398878D809E80AF80B884E980D7
:1058A000FA800B811C81E114F1040105110501F15D
:1058B00080E09AECAAE9BBE3880E991EAA1EBB1EE3
:1058C000C501B40123EB36EE4EE050E00E9475397D
:1058D00069010894E108F108010911098AE0EE0C58
:1058E000FF1C001F111F8A95D1F7CE0CDF1C09C0C9
:1058F000C501B40123EB36EE4EE050E00E9475394D
:105900006901B60102C06050744094E061307907CB
:10591000D0F78827992723EB36EE4EE050E00E941F
:105920002F39675A7C48884F9F4F681579058A053B
:105930009B0518F40894C11CD11CC60128960FB60B
:10594000F894DEBF0FBECDBFDF91CF911F910F91B5
:10595000FF90EF90DF90CF90BF90AF909F908F908F
:1059600008952F923F924F925F926F927F928F9203
:105970009F92AF92BF92CF92DF92EF92FF920F93DE
:105980001F93CF93DF93CDB7DEB728970FB6F89468
:10599000DEBF0FBECDBF7B018C0173708070907035
:1059A00023EB36EE4EE050E00E942F396D837E836C
:1059B0008F8398879AE016950795F794E7949A95C0
:1059C000D1F7E982FA820B831C83988529803A807B
:1059D0004B805C806D807E808F80222D332D442D06
:1059E000552D662D772D882D28960FB6F894DEBF9D
:1059F0000FBECDBFDF91CF911F910F91FF90EF9020
:105A0000DF90CF90BF90AF909F908F907F906F90DE
:105A10005F904F903F902F900895AF92BF92CF929A
:105A2000DF92EF92FF920F931F93CF93DF93CDB747
:105A3000DEB728970FB6F894DEBF0FBECDBF29831F
:105A40003A834B835C836D837E838F839887AD809D
:105A5000BE80CF80D884E980FA800B811C81E1145C
:105A6000F1040105110509F180E09AECAAE9BBE314
:105A7000A80EB91ECA1EDB1EC601B50123EB36EE09
:105A80004EE050E00E9475390894E108F1080109E0
:105A900011096AE0EE0CFF1C001F111F6A95D1F777
:105AA000E20EF31E041F151F0AC0C601B50123EB49
:105AB00036EE4EE050E00E94753979018A01C80146
:105AC000B70104C060507440804090406130A4E051
:105AD0007A07A0E08A07A0E09A07A0F723EB36EE4A
